:100000000C94C30E0C94EC3D0C94C13D0C94963DA5
:100010000C946B3D0C94403D0C94153D0C94EA3CC3
:100020000C94BF3C0C94F40E0C94F40E0C94F40E4F
:100030000C94F40E0C94F40E0C94F40E0C94F40E38
:100040000C94F40E0C94F40E0C94F40E0C94F40E28
:100050000C94F40E0C94F40E0C94F40E0C94753C69
:100060000C94F40E0C943F3C0C94153C0C94F40E40
:100070000C94F40E0C94F40E0C94F40E0C94F40EF8
:100080000C94F40E0C94F40E0C94F40E0C94F40EE8
:100090000C94DF3B0C94B53B0C94F40E0C94173E7F
:1000A0000C94F40E0C94F40E0C94F40E0C94F40EC8
:1000B0000C94F40E0C94F40E0C94F40E0C94F40EB8
:1000C0000C94F40E0C94F40E0C94F40E0C94F40EA8
:1000D0000C94F40E0C94F40E0C94F40E0C94F40E98
:1000E0000C94F40E0C9454110C94210F0C942311C5
:1000F0000C942B0F0C942D0F0C94FB110C94B71037
:100100000C94BB100C94EE160C9446100C942C0F0F
:100110000C94F1100C94200F0C94DE160C9499148E
:100120000C94860F0C94E8100C94590F0C94DE106C
:100130000C9401170C9453180C94C6100C9435179A
:100140000C94F2100C94F7140C94DF160C94B70F67
:100150000C94A90F0C94BF100C94731A0C94C31830
:100160000C94D0100C94C3100C94CC100C94081761
:100170000C94B1100C94E4100C94E7510C942A41A7
:100180000C94F90F0C94EC100C94950F0C94DA105D
:100190000C94D6100C9494110C94F6104E414E49C8
:1001A0004E495459494E46CDCCCC3D0AD7233C1735
:1001B000B7D13877CC2B329595E6241FB14F0A0082
:1001C0000020410000C84200401C4620BCBE4CCA72
:1001D0001B0E5AAEC59D7400407A10F35A00A072EF
:1001E0004E18090010A5D4E80000E8764817000072
:1001F000E40B54020000CA9A3B000000E1F5050040
:100200000080969800000040420F000000A0860188
:10021000000000102700000000E803000000006458
:1002200000000000000A00000000000100000000C3
:10023000002C76D888DC674F0823DFC1DFAE59E198
:10024000B1B796E5E3E453C63AE651997696E8E607
:10025000C28426EB898C9B62ED407C6FFCEFBC9CDA
:100260009F40F2BAA56FA5F490055A2AF75C936BEC
:100270006CF9676DC11BFCE0E40D47FEF520E6B5A7
:1002800000D0ED902E0300943577050080841E0881
:100290000000204E0A000000C80C333333330F989F
:1002A0006E12831141EF8D2114893BE65516CFFE66
:1002B000E6DB18D1844B381BF77C1D901DA4BBE4F2
:1002C00024203284725E228100C9F124ECA1E53D34
:1002D00027436F696E20496E7365727465642120CF
:1002E00043757272656E742042616C616E63653A2B
:1002F0002054736820005072652D436C6F73652025
:100300004F66667365742073617665643A200045B4
:100310004550524F4D207772697465206661696C53
:10032000656420666F7220746F74616C436F696ED0
:100330007321205265747279696E672E2E2E0053D8
:1003400061766564204F776E6572204E756D6265CB
:10035000723A2000454550524F4D207772697465BE
:10036000206661696C656420666F7220666C6F77C9
:1003700043616C6962726174696F6E466163746F28
:100380007221205265747279696E672E2E2E004597
:100390004550524F4D207772697465206661696CD3
:1003A000656420666F722070726963655065724C77
:1003B0006974657221205265747279696E672E2E98
:1003C0002E0053544F5245445F43415244533A0028
:1003D0002000436F6D6D616E64733A2027707269FF
:1003E0006365272C202763616C666163746F7227D5
:1003F0002C2027707265636C6F7365272C20277320
:10040000657470686F6E65272C202762616C616E61
:100410006365272C20277265736574272C20276E4F
:10042000657770617373272C20277573657270610F
:100430007373272C2027414444434152443A3C6E75
:10044000616D653E3A3C62616C616E63653E272C6E
:10045000202741444442414C414E43453A3C6E6161
:100460006D653E3A3C616D6F756E743E272C20279A
:1004700044454C455445434152443A3C6E616D6598
:100480003E272C202744454C455445414C4C434184
:100490005244533A3C70617373776F72643E272CF9
:1004A0002027434152444C495354272C2027657838
:1004B0006974270020005072652D436C6F736520AE
:1004C0004F6666736574206C6F616465643A2000E2
:1004D000200050686F6E653A200043616C6962725B
:1004E0006174696F6E20466163746F723A200050C8
:1004F000726963652F4C203A20547368200043755D
:100500007272656E7420446174613A0020002000AC
:10051000436F6D6D616E64733A20274144444341DB
:1005200052443A3C6E616D653E3A3C62616C616E6C
:1005300063653E272C202741444442414C414E43B1
:10054000453A3C6E616D653E3A3C616D6F756E7407
:100550003E272C202765786974270020002000435F
:100560006F6E746163743A202B3235353734333013
:100570003938343932005448414E4B5320464F529B
:10058000205452555354494E472044757261626C51
:10059000652057617465722056656E6473005265FC
:1005A0007475726E656420746F20576F726B204D86
:1005B0006F64652E00416C6C20646174612073610E
:1005C0007665642100200020002000456E7465726D
:1005D000202744454C455445414C4C4341524453DB
:1005E0003A3C70617373776F72643E270020004558
:1005F0006E746572202744454C455445434152442E
:100600003A3C6E616D653E27002000456E74657250
:10061000202741444442414C414E43453A3C6E619F
:100620006D653E3A3C616D6F756E743E270020002B
:10063000200020004F722073656E64206F7468651F
:100640007220636F6D6D616E64732E00456E74650C
:10065000726564205365742050686F6E65204D6F1D
:1006600064653A2053656E642070686F6E65206E15
:10067000756D6265722028652E672E2C202B323511
:1006800035373433303938343932290020002000EE
:1006900053656E64206F7468657220636F6D6D6161
:1006A0006E64732E002000546F74616C2053616C73
:1006B0006573206E6F773A205473682000200053D2
:1006C000616C6573207265736574210020002000E1
:1006D00053656E64206F7468657220636F6D6D6121
:1006E0006E64732E002000546F74616C2053616C33
:1006F00065733A20547368200020002000456E7412
:100700006572656420557365722050617373776FED
:100710007264204368616E6765204D6F64653A209E
:1007200053656E64206E6577207573657220706105
:100730007373776F72642028342D313520636861BC
:1007400072616374657273290020002000456E7425
:10075000657265642050617373776F7264204368BB
:10076000616E6765204D6F64653A2053656E642045
:100770006E65772070617373776F72642028342DF3
:10078000313520636861726163746572732900207A
:100790000020004F722073656E64206F746865726C
:1007A00020636F6D6D616E64732E00456E746572AB
:1007B00065642043616C6663746F72204D6F64657D
:1007C0003A2053656E6420666163746F72202865F9
:1007D0002E672E2C20372E352900200020004F7246
:1007E0002073656E64206F7468657220636F6D6D31
:1007F000616E64732E00456E74657265642050727C
:10080000696365206D6F64653A2053656E6420707E
:10081000726963652028652E672E2C2036302E30B5
:100820002900200029005D202841534349493A20EE
:100830000044697363617264656420636861723A3D
:10084000205B00200053656E642064656661756CF2
:1008500074206F72206E65772070617373776F728A
:10086000642E0050617373776F72642072657365D4
:100870007420746F2064656661756C7421002000BB
:1008800050617373776F726420616E64206F776E4E
:100890006572206E756D6265722072657365742075
:1008A000746F2064656661756C742E0053455450F6
:1008B00052453A0043415244544F5055503A004536
:1008C00052524F523A496E76616C696420416D6FA5
:1008D000756E74004552524F523A43617264204E15
:1008E0006F7420466F756E640043617264204465C6
:1008F0006C6574656400535543434553533A4361F3
:1009000072642044656C65746564004361726420A0
:100910004E6F7420466F756E64004552524F523AC6
:1009200043617264204E6F7420466F756E6400459B
:100930004550524F4D20436172647320436C656192
:100940007265640053455450524943453A0053453B
:100950005443414C3A002000496E76616C69642032
:10096000636F6D6D616E64212053656E6420274155
:100970004444434152443A3C6E616D653E3A3C62A8
:10098000616C616E63653E27206F72202765786910
:1009900074272E002000456E7465726564204164E2
:1009A000642043617264204D6F64653A2053636133
:1009B0006E2052464944206361726400200020008A
:1009C000456E7465722027414444434152443A3C89
:1009D0006E616D653E3A3C62616C616E63653E2797
:1009E000206F7220276578697427004552524F5254
:1009F0003A496E76616C696420416D6F756E740062
:100A00002000456E7465722027414444434152449E
:100A10003A3C6E616D653E3A3C62616C616E636545
:100A20003E27206F7220276578697427004552524F
:100A30004F523A4E616D6520416C72656164792058
:100A40005573656400456E746572202741444443C4
:100A50004152443A3C6E616D653E3A3C62616C6164
:100A60006E63653E27206F722027657869742700C2
:100A70004552524F523A4E616D6520546F6F204C73
:100A80006F6E6700456E7465722027414444434190
:100A900052443A3C6E616D653E3A3C62616C616EF7
:100AA00063653E27206F72202765786974270045AB
:100AB00052524F523A496E76616C696420466F72A9
:100AC0006D617400496E76616C696420636F6D6D51
:100AD000616E64212053656E642027636F6E7469B4
:100AE0006E756527206F72202765786974272E0040
:100AF00020004F722073656E642027657869742723
:100B000020746F2073746F7020616464696E672055
:100B1000636172647300456E7465722027414444BA
:100B2000434152443A3C6E616D653E3A3C62616CB1
:100B3000616E63653E2720746F20636F6E74696E0B
:100B4000756520616464696E672061206361726409
:100B50000020002000496E76616C696420636F6D2F
:100B60006D616E64212053656E6420202770726968
:100B70006365272C202773657470686F6E65272C5A
:100B8000202763616C666163746F72272C20276E67
:100B9000657770617373272C202775736572706198
:100BA0007373272C202741444443415244272C206F
:100BB0002741444442414C414E4345272C20274481
:100BC000454C45544543415244272C202744454C2D
:100BD000455445414C4C4341524453272C20274314
:100BE0004152444C495354272C206F72202765787A
:100BF0006974272E002000496E76616C6964206359
:100C00006F6D6D616E64212053656E642027707274
:100C1000696365272C202773657470686F6E65277C
:100C20002C202763616C666163746F72272C202708
:100C30007265736574272C20276E657770617373F6
:100C4000272C20277573657270617373272C2027FA
:100C500041444443415244272C20274144444241CB
:100C60004C414E4345272C202744454C4554454391
:100C7000415244272C202744454C455445414C4C77
:100C80004341524453272C2027434152444C49535B
:100C900054272C206F72202765786974272E002036
:100CA0000053656E64206F7468657220636F6D6DAC
:100CB000616E64732E005573657220706173737773
:100CC0006F7264206368616E67656420616E642082
:100CD00073617665642100200020005573657220E1
:100CE00070617373776F7264206D757374206265C1
:100CF000203420746F203135206368617261637421
:100D0000657273212054727920616761696E2E00CB
:100D1000200053656E64206F7468657220636F6D88
:100D20006D616E64732E0050617373776F7264200F
:100D30006368616E67656420616E642073617665C7
:100D40006421002000200050617373776F7264206B
:100D50006D757374206265203420746F20313520E6
:100D600063686172616374657273212054727920C3
:100D7000616761696E2E00200053656E64206F7498
:100D800068657220636F6D6D616E64732E005068CC
:100D90006F6E65206E756D6265722073657420617B
:100DA0006E642073617665643A200020002000495B
:100DB0006E76616C69642070686F6E65206E756D0B
:100DC00062657221204C656E6774682031302D3168
:100DD000392063686172732C20652E672E2C202BBE
:100DE0003235353734333039383439322C206F725C
:100DF000206F7468657220636F6D6D616E64732E11
:100E00000020002000496E76616C69642063616C8B
:100E1000666163746F72212053656E642061206E79
:100E2000756D626572206265747765656E20302E1F
:100E30003120616E642031302E302C206F72206F93
:100E40007468657220636F6D6D616E64732E0053FC
:100E5000656E64206F7468657220636F6D6D616E7E
:100E600064732E00200043616C466163746F7220CE
:100E700077617465722073657420616E642073619C
:100E80007665643A200020002000496E76616C6926
:100E90006420707269636520706572206C69746586
:100EA00072212053656E642061206E756D626572DB
:100EB000206265747765656E20302E303120616E5A
:100EC000642031303030302E302C206F72206F741F
:100ED00068657220636F6D6D616E64732E00200013
:100EE000200053656E64206F7468657220636F6DB7
:100EF0006D616E64732E0050726963652070657257
:100F0000206C697465722073657420616E6420734F
:100F1000617665643A2054736820002000496E763B
:100F2000616C696420636F6D6D616E64212053652F
:100F30006E642027414444434152443A3C6E616D03
:100F4000653E3A3C62616C616E63653E272C2027EA
:100F500041444442414C414E43453A3C6E616D65CB
:100F60003E3A3C616D6F756E743E272C2027657884
:100F70006974272E00496E76616C696420636F6D19
:100F80006D616E64212053656E6420202770726944
:100F90006365272C202763616C666163746F722719
:100FA0002C202773657470686F6E65272C2027626C
:100FB000616C616E6365272C2027726573657427E9
:100FC0002C20276E657770617373272C202775732B
:100FD000657270617373272C20274144444341524A
:100FE000443A3C6E616D653E3A3C62616C616E6391
:100FF000653E272C202741444442414C414E434505
:101000003A3C6E616D653E3A3C616D6F756E743E43
:10101000272C202744454C455445434152443A3CF3
:101020006E616D653E272C202744454C4554454153
:101030004C4C43415244533A3C70617373776F7226
:10104000643E272C2027434152444C495354272CBB
:10105000202765786974272E002000436F6E746125
:1010600063743A202B3235353734333039383439DC
:1010700032005448414E4B5320464F522054525553
:101080005354494E472044757261626C6520576124
:101090007465722056656E64730052657475726E65
:1010A000656420746F20576F726B204D6F64652EDE
:1010B00000416C6C20646174612073617665642109
:1010C0000020002000556E617574686F72697A6542
:1010D0006420636F6D6D616E6421002000556E6148
:1010E0007574686F72697A656420636F6D6D616E87
:1010F000642100200020004552524F523A57726F2F
:101100006E672050617373776F7264002000200057
:10111000535543434553533A416C6C2043617264C9
:10112000732044656C657465640020004552524F1D
:10113000523A4F776E657220417574686F72697AA2
:101140006174696F6E2052657175697265640045DE
:1011500052524F523A496E76616C696420466F7202
:101160006D6174002000456E746572656420416491
:10117000642043617264204D6F64653A205363615B
:101180006E205246494420636172640020002000B2
:101190004552524F523A496E76616C696420416DF6
:1011A0006F756E740020004552524F523A4E616D79
:1011B0006520416C726561647920557365640045F2
:1011C00052524F523A4E616D6520546F6F204C6FF2
:1011D0006E670020004552524F523A496E76616C5C
:1011E000696420466F726D6174002000556E6175F0
:1011F00074686F72697A656420636F6D6D616E6487
:1012000021002000200053656E64206F74686572B1
:1012100020636F6D6D616E64732E002000546F74D7
:10122000616C2053616C6573206E6F773A20547344
:10123000682000200053616C6573207265736574CB
:1012400021002000556E617574686F72697A65645B
:1012500020636F6D6D616E64210020002000536576
:101260006E64206F7468657220636F6D6D616E646B
:10127000732E002000546F74616C2053616C657391
:101280003A2054736820002000556E617574686FB1
:1012900072697A656420636F6D6D616E64210020F0
:1012A000002000456E746572656420557365722078
:1012B00050617373776F7264204368616E67652055
:1012C0004D6F64653A2053656E64206E65772075B6
:1012D0007365722070617373776F72642028342D88
:1012E000313520636861726163746572732900200F
:1012F00000556E617574686F72697A656420636FFA
:101300006D6D616E64210020002000456E74657271
:1013100065642050617373776F7264204368616EF7
:101320006765204D6F64653A2053656E64206E6575
:10133000772070617373776F72642028342D313594
:1013400020636861726163746572732900200055BF
:101350006E617574686F72697A656420636F6D6D14
:10136000616E642100200020004F722073656E645E
:10137000206F7468657220636F6D6D616E64732E8B
:1013800000456E7465726564205365742050686F03
:101390006E65204D6F64653A2053656E64207068F9
:1013A0006F6E65206E756D6265722028652E672EE2
:1013B0002C202B3235353734333039383439322913
:1013C000002000556E617574686F72697A656420DB
:1013D000636F6D6D616E642100200020004F7220EC
:1013E00073656E64206F7468657220636F6D6D61E4
:1013F0006E64732E00456E74657265642043616C83
:1014000020207761746572204D6F64653A205365C2
:101410006E642063616C6962726174696F6E2066CC
:101420006163746F722028652E672E2C20372E354D
:1014300029002000556E617574686F72697A656461
:1014400020636F6D6D616E642100200020004F727B
:101450002073656E64206F7468657220636F6D6DB4
:10146000616E64732E00456E7465726564205072FF
:10147000696365207761746572204D6F64653A20F9
:1014800053656E6420707269636520706572206CAC
:10149000697465722028652E672E2C2036302E3018
:1014A00029002000556E617574686F72697A6564F1
:1014B00020636F6D6D616E642100200020004F720B
:1014C0002073656E64206F7468657220636F6D6D44
:1014D000616E64732E00456E74657265642050728F
:1014E000652D436C6F7365204D6F64653A205365BD
:1014F0006E64206F666673657420696E206C697413
:101500006572732028652E672E2C20302E3329001B
:1015100020002000496E76616C6964206F666673F6
:101520006574212053656E64206E756D626572204E
:10153000302E30202D2031302E30206C69746572B1
:10154000732C206F72206F7468657220636F6D6DED
:10155000616E64732E002000200053656E64206F5E
:101560007468657220636F6D6D616E64732E002008
:101570006C6974657273005072652D636C6F73656E
:10158000206F66667365742073657420616E6420D5
:1015900073617665643A200020002000496E636F15
:1015A00072726563742070617373776F7264212047
:1015B00054727920616761696E206F722070726564
:1015C000737320726573657420666F7220352073A3
:1015D00065636F6E647320746F20726576657274D4
:1015E00020746F2064656661756C7420706173731C
:1015F000776F72642E002000200055736572204DB5
:101600006F646500200044757261626C65205761EB
:101610007465722056656E64733A20436F6E746110
:1016200063743A202B323535373433303938343916
:101630003200200020004F776E6572204D6F646588
:1016400000200044757261626C6520576174657298
:101650002056656E64733A20436F6E746163743A0A
:10166000202B323535373433303938343932002095
:10167000002000436F6E746163743A202B3235355D
:10168000373433303938343932005448414E4B53B3
:1016900020464F52205452555354494E47204475CA
:1016A0007261626C652057617465722056656E6464
:1016B000730052657475726E656420746F20576F85
:1016C000726B204D6F64652E00426C7565746F6F90
:1016D00074682069646C652074696D656F75742029
:1016E000726561636865642E20416C6C206461746E
:1016F00061207361766564210052657475726E694C
:101700006E6720746F20576F726B00426C75657442
:101710006F6F74682054696D656F75740043415232
:10172000445245473A005363616E20524649442073
:1017300043617264005363616E20616E6F7468650B
:10174000722063617264206F722073656E6420275B
:1017500065786974270042616C3A200043617264C5
:101760002053617665643A20005363616E205246CF
:1017700049442043617264005363616E20616E6F5F
:10178000746865722063617264206F722073656E85
:101790006420276578697427004361726420457866
:1017A00069737473004552524F523A436172642018
:1017B000416C726561647920457869737473005374
:1017C00063616E2052464944204361726400536352
:1017D000616E20616E6F746865722063617264204F
:1017E0006F722073656E64202765786974270045E1
:1017F0006D70747920546167004552524F523A45DA
:101800006D70747920546167005363616E6E696E08
:10181000672E2E2E004B5553414A494C49204B41CF
:10182000444900574153494C49414E41204E4120C3
:101830004F574E4552004B41444920484149504181
:1018400054494B414E4900413A57454B4120534181
:101850004C494F20423A4F4E444F410053414C496E
:101860004F3A2054736820004A494E413A200043C1
:1018700041524453594E432064656C6574653A2067
:10188000002062616C616E63653D004341524453C8
:10189000594E43207570736572743A20004341526B
:1018A0004453594E433A20454550524F4D20696D9F
:1018B000656A616120284D41585F54414753292C86
:1018C00020696D657368696E647761206B756F6EF2
:1018D00067657A610053455454494E47533A207026
:1018E00072652D636C6F7365206D707961206B7507
:1018F000746F6B61207365727665723A2000534590
:101900005454494E47533A2063616C696272617462
:10191000696F6E206D707961206B75746F6B6120DB
:101920007365727665723A200053455454494E47A8
:10193000533A20626569206D707961206B75746F10
:101940006B61207365727665723A20000000220098
:10195000250028002B002E00310034000201000079
:10196000050108010B0100002000230026002900CA
:101970002C002F00320000010000030106010901C4
:1019800000000A0B02090C0D0E08070304010000F9
:101990000000000000000000000000000000000047
:1019A0000000000000000000000000001211100004
:1019B0000000000000000000000000000000000027
:1019C00000000000000000002100240027002A0081
:1019D0002D003000330001010000040107010A015D
:1019E0000102102020080810204010204080020131
:1019F0000201080402010102040810204080804016
:101A00002010080402018004020180402010080414
:101A100002010804020101020408102040800102B2
:101A2000040810204080050505050705080808087A
:101A3000020202020A0A0808040404040101010166
:101A40000101010103030303030303030407070761
:101A50000C0C0C0C0C0C0C0C020202020606060606
:101A6000060606060B0B0B0B0B0B0B0B5072652DB2
:101A7000436C6F7365204F6666736574206C6F618D
:101A80006465643A20003A20456D70747900536CA7
:101A90006F7420002C2042616C616E63653D002CE8
:101AA000204E616D653D003A205461673D00536CE6
:101AB0006F74200053746F726564204361726473A5
:101AC0003A00507269636520706572204C697465D4
:101AD0007220004C6F61646564204F776E657220E0
:101AE0004E756D6265723A200043616C6962726185
:101AF00074696F6E20466163746F723A20002044EF
:101B00002E572E56200044555241424C45205741F5
:101B10005445522056454E440048423A0054584ECF
:101B20003A434F494E3A004B4152494255205445A1
:101B30004E41004153414E54452053414E410054C3
:101B400073683A004C6974613A004A554D4C412023
:101B50005941204C4954413A004A554D4C413A5460
:101B600073682000494E41544F41204D414A492E4F
:101B70002E2E2E2E2E2E0054584E3A434152443AC9
:101B8000004B41524942552054454E41004153417A
:101B90004E54452053414E41005473683A004C69FD
:101BA00074613A004A554D4C41205941204C4954EA
:101BB000413A004A554D4C413A5473682000494E11
:101BC00041544F41204D414A492E2E2E2E00536341
:101BD000616E204B6164692054656E61004D55440F
:101BE0004120554D454953484100413A57454B41E5
:101BF0002053414C494F20423A4F4E444F410053ED
:101C0000414C494F3A2054736820004A494E413AAA
:101C100020004D55444120554D4549534841002031
:101C200020202020202020202020202020202000D4
:101C300053414C494F3A2054736820004A494E4161
:101C40003A20004D616A692E2E2E2E2E004C6974AA
:101C500065723A2000200053414C494F2048414CC6
:101C600049544F5348490020004B49415349204BA8
:101C700049444F474F2053414E4100413A57454B4D
:101C8000412053414C494F20423A4F4E444F41006E
:101C900053414C494F3A2054736820004A494E4101
:101CA0003A200048414B554E41204B494153490091
:101CB0004B61646920496D656F6E646F6C65776117
:101CC00000423A4F4E444F4120202A3A4655544153
:101CD00000424F4E59455A412023204B55525548FA
:101CE0005553556000200057454B41204B49415307
:101CF00049205473683A004B61646920496D656FEF
:101D00006E646F6C65776100545A533A20004F4EF1
:101D100047455A412053414C494F004C6974657204
:101D20003A200044697370656E73696E672057616D
:101D30007465722028436F696E732900202020008B
:101D400053414C494F20545A533A200057454B4178
:101D5000204B4144490057454B4120534152414695
:101D6000552041550048414B554E41205348554759
:101D7000485552490053797374656D2052657365F7
:101D800074002A41E75111241FBECFEFD1E2DEBF1C
:101D9000CDBF00E00CBF28E0A6E8B5E001C01D9271
:101DA000A33CB207E1F715E0A0E0B2E0E8E9F6EB0A
:101DB00000E00BBF02C007900D92A638B107D9F71B
:101DC0001EE0C2ECDEE000E006C021970109802F92
:101DD000FE010E94C758C13CD10780E00807A9F75F
:101DE0000E9443420C943A5B0C940000FC01A089D1
:101DF000B18982E08C93A485B5851C92A685B785B0
:101E00008FEC8C93108EA489B58986E08C93A2897F
:101E1000B3898C9180618C93A289B3898C918860FD
:101E20008C93A289B3898C9180688C930288F38902
:101E3000E02D80818F7D808308958CBD9DBD0895A8
:101E400008958091A6069091A70601969093A70603
:101E50008093A6060895089508950895DC01ED91F4
:101E6000FC910190F081E02D1994EF92FF920F9375
:101E70001F93CF93DF938C017B01D0E0C0E0F7018B
:101E8000EC0FFD1F6491662361F0D801ED91FC9188
:101E90000190F081E02DC8011995892B11F0219650
:101EA000EECFCE01DF91CF911F910F91FF90EF9078
:101EB0000895AF92BF92CF92DF92EF92FF920F936D
:101EC0001F93CF93DF936C017B018B01040F151FD0
:101ED000EB015E01AE18BF08C017D10759F0699138
:101EE000D601ED91FC910190F081E02DC60119958C
:101EF000892B79F7C501DF91CF911F910F91FF9049
:101F0000EF90DF90CF90BF90AF900895FC01538D7C
:101F1000448D252F30E0842F90E0821B930B5417C3
:101F200010F0CF96089501970895FC01918D828D50
:101F3000981761F0A28DAE0FBF2FB11D5D968C91E9
:101F4000928D9F5F9F73928F90E008958FEF9FEF28
:101F50000895FC01918D828D981731F0828DE80FE4
:101F6000F11D858D90E008958FEF9FEF0895FC019E
:101F7000918D228D892F90E0805C9F4F821B91096B
:101F80008F73992708958EEC96E00E94B70F21E099
:101F9000892B09F420E0822F08958BE697E00E94B8
:101FA000B70F21E0892B09F420E0822F0895FC016E
:101FB000A48DA80FB92FB11DA35ABF4F2C91848DAA
:101FC00090E001968F739927848FA689B7892C9307
:101FD000A089B1898C91837080648C93938D848D5A
:101FE000981306C00288F389E02D80818F7D80835D
:101FF0000895EF92FF920F931F93CF93DF93EC011D
:1020000081E0888F9B8D8C8D98131AC0E889F9899F
:10201000808185FF15C09FB7F894EE89FF896083A2
:10202000E889F98980818370806480839FBF81E023
:1020300090E0DF91CF911F910F91FF90EF90089565
:10204000F62E0B8D10E00F5F1F4F0F731127E02E40
:102050008C8D8E110CC00FB607FCFACFE889F98978
:10206000808185FFF5CFCE010E94D70FF1CFEB8D98
:10207000EC0FFD2FF11DE35AFF4FF0829FB7F8944C
:102080000B8FEA89FB8980818062CFCFCF93DF936A
:10209000EC01888D8823B9F0AA89BB89E889F98980
:1020A0008C9185FD03C0808186FD0DC00FB607FCB5
:1020B000F7CF8C9185FFF2CF808185FFEDCFCE01E8
:1020C0000E94D70FE9CFDF91CF91089580E090E093
:1020D000892B29F00E94CD0F81110E94000080E021
:1020E00090E0892B29F00E94C30F81110E9400000B
:1020F00080E090E0892B49F080E090E0892B29F086
:102100000E94000081110E94000080E090E0892B75
:1021100049F080E090E0892B29F00E9400008111B5
:102120000C94000008958150823108F05AC0E82FC5
:10213000F0E08827E156FF4E8F4F0C94C758BF1030
:10214000C310B110B710BB10F110C610CC10D010D6
:10215000D610DA10DE10E410E810F110EC10F210D6
:10216000F610809180008F77809380000895809191
:1021700080008F7DF9CF80918000877FF5CF84B577
:102180008F7784BD089584B58F7DFBCF8091B0009B
:102190008F778093B00008958091B0008F7DF9CF44
:1021A000809190008F7780939000089580919000A7
:1021B0008F7DF9CF80919000877FF5CF8091A0002F
:1021C0008F778093A00008958091A0008F7DF9CF34
:1021D0008091A000877FF5CF809120018F77809339
:1021E00020010895809120018F7DF9CF80912001F9
:1021F000877FF5CFCF93DF93282F30E0F901E058A8
:10220000F64E8491F901E052F64ED491F901EA5D5F
:10221000F54EC491CC23A1F081110E949310EC2FB4
:10222000F0E0EE0FFF1FEA59F64EA591B491EC9144
:10223000ED2381E090E009F480E0DF91CF910895F3
:1022400080E090E0FACF862F0C94FA101F93CF9382
:10225000DF93282F30E0F901E058F64E8491F90120
:10226000E052F64ED491F901EA5DF54EC491CC23CB
:10227000A9F0162F81110E949310EC2FF0E0EE0FC1
:10228000FF1FE45BF64EA591B4918FB7F894EC91E3
:10229000111108C0D095DE23DC938FBFDF91CF9161
:1022A0001F910895DE2BF8CF862F642F0C942611F2
:1022B000CF93DF9390E0FC01E052F64E24918A5DCB
:1022C000954EFC0184918823C9F090E0880F991FF6
:1022D000FC01EA53F64EA591B491FC01E45BF64E85
:1022E000C591D49161110DC09FB7F8948C91209540
:1022F00082238C938881282328839FBFDF91CF91ED
:102300000895623051F49FB7F8943C91822F8095E4
:1023100083238C93E8812E2BEFCF8FB7F894EC9129
:102320002E2B2C938FBFEACF862F642F0C9458113D
:102330003FB7F89480915B0690915C06A0915D0692
:10234000B0915E0626B5A89B05C02F3F19F00196F7
:10235000A11DB11D3FBFBA2FA92F982F8827BC01FF
:10236000CD01620F711D811D911D42E0660F771F27
:10237000881F991F4A95D1F708958F929F92AF9227
:10238000BF92CF92DF92EF92FF924B015C010E94CD
:1023900098116B017C010E9498116C197D098E09BE
:1023A0009F09683E734081059105A8F321E0821AD8
:1023B0009108A108B10888EEC80E83E0D81EE11C80
:1023C000F11C81149104A104B10429F7FF90EF904E
:1023D000DF90CF90BF90AF909F908F9008952FB7D0
:1023E000F894609157067091580680915906909123
:1023F0005A062FBF0895BC016E5F7F4FDC01ED913F
:10240000FC910190F081E02D40E0199591E081115F
:1024100090E0892F089508958EBD00000DB407FE49
:10242000FDCF8EB50895DF92EF92FF920F931F9329
:10243000CF93DF937C01062FD42E152F80E590E0FB
:102440000E941D0F60E0F70186850E94261182E13F
:102450000E940C12CD2DD12F0C0F1D2F111DC01756
:10246000D10721F089910E940C12F9CF61E0F701A8
:102470008685DF91CF911F910F91FF90EF90DF90B4
:102480000C9426111F93CF93DF93EC01162F80E558
:1024900090E00E941D0F60E08E850E942611812F22
:1024A00080680E940C1280E00E940C12182F61E0DC
:1024B0008E850E942611812FDF91CF911F91089563
:1024C0000F931F93CF93DF93EC01062F142F80E51A
:1024D00090E00E941D0F60E08E850E942611802FE3
:1024E0000E940C12812F0E940C1261E08E85DF91F8
:1024F000CF911F910F910C942611CF9361E08091A1
:1025000040080E94581161E0809140080E94261105
:10251000809141088F3F09F46AC060E00E94581121
:10252000809141080E94FA10892B09F060C061E097
:10253000809141080E94581160E0809141080E94FA
:10254000261183E090E00197F1F761E08091410866
:102550000E94261162E370E080E090E00E94BD11CD
:1025600040E064E282E398E00E94601240E066E2AC
:1025700082E398E00E94601246E268E482E398E019
:102580000E94601240E864E582E398E00E946012D5
:1025900049EA66E582E398E00E94601243E068E55C
:1025A00082E398E00E94601248EE6AE582E398E0D8
:1025B0000E94601240E46AE282E398E00E946012A6
:1025C0004DE362E282E398E00E94601268E282E3F7
:1025D00098E00E944212982F93709330F9F0482FA0
:1025E000436068E282E398E0CF910C9460124FE080
:1025F00062E082E398E00E946012C3E062E370E070
:1026000080E090E00E94BD1162E082E398E00E94C9
:10261000421284FFA5CFC15089F7A2CFCF91089570
:10262000CF92DF92EF92FF920F931F93CF93DF939E
:10263000EC016B01F42E890140E062E00E9460121F
:1026400044E06AE0CE010E94601240E864E1CE01FD
:102650000E946012A6016F2DCE010E94131243E06A
:1026600062E0CE010E9460120E94EF116B017C01BA
:1026700029E5C20ED11CE11CF11C6AE0CE010E94CA
:10268000421282FF1BC040E062E0CE010E94601255
:1026900064E4CE010E944212F801808362E4CE011C
:1026A0000E944212F801818380E0DF91CF911F9157
:1026B0000F91FF90EF90DF90CF9008950E94EF115F
:1026C0006C157D058E059F05C0F283E0EECF2F923D
:1026D0003F924F925F926F927F928F929F92AF92B2
:1026E000CF92DF92EF92FF920F931F93CF93DF93DE
:1026F0001F921F92CDB7DEB74C012B01D42E3901AA
:1027000080E0E114F10411F0F70180813C2C329457
:1027100090EF3922380E40E062E0C4010E9460125E
:102720004FE768E0C4010E94601240E864E1C40120
:102730000E946012A2016D2DC4010E941312432D4C
:102740006AE1C4010E9460124CE062E0C4010E9490
:1027500060126AE1C4010E944212482F40686AE197
:10276000C4010E9460120E94EF111B012C01F4E2CF
:102770002F0E311C411C511C68E0C4010E94421202
:10278000982F907309F0B7C080FF15C083E00F90B9
:102790000F90DF91CF911F910F91FF90EF90DF90FD
:1027A000CF90AF909F908F907F906F905F904F9061
:1027B0003F902F9008950E94EF11621573058405D4
:1027C0009505D0F2E3CF6114710409F469C00115D5
:1027D000110509F465C064E1C4010E944212382E5B
:1027E000F8018081831508F480C030823320E1F144
:1027F00080E590E00E941D0F60E0F40186850E9454
:1028000026113A9482E90E940C12CC20B1F08FEF8D
:1028100090E09C0102C0220F331FCA94E2F76901C5
:1028200082E90E940C129C2D9095F3012081922345
:102830008C21982B9083CC24C39423014C0C511CE5
:10284000C31440F482E90E940C12F20181932F011B
:10285000C394F6CF80E00E940C12F201808361E005
:10286000F40186850E94261168E1C4010E9442128B
:102870008770E114F10411F0F701808323FC37C065
:1028800061147104B1F10115110599F1AA2089F1C2
:10289000F8014081413031F4843029F58FEF77CF52
:1028A00080E0ECCF4230F8F081111DC042509E0113
:1028B0002F5F3F4FB301C4010E941013811167CFF6
:1028C000F8019081690E711CF30132972081998182
:1028D000291309C0F1E06F1A7108F30120819A8170
:1028E000291709F454CF87E052CF84E050CF82E01B
:1028F0004ECF80E04CCF6CE0C4010E944212282EE3
:10290000837109F460CF81E042CF0F931F93CF937F
:10291000DF938C01D62FC42F0E944212C0954C2FFA
:1029200048236D2FC801DF91CF911F910F910C9417
:1029300060128F929F92AF92CF92EF92FF920F937D
:102940001F93CF93DF9300D01F921F92CDB7DEB7B6
:102950004C0182E08D8340E064E2C4010E94601279
:1029600040E066E2C4010E94601246E268E4C401ED
:102970000E94601286E28B838D818230B0F140E844
:102980006CE1C4010E94851487E08C83A12CC12CCA
:10299000CE0104967C018E010B5F1F4F9E012F5FBD
:1029A0003F4F41E0BE016D5F7F4FC4010E9467133E
:1029B000982F811117C08D818230B9F48C818111DB
:1029C00014C081E00F900F900F900F900F90DF9147
:1029D000CF911F910F91FF90EF90CF90AF909F906C
:1029E0008F90089581E0923069F380E0EBCF2F92D1
:1029F0003F924F925F926F927F928F929F92AF928F
:102A0000BF92CF92DF92EF92FF920F931F93CF93DB
:102A1000DF93CDB7DEB72D970FB6F894DEBF0FBEAC
:102A2000CDBF16E0413508F045C1342E4B013C01C5
:102A300040E86CE10E94851483E98983332029F002
:102A400081E0F4019081953008F480E02224239401
:102A5000B12C9B2D990F990F990FD32CD91AD7FC14
:102A6000D12C32E0882319F098E89B8333E021E0F1
:102A70009D2D977009F420E09D2D95959595959540
:102A8000290FC9F094E0811193E0291708F4922FDF
:102A9000EB2DF0E03196E80DF91D232F4191A1E0D7
:102AA000B0E0AC0FBD1FA20FB11D4C932F5F422FA2
:102AB000431B491798F3882311F0F8E0DF0E8FE1EC
:102AC0008D150CF082C090E79A838B819C818927B9
:102AD0009D8189279E8189278F839E01285F3F4F93
:102AE00047E0BE016F5F7F4FC3010E941013182F94
:102AF0008111E0C01A86E3E0EB87DC86CE01079601
:102B00002C0199E09D87CA844C2D4295407F4C0D45
:102B10006AE1C3010E946012A12CCE010A967C01D9
:102B20008E01055F1F4F92014D85BE016F5F7F4F84
:102B3000C3010E946713182F823009F065C06CE151
:102B4000C3010E94421285FDB5C08F7109F480E275
:102B5000282F30E04D2DDD0C550B421753070CF09C
:102B60009DC0D82EE82FE595E595E595EF5F982F68
:102B7000977081E009F480E0E80F81E090E08C0F2D
:102B80009D1F8E0F911DFC012150310927703327A5
:102B900081E090E002C0880F991F2A95E2F79C011E
:102BA0008081822B80838BCF85E98983332031F02C
:102BB00081E0F4019081983008F04BCF80E049CF5C
:102BC00087E9898326E0B22EF9CF9D2D97709A87E9
:102BD0008D2D8595859585958E5F282F2295207F53
:102BE000290F2A8321E0911101C020E0280F2D87B1
:102BF00044244394512C4C0E5D1E480E511CE9E0B8
:102C0000E81BEB87DC867FCF811154C080E2D82E91
:102C10009C8590320CF457CF8B81883809F040C0E6
:102C200083E093E0EB2DF0E03196E80DF91D980F6D
:102C3000A1E0B0E0AC0FBD1FA80FB11D2C912193F6
:102C40008F5F8913F5CFBB84E3E0BE124DC08A8548
:102C500081114AC09E012D5F3F4F41E0B201C30187
:102C60000E941013182F811125C09B81F2018181D0
:102C700098133CC09C818281981338C0808182FF68
:102C800012C02394F2E02F1609F48ECF83E02816A9
:102C900009F496CF91E0291609F4CECE15E00AC0CA
:102CA00082E094E0BFCFF4018387822D880F820DEC
:102CB0008F5F8083812F2D960FB6F894DEBF0FBEF5
:102CC000CDBFDF91CF911F910F91FF90EF90DF90DB
:102CD000CF90BF90AF909F908F907F906F905F90BC
:102CE0004F903F902F90089511E0E4CF17E0E2CF8E
:102CF0002091E505260F3327331F21323105ECF4EF
:102D000020912E06FC0190E080E0243069F082E002
:102D10000895A091E5052191AC014B535A4FA40FA2
:102D2000B52FB11D2C930196861798F38091E50578
:102D3000680F6093E50580E0089581E008951092A2
:102D40002E0681E080932D061092080661E084E152
:102D50000E94261161E085E10E942611E9EBF0E076
:102D600080818E7F808380818D7F808388E48093C3
:102D7000B80085E48093BC000895CF93DF9391E081
:102D80009093C4058823B9F0C091B800D091BA00DF
:102D90008091BC008A7B8093BC0060E084E10E944B
:102DA000261160E085E10E9426110E949F16D093B3
:102DB000BA00C093B800DF91CF9108950895E091D3
:102DC000670680916606E81730F4F0E0EC55FA4F9C
:102DD000808190E008958FEF9FEF089590916706AE
:102DE000809166062FEF3FEF981748F4E92FF0E047
:102DF000EC55FA4F208130E09F5F90936706C90140
:102E000008958091660690916706891B990B089535
:102E1000CF92DF92EF92FF920F931F93CF93DF93A6
:102E20007C01CB018A0120913406222389F0EB0139
:102E30006B01C40ED51ECC15DD0569F06991D70173
:102E4000ED91FC910190F081E02DC7011995F3CF30
:102E5000642F0E947816C801DF91CF911F910F91C6
:102E6000FF90EF90DF90CF900895CF93DF931F9264
:102E7000CDB7DEB76983209134062223F9F0209183
:102E80006406203258F021E030E0FC0133832283D5
:102E900090E080E00F90DF91CF91089580916506DA
:102EA000E82FF0E0EB5CF94F998190838F5F80937E
:102EB00065068093640681E090E0ECCF61E0CE018E
:102EC00001960E947816F7CFCF92DF92EF92FF9291
:102ED0000F931F93CF93DF93FC01C48121E02093D4
:102EE0003406C093550610926506109264068385D9
:102EF000682B88E098E00E943517D0916406D132A3
:102F000008F092C00E9498116B017C0180912E06FE
:102F1000811165C082E080932E0681E080932D06AA
:102F20008FEF80932C0610922B06D0932A06A5E3F0
:102F3000B6E0EAE0F6E080E0D81385C0109209061A
:102F400080910906CC0FC82BC09309068091080612
:102F5000813009F07CC0109208060E9498116B0124
:102F60007C01809109068093BB008091300690918E
:102F70003106A0913206B0913306892B8A2B8B2B18
:102F800099F00E949811009130061091310620911D
:102F90003206309133066C197D098E099F09061798
:102FA000170728073907E0F18091BC0083FDD9CFCE
:102FB00085EC8093BC000E9498116B017C0180918C
:102FC0002E06823009F445C080912C068F3F61F1B6
:102FD00080912C06803241F180912C0625C0809191
:102FE000300690913106A0913206B0913306892BBC
:102FF0008A2B8B2B09F48ACF0E94981100913006FE
:103000001091310620913206309133066C197D09FA
:103010008E099F09061717072807390708F076CF8A
:1030200080912F060E94BD161092650610926406CC
:1030300010923406DF91CF911F910F91FF90EF9086
:10304000DF90CF9008959D9191938F5F75CF85EE1E
:10305000B0CF8091300690913106A0913206B091A8
:103060003306892B8A2B8B2B09F4A9CF0E94981148
:1030700000913006109131062091320630913306CE
:103080006C197D098E099F0906171707280739074C
:1030900008F095CFC5CF88E08093BC0860E081EB55
:1030A00098E00C94641790E080E008950F931F93CC
:1030B000CF938C01C62F0E9464176C2F6460C801E7
:1030C0000E9464176C2F6B7FC8010E94641783EC09
:1030D00090E00197F1F7CF911F910F9108950F9311
:1030E0001F93CF93DF938C01D62FC42F607F642B67
:1030F0000E94561880E1D89FB00111246C2BC801A2
:10310000DF91CF911F910F910C945618CF93DF93BD
:1031100000D000D01F921F92CDB7DEB798E0EAE74B
:10312000F2E0DE01119601900D929A95E1F79091EF
:10313000B908961710F46FEF690F262F30E0220FB1
:10314000331F41E050E04C0F5D1F240F351FF90184
:103150006081680F606840E081EB98E028960FB6C8
:10316000F894DEBF0FBECDBFDF91CF910C946F18E6
:1031700040E061E081EB98E00E946F188BE39FE1F3
:103180000197F1F7089541E00E946F1881E090E007
:103190000895FB0144815581FC0124813581241768
:1031A000350778F080819181009759F0FB016081AB
:1031B00071816115710529F00E941D5B21E0892B49
:1031C00009F020E0822F0895CF93DF93EC018881EE
:1031D0009981009711F00E947F59198218821D82EF
:1031E0001C821B821A82DF91CF910895FC0180819D
:1031F0009181009711F00C947F590895CF92DF923E
:10320000EF92FF920F931F93CF93DF93EB017B011C
:1032100023E2E20EF11C8B016C01C61AD70AC6012B
:10322000800F911F0E944957F80181938F01EE157D
:10323000FF05A9F7CE01DF91CF911F910F91FF906C
:10324000EF90DF90CF900895CF92DF92EF92FF92B0
:103250000F931F93CF93DF93CDB7DEB7A3970FB62E
:10326000F894DEBF0FBECDBF6C0184E4E82EF12CD4
:1032700010E000E0BE016F5F7F4FC7010E94FE18A3
:103280004EE050E0B601CE0101960E941D5B892BF5
:1032900019F4898181110AC00F5F1F4F83E2E80E84
:1032A000F11C0233110531F70FEF1FEFC801A39690
:1032B0000FB6F894DEBF0FBECDBFDF91CF911F9147
:1032C0000F91FF90EF90DF90CF900895EF92FF92D3
:1032D0000F931F93CF93DF93CDB7DEB7A3970FB6AE
:1032E000F894DEBF0FBECDBF84E4E82EF12C10E0D1
:1032F00000E0BE016F5F7F4FC7010E94FE18898109
:10330000882351F00F5F1F4F83E2E80EF11C023358
:10331000110579F70FEF1FEFC801A3960FB6F894C8
:10332000DEBF0FBECDBFDF91CF911F910F91FF90F8
:10333000EF900895CF92DF92EF92FF920F931F9339
:10334000CF93DF93EB017B0120E1E20EF11C8B01B7
:103350006C01C61AD70AC601800F911F0E944957F7
:10336000F80181938F01EE15FF05A9F7CE01DF91DA
:10337000CF911F910F91FF90EF90DF90CF90089524
:10338000CF92DF92EF92FF920F931F93CF93DF9331
:10339000EB017B0124E0E20EF11C8B016C01C61AEB
:1033A000D70AC601800F911F0E944957F8018193E7
:1033B0008F01EE15FF05A9F7CE01DF91CF911F9187
:1033C0000F91FF90EF90DF90CF900895FB01019057
:1033D0000020E9F73197AF01461B570BDC01ED9157
:1033E000FC910280F381E02D19948F929F92AF920D
:1033F000BF92EF92FF920F931F93CF93DF93CDB7BE
:10340000DEB7A1970FB6F894DEBF0FBECDBF7C012B
:10341000FA01CB0119A2223008F42AE08E010F5DD7
:103420001F4F822E912CB12CA12CBF01A50194011C
:103430000E94A558F901CA016A300CF5605DD801F7
:103440006E938D01232B242B252B79F790E080E0C0
:10345000109721F0BD01C7010E94E619A1960FB691
:10346000F894DEBF0FBECDBFDF91CF911F910F91BA
:10347000FF90EF90BF90AF909F908F900895695C00
:10348000DECFCF92DF92EF92FF92CF93DF93AB012B
:10349000BC0177FF1DC06A017C016DE28BE697E0FD
:1034A0000E942E0FEC0144275527BA014C195D09E3
:1034B0006E097F092AE08BE697E00E94F5198C0FD0
:1034C0009D1FDF91CF91FF90EF90DF90CF900895F7
:1034D0002AE08BE697E0DF91CF91FF90EF90DF90AD
:1034E000CF900C94F5196091BC067091BD06809147
:1034F000BE069091BF0620E030E048E452E40E940E
:103500007A576093BC067093BD068093BE06909375
:10351000BF066091BC067091BD068091BE06909179
:10352000BF060E9458586093C0067093C1068093EE
:10353000C2069093C3060E94EF116093C506709374
:10354000C6068093C7069093C80661ED72E08BE6CD
:1035500097E00E94350F4091C0065091C1066091DE
:10356000C2067091C3062AE08BE697E00E94F51927
:1035700066EC72E08BE697E00C94E6192F923F928E
:103580004F925F926F927F928F929F92AF92BF9273
:10359000CF92DF92EF92FF921F93CF93DF93EC01D4
:1035A0006A017B01722EAB019601CB01B6010E942C
:1035B0008C5869EC72E0811126C046015701E894ED
:1035C000B7F82FEF3FEF4FE75FE7C501B4010E9467
:1035D0008C5881110CC02FEF3FEF4FE75FE7C5011B
:1035E000B4010E9422566DEC72E0181664F02FEFC1
:1035F0003FEF4FE75FE4C701B6010E9487581816F6
:10360000B4F461ED72E0CE01DF91CF911F91FF9094
:10361000EF90DF90CF90BF90AF909F908F907F9072
:103620006F905F904F903F902F900C94E6192FEF82
:103630003FEF4FE75FECC701B6010E94225687FDBE
:10364000E0CF20E030E0A901C701B6010E94225678
:10365000312C212C87FF09C06DE2CE010E942E0F74
:103660001C01F7FAF094F7F8F09410E060E070E0D5
:1036700080E09FE3711641F020E030E040E251E449
:103680000E94E6571F5FF6CFA70196010E947A5766
:103690002B013C010E9458584B015C012AE0BC01FF
:1036A000A401CE010E94F5197C01E20CF31C112348
:1036B000C1F1C501B4010E9427569B01AC01C301B1
:1036C000B2010E9479574B015C016EE2CE010E946B
:1036D0002E0FE80EF91E115020F120E030E040E2FC
:1036E00051E4C501B4010E9488562B013C010E949F
:1036F00058584B01B12CA12C2AE0B501A401CE01F0
:103700000E94F519E80EF91EC501B4010E94275662
:103710009B01AC01C301B2010E9479574B015C01CE
:10372000DACFC701DF91CF911F91FF90EF90DF902B
:10373000CF90BF90AF909F908F907F906F905F9051
:103740004F903F902F9008950C94BE1A0F931F93A3
:10375000CF93DF93EC010E94BE1A8C0166EC72E0FD
:10376000CE010E94E619800F911FDF91CF911F912A
:103770000F9108950F931F93CF93DF93EC010E9455
:10378000E6198C0166EC72E0CE010E94E619800F0A
:10379000911FDF91CF911F910F9108950F931F9368
:1037A000CF93DF93EC01FB014481558160817181EE
:1037B0000E94590F8C0166EC72E0CE010E94E6195E
:1037C000800F911FDF91CF911F910F9108950F935B
:1037D0001F93CF93DF93EC010E94350F8C0166ECB1
:1037E00072E0CE010E94E619800F911FDF91CF9108
:1037F0001F910F9108956BE575E08EEC96E00E94A5
:10380000350F60E175E08EEC96E00E94E71B6EE0FC
:1038100075E08EEC96E00C94350F6CE075E08EEC64
:1038200096E00E94350F6EEF74E08EEC96E00E94F9
:10383000E71B6FEE74E08EEC96E00E94350F40912E
:1038400048025091490260914A0270914B0222E075
:1038500030E08EEC96E00E94A61B6AED74E08EECE0
:1038600096E00E94350F40914202509143026091D0
:1038700044027091450222E030E08EEC96E00E9416
:10388000A61B62ED74E08EEC96E00E94350F60E2BC
:1038900072E08EEC96E00E94BA1B60ED74E08EEC54
:1038A00096E00E94350F66EB74E08EEC96E00E9485
:1038B000350F409138025091390260913A0270916F
:1038C0003B0222E030E08EEC96E00E94A61B64EB07
:1038D00074E08EEC96E00E94350F62ED73E08EECA2
:1038E00096E00E94E71B60ED73E08EEC96E00C948E
:1038F000350F0C94E619FC0180819181009711F03D
:103900000C94195260E070E0CB010895AF92BF9221
:10391000CF92DF92EF92FF920F931F93CF93DF939B
:10392000DC01CD90DC901197C114D10439F01496CC
:10393000CD91DC918C017601209761F4DF91CF91DC
:103940001F910F91FF90EF90DF90CF90BF90AF90BD
:10395000089575015701BFEFAB1ABB0AF7018081CB
:10396000082E000C990B0E94F155892B91F7219795
:10397000CC0DDD1D8881082E000C990B0E94F1559D
:10398000892B29F0CE15DF0510F02197F3CFAE017A
:103990004F5F5F4F4E195F09D80115965C934E93A8
:1039A0001497CE14DF0420F4B701C6010E94F95A1F
:1039B000D801ED91FC91119714968D919C91E80F8F
:1039C000F91F1082BBCFCF93DF93FC01C081D1815F
:1039D000209761F08991882349F0082E000C990BFB
:1039E0000E94F15AFE0131978083F4CFDF91CF918D
:1039F0000895FC0124813581232B39F421E0FB015A
:103A00008081882349F020E007C0808191810E9455
:103A10000D5B21E0892BB9F7822F08950F931F9337
:103A2000CF93DF93EC0188819981009759F02A8127
:103A30003B812617370730F081E0DF91CF911F914E
:103A40000F9108958B016F5F7F4F0E94085A009776
:103A500059F0998388831B830A832C813D81232B12
:103A600059F7FC011082E8CF80E0E7CFEF92FF9298
:103A70000F931F93CF93DF936115710541F480E09D
:103A8000DF91CF911F910F91FF90EF900895411515
:103A90005105B1F07B01EC010C811D81040F151F54
:103AA000B8010E940E1D882351F3288139818C8131
:103AB0009D81B701820F931F0E94165B1D830C83AB
:103AC00081E0DECFCF93DF93EC01FB01019000207A
:103AD000E9F73197AF01461B570B0E94361D811144
:103AE00003C0CE010E94E418CE01DF91CF9108956A
:103AF000CF93DF93EC01FB0144815581608171819B
:103B00000E94361D811103C0CE010E94E418CE012F
:103B1000DF91CF910895CF93DF931F921F92CDB77E
:103B2000DEB769831A8241E050E0BE016F5F7F4FCC
:103B30000E94361D0F900F90DF91CF910895EF9264
:103B4000FF920F931F93CF93DF93EC017B018A01C8
:103B5000BA010E940E1D81110BC0CE010E94E41813
:103B6000CE01DF91CF911F910F91FF90EF900895BB
:103B70001D830C83B701888199810E94165BF0CF69
:103B8000FB0101900020E9F73197AF01461B570B6D
:103B90000C949F1D0F931F93CF93DF93CDB7DEB788
:103BA00062970FB6F894DEBF0FBECDBF8C01CB017C
:103BB000F8011182108213821282158214824AE067
:103BC000BE016F5F7F4F0E941D52BE016F5F7F4F2E
:103BD000C8010E94C01D62960FB6F894DEBF0FBEEA
:103BE000CDBFDF91CF911F910F910895EF92FF927A
:103BF0000F931F93CF93DF93CDB7DEB7A1970FB687
:103C0000F894DEBF0FBECDBF7C01CB01BA01F70136
:103C10001182108213821282158214828E010F5F2C
:103C20001F4F22E044E00E94FB51009789F0BC0145
:103C3000C7010E94C01DA1960FB6F894DEBF0FBE4B
:103C4000CDBFDF91CF911F910F91FF90EF9008951D
:103C5000C7010E94E418EFCFFB01DC0111961C9212
:103C60001E9213961C921E92129715961C921E92EB
:103C700014978617970749F0608171816115710566
:103C800021F0448155810C949F1D0895FC011182FF
:103C900010821382128215821482FB01019000208F
:103CA000E9F73197AF01461B570B0C949F1DAF925C
:103CB000BF92CF92DF92EF92FF920F931F93CF9319
:103CC000DF936C015B017A0189012417350720F429
:103CD0008F2D7901042F182F68EC72E0C6010E9425
:103CE000461ED5011496CD91DC91EC16FD06E0F44C
:103CF0000C171D0708F4E801D501ED91FC9111970F
:103D0000EC0FFD1F108110826D917C916E0D7F1D57
:103D1000C60161157105A1F00E94C01DF5018081E9
:103D20009181C80FD91F1883C601DF91CF911F91D0
:103D30000F91FF90EF90DF90CF90BF90AF900895DC
:103D40000E94E418EBCFEF92FF920F931F93CF9353
:103D5000DF93EC018A01FB018481958130E020E052
:103D6000B0E0A0E050E040E08217930758F18217DE
:103D7000930771F4A017B10701F5CE010E94571EF9
:103D8000CE01DF91CF911F910F91FF90EF90089599
:103D90002817390740F4FB01E080F180F701E20FBA
:103DA000F31FEF2821F41092CD06EDECF6E0E08150
:103DB000EA3301F32F5F3F4FD7CFA9014F5F5F4F2A
:103DC0001196F8CF68EC72E0CE010E94461ED8CF63
:103DD000CF93DF93EC01FB01248135810E94571EB4
:103DE000CE01DF91CF91089585ED8093BC00809145
:103DF000300690913106A0913206B09133060796B5
:103E0000A11DB11D23E0B695A795979587952A9595
:103E1000D1F72091BC0024FD03C010922E06089516
:103E20004091300650913106609132067091330610
:103E3000452B462B472B69F30097A105B10541F0AF
:103E40002AE22A95F1F700C00197A109B109E1CF53
:103E500080912F060C94BD160F931F93CF93DF9381
:103E600000E212E0C8E0D0E0F80161918F01CE01DC
:103E70000E9451572196CC31D105B1F76FE373E021
:103E80008BE697E00E94350F60E272E08BE697E0E8
:103E9000DF91CF911F910F910C94BA1BFF920F935A
:103EA0001F93CF93DF93EC01F62E08811981C8018F
:103EB0000E944957F81621F06F2DC8010E945157F2
:103EC000CE01DF91CF911F910F91FF900895AF9296
:103ED000BF92CF92DF92EF92FF920F931F93CF93F7
:103EE000DF931F921F92CDB7DEB78B016B0123E2E8
:103EF000C20ED11C7B015C01A61AB70AC5018E0D4A
:103F00009F1D9A838983F70161917F01CE010196FC
:103F10000E944E1FEC14FD0489F7C8010F900F900A
:103F2000DF91CF911F910F91FF90EF90DF90CF9095
:103F3000BF90AF900895AF92CF92DF92EF92FF9231
:103F40000F931F93CF93DF93CDB7DEB7C456D1093C
:103F50000FB6F894DEBF0FBECDBF8091BB068111B6
:103F600004C08091BA06882349F08091A30581118D
:103F700005C08091A205882309F4D4C10E94EF11E5
:103F800000919E0510919F052091A0053091A105FB
:103F9000601B710B820B930B683C710581059105C9
:103FA00008F4C0C10E947D126AE070E080E090E0F9
:103FB0000E94BD1182E398E00E949914882309F4BD
:103FC000A7C182E398E00E94FB11882309F4A0C1F5
:103FD00068EC72E0CE01815A9F4F0E94461E10E0AD
:103FE00080913408181740F5E12FF0E0EE5CF74FB0
:103FF00083811DA21CA21FA21EA219A618A640E121
:10400000BE016F5F7F4F90E00E942852BE016F5F3C
:104010007F4FCE0184960E94C01D48A559A56CA172
:104020007DA1CE01815A9F4F0E94361DCE018496FC
:104030000E94F6181F5FD4CFCE01815A9F4F0E9475
:10404000E31C0E94EF116093C5067093C60680932F
:10405000C7069093C8068091A305882309F471C20E
:104060008091A205882309F46CC2BE01615A7F4F7A
:10407000CE01875A9F4F0E942C1E6F968EAD9FAD2A
:104080006F971DA21CA21FA21EA219A618A64AE085
:10409000BE016F5F7F4F0E942852BE016F5F7F4F4E
:1040A000CE0184960E94C01D66EF72E0CE0101969B
:1040B0000E94461EBE01675A7F4FCE0101960E94A4
:1040C000781D6CE073E00E94621DBE016C5D7F4F45
:1040D0000E94781DBC018BE697E00E94CE1BCE01AA
:1040E00001960E94F618CE0184960E94F61866E1A9
:1040F00073E0CE0101960E94461EBE01675A7F4FB3
:10410000CE0101960E94781DBC018EEC96E00E94C3
:10411000CE1BCE0101960E94F6180E94B81860E0EE
:1041200080E00E94861869E078E181EB98E00E94C7
:10413000350F6F968EAD9FAD6F97892B71F569EF37
:1041400077E18EEC96E00E94E71B60E080E00E9441
:1041500086186FEE77E181EB98E00E94350F60EDF5
:1041600077E080E090E00E94BD111092A30581E00D
:1041700080939D056EEC77E18EEC96E00E94E71B44
:104180000E94B81860E080E00E9486186FEB77E12B
:1041900081EB98E00E94350F84C06B966EAD7FADC9
:1041A0006B974EE050E0CE0184960E942B5B1AAADA
:1041B000CE0184960E942419019651F165EA77E1B7
:1041C0008EEC96E00E94E71B60E080E00E9486187B
:1041D00069E977E181EB98E00E94350F60ED77E0C7
:1041E00080E090E00E94BD111092A30581E08093D1
:1041F0009D0568E777E18EEC96E00E94E71B0E9440
:10420000B81860E080E00E94861869E677E1C0CFC8
:104210000E9466198C010F3F100709F097C062E3F6
:1042200070E0CE0101960E94CA1D61E373E0CE01E9
:10423000895B9F4F0E94461EBE016F5F7F4FCE017C
:10424000895B9F4F0E94781D6AE473E00E94621DA3
:10425000BC018EEC96E00E94CE1BCE01895B9F4F85
:104260000E94F618CE0101960E94F6181092A2053F
:104270001092A30510929D0568EC72E080E298E030
:104280000E94C01D1092990510929A0510929B05EC
:1042900010929C058091BB06882309F454C00E94AB
:1042A0000D1CCE01875A9F4F0E94F61880E5289674
:1042B0008FAF289729961FAE299727E430E02C0F5F
:1042C0003D1F2E5F3F4F42E0BE01695B7F4F82E39F
:1042D00098E00E941013811110C0A12CC12CF12C68
:1042E000E12C10E000E030E020E044E0BE01695B3A
:1042F0007F4F82E398E00E94671348E060E182E329
:1043000098E00E948514CE01815A9F4F0E94F618B2
:104310000E94EF1160939E0570939F058093A00506
:104320009093A105CC59DF4F0FB6F894DEBF0FBEB6
:10433000CDBFDF91CF911F910F91FF90EF90DF9054
:10434000CF90AF9008950E94FB1BABCF60912008E7
:10435000709121084FE050E0CE01C3960E942B5B84
:1043600023961FAE23978091990590919A05A0916D
:104370009B05B0919C0527968CAF9DAFAEAFBFAFAC
:10438000279783E2FE01B496DE01119601900D920B
:104390008A95E1F723E2209FC001219F900D11240F
:1043A000BE016F5F7F4F8C5B9F4F0E94671F2796F8
:1043B000CCACDDACEEACFFAC27976DE177E18BE6E2
:1043C00097E00E94350FBE016C5D7F4F8BE697E052
:1043D0000E94791C6AE38BE697E00E942E0FBE01D3
:1043E0006D5C7F4F8BE697E00E94791C6AE38BE659
:1043F00097E00E942E0F22E030E0B701A6018BE685
:1044000097E00E94A61B61E088E00E94261168ECFC
:1044100070E080E090E00E94BD1160E088E00E94C2
:10442000261127964CAD5DAD6EAD7FAD2797CE01C1
:10443000895B9F4F0E94F61DBE016D5C7F4FCE01D0
:10444000835B9F4F0E94461E62E573E0CE018D5A4A
:104450009F4F0E94461EBE01635B7F4FCE018D5A67
:104460009F4F0E94781D6CE673E00E94621DBE01A2
:10447000695B7F4F0E94781DBC018EEC96E00E9424
:10448000CE1BCE018D5A9F4F0E94F618CE01835B42
:104490009F4F0E94F618CE01895B9F4F0E94F6182D
:1044A0000E94B81860E080E00E9486186CE577E111
:1044B00081EB98E00E94350FBE016D5C7F4F81EB70
:1044C00098E00E94791C61E080E00E94861866E511
:1044D00077E181EB98E00E94350F27964CAD5DADFA
:1044E0006EAD7FAD279722E030E081EB98E00E942F
:1044F000A41B60ED77E080E090E00E94BD11109277
:10450000A30581E080939D0568EC72E080E298E06D
:104510000E94C01D1092990510929A0510929B0559
:1045200010929C0565E377E18EEC96E00E94E71B14
:104530000E94B81860E080E00E94861866E277E189
:1045400027CEA1966EAD7FADA1974EE050E089E7F2
:1045500096E00E942B5B1092870689E796E00E9406
:10456000241990934702809346028F3F980709F4DD
:104570007EC013E2189F9001199F300D1124BE01D7
:104580006C5D7F4FC9018C5B9F4F0E94FE18FE013E
:10459000B496A9E7B6E001900D921A95E1F761E0B3
:1045A00088E00E9426116AEF70E080E090E00E94AF
:1045B000BD1160E088E00E9426110E94B81860E0FA
:1045C00080E00E94861868E678E181EB98E00E941E
:1045D000350F68E876E081EB98E00E94791C61E095
:1045E00080E00E9486186CE578E181EB98E00E94FB
:1045F000350F409198065091990660919A067091F6
:104600009B0622E030E081EB98E00E94A41B63E06F
:1046100080E00E94861867E478E181EB98E00E94D0
:10462000350F81E08093B8068093A1061092A00612
:1046300068EC72E08AE198E00E94C01D0E94EF11D0
:104640006093A2067093A3068093A4069093A50698
:1046500061E088E00E9426116AEF70E080E090E05F
:104660000E94BD1160E088E00E9426111FCE0E94CA
:10467000B81860E080E00E94861866E378E181EB7C
:1046800098E00E94350F61E080E00E94861863E2A6
:1046900078E181EB98E00E94350F62E080E00E94B3
:1046A000861865E178E181EB98E00E94350F63E0C0
:1046B00080E00E94861860E272E081EB98E00E9440
:1046C000791C61E088E00E94261164EF71E080E0CF
:1046D00090E00E94BD1160E088E00E94261160ED2C
:1046E00077E080E090E00E94BD110E94B818DECD16
:1046F000AF92BF92CF92DF92EF92FF920F931F93F0
:10470000CF93DF931F921F92CDB7DEB78B016B0162
:1047100020E1C20ED11C7B015C01A61AB70AC501BB
:104720008E0D9F1D9A838983F70161917F01CE01D0
:1047300001960E944E1FEC14FD0489F7C8010F90EA
:104740000F90DF91CF911F910F91FF90EF90DF902D
:10475000CF90BF90AF900895CF93DF93CDB7DEB7E2
:1047600060970FB6F894DEBF0FBECDBF60E072E079
:1047700080E390E00E947823BE016F5F7F4F80E36B
:1047800090E00E949A1960E072E0CE0101960E94CA
:104790000D5B892B61F067E773E08BE697E00E9481
:1047A000BA1B60E072E080E390E00E94782360969C
:1047B0000FB6F894DEBF0FBECDBFDF91CF91089545
:1047C000CF93DF93CDB7DEB760970FB6F894DEBF17
:1047D0000FBECDBF60E172E08CE190E00E947823D3
:1047E000BE016F5F7F4F8CE190E00E949A1960E1FB
:1047F00072E0CE0101960E940D5B892B61F069EA9F
:1048000073E08BE697E00E94BA1B60E172E08CE1F6
:1048100090E00E94782360960FB6F894DEBF0FBE3A
:10482000CDBFDF91CF910895AF92BF92CF92DF922B
:10483000EF92FF920F931F93CF93DF931F921F92DC
:10484000CDB7DEB78B016B0124E0C20ED11C7B011A
:104850005C01A61AB70AC5018E0D9F1D9A83898334
:10486000F70161917F01CE0101960E944E1FEC1469
:10487000FD0489F7C8010F900F90DF91CF911F9130
:104880000F91FF90EF90DF90CF90BF90AF90089581
:10489000CF93DF9300D01F92CDB7DEB768E472E00C
:1048A0008CE290E00E941424BE016F5F7F4F8CE287
:1048B00090E00E94C0192091480230914902409135
:1048C0004A0250914B0269817A818B819C810E94BE
:1048D00079579F772AE037ED43E25CE30E948758DF
:1048E000181664F46FE873E08BE697E00E94E71B0C
:1048F00068E472E08CE290E00E9414240F900F9024
:104900000F900F90DF91CF910895CF93DF9300D058
:104910001F92CDB7DEB762E472E084E090E00E94BF
:104920001424BE016F5F7F4F84E090E00E94C019A5
:10493000209142023091430240914402509145023D
:1049400069817A818B819C810E9479579F772AE0C7
:1049500037ED43E25CE30E948758181664F464E57F
:1049600073E08BE697E00E94E71B62E472E084E06C
:1049700090E00E9414240F900F900F900F90DF9101
:10498000CF910895CF93DF9300D01F92CDB7DEB7BC
:104990006FE676E090E080E00E941424BE016F5F35
:1049A0007F4F90E080E00E94C01920916F06309107
:1049B0007006409171065091720669817A818B81EF
:1049C0009C810E9479579F772AE037ED43E25CE3B0
:1049D0000E948758181664F46FE073E08BE697E046
:1049E0000E94E71B6FE676E090E080E00E941424CE
:1049F0000F900F900F900F90DF91CF9108950E942C
:104A0000C2240E9485240E9448240E942C1F0E94D8
:104A1000E0230C94AC231F93CF93DF931091BB063C
:104A2000111105C02091BA06222309F46BC1EC01D3
:104A30006DED73E00E94F91C811107C063EE73E015
:104A4000CE010E94F91C882379F1112309F45AC17F
:104A500081E08093980561E088E00E94261168EC6F
:104A600070E080E090E00E94BD1160E088E00E946C
:104A7000261162E278E08EEC96E00E94350F66EF38
:104A800077E08EEC96E00E94E71B6EED77E08EEC0F
:104A900096E00E94E71B6CED77E08EEC96E0DF91EC
:104AA000CF911F910C94350F69EE73E0CE010E94F7
:104AB000F91C811139C063EF73E0CE010E94F91C2B
:104AC000811132C06DEF73E0CE010E94F91C81119B
:104AD00054C065E074E0CE010E94F91C882309F4FB
:104AE0006FC0112309F40EC181E08093950561E048
:104AF00088E00E94261168EC70E080E090E00E945F
:104B0000BD1160E088E00E94261169E477E08EEC38
:104B100096E00E94350F6DEF76E08EEC96E00E94F5
:104B2000E71B6BEF76E0B9CF112309F4EBC081E00E
:104B30008093970561E088E00E94261168EC70E0A0
:104B400080E090E00E94BD1160E088E00E942611A4
:104B50006AED77E08EEC96E00E94350F6BEA77E025
:104B60008EEC96E00E94E71B63E977E08EEC96E01E
:104B70000E94E71B61E977E090CF112309F4C2C0DE
:104B800081E08093960561E088E00E94261168EC40
:104B900070E080E090E00E94BD1160E088E00E943B
:104BA00026116FE877E08EEC96E00E94350F6DE4F9
:104BB00077E08EEC96E00E94E71B6BE477E06DCF28
:104BC0006EE074E0CE010E94F91C8823E9F1112304
:104BD00009F498C081E08093940561E088E00E9428
:104BE000261168EC70E080E090E00E94BD1160E06A
:104BF00088E00E94261169EF76E08EEC96E00E9434
:104C0000350F67EE76E08EEC96E00E94350F40910E
:104C10006F0650917006609171067091720622E0E5
:104C200030E08EEC96E00E94A61B65EE76E08EECFE
:104C300096E00E94350F60ED76E08EEC96E00E94E3
:104C4000E71B6EEC76E029CF66E174E0CE010E94AE
:104C5000F91C882309F45AC0112309F453C0109297
:104C60006F061092700610927106109272060E94E2
:104C7000C22461E088E00E94261168EC70E080E0C8
:104C800090E00E94BD1160E088E00E9426116CEC6B
:104C900076E08EEC96E00E94350F6FEB76E08EECBE
:104CA00096E00E94E71B6DEB76E08EEC96E00E94AA
:104CB000350F67EA76E08EEC96E00E94350F409162
:104CC0006F0650917006609171067091720622E035
:104CD00030E08EEC96E00E94A61B65EA76E08EEC52
:104CE00096E00E94350F60E976E08EEC96E00E9437
:104CF000E71B6EE876E08EEC96E00E94350F81E0CF
:104D000080939305DF91CF911F9108956CE174E03A
:104D1000CE010E94F91C811123C065E274E0CE012E
:104D20000E94F91C81111CC06EE274E0CE010E9449
:104D3000F91C81113DC067E574E0CE010E94F91CA9
:104D4000882309F44FC06EE276E08EEC96E00E9474
:104D5000350F6BE076E08EEC96E00E94E71B34C0E6
:104D6000112381F281E08093920561E088E00E9446
:104D7000261168EC70E080E090E00E94BD1160E0D8
:104D800088E00E9426116CE876E08EEC96E00E94A6
:104D9000350F6CE476E08EEC96E00E94E71B64E34E
:104DA00076E08EEC96E00E94E71B62E376E075CE3B
:104DB00060E376E08EEC96E00E94350F66E374E0E7
:104DC0008EEC96E00E94BA1B8091BB06882329F0E6
:104DD000DF91CF911F910C940D1CDF91CF911F910A
:104DE0000C94FB1B62E674E0CE010E94F91C882340
:104DF000C1F069E076E08EEC96E00E94350F6FEE30
:104E000075E08EEC96E00E94E71B8091BB0688233C
:104E100029F00E940D1C6DEE75E03FCE0E94FB1B39
:104E2000FACF6DE674E0CE010E94F91C882371F080
:104E3000112309F467CF6BEC75E08EEC96E00E94CD
:104E4000E71B0E940D1C69EC75E027CE6CE774E04F
:104E5000CE010E94F91C882341F0112309F452CF9E
:104E60000E94294067EC75E018CE65E874E0CE0139
:104E70000E94F91C811108C06AE874E0CE010E940A
:104E8000F91C882309F43ECF0E94FF2461E088E0EA
:104E90000E94261168EC70E080E090E00E94BD1155
:104EA00060E088E00E9426111092BB061092BA06BC
:104EB0001092B906109298051092970510929605D7
:104EC00010929505109294051092930510929205F8
:104ED0001092A2051092A30510929D050E944B18F6
:104EE00065EC75E08EEC96E00E94350F65EB75E0A1
:104EF0008EEC96E00E94E71B6EE975E08EEC96E082
:104F00000E94E71B66E775E08EEC96E00E94E71BC7
:104F10006FE575E08EEC96E00E94E71B6DE575E0AD
:104F2000BCCD68E372E080E490E00E94142466EF58
:104F300072E08BE697E00E94350F40913802509165
:104F4000390260913A0270913B0223E030E08BE637
:104F500097E00C94A61B4F925F926F927F928F9274
:104F60009F92AF92BF92CF92DF92EF92FF920F93F8
:104F70001F93CF93DF93CDB7DEB7CC59D1090FB6CE
:104F8000F894DEBF0FBECDBF8C016FE874E0CE0198
:104F900001960E94461EBE016F5F7F4FC8010E94AE
:104FA000C918F82ECE0101960E94F618FF2009F4C8
:104FB00058C149E050E0B801CE018B579F4F0E9485
:104FC000E81EBE016B577F4FCE0101960E942C1E3A
:104FD00050E040E0BE016F5F7F4FCE0185579F4F8D
:104FE0000E94A31ECE0101960E94F618BE016B57C7
:104FF0007F4FCE0184960E942C1E41E050E0BE01FE
:105000006C5D7F4FCE0101960E94A31ECE010196DA
:105010000E947B1C6B017C01CE0101960E94F61858
:10502000CE0184960E94F618BE016B577F4FCE01C9
:1050300001960E942C1E42E050E0BE016F5F7F4F40
:10504000CE018F569F4F0E94A31ECE0101960E9453
:10505000F618BE016B577F4FCE0101960E942C1EA1
:1050600043E050E0BE016F5F7F4FCE0189569F4FF6
:105070000E94A31ECE0101960E94F618CB56DF4F68
:1050800088819981C559D040892B09F47EC0CF56BB
:10509000DF4FE881F981C159D040309721F4109257
:1050A000CD06EDECF6E0A080BE0169567F4FCE0143
:1050B00087589F4F0E942C1EBE0165577F4FCE011F
:1050C00081589F4F0E942C1ECE0181589F4F0E94F5
:1050D000E31CC158DF4F68817981CF57D0404EE043
:1050E00050E0CE0186599F4F0E942B5BE9961FAE80
:1050F000E997CE0186599F4F0E9424198C01019691
:1051000009F098C00E9466198C010F3F100709F042
:105110003FC06DE978E18BE697E00E94E71BCE0186
:1051200081589F4F0E94F618CE0187589F4F0E94CA
:10513000F618CE0189569F4F0E94F618CE018F5661
:105140009F4F0E94F618CE0185579F4F0E94F61878
:10515000CE018B579F4F0E94F618C456DF4F0FB6F3
:10516000F894DEBF0FBECDBFDF91CF911F910F919D
:10517000FF90EF90DF90CF90BF90AF909F908F9077
:105180007F906F905F904F90089591E4A92E8CCFFF
:105190004EE050E0BE0166597F4FCE0101960E945D
:1051A0002B5B1F86EB966EAD7FADEB974FE050E02B
:1051B000CE0140960E942B5B1F8E22E4A21203C0F8
:1051C000C12CD12C7601C8A2D9A2EAA2FBA283E20B
:1051D000FE013196DE01A95BBF4F01900D928A95C9
:1051E000E1F723E2209FC001219F900D1124BE0111
:1051F000695B7F4F8C5B9F4F0E94671F6BE878E174
:105200008BE697E00E94350FBE0166597F4F8BE613
:1052100097E00E94791C61E878E18BE697E00E94B4
:10522000350F22E030E0B701A6018BE697E00E943F
:10523000A61B75CF83E2B82EB09EC001B19E900D23
:105240001124BE016C5D7F4F8C5B9F4F0E94FE1846
:10525000FE01B496DE01119601900D92BA94E1F729
:10526000A1CF69E974E0CE0101960E94461EBE01FD
:105270006F5F7F4FC8010E94C918F82ECE010196BA
:105280000E94F618FF2009F451C048E050E0B80130
:10529000CE0186599F4F0E94E81EBE0166597F4F7E
:1052A000CE01895B9F4F0E942C1ECE01895B9F4FD0
:1052B0000E94E31C29966EAD7FAD29974EE050E029
:1052C000CE0184960E942B5B1AAACE0184960E947E
:1052D00024198F3F980709F11982188A18A219A278
:1052E0001AA21BA243E2489F9001499F300D11244E
:1052F000BE016F5F7F4FC9018C5B9F4F0E94671F8C
:105300006FE678E18BE697E00E94350FBE016C5D99
:105310007F4F8BE697E00E94BA1BCE01895B9F4FBF
:105320000E94F618CE0186599F4F15CF62EA74E0AD
:10533000CE0101960E94461EBE016F5F7F4FC801DD
:105340000E94C918F82ECE0101960E94F618FF207F
:1053500009F403CF49E050E0B801CE01895B9F4FCB
:105360000E94E81EBE01695B7F4FCE0184960E94B9
:105370002C1E50E040E0BE016C5D7F4FCE010196D7
:105380000E94A31ECE0101960E947B1C2B013C01B2
:10539000CE0101960E94F618CE0184960E94F6185E
:1053A000BE01695B7F4FCE0184960E942C1E41E0B6
:1053B00050E0BE016C5D7F4FCE0101960E94A31E9E
:1053C000CE0101960E947B1C4B015C01CE0101962F
:1053D0000E94F618CE0184960E94F618BE01695B01
:1053E0007F4FCE0184960E942C1E42E050E0BE0109
:1053F0006C5D7F4FCE0101960E94A31ECE010196E7
:105400000E947B1C6B017C01CE0101960E94F61864
:10541000CE0184960E94F6182AE037ED43E25CE361
:10542000C301B2010E94875887FD3DC020E030E4EF
:105430004CE156E4C301B2010E94225618169CF1B9
:10544000209148023091490240914A0250914B020A
:10545000C301B2010E9479579F772FE632E143E8FA
:105460005AE30E9487581816F4F44092480250926A
:10547000490260924A0270924B020E94482469E2FB
:1054800079E18BE697E00E94350F409148025091F8
:10549000490260914A0270914B0222E030E08BE6B3
:1054A00097E00E94A61B2DEC3CEC4CEC5DE3C501A3
:1054B000B4010E94875887FD3DC020E030E040E203
:1054C00051E4C501B4010E94225618169CF12091A6
:1054D0004202309143024091440250914502C5017D
:1054E000B4010E9479579F772FE632E143E85AE3EF
:1054F0000E9487581816F4F4809242029092430258
:10550000A0924402B09245020E9485246EEF78E199
:105510008BE697E00E94350F409142025091430282
:10552000609144027091450222E030E08BE697E002
:105530000E94A61B20E030E0A901C701B6010E942D
:10554000875887FD3DC020E030E040E251E4C701CC
:10555000B6010E94225618169CF120913802309113
:10556000390240913A0250913B02C701B6010E94B4
:1055700079579F772FE632E143E85AE30E94875834
:105580001816F4F4C0923802D0923902E0923A022E
:10559000F0923B020E94912765ED78E18BE697E05F
:1055A0000E94350F409138025091390260913A02C1
:1055B00070913B0223E030E08BE697E00E94A61B4F
:1055C000CE01895B9F4FC7CD8F929F92AF92BF92C2
:1055D000CF92DF92EF92FF920F931F93CF93DF93BF
:1055E000CDB7DEB7C05BD1090FB6F894DEBF0FBEF2
:1055F000CDBF8EEC96E00E94B70F892B51F00E9430
:10560000EF116093C5067093C6068093C70690930A
:10561000C8068091BB06811105C08091BA06882317
:1056200009F4ADC08091C4068111A9C00E94EF1198
:105630000091C5061091C6062091C7063091C80694
:10564000601B710B820B930B603C744D8140910584
:1056500008F495C00E94FF2461E088E00E942611B2
:1056600068EC70E080E090E00E94BD1160E088E0AE
:105670000E9426111092BB061092BA061092B9062B
:105680001092980510929705109296051092950524
:105690001092940510929305109292051092A20513
:1056A0001092A30510929D050E944B180E94B818F5
:1056B00060E080E00E9486186BE077E181EB98E083
:1056C0000E94350F61E080E00E94861869EF76E164
:1056D00081EB98E00E94350F69EC76E18EEC96E064
:1056E0000E94E71B62EB76E18EEC96E00E94E71BDE
:1056F0006AE876E18EEC96E00E94E71B63E776E1CC
:105700008EEC96E00E94E71B61E776E18EEC96E076
:105710000E94350F68EC72E086E298E00E94C01D9E
:1057200010929105109290058EEC96E00E94B70FB2
:10573000892B09F4FEC08EEC96E00E94950F182F7D
:1057400061E378E08BE697E00E94350F612F8BE6EE
:1057500097E00E942E0F66E278E08BE697E00E94C9
:10576000350F612F110F770B880B990B0E94411A8F
:1057700064E278E08BE697E00E94E71BD5CF0E94B9
:105780009B1F84E00E94FA10892B09F048C1809188
:105790008F058111ECC00E94EF1160938B0570930F
:1057A0008C0580938D0590938E050E94EF11609378
:1057B000C5067093C6068093C7069093C80681E01D
:1057C00080938F050E94EF11009187051091880545
:1057D0002091890530918A05601B710B820B930B18
:1057E0006A3071058105910508F4ADC08EEC96E034
:1057F0000E94B70F892B09F4A6C00E94EF11609395
:105800008705709388058093890590938A058EECAF
:1058100096E00E94950F682F1091BB0611118EC162
:105820000091BA06011190C280912A0890912B082C
:105830006A3021F06D3011F00C94A33A892B09F4F1
:1058400082C060E172E086E298E00E94F91C81115A
:105850002CC064EC74E0CE0184960E94461EBE010A
:105860006C5D7F4F86E298E00E94C9188823B1F0F2
:1058700049E050E066E278E0CE0101960E94E81E21
:1058800060E172E0CE0101960E94F91C01E08111F5
:1058900001C000E0CE0101960E94F618CE01849668
:1058A0000E94F618002309F4BDC081E08093BB0676
:1058B0008093B90661E088E00E94261168EC70E0F0
:1058C00080E090E00E94BD1160E088E00E94261117
:1058D00060E089E00E94261160E08AE00E942611C3
:1058E0000E94B8181092BC0860E081EB98E00E941A
:1058F00064176FE676E18EEC96E00E94350F63E464
:1059000076E18EEC96E00E94E71B61E476E18EEC96
:1059100096E00E94350F66E376E18EEC96E00E94F9
:10592000E71B64E376E18EEC96E00E94350F0E945F
:105930000D1C68EC72E086E298E00E94C01D109297
:10594000910510929005C055DF4F0FB6F894DEBF59
:105950000FBECDBFDF91CF911F910F91FF90EF90C0
:10596000DF90CF90BF90AF909F908F9008950E944E
:10597000EF1100918B0510918C0520918D053091D0
:105980008E05601B710B820B930B68387341810588
:10599000910508F417CF6CEA74E080E192E00E9470
:1059A000165B61EB74E080E292E00E94165B0E945D
:1059B000E0230E942C1F60E878E08EEC96E00E94C5
:1059C000E71B6FEB74E080E092E00E94165B0E94A0
:1059D000AC2361E088E00E94261168EC70E080E072
:1059E00090E00E94BD1160E088E00E9426116EE701
:1059F00078E08EEC96E00E94350F63E678E08EEC5E
:105A000096E00E94E71B65E478E08EEC96E00E9449
:105A1000E71B63E478E08EEC96E00E94350F10926D
:105A20008F05D0CE60E072E086E298E00E94F91C1B
:105A300081112CC064EC74E0CE0184960E94461E55
:105A4000BE016C5D7F4F86E298E00E94C9188823F2
:105A5000B1F049E050E066E278E0CE0101960E94A4
:105A6000E81E60E072E0CE0101960E94F91C01E0A0
:105A7000811101C000E0CE0101960E94F618CE010E
:105A800084960E94F618002309F445C081E08093B3
:105A9000BA068093B90660E089E00E94261161E0B1
:105AA00088E00E94261168EC70E080E090E00E949F
:105AB000BD1160E088E00E94261160E08AE00E944B
:105AC00026110E94B8181092BC0860E081EB98E0A3
:105AD0000E94641762E376E18EEC96E00E94350F37
