:100000000C94CB0E0C94F43D0C94C93D0C949E3D85
:100010000C94733D0C94483D0C941D3D0C94F23CA3
:100020000C94C73C0C94FC0E0C94FC0E0C94FC0E2F
:100030000C94FC0E0C94FC0E0C94FC0E0C94FC0E18
:100040000C94FC0E0C94FC0E0C94FC0E0C94FC0E08
:100050000C94FC0E0C94FC0E0C94FC0E0C947D3C49
:100060000C94FC0E0C94473C0C941D3C0C94FC0E20
:100070000C94FC0E0C94FC0E0C94FC0E0C94FC0ED8
:100080000C94FC0E0C94FC0E0C94FC0E0C94FC0EC8
:100090000C94E73B0C94BD3B0C94FC0E0C941F3E5F
:1000A0000C94FC0E0C94FC0E0C94FC0E0C94FC0EA8
:1000B0000C94FC0E0C94FC0E0C94FC0E0C94FC0E98
:1000C0000C94FC0E0C94FC0E0C94FC0E0C94FC0E88
:1000D0000C94FC0E0C94FC0E0C94FC0E0C94FC0E78
:1000E0000C94FC0E0C94330F0C94610F0C94F010D4
:1000F0000C94D4100C94FF140C947B1A0C942B11B8
:100100000C949C110C94B9100C94E2520C94CB10EA
:100110000C94EC100C94290F0C94FE100C94E61621
:100120000C94CE100C94E7160C944E100C94031201
:100130000C94DE100C9401100C94F4100C94D81054
:100140000C94E2100C94C3100C948E0F0C94F616C1
:100150000C94CB180C9409170C94E6100C949D0F7A
:100160000C947B410C94FA100C94F9100C94A1148B
:100170000C94340F0C945C110C94B10F0C943D173B
:100180000C94350F0C94BF0F0C94BF100C94280FD7
:100190000C9410170C945B180C94C7104E414E49E8
:1001A0004E495459494E46CDCCCC3D0AD7233C1735
:1001B000B7D13877CC2B329595E6241FB14F0A0082
:1001C0000020410000C84200401C4620BCBE4CCA72
:1001D0001B0E5AAEC59D7400407A10F35A00A072EF
:1001E0004E18090010A5D4E80000E8764817000072
:1001F000E40B54020000CA9A3B000000E1F5050040
:100200000080969800000040420F000000A0860188
:10021000000000102700000000E803000000006458
:1002200000000000000A00000000000100000000C3
:10023000002C76D888DC674F0823DFC1DFAE59E198
:10024000B1B796E5E3E453C63AE651997696E8E607
:10025000C28426EB898C9B62ED407C6FFCEFBC9CDA
:100260009F40F2BAA56FA5F490055A2AF75C936BEC
:100270006CF9676DC11BFCE0E40D47FEF520E6B5A7
:1002800000D0ED902E0300943577050080841E0881
:100290000000204E0A000000C80C333333330F989F
:1002A0006E12831141EF8D2114893BE65516CFFE66
:1002B000E6DB18D1844B381BF77C1D901DA4BBE4F2
:1002C00024203284725E228100C9F124ECA1E53D34
:1002D00027436F696E20496E7365727465642120CF
:1002E00043757272656E742042616C616E63653A2B
:1002F0002054736820005072652D436C6F73652025
:100300004F66667365742073617665643A200045B4
:100310004550524F4D207772697465206661696C53
:10032000656420666F7220746F74616C436F696ED0
:100330007321205265747279696E672E2E2E0053D8
:1003400061766564204F776E6572204E756D6265CB
:10035000723A2000454550524F4D207772697465BE
:10036000206661696C656420666F7220666C6F77C9
:1003700043616C6962726174696F6E466163746F28
:100380007221205265747279696E672E2E2E004597
:100390004550524F4D207772697465206661696CD3
:1003A000656420666F722070726963655065724C77
:1003B0006974657221205265747279696E672E2E98
:1003C0002E0053544F5245445F43415244533A0028
:1003D0002000436F6D6D616E64733A2027707269FF
:1003E0006365272C202763616C666163746F7227D5
:1003F0002C2027707265636C6F7365272C20277320
:10040000657470686F6E65272C202762616C616E61
:100410006365272C20277265736574272C20276E4F
:10042000657770617373272C20277573657270610F
:100430007373272C2027414444434152443A3C6E75
:10044000616D653E3A3C62616C616E63653E272C6E
:10045000202741444442414C414E43453A3C6E6161
:100460006D653E3A3C616D6F756E743E272C20279A
:1004700044454C455445434152443A3C6E616D6598
:100480003E272C202744454C455445414C4C434184
:100490005244533A3C70617373776F72643E272CF9
:1004A0002027434152444C495354272C2027657838
:1004B0006974270020005072652D436C6F736520AE
:1004C0004F6666736574206C6F616465643A2000E2
:1004D000200050686F6E653A200043616C6962725B
:1004E0006174696F6E20466163746F723A200050C8
:1004F000726963652F4C203A20547368200043755D
:100500007272656E7420446174613A0020002000AC
:10051000436F6D6D616E64733A20274144444341DB
:1005200052443A3C6E616D653E3A3C62616C616E6C
:1005300063653E272C202741444442414C414E43B1
:10054000453A3C6E616D653E3A3C616D6F756E7407
:100550003E272C202765786974270020002000435F
:100560006F6E746163743A202B3235353734333013
:100570003938343932005448414E4B5320464F529B
:10058000205452555354494E472044757261626C51
:10059000652057617465722056656E6473005265FC
:1005A0007475726E656420746F20576F726B204D86
:1005B0006F64652E00416C6C20646174612073610E
:1005C0007665642100200020002000456E7465726D
:1005D000202744454C455445414C4C4341524453DB
:1005E0003A3C70617373776F72643E270020004558
:1005F0006E746572202744454C455445434152442E
:100600003A3C6E616D653E27002000456E74657250
:10061000202741444442414C414E43453A3C6E619F
:100620006D653E3A3C616D6F756E743E270020002B
:10063000200020004F722073656E64206F7468651F
:100640007220636F6D6D616E64732E00456E74650C
:10065000726564205365742050686F6E65204D6F1D
:1006600064653A2053656E642070686F6E65206E15
:10067000756D6265722028652E672E2C202B323511
:1006800035373433303938343932290020002000EE
:1006900053656E64206F7468657220636F6D6D6161
:1006A0006E64732E002000546F74616C2053616C73
:1006B0006573206E6F773A205473682000200053D2
:1006C000616C6573207265736574210020002000E1
:1006D00053656E64206F7468657220636F6D6D6121
:1006E0006E64732E002000546F74616C2053616C33
:1006F00065733A20547368200020002000456E7412
:100700006572656420557365722050617373776FED
:100710007264204368616E6765204D6F64653A209E
:1007200053656E64206E6577207573657220706105
:100730007373776F72642028342D313520636861BC
:1007400072616374657273290020002000456E7425
:10075000657265642050617373776F7264204368BB
:10076000616E6765204D6F64653A2053656E642045
:100770006E65772070617373776F72642028342DF3
:10078000313520636861726163746572732900207A
:100790000020004F722073656E64206F746865726C
:1007A00020636F6D6D616E64732E00456E746572AB
:1007B00065642043616C6663746F72204D6F64657D
:1007C0003A2053656E6420666163746F72202865F9
:1007D0002E672E2C20372E352900200020004F7246
:1007E0002073656E64206F7468657220636F6D6D31
:1007F000616E64732E00456E74657265642050727C
:10080000696365206D6F64653A2053656E6420707E
:10081000726963652028652E672E2C2036302E30B5
:100820002900200029005D202841534349493A20EE
:100830000044697363617264656420636861723A3D
:10084000205B00200053656E642064656661756CF2
:1008500074206F72206E65772070617373776F728A
:10086000642E0050617373776F72642072657365D4
:100870007420746F2064656661756C7421002000BB
:1008800050617373776F726420616E64206F776E4E
:100890006572206E756D6265722072657365742075
:1008A000746F2064656661756C742E0053455450F6
:1008B00052453A0043415244544F5055503A004536
:1008C00052524F523A496E76616C696420416D6FA5
:1008D000756E74004552524F523A43617264204E15
:1008E0006F7420466F756E640043617264204465C6
:1008F0006C6574656400535543434553533A4361F3
:1009000072642044656C65746564004361726420A0
:100910004E6F7420466F756E64004552524F523AC6
:1009200043617264204E6F7420466F756E6400459B
:100930004550524F4D20436172647320436C656192
:100940007265640053455450524943453A0053453B
:100950005443414C3A002000496E76616C69642032
:10096000636F6D6D616E64212053656E6420274155
:100970004444434152443A3C6E616D653E3A3C62A8
:10098000616C616E63653E27206F72202765786910
:1009900074272E002000456E7465726564204164E2
:1009A000642043617264204D6F64653A2053636133
:1009B0006E2052464944206361726400200020008A
:1009C000456E7465722027414444434152443A3C89
:1009D0006E616D653E3A3C62616C616E63653E2797
:1009E000206F7220276578697427004552524F5254
:1009F0003A496E76616C696420416D6F756E740062
:100A00002000456E7465722027414444434152449E
:100A10003A3C6E616D653E3A3C62616C616E636545
:100A20003E27206F7220276578697427004552524F
:100A30004F523A4E616D6520416C72656164792058
:100A40005573656400456E746572202741444443C4
:100A50004152443A3C6E616D653E3A3C62616C6164
:100A60006E63653E27206F722027657869742700C2
:100A70004552524F523A4E616D6520546F6F204C73
:100A80006F6E6700456E7465722027414444434190
:100A900052443A3C6E616D653E3A3C62616C616EF7
:100AA00063653E27206F72202765786974270045AB
:100AB00052524F523A496E76616C696420466F72A9
:100AC0006D617400496E76616C696420636F6D6D51
:100AD000616E64212053656E642027636F6E7469B4
:100AE0006E756527206F72202765786974272E0040
:100AF00020004F722073656E642027657869742723
:100B000020746F2073746F7020616464696E672055
:100B1000636172647300456E7465722027414444BA
:100B2000434152443A3C6E616D653E3A3C62616CB1
:100B3000616E63653E2720746F20636F6E74696E0B
:100B4000756520616464696E672061206361726409
:100B50000020002000496E76616C696420636F6D2F
:100B60006D616E64212053656E6420202770726968
:100B70006365272C202773657470686F6E65272C5A
:100B8000202763616C666163746F72272C20276E67
:100B9000657770617373272C202775736572706198
:100BA0007373272C202741444443415244272C206F
:100BB0002741444442414C414E4345272C20274481
:100BC000454C45544543415244272C202744454C2D
:100BD000455445414C4C4341524453272C20274314
:100BE0004152444C495354272C206F72202765787A
:100BF0006974272E002000496E76616C6964206359
:100C00006F6D6D616E64212053656E642027707274
:100C1000696365272C202773657470686F6E65277C
:100C20002C202763616C666163746F72272C202708
:100C30007265736574272C20276E657770617373F6
:100C4000272C20277573657270617373272C2027FA
:100C500041444443415244272C20274144444241CB
:100C60004C414E4345272C202744454C4554454391
:100C7000415244272C202744454C455445414C4C77
:100C80004341524453272C2027434152444C49535B
:100C900054272C206F72202765786974272E002036
:100CA0000053656E64206F7468657220636F6D6DAC
:100CB000616E64732E005573657220706173737773
:100CC0006F7264206368616E67656420616E642082
:100CD00073617665642100200020005573657220E1
:100CE00070617373776F7264206D757374206265C1
:100CF000203420746F203135206368617261637421
:100D0000657273212054727920616761696E2E00CB
:100D1000200053656E64206F7468657220636F6D88
:100D20006D616E64732E0050617373776F7264200F
:100D30006368616E67656420616E642073617665C7
:100D40006421002000200050617373776F7264206B
:100D50006D757374206265203420746F20313520E6
:100D600063686172616374657273212054727920C3
:100D7000616761696E2E00200053656E64206F7498
:100D800068657220636F6D6D616E64732E005068CC
:100D90006F6E65206E756D6265722073657420617B
:100DA0006E642073617665643A200020002000495B
:100DB0006E76616C69642070686F6E65206E756D0B
:100DC00062657221204C656E6774682031302D3168
:100DD000392063686172732C20652E672E2C202BBE
:100DE0003235353734333039383439322C206F725C
:100DF000206F7468657220636F6D6D616E64732E11
:100E00000020002000496E76616C69642063616C8B
:100E1000666163746F72212053656E642061206E79
:100E2000756D626572206265747765656E20302E1F
:100E30003120616E642031302E302C206F72206F93
:100E40007468657220636F6D6D616E64732E0053FC
:100E5000656E64206F7468657220636F6D6D616E7E
:100E600064732E00200043616C466163746F7220CE
:100E700077617465722073657420616E642073619C
:100E80007665643A200020002000496E76616C6926
:100E90006420707269636520706572206C69746586
:100EA00072212053656E642061206E756D626572DB
:100EB000206265747765656E20302E303120616E5A
:100EC000642031303030302E302C206F72206F741F
:100ED00068657220636F6D6D616E64732E00200013
:100EE000200053656E64206F7468657220636F6DB7
:100EF0006D616E64732E0050726963652070657257
:100F0000206C697465722073657420616E6420734F
:100F1000617665643A2054736820002000496E763B
:100F2000616C696420636F6D6D616E64212053652F
:100F30006E642027414444434152443A3C6E616D03
:100F4000653E3A3C62616C616E63653E272C2027EA
:100F500041444442414C414E43453A3C6E616D65CB
:100F60003E3A3C616D6F756E743E272C2027657884
:100F70006974272E00496E76616C696420636F6D19
:100F80006D616E64212053656E6420202770726944
:100F90006365272C202763616C666163746F722719
:100FA0002C202773657470686F6E65272C2027626C
:100FB000616C616E6365272C2027726573657427E9
:100FC0002C20276E657770617373272C202775732B
:100FD000657270617373272C20274144444341524A
:100FE000443A3C6E616D653E3A3C62616C616E6391
:100FF000653E272C202741444442414C414E434505
:101000003A3C6E616D653E3A3C616D6F756E743E43
:10101000272C202744454C455445434152443A3CF3
:101020006E616D653E272C202744454C4554454153
:101030004C4C43415244533A3C70617373776F7226
:10104000643E272C2027434152444C495354272CBB
:10105000202765786974272E002000436F6E746125
:1010600063743A202B3235353734333039383439DC
:1010700032005448414E4B5320464F522054525553
:101080005354494E472044757261626C6520576124
:101090007465722056656E64730052657475726E65
:1010A000656420746F20576F726B204D6F64652EDE
:1010B00000416C6C20646174612073617665642109
:1010C0000020002000556E617574686F72697A6542
:1010D0006420636F6D6D616E6421002000556E6148
:1010E0007574686F72697A656420636F6D6D616E87
:1010F000642100200020004552524F523A57726F2F
:101100006E672050617373776F7264002000200057
:10111000535543434553533A416C6C2043617264C9
:10112000732044656C657465640020004552524F1D
:10113000523A4F776E657220417574686F72697AA2
:101140006174696F6E2052657175697265640045DE
:1011500052524F523A496E76616C696420466F7202
:101160006D6174002000456E746572656420416491
:10117000642043617264204D6F64653A205363615B
:101180006E205246494420636172640020002000B2
:101190004552524F523A496E76616C696420416DF6
:1011A0006F756E740020004552524F523A4E616D79
:1011B0006520416C726561647920557365640045F2
:1011C00052524F523A4E616D6520546F6F204C6FF2
:1011D0006E670020004552524F523A496E76616C5C
:1011E000696420466F726D6174002000556E6175F0
:1011F00074686F72697A656420636F6D6D616E6487
:1012000021002000200053656E64206F74686572B1
:1012100020636F6D6D616E64732E002000546F74D7
:10122000616C2053616C6573206E6F773A20547344
:10123000682000200053616C6573207265736574CB
:1012400021002000556E617574686F72697A65645B
:1012500020636F6D6D616E64210020002000536576
:101260006E64206F7468657220636F6D6D616E646B
:10127000732E002000546F74616C2053616C657391
:101280003A2054736820002000556E617574686FB1
:1012900072697A656420636F6D6D616E64210020F0
:1012A000002000456E746572656420557365722078
:1012B00050617373776F7264204368616E67652055
:1012C0004D6F64653A2053656E64206E65772075B6
:1012D0007365722070617373776F72642028342D88
:1012E000313520636861726163746572732900200F
:1012F00000556E617574686F72697A656420636FFA
:101300006D6D616E64210020002000456E74657271
:1013100065642050617373776F7264204368616EF7
:101320006765204D6F64653A2053656E64206E6575
:10133000772070617373776F72642028342D313594
:1013400020636861726163746572732900200055BF
:101350006E617574686F72697A656420636F6D6D14
:10136000616E642100200020004F722073656E645E
:10137000206F7468657220636F6D6D616E64732E8B
:1013800000456E7465726564205365742050686F03
:101390006E65204D6F64653A2053656E64207068F9
:1013A0006F6E65206E756D6265722028652E672EE2
:1013B0002C202B3235353734333039383439322913
:1013C000002000556E617574686F72697A656420DB
:1013D000636F6D6D616E642100200020004F7220EC
:1013E00073656E64206F7468657220636F6D6D61E4
:1013F0006E64732E00456E74657265642043616C83
:1014000020207761746572204D6F64653A205365C2
:101410006E642063616C6962726174696F6E2066CC
:101420006163746F722028652E672E2C20372E354D
:1014300029002000556E617574686F72697A656461
:1014400020636F6D6D616E642100200020004F727B
:101450002073656E64206F7468657220636F6D6DB4
:10146000616E64732E00456E7465726564205072FF
:10147000696365207761746572204D6F64653A20F9
:1014800053656E6420707269636520706572206CAC
:10149000697465722028652E672E2C2036302E3018
:1014A00029002000556E617574686F72697A6564F1
:1014B00020636F6D6D616E642100200020004F720B
:1014C0002073656E64206F7468657220636F6D6D44
:1014D000616E64732E00456E74657265642050728F
:1014E000652D436C6F7365204D6F64653A205365BD
:1014F0006E64206F666673657420696E206C697413
:101500006572732028652E672E2C20302E3329001B
:1015100020002000496E76616C6964206F666673F6
:101520006574212053656E64206E756D626572204E
:10153000302E30202D2031302E30206C69746572B1
:10154000732C206F72206F7468657220636F6D6DED
:10155000616E64732E002000200053656E64206F5E
:101560007468657220636F6D6D616E64732E002008
:101570006C6974657273005072652D636C6F73656E
:10158000206F66667365742073657420616E6420D5
:1015900073617665643A200020002000496E636F15
:1015A00072726563742070617373776F7264212047
:1015B00054727920616761696E206F722070726564
:1015C000737320726573657420666F7220352073A3
:1015D00065636F6E647320746F20726576657274D4
:1015E00020746F2064656661756C7420706173731C
:1015F000776F72642E002000200055736572204DB5
:101600006F646500200044757261626C65205761EB
:101610007465722056656E64733A20436F6E746110
:1016200063743A202B323535373433303938343916
:101630003200200020004F776E6572204D6F646588
:1016400000200044757261626C6520576174657298
:101650002056656E64733A20436F6E746163743A0A
:10166000202B323535373433303938343932002095
:10167000002000436F6E746163743A202B3235355D
:10168000373433303938343932005448414E4B53B3
:1016900020464F52205452555354494E47204475CA
:1016A0007261626C652057617465722056656E6464
:1016B000730052657475726E656420746F20576F85
:1016C000726B204D6F64652E00426C7565746F6F90
:1016D00074682069646C652074696D656F75742029
:1016E000726561636865642E20416C6C206461746E
:1016F00061207361766564210052657475726E694C
:101700006E6720746F20576F726B00426C75657442
:101710006F6F74682054696D656F7574004C49561D
:10172000453A00434152445245473A005363616E83
:1017300020524649442043617264005363616E2025
:10174000616E6F746865722063617264206F7220CD
:1017500073656E64202765786974270042616C3A6E
:101760002000436172642053617665643A2000531F
:1017700063616E20524649442043617264005363A2
:10178000616E20616E6F746865722063617264209F
:101790006F722073656E6420276578697427004333
:1017A00061726420457869737473004552524F52D8
:1017B0003A4361726420416C7265616479204578B6
:1017C00069737473005363616E2052464944204329
:1017D000617264005363616E20616E6F746865723C
:1017E0002063617264206F722073656E64202765C8
:1017F0007869742700456D707479205461670045DD
:1018000052524F523A456D707479205461670053BB
:1018100063616E6E696E672E2E2E004B5553414AE2
:10182000494C49204B41444900574153494C494197
:101830004E41204E41204F574E4552004B414449A6
:1018400020484149504154494B414E4900413A5783
:10185000454B412053414C494F20423A4F4E444F53
:10186000410053414C494F3A2054736820004A4983
:101870004E413A20004341524453594E432064653F
:101880006C6574653A20002062616C616E63653D31
:10189000004341524453594E43207570736572742E
:1018A0003A20004341524453594E433A2045455053
:1018B000524F4D20696D656A616120284D41585F26
:1018C00054414753292C20696D657368696E6477AC
:1018D00061206B756F6E67657A610053455454499A
:1018E0004E47533A207072652D636C6F7365206D9F
:1018F000707961206B75746F6B61207365727665AA
:10190000723A200053455454494E47533A2063617C
:101910006C6962726174696F6E206D707961206BA1
:1019200075746F6B61207365727665723A2000532F
:10193000455454494E47533A20626569206D707989
:1019400061206B75746F6B61207365727665723A96
:10195000200000002200250028002B002E0031006E
:10196000340002010000050108010B010000200005
:101970002300260029002C002F0032000001000067
:1019800003010601090100000A0B02090C0D0E08F3
:101990000703040100000000000000000000000038
:1019A0000000000000000000000000000000000037
:1019B00000001211100000000000000000000000F4
:1019C00000000000000000000000000000002100F6
:1019D000240027002A002D00300033000101000000
:1019E000040107010A01010210202008081020400C
:1019F00010204080020102010804020101020408D3
:101A00001020408080402010080402018004020160
:101A100080402010080402010804020101020408A9
:101A200010204080010204081020408005050505B3
:101A3000070508080808020202020A0A0808040446
:101A40000404010101010101010103030303030374
:101A50000303040707070C0C0C0C0C0C0C0C020203
:101A6000020206060606060606060B0B0B0B0B0B00
:101A70000B0B5072652D436C6F7365204F66667358
:101A80006574206C6F616465643A20003A20456D8E
:101A900070747900536C6F7420002C2042616C616B
:101AA0006E63653D002C204E616D653D003A20540B
:101AB00061673D00536C6F74200053746F726564EE
:101AC0002043617264733A005072696365207065E7
:101AD00072204C6974657220004C6F6164656420EB
:101AE0004F776E6572204E756D6265723A200043C5
:101AF000616C6962726174696F6E20466163746FB4
:101B0000723A200020442E572E5620004455524150
:101B1000424C452057415445522056454E440048BA
:101B2000423A00434F494E42414C3A0054584E3AD3
:101B3000434F494E3A004B41524942552054454E7D
:101B400041004153414E54452053414E410054738E
:101B5000683A004C6974613A004A554D4C4120592D
:101B600041204C4954413A004A554D4C413A547336
:101B7000682000494E41544F41204D414A492E2E84
:101B80002E2E2E2E2E0054584E3A434152443A00E7
:101B90004B41524942552054454E41004153414E1C
:101BA00054452053414E41005473683A004C6974C7
:101BB000613A004A554D4C41205941204C4954410D
:101BC0003A004A554D4C413A5473682000494E4101
:101BD000544F41204D414A492E2E2E2E0053636111
:101BE0006E204B6164692054656E61004D5544411F
:101BF00020554D454953484100413A57454B4120F6
:101C000053414C494F20423A4F4E444F41005341BB
:101C10004C494F3A2054736820004A494E413A20BB
:101C2000004D55444120554D454953484100202021
:101C30002020202020202020202020202020005391
:101C4000414C494F3A2054736820004A494E413A6A
:101C500020004D616A692E2E2E2E2E004C6974656F
:101C6000723A2000200053414C494F2048414C49D2
:101C7000544F5348490020004B49415349204B4998
:101C8000444F474F2053414E4100413A57454B4145
:101C90002053414C494F20423A4F4E444F4100534C
:101CA000414C494F3A2054736820004A494E413A0A
:101CB000200048414B554E41204B49415349004B70
:101CC00061646920496D656F6E646F6C6577610052
:101CD000423A4F4E444F4120202A3A465554410043
:101CE000424F4E59455A412023204B555255485595
:101CF00053556000200057454B41204B4941534903
:101D0000205473683A004B61646920496D656F6EB9
:101D1000646F6C65776100545A533A20004F4E4708
:101D2000455A412053414C494F004C697465723A01
:101D3000200044697370656E73696E672057617423
:101D400065722028436F696E73290020202000539C
:101D5000414C494F20545A533A200057454B41209B
:101D60004B4144490057454B412053415241465550
:101D70002041550048414B554E4120534855474856
:101D80005552490053797374656D205265736574BB
:101D900000007B41E25211241FBECFEFD1E2DEBF33
:101DA000CDBF00E00CBF28E0A6E8B5E001C01D9261
:101DB000A73CB207E1F715E0A0E0B2E0EEE8F8EBEF
:101DC00000E00BBF02C007900D92A638B107D9F70B
:101DD0001EE0CAECDEE000E006C021970109802F7A
:101DE000FE010E94C259C93CD10780E00807A9F74B
:101DF0000E9494420C94355C0C940000FC01A08974
:101E0000B18982E08C93A485B5851C92A685B7859F
:101E10008FEC8C93108EA489B58986E08C93A2896F
:101E2000B3898C9180618C93A289B3898C918860ED
:101E30008C93A289B3898C9180688C930288F389F2
:101E4000E02D80818F7D808308958CBD9DBD089598
:101E500008958091A6069091A70601969093A706F3
:101E60008093A6060895089508950895DC01ED91E4
:101E7000FC910190F081E02D1994EF92FF920F9365
:101E80001F93CF93DF938C017B01D0E0C0E0F7017B
:101E9000EC0FFD1F6491662361F0D801ED91FC9178
:101EA0000190F081E02DC8011995892B11F0219640
:101EB000EECFCE01DF91CF911F910F91FF90EF9068
:101EC0000895AF92BF92CF92DF92EF92FF920F935D
:101ED0001F93CF93DF936C017B018B01040F151FC0
:101EE000EB015E01AE18BF08C017D10759F0699128
:101EF000D601ED91FC910190F081E02DC60119957C
:101F0000892B79F7C501DF91CF911F910F91FF9038
:101F1000EF90DF90CF90BF90AF900895FC01538D6C
:101F2000448D252F30E0842F90E0821B930B5417B3
:101F300010F0CF96089501970895FC01918D828D40
:101F4000981761F0A28DAE0FBF2FB11D5D968C91D9
:101F5000928D9F5F9F73928F90E008958FEF9FEF18
:101F60000895FC01918D828D981731F0828DE80FD4
:101F7000F11D858D90E008958FEF9FEF0895FC018E
:101F8000918D228D892F90E0805C9F4F821B91095B
:101F90008F739927089582ED96E00E94BF0F21E08C
:101FA000892B09F420E0822F08958FE697E00E94A4
:101FB000BF0F21E0892B09F420E0822F0895FC0156
:101FC000A48DA80FB92FB11DA35ABF4F2C91848D9A
:101FD00090E001968F739927848FA689B7892C93F7
:101FE000A089B1898C91837080648C93938D848D4A
:101FF000981306C00288F389E02D80818F7D80834D
:102000000895EF92FF920F931F93CF93DF93EC010C
:1020100081E0888F9B8D8C8D98131AC0E889F9898F
:10202000808185FF15C09FB7F894EE89FF89608392
:10203000E889F98980818370806480839FBF81E013
:1020400090E0DF91CF911F910F91FF90EF90089555
:10205000F62E0B8D10E00F5F1F4F0F731127E02E30
:102060008C8D8E110CC00FB607FCFACFE889F98968
:10207000808185FFF5CFCE010E94DF0FF1CFEB8D80
:10208000EC0FFD2FF11DE35AFF4FF0829FB7F8943C
:102090000B8FEA89FB8980818062CFCFCF93DF935A
:1020A000EC01888D8823B9F0AA89BB89E889F98970
:1020B0008C9185FD03C0808186FD0DC00FB607FCA5
:1020C000F7CF8C9185FFF2CF808185FFEDCFCE01D8
:1020D0000E94DF0FE9CFDF91CF91089580E090E07B
:1020E000892B29F00E94D50F81110E94000080E009
:1020F00090E0892B29F00E94CB0F81110E940000F3
:1021000080E090E0892B49F080E090E0892B29F075
:102110000E94000081110E94000080E090E0892B65
:1021200049F080E090E0892B29F00E9400008111A5
:102130000C94000008958150823108F05AC0E82FB5
:10214000F0E08827E955FF4E8F4F0C94C259C71015
:10215000CB10B910BF10C310F910CE10D410D81086
:10216000DE10E210E610EC10F010F910F410FA1086
:10217000FE10809180008F77809380000895809179
:1021800080008F7DF9CF80918000877FF5CF84B567
:102190008F7784BD089584B58F7DFBCF8091B0008B
:1021A0008F778093B00008958091B0008F7DF9CF34
:1021B000809190008F778093900008958091900097
:1021C0008F7DF9CF80919000877FF5CF8091A0001F
:1021D0008F778093A00008958091A0008F7DF9CF24
:1021E0008091A000877FF5CF809120018F77809329
:1021F00020010895809120018F7DF9CF80912001E9
:10220000877FF5CFCF93DF93282F30E0F901EA578E
:10221000F64E8491F901EA51F64ED491F901E45D4C
:10222000F54EC491CC23A1F081110E949B10EC2F9C
:10223000F0E0EE0FFF1FE459F64EA591B491EC913A
:10224000ED2381E090E009F480E0DF91CF910895E3
:1022500080E090E0FACF862F0C9402111F93CF9369
:10226000DF93282F30E0F901EA57F64E8491F90107
:10227000EA51F64ED491F901E45DF54EC491CC23B8
:10228000A9F0162F81110E949B10EC2FF0E0EE0FA9
:10229000FF1FEE5AF64EA591B4918FB7F894EC91CA
:1022A000111108C0D095DE23DC938FBFDF91CF9151
:1022B0001F910895DE2BF8CF862F642F0C942E11DA
:1022C000CF93DF9390E0FC01EA51F64E2491845DB8
:1022D000954EFC0184918823C9F090E0880F991FE6
:1022E000FC01E453F64EA591B491FC01EE5AF64E72
:1022F000C591D49161110DC09FB7F8948C91209530
:1023000082238C938881282328839FBFDF91CF91DC
:102310000895623051F49FB7F8943C91822F8095D4
:1023200083238C93E8812E2BEFCF8FB7F894EC9119
:102330002E2B2C938FBFEACF862F642F0C94601125
:102340003FB7F89480915B0690915C06A0915D0682
:10235000B0915E0626B5A89B05C02F3F19F00196E7
:10236000A11DB11D3FBFBA2FA92F982F8827BC01EF
:10237000CD01620F711D811D911D42E0660F771F17
:10238000881F991F4A95D1F708958F929F92AF9217
:10239000BF92CF92DF92EF92FF924B015C010E94BD
:1023A000A0116B017C010E94A0116C197D098E099E
:1023B0009F09683E734081059105A8F321E0821AC8
:1023C0009108A108B10888EEC80E83E0D81EE11C70
:1023D000F11C81149104A104B10429F7FF90EF903E
:1023E000DF90CF90BF90AF909F908F9008952FB7C0
:1023F000F894609157067091580680915906909113
:102400005A062FBF0895BC016E5F7F4FDC01ED912E
:10241000FC910190F081E02D40E0199591E081114F
:1024200090E0892F089508958EBD00000DB407FE39
:10243000FDCF8EB50895DF92EF92FF920F931F9319
:10244000CF93DF937C01062FD42E152F80E590E0EB
:102450000E94250F60E0F70186850E942E1182E11F
:102460000E941412CD2DD12F0C0F1D2F111DC0173E
:10247000D10721F089910E941412F9CF61E0F70190
:102480008685DF91CF911F910F91FF90EF90DF90A4
:102490000C942E111F93CF93DF93EC01162F80E540
:1024A00090E00E94250F60E08E850E942E11812F02
:1024B00080680E94141280E00E941412182F61E0BC
:1024C0008E850E942E11812FDF91CF911F9108954B
:1024D0000F931F93CF93DF93EC01062F142F80E50A
:1024E00090E00E94250F60E08E850E942E11802FC3
:1024F0000E941412812F0E94141261E08E85DF91D8
:10250000CF911F910F910C942E11CF9361E0809188
:1025100044080E94601161E0809144080E942E11DD
:10252000809145088F3F09F46AC060E00E94601105
:10253000809145080E940211892B09F060C061E07A
:10254000809145080E94601160E0809145080E94DA
:102550002E1183E090E00197F1F761E0809145084A
:102560000E942E1162E370E080E090E00E94C511AD
:1025700040E064E286E398E00E94681240E066E290
:1025800086E398E00E94681246E268E486E398E0F9
:102590000E94681240E864E586E398E00E946812B1
:1025A00049EA66E586E398E00E94681243E068E540
:1025B00086E398E00E94681248EE6AE586E398E0B8
:1025C0000E94681240E46AE286E398E00E94681282
:1025D0004DE362E286E398E00E94681268E286E3D7
:1025E00098E00E944A12982F93709330F9F0482F88
:1025F000436068E286E398E0CF910C9468124FE064
:1026000062E086E398E00E946812C3E062E370E053
:1026100080E090E00E94C51162E086E398E00E94AD
:102620004A1284FFA5CFC15089F7A2CFCF91089558
:10263000CF92DF92EF92FF920F931F93CF93DF938E
:10264000EC016B01F42E890140E062E00E94681207
:1026500044E06AE0CE010E94681240E864E1CE01E5
:102660000E946812A6016F2DCE010E941B1243E04A
:1026700062E0CE010E9468120E94F7116B017C019A
:1026800029E5C20ED11CE11CF11C6AE0CE010E94BA
:102690004A1282FF1BC040E062E0CE010E94681235
:1026A00064E4CE010E944A12F801808362E4CE0104
:1026B0000E944A12F801818380E0DF91CF911F913F
:1026C0000F91FF90EF90DF90CF9008950E94F71147
:1026D0006C157D058E059F05C0F283E0EECF2F922D
:1026E0003F924F925F926F927F928F929F92AF92A2
:1026F000CF92DF92EF92FF920F931F93CF93DF93CE
:102700001F921F92CDB7DEB74C012B01D42E390199
:1027100080E0E114F10411F0F70180813C2C329447
:1027200090EF3922380E40E062E0C4010E94681246
:102730004FE768E0C4010E94681240E864E1C40108
:102740000E946812A2016D2DC4010E941B12432D2C
:102750006AE1C4010E9468124CE062E0C4010E9478
:1027600068126AE1C4010E944A12482F40686AE177
:10277000C4010E9468120E94F7111B012C01F4E2AF
:102780002F0E311C411C511C68E0C4010E944A12EA
:10279000982F907309F0B7C080FF15C083E00F90A9
:1027A0000F90DF91CF911F910F91FF90EF90DF90ED
:1027B000CF90AF909F908F907F906F905F904F9051
:1027C0003F902F9008950E94F711621573058405BC
:1027D0009505D0F2E3CF6114710409F469C00115C5
:1027E000110509F465C064E1C4010E944A12382E43
:1027F000F8018081831508F480C030823320E1F134
:1028000080E590E00E94250F60E0F40186850E943B
:102810002E113A9482E90E941412CC20B1F08FEF6D
:1028200090E09C0102C0220F331FCA94E2F76901B5
:1028300082E90E9414129C2D9095F301208192232D
:102840008C21982B9083CC24C39423014C0C511CD5
:10285000C31440F482E90E941412F20181932F0103
:10286000C394F6CF80E00E941412F201808361E0ED
:10287000F40186850E942E1168E1C4010E944A126B
:102880008770E114F10411F0F701808323FC37C055
:1028900061147104B1F10115110599F1AA2089F1B2
:1028A000F8014081413031F4843029F58FEF77CF42
:1028B00080E0ECCF4230F8F081111DC042509E0103
:1028C0002F5F3F4FB301C4010E941813811167CFDE
:1028D000F8019081690E711CF30132972081998172
:1028E000291309C0F1E06F1A7108F30120819A8160
:1028F000291709F454CF87E052CF84E050CF82E00B
:102900004ECF80E04CCF6CE0C4010E944A12282ECA
:10291000837109F460CF81E042CF0F931F93CF936F
:10292000DF938C01D62FC42F0E944A12C0954C2FE2
:1029300048236D2FC801DF91CF911F910F910C9407
:1029400068128F929F92AF92CF92EF92FF920F9365
:102950001F93CF93DF9300D01F921F92CDB7DEB7A6
:102960004C0182E08D8340E064E2C4010E94681261
:1029700040E066E2C4010E94681246E268E4C401D5
:102980000E94681286E28B838D818230B0F140E82C
:102990006CE1C4010E948D1487E08C83A12CC12CB2
:1029A000CE0104967C018E010B5F1F4F9E012F5FAD
:1029B0003F4F41E0BE016D5F7F4FC4010E946F1326
:1029C000982F811117C08D818230B9F48C818111CB
:1029D00014C081E00F900F900F900F900F90DF9137
:1029E000CF911F910F91FF90EF90CF90AF909F905C
:1029F0008F90089581E0923069F380E0EBCF2F92C1
:102A00003F924F925F926F927F928F929F92AF927E
:102A1000BF92CF92DF92EF92FF920F931F93CF93CB
:102A2000DF93CDB7DEB72D970FB6F894DEBF0FBE9C
:102A3000CDBF16E0413508F045C1342E4B013C01B5
:102A400040E86CE10E948D1483E98983332029F0EA
:102A500081E0F4019081953008F480E022242394F1
:102A6000B12C9B2D990F990F990FD32CD91AD7FC04
:102A7000D12C32E0882319F098E89B8333E021E0E1
:102A80009D2D977009F420E09D2D95959595959530
:102A9000290FC9F094E0811193E0291708F4922FCF
:102AA000EB2DF0E03196E80DF91D232F4191A1E0C7
:102AB000B0E0AC0FBD1FA20FB11D4C932F5F422F92
:102AC000431B491798F3882311F0F8E0DF0E8FE1DC
:102AD0008D150CF082C090E79A838B819C818927A9
:102AE0009D8189279E8189278F839E01285F3F4F83
:102AF00047E0BE016F5F7F4FC3010E941813182F7C
:102B00008111E0C01A86E3E0EB87DC86CE010796F0
:102B10002C0199E09D87CA844C2D4295407F4C0D35
:102B20006AE1C3010E946812A12CCE010A967C01C1
:102B30008E01055F1F4F92014D85BE016F5F7F4F74
:102B4000C3010E946F13182F823009F065C06CE139
:102B5000C3010E944A1285FDB5C08F7109F480E25D
:102B6000282F30E04D2DDD0C550B421753070CF08C
:102B70009DC0D82EE82FE595E595E595EF5F982F58
:102B8000977081E009F480E0E80F81E090E08C0F1D
:102B90009D1F8E0F911DFC01215031092770332795
:102BA00081E090E002C0880F991F2A95E2F79C010E
:102BB0008081822B80838BCF85E98983332031F01C
:102BC00081E0F4019081983008F04BCF80E049CF4C
:102BD00087E9898326E0B22EF9CF9D2D97709A87D9
:102BE0008D2D8595859585958E5F282F2295207F43
:102BF000290F2A8321E0911101C020E0280F2D87A1
:102C000044244394512C4C0E5D1E480E511CE9E0A7
:102C1000E81BEB87DC867FCF811154C080E2D82E81
:102C20009C8590320CF457CF8B81883809F040C0D6
:102C300083E093E0EB2DF0E03196E80DF91D980F5D
:102C4000A1E0B0E0AC0FBD1FA80FB11D2C912193E6
:102C50008F5F8913F5CFBB84E3E0BE124DC08A8538
:102C600081114AC09E012D5F3F4F41E0B201C30177
:102C70000E941813182F811125C09B81F2018181B8
:102C800098133CC09C818281981338C0808182FF58
:102C900012C02394F2E02F1609F48ECF83E0281699
:102CA00009F496CF91E0291609F4CECE15E00AC0BA
:102CB00082E094E0BFCFF4018387822D880F820DDC
:102CC0008F5F8083812F2D960FB6F894DEBF0FBEE5
:102CD000CDBFDF91CF911F910F91FF90EF90DF90CB
:102CE000CF90BF90AF909F908F907F906F905F90AC
:102CF0004F903F902F90089511E0E4CF17E0E2CF7E
:102D00002091E505260F3327331F21323105ECF4DE
:102D100020912E06FC0190E080E0243069F082E0F2
:102D20000895A091E5052191AC014B535A4FA40F92
:102D3000B52FB11D2C930196861798F38091E50568
:102D4000680F6093E50580E0089581E00895109292
:102D50002E0681E080932D061092080661E084E142
:102D60000E942E1161E085E10E942E11E9EBF0E056
:102D700080818E7F808380818D7F808388E48093B3
:102D8000B80085E48093BC000895CF93DF9391E071
:102D90009093C4058823B9F0C091B800D091BA00CF
:102DA0008091BC008A7B8093BC0060E084E10E943B
:102DB0002E1160E085E10E942E110E94A716D0938B
:102DC000BA00C093B800DF91CF9108950895E091C3
:102DD000670680916606E81730F4F0E0EC55FA4F8C
:102DE000808190E008958FEF9FEF0895909167069E
:102DF000809166062FEF3FEF981748F4E92FF0E037
:102E0000EC55FA4F208130E09F5F90936706C9012F
:102E100008958091660690916706891B990B089525
:102E2000CF92DF92EF92FF920F931F93CF93DF9396
:102E30007C01CB018A0120913406222389F0EB0129
:102E40006B01C40ED51ECC15DD0569F06991D70163
:102E5000ED91FC910190F081E02DC7011995F3CF20
:102E6000642F0E948016C801DF91CF911F910F91AE
:102E7000FF90EF90DF90CF900895CF93DF931F9254
:102E8000CDB7DEB76983209134062223F9F0209173
:102E90006406203258F021E030E0FC0133832283C5
:102EA00090E080E00F90DF91CF91089580916506CA
:102EB000E82FF0E0EB5CF94F998190838F5F80936E
:102EC00065068093640681E090E0ECCF61E0CE017E
:102ED00001960E948016F7CFCF92DF92EF92FF9279
:102EE0000F931F93CF93DF93FC01C48121E02093C4
:102EF0003406C093550610926506109264068385C9
:102F0000682B8CE098E00E943D17D0916406D13286
:102F100008F092C00E94A0116B017C0180912E06E6
:102F2000811165C082E080932E0681E080932D069A
:102F30008FEF80932C0610922B06D0932A06A5E3E0
:102F4000B6E0EAE0F6E080E0D81385C0109209060A
:102F500080910906CC0FC82BC09309068091080602
:102F6000813009F07CC0109208060E94A0116B010C
:102F70007C01809109068093BB008091300690917E
:102F80003106A0913206B0913306892B8A2B8B2B08
:102F900099F00E94A0110091300610913106209105
:102FA0003206309133066C197D098E099F09061788
:102FB000170728073907E0F18091BC0083FDD9CFBE
:102FC00085EC8093BC000E94A0116B017C01809174
:102FD0002E06823009F445C080912C068F3F61F1A6
:102FE00080912C06803241F180912C0625C0809181
:102FF000300690913106A0913206B0913306892BAC
:103000008A2B8B2B09F48ACF0E94A01100913006E5
:103010001091310620913206309133066C197D09EA
:103020008E099F09061717072807390708F076CF7A
:1030300080912F060E94C5161092650610926406B4
:1030400010923406DF91CF911F910F91FF90EF9076
:10305000DF90CF9008959D9191938F5F75CF85EE0E
:10306000B0CF8091300690913106A0913206B09198
:103070003306892B8A2B8B2B09F4A9CF0E94A01130
:1030800000913006109131062091320630913306BE
:103090006C197D098E099F0906171707280739073C
:1030A00008F095CFC5CF88E08093C00860E085EB3D
:1030B00098E00C946C1790E080E008950F931F93B4
:1030C000CF938C01C62F0E946C176C2F6460C801CF
:1030D0000E946C176C2F6B7FC8010E946C1783ECE9
:1030E00090E00197F1F7CF911F910F9108950F9301
:1030F0001F93CF93DF938C01D62FC42F607F642B57
:103100000E945E1880E1D89FB00111246C2BC80189
:10311000DF91CF911F910F910C945E18CF93DF93A5
:1031200000D000D01F921F92CDB7DEB798E0EAE73B
:10313000F2E0DE01119601900D929A95E1F79091DF
:10314000BD08961710F46FEF690F262F30E0220F9D
:10315000331F41E050E04C0F5D1F240F351FF90174
:103160006081680F606840E085EB98E028960FB6B4
:10317000F894DEBF0FBECDBFDF91CF910C947718CE
:1031800040E061E085EB98E00E9477188BE39FE1D7
:103190000197F1F7089541E00E94771881E090E0EF
:1031A0000895FB0144815581FC0124813581241758
:1031B000350778F080819181009759F0FB0160819B
:1031C00071816115710529F00E94185C21E0892B3D
:1031D00009F020E0822F0895CF93DF93EC018881DE
:1031E0009981009711F00E947A5A198218821D82E3
:1031F0001C821B821A82DF91CF910895FC0180818D
:103200009181009711F00C947A5A0895CF92DF9231
:10321000EF92FF920F931F93CF93DF93EB017B010C
:1032200023E2E20EF11C8B016C01C61AD70AC6011B
:10323000800F911F0E944458F80181938F01EE1571
:10324000FF05A9F7CE01DF91CF911F910F91FF905C
:10325000EF90DF90CF900895CF92DF92EF92FF92A0
:103260000F931F93CF93DF93CDB7DEB7A3970FB61E
:10327000F894DEBF0FBECDBF6C0184E4E82EF12CC4
:1032800010E000E0BE016F5F7F4FC7010E9406198A
:103290004EE050E0B601CE0101960E94185C892BE9
:1032A00019F4898181110AC00F5F1F4F83E2E80E74
:1032B000F11C0233110531F70FEF1FEFC801A39680
:1032C0000FB6F894DEBF0FBECDBFDF91CF911F9137
:1032D0000F91FF90EF90DF90CF900895EF92FF92C3
:1032E0000F931F93CF93DF93CDB7DEB7A3970FB69E
:1032F000F894DEBF0FBECDBF84E4E82EF12C10E0C1
:1033000000E0BE016F5F7F4FC7010E9406198981EF
:10331000882351F00F5F1F4F83E2E80EF11C023348
:10332000110579F70FEF1FEFC801A3960FB6F894B8
:10333000DEBF0FBECDBFDF91CF911F910F91FF90E8
:10334000EF900895CF92DF92EF92FF920F931F9329
:10335000CF93DF93EB017B0120E1E20EF11C8B01A7
:103360006C01C61AD70AC601800F911F0E944458EB
:10337000F80181938F01EE15FF05A9F7CE01DF91CA
:10338000CF911F910F91FF90EF90DF90CF90089514
:10339000CF92DF92EF92FF920F931F93CF93DF9321
:1033A000EB017B0124E0E20EF11C8B016C01C61ADB
:1033B000D70AC601800F911F0E944458F8018193DB
:1033C0008F01EE15FF05A9F7CE01DF91CF911F9177
:1033D0000F91FF90EF90DF90CF900895FB01019047
:1033E0000020E9F73197AF01461B570BDC01ED9147
:1033F000FC910280F381E02D19948F929F92AF92FD
:10340000BF92EF92FF920F931F93CF93DF93CDB7AD
:10341000DEB7A1970FB6F894DEBF0FBECDBF7C011B
:10342000FA01CB0119A2223008F42AE08E010F5DC7
:103430001F4F822E912CB12CA12CBF01A50194010C
:103440000E94A059F901CA016A300CF5605DD801EB
:103450006E938D01232B242B252B79F790E080E0B0
:10346000109721F0BD01C7010E94EE19A1960FB679
:10347000F894DEBF0FBECDBFDF91CF911F910F91AA
:10348000FF90EF90BF90AF909F908F900895695CF0
:10349000DECFCF92DF92EF92FF92CF93DF93AB011B
:1034A000BC0177FF1DC06A017C016DE28FE697E0E9
:1034B0000E94360FEC0144275527BA014C195D09CB
:1034C0006E097F092AE08FE697E00E94FD198C0FB4
:1034D0009D1FDF91CF91FF90EF90DF90CF900895E7
:1034E0002AE08FE697E0DF91CF91FF90EF90DF9099
:1034F000CF900C94FD196091C0067091C106809127
:10350000C2069091C30620E030E048E452E40E94F5
:1035100075586093C0067093C1068093C20690935D
:10352000C3066091C0067091C1068091C206909159
:10353000C3060E9453596093C4067093C5068093D6
:10354000C6069093C7060E94F7116093C906709350
:10355000CA068093CB069093CC0661ED72E08FE6AD
:1035600097E00E943D0F4091C4065091C5066091BE
:10357000C6067091C7062AE08FE697E00E94FD1903
:1035800066EC72E08FE697E00C94EE192F923F9272
:103590004F925F926F927F928F929F92AF92BF9263
:1035A000CF92DF92EF92FF921F93CF93DF93EC01C4
:1035B0006A017B01722EAB019601CB01B6010E941C
:1035C000875969EC72E0811126C046015701E894E1
:1035D000B7F82FEF3FEF4FE75FE7C501B4010E9457
:1035E000875981110CC02FEF3FEF4FE75FE7C5010F
:1035F000B4010E941D576DEC72E0181664F02FEFB5
:103600003FEF4FE75FE4C701B6010E9482591816E9
:10361000B4F461ED72E0CE01DF91CF911F91FF9084
:10362000EF90DF90CF90BF90AF909F908F907F9062
:103630006F905F904F903F902F900C94EE192FEF6A
:103640003FEF4FE75FECC701B6010E941D5787FDB2
:10365000E0CF20E030E0A901C701B6010E941D576C
:10366000312C212C87FF09C06DE2CE010E94360F5C
:103670001C01F7FAF094F7F8F09410E060E070E0C5
:1036800080E09FE3711641F020E030E040E251E439
:103690000E94E1581F5FF6CFA70196010E9475585E
:1036A0002B013C010E9453594B015C012AE0BC01F3
:1036B000A401CE010E94FD197C01E20CF31C112330
:1036C000C1F1C501B4010E9422579B01AC01C301A5
:1036D000B2010E9474584B015C016EE2CE010E945F
:1036E000360FE80EF91E115020F120E030E040E2E4
:1036F00051E4C501B4010E9483572B013C010E9493
:1037000053594B01B12CA12C2AE0B501A401CE01E3
:103710000E94FD19E80EF91EC501B4010E9422574E
:103720009B01AC01C301B2010E9474584B015C01C2
:10373000DACFC701DF91CF911F91FF90EF90DF901B
:10374000CF90BF90AF909F908F907F906F905F9041
:103750004F903F902F9008950C94C61A0F931F938B
:10376000CF93DF93EC010E94C61A8C0166EC72E0E5
:10377000CE010E94EE19800F911FDF91CF911F9112
:103780000F9108950F931F93CF93DF93EC010E9445
:10379000EE198C0166EC72E0CE010E94EE19800FEA
:1037A000911FDF91CF911F910F9108950F931F9358
:1037B000CF93DF93EC01FB014481558160817181DE
:1037C0000E94610F8C0166EC72E0CE010E94EE193E
:1037D000800F911FDF91CF911F910F9108950F934B
:1037E0001F93CF93DF93EC010E943D0F8C0166EC99
:1037F00072E0CE010E94EE19800F911FDF91CF91F0
:103800001F910F9108956BE575E082ED96E00E949F
:103810003D0F60E175E082ED96E00E94EF1B6EE0E7
:1038200075E082ED96E00C943D0F6CE075E082ED62
:1038300096E00E943D0F6EEF74E082ED96E00E94EC
:10384000EF1B6FEE74E082ED96E00E943D0F409119
:1038500048025091490260914A0270914B0222E065
:1038600030E082ED96E00E94AE1B6AED74E082EDDE
:1038700096E00E943D0F40914202509143026091B8
:1038800044027091450222E030E082ED96E00E9411
:10389000AE1B62ED74E082ED96E00E943D0F60E2A7
:1038A00072E082ED96E00E94C21B60ED74E082ED52
:1038B00096E00E943D0F66EB74E082ED96E00E9478
:1038C0003D0F409138025091390260913A02709157
:1038D0003B0222E030E082ED96E00E94AE1B64EBFA
:1038E00074E082ED96E00E943D0F62ED73E082EDA0
:1038F00096E00E94EF1B60ED73E082ED96E00C9481
:103900003D0F0C94EE19FC0180819181009711F01C
:103910000C94145360E070E0CB010895AF92BF9215
:10392000CF92DF92EF92FF920F931F93CF93DF938B
:10393000DC01CD90DC901197C114D10439F01496BC
:10394000CD91DC918C017601209761F4DF91CF91CC
:103950001F910F91FF90EF90DF90CF90BF90AF90AD
:10396000089575015701BFEFAB1ABB0AF7018081BB
:10397000082E000C990B0E94EC56892B91F7219789
:10398000CC0DDD1D8881082E000C990B0E94EC5691
:10399000892B29F0CE15DF0510F02197F3CFAE016A
:1039A0004F5F5F4F4E195F09D80115965C934E9398
:1039B0001497CE14DF0420F4B701C6010E94F45B13
:1039C000D801ED91FC91119714968D919C91E80F7F
:1039D000F91F1082BBCFCF93DF93FC01C081D1814F
:1039E000209761F08991882349F0082E000C990BEB
:1039F0000E94EC5BFE0131978083F4CFDF91CF9181
:103A00000895FC0124813581232B39F421E0FB0149
:103A10008081882349F020E007C0808191810E9445
:103A2000085C21E0892BB9F7822F08950F931F932B
:103A3000CF93DF93EC0188819981009759F02A8117
:103A40003B812617370730F081E0DF91CF911F913E
:103A50000F9108958B016F5F7F4F0E94035B00976A
:103A600059F0998388831B830A832C813D81232B02
:103A700059F7FC011082E8CF80E0E7CFEF92FF9288
:103A80000F931F93CF93DF936115710541F480E08D
:103A9000DF91CF911F910F91FF90EF900895411505
:103AA0005105B1F07B01EC010C811D81040F151F44
:103AB000B8010E94161D882351F3288139818C8119
:103AC0009D81B701820F931F0E94115C1D830C839F
:103AD00081E0DECFCF93DF93EC01FB01019000206A
:103AE000E9F73197AF01461B570B0E943E1D81112C
:103AF00003C0CE010E94EC18CE01DF91CF91089552
:103B0000CF93DF93EC01FB0144815581608171818A
:103B10000E943E1D811103C0CE010E94EC18CE010F
:103B2000DF91CF910895CF93DF931F921F92CDB76E
:103B3000DEB769831A8241E050E0BE016F5F7F4FBC
:103B40000E943E1D0F900F90DF91CF910895EF924C
:103B5000FF920F931F93CF93DF93EC017B018A01B8
:103B6000BA010E94161D81110BC0CE010E94EC18F3
:103B7000CE01DF91CF911F910F91FF90EF900895AB
:103B80001D830C83B701888199810E94115CF0CF5D
:103B9000FB0101900020E9F73197AF01461B570B5D
:103BA0000C94A71D0F931F93CF93DF93CDB7DEB770
:103BB00062970FB6F894DEBF0FBECDBF8C01CB016C
:103BC000F8011182108213821282158214824AE057
:103BD000BE016F5F7F4F0E941853BE016F5F7F4F22
:103BE000C8010E94C81D62960FB6F894DEBF0FBED2
:103BF000CDBFDF91CF911F910F910895EF92FF926A
:103C00000F931F93CF93DF93CDB7DEB7A1970FB676
:103C1000F894DEBF0FBECDBF7C01CB01BA01F70126
:103C20001182108213821282158214828E010F5F1C
:103C30001F4F22E044E00E94F652009789F0BC0139
:103C4000C7010E94C81DA1960FB6F894DEBF0FBE33
:103C5000CDBFDF91CF911F910F91FF90EF9008950D
:103C6000C7010E94EC18EFCFFB01DC0111961C92FA
:103C70001E9213961C921E92129715961C921E92DB
:103C800014978617970749F0608171816115710556
:103C900021F0448155810C94A71D0895FC011182E7
:103CA00010821382128215821482FB01019000207F
:103CB000E9F73197AF01461B570B0C94A71DAF9244
:103CC000BF92CF92DF92EF92FF920F931F93CF9309
:103CD000DF936C015B017A0189012417350720F419
:103CE0008F2D7901042F182F68EC72E0C6010E9415
:103CF0004E1ED5011496CD91DC91EC16FD06E0F434
:103D00000C171D0708F4E801D501ED91FC911197FE
:103D1000EC0FFD1F108110826D917C916E0D7F1D47
:103D2000C60161157105A1F00E94C81DF5018081D1
:103D30009181C80FD91F1883C601DF91CF911F91C0
:103D40000F91FF90EF90DF90CF90BF90AF900895CC
:103D50000E94EC18EBCFEF92FF920F931F93CF933B
:103D6000DF93EC018A01FB018481958130E020E042
:103D7000B0E0A0E050E040E08217930758F18217CE
:103D8000930771F4A017B10701F5CE010E945F1EE1
:103D9000CE01DF91CF911F910F91FF90EF90089589
:103DA0002817390740F4FB01E080F180F701E20FAA
:103DB000F31FEF2821F41092D106E1EDF6E0E08147
:103DC000EA3301F32F5F3F4FD7CFA9014F5F5F4F1A
:103DD0001196F8CF68EC72E0CE010E944E1ED8CF4B
:103DE000CF93DF93EC01FB01248135810E945F1E9C
:103DF000CE01DF91CF91089585ED8093BC00809135
:103E0000300690913106A0913206B09133060796A4
:103E1000A11DB11D23E0B695A795979587952A9585
:103E2000D1F72091BC0024FD03C010922E06089506
:103E30004091300650913106609132067091330600
:103E4000452B462B472B69F30097A105B10541F09F
:103E50002AE22A95F1F700C00197A109B109E1CF43
:103E600080912F060C94C5160F931F93CF93DF9369
:103E700000E212E0C8E0D0E0F80161918F01CE01CC
:103E80000E944C582196CC31D105B1F76FE373E015
:103E90008FE697E00E943D0F60E272E08FE697E0C8
:103EA000DF91CF911F910F910C94C21BFF920F9342
:103EB0001F93CF93DF93EC01F62E08811981C8017F
:103EC0000E944458F81621F06F2DC8010E944C58EA
:103ED000CE01DF91CF911F910F91FF900895AF9286
:103EE000BF92CF92DF92EF92FF920F931F93CF93E7
:103EF000DF931F921F92CDB7DEB78B016B0123E2D8
:103F0000C20ED11C7B015C01A61AB70AC5018E0D39
:103F10009F1D9A838983F70161917F01CE010196EC
:103F20000E94561FEC14FD0489F7C8010F900F90F2
:103F3000DF91CF911F910F91FF90EF90DF90CF9085
:103F4000BF90AF900895AF92CF92DF92EF92FF9221
:103F50000F931F93CF93DF93CDB7DEB7C456D1092C
:103F60000FB6F894DEBF0FBECDBF8091BF068111A2
:103F700004C08091BE06882349F08091A305811179
:103F800005C08091A205882309F4D4C10E94F711CD
:103F900000919E0510919F052091A0053091A105EB
:103FA000601B710B820B930B683C710581059105B9
:103FB00008F4C0C10E9485126AE070E080E090E0E1
:103FC0000E94C51186E398E00E94A114882309F499
:103FD000A7C186E398E00E940312882309F4A0C1D8
:103FE00068EC72E0CE01815A9F4F0E944E1E10E095
:103FF00080913808181740F5E12FF0E0EA5CF74FA0
:1040000083811DA21CA21FA21EA219A618A640E110
:10401000BE016F5F7F4F90E00E942353BE016F5F30
:104020007F4FCE0184960E94C81D48A559A56CA15A
:104030007DA1CE01815A9F4F0E943E1DCE018496E4
:104040000E94FE181F5FD4CFCE01815A9F4F0E945D
:10405000EB1C0E94F7116093C9067093CA06809307
:10406000CB069093CC068091A305882309F471C2F6
:104070008091A205882309F46CC2BE01615A7F4F6A
:10408000CE01875A9F4F0E94341E6F968EAD9FAD12
:104090006F971DA21CA21FA21EA219A618A64AE075
:1040A000BE016F5F7F4F0E942353BE016F5F7F4F42
:1040B000CE0184960E94C81D66EF72E0CE01019683
:1040C0000E944E1EBE01675A7F4FCE0101960E948C
:1040D000801D6CE073E00E946A1DBE016C5D7F4F25
:1040E0000E94801DBC018FE697E00E94D61BCE0186
:1040F00001960E94FE18CE0184960E94FE1866E189
:1041000073E0CE0101960E944E1EBE01675A7F4F9A
:10411000CE0101960E94801DBC0182ED96E00E94B6
:10412000D61BCE0101960E94FE180E94C01860E0C6
:1041300080E00E948E186FE078E185EB98E00E94A5
:104140003D0F6F968EAD9FAD6F97892B71F56FEF19
:1041500077E182ED96E00E94EF1B60E080E00E9434
:104160008E1865EF77E185EB98E00E943D0F60EDDA
:1041700077E080E090E00E94C5111092A30581E0F5
:1041800080939D0564ED77E182ED96E00E94EF1B40
:104190000E94C01860E080E00E948E1865EC77E114
:1041A00085EB98E00E943D0F84C06B966EAD7FADAD
:1041B0006B974EE050E0CE0184960E94265C1AAACE
:1041C000CE0184960E942C19019651F16BEA77E199
:1041D00082ED96E00E94EF1B60E080E00E948E1866
:1041E0006FE977E185EB98E00E943D0F60ED77E0A5
:1041F00080E090E00E94C5111092A30581E08093B9
:104200009D056EE777E182ED96E00E94EF1B0E942C
:10421000C01860E080E00E948E186FE677E1C0CFA2
:104220000E946E198C010F3F100709F097C062E3DE
:1042300070E0CE0101960E94D21D61E373E0CE01D1
:10424000895B9F4F0E944E1EBE016F5F7F4FCE0164
:10425000895B9F4F0E94801D6AE473E00E946A1D83
:10426000BC0182ED96E00E94D61BCE01895B9F4F78
:104270000E94FE18CE0101960E94FE181092A2051F
:104280001092A30510929D0568EC72E084E298E01C
:104290000E94C81D1092990510929A0510929B05D4
:1042A00010929C058091BF06882309F454C00E9497
:1042B000151CCE01875A9F4F0E94FE1880E5289654
:1042C0008FAF289729961FAE299727E430E02C0F4F
:1042D0003D1F2E5F3F4F42E0BE01695B7F4F86E38B
:1042E00098E00E941813811110C0A12CC12CF12C50
:1042F000E12C10E000E030E020E044E0BE01695B2A
:104300007F4F86E398E00E946F1348E060E186E308
:1043100098E00E948D14CE01815A9F4F0E94FE1892
:104320000E94F71160939E0570939F058093A005EE
:104330009093A105CC59DF4F0FB6F894DEBF0FBEA6
:10434000CDBFDF91CF911F910F91FF90EF90DF9044
:10435000CF90AF9008950E94031CABCF60912408CA
:10436000709125084FE050E0CE01C3960E94265C74
:1043700023961FAE23978091990590919A05A0915D
:104380009B05B0919C0527968CAF9DAFAEAFBFAF9C
:10439000279783E2FE01B496DE01119601900D92FB
:1043A0008A95E1F723E2209FC001219F900D1124FF
:1043B000BE016F5F7F4F8C5B9F4F0E946F1F2796E0
:1043C000CCACDDACEEACFFAC279763E277E18FE6D7
:1043D00097E00E943D0FBE016C5D7F4F8FE697E036
:1043E0000E94811C6AE38FE697E00E94360FBE01AF
:1043F0006D5C7F4F8FE697E00E94811C6AE38FE639
:1044000097E00E94360F22E030E0B701A6018FE668
:1044100097E00E94AE1B61E088E00E942E1168ECDC
:1044200070E080E090E00E94C51160E088E00E94AA
:104430002E1127964CAD5DAD6EAD7FAD2797CE01A9
:10444000895B9F4F0E94FE1DBE016D5C7F4FCE01B8
:10445000835B9F4F0E944E1E62E573E0CE018D5A32
:104460009F4F0E944E1EBE01635B7F4FCE018D5A4F
:104470009F4F0E94801D6CE673E00E946A1DBE0182
:10448000695B7F4F0E94801DBC0182ED96E00E9417
:10449000D61BCE018D5A9F4F0E94FE18CE01835B22
:1044A0009F4F0E94FE18CE01895B9F4F0E94FE180D
:1044B0000E94C01860E080E00E948E1862E677E1FA
:1044C00085EB98E00E943D0FBE016D5C7F4F85EB50
:1044D00098E00E94811C61E080E00E948E186CE5EB
:1044E00077E185EB98E00E943D0F27964CAD5DADDE
:1044F0006EAD7FAD279722E030E085EB98E00E941B
:10450000AC1B60ED77E080E090E00E94C511109256
:10451000A30581E080939D0568EC72E084E298E059
:104520000E94C81D1092990510929A0510929B0541
:1045300010929C056BE377E182ED96E00E94EF1B01
:104540000E94C01860E080E00E948E186CE277E163
:1045500027CEA1966EAD7FADA1974EE050E089E7E2
:1045600096E00E94265C1092870689E796E00E94FA
:104570002C1990934702809346028F3F980709F4C5
:104580007EC013E2189F9001199F300D1124BE01C7
:104590006C5D7F4FC9018C5B9F4F0E940619FE0125
:1045A000B496A9E7B6E001900D921A95E1F761E0A3
:1045B00088E00E942E116AEF70E080E090E00E9497
:1045C000C51160E088E00E942E110E94C01860E0D2
:1045D00080E00E948E186EE678E185EB98E00E94FC
:1045E0003D0F68E876E085EB98E00E94811C61E071
:1045F00080E00E948E1862E678E185EB98E00E94E8
:104600003D0F409198065091990660919A067091DD
:104610009B0622E030E085EB98E00E94AC1B63E053
:1046200080E00E948E186DE478E185EB98E00E94AE
:104630003D0F81E08093BC068093A1061092A006F6
:1046400068EC72E08EE198E00E94C81D0E94F711AC
:104650006093A2067093A3068093A4069093A50688
:1046600061E088E00E942E116AEF70E080E090E047
:104670000E94C51160E088E00E942E111FCE0E94AA
:10468000C01860E080E00E948E186CE378E185EB52
:1046900098E00E943D0F61E080E00E948E1869E280
:1046A00078E185EB98E00E943D0F62E080E00E9497
:1046B0008E186BE178E185EB98E00E943D0F63E096
:1046C00080E00E948E1860E272E085EB98E00E9424
:1046D000811C61E088E00E942E1164EF71E080E0AF
:1046E00090E00E94C51160E088E00E942E1160ED0C
:1046F00077E080E090E00E94C5110E94C018DECDF6
:10470000AF92BF92CF92DF92EF92FF920F931F93DF
:10471000CF93DF931F921F92CDB7DEB78B016B0152
:1047200020E1C20ED11C7B015C01A61AB70AC501AB
:104730008E0D9F1D9A838983F70161917F01CE01C0
:1047400001960E94561FEC14FD0489F7C8010F90D2
:104750000F90DF91CF911F910F91FF90EF90DF901D
:10476000CF90BF90AF900895CF93DF93CDB7DEB7D2
:1047700060970FB6F894DEBF0FBECDBF60E072E069
:1047800080E390E00E948023BE016F5F7F4F80E353
:1047900090E00E94A21960E072E0CE0101960E94B2
:1047A000085C892B61F067E773E08FE697E00E9471
:1047B000C21B60E072E080E390E00E94802360967C
:1047C0000FB6F894DEBF0FBECDBFDF91CF91089535
:1047D000CF93DF93CDB7DEB760970FB6F894DEBF07
:1047E0000FBECDBF60E172E08CE190E00E948023BB
:1047F000BE016F5F7F4F8CE190E00E94A21960E1E3
:1048000072E0CE0101960E94085C892B61F069EA92
:1048100073E08FE697E00E94C21B60E172E08CE1DA
:1048200090E00E94802360960FB6F894DEBF0FBE22
:10483000CDBFDF91CF910895AF92BF92CF92DF921B
:10484000EF92FF920F931F93CF93DF931F921F92CC
:10485000CDB7DEB78B016B0124E0C20ED11C7B010A
:104860005C01A61AB70AC5018E0D9F1D9A83898324
:10487000F70161917F01CE0101960E94561FEC1451
:10488000FD0489F7C8010F900F90DF91CF911F9120
:104890000F91FF90EF90DF90CF90BF90AF90089571
:1048A000CF93DF9300D01F92CDB7DEB768E472E0FC
:1048B0008CE290E00E941C24BE016F5F7F4F8CE26F
:1048C00090E00E94C819209148023091490240911D
:1048D0004A0250914B0269817A818B819C810E94AE
:1048E00074589F772AE037ED43E25CE30E948259D7
:1048F000181664F46FE873E08FE697E00E94EF1BF0
:1049000068E472E08CE290E00E941C240F900F900B
:104910000F900F90DF91CF910895CF93DF9300D048
:104920001F92CDB7DEB762E472E084E090E00E94AF
:104930001C24BE016F5F7F4F84E090E00E94C81985
:10494000209142023091430240914402509145022D
:1049500069817A818B819C810E9474589F772AE0BB
:1049600037ED43E25CE30E948259181664F464E573
:1049700073E08FE697E00E94EF1B62E472E084E050
:1049800090E00E941C240F900F900F900F90DF91E9
:10499000CF910895CF93DF9300D01F92CDB7DEB7AC
:1049A0006FE676E090E080E00E941C24BE016F5F1D
:1049B0007F4F90E080E00E94C81920916F063091EF
:1049C0007006409171065091720669817A818B81DF
:1049D0009C810E9474589F772AE037ED43E25CE3A4
:1049E0000E948259181664F46FE073E08FE697E036
:1049F0000E94EF1B6FE676E090E080E00E941C24AE
:104A00000F900F900F900F90DF91CF9108950E941B
:104A1000CA240E948D240E9450240E94341F0E94A8
:104A2000E8230C94B4231F93CF93DF931091BF0618
:104A3000111105C02091BE06222309F46BC1EC01BF
:104A40006DED73E00E94011D811107C063EE73E0FC
:104A5000CE010E94011D882379F1112309F45AC166
:104A600081E08093980561E088E00E942E1168EC57
:104A700070E080E090E00E94C51160E088E00E9454
:104A80002E1162E278E082ED96E00E943D0F66EF23
:104A900077E082ED96E00E94EF1B6EED77E082ED0D
:104AA00096E00E94EF1B6CED77E082ED96E0DF91DF
:104AB000CF911F910C943D0F69EE73E0CE010E94DF
:104AC000011D811139C063EF73E0CE010E94011D09
:104AD000811132C06DEF73E0CE010E94011D811182
:104AE00054C065E074E0CE010E94011D882309F4E2
:104AF0006FC0112309F40EC181E08093950561E038
:104B000088E00E942E1168EC70E080E090E00E9446
:104B1000C51160E088E00E942E1169E477E082ED23
:104B200096E00E943D0F6DEF76E082ED96E00E94E8
:104B3000EF1B6BEF76E0B9CF112309F4EBC081E0F6
:104B40008093970561E088E00E942E1168EC70E088
:104B500080E090E00E94C51160E088E00E942E1184
:104B60006AED77E082ED96E00E943D0F6BEA77E018
:104B700082ED96E00E94EF1B63E977E082ED96E01C
:104B80000E94EF1B61E977E090CF112309F4C2C0C6
:104B900081E08093960561E088E00E942E1168EC28
:104BA00070E080E090E00E94C51160E088E00E9423
:104BB0002E116FE877E082ED96E00E943D0F6DE4E4
:104BC00077E082ED96E00E94EF1B6BE477E06DCF1B
:104BD0006EE074E0CE010E94011D8823E9F11123EB
:104BE00009F498C081E08093940561E088E00E9418
:104BF0002E1168EC70E080E090E00E94C51160E04A
:104C000088E00E942E1169EF76E082ED96E00E9426
:104C10003D0F67EE76E082ED96E00E943D0F4091F9
:104C20006F0650917006609171067091720622E0D5
:104C300030E082ED96E00E94AE1B65EE76E082EDFC
:104C400096E00E943D0F60ED76E082ED96E00E94D6
:104C5000EF1B6EEC76E029CF66E174E0CE010E9496
:104C6000011D882309F45AC0112309F453C010927E
:104C70006F061092700610927106109272060E94D2
:104C8000CA2461E088E00E942E1168EC70E080E0A8
:104C900090E00E94C51160E088E00E942E116CEC4B
:104CA00076E082ED96E00E943D0F6FEB76E082EDBC
:104CB00096E00E94EF1B6DEB76E082ED96E00E949D
:104CC0003D0F67EA76E082ED96E00E943D0F40914D
:104CD0006F0650917006609171067091720622E025
:104CE00030E082ED96E00E94AE1B65EA76E082ED50
:104CF00096E00E943D0F60E976E082ED96E00E942A
:104D0000EF1B6EE876E082ED96E00E943D0F81E0B9
:104D100080939305DF91CF911F9108956CE174E02A
:104D2000CE010E94011D811123C065E274E0CE0115
:104D30000E94011D81111CC06EE274E0CE010E9430
:104D4000011D81113DC067E574E0CE010E94011D87
:104D5000882309F44FC06EE276E082ED96E00E946F
:104D60003D0F6BE076E082ED96E00E94EF1B34C0D1
:104D7000112381F281E08093920561E088E00E9436
:104D80002E1168EC70E080E090E00E94C51160E0B8
:104D900088E00E942E116CE876E082ED96E00E9499
:104DA0003D0F6CE476E082ED96E00E94EF1B64E339
:104DB00076E082ED96E00E94EF1B62E376E075CE2E
:104DC00060E376E082ED96E00E943D0F66E374E0DA
:104DD00082ED96E00E94C21B8091BF06882329F0D5
:104DE000DF91CF911F910C94151CDF91CF911F91F2
:104DF0000C94031C62E674E0CE010E94011D88231E
:104E0000C1F069E076E082ED96E00E943D0F6FEE22
:104E100075E082ED96E00E94EF1B8091BF0688232B
:104E200029F00E94151C6DEE75E03FCE0E94031C18
:104E3000FACF6DE674E0CE010E94011D882371F067
:104E4000112309F467CF6BEC75E082ED96E00E94C8
:104E5000EF1B0E94151C69EC75E027CE6CE774E02F
:104E6000CE010E94011D882341F0112309F452CF85
:104E70000E947A4067EC75E018CE65E874E0CE01D8
:104E80000E94011D811108C06AE874E0CE010E94F1
:104E9000011D882309F43ECF0E94072561E088E0C8
:104EA0000E942E1168EC70E080E090E00E94C51135
:104EB00060E088E00E942E111092BF061092BE069C
:104EC0001092BD06109298051092970510929605C3
:104ED00010929505109294051092930510929205E8
:104EE0001092A2051092A30510929D050E945318DE
:104EF00065EC75E082ED96E00E943D0F65EB75E094
:104F000082ED96E00E94EF1B6EE975E082ED96E07F
:104F10000E94EF1B66E775E082ED96E00E94EF1BB2
:104F20006FE575E082ED96E00E94EF1B6DE575E0A0
:104F3000BCCD68E372E080E490E00E941C2466EF40
:104F400072E08FE697E00E943D0F40913802509149
:104F5000390260913A0270913B0223E030E08FE623
:104F600097E00C94AE1B4F925F926F927F928F925C
:104F70009F92AF92BF92CF92DF92EF92FF920F93E8
:104F80001F93CF93DF93CDB7DEB7CC59D1090FB6BE
:104F9000F894DEBF0FBECDBF8C016FE874E0CE0188
:104FA00001960E944E1EBE016F5F7F4FC8010E9496
:104FB000D118F82ECE0101960E94FE18FF2009F4A8
:104FC00058C149E050E0B801CE018B579F4F0E9475
:104FD000F01EBE016B577F4FCE0101960E94341E1A
:104FE00050E040E0BE016F5F7F4FCE0185579F4F7D
:104FF0000E94AB1ECE0101960E94FE18BE016B57A7
:105000007F4FCE0184960E94341E41E050E0BE01E5
:105010006C5D7F4FCE0101960E94AB1ECE010196C2
:105020000E94831C6B017C01CE0101960E94FE1838
:10503000CE0184960E94FE18BE016B577F4FCE01B1
:1050400001960E94341E42E050E0BE016F5F7F4F28
:10505000CE018F569F4F0E94AB1ECE0101960E943B
:10506000FE18BE016B577F4FCE0101960E94341E81
:1050700043E050E0BE016F5F7F4FCE0189569F4FE6
:105080000E94AB1ECE0101960E94FE18CB56DF4F48
:1050900088819981C559D040892B09F47EC0CF56AB
:1050A000DF4FE881F981C159D040309721F4109247
:1050B000D106E1EDF6E0A080BE0169567F4FCE013A
:1050C00087589F4F0E94341EBE0165577F4FCE0107
:1050D00081589F4F0E94341ECE0181589F4F0E94DD
:1050E000EB1CC158DF4F68817981CF57D0404EE02B
:1050F00050E0CE0186599F4F0E94265CE9961FAE74
:10510000E997CE0186599F4F0E942C198C01019678
:1051100009F098C00E946E198C010F3F100709F02A
:105120003FC063EA78E18FE697E00E94EF1BCE0173
:1051300081589F4F0E94FE18CE0187589F4F0E94B2
:10514000FE18CE0189569F4F0E94FE18CE018F5641
:105150009F4F0E94FE18CE0185579F4F0E94FE1858
:10516000CE018B579F4F0E94FE18C456DF4F0FB6DB
:10517000F894DEBF0FBECDBFDF91CF911F910F918D
:10518000FF90EF90DF90CF90BF90AF909F908F9067
:105190007F906F905F904F90089591E4A92E8CCFEF
:1051A0004EE050E0BE0166597F4FCE0101960E944D
:1051B000265C1F86EB966EAD7FADEB974FE050E01F
:1051C000CE0140960E94265C1F8E22E4A21203C0EC
:1051D000C12CD12C7601C8A2D9A2EAA2FBA283E2FB
:1051E000FE013196DE01A95BBF4F01900D928A95B9
:1051F000E1F723E2209FC001219F900D1124BE0101
:10520000695B7F4F8C5B9F4F0E946F1F61E978E164
:105210008FE697E00E943D0FBE0166597F4F8FE6F3
:1052200097E00E94811C67E878E18FE697E00E9492
:105230003D0F22E030E0B701A6018FE697E00E9423
:10524000AE1B75CF83E2B82EB09EC001B19E900D0B
:105250001124BE016C5D7F4F8C5B9F4F0E9406192D
:10526000FE01B496DE01119601900D92BA94E1F719
:10527000A1CF69E974E0CE0101960E944E1EBE01E5
:105280006F5F7F4FC8010E94D118F82ECE010196A2
:105290000E94FE18FF2009F451C048E050E0B80118
:1052A000CE0186599F4F0E94F01EBE0166597F4F66
:1052B000CE01895B9F4F0E94341ECE01895B9F4FB8
:1052C0000E94EB1C29966EAD7FAD29974EE050E011
:1052D000CE0184960E94265C1AAACE0184960E9472
:1052E0002C198F3F980709F11982188A18A219A260
:1052F0001AA21BA243E2489F9001499F300D11243E
:10530000BE016F5F7F4FC9018C5B9F4F0E946F1F73
:1053100065E778E18FE697E00E943D0FBE016C5D86
:105320007F4F8FE697E00E94C21BCE01895B9F4FA3
:105330000E94FE18CE0186599F4F15CF62EA74E095
:10534000CE0101960E944E1EBE016F5F7F4FC801C5
:105350000E94D118F82ECE0101960E94FE18FF205F
:1053600009F403CF49E050E0B801CE01895B9F4FBB
:105370000E94F01EBE01695B7F4FCE0184960E94A1
:10538000341E50E040E0BE016C5D7F4FCE010196BF
:105390000E94AB1ECE0101960E94831C2B013C0192
:1053A000CE0101960E94FE18CE0184960E94FE183E
:1053B000BE01695B7F4FCE0184960E94341E41E09E
:1053C00050E0BE016C5D7F4FCE0101960E94AB1E86
:1053D000CE0101960E94831C4B015C01CE01019617
:1053E0000E94FE18CE0184960E94FE18BE01695BE1
:1053F0007F4FCE0184960E94341E42E050E0BE01F1
:105400006C5D7F4FCE0101960E94AB1ECE010196CE
:105410000E94831C6B017C01CE0101960E94FE1844
:10542000CE0184960E94FE182AE037ED43E25CE349
:10543000C301B2010E94825987FD3DC020E030E4E3
:105440004CE156E4C301B2010E941D5718169CF1AD
:10545000209148023091490240914A0250914B02FA
:10546000C301B2010E9474589F772FE632E143E8EE
:105470005AE30E9482591816F4F44092480250925E
:10548000490260924A0270924B020E9450246FE2DD
:1054900079E18FE697E00E943D0F409148025091DC
:1054A000490260914A0270914B0222E030E08FE69F
:1054B00097E00E94AE1B2DEC3CEC4CEC5DE3C5018B
:1054C000B4010E94825987FD3DC020E030E040E2F7
:1054D00051E4C501B4010E941D5718169CF120919A
:1054E0004202309143024091440250914502C5016D
:1054F000B4010E9474589F772FE632E143E85AE3E3
:105500000E9482591816F4F480924202909243024B
:10551000A0924402B09245020E948D2464E079E199
:105520008FE697E00E943D0F409142025091430266
:10553000609144027091450222E030E08FE697E0EE
:105540000E94AE1B20E030E0A901C701B6010E9415
:10555000825987FD3DC020E030E040E251E4C701C0
:10556000B6010E941D5718169CF120913802309107
:10557000390240913A0250913B02C701B6010E94A4
:1055800074589F772FE632E143E85AE30E9482592C
:105590001816F4F4C0923802D0923902E0923A021E
:1055A000F0923B020E9499276BED78E18FE697E03D
:1055B0000E943D0F409138025091390260913A02A9
:1055C00070913B0223E030E08FE697E00E94AE1B33
:1055D000CE01895B9F4FC7CD8F929F92AF92BF92B2
:1055E000CF92DF92EF92FF920F931F93CF93DF93AF
:1055F000CDB7DEB7C05BD1090FB6F894DEBF0FBEE2
:10560000CDBF82ED96E00E94BF0F892B51F00E9422
:10561000F7116093C9067093CA068093CB069093E6
:10562000CC068091BF06811105C08091BE068823FB
:1056300009F4ADC08091C8068111A9C00E94F7117C
:105640000091C9061091CA062091CB063091CC0674
:10565000601B710B820B930B603C744D8140910574
:1056600008F495C00E94072561E088E00E942E1191
:1056700068EC70E080E090E00E94C51160E088E096
:105680000E942E111092BF061092BE061092BD0607
:105690001092980510929705109296051092950514
:1056A0001092940510929305109292051092A20503
:1056B0001092A30510929D050E9453180E94C018D5
:1056C00060E080E00E948E186BE077E185EB98E067
:1056D0000E943D0F61E080E00E948E1869EF76E144
:1056E00085EB98E00E943D0F69EC76E182ED96E053
:1056F0000E94EF1B62EB76E182ED96E00E94EF1BC9
:105700006AE876E182ED96E00E94EF1B63E776E1BE
:1057100082ED96E00E94EF1B61E776E182ED96E074
:105720000E943D0F68EC72E08AE298E00E94C81D7A
:10573000109291051092900582ED96E00E94BF0FA5
:10574000892B09F4FEC082ED96E00E949D0F182F70
:1057500061E378E08FE697E00E943D0F612F8FE6CE
:1057600097E00E94360F66E278E08FE697E00E94AD
:105770003D0F612F110F770B880B990B0E94491A6F
:1057800064E278E08FE697E00E94EF1BD5CF0E949D
:10579000A31F84E00E940211892B09F048C1809167
:1057A0008F058111ECC00E94F71160938B057093F7
:1057B0008C0580938D0590938E050E94F711609360
:1057C000C9067093CA068093CB069093CC0681E0FD
:1057D00080938F050E94F71100918705109188052D
:1057E0002091890530918A05601B710B820B930B08
:1057F0006A3071058105910508F4ADC082ED96E02F
:105800000E94BF0F892B09F4A6C00E94F711609374
:105810008705709388058093890590938A0582EDAA
:1058200096E00E949D0F682F1091BF0611118EC146
:105830000091BE06011190C280912E0890912F0810
:105840006A3021F06D3011F00C94AB3A892B09F4D9
:1058500082C060E172E08AE298E00E94011D81113D
:105860002CC064EC74E0CE0184960E944E1EBE01F2
:105870006C5D7F4F8AE298E00E94D1188823B1F0D6
:1058800049E050E06AE278E0CE0101960E94F01E05
:1058900060E172E0CE0101960E94011D01E08111DC
:1058A00001C000E0CE0101960E94FE18CE01849650
:1058B0000E94FE18002309F4BDC081E08093BF065A
:1058C0008093BD0661E088E00E942E1168EC70E0D4
:1058D00080E090E00E94C51160E088E00E942E11F7
:1058E00060E089E00E942E1160E08AE00E942E11A3
:1058F0000E94C0181092C00860E085EB98E00E94FA
:105900006C176FE676E182ED96E00E943D0F63E44E
:1059100076E182ED96E00E94EF1B61E476E182ED94
:1059200096E00E943D0F66E376E182ED96E00E94EC
:10593000EF1B64E376E182ED96E00E943D0F0E944A
:10594000151C68EC72E08AE298E00E94C81D109273
:10595000910510929005C055DF4F0FB6F894DEBF49
:105960000FBECDBFDF91CF911F910F91FF90EF90B0
:10597000DF90CF90BF90AF909F908F9008950E943E
:10598000F71100918B0510918C0520918D053091B8
:105990008E05601B710B820B930B68387341810578
:1059A000910508F417CF6CEA74E080E192E00E9460
:1059B000115C61EB74E080E292E00E94115C0E9455
:1059C000E8230E94341F60E878E082ED96E00E94B0
:1059D000EF1B6FEB74E080E092E00E94115C0E948C
:1059E000B42361E088E00E942E1168EC70E080E052
:1059F00090E00E94C51160E088E00E942E116EE7E1
:105A000078E082ED96E00E943D0F63E678E082ED5B
:105A100096E00E94EF1B65E478E082ED96E00E943C
:105A2000EF1B63E478E082ED96E00E943D0F109258
:105A30008F05D0CE60E072E08AE298E00E94011DFE
:105A400081112CC064EC74E0CE0184960E944E1E3D
:105A5000BE016C5D7F4F8AE298E00E94D1188823D6
:105A6000B1F049E050E06AE278E0CE0101960E9490
:105A7000F01E60E072E0CE0101960E94011D01E07F
:105A8000811101C000E0CE0101960E94FE18CE01F6
:105A900084960E94FE18002309F445C081E080939B
:105AA000BE068093BD0660E089E00E942E1161E091
:105AB00088E00E942E1168EC70E080E090E00E9487
:105AC000C51160E088E00E942E1160E08AE00E942B
:105AD0002E110E94C0181092C00860E085EB98E07B
