:100000000C94BF0E0C94D23D0C94A73D0C947C3DF7
:100010000C94513D0C94263D0C94FB3C0C94D03C2C
:100020000C94A53C0C94F00E0C94F00E0C94F00E75
:100030000C94F00E0C94F00E0C94F00E0C94F00E48
:100040000C94F00E0C94F00E0C94F00E0C94F00E38
:100050000C94F00E0C94F00E0C94F00E0C945B3C8F
:100060000C94F00E0C94253C0C94FB3B0C94F00E7D
:100070000C94F00E0C94F00E0C94F00E0C94F00E08
:100080000C94F00E0C94F00E0C94F00E0C94F00EF8
:100090000C94C53B0C949B3B0C94F00E0C94FD3DD2
:1000A0000C94F00E0C94F00E0C94F00E0C94F00ED8
:1000B0000C94F00E0C94F00E0C94F00E0C94F00EC8
:1000C0000C94F00E0C94F00E0C94F00E0C94F00EB8
:1000D0000C94F00E0C94F00E0C94F00E0C94F00EA8
:1000E0000C94F00E0C941D0F0C94280F0C94EE1031
:1000F0000C9410410C9442100C9450110C944F1815
:100100000C94B30F0C94C2100C94A50F0C94C8104F
:100110000C94EA160C94D6100C941C0F0C94270F18
:100120000C94B3100C94BF180C94DA160C94F314BE
:100130000C94DA100C94820F0C94E8100C94290F94
:100140000C94F50F0C94CC100C9490110C94E410BA
:100150000C94D2100C94910F0C94E0100C94DB16BC
:100160000C9495140C94F2100C94CD510C94B7107F
:100170000C942C1C0C94AD100C9431170C941F1182
:100180000C9404170C94BB100C94BF100C94ED103D
:100190000C94550F0C94FD160C94F7114E414E49DA
:1001A0004E495459494E46CDCCCC3D0AD7233C1735
:1001B000B7D13877CC2B329595E6241FB14F0A0082
:1001C0000020410000C84200401C4620BCBE4CCA72
:1001D0001B0E5AAEC59D7400407A10F35A00A072EF
:1001E0004E18090010A5D4E80000E8764817000072
:1001F000E40B54020000CA9A3B000000E1F5050040
:100200000080969800000040420F000000A0860188
:10021000000000102700000000E803000000006458
:1002200000000000000A00000000000100000000C3
:10023000002C76D888DC674F0823DFC1DFAE59E198
:10024000B1B796E5E3E453C63AE651997696E8E607
:10025000C28426EB898C9B62ED407C6FFCEFBC9CDA
:100260009F40F2BAA56FA5F490055A2AF75C936BEC
:100270006CF9676DC11BFCE0E40D47FEF520E6B5A7
:1002800000D0ED902E0300943577050080841E0881
:100290000000204E0A000000C80C333333330F989F
:1002A0006E12831141EF8D2114893BE65516CFFE66
:1002B000E6DB18D1844B381BF77C1D901DA4BBE4F2
:1002C00024203284725E228100C9F124ECA1E53D34
:1002D00027436F696E20496E7365727465642120CF
:1002E00043757272656E742042616C616E63653A2B
:1002F0002054736820005072652D436C6F73652025
:100300004F66667365742073617665643A200045B4
:100310004550524F4D207772697465206661696C53
:10032000656420666F7220746F74616C436F696ED0
:100330007321205265747279696E672E2E2E0053D8
:1003400061766564204F776E6572204E756D6265CB
:10035000723A2000454550524F4D207772697465BE
:10036000206661696C656420666F7220666C6F77C9
:1003700043616C6962726174696F6E466163746F28
:100380007221205265747279696E672E2E2E004597
:100390004550524F4D207772697465206661696CD3
:1003A000656420666F722070726963655065724C77
:1003B0006974657221205265747279696E672E2E98
:1003C0002E0053544F5245445F43415244533A0028
:1003D0002000436F6D6D616E64733A2027707269FF
:1003E0006365272C202763616C666163746F7227D5
:1003F0002C2027707265636C6F7365272C20277320
:10040000657470686F6E65272C202762616C616E61
:100410006365272C20277265736574272C20276E4F
:10042000657770617373272C20277573657270610F
:100430007373272C2027414444434152443A3C6E75
:10044000616D653E3A3C62616C616E63653E272C6E
:10045000202741444442414C414E43453A3C6E6161
:100460006D653E3A3C616D6F756E743E272C20279A
:1004700044454C455445434152443A3C6E616D6598
:100480003E272C202744454C455445414C4C434184
:100490005244533A3C70617373776F72643E272CF9
:1004A0002027434152444C495354272C2027657838
:1004B0006974270020005072652D436C6F736520AE
:1004C0004F6666736574206C6F616465643A2000E2
:1004D000200050686F6E653A200043616C6962725B
:1004E0006174696F6E20466163746F723A200050C8
:1004F000726963652F4C203A20547368200043755D
:100500007272656E7420446174613A0020002000AC
:10051000436F6D6D616E64733A20274144444341DB
:1005200052443A3C6E616D653E3A3C62616C616E6C
:1005300063653E272C202741444442414C414E43B1
:10054000453A3C6E616D653E3A3C616D6F756E7407
:100550003E272C202765786974270020002000435F
:100560006F6E746163743A202B3235353734333013
:100570003938343932005448414E4B5320464F529B
:10058000205452555354494E472044757261626C51
:10059000652057617465722056656E6473005265FC
:1005A0007475726E656420746F20576F726B204D86
:1005B0006F64652E00416C6C20646174612073610E
:1005C0007665642100200020002000456E7465726D
:1005D000202744454C455445414C4C4341524453DB
:1005E0003A3C70617373776F72643E270020004558
:1005F0006E746572202744454C455445434152442E
:100600003A3C6E616D653E27002000456E74657250
:10061000202741444442414C414E43453A3C6E619F
:100620006D653E3A3C616D6F756E743E270020002B
:10063000200020004F722073656E64206F7468651F
:100640007220636F6D6D616E64732E00456E74650C
:10065000726564205365742050686F6E65204D6F1D
:1006600064653A2053656E642070686F6E65206E15
:10067000756D6265722028652E672E2C202B323511
:1006800035373433303938343932290020002000EE
:1006900053656E64206F7468657220636F6D6D6161
:1006A0006E64732E002000546F74616C2053616C73
:1006B0006573206E6F773A205473682000200053D2
:1006C000616C6573207265736574210020002000E1
:1006D00053656E64206F7468657220636F6D6D6121
:1006E0006E64732E002000546F74616C2053616C33
:1006F00065733A20547368200020002000456E7412
:100700006572656420557365722050617373776FED
:100710007264204368616E6765204D6F64653A209E
:1007200053656E64206E6577207573657220706105
:100730007373776F72642028342D313520636861BC
:1007400072616374657273290020002000456E7425
:10075000657265642050617373776F7264204368BB
:10076000616E6765204D6F64653A2053656E642045
:100770006E65772070617373776F72642028342DF3
:10078000313520636861726163746572732900207A
:100790000020004F722073656E64206F746865726C
:1007A00020636F6D6D616E64732E00456E746572AB
:1007B00065642043616C6663746F72204D6F64657D
:1007C0003A2053656E6420666163746F72202865F9
:1007D0002E672E2C20372E352900200020004F7246
:1007E0002073656E64206F7468657220636F6D6D31
:1007F000616E64732E00456E74657265642050727C
:10080000696365206D6F64653A2053656E6420707E
:10081000726963652028652E672E2C2036302E30B5
:100820002900200029005D202841534349493A20EE
:100830000044697363617264656420636861723A3D
:10084000205B00200053656E642064656661756CF2
:1008500074206F72206E65772070617373776F728A
:10086000642E0050617373776F72642072657365D4
:100870007420746F2064656661756C7421002000BB
:1008800050617373776F726420616E64206F776E4E
:100890006572206E756D6265722072657365742075
:1008A000746F2064656661756C742E004341524418
:1008B000544F5055503A004552524F523A496E7675
:1008C000616C696420416D6F756E74004552524FC2
:1008D000523A43617264204E6F7420466F756E64A5
:1008E00000436172642044656C657465640053550F
:1008F00043434553533A436172642044656C6574C5
:1009000065640043617264204E6F7420466F756E9B
:1009100064004552524F523A43617264204E6F74E4
:1009200020466F756E6400454550524F4D2043611F
:1009300072647320436C6561726564005345545062
:10094000524943453A0053455443414C3A00200034
:10095000496E76616C696420636F6D6D616E6421B0
:100960002053656E642027414444434152443A3C3D
:100970006E616D653E3A3C62616C616E63653E27F7
:10098000206F72202765786974272E002000456E3D
:100990007465726564204164642043617264204D13
:1009A0006F64653A205363616E2052464944206368
:1009B0006172640020002000456E7465722027413A
:1009C0004444434152443A3C6E616D653E3A3C6258
:1009D000616C616E63653E27206F722027657869C0
:1009E0007427004552524F523A496E76616C6964E1
:1009F00020416D6F756E74002000456E7465722025
:100A000027414444434152443A3C6E616D653E3A4D
:100A10003C62616C616E63653E27206F72202765C2
:100A200078697427004552524F523A4E616D6520E5
:100A3000416C7265616479205573656400456E741C
:100A400065722027414444434152443A3C6E616DF3
:100A5000653E3A3C62616C616E63653E27206F7251
:100A600020276578697427004552524F523A4E61EB
:100A70006D6520546F6F204C6F6E6700456E746516
:100A8000722027414444434152443A3C6E616D65B3
:100A90003E3A3C62616C616E63653E27206F722056
:100AA000276578697427004552524F523A496E764D
:100AB000616C696420466F726D617400496E766185
:100AC0006C696420636F6D6D616E64212053656E87
:100AD000642027636F6E74696E756527206F7220BE
:100AE0002765786974272E0020004F722073656E89
:100AF000642027657869742720746F2073746F7081
:100B000020616464696E6720636172647300456E7E
:100B10007465722027414444434152443A3C6E611B
:100B20006D653E3A3C62616C616E63653E27207480
:100B30006F20636F6E74696E756520616464696EA1
:100B400067206120636172640020002000496E7696
:100B5000616C696420636F6D6D616E642120536503
:100B60006E642020277072696365272C20277365C7
:100B70007470686F6E65272C202763616C666163F3
:100B8000746F72272C20276E657770617373272C22
:100B900020277573657270617373272C2027414479
:100BA0004443415244272C202741444442414C4174
:100BB0004E4345272C202744454C4554454341523C
:100BC00044272C202744454C455445414C4C434137
:100BD000524453272C2027434152444C4953542715
:100BE0002C206F72202765786974272E0020004919
:100BF0006E76616C696420636F6D6D616E64212037
:100C000053656E6420277072696365272C202773F3
:100C1000657470686F6E65272C202763616C666150
:100C200063746F72272C20277265736574272C20DC
:100C3000276E657770617373272C20277573657233
:100C400070617373272C2027414444434152442749
:100C50002C202741444442414C414E4345272C20FF
:100C60002744454C45544543415244272C202744B2
:100C7000454C455445414C4C4341524453272C204C
:100C800027434152444C495354272C206F7220274C
:100C900065786974272E00200053656E64206F7498
:100CA00068657220636F6D6D616E64732E0055739D
:100CB00065722070617373776F7264206368616E10
:100CC00067656420616E642073617665642100202D
:100CD000002000557365722070617373776F7264C2
:100CE000206D757374206265203420746F20313557
:100CF0002063686172616374657273212054727934
:100D000020616761696E2E00200053656E64206F5C
:100D10007468657220636F6D6D616E64732E005030
:100D2000617373776F7264206368616E67656420B6
:100D3000616E64207361766564210020002000509C
:100D4000617373776F7264206D75737420626520B0
:100D50003420746F2031352063686172616374657B
:100D60007273212054727920616761696E2E0020B0
:100D70000053656E64206F7468657220636F6D6DDB
:100D8000616E64732E0050686F6E65206E756D62C3
:100D900065722073657420616E642073617665648A
:100DA0003A200020002000496E76616C6964207052
:100DB000686F6E65206E756D62657221204C656E80
:100DC0006774682031302D31392063686172732C6B
:100DD00020652E672E2C202B3235353734333039B1
:100DE000383439322C206F72206F7468657220633A
:100DF0006F6D6D616E64732E0020002000496E7669
:100E0000616C69642063616C666163746F72212038
:100E100053656E642061206E756D62657220626537
:100E2000747765656E20302E3120616E642031301C
:100E30002E302C206F72206F7468657220636F6D86
:100E40006D616E64732E0053656E64206F74686507
:100E50007220636F6D6D616E64732E0020004361BC
:100E60006C466163746F722077617465722073657C
:100E70007420616E642073617665643A20002000FE
:100E80002000496E76616C69642070726963652028
:100E9000706572206C69746572212053656E6420E0
:100EA00061206E756D626572206265747765656E2E
:100EB00020302E303120616E642031303030302EC1
:100EC000302C206F72206F7468657220636F6D6DB7
:100ED000616E64732E002000200053656E64206FE5
:100EE0007468657220636F6D6D616E64732E00505F
:100EF0007269636520706572206C69746572207315
:100F0000657420616E642073617665643A20547361
:100F10006820002000496E76616C696420636F6D03
:100F20006D616E64212053656E6420274144444303
:100F30004152443A3C6E616D653E3A3C62616C617F
:100F40006E63653E272C202741444442414C414E6C
:100F500043453A3C6E616D653E3A3C616D6F756E1E
:100F6000743E272C202765786974272E00496E76F9
:100F7000616C696420636F6D6D616E6421205365DF
:100F80006E642020277072696365272C20276361B7
:100F90006C666163746F72272C20277365747068A8
:100FA0006F6E65272C202762616C616E6365272C4C
:100FB00020277265736574272C20276E6577706112
:100FC0007373272C20277573657270617373272CD8
:100FD0002027414444434152443A3C6E616D653E92
:100FE0003A3C62616C616E63653E272C2027414468
:100FF0004442414C414E43453A3C6E616D653E3A38
:101000003C616D6F756E743E272C202744454C451E
:101010005445434152443A3C6E616D653E272C2055
:101020002744454C455445414C4C43415244533A66
:101030003C70617373776F72643E272C20274341A5
:1010400052444C495354272C202765786974272E25
:10105000002000436F6E746163743A202B32353583
:10106000373433303938343932005448414E4B53D9
:1010700020464F52205452555354494E47204475F0
:101080007261626C652057617465722056656E648A
:10109000730052657475726E656420746F20576FAB
:1010A000726B204D6F64652E00416C6C206461741E
:1010B00061207361766564210020002000556E6117
:1010C0007574686F72697A656420636F6D6D616EA7
:1010D0006421002000556E617574686F72697A65CD
:1010E0006420636F6D6D616E6421002000200045F7
:1010F00052524F523A57726F6E6720506173737736
:101100006F72640020002000535543434553533A07
:10111000416C6C2043617264732044656C65746536
:10112000640020004552524F523A4F776E6572204C
:10113000417574686F72697A6174696F6E20526567
:10114000717569726564004552524F523A496E7624
:10115000616C696420466F726D6174002000456E99
:101160007465726564204164642043617264204D3B
:101170006F64653A205363616E2052464944206390
:1011800061726400200020004552524F523A496E6D
:1011900076616C696420416D6F756E740020004546
:1011A00052524F523A4E616D6520416C72656164D6
:1011B000792055736564004552524F523A4E616D25
:1011C0006520546F6F204C6F6E67002000455252AF
:1011D0004F523A496E76616C696420466F726D6158
:1011E00074002000556E617574686F72697A656469
:1011F00020636F6D6D616E642100200020005365D7
:101200006E64206F7468657220636F6D6D616E64CB
:10121000732E002000546F74616C2053616C6573F1
:10122000206E6F773A205473682000200053616C61
:10123000657320726573657421002000556E6175B9
:1012400074686F72697A656420636F6D6D616E6436
:1012500021002000200053656E64206F7468657261
:1012600020636F6D6D616E64732E002000546F7487
:10127000616C2053616C65733A20547368200020C0
:1012800000556E617574686F72697A656420636F6A
:101290006D6D616E64210020002000456E746572E2
:1012A000656420557365722050617373776F726443
:1012B000204368616E6765204D6F64653A20536511
:1012C0006E64206E6577207573657220706173732C
:1012D000776F72642028342D313520636861726124
:1012E000637465727329002000556E617574686FB0
:1012F00072697A656420636F6D6D616E6421002090
:10130000002000456E7465726564205061737377C8
:101310006F7264204368616E6765204D6F64653A43
:101320002053656E64206E65772070617373776FEC
:1013300072642028342D31352063686172616374D2
:1013400065727329002000556E617574686F72694B
:101350007A656420636F6D6D616E642100200020EA
:10136000004F722073656E64206F7468657220632D
:101370006F6D6D616E64732E00456E746572656489
:10138000205365742050686F6E65204D6F64653A18
:101390002053656E642070686F6E65206E756D6297
:1013A00065722028652E672E2C202B323535373478
:1013B0003330393834393229002000556E61757464
:1013C000686F72697A656420636F6D6D616E642108
:1013D00000200020004F722073656E64206F7468D7
:1013E000657220636F6D6D616E64732E00456E745F
:1013F000657265642043616C20207761746572209A
:101400004D6F64653A2053656E642063616C696258
:10141000726174696F6E20666163746F72202865F3
:101420002E672E2C20372E3529002000556E617531
:1014300074686F72697A656420636F6D6D616E6444
:101440002100200020004F722073656E64206F74AD
:1014500068657220636F6D6D616E64732E00456EFA
:101460007465726564205072696365207761746584
:1014700072204D6F64653A2053656E642070726906
:10148000636520706572206C697465722028652E12
:10149000672E2C2036302E3029002000556E6175C5
:1014A00074686F72697A656420636F6D6D616E64D4
:1014B0002100200020004F722073656E64206F743D
:1014C00068657220636F6D6D616E64732E00456E8A
:1014D0007465726564205072652D436C6F7365206E
:1014E0004D6F64653A2053656E64206F6666736560
:1014F0007420696E206C69746572732028652E678C
:101500002E2C20302E33290020002000496E7661D9
:101510006C6964206F6666736574212053656E6420
:10152000206E756D62657220302E30202D20313096
:101530002E30206C69746572732C206F72206F746A
:1015400068657220636F6D6D616E64732E0020009C
:10155000200053656E64206F7468657220636F6D40
:101560006D616E64732E00206C6974657273005037
:1015700072652D636C6F7365206F6666736574208A
:1015800073657420616E642073617665643A20002F
:1015900020002000496E636F727265637420706171
:1015A0007373776F72642120547279206167616967
:1015B0006E206F722070726573732072657365742C
:1015C00020666F722035207365636F6E64732074BC
:1015D0006F2072657665727420746F206465666131
:1015E000756C742070617373776F72642E002000C5
:1015F000200055736572204D6F64650020004475AE
:101600007261626C652057617465722056656E6404
:10161000733A20436F6E746163743A202B32353510
:1016200037343330393834393200200020004F77D6
:101630006E6572204D6F64650020004475726162B2
:101640006C652057617465722056656E64733A202C
:10165000436F6E746163743A202B323535373433FF
:101660003039383439320020002000436F6E746105
:1016700063743A202B3235353734333039383439C6
:1016800032005448414E4B5320464F52205452553D
:101690005354494E472044757261626C652057610E
:1016A0007465722056656E64730052657475726E4F
:1016B000656420746F20576F726B204D6F64652EC8
:1016C00000426C7565746F6F74682069646C652086
:1016D00074696D656F757420726561636865642EE9
:1016E00020416C6C206461746120736176656421B3
:1016F0000052657475726E696E6720746F20576F43
:10170000726B00426C7565746F6F74682054696DFC
:10171000656F757400434152445245473A00536324
:10172000616E2052464944204361726400536361F4
:101730006E20616E6F746865722063617264206FE1
:10174000722073656E642027657869742700426192
:101750006C3A2000436172642053617665643A20DC
:10176000005363616E205246494420436172640015
:101770005363616E20616E6F74686572206361727D
:1017800064206F722073656E642027657869742702
:101790000043617264204578697374730045525246
:1017A0004F523A4361726420416C726561647920E2
:1017B000457869737473005363616E2052464944DF
:1017C0002043617264005363616E20616E6F7468C0
:1017D00065722063617264206F722073656E64208D
:1017E00027657869742700456D70747920546167A6
:1017F000004552524F523A456D70747920546167DA
:10180000005363616E6E696E672E2E2E004B55532A
:10181000414A494C49204B41444900574153494CA6
:1018200049414E41204E41204F574E4552004B41B9
:10183000444920484149504154494B414E49004197
:101840003A57454B412053414C494F20423A4F4E65
:10185000444F410053414C494F3A20547368200093
:101860004A494E413A20004341524453594E432085
:1018700064656C6574653A20002062616C616E631A
:10188000653D004341524453594E43207570736582
:1018900072743A20004341524453594E433A204512
:1018A0004550524F4D20696D656A616120284D4158
:1018B000585F54414753292C20696D657368696EE0
:1018C000647761206B756F6E67657A61005345546C
:1018D00054494E47533A207072652D636C6F73659F
:1018E000206D707961206B75746F6B612073657208
:1018F0007665723A200053455454494E47533A2076
:1019000063616C6962726174696F6E206D70796178
:10191000206B75746F6B61207365727665723A2007
:101920000053455454494E47533A20626569206D2F
:10193000707961206B75746F6B6120736572766569
:10194000723A200000002200250028002B002E0003
:101950003100340002010000050108010B01000004
:1019600020002300260029002C002F003200000157
:10197000000003010601090100000A0B02090C0D19
:101980000E08070304010000000000000000000032
:101990000000000000000000000000000000000047
:1019A0000000000012111000000000000000000004
:1019B0000000000000000000000000000000000027
:1019C0002100240027002A002D00300033000101EF
:1019D0000000040107010A0101021020200808107C
:1019E000204010204080020102010804020101028F
:1019F0000408102040808040201008040201800468
:101A000002018040201008040201080402010102C2
:101A100004081020408001020408102040800505C1
:101A20000505070508080808020202020A0A080854
:101A30000404040401010101010101010303030382
:101A400003030303040707070C0C0C0C0C0C0C0C11
:101A50000202020206060606060606060B0B0B0B22
:101A60000B0B0B0B5072652D436C6F7365204F662B
:101A700066736574206C6F616465643A20003A2077
:101A8000456D70747900536C6F7420002C20426196
:101A90006C616E63653D002C204E616D653D003AC2
:101AA000205461673D00536C6F74200053746F7253
:101AB00065642043617264733A0050726963652003
:101AC000706572204C6974657220004C6F616465AA
:101AD00064204F776E6572204E756D6265723A2094
:101AE0000043616C6962726174696F6E2046616364
:101AF000746F723A200020442E572E562000445511
:101B00005241424C452057415445522056454E447F
:101B10000048423A0054584E3A434F494E3A004B1F
:101B200041524942552054454E41004153414E5483
:101B3000452053414E41005473683A004C6974612A
:101B40003A004A554D4C41205941204C4954413AA4
:101B5000004A554D4C413A5473682000494E415457
:101B60004F41204D414A492E2E2E2E2E2E2E00540E
:101B7000584E3A434152443A004B41524942552053
:101B800054454E41004153414E54452053414E412E
:101B9000005473683A004C6974613A004A554D4CE0
:101BA00041205941204C4954413A004A554D4C413D
:101BB0003A5473682000494E41544F41204D414AE8
:101BC000492E2E2E2E005363616E204B61646920D6
:101BD00054656E61004D55444120554D454953486B
:101BE0004100413A57454B412053414C494F204217
:101BF0003A4F4E444F410053414C494F3A205473A1
:101C00006820004A494E413A20004D554441205534
:101C10004D454953484100202020202020202020ED
:101C2000202020202020200053414C494F3A2054AE
:101C3000736820004A494E413A20004D616A692E7E
:101C40002E2E2E2E004C697465723A20002000530F
:101C5000414C494F2048414C49544F53484900207A
:101C6000004B49415349204B49444F474F20534172
:101C70004E4100413A57454B412053414C494F207A
:101C8000423A4F4E444F410053414C494F3A205441
:101C9000736820004A494E413A200048414B554E56
:101CA00041204B49415349004B61646920496D65AE
:101CB0006F6E646F6C65776100423A4F4E444F41DE
:101CC00020202A3A4655544100424F4E59455A4128
:101CD0002023204B5552554855535560002000573E
:101CE000454B41204B49415349205473683A004BBE
:101CF00061646920496D656F6E646F6C6577610022
:101D0000545A533A20004F4E47455A412053414CB4
:101D1000494F004C697465723A20004469737065DC
:101D20006E73696E672057617465722028436F690E
:101D30006E7329002020200053414C494F20545AF3
:101D4000533A200057454B41204B414449005745E9
:101D50004B41205341524146552041550048414B8B
:101D6000554E4120534855474855524900537973C1
:101D700074656D205265736574001041CD51112456
:101D80001FBECFEFD1E2DEBFCDBF00E00CBF28E029
:101D9000A6E8B5E001C01D92A33CB207E1F715E04B
:101DA000A0E0B2E0E4E6F6EB00E00BBF02C0079073
:101DB0000D92A638B107D9F71EE0CEEBDEE000E0C9
:101DC00006C021970109802FFE010E94AD58CD3B2E
:101DD000D10780E00807A9F70E9429420C94205BF4
:101DE0000C940000FC01A089B18982E08C93A48549
:101DF000B5851C92A685B7858FEC8C93108EA4892F
:101E0000B58986E08C93A289B3898C9180618C938B
:101E1000A289B3898C9188608C93A289B3898C91B3
:101E200080688C930288F389E02D80818F7D808388
:101E300008958CBD9DBD089508958091A60690914A
:101E4000A70601969093A7068093A6060895089585
:101E500008950895DC01ED91FC910190F081E02D51
:101E60001994EF92FF920F931F93CF93DF938C01FE
:101E70007B01D0E0C0E0F701EC0FFD1F6491662309
:101E800061F0D801ED91FC910190F081E02DC80145
:101E90001995892B11F02196EECFCE01DF91CF91CC
:101EA0001F910F91FF90EF900895AF92BF92CF9244
:101EB000DF92EF92FF920F931F93CF93DF936C010A
:101EC0007B018B01040F151FEB015E01AE18BF08EB
:101ED000C017D10759F06991D601ED91FC9101909D
:101EE000F081E02DC6011995892B79F7C501DF91A5
:101EF000CF911F910F91FF90EF90DF90CF90BF9007
:101F0000AF900895FC01538D448D252F30E0842F30
:101F100090E0821B930B541710F0CF960895019711
:101F20000895FC01918D828D981761F0A28DAE0FFE
:101F3000BF2FB11D5D968C91928D9F5F9F73928F85
:101F400090E008958FEF9FEF0895FC01918D828DB1
:101F5000981731F0828DE80FF11D858D90E008957E
:101F60008FEF9FEF0895FC01918D228D892F90E0D6
:101F7000805C9F4F821B91098F73992708958EEC87
:101F800096E00E94B30F21E0892B09F420E0822F14
:101F900008958BE697E00E94B30F21E0892B09F4A6
:101FA00020E0822F0895FC01A48DA80FB92FB11D48
:101FB000A35ABF4F2C91848D90E001968F7399277F
:101FC000848FA689B7892C93A089B1898C9183705D
:101FD00080648C93938D848D981306C00288F38956
:101FE000E02D80818F7D80830895EF92FF920F9383
:101FF0001F93CF93DF93EC0181E0888F9B8D8C8DB5
:1020000098131AC0E889F989808185FF15C09FB7A8
:10201000F894EE89FF896083E889F989808183706B
:10202000806480839FBF81E090E0DF91CF911F911A
:102030000F91FF90EF900895F62E0B8D10E00F5F3B
:102040001F4F0F731127E02E8C8D8E110CC00FB611
:1020500007FCFACFE889F989808185FFF5CFCE01A9
:102060000E94D30FF1CFEB8DEC0FFD2FF11DE35A42
:10207000FF4FF0829FB7F8940B8FEA89FB8980812C
:102080008062CFCFCF93DF93EC01888D8823B9F0A6
:10209000AA89BB89E889F9898C9185FD03C0808173
:1020A00086FD0DC00FB607FCF7CF8C9185FFF2CFF0
:1020B000808185FFEDCFCE010E94D30FE9CFDF9164
:1020C000CF91089580E090E0892B29F00E94C90FFC
:1020D00081110E94000080E090E0892B29F00E948D
:1020E000BF0F81110E94000080E090E0892B49F031
:1020F00080E090E0892B29F00E94000081110E946D
:10210000000080E090E0892B49F080E090E0892B8E
:1021100029F00E94000081110C9400000895815064
:10212000823108F05AC0E82FF0E08827E556FF4ECC
:102130008F4F0C94AD58BB10BF10AD10B310B7103B
:10214000ED10C210C810CC10D210D610DA10E0106A
:10215000E410ED10E810EE10F210809180008F77FF
:10216000809380000895809180008F7DF9CF8091C9
:102170008000877FF5CF84B58F7784BD089584B5BF
:102180008F7DFBCF8091B0008F778093B000089552
:102190008091B0008F7DF9CF809190008F778093F0
:1021A00090000895809190008F7DF9CF80919000EC
:1021B000877FF5CF8091A0008F778093A00008954E
:1021C0008091A0008F7DF9CF8091A000877FF5CF0F
:1021D000809120018F7780932001089580912001C4
:1021E0008F7DF9CF80912001877FF5CFCF93DF934B
:1021F000282F30E0F901E858F64E8491F901E852B1
:10220000F64ED491F901E25EF54EC491CC23A1F0D3
:1022100081110E948F10EC2FF0E0EE0FFF1FE25AA9
:10222000F64EA591B491EC91ED2381E090E009F494
:1022300080E0DF91CF91089580E090E0FACF862F83
:102240000C94F6101F93CF93DF93282F30E0F90101
:10225000E858F64E8491F901E852F64ED491F9010E
:10226000E25EF54EC491CC23A9F0162F81110E9495
:102270008F10EC2FF0E0EE0FFF1FEC5BF64EA591F8
:10228000B4918FB7F894EC91111108C0D095DE236A
:10229000DC938FBFDF91CF911F910895DE2BF8CF94
:1022A000862F642F0C942211CF93DF9390E0FC01D2
:1022B000E852F64E2491825E954EFC01849188236B
:1022C000C9F090E0880F991FFC01E254F64EA591E9
:1022D000B491FC01EC5BF64EC591D49161110DC037
:1022E0009FB7F8948C91209582238C938881282322
:1022F00028839FBFDF91CF910895623051F49FB73B
:10230000F8943C91822F809583238C93E8812E2B27
:10231000EFCF8FB7F894EC912E2B2C938FBFEACF91
:10232000862F642F0C9454113FB7F89480915B066C
:1023300090915C06A0915D06B0915E0626B5A89BC3
:1023400005C02F3F19F00196A11DB11D3FBFBA2F47
:10235000A92F982F8827BC01CD01620F711D811D07
:10236000911D42E0660F771F881F991F4A95D1F78C
:1023700008958F929F92AF92BF92CF92DF92EF9289
:10238000FF924B015C010E9494116B017C010E9441
:1023900094116C197D098E099F09683E734081056F
:1023A0009105A8F321E0821A9108A108B10888EEEE
:1023B000C80E83E0D81EE11CF11C81149104A10415
:1023C000B10429F7FF90EF90DF90CF90BF90AF90CE
:1023D0009F908F9008952FB7F89460915706709151
:1023E00058068091590690915A062FBF0895BC0156
:1023F0006E5F7F4FDC01ED91FC910190F081E02D4B
:1024000040E0199591E0811190E0892F0895089599
:102410008EBD00000DB407FEFDCF8EB50895DF928E
:10242000EF92FF920F931F93CF93DF937C01062FC0
:10243000D42E152F80E590E00E94190F60E0F7017F
:1024400086850E94221182E10E940812CD2DD12F93
:102450000C0F1D2F111DC017D10721F089910E946B
:102460000812F9CF61E0F7018685DF91CF911F91C6
:102470000F91FF90EF90DF900C9422111F93CF9358
:10248000DF93EC01162F80E590E00E94190F60E0C9
:102490008E850E942211812F80680E94081280E0A0
:1024A0000E940812182F61E08E850E942211812F50
:1024B000DF91CF911F9108950F931F93CF93DF93D7
:1024C000EC01062F142F80E590E00E94190F60E0C8
:1024D0008E850E942211802F0E940812812F0E9457
:1024E000081261E08E85DF91CF911F910F910C94BE
:1024F0002211CF9361E0809140080E94541161E065
:10250000809140080E942211809141088F3F09F478
:102510006AC060E00E945411809141080E94F61048
:10252000892B09F060C061E0809141080E9454113C
:1025300060E0809141080E94221183E090E00197C1
:10254000F1F761E0809141080E94221162E370E09E
:1025500080E090E00E94B91140E064E282E398E0FC
:102560000E945C1240E066E282E398E00E945C1206
:1025700046E268E482E398E00E945C1240E864E589
:1025800082E398E00E945C1249EA66E582E398E003
:102590000E945C1243E068E582E398E00E945C12CE
:1025A00048EE6AE582E398E00E945C1240E46AE249
:1025B00082E398E00E945C124DE362E282E398E0DD
:1025C0000E945C1268E282E398E00E943E12982F1B
:1025D00093709330F9F0482F436068E282E398E00B
:1025E000CF910C945C124FE062E082E398E00E948D
:1025F0005C12C3E062E370E080E090E00E94B911F9
:1026000062E082E398E00E943E1284FFA5CFC150B1
:1026100089F7A2CFCF910895CF92DF92EF92FF92E8
:102620000F931F93CF93DF93EC016B01F42E89017D
:1026300040E062E00E945C1244E06AE0CE010E9449
:102640005C1240E864E1CE010E945C12A6016F2D8D
:10265000CE010E940F1243E062E0CE010E945C12A4
:102660000E94EB116B017C0129E5C20ED11CE11C1B
:10267000F11C6AE0CE010E943E1282FF1BC040E0C6
:1026800062E0CE010E945C1264E4CE010E943E1220
:10269000F801808362E4CE010E943E12F80181833A
:1026A00080E0DF91CF911F910F91FF90EF90DF902D
:1026B000CF9008950E94EB116C157D058E059F0546
:1026C000C0F283E0EECF2F923F924F925F926F92D3
:1026D0007F928F929F92AF92CF92DF92EF92FF9272
:1026E0000F931F93CF93DF931F921F92CDB7DEB747
:1026F0004C012B01D42E390180E0E114F10411F0DA
:10270000F70180813C2C329490EF3922380E40E062
:1027100062E0C4010E945C124FE768E0C4010E94BD
:102720005C1240E864E1C4010E945C12A2016D2DBC
:10273000C4010E940F12432D6AE1C4010E945C1281
:102740004CE062E0C4010E945C126AE1C4010E9494
:102750003E12482F40686AE1C4010E945C120E9448
:10276000EB111B012C01F4E22F0E311C411C511CFA
:1027700068E0C4010E943E12982F907309F0B7C020
:1027800080FF15C083E00F900F90DF91CF911F91D4
:102790000F91FF90EF90DF90CF90AF909F908F9030
:1027A0007F906F905F904F903F902F9008950E9480
:1027B000EB116215730584059505D0F2E3CF611422
:1027C000710409F469C00115110509F465C064E1DB
:1027D000C4010E943E12382EF8018081831508F44E
:1027E00080C030823320E1F180E590E00E94190F33
:1027F00060E0F40186850E9422113A9482E90E94E9
:102800000812CC20B1F08FEF90E09C0102C0220FA3
:10281000331FCA94E2F7690182E90E9408129C2DD5
:102820009095F301208192238C21982B9083CC24C6
:10283000C39423014C0C511CC31440F482E90E9440
:102840000812F20181932F01C394F6CF80E00E9419
:102850000812F201808361E0F40186850E94221152
:1028600068E1C4010E943E128770E114F10411F086
:10287000F701808323FC37C061147104B1F10115A5
:10288000110599F1AA2089F1F8014081413031F414
:10289000843029F58FEF77CF80E0ECCF4230F8F02D
:1028A00081111DC042509E012F5F3F4FB301C401F3
:1028B0000E940C13811167CFF8019081690E711C81
:1028C000F301329720819981291309C0F1E06F1A31
:1028D0007108F30120819A81291709F454CF87E008
:1028E00052CF84E050CF82E04ECF80E04CCF6CE0FE
:1028F000C4010E943E12282E837109F460CF81E04A
:1029000042CF0F931F93CF93DF938C01D62FC42F09
:102910000E943E12C0954C2F48236D2FC801DF91B5
:10292000CF911F910F910C945C128F929F92AF9256
:10293000CF92EF92FF920F931F93CF93DF9300D02C
:102940001F921F92CDB7DEB74C0182E08D8340E02D
:1029500064E2C4010E945C1240E066E2C4010E948D
:102960005C1246E268E4C4010E945C1286E28B833A
:102970008D818230B0F140E86CE1C4010E94811485
:1029800087E08C83A12CC12CCE0104967C018E01A2
:102990000B5F1F4F9E012F5F3F4F41E0BE016D5FF8
:1029A0007F4FC4010E946313982F811117C08D813E
:1029B0008230B9F48C81811114C081E00F900F90A6
:1029C0000F900F900F90DF91CF911F910F91FF907B
:1029D000EF90CF90AF909F908F90089581E09230CC
:1029E00069F380E0EBCF2F923F924F925F926F920C
:1029F0007F928F929F92AF92BF92CF92DF92EF928F
:102A0000FF920F931F93CF93DF93CDB7DEB72D9730
:102A10000FB6F894DEBF0FBECDBF16E0413508F00B
:102A200045C1342E4B013C0140E86CE10E94811409
:102A300083E98983332029F081E0F4019081953086
:102A400008F480E022242394B12C9B2D990F990F38
:102A5000990FD32CD91AD7FCD12C32E0882319F046
:102A600098E89B8333E021E09D2D977009F420E0E6
:102A70009D2D959595959595290FC9F094E0811117
:102A800093E0291708F4922FEB2DF0E03196E80D32
:102A9000F91D232F4191A1E0B0E0AC0FBD1FA20FA3
:102AA000B11D4C932F5F422F431B491798F3882386
:102AB00011F0F8E0DF0E8FE18D150CF082C090E789
:102AC0009A838B819C8189279D8189279E81892773
:102AD0008F839E01285F3F4F47E0BE016F5F7F4FAE
:102AE000C3010E940C13182F8111E0C01A86E3E085
:102AF000EB87DC86CE0107962C0199E09D87CA847E
:102B00004C2D4295407F4C0D6AE1C3010E945C123E
:102B1000A12CCE010A967C018E01055F1F4F920108
:102B20004D85BE016F5F7F4FC3010E946313182F55
:102B3000823009F065C06CE1C3010E943E1285FD40
:102B4000B5C08F7109F480E2282F30E04D2DDD0CE7
:102B5000550B421753070CF09DC0D82EE82FE59572
:102B6000E595E595EF5F982F977081E009F480E097
:102B7000E80F81E090E08C0F9D1F8E0F911DFC01EE
:102B8000215031092770332781E090E002C0880F7F
:102B9000991F2A95E2F79C018081822B80838BCF3D
:102BA00085E98983332031F081E0F4019081983008
:102BB00008F04BCF80E049CF87E9898326E0B22E29
:102BC000F9CF9D2D97709A878D2D85958595859543
:102BD0008E5F282F2295207F290F2A8321E09111D3
:102BE00001C020E0280F2D8744244394512C4C0E23
:102BF0005D1E480E511CE9E0E81BEB87DC867FCFA9
:102C0000811154C080E2D82E9C8590320CF457CFAD
:102C10008B81883809F040C083E093E0EB2DF0E031
:102C20003196E80DF91D980FA1E0B0E0AC0FBD1F83
:102C3000A80FB11D2C9121938F5F8913F5CFBB8411
:102C4000E3E0BE124DC08A8581114AC09E012D5F0E
:102C50003F4F41E0B201C3010E940C13182F8111B4
:102C600025C09B81F201818198133CC09C818281A7
:102C7000981338C0808182FF12C02394F2E02F168F
:102C800009F48ECF83E0281609F496CF91E0291637
:102C900009F4CECE15E00AC082E094E0BFCFF40183
:102CA0008387822D880F820D8F5F8083812F2D96E1
:102CB0000FB6F894DEBF0FBECDBFDF91CF911F914D
:102CC0000F91FF90EF90DF90CF90BF90AF909F90CB
:102CD0008F907F906F905F904F903F902F900895CE
:102CE00011E0E4CF17E0E2CF2091E505260F33276E
:102CF000331F21323105ECF420912E06FC0190E0C7
:102D000080E0243069F082E00895A091E5052191EA
:102D1000AC014B535A4FA40FB52FB11D2C93019604
:102D2000861798F38091E505680F6093E50580E0CC
:102D3000089581E0089510922E0681E080932D067B
:102D40001092080661E084E10E94221161E085E1B1
:102D50000E942211E9EBF0E080818E7F80838081E8
:102D60008D7F808388E48093B80085E48093BC00E5
:102D70000895CF93DF9391E09093C4058823B9F031
:102D8000C091B800D091BA008091BC008A7B80933A
:102D9000BC0060E084E10E94221160E085E10E94B5
:102DA00022110E949B16D093BA00C093B800DF9105
:102DB000CF9108950895E091670680916606E8171F
:102DC00030F4F0E0EC55FA4F808190E008958FEFF9
:102DD0009FEF089590916706809166062FEF3FEF71
:102DE000981748F4E92FF0E0EC55FA4F208130E0D5
:102DF0009F5F90936706C901089580916606909140
:102E00006706891B990B0895CF92DF92EF92FF928C
:102E10000F931F93CF93DF937C01CB018A01209105
:102E20003406222389F0EB016B01C40ED51ECC15AC
:102E3000DD0569F06991D701ED91FC910190F08178
:102E4000E02DC7011995F3CF642F0E947416C801B5
:102E5000DF91CF911F910F91FF90EF90DF90CF9076
:102E60000895CF93DF931F92CDB7DEB7698320918A
:102E700034062223F9F020916406203258F021E034
:102E800030E0FC013383228390E080E00F90DF91FB
:102E9000CF91089580916506E82FF0E0EB5CF94F43
:102EA000998190838F5F809365068093640681E0AB
:102EB00090E0ECCF61E0CE0101960E947416F7CF4E
:102EC000CF92DF92EF92FF920F931F93CF93DF93F6
:102ED000FC01C48121E020933406C0935506109272
:102EE0006506109264068385682B88E098E00E944E
:102EF0003117D0916406D13208F092C00E9494112B
:102F00006B017C0180912E06811165C082E0809367
:102F10002E0681E080932D068FEF80932C06109271
:102F20002B06D0932A06A5E3B6E0EAE0F6E080E0BF
:102F3000D81385C01092090680910906CC0FC82BC2
:102F4000C093090680910806813009F07CC0109278
:102F500008060E9494116B017C0180910906809300
:102F6000BB008091300690913106A0913206B0915D
:102F70003306892B8A2B8B2B99F00E949411009198
:102F800030061091310620913206309133066C19CB
:102F90007D098E099F090617170728073907E0F1F1
:102FA0008091BC0083FDD9CF85EC8093BC000E944A
:102FB00094116B017C0180912E06823009F445C08A
:102FC00080912C068F3F61F180912C06803241F177
:102FD00080912C0625C08091300690913106A091F9
:102FE0003206B0913306892B8A2B8B2B09F48ACFBA
:102FF0000E94941100913006109131062091320602
:10300000309133066C197D098E099F090617170741
:103010002807390708F076CF80912F060E94B9164D
:10302000109265061092640610923406DF91CF91DB
:103030001F910F91FF90EF90DF90CF9008959D9199
:1030400091938F5F75CF85EEB0CF809130069091D0
:103050003106A0913206B0913306892B8A2B8B2B37
:1030600009F4A9CF0E949411009130061091310605
:1030700020913206309133066C197D098E099F0923
:10308000061717072807390708F095CFC5CF88E03E
:103090008093BC0860E081EB98E00C94601790E0AE
:1030A00080E008950F931F93CF938C01C62F0E9449
:1030B00060176C2F6460C8010E9460176C2F6B7FD3
:1030C000C8010E94601783EC90E00197F1F7CF915F
:1030D0001F910F9108950F931F93CF93DF938C014E
:1030E000D62FC42F607F642B0E94521880E1D89F96
:1030F000B00111246C2BC801DF91CF911F910F916A
:103100000C945218CF93DF9300D000D01F921F92DF
:10311000CDB7DEB798E0EAE7F2E0DE011196019064
:103120000D929A95E1F79091B908961710F46FEF08
:10313000690F262F30E0220F331F41E050E04C0F83
:103140005D1F240F351FF9016081680F606840E042
:1031500081EB98E028960FB6F894DEBF0FBECDBF86
:10316000DF91CF910C946B1840E061E081EB98E027
:103170000E946B188BE39FE10197F1F7089541E0FE
:103180000E946B1881E090E00895FB014481558115
:10319000FC01248135812417350778F080819181E5
:1031A000009759F0FB01608171816115710529F06B
:1031B0000E94035B21E0892B09F020E0822F089513
:1031C000CF93DF93EC0188819981009711F00E94E1
:1031D0006559198218821D821C821B821A82DF9116
:1031E000CF910895FC0180819181009711F00C949A
:1031F00065590895CF92DF92EF92FF920F931F933C
:10320000CF93DF93EB017B0123E2E20EF11C8B01F4
:103210006C01C61AD70AC601800F911F0E942F5752
:10322000F80181938F01EE15FF05A9F7CE01DF911B
:10323000CF911F910F91FF90EF90DF90CF90089565
:10324000CF92DF92EF92FF920F931F93CF93DF9372
:10325000CDB7DEB7A3970FB6F894DEBF0FBECDBFD4
:103260006C0184E4E82EF12C10E000E0BE016F5FF9
:103270007F4FC7010E94FA184EE050E0B601CE0120
:1032800001960E94035B892B19F4898181110AC080
:103290000F5F1F4F83E2E80EF11C0233110531F777
:1032A0000FEF1FEFC801A3960FB6F894DEBF0FBE55
:1032B000CDBFDF91CF911F910F91FF90EF90DF90E5
:1032C000CF900895EF92FF920F931F93CF93DF93C8
:1032D000CDB7DEB7A3970FB6F894DEBF0FBECDBF54
:1032E00084E4E82EF12C10E000E0BE016F5F7F4F18
:1032F000C7010E94FA188981882351F00F5F1F4F80
:1033000083E2E80EF11C0233110579F70FEF1FEF8E
:10331000C801A3960FB6F894DEBF0FBECDBFDF91F4
:10332000CF911F910F91FF90EF900895CF92DF9270
:10333000EF92FF920F931F93CF93DF93EB017B01EB
:1033400020E1E20EF11C8B016C01C61AD70AC601FE
:10335000800F911F0E942F57F80181938F01EE1566
:10336000FF05A9F7CE01DF91CF911F910F91FF903B
:10337000EF90DF90CF900895CF92DF92EF92FF927F
:103380000F931F93CF93DF93EB017B0124E0E20EB9
:10339000F11C8B016C01C61AD70AC601800F911F60
:1033A0000E942F57F80181938F01EE15FF05A9F7B1
:1033B000CE01DF91CF911F910F91FF90EF90DF90A1
:1033C000CF900895FB0101900020E9F73197AF01FC
:1033D000461B570BDC01ED91FC910280F381E02D3F
:1033E00019948F929F92AF92BF92EF92FF920F9398
:1033F0001F93CF93DF93CDB7DEB7A1970FB6F894A5
:10340000DEBF0FBECDBF7C01FA01CB0119A2223075
:1034100008F42AE08E010F5D1F4F822E912CB12CF3
:10342000A12CBF01A50194010E948B58F901CA018A
:103430006A300CF5605DD8016E938D01232B242B2F
:10344000252B79F790E080E0109721F0BD01C701AE
:103450000E94E219A1960FB6F894DEBF0FBECDBF51
:10346000DF91CF911F910F91FF90EF90BF90AF90A0
:103470009F908F900895695CDECFCF92DF92EF929C
:10348000FF92CF93DF93AB01BC0177FF1DC06A01B0
:103490007C016DE28BE697E00E942A0FEC01442745
:1034A0005527BA014C195D096E097F092AE08BE6A0
:1034B00097E00E94F1198C0F9D1FDF91CF91FF9033
:1034C000EF90DF90CF9008952AE08BE697E0DF91B0
:1034D000CF91FF90EF90DF90CF900C94F1192F9245
:1034E0003F924F925F926F927F928F929F92AF9294
:1034F000BF92CF92DF92EF92FF921F93CF93DF9311
:10350000EC016A017B01722EAB019601CB01B60181
:103510000E94725866EC72E0811126C04601570184
:10352000E894B7F82FEF3FEF4FE75FE7C501B4012D
:103530000E94725881110CC02FEF3FEF4FE75FE7F9
:10354000C501B4010E9408566AEC72E0181664F0D6
:103550002FEF3FEF4FE75FE4C701B6010E946D58C0
:103560001816B4F46EEC72E0CE01DF91CF911F918A
:10357000FF90EF90DF90CF90BF90AF909F908F9093
:103580007F906F905F904F903F902F900C94E21936
:103590002FEF3FEF4FE75FECC701B6010E940856DF
:1035A00087FDE0CF20E030E0A901C701B6010E940D
:1035B0000856312C212C87FF09C06DE2CE010E94F4
:1035C0002A0F1C01F7FAF094F7F8F09410E060E08D
:1035D00070E080E09FE3711641F020E030E040E2CF
:1035E00051E40E94CC571F5FF6CFA70196010E94BD
:1035F00060572B013C010E943E584B015C012AE0C0
:10360000BC01A401CE010E94F1197C01E20CF31C63
:103610001123C1F1C501B4010E940D569B01AC01FB
:10362000C301B2010E945F574B015C016EE2CE0103
:103630000E942A0FE80EF91E115020F120E030E020
:1036400040E251E4C501B4010E946E562B013C01D9
:103650000E943E584B01B12CA12C2AE0B501A401D7
:10366000CE010E94F119E80EF91EC501B4010E94B5
:103670000D569B01AC01C301B2010E945F574B0183
:103680005C01DACFC701DF91CF911F91FF90EF90DE
:10369000DF90CF90BF90AF909F908F907F906F9072
:1036A0005F904F903F902F9008950F931F93CF936B
:1036B000DF93EC010E946F1A8C0162ED72E0CE0183
:1036C0000E94E219800F911FDF91CF911F910F91FE
:1036D00008950C946F1A0F931F93CF93DF93EC010F
:1036E0000E94E2198C0162ED72E0CE010E94E219A3
:1036F000800F911FDF91CF911F910F9108950F932C
:103700001F93CF93DF93EC01FB01448155816081CE
:1037100071810E94550F8C0162ED72E0CE010E9412
:10372000E219800F911FDF91CF911F910F910895A2
:103730000F931F93CF93DF93EC010E94310F8C0105
:1037400062ED72E0CE010E94E219800F911FDF91BD
:10375000CF911F910F9108956BE575E08EEC96E087
:103760000E94310F60E175E08EEC96E00E94981B9C
:103770006EE075E08EEC96E00C94310F6CE075E035
:103780008EEC96E00E94310F6EEF74E08EEC96E0C6
:103790000E94981B6FEE74E08EEC96E00E94310F51
:1037A000409148025091490260914A0270914B0247
:1037B00022E030E08EEC96E00E94551B6AED74E04A
:1037C0008EEC96E00E94310F4091420250914302EC
:1037D000609144027091450222E030E08EEC96E068
:1037E0000E94551B62ED74E08EEC96E00E94310F52
:1037F00060E272E08EEC96E00E946B1B60ED74E07C
:103800008EEC96E00E94310F66EB74E08EEC96E051
:103810000E94310F409138025091390260913A0272
:1038200070913B0222E030E08EEC96E00E94551B46
:1038300064EB74E08EEC96E00E94310F62ED73E071
:103840008EEC96E00E94981B60ED73E08EEC96E0A3
:103850000C94310F0C94E2196091BC067091BD0676
:103860008091BE069091BF0620E030E048E452E42B
:103870000E9460576093BC067093BD068093BE069D
:103880009093BF066091BC067091BD068091BE0604
:103890009091BF060E943E586093C0067093C10687
:1038A0008093C2069093C3060E94EB116093C506F5
:1038B0007093C6068093C7069093C80661ED72E0C8
:1038C0008BE697E00E94310F4091C0065091C106EF
:1038D0006091C2067091C3062AE08BE697E00E94D1
:1038E000F11962ED72E08BE697E00C94E219FC01AD
:1038F00080819181009711F00C94FF5160E070E09D
:10390000CB010895AF92BF92CF92DF92EF92FF92D8
:103910000F931F93CF93DF93DC01CD90DC90119731
:10392000C114D10439F01496CD91DC918C0176014B
:10393000209761F4DF91CF911F910F91FF90EF904D
:10394000DF90CF90BF90AF90089575015701BFEF02
:10395000AB1ABB0AF7018081082E000C990B0E945C
:10396000D755892B91F72197CC0DDD1D8881082E25
:10397000000C990B0E94D755892B29F0CE15DF0535
:1039800010F02197F3CFAE014F5F5F4F4E195F09E3
:10399000D80115965C934E931497CE14DF0420F44F
:1039A000B701C6010E94DF5AD801ED91FC91119731
:1039B00014968D919C91E80FF91F1082BBCFCF9385
:1039C000DF93FC01C081D181209761F08991882328
:1039D00049F0082E000C990B0E94D75AFE0131972E
:1039E0008083F4CFDF91CF910895FC01248135814C
:1039F000232B39F421E0FB018081882349F020E06A
:103A000007C0808191810E94F35A21E0892BB9F788
:103A1000822F08950F931F93CF93DF93EC0188813A
:103A20009981009759F02A813B812617370730F09A
:103A300081E0DF91CF911F910F9108958B016F5F0E
:103A40007F4F0E94EE59009759F0998388831B831A
:103A50000A832C813D81232B59F7FC011082E8CF8A
:103A600080E0E7CFEF92FF920F931F93CF93DF9306
:103A70006115710541F480E0DF91CF911F910F91A5
:103A8000FF90EF90089541155105B1F07B01EC01D5
:103A90000C811D81040F151FB8010E940A1D882387
:103AA00051F3288139818C819D81B701820F931F49
:103AB0000E94FC5A1D830C8381E0DECFCF93DF93FD
:103AC000EC01FB0101900020E9F73197AF01461BA3
:103AD000570B0E94321D811103C0CE010E94E018D5
:103AE000CE01DF91CF910895CF93DF93EC01FB01DD
:103AF00044815581608171810E94321D811103C012
:103B0000CE010E94E018CE01DF91CF910895CF93AE
:103B1000DF931F921F92CDB7DEB769831A8241E00F
:103B200050E0BE016F5F7F4F0E94321D0F900F90DB
:103B3000DF91CF910895EF92FF920F931F93CF9350
:103B4000DF93EC017B018A01BA010E940A1D8111F9
:103B50000BC0CE010E94E018CE01DF91CF911F91E2
:103B60000F91FF90EF9008951D830C83B70188811A
:103B700099810E94FC5AF0CFFB0101900020E9F7E7
:103B80003197AF01461B570B0C949B1D0F931F934E
:103B9000CF93DF93CDB7DEB762970FB6F894DEBF51
:103BA0000FBECDBF8C01CB01F801118210821382B0
:103BB0001282158214824AE0BE016F5F7F4F0E941D
:103BC0000352BE016F5F7F4FC8010E94BC1D629609
:103BD0000FB6F894DEBF0FBECDBFDF91CF911F911E
:103BE0000F910895EF92FF920F931F93CF93DF935E
:103BF000CDB7DEB7A1970FB6F894DEBF0FBECDBF2D
:103C00007C01CB01BA01F70111821082138212826A
:103C1000158214828E010F5F1F4F22E044E00E9444
:103C2000E151009789F0BC01C7010E94BC1DA1961B
:103C30000FB6F894DEBF0FBECDBFDF91CF911F91BD
:103C40000F91FF90EF900895C7010E94E018EFCF09
:103C5000FB01DC0111961C921E9213961C921E927F
:103C6000129715961C921E9214978617970749F083
:103C7000608171816115710521F0448155810C9439
:103C80009B1D0895FC0111821082138212821582FD
:103C90001482FB0101900020E9F73197AF01461B28
:103CA000570B0C949B1DAF92BF92CF92DF92EF9275
:103CB000FF920F931F93CF93DF936C015B017A0107
:103CC00089012417350720F48F2D7901042F182F2F
:103CD00064ED72E0C6010E94421ED5011496CD919A
:103CE000DC91EC16FD06E0F40C171D0708F4E80162
:103CF000D501ED91FC911197EC0FFD1F1081108201
:103D00006D917C916E0D7F1DC60161157105A1F04D
:103D10000E94BC1DF50180819181C80FD91F1883B5
:103D2000C601DF91CF911F910F91FF90EF90DF902F
:103D3000CF90BF90AF9008950E94E018EBCFEF9224
:103D4000FF920F931F93CF93DF93EC018A01FB0146
:103D50008481958130E020E0B0E0A0E050E040E0D8
:103D60008217930758F18217930771F4A017B107D0
:103D700001F5CE010E94531ECE01DF91CF911F911C
:103D80000F91FF90EF9008952817390740F4FB0139
:103D9000E080F180F701E20FF31FEF2821F4109289
:103DA000CD06EDECF6E0E081EA3301F32F5F3F4F03
:103DB000D7CFA9014F5F5F4F1196F8CF64ED72E046
:103DC000CE010E94421ED8CFCF93DF93EC01FB01BE
:103DD000248135810E94531ECE01DF91CF91089539
:103DE00085ED8093BC008091300690913106A091C2
:103DF0003206B09133060796A11DB11D23E0B6959A
:103E0000A795979587952A95D1F72091BC0024FD19
:103E100003C010922E06089540913006509131064D
:103E20006091320670913306452B462B472B69F380
:103E30000097A105B10541F02AE22A95F1F700C0EB
:103E40000197A109B109E1CF80912F060C94B91611
:103E50000F931F93CF93DF9300E212E0C8E0D0E00E
:103E6000F80161918F01CE010E9437572196CC3124
:103E7000D105B1F76FE373E08BE697E00E94310F55
:103E800060E272E08BE697E0DF91CF911F910F9196
:103E90000C946B1BFF920F931F93CF93DF93EC0156
:103EA000F62E08811981C8010E942F57F81621F0BB
:103EB0006F2DC8010E943757CE01DF91CF911F911E
:103EC0000F91FF900895AF92BF92CF92DF92EF9241
:103ED000FF920F931F93CF93DF931F921F92CDB743
:103EE000DEB78B016B0123E2C20ED11C7B015C01AA
:103EF000A61AB70AC5018E0D9F1D9A838983F70103
:103F000061917F01CE0101960E944A1FEC14FD04CD
:103F100089F7C8010F900F90DF91CF911F910F91FA
:103F2000FF90EF90DF90CF90BF90AF900895AF9249
:103F3000CF92DF92EF92FF920F931F93CF93DF9375
:103F4000CDB7DEB7C456D1090FB6F894DEBF0FBEA9
:103F5000CDBF8091BB06811104C08091BA06882331
:103F600049F08091A305811105C08091A2058823A5
:103F700009F4D4C10E94EB1100919E0510919F0598
:103F80002091A0053091A105601B710B820B930B52
:103F9000683C71058105910508F4C0C10E94791241
:103FA0006AE070E080E090E00E94B91182E398E05E
:103FB0000E949514882309F4A7C182E398E00E9427
:103FC000F711882309F4A0C164ED72E0CE01815A93
:103FD0009F4F0E94421E10E080913408181740F550
:103FE000E12FF0E0EE5CF74F83811DA21CA21FA21F
:103FF0001EA219A618A640E1BE016F5F7F4F90E098
:104000000E940E52BE016F5F7F4FCE0184960E94C8
:10401000BC1D48A559A56CA17DA1CE01815A9F4F19
:104020000E94321DCE0184960E94F2181F5FD4CFE9
:10403000CE01815A9F4F0E94DF1C0E94EB116093BA
:10404000C5067093C6068093C7069093C8068091F4
:10405000A305882309F471C28091A205882309F47D
:104060006CC2BE01615A7F4FCE01875A9F4F0E949A
:10407000281E6F968EAD9FAD6F971DA21CA21FA22A
:104080001EA219A618A64AE0BE016F5F7F4F0E94CC
:104090000E52BE016F5F7F4FCE0184960E94BC1D01
:1040A00066EF72E0CE0101960E94421EBE01675A81
:1040B0007F4FCE0101960E94741D6CE073E00E9458
:1040C0005E1DBE016C5D7F4F0E94741DBC018BE6BE
:1040D00097E00E947F1BCE0101960E94F218CE014C
:1040E00084960E94F21866E173E0CE0101960E9468
:1040F000421EBE01675A7F4FCE0101960E94741D79
:10410000BC018EEC96E00E947F1BCE0101960E94BE
:10411000F2180E94B41860E080E00E94821861E00A
:1041200078E181EB98E00E94310F6F968EAD9FADE4
:104130006F97892B71F561EF77E18EEC96E00E9425
:10414000981B60E080E00E94821867EE77E181EBC7
:1041500098E00E94310F60ED77E080E090E00E94EF
:10416000B9111092A30581E080939D0566EC77E17B
:104170008EEC96E00E94981B0E94B41860E080E0EC
:104180000E94821867EB77E181EB98E00E94310F83
:1041900084C06B966EAD7FAD6B974EE050E0CE0164
:1041A00084960E94115B1AAACE0184960E9420195F
:1041B000019651F16DE977E18EEC96E00E94981B33
:1041C00060E080E00E94821861E977E181EB98E08D
:1041D0000E94310F60ED77E080E090E00E94B9111D
:1041E0001092A30581E080939D0560E777E18EEC56
:1041F00096E00E94981B0E94B41860E080E00E9444
:10420000821861E677E1C0CF0E9462198C010F3FEE
:10421000100709F097C062E370E0CE0101960E949A
:10422000C61D61E373E0CE01895B9F4F0E94421E71
:10423000BE016F5F7F4FCE01895B9F4F0E94741D4F
:104240006AE473E00E945E1DBC018EEC96E00E9461
:104250007F1BCE01895B9F4F0E94F218CE01019611
:104260000E94F2181092A2051092A30510929D05CB
:1042700064ED72E080E298E00E94BC1D1092990506
:1042800010929A0510929B0510929C058091BB0696
:10429000882309F454C00E94BE1BCE01875A9F4F49
:1042A0000E94F21880E528968FAF289729961FAEB6
:1042B000299727E430E02C0F3D1F2E5F3F4F42E04F
:1042C000BE01695B7F4F82E398E00E940C1381116D
:1042D00010C0A12CC12CF12CE12C10E000E030E04A
:1042E00020E044E0BE01695B7F4F82E398E00E94DA
:1042F000631348E060E182E398E00E948114CE01FC
:10430000815A9F4F0E94F2180E94EB1160939E0504
:1043100070939F058093A0059093A105CC59DF4F22
:104320000FB6F894DEBF0FBECDBFDF91CF911F91C6
:104330000F91FF90EF90DF90CF90AF9008950E9483
:10434000AC1BABCF60912008709121084FE050E08A
:10435000CE01C3960E94115B23961FAE23978091D6
:10436000990590919A05A0919B05B0919C0527967F
:104370008CAF9DAFAEAFBFAF279783E2FE01B4967F
:10438000DE01119601900D928A95E1F723E2209FBC
:10439000C001219F900D1124BE016F5F7F4F8C5B88
:1043A0009F4F0E94631F2796CCACDDACEEACFFACF8
:1043B000279765E177E18BE697E00E94310FBE0118
:1043C0006C5D7F4F8BE697E00E942A1C6AE38BE6C8
:1043D00097E00E942A0FBE016D5C7F4F8BE697E04D
:1043E0000E942A1C6AE38BE697E00E942A0F22E0D3
:1043F00030E0B701A6018BE697E00E94551B61E013
:1044000088E00E94221168EC70E080E090E00E9459
:10441000B91160E088E00E94221127964CAD5DAD95
:104420006EAD7FAD2797CE01895B9F4F0E94F21D35
:10443000BE016D5C7F4FCE01835B9F4F0E94421E89
:1044400062E573E0CE018D5A9F4F0E94421EBE016D
:10445000635B7F4FCE018D5A9F4F0E94741D6CE6A7
:1044600073E00E945E1DBE01695B7F4F0E94741D58
:10447000BC018EEC96E00E947F1BCE018D5A9F4FAF
:104480000E94F218CE01835B9F4F0E94F218CE016A
:10449000895B9F4F0E94F2180E94B41860E080E090
:1044A0000E94821864E577E181EB98E00E94310F69
:1044B000BE016D5C7F4F81EB98E00E942A1C61E099
:1044C00080E00E9482186EE477E181EB98E00E9420
:1044D000310F27964CAD5DAD6EAD7FAD279722E0D5
:1044E00030E081EB98E00E94691B60ED77E080E0AE
:1044F00090E00E94B9111092A30581E080939D0580
:1045000064ED72E080E298E00E94BC1D1092990573
:1045100010929A0510929B0510929C056DE277E12E
:104520008EEC96E00E94981B0E94B41860E080E038
:104530000E9482186EE177E127CEA1966EAD7FAD25
:10454000A1974EE050E089E796E00E94115B10923F
:10455000870689E796E00E9420199093470280938E
:1045600046028F3F980709F47EC013E2189F90011E
:10457000199F300D1124BE016C5D7F4FC9018C5B0A
:104580009F4F0E94FA18FE01B496A9E7B6E0019089
:104590000D921A95E1F761E088E00E9422116AEF1E
:1045A00070E080E090E00E94B91160E088E00E9435
:1045B00022110E94B41860E080E00E94821860E638
:1045C00078E181EB98E00E94310F68E876E081EBBA
:1045D00098E00E942A1C61E080E00E94821864E555
:1045E00078E181EB98E00E94310F4091980650915C
:1045F000990660919A0670919B0622E030E081EB6B
:1046000098E00E94691B63E080E00E9482186FE3DB
:1046100078E181EB98E00E94310F81E08093B80649
:104620008093A1061092A00664ED72E08AE198E002
:104630000E94BC1D0E94EB116093A2067093A3061A
:104640008093A4069093A50661E088E00E94221161
:104650006AEF70E080E090E00E94B91160E088E0CD
:104660000E9422111FCE0E94B41860E080E00E94D8
:1046700082186EE278E181EB98E00E94310F61E0F0
:1046800080E00E9482186BE178E181EB98E00E9463
:10469000310F62E080E00E9482186DE078E181EBEA
:1046A00098E00E94310F63E080E00E94821860E28F
:1046B00072E081EB98E00E942A1C61E088E00E9491
:1046C000221164EF71E080E090E00E94B91160E097
:1046D00088E00E94221160ED77E080E090E00E9487
:1046E000B9110E94B418DECDAF92BF92CF92DF9283
:1046F000EF92FF920F931F93CF93DF931F921F921E
:10470000CDB7DEB78B016B0120E1C20ED11C7B015E
:104710005C01A61AB70AC5018E0D9F1D9A83898375
:10472000F70161917F01CE0101960E944A1FEC14AE
:10473000FD0489F7C8010F900F90DF91CF911F9171
:104740000F91FF90EF90DF90CF90BF90AF900895C2
:10475000CF93DF93CDB7DEB760970FB6F894DEBF87
:104760000FBECDBF60E072E080E390E00E94742352
:10477000BE016F5F7F4F80E390E00E94961960E07A
:1047800072E0CE0101960E94F35A892B61F067E72F
:1047900073E08BE697E00E946B1B60E072E080E3C1
:1047A00090E00E94742360960FB6F894DEBF0FBEAF
:1047B000CDBFDF91CF910895CF93DF93CDB7DEB713
:1047C00060970FB6F894DEBF0FBECDBF60E172E018
:1047D0008CE190E00E947423BE016F5F7F4F8CE1FB
:1047E00090E00E94961960E172E0CE0101960E946D
:1047F000F35A892B61F069EA73E08BE697E00E9437
:104800006B1B60E172E08CE190E00E947423609683
:104810000FB6F894DEBF0FBECDBFDF91CF910895E4
:10482000AF92BF92CF92DF92EF92FF920F931F93BE
:10483000CF93DF931F921F92CDB7DEB78B016B0131
:1048400024E0C20ED11C7B015C01A61AB70AC50187
:104850008E0D9F1D9A838983F70161917F01CE019F
:1048600001960E944A1FEC14FD0489F7C8010F90BD
:104870000F90DF91CF911F910F91FF90EF90DF90FC
:10488000CF90BF90AF900895CF93DF9300D01F9249
:10489000CDB7DEB768E472E08CE290E00E941024AD
:1048A000BE016F5F7F4F8CE290E00E94BC192091A7
:1048B00048023091490240914A0250914B0269816D
:1048C0007A818B819C810E945F579F772AE037ED28
:1048D00043E25CE30E946D58181664F46FE873E0DD
:1048E0008BE697E00E94981B68E472E08CE290E00F
:1048F0000E9410240F900F900F900F90DF91CF9196
:104900000895CF93DF9300D01F92CDB7DEB762E456
:1049100072E084E090E00E941024BE016F5F7F4F40
:1049200084E090E00E94BC19209142023091430241
:10493000409144025091450269817A818B819C812A
:104940000E945F579F772AE037ED43E25CE30E94C5
:104950006D58181664F464E573E08BE697E00E94E6
:10496000981B62E472E084E090E00E9410240F90B3
:104970000F900F900F90DF91CF910895CF93DF9319
:1049800000D01F92CDB7DEB76FE676E090E080E012
:104990000E941024BE016F5F7F4F90E080E00E9474
:1049A000BC1920916F0630917006409171065091AC
:1049B000720669817A818B819C810E945F579F7703
:1049C0002AE037ED43E25CE30E946D58181664F468
:1049D0006FE073E08BE697E00E94981B6FE676E04D
:1049E00090E080E00E9410240F900F900F900F90A5
:1049F000DF91CF9108950E94BE240E9481240E94DD
:104A000044240E94281F0E94DC230C94A8231F9397
:104A1000CF93DF931091BB06111105C02091BA0608
:104A2000222309F46BC1EC016DED73E00E94F51CCB
:104A3000811107C063EE73E0CE010E94F51C88234C
:104A400079F1112309F45AC181E08093980561E05E
:104A500088E00E94221168EC70E080E090E00E9403
:104A6000B91160E088E00E94221162E278E08EECE9
:104A700096E00E94310F66EF77E08EEC96E00E94A0
:104A8000981B6EED77E08EEC96E00E94981B6CED23
:104A900077E08EEC96E0DF91CF911F910C94310F6F
:104AA00069EE73E0CE010E94F51C811139C063EFFD
:104AB00073E0CE010E94F51C811132C06DEF73E0EE
:104AC000CE010E94F51C811154C065E074E0CE0156
:104AD0000E94F51C882309F46FC0112309F40EC14C
:104AE00081E08093950561E088E00E94221168ECE6
:104AF00070E080E090E00E94B91160E088E00E94E0
:104B0000221169E477E08EEC96E00E94310F6DEFA0
:104B100076E08EEC96E00E94981B6BEF76E0B9CFC2
:104B2000112309F4EBC081E08093970561E088E0F0
:104B30000E94221168EC70E080E090E00E94B911C0
:104B400060E088E00E9422116AED77E08EEC96E04A
:104B50000E94310F6BEA77E08EEC96E00E94981B82
:104B600063E977E08EEC96E00E94981B61E977E0BC
:104B700090CF112309F4C2C081E08093960561E0D3
:104B800088E00E94221168EC70E080E090E00E94D2
:104B9000B91160E088E00E9422116FE877E08EECA6
:104BA00096E00E94310F6DE477E08EEC96E00E9473
:104BB000981B6BE477E06DCF6EE074E0CE010E944D
:104BC000F51C8823E9F1112309F498C081E0809352
:104BD000940561E088E00E94221168EC70E080E0BA
:104BE00090E00E94B91160E088E00E94221169EF14
:104BF00076E08EEC96E00E94310F67EE76E08EEC68
:104C000096E00E94310F40916F06509170066091BE
:104C100071067091720622E030E08EEC96E00E9400
:104C2000551B65EE76E08EEC96E00E94310F60ED4C
:104C300076E08EEC96E00E94981B6EEC76E029CF31
:104C400066E174E0CE010E94F51C882309F45AC085
:104C5000112309F453C010926F061092700610923F
:104C60007106109272060E94BE2461E088E00E94E4
:104C7000221168EC70E080E090E00E94B91160E0E1
:104C800088E00E9422116CEC76E08EEC96E00E94A7
:104C9000310F6FEB76E08EEC96E00E94981B6DEB87
:104CA00076E08EEC96E00E94310F67EA76E08EECBB
:104CB00096E00E94310F40916F065091700660910E
:104CC00071067091720622E030E08EEC96E00E9450
:104CD000551B65EA76E08EEC96E00E94310F60E9A4
:104CE00076E08EEC96E00E94981B6EE876E08EEC03
:104CF00096E00E94310F81E080939305DF91CF9180
:104D00001F9108956CE174E0CE010E94F51C8111A1
:104D100023C065E274E0CE010E94F51C81111CC025
:104D20006EE274E0CE010E94F51C81113DC067E582
:104D300074E0CE010E94F51C882309F44FC06EE296
:104D400076E08EEC96E00E94310F6BE076E08EEC20
:104D500096E00E94981B34C0112381F281E0809379
:104D6000920561E088E00E94221168EC70E080E02A
:104D700090E00E94B91160E088E00E9422116CE886
:104D800076E08EEC96E00E94310F6CE476E08EECDB
:104D900096E00E94981B64E376E08EEC96E00E9419
:104DA000981B62E376E075CE60E376E08EEC96E0E9
:104DB0000E94310F66E374E08EEC96E00E946B1B5C
:104DC0008091BB06882329F0DF91CF911F910C942D
:104DD000BE1BDF91CF911F910C94AC1B62E674E077
:104DE000CE010E94F51C8823C1F069E076E08EECCC
:104DF00096E00E94310F6FEE75E08EEC96E00E9417
:104E0000981B8091BB06882329F00E94BE1B6DEE83
:104E100075E03FCE0E94AC1BFACF6DE674E0CE0188
:104E20000E94F51C882371F0112309F467CF6BEC05
:104E300075E08EEC96E00E94981B0E94BE1B69EC08
:104E400075E027CE6CE774E0CE010E94F51C882344
:104E500041F0112309F452CF0E940F4067EC75E036
:104E600018CE65E874E0CE010E94F51C811108C0DF
:104E70006AE874E0CE010E94F51C882309F43ECF55
:104E80000E94FB2461E088E00E94221168EC70E03F
:104E900080E090E00E94B91160E088E00E94221159
:104EA0001092BB061092BA061092B906109298059D
:104EB0001092970510929605109295051092940500
:104EC00010929305109292051092A2051092A305DC
:104ED00010929D050E94471865EC75E08EEC96E0F7
:104EE0000E94310F65EB75E08EEC96E00E94981BF6
:104EF0006EE975E08EEC96E00E94981B66E775E01F
:104F00008EEC96E00E94981B6FE575E08EEC96E0C3
:104F10000E94981B6DE575E0BCCD68E372E080E40B
:104F200090E00E94102466EF72E08BE697E00E940A
:104F3000310F409138025091390260913A027091DC
:104F40003B0223E030E08BE697E00C94551B4F9238
:104F50005F926F927F928F929F92AF92BF92CF9209
:104F6000DF92EF92FF920F931F93CF93DF93CDB712
:104F7000DEB7CC59D1090FB6F894DEBF0FBECDBF56
:104F80008C016FE874E0CE0101960E94421EBE01C2
:104F90006F5F7F4FC8010E94C518F82ECE010196A1
:104FA0000E94F218FF2009F458C149E050E0B8010E
:104FB000CE018B579F4F0E94E41EBE016B577F4F5F
:104FC000CE0101960E94281E50E040E0BE016F5FB6
:104FD0007F4FCE0185579F4F0E949F1ECE010196A5
:104FE0000E94F218BE016B577F4FCE0184960E943B
:104FF000281E41E050E0BE016C5D7F4FCE0101965E
:105000000E949F1ECE0101960E94771C6B017C01BD
:10501000CE0101960E94F218CE0184960E94F218E9
:10502000BE016B577F4FCE0101960E94281E42E0C1
:1050300050E0BE016F5F7F4FCE018F569F4F0E94A1
:105040009F1ECE0101960E94F218BE016B577F4F42
:10505000CE0101960E94281E43E050E0BE016F5F22
:105060007F4FCE0189569F4F0E949F1ECE01019611
:105070000E94F218CB56DF4F88819981C559D040E4
:10508000892B09F47EC0CF56DF4FE881F981C159E1
:10509000D040309721F41092CD06EDECF6E0A080E0
:1050A000BE0169567F4FCE0187589F4F0E94281E30
:1050B000BE0165577F4FCE0181589F4F0E94281E29
:1050C000CE0181589F4F0E94DF1CC158DF4F68817D
:1050D0007981CF57D0404EE050E0CE0186599F4FA6
:1050E0000E94115BE9961FAEE997CE0186599F4F4A
:1050F0000E9420198C01019609F098C00E94621943
:105100008C010F3F100709F03FC065E978E18BE69D
:1051100097E00E94981BCE0181589F4F0E94F21881
:10512000CE0187589F4F0E94F218CE0189569F4F9B
:105130000E94F218CE018F569F4F0E94F218CE01A6
:1051400085579F4F0E94F218CE018B579F4F0E94A8
:10515000F218C456DF4F0FB6F894DEBF0FBECDBFB6
:10516000DF91CF911F910F91FF90EF90DF90CF9043
:10517000BF90AF909F908F907F906F905F904F9077
:10518000089591E4A92E8CCF4EE050E0BE016659FF
:105190007F4FCE0101960E94115B1F86EB966EAD8C
:1051A0007FADEB974FE050E0CE0140960E94115B3F
:1051B0001F8E22E4A21203C0C12CD12C7601C8A2FA
:1051C000D9A2EAA2FBA283E2FE013196DE01A95B2D
:1051D000BF4F01900D928A95E1F723E2209FC00115
:1051E000219F900D1124BE01695B7F4F8C5B9F4F07
:1051F0000E94631F63E878E18BE697E00E94310F1D
:10520000BE0166597F4F8BE697E00E942A1C69E732
:1052100078E18BE697E00E94310F22E030E0B701A1
:10522000A6018BE697E00E94551B75CF83E2B82E4E
:10523000B09EC001B19E900D1124BE016C5D7F4FE8
:105240008C5B9F4F0E94FA18FE01B496DE01119606
:1052500001900D92BA94E1F7A1CF69E974E0CE0113
:1052600001960E94421EBE016F5F7F4FC8010E94DF
:10527000C518F82ECE0101960E94F218FF2009F4FD
:1052800051C048E050E0B801CE0186599F4F0E94BE
:10529000E41EBE0166597F4FCE01895B9F4F0E947D
:1052A000281ECE01895B9F4F0E94DF1C29966EADA0
:1052B0007FAD29974EE050E0CE0184960E94115BAD
:1052C0001AAACE0184960E9420198F3F980709F1EF
:1052D0001982188A18A219A21AA21BA243E2489F97
:1052E0009001499F300D1124BE016F5F7F4FC901AE
:1052F0008C5B9F4F0E94631F67E678E18BE697E027
:105300000E94310FBE016C5D7F4F8BE697E00E94DB
:105310006B1BCE01895B9F4F0E94F218CE0186590C
:105320009F4F15CF62EA74E0CE0101960E94421EA3
:10533000BE016F5F7F4FC8010E94C518F82ECE01D5
:1053400001960E94F218FF2009F403CF49E050E0D3
:10535000B801CE01895B9F4F0E94E41EBE01695BCC
:105360007F4FCE0184960E94281E50E040E0BE018F
:105370006C5D7F4FCE0101960E949F1ECE0101966B
:105380000E94771C2B013C01CE0101960E94F2186D
:10539000CE0184960E94F218BE01695B7F4FCE0158
:1053A00084960E94281E41E050E0BE016C5D7F4F54
:1053B000CE0101960E949F1ECE0101960E94771C8D
:1053C0004B015C01CE0101960E94F218CE01849639
:1053D0000E94F218BE01695B7F4FCE0184960E9445
:1053E000281E42E050E0BE016C5D7F4FCE01019669
:1053F0000E949F1ECE0101960E94771C6B017C01CA
:10540000CE0101960E94F218CE0184960E94F218F5
:105410002AE037ED43E25CE3C301B2010E946D581C
:1054200087FD3DC020E030E44CE156E4C301B20109
:105430000E94085618169CF12091480230914902AA
:1054400040914A0250914B02C301B2010E945F5742
:105450009F772FE632E143E85AE30E946D58181611
:10546000F4F4409248025092490260924A027092CB
:105470004B020E94442461E279E18BE697E00E94AE
:10548000310F409148025091490260914A02709157
:105490004B0222E030E08BE697E00E94551B2DEC9A
:1054A0003CEC4CEC5DE3C501B4010E946D5887FDF6
:1054B0003DC020E030E040E251E4C501B4010E946B
:1054C000085618169CF120914202309143024091F7
:1054D000440250914502C501B4010E945F579F7775
:1054E0002FE632E143E85AE30E946D581816F4F4AF
:1054F0008092420290924302A0924402B0924502EE
:105500000E94812466EF78E18BE697E00E94310FDC
:1055100040914202509143026091440270914502D1
:1055200022E030E08BE697E00E94551B20E030E05F
:10553000A901C701B6010E946D5887FD3DC020E05A
:1055400030E040E251E4C701B6010E940856181647
:105550009CF1209138023091390240913A025091E9
:105560003B02C701B6010E945F579F772FE632E1E9
:1055700043E85AE30E946D581816F4F4C0923802BA
:10558000D0923902E0923A02F0923B020E948D27BB
:105590006DEC78E18BE697E00E94310F4091380284
:1055A0005091390260913A0270913B0223E030E061
:1055B0008BE697E00E94551BCE01895B9F4FC7CDBC
:1055C0008F929F92AF92BF92CF92DF92EF92FF9213
:1055D0000F931F93CF93DF93CDB7DEB7C05BD10995
:1055E0000FB6F894DEBF0FBECDBF8EEC96E00E94E2
:1055F000B30F892B51F00E94EB116093C506709395
:10560000C6068093C7069093C8068091BB06811199
:1056100005C08091BA06882309F4ADC08091C40604
:105620008111A9C00E94EB110091C5061091C60618
:105630002091C7063091C806601B710B820B930B3B
:10564000603C744D8140910508F495C00E94FB2494
:1056500061E088E00E94221168EC70E080E090E058
:105660000E94B91160E088E00E9422111092BB06EE
:105670001092BA061092B9061092980510929705EA
:10568000109296051092950510929405109293052C
:10569000109292051092A2051092A30510929D05FA
:1056A0000E9447180E94B41860E080E00E948218AF
:1056B00063E077E181EB98E00E94310F61E080E0E8
:1056C0000E94821861EF76E181EB98E00E94310F31
:1056D00061EC76E18EEC96E00E94981B6AEA76E136
:1056E0008EEC96E00E94981B62E876E18EEC96E0E4
:1056F0000E94981B6BE676E18EEC96E00E94981B68
:1057000069E676E18EEC96E00E94310F64ED72E07E
:1057100086E298E00E94BC1D1092910510929005BF
:105720008EEC96E00E94B30F892B09F4FEC08EEC3C
:1057300096E00E94910F182F61E378E08BE697E0E6
:105740000E94310F612F8BE697E00E942A0F66E2DC
:1057500078E08BE697E00E94310F612F110F770BF5
:10576000880B990B0E943D1A64E278E08BE697E083
:105770000E94981BD5CF0E94971F84E00E94F610CC
:10578000892B09F048C180918F058111ECC00E94DE
:10579000EB1160938B0570938C0580938D0590932E
:1057A0008E050E94EB116093C5067093C606809328
:1057B000C7069093C80681E080938F050E94EB1185
:1057C00000918705109188052091890530918A05FF
:1057D000601B710B820B930B6A307105810591057B
:1057E00008F4ADC08EEC96E00E94B30F892B09F44B
:1057F000A6C00E94EB116093870570938805809383
:10580000890590938A058EEC96E00E94910F682F8F
:105810001091BB0611118EC10091BA0601117AC216
:1058200080912A0890912B086A3021F06D3011F098
:105830000C94893A892B09F482C060E172E086E217
:1058400098E00E94F51C81112CC064EC74E0CE013C
:1058500084960E94421EBE016C5D7F4F86E298E0F6
:105860000E94C5188823B1F049E050E066E278E074
:10587000CE0101960E94E41E60E172E0CE01019625
:105880000E94F51C01E0811101C000E0CE010196EB
:105890000E94F218CE0184960E94F218002309F4A7
:1058A000BDC081E08093BB068093B90661E088E0CB
:1058B0000E94221168EC70E080E090E00E94B91133
:1058C00060E088E00E94221160E089E00E942211DD
:1058D00060E08AE00E9422110E94B4181092BC0875
:1058E00060E081EB98E00E94601767E676E18EEC5D
:1058F00096E00E94310F6BE376E18EEC96E00E9419
:10590000981B69E376E18EEC96E00E94310F6EE21F
:1059100076E18EEC96E00E94981B6CE276E18EECCC
:1059200096E00E94310F0E94BE1B64ED72E086E299
:1059300098E00E94BC1D1092910510929005C055F0
:10594000DF4F0FB6F894DEBF0FBECDBFDF91CF9112
:105950001F910F91FF90EF90DF90CF90BF90AF908D
:105960009F908F9008950E94EB1100918B051091EC
:105970008C0520918D0530918E05601B710B820B7B
:10598000930B683873418105910508F417CF6CEAD1
:1059900074E080E192E00E94FC5A61EB74E080E2E6
:1059A00092E00E94FC5A0E94DC230E94281F60E8BB
:1059B00078E08EEC96E00E94981B6FEB74E080E03C
:1059C00092E00E94FC5A0E94A82361E088E00E94B5
:1059D000221168EC70E080E090E00E94B91160E074
:1059E00088E00E9422116EE778E08EEC96E00E943B
:1059F000310F63E678E08EEC96E00E94981B65E438
:105A000078E08EEC96E00E94981B63E478E08EECE0
:105A100096E00E94310F10928F05D0CE60E072E0C8
:105A200086E298E00E94F51C81112CC064EC74E0C1
:105A3000CE0184960E94421EBE016C5D7F4F86E2BD
:105A400098E00E94C5188823B1F049E050E066E272
:105A500078E0CE0101960E94E41E60E072E0CE0183
:105A600001960E94F51C01E0811101C000E0CE0109
:105A700001960E94F218CE0184960E94F21800232B
:105A800009F445C081E08093BA068093B90660E0CE
:105A900089E00E94221161E088E00E94221168ECF6
:105AA00070E080E090E00E94B91160E088E00E9420
:105AB000221160E08AE00E9422110E94B418109224
:105AC000BC0860E081EB98E00E9460176AE276E132
:105AD0008EEC96E00E94310F6EEF75E18EEC96E051
