:100000000C9476010C94A7010C94A7010C94A70101
:100010000C94A7010C94A7010C94A7010C94A701C0
:100020000C94A7010C94A7010C94A7010C94A701B0
:100030000C94A7010C94A7010C94A7010C94A701A0
:100040000C94A7010C94A7010C94A7010C94A70190
:100050000C94A7010C94A7010C94A7010C941F10F9
:100060000C94A7010C94F50F0C94CB0F0C94A701E2
:100070000C94A7010C94A7010C94A7010C94A70160
:100080000C94A7010C94A7010C94A7010C94A70150
:100090000C94A10F0C94770F0C94A7010C94691089
:1000A0000C94A7010C94A7010C94A7010C94A70130
:1000B0000C94A7010C94A7010C94A7010C94A70120
:1000C0000C94A7010C94A7010C94A7010C944D0F5C
:1000D0000C94230F0C94A7010C94A7010C94A70176
:1000E0000C94A7010C9405030C94B71B0C94760395
:1000F0000C94A3050C9495030C945F1E0C944F0470
:100100000C947A050C94F3010C9499030C94120549
:100110000C94E1210C94B2160C94AC030C947A0369
:100120000C9491030C944A020C94791A0C94E606F0
:100130000C94DE030C94D3160C946C020C94D11C1A
:100140000C949F030C946C030C94B3200C94A703A1
:100150000C9481030C94B1030C94AD030C941F1800
:100160000C949E210C945E020C947E030C943B0232
:100170000C949C050C94A3030C948D170C948D1176
:100180000C94F5010C94D0050C9472030C94A217F6
:100190000C94B8020C9487030C9461070C948905A5
:1001A0000C94F7210C940F040C9452190C94A32274
:1001B0000C94F1170C9479050C94F4010C942E19FD
:1001C0000C948B030C94C221000021002400270012
:1001D0002A002D0030003300010100000401070156
:1001E0000A0100002200250028002B002E0031000B
:1001F000340002010000050108010B01000020008D
:100200002300260029002C002F00320000010000EE
:100210000301060109010505050507050808080889
:10022000020202020A0A080804040404010101018E
:100230000101010103030303030303030407070789
:100240000C0C0C0C0C0C0C0C02020202060606062E
:10025000060606060B0B0B0B0B0B0B0B01021020FB
:1002600020080810204010204080020102010804EC
:100270000201010204081020408080402010080480
:1002800002018004020180402010080402010804D9
:10029000020101020408102040800102040810201D
:1002A000408000000A0B02090C0D0E080703040130
:1002B000000000000000000000000000000000003E
:1002C000000000000000000000000000000012110B
:1002D000100000000000000000000000000000000E
:1002E00000000000000000008D11A32211241FBE99
:1002F000CFEFD1E2DEBFCDBF00E00CBF13E1A0E045
:10030000B2E0E6E8F2E500E00BBF02C007900D9214
:10031000AC35B107D9F726E1ACE5B3E101C01D92D8
:10032000AE3BB207E1F711E0C5E7D1E000E006C05F
:1003300021970109802FFE010E94FC23C437D107B9
:1003400080E00807A9F70E94CB120C9431290C9485
:100350000000FC01A089B18982E08C93A485B58559
:100360001C92A685B7858FEC8C93108EA489B589D5
:1003700086E08C93A289B3898C9180618C93A28949
:10038000B3898C9188608C93A289B3898C918068A1
:100390008C930288F389E02D80818F7D808308957E
:1003A00096E0899FD0011124A15CB94E90967C9370
:1003B0006E935F9791E091969C939197E091AC1624
:1003C000F091AD169091AB16992339F0309751F01A
:1003D000811108C080915B161994309719F05C96D2
:1003E0008C91FACF089508950895AF92BF92CF925D
:1003F000DF92EF92FF920F931F93CF93DF936C01E5
:100400007B018B01040F151FEB015E01AE18BF08C5
:10041000C017D10759F06991D601ED91FC91019077
:10042000F081E02DC6011995892B79F7C501DF917F
:10043000CF911F910F91FF90EF90DF90CF90BF90E1
:10044000AF900895FC01A089B1898C91A689B789E4
:1004500082FD0FC09C91818D8F5F8F73228D8217DB
:1004600049F0A18DAE0FBF2FB11D5D969C93818F7A
:1004700008958C910895FC01538D448D252F30E013
:10048000842F90E0821B930B541710F0CF960895A1
:1004900001970895FC01918D828D981761F0A28DCE
:1004A000AE0FBF2FB11D5D968C91928D9F5F9F7394
:1004B000928F90E008958FEF9FEF0895FC01918D4A
:1004C000828D981731F0828DE80FF11D858D90E0B7
:1004D00008958FEF9FEF0895FC01918D228D892F54
:1004E00090E0805C9F4F821B91098F73992708953C
:1004F0008AE494E10E946C0221E0892B09F420E057
:10050000822F089587EE94E10E946C0221E0892BEE
:1005100009F420E0822F089584E895E10E946C029E
:1005200021E0892B09F420E0822F0895FC01A48D9D
:10053000A80FB92FB11DA35ABF4F2C91848D90E005
:1005400001968F739927848FA689B7892C93A089E8
:10055000B1898C91837080648C93938D848D981372
:1005600006C00288F389E02D80818F7D8083089505
:10057000EF92FF920F931F93CF93DF93EC0181E0F3
:10058000888F9B8D8C8D98131AC0E889F98980819A
:1005900085FF15C09FB7F894EE89FF896083E889CD
:1005A000F98980818370806480839FBF81E090E0BF
:1005B000DF91CF911F910F91FF90EF900895F62E4C
:1005C0000B8D10E00F5F1F4F0F731127E02E8C8DE6
:1005D0008E110CC00FB607FCFACFE889F98980812B
:1005E00085FFF5CFCE010E949602F1CFEB8DEC0F87
:1005F000FD2FF11DE35AFF4FF0829FB7F8940B8F48
:10060000EA89FB8980818062CFCFCF93DF93EC01B1
:10061000888D8823B9F0AA89BB89E889F9898C91EA
:1006200085FD03C0808186FD0DC00FB607FCF7CFA6
:100630008C9185FFF2CF808185FFEDCFCE010E94A6
:100640009602E9CFDF91CF91089580E090E0892B69
:1006500029F00E948C0281110E94000080E090E04D
:10066000892B29F00E94820281110E94000080E003
:1006700090E0892B29F00E94780281110E940000ED
:1006800080E090E0892B49F080E090E0892B29F010
:100690000E94000081110C94000008958150823165
:1006A00008F05AC0E82FF0E08827E65AFC4F8F4F39
:1006B0000C94FC237A037E036C0372037603AC0371
:1006C000810387038B039103950399039F03A3037E
:1006D000AC03A703AD03B103809180008F778093B3
:1006E00080000895809180008F7DF9CF80918000F7
:1006F000877FF5CF84B58F7784BD089584B58F7DCE
:10070000FBCF8091B0008F778093B00008958091E7
:10071000B0008F7DF9CF809190008F77809390000B
:100720000895809190008F7DF9CF80919000877F10
:10073000F5CF8091A0008F778093A00008958091DD
:10074000A0008F7DF9CF8091A000877FF5CF8091A9
:1007500020018F77809320010895809120018F7D63
:10076000F9CF80912001877FF5CFCF93DF93282F9A
:1007700030E0F901EE55FD4F8491F901E45AFD4F47
:10078000D491F901EA5EFD4FC491CC23A1F081110F
:100790000E944E03EC2FF0E0EE0FFF1FE450FE4FDF
:1007A000A591B491EC91ED2381E090E009F480E013
:1007B000DF91CF91089580E090E0FACF862F0C94DE
:1007C000B5031F93CF93DF93282F30E0F901EE5547
:1007D000FD4F8491F901E45AFD4FD491F901EA5E8D
:1007E000FD4FC491CC23A9F0162F81110E944E0316
:1007F000EC2FF0E0EE0FFF1FEE51FE4FA591B491EC
:100800008FB7F894EC91111108C0D095DE23DC93DA
:100810008FBFDF91CF911F910895DE2BF8CF862FE8
:10082000642F0C94E103CF93DF9390E0FC01E45A32
:10083000FD4F24918A5E9D4FFC0184918823C9F06D
:1008400090E0880F991FFC01E853FE4FA591B491E9
:10085000FC01EE51FE4FC591D49161110DC09FB7BF
:10086000F8948C91209582238C9388812823288367
:100870009FBFDF91CF910895623051F49FB7F894F4
:100880003C91822F809583238C93E8812E2BEFCF90
:100890008FB7F894EC912E2B2C938FBFEACF862F35
:1008A000642F0C9413043FB7F89480911314909123
:1008B0001414A0911514B091161426B5A89B05C068
:1008C0002F3F19F00196A11DB11D3FBFBA2FA92FCF
:1008D000982F8827BC01CD01620F711D811D911DCC
:1008E00042E0660F771F881F991F4A95D1F7089538
:1008F0008F929F92AF92BF92CF92DF92EF92FF9230
:100900004B015C010E9453046B017C010E94530463
:100910006C197D098E099F09683E73408105910518
:10092000A8F321E0821A9108A108B10888EEC80E48
:1009300083E0D81EE11CF11C81149104A104B104D0
:1009400029F7FF90EF90DF90CF90BF90AF909F90EE
:100950008F9008952FB7F89460910F147091101430
:1009600080911114909112142FBF08950F931F932B
:10097000CF93DF93C82FD62F86E0C89FF0011124B4
:10098000E15CF94E11A2878D90A181309105F1F0C3
:1009900058F082309105F1F1039709F440C0DF91DE
:1009A000CF911F910F9108956623C9F361E070E024
:1009B0008C2F0E94D0010E94AA0460939716709316
:1009C00098168093991690939A16E9CF0E94AA04DC
:1009D00000919716109198162091991630919A16B9
:1009E000AB01BC01401B510B620B730B8091A9162C
:1009F0009091AA16B0E0A0E084179507A607B70764
:100A000048F462E070E08C2FDF91CF911F910F913D
:100A10000C94D00163E070E0D111C1CFF4CF70E04D
:100A200060E0F1CF089520919D13260F3327331FE7
:100A300021323105ECF42091E613FC0190E080E0D6
:100A4000243069F082E00895A0919D132191AC01BA
:100A500043585C4EA40FB52FB11D2C9301968617F9
:100A600098F380919D13680F60939D1380E0089523
:100A700081E008951092E61381E08093E5131092CF
:100A8000C01361E084E10E94E10361E085E10E941E
:100A9000E103E9EBF0E080818E7F808380818D7FB0
:100AA000808388E48093B80085E48093BC00089537
:100AB000CF93DF9391E090937C138823B9F0C0919A
:100AC000B800D091BA008091BC008A7B8093BC00B2
:100AD00060E084E10E94E10360E085E10E94E103BF
:100AE0000E943A05D093BA00C093B800DF91CF912D
:100AF00008950895E0911E1480911D14E81730F4B4
:100B0000F0E0E45AFC4E808190E008958FEF9FEF73
:100B1000089590911E1480911D142FEF3FEF9817A8
:100B200048F4E92FF0E0E45AFC4E208130E09F5F6A
:100B300090931E14C901089580911D1490911E1464
:100B4000891B990B0895CF92DF92EF92FF920F933A
:100B50001F93CF93DF937C01CB018A012091EC138B
:100B6000222389F0EB016B01C40ED51ECC15DD05E7
:100B700069F06991D701ED91FC910190F081E02D30
:100B8000C7011995F3CF642F0E941305C801DF91A7
:100B9000CF911F910F91FF90EF90DF90CF9008952C
:100BA000CF93DF931F92CDB7DEB769832091EC130B
:100BB0002223F9F020911B14203258F021E030E07C
:100BC000FC013383228390E080E00F90DF91CF918E
:100BD000089580911C14E82FF0E0E351FC4E9981B8
:100BE00090838F5F80931C1480931B1481E090E0AE
:100BF000ECCF61E0CE0101960E941305F7CFCF92B2
:100C0000DF92EF92FF920F931F93CF93DF93FC013C
:100C1000C48121E02093EC13C0930D1410921C1496
:100C200010921B148385682B81E296E10E94D00507
:100C3000D0911B14D13208F092C00E9453046B0172
:100C40007C018091E613811165C082E08093E613F8
:100C500081E08093E5138FEF8093E4131092E31308
:100C6000D093E213ADEEB3E1E2ECF3E180E0D81310
:100C700085C01092C1138091C113CC0FC82BC093B3
:100C8000C1138091C013813009F07CC01092C01351
:100C90000E9453046B017C018091C1138093BB00BF
:100CA0008091E8139091E913A091EA13B091EB13AE
:100CB000892B8A2B8B2B99F00E9453040091E81307
:100CC0001091E9132091EA133091EB136C197D090F
:100CD0008E099F090617170728073907E0F1809149
:100CE000BC0083FDD9CF85EC8093BC000E945304E7
:100CF0006B017C018091E613823009F445C080913C
:100D0000E4138F3F61F18091E413803241F18091CF
:100D1000E41325C08091E8139091E913A091EA13A0
:100D2000B091EB13892B8A2B8B2B09F48ACF0E946D
:100D300053040091E8131091E9132091EA133091C4
:100D4000EB136C197D098E099F09061717072807F1
:100D5000390708F076CF8091E7130E94580510926A
:100D60001C1410921B141092EC13DF91CF911F9161
:100D70000F91FF90EF90DF90CF9008959D91919308
:100D80008F5F75CF85EEB0CF8091E8139091E91316
:100D9000A091EA13B091EB13892B8A2B8B2B09F4CA
:100DA000A9CF0E9453040091E8131091E9132091F8
:100DB000EA133091EB136C197D098E099F09061710
:100DC00017072807390708F095CFC5CF90E080E0D6
:100DD0000895CF93C62F682F8CE00E94E1036C2FFB
:100DE0008DE0CF910C94E1030F931F93CF938C016F
:100DF000C62F0E94FF056C2F6460C8010E94FF058A
:100E00006C2F6B7FC8010E94FF0583EC90E0019777
:100E1000F1F7CF911F910F9108950F931F93CF93E7
:100E2000DF938C01D62FC42F607F642B0E94F406C1
:100E300080E1D89FB00111246C2BC801DF91CF91C4
:100E40001F910F910C94F406CF93DF9300D000D044
:100E50001F921F92CDB7DEB798E0E9E2F6E0DE011F
:100E6000119601900D929A95E1F79091B61696170A
:100E700010F46FEF690F262F30E0220F331F41E08F
:100E800050E04C0F5D1F240F351FF9016081680F82
:100E9000606840E08EEA96E128960FB6F894DEBFCF
:100EA0000FBECDBFDF91CF910C940D0740E061E004
:100EB0008EEA96E10E940D078BE39FE10197F1F71F
:100EC000089541E00E940D0781E090E00895FB0144
:100ED00001900020E9F73197AF01461B570BDC0169
:100EE000ED91FC910280F381E02D19944F925F9275
:100EF0006F927F92AF92BF92CF92DF92EF92FF926A
:100F00000F931F93CF93DF93CDB7DEB7A1970FB6A3
:100F1000F894DEBF0FBECDBF5C016A017B01F7FE16
:100F200042C06DE20E94B8028C0122273327A9013A
:100F30002C193D094E095F0919A2CE0181967C0149
:100F40009AE0492E512C612C712CCA01B901A301E0
:100F500092010E94B723605DF70162937F01211522
:100F600031054105510589F790E080E0309721F087
:100F7000BF01C5010E946707800F911FA1960FB6A0
:100F8000F894DEBF0FBECDBFDF91CF911F910F91BF
:100F9000FF90EF90DF90CF90BF90AF907F906F90D9
:100FA0005F904F900895AB01960119A28E010F5DDD
:100FB0001F4F8AE0C82ED12CE12CF12CCA01B901B7
:100FC000A70196010E94B723605DF80162938F012B
:100FD000211531054105510589F790E080E03097F2
:100FE00069F2BF01C5010E946707C8CF0F931F9325
:100FF000CF93DF93EC010E9476078C016CED76E0D5
:10100000CE010E946707800F911FDF91CF911F9142
:101010000F9108950F931F93CF93DF93EC01AB01D2
:10102000770F660B770B0E9476078C016CED76E0EC
:10103000CE010E946707800F911FDF91CF911F9112
:101040000F9108950F931F93CF93DF938C01D0E0FE
:10105000C0E06115710519F00E946707EC016CEDA5
:1010600076E0C8010E9467078C0F9D1FDF91CF912A
:101070001F910F9108956FED76E08AE494E10E944C
:1010800022086EEF76E08AE494E10E9422086DE186
:1010900077E08AE494E10E9422086FED76E08AE42A
:1010A00094E10C9422086115710511F00C94670706
:1010B00090E080E00895CF92DF92EF92FF920F933D
:1010C0001F93CF93DF93EC01162F6FED76E087EE41
:1010D00094E10E9422086CE377E087EE94E10E949D
:1010E00022086FED76E087EE94E10E94220880915D
:1010F0000A0690910B0697FD2BC06BE577E087EE13
:1011000094E10E94530880910A0690910B0607E62D
:10111000089FB001099F700D112460507E4F87EE2B
:1011200094E10E94530868E677E087EE94E10E941C
:10113000530880910A0690910B06089FB001099F01
:10114000700D11246C5F7D4F87EE94E10E942208A0
:101150006CE677E087EE94E10E945308FE01EE0F03
:10116000FF1FE459F94F6081718187EE94E10E947D
:10117000220869E777E087EE94E10E9453086091C6
:1011800006067091070687EE94E10E940A08CC0FCC
:10119000DD1FCC0FDD1FC258D94FA0910606B091BC
:1011A0000706288139814A815B810E94AF236B0148
:1011B0007C0166E877E087EE94E10E945308B7016E
:1011C000A60187EE94E10E94F60780912D1490917C
:1011D0002E141816190654F567E977E087EE94E1A6
:1011E0000E94530840912D1450912E14052E000C8E
:1011F000660B770B87EE94E10E94760765EA77E04D
:1012000087EE94E10E9453088091291490912A144A
:10121000A0912B14B0912C14B701A601481B590BB7
:101220006A0B7B0B87EE94E10E94F6076EEA77E08B
:1012300087EE94E10E9422086DEC77E087EE94E15E
:101240000E9453084091291450912A1460912B1444
:1012500070912C1487EE94E10E94F6076EEA77E015
:1012600087EE94E10E9422086DE178E0112341F0BD
:101270006EED77E087EE94E10E9422086EEF77E052
:1012800087EE94E10E9422086FED76E087EE94E10C
:10129000DF91CF911F910F91FF90EF90DF90CF9052
:1012A0000C942208CF93DF93EB01FB010190002007
:1012B000E9F79B012E1B3F0B2B5E3F4F37FF02C010
:1012C0002F5F3F4F3595279537FD20E0682F822F00
:1012D0000E942407BE018EEA96E1DF91CF910C9423
:1012E00053080E9456076DE378E080E00E9452099F
:1012F0006EED76E081E00E9452096DE478E082E0D4
:101300000E9452096EE578E083E00E94520961E094
:1013100080E00C94E906CF93DF93EC010E9456071E
:101320006EE678E080E00E94520961E080E00E9471
:101330002407CC0FDD1FFE01EA5CF94F608171814B
:101340008EEA96E10E94530862E080E00E94240742
:101350006EE778E08EEA96E10E945308C65AD94FAC
:10136000688179818EEA96E10E94530863E080E00B
:101370000E9424076AE878E08EEA96E10E9453080A
:1013800061E080E0DF91CF910C94E9060E9456075E
:101390006FE978E080E00E94520960EB78E081E03C
:1013A0000E94520963EC78E082E00E9452096CECE2
:1013B00078E083E00E94520960E080E00C94E90646
:1013C0007F928F929F92AF92BF92CF92DF92EF92D5
:1013D000FF920F931F93CF93DF93CDB7DEB765973F
:1013E0000FB6F894DEBF0FBECDBF6C010E9456074A
:1013F00080910A0690910B0697FF19C06BEE78E07A
:1014000080E00E94520965960FB6F894DEBF0FBEC9
:10141000CDBFDF91CF911F910F91FF90EF90DF90A3
:10142000CF90BF90AF909F908F907F90089527E6C8
:10143000289F4001299F900C1124840100501E4FC9
:101440001F930F9387EF98E09F938F931F9285E1EF
:10145000782E7F92CE0101967C019F938F930E94FC
:101460004E26B70180E00E945209580195E6A90E68
:10147000B11CF501208131810FB6F894DEBF0FBE9B
:10148000CDBF2115310571F46CE079E081E00E9457
:1014900052096EED76E082E00E9452096AE179E03D
:1014A00083E0AFCFC601B9010E94E8236C01F801C7
:1014B000ED59FF4F80819181821B930B8C0D9D1DF7
:1014C000039663E070E00E94E82328E1289F8001F2
:1014D000299F100D1124C401800F911F855E9D4F1F
:1014E0009F938F9389E299E09F938F931F927F92AE
:1014F000FF92EF920E944E2661E080E00E94240756
:10150000B7018EEA96E10E945308080D191D00509C
:101510001E4FF801BD9683818F9382818F938181C5
:101520008F93F80185A58F9384A58F9383A58F93BF
:101530008FE299E09F938F931F927F92FF92EF9299
:101540000E944E2662E080E00E942407B7018EEAE6
:1015500096E10E945308F50120813181FFEFCF1AF7
:10156000DF0A0FB6F894DEBF0FBECDBFF80181A928
:10157000882311F18DED98E03F932F93DF92CF9266
:101580009F938F938FE399E09F938F931F9285E1B1
:101590008F93FF92EF920E944E2663E080E00E94BC
:1015A0002407B7018EEA96E10E9453080FB6F8941B
:1015B000DEBF0FBECDBF27CF84EE98E0DDCFFF9218
:1015C0000F931F93CF93DF93CDB7DEB76A970FB614
:1015D000F894DEBF0FBECDBF0E94560765E579E0E7
:1015E00080E00E94520985E0EEE0FCE0DE015696C4
:1015F00001900D928A95E1F740913614509137147D
:10160000CE014696FC012AE2BF01681B790B6417E4
:10161000750714F42193F8CF1A8E9F938F938AE65F
:1016200099E09F938F931F9285E1F82EFF928E0190
:101630000F5F1F4F1F930F930E944E26B80181E04A
:101640000E9452091F9283E08F93809134149091ED
:10165000351401969F938F9389E799E09F938F9319
:101660001F92FF921F930F930E944E2662E080E02C
:101670000E942407B8018EEA96E10E94530863E0B5
:1016800080E00E94240762E979E08EEA96E10E94F8
:10169000530861E080E00E94E9060FB6F894DEBFCF
:1016A0000FBECDBF6A960FB6F894DEBF0FBECDBF9A
:1016B000DF91CF911F910F91FF9008950F931F938A
:1016C000CF93DF93CDB7DEB765970FB6F894DEBF43
:1016D0000FBECDBF0E94560767EA79E080E00E9406
:1016E000520980913D1690913E16892BF9F46AEBD0
:1016F00079E081E00E9452096BEC79E082E00E947F
:10170000520963E080E00E9424076AEE79E08EEAE5
:1017100096E10E94530865960FB6F894DEBF0FBE9F
:10172000CDBFDF91CF911F910F91089580913A160F
:101730008F93809139168F9388ED99E09F938F93C3
:101740001F9285E18F938E010F5F1F4F1F930F93A1
:101750000E944E2661E080E00E942407B8018EEAD4
:1017600096E10E94530860EE79E082E00E945209FF
:101770000FB6F894DEBF0FBECDBFC3CFDF92EF929E
:10178000FF920F931F93CF93DF93CDB7DEB765978B
:101790000FB6F894DEBF0FBECDBF8C010E94560776
:1017A0006FEF79E080E00E945209809107068F93E5
:1017B000809106068F93F801EE0FFF1FE459F94F51
:1017C00081818F9380818F9380E19AE09F938F93A3
:1017D0001F9295E1D92EDF92CE0101967C019F9355
:1017E0008F930E944E2661E080E00E942407B7019B
:1017F0008EEA96E10E945308000F111F000F111F7F
:10180000F801E258F94FA0910606B0910706208131
:101810003181428153810E94AF239F938F937F93A5
:101820006F938BE19AE09F938F931F92DF92FF92C9
:10183000EF920E944E2662E080E00E942407B701EA
:101840008EEA96E10E94530863E080E00E9424073C
:101850006CE27AE08EEA96E10E9453080FB6F894A3
:10186000DEBF0FBECDBF65960FB6F894DEBF0FBECC
:10187000CDBFDF91CF911F910F91FF90EF90DF903F
:1018800008950F931F93CF93DF93CDB7DEB76A9779
:101890000FB6F894DEBF0FBECDBF0E94560761E4BD
:1018A0007AE080E00E94520984E0E1E3F6E0DE01A4
:1018B000569601900D928A95E1F71A8E8091461402
:1018C00090914714FE017696A2E4B4E19F01AD0128
:1018D00042545441481759071CF44D914193F7CF96
:1018E000820F931FFC0110823F932F938FE49AE0A5
:1018F0009F938F931F9285E18F938E010F5F1F4FF0
:101900001F930F930E944E26B80181E00E94520956
:1019100061E67AE082E00E94520963E080E00E9482
:10192000240762E979E08EEA96E10E9453080FB637
:10193000F894DEBF0FBECDBF6A960FB6F894DEBF37
:101940000FBECDBFDF91CF911F910F910895AF9240
:10195000BF92CF92DF92EF92FF920F931F93CF939C
:10196000DF93CDB7DEB7A0970FB6F894DEBF0FBEFA
:10197000CDBF8C010E94560780910A0690910B06FC
:1019800078012FEFE21AF20A9E012F5F3F4F6901A3
:1019900097FD79C027E6289FB001299F700D11247B
:1019A0006C5F7D4F5E0136E1A30EB11C4AE050E052
:1019B000C5010E943F2618A21F9285E08F93FF92D7
:1019C000EF92BF92AF9285E79AE09F938F931F9219
:1019D00085E18F93DF92CF920E944E260FB6F89446
:1019E000DEBF0FBECDBF60E080E00E942407B601DD
:1019F0008EEA96E10E945308000F111F61E080E01B
:101A00000E9424076EEF7BE0093011053CF4F801D9
:101A1000EE0FFF1FEA5CF94F608171818EEA96E15B
:101A20000E9453080F5F1F4F62E080E00E9424076E
:101A30006EEF7BE0093011053CF4000F111FF80137
:101A4000EA5CF94F608171818EEA96E10E94530849
:101A500063E080E00E9424076FE97AE08EEA96E175
:101A60000E945308A0960FB6F894DEBF0FBECDBFFC
:101A7000DF91CF911F910F91FF90EF90DF90CF906A
:101A8000BF90AF9008951F9285E08F93FF92EF92E1
:101A900088E89AE09F938F931F9285E18F933F93FD
:101AA0002F930E944E269ACF4F925F926F927F9211
:101AB0008F929F92AF92BF92CF92DF92EF920F934D
:101AC0001F93CF93DF935A012801390127E6289FFE
:101AD0006001299FD00C1124C60180509E4F8C01BB
:101AE0000D591F4FF80180819181660F771FFB010F
:101AF000E459F94F6081718128E1289FE001299F15
:101B0000D00D1124C6018C0F9D1F4FE050E0855E63
:101B10009D4F0E943F26CC0DDD1DC050DE4F1AA602
:101B2000BCA6ABA64DA65EA66FA678AAE9AA81E0E0
:101B30008AABF80180819181019663E070E00E9498
:101B4000E82391838083329680819181833091054F
:101B50001CF4019691838083DF91CF911F910F91A7
:101B6000EF90DF90CF90BF90AF909F908F907F903D
:101B70006F905F904F900895FC0124813581232B55
:101B800039F421E0FB018081882349F020E007C07F
:101B9000808191810E942F2621E0892BB9F7822F25
:101BA0000895FC0180819181009711F00C94B42478
:101BB0000895AF92BF92CF92DF92EF92FF920F9370
:101BC0001F93CF93DF93DC01CD90DC901197C1146C
:101BD000D10439F01496CD91DC918C0176012097D7
:101BE00061F4DF91CF911F910F91FF90EF90DF9003
:101BF000CF90BF90AF90089575015701BFEFAB1A1A
:101C0000BB0AF7018081082E000C990B0E947923F2
:101C1000892B91F72197CC0DDD1D8881082E000CB2
:101C2000990B0E947923892B29F0CE15DF0510F03E
:101C30002197F3CFAE014F5F5F4F4E195F09D80177
:101C400015965C934E931497CE14DF0420F4B701DD
:101C5000C6010E942626D801ED91FC911197149699
:101C60008D919C91E80FF91F1082BBCFCF93DF932A
:101C7000FC01C081D181209761F08991882349F0CE
:101C8000082E000C990B0E941E26FE0131978083BE
:101C9000F4CFDF91CF9108950F931F93CF93DF93EC
:101CA000EC0188819981009759F02A813B812617A0
:101CB000370730F081E0DF91CF911F910F910895A8
:101CC0008B016F5F7F4F0E943D25009759F09983EC
:101CD00088831B830A832C813D81232B59F7FC01C8
:101CE0001082E8CF80E0E7CFEF92FF920F931F932F
:101CF000CF93DF931F921F92CDB7DEB78C0169831C
:101D00001A82FC01E480F580FFEFEF1AFF0AB701A9
:101D10000E944C0E882381F0F8012081318184815A
:101D20009581BE016F5F7F4F820F931F0E943826FF
:101D3000F801F582E48281E00F900F90DF91CF915E
:101D40001F910F91FF90EF900895EF92FF920F93E4
:101D50001F93CF93DF93EC017B018A01BA010E94AC
:101D60004C0E28813981811114C02115310519F0DB
:101D7000C9010E94B424198218821D821C821B8210
:101D80001A82CE01DF91CF911F910F91FF90EF90BA
:101D900008951D830C83B701C9010E943826F1CF35
:101DA00050E040E06EED76E00C94A50EFC0111824F
:101DB000108213821282158214826115710551F00E
:101DC000FB0101900020E9F73197AF01461B570B4B
:101DD0000C94A50E089585ED8093BC008091E813C6
:101DE0009091E913A091EA13B091EB130796A11D0E
:101DF000B11D23E0B695A795979587952A95D1F7BC
:101E00002091BC0024FD03C01092E6130895409178
:101E1000E8135091E9136091EA137091EB13452B8D
:101E2000462B472B69F30097A105B10541F02AE243
:101E30002A95F1F700C00197A109B109E1CF80917E
:101E4000E7130C9458051F920F920FB60F921124AE
:101E50000BB60F922F933F934F935F936F937F93A4
:101E60008F939F93AF93BF93EF93FF938AE494E193
:101E70000E949602FF91EF91BF91AF919F918F9138
:101E80007F916F915F914F913F912F910F900BBE7A
:101E90000F900FBE0F901F9018951F920F920FB6C4
:101EA0000F9211240BB60F922F933F934F935F9392
:101EB0006F937F938F939F93AF93BF93EF93FF9312
:101EC0008AE494E10E942202FF91EF91BF91AF91C9
:101ED0009F918F917F916F915F914F913F912F9142
:101EE0000F900BBE0F900FBE0F901F9018951F9272
:101EF0000F920FB60F9211240BB60F922F933F93B0
:101F00004F935F936F937F938F939F93AF93BF9301
:101F1000EF93FF9387EE94E10E949602FF91EF9179
:101F2000BF91AF919F918F917F916F915F914F91F1
:101F30003F912F910F900BBE0F900FBE0F901F90EF
:101F400018951F920F920FB60F9211240BB60F9295
:101F50002F933F934F935F936F937F938F939F93B1
:101F6000AF93BF93EF93FF9387EE94E10E94220219
:101F7000FF91EF91BF91AF919F918F917F916F9161
:101F80005F914F913F912F910F900BBE0F900FBE1D
:101F90000F901F9018951F920F920FB60F92112459
:101FA0000BB60F922F933F934F935F936F937F9353
:101FB0008F939F93AF93BF93EF93FF9384E895E143
:101FC0000E949602FF91EF91BF91AF919F918F91E7
:101FD0007F916F915F914F913F912F910F900BBE29
:101FE0000F900FBE0F901F9018951F920F920FB673
:101FF0000F9211240BB60F922F933F934F935F9341
:102000006F937F938F939F93AF93BF93EF93FF93C0
:1020100084E895E10E942202FF91EF91BF91AF9178
:102020009F918F917F916F915F914F913F912F91F0
:102030000F900BBE0F900FBE0F901F9018951F9220
:102040000F920FB60F9211242F933F938F939F936C
:10205000AF93BF9380910F1490911014A09111141D
:10206000B091121430910E1423E0230F2D3758F540
:102070000196A11DB11D20930E1480930F1490930F
:102080001014A0931114B093121480911314909112
:102090001414A0911514B09116140196A11DB11D30
:1020A0008093131490931414A0931514B0931614E2
:1020B000BF91AF919F918F913F912F910F900FBE44
:1020C0000F901F90189526E8230F0296A11DB11DB1
:1020D000D2CF1F920F920FB60F9211240BB60F9210
:1020E0002F933F934F935F936F937F938F939F9320
:1020F000AF93BF93EF93FF938091B900887F8036B1
:1021000009F44DC008F040C0883209F4A9C028F590
:10211000803109F49DC0C8F4882309F4FBC08830DD
:1021200009F496C0FF91EF91BF91AF919F918F916C
:102130007F916F915F914F913F912F910F900BBEC7
:102140000F900FBE0F901F901895883109F488C02A
:10215000803241F78093E41314C0803409F49DC0A9
:1021600040F48033B9F38833E9F68093E41385ECC7
:10217000B0C0803509F485C0883509F496C088342C
:1021800089F60E94EB0ECECF883909F48CC038F561
:10219000883729F050F4883611F0803719F683E03B
:1021A0008093E6131092BF1357C0883809F47BC0A0
:1021B000803919F0803809F0B5CF8091BF13803293
:1021C00008F071C0E091BF1381E08E0F8093BF13C0
:1021D0008091BB00F0E0E156FC4E80833DC0803B27
:1021E00039F0E0F4803A09F479C0883A09F09ACFDE
:1021F00084E08093E61310929E1310929D13E09159
:102200001914F0911A14199580919D1381110FC022
:1022100081E080939D1310927D1309C0803C09F4E6
:10222000A6CF883C09F4A3CF883B09F07BCFE0918F
:102230009E1381E08E0F80939E13F0E0E358FC4ED6
:1022400080818093BB0090919E1380919D1329C043
:102250008091C1138093BB0085EC8093BC0062CF5A
:102260009091E3138091E213981758F5E091E313EE
:1022700081E08E0F8093E313F0E0EE53FC4E8081FB
:10228000E9CFE091E31381E08E0F8093E313809117
:10229000BB00F0E0EE53FC4E80839091E3138091FD
:1022A000E2139817C8F285E8D8CFE091E31381E0F4
:1022B0008E0F8093E3138091BB00F0E0EE53FC4E51
:1022C00080838091E51381115CCF81E08093C013FE
:1022D00084EA8093BC001092E61324CF85EC8093AF
:1022E000BC001092E6138091BF13803230F4E0916D
:1022F000BF13F0E0E156FC4E10826091BF1370E016
:10230000E0911714F09118148FE993E11995109248
:10231000BF1308CF1092E41334CF10924D141092D3
:102320004C1488EE93E0A0E0B0E080934E149093BC
:102330004F14A0935014B093511426EA36E0309312
:102340004B1420934A1445ED50E05093571440939A
:10235000561444ED50E0509359144093581440EDF6
:1023600050E050935B1440935A1441ED50E0509369
:102370005D1440935C1442ED50E050935F14409321
:102380005E1446ED50E05093611440936014109237
:1023900063141092641410926514109266141092D3
:1023A000EA141092E9148093EB149093EC14A09328
:1023B000ED14B093EE143093E8142093E7144DEC31
:1023C00050E05093F4144093F3144CEC50E05093CD
:1023D000F6144093F51448EC50E05093F8144093F1
:1023E000F71449EC50E05093FA144093F9144AEC76
:1023F00050E05093FC144093FB144EEC50E050938B
:10240000FE144093FD1410920015109201151092C5
:10241000021510920315109287151092861580935D
:10242000881590938915A0938A15B0938B153093D6
:1024300085152093841525EC30E030939115209379
:10244000901524EC30E0309393152093921520ECF6
:1024500030E0309395152093941521EC30E03093C3
:1024600097152093961522EC30E030939915209320
:10247000981526EC30E030939B1520939A15109216
:102480009D1510929E1510929F151092A0151092F6
:102490002416109223168093251690932616A09347
:1024A0002716B093281688EB96E090932216809317
:1024B00021161092B1161092B01684ED96E090930A
:1024C000AF168093AE1687E28093B21684E18093B4
:1024D000B71684E08093B8161092B9161092411680
:1024E0001092451610924416109246168AEC96E009
:1024F0009093401680933F16EBE5F6E1108214822C
:1025000013821582369686E1E739F807B9F78FE02E
:1025100096E09093A2168093A1168CE096E090939B
:10252000A4168093A31684E08093A51683E080937D
:10253000A61683E196E09093A01680939F168AE0FA
:1025400090E09093A8168093A71684EF91E0909363
:10255000AA168093A9161092AD161092AC1610927E
:102560009B1610929C1610929D1610929E16109219
:10257000AB166EED76E089E396E10E94D60E6EED25
:1025800076E083E396E10E94D60E6EED76E08DE272
:1025900096E10C94D60ECF93DF93CDB7DEB7AF970D
:1025A0000FB6F894DEBF0FBECDBF789484B58260BD
:1025B00084BD84B5816084BD85B5826085BD85B5E7
:1025C000816085BD80916E00816080936E00109265
:1025D00081008091810082608093810080918100E0
:1025E0008160809381008091800081608093800071
:1025F0008091B10084608093B1008091B0008160CF
:102600008093B000809191008260809391008091CE
:10261000910081608093910080919000816080930F
:1026200090008091A10082608093A1008091A10020
:1026300081608093A1008091A00081608093A000C0
:10264000809121018260809321018091210181602C
:1026500080932101809120018160809320018091ED
:102660007A00846080937A0080917A0082608093FF
:102670007A0080917A00816080937A0080917A005C
:10268000806880937A001092C10084E895E10E94EE
:10269000A90187EE94E10E94A9018AE494E10E94D5
:1026A000A90184E690E0A0E0B0E08093EB14909361
:1026B000EC14A093ED14B093EE1480934E14909309
:1026C0004F14A0935014B093511480917B00877FD6
:1026D00080937B0080E480937C0080917A0080640A
:1026E00080937A0080917A0086FDFCCF009178007B
:1026F000109179000E94AA04012E000C220B330BCA
:10270000600F711F821F931F61157105810591056F
:1027100011F00E944A2361E08CE00E94130461E002
:102720008DE00E94130460E080E00E94E906E2E38D
:10273000F2E088E396E012AA11AA14AA13AA108262
:10274000108E10AAE959FF4F8E179F07A1F710921C
:102750001E1410921D1410921C1410921B140E942F
:102760003A0583EF91E090931A148093191484EF43
:1027700091E090931814809317141092B3168091DF
:10278000B816823018F098E09093B3168093B6167E
:1027900062E370E080E090E00E9478046091B916F6
:1027A0008EEA96E10E94FF0568EE73E080E090E01B
:1027B0000E94780460E38EEA96E10E94F4060BE43E
:1027C00016E4C8010197F1F760E38EEA96E10E94F2
:1027D000F406C8010197F1F760E38EEA96E10E94E2
:1027E000F40683E592E00197F1F760E28EEA96E164
:1027F0000E94F4066091B316606240E08EEA96E1B2
:102800000E940D0784E08093B41640E06CE08EEAED
:1028100096E10E940D070E94560782E08093B5164C
:1028200040E066E08EEA96E10E940D0740E062E03B
:102830008EEA96E10E940D078BE39FE10197F1F785
:1028400088E08093B91660E08EEA96E10E94FF0569
:102850000E94C60910924914109248140E94AA04BA
:1028600060933E1470933F148093401490934114EE
:102870006FED76E087EE94E10E94220864EB7AE047
:1028800087EE94E10E9422086FED76E087EE94E1F6
:102890000E94220863ED7AE087EE94E10E9422080C
:1028A00000E012E0B2EFEB2EBAE0FB2E83E2B82E8E
:1028B0009E012F5F3F4F6901D8015A968C91882362
:1028C000C1F0C80104969F938F931F930F93FF92BB
:1028D000EF921F92BF92DF92CF920E944E26B601D6
:1028E00087EE94E10E9422080FB6F894DEBF0FBE77
:1028F000CDBF09591F4FF6E006301F07E9F66FED0F
:1029000076E087EE94E10E9422086FEF7AE087EE8E
:1029100094E10E9422086FED76E087EE94E10E9438
:1029200022086FED76E08AE494E10E9422086EE1CD
:102930007BE08AE494E10E9422086FED76E08AE46D
:1029400094E10E9422086DE37BE08AE494E10E9416
:1029500022086CE57BE08AE494E10E9422086FED96
:1029600076E08AE494E10E942208ABE72A2EA6E1F1
:102970003A2E2E0124E2420E511CAE014F5F5F4FF2
:102980006A0181E08093AB160E94AA0400919B1615
:1029900010919C1620919D1630919E16AB01BC01A2
:1029A000401B510B620B730B8091A7169091A816D8
:1029B000B0E0A0E084179507A607B70708F00CC1A0
:1029C00010E08091A516181760F4E091A116F0911F
:1029D000A216E10FF11D62E080810E9413041F5FC7
:1029E000F0CFF12C8091A616F81608F063C0AF2C3A
:1029F000B12CE091A316F091A416EA0DFB1D61E045
:102A000080810E941304E091A316F091A416EA0DB0
:102A1000FB1D60E080810E94E10381E090E0A0E086
:102A2000B0E00F2C04C0880F991FAA1FBB1F0A9487
:102A3000D2F73C014C0180949094E12C8091A51632
:102A4000E81608F50E2D10E0E091A116F091A216FF
:102A5000E00FF11F80810E94B5030C5F1F4F000F34
:102A6000111FF801E15CF94E892B41F480819181BD
:102A70008629972991838083E394E0CF8081918197
:102A800088219921F7CFE091A316F091A416EA0DC1
:102A9000FB1D61E080810E94E1038091A31690916B
:102AA000A416A80EB91E60E0D5018C910E941304F3
:102AB000F39498CFEFE38E2EE6E19E2E8401F80189
:102AC000878D90A1892B31F4148E2FEF3FEF368F35
:102AD000258F11A20A5F1F4F2016310681F7F12CB6
:102AE0008091A516F81608F054C0E12CAF2CB12C3B
:102AF000AA0CBB1CA501495B594E5A012091A61690
:102B0000E21608F044C0D5016D917C910E2C02C0F4
:102B1000769567950A94E2F7F29E900111242E0DA6
:102B2000311DEFE3F6E180E0458D568D2417350722
:102B300011F40C9434228F5F36968A30A9F760FF27
:102B400024C0EFE3F6E190E080E0448D411118C02D
:102B5000E0919F16F091A016E20FF31F4081B6E0BE
:102B6000B89FF001B99FF00D1124E15CF94E448F3C
:102B7000368F258F10A2178E61E00E94B60405C023
:102B8000019636968A30910501F7E394B7CFF39416
:102B9000A7CFF12CF40181A18111F82EF6E08F0E60
:102BA000911C08151905B1F70E94AA0460939B16A1
:102BB00070939C1680939D1690939E16FF2061F053
:102BC00080916016882341F080915E1690915F1687
:102BD000F0905B16019719F01092AB16F12C87EE6E
:102BE00094E10E946C02892B19F187EE94E10E9416
:102BF0004A02182F0E94AA0460931F147093201495
:102C000080932114909322141D3049F31A3039F324
:102C10008091371690913816459720F083E396E11E
:102C20000E94D00E612F83E396E10E94740ED7CFED
:102C30008091371690913816892B11F180912814C4
:102C400081111EC00E94AA0400911F14109120142B
:102C50002091211430912214601B710B820B930B75
:102C6000693C71058105910558F083E396E10E9466
:102C7000D90D83E396E10E94360E81E080932814FB
:102C80008AE494E10E946C028C01892B19F18AE498
:102C900094E10E944A02182F0E94AA046093231410
:102CA0007093241480932514909326141D3041F3BF
:102CB0001A3031F38091311690913216459720F0F9
:102CC0008DE296E10E94D00E612F8DE296E10E9486
:102CD000740ED6CF8091311690913216892B11F156
:102CE0008091271481111EC00E94AA048090231491
:102CF00090902414A0902514B09026146819790996
:102D00008A099B09693C71058105910558F08DE29E
:102D100096E10E94D90D8DE296E10E94360E81E087
:102D200080932714E0914814F0914914E231F105A1
:102D300008F069C08827E056F94E8F4F0C94FC23A9
:102D4000B216D3168D17A217F1171F18791AB71BD1
:102D5000D11C2E1952195F1EB320E121C221E1219D
:102D6000F7219E21FF2009F44EC0109247141092C3
:102D70004614E2E4F4E184E0DF011D928A95E9F76C
:102D80000E94410C81E090E0909349148093481494
:102D90000E94AA0460933E1470933F1480934014E1
:102DA0009093411430C0FF2071F1BAE2FB1235C09C
:102DB0008091461490914714181619063CF5019716
:102DC00090934714809346148E5B9B4EFC011082B7
:102DD0000E94410C0E94AA0400913E1410913F14DD
:102DE0002091401430914114601B710B820B930BA6
:102DF000613C744D8140910530F00E94C6091092EB
:102E00004914109248140E942503BBCD0E94C609A4
:102E10001092491410924814DBCFF3E2FF1262C003
:102E2000809146149091471403976CF360E0A62EAE
:102E300062E0B62ED5015A968C91882369F0F5018F
:102E4000E050F2407F0162E474E1C5010E942F2648
:102E5000892B11F40C9437220F5F1F4FF7E6AF0E4A
:102E6000B11C0A30110531F70E9456076DEC71E173
:102E700080E00E94520982E494E19F938F938BED4E
:102E800091E19F938F931F9285E18F93DF92CF9271
:102E90000E944E26B60181E00E9452096DE478E05E
:102EA00082E00E9452096EE578E083E00E945209B8
:102EB00061E080E00E94E90682E090E0909349148E
:102EC000809348140E94AA0460933E1470933F14A8
:102ED00080934014909341140FB6F894DEBF0FBE58
:102EE000CDBF78CF80ED8F0D8A3008F073CF809101
:102EF000461490914714833091050CF06BCFFC0180
:102F0000EE5BFB4EF082019690934714809346143B
:102F10008E5B9B4EDC011C925BCF0E94AA04009149
:102F20003E1410913F142091401430914114601BC5
:102F3000710B820B930B693B7B408105910508F473
:102F400062CF13CFFF2009F45ECFB0E3FB120FC0B6
:102F500010923B1410923A1490E080E00E94E00935
:102F600080E190E090934914809348144CCFE3E2C1
:102F7000FE1212C080913C1490913D148430910552
:102F80001CF48C010F5F1F4F10933D1400933C14F1
:102F9000C8010E94A70C37CFFAE2FF1210C080913F
:102FA0003C1490913D141816190634F4019790932F
:102FB0003D1480933C14EDCF84E090E0F8CF8FEC8B
:102FC0008F0D893008F01FCF8F2DFF0C990BC19703
:102FD00090930906809308060E948B0984E090E094
:102FE000C1CFFF2009F40FCF23E2F2120FC081E01E
:102FF00090E09093070680930606809108069091D2
:1030000009060E94BE0B85E090E0ACCF3AE2F312D5
:10301000FACE809108069091090697FD0196959544
:10302000879590933D1480933C140E94A70C83E0F5
:1030300090E090934914809348140C94BF21FF2092
:1030400009F4E1CE8FEC8F0D893078F48F2DFF0CD1
:10305000990BC09790930706809306068091080607
:10306000909109060E94BE0BCECE43E2F412E2C05C
:103070000E94AA049B01AC01E0900A06F0900B06A6
:1030800081E68E9D40018F9D900C1124092C000C2F
:10309000AA08BB0889E3880E85E0981EA11CB11C14
:1030A000A7E0B0E00E94A423680D791D8A1D9B1D36
:1030B00028E233E240E050E00E94B72368517C4FA1
:1030C0007093391460933814109237141092361498
:1030D0001092351410923414EFE2F4E185E0DF0130
:1030E0001D928A95E9F76FED76E08AE494E10E94FB
:1030F00022086BE77BE08AE494E10E9422086FEDEE
:1031000076E08AE494E10E9422086AE97BE08AE49E
:1031100094E10E94530887E68E9D80018F9D100DDB
:103120001124B8016C5F7D4F8AE494E10E9422086B
:1031300066EA7BE08AE494E10E945308F801E050DB
:10314000FE4F46895789608D718D8AE494E10E9413
:10315000F60766EB7BE08AE494E10E94220865EDC5
:103160007BE08AE494E10E94220864EF7BE08AE439
:1031700094E10E942208809139148F938091381431
:103180008F9383E19CE09F938F931F928EE18F93A7
:10319000DF92CF920E944E26B6018AE494E10E940B
:1031A000220864EF7BE08AE494E10E94220866EB47
:1031B0007BE08AE494E10E9422086EE27CE08AE4EB
:1031C00094E10E9422086DE47CE08AE494E10E948C
:1031D00022086FED76E08AE494E10E9422080E94C2
:1031E00056076CE67CE080E00E9452096EED76E0C6
:1031F00081E00E94520961E87CE082E00E9452096D
:1032000063E97CE083E00E94520961E080E00E9473
:10321000E90689E090E090934914809348140E9455
:10322000AA0460933E1470933F14809340149093CB
:10323000411468C2FAE2FF12E6CD8091080690912F
:1032400009060E948B0984E090E0909349148093D2
:10325000481461E080E00E94E906D5CD0E94AA04EE
:1032600000913E1410913F1420914014309141146C
:10327000601B710B820B930B693B7B4081059105B1
:1032800008F4C1CD1092371410923614EFE2F4E135
:1032900085E0DF011D928A95E9F70E94DF0A8AE046
:1032A00090E072CDFF2009F4AECDBAE2FB1220C04F
:1032B00080913614909137141816190664F401970A
:1032C0009093371480933614815D9B4EFC011082DD
:1032D0000E94DF0A55C080910806909109060E945D
:1032E000BE0B85E090E09093491480934814F0CF92
:1032F00080ED8F0D8A30A8F48091361490913714A8
:1033000084309105ECF5FC01E15DFB4EF082019605
:103310009093371480933614815D9B4EDC011C9290
:10332000D7CFB3E2FB122CC08091361490913714A2
:1033300004970CF468CD8FE294E10E94532320910E
:1033400038143091391482179307A9F589E396E16F
:103350000E94D00E10922E1410922D140E945E0B1B
:1033600086E090E090934914809348140E94AA0448
:1033700060933E1470933F148093401490934114D3
:103380000E94AA0400913E1410913F142091401411
:1033900030914114601B710B820B930B61327F4B98
:1033A0008240910508F42FCD0E943B080E947109CC
:1033B0008FE090E0E9CC00913414109135140F5F48
:1033C0001F4F10933514009334146FED76E08AE4A8
:1033D00094E10E94220867EA7CE08AE494E10E947A
:1033E000220866EC7CE08AE494E10E945308A8017C
:1033F000012E000C660B770B8AE494E10E9476079D
:1034000062ED7CE08AE494E10E94530863E070E09E
:103410008AE494E10E940A08033011050CF050C0C0
:1034200064ED7CE08AE494E10E94220863EF7CE092
:103430008AE494E10E942208809139148F9380914C
:1034400038148F9383E19CE09F938F931F928EE1BA
:103450008F93DF92CF920E944E26B6018AE494E1C8
:103460000E9422080FB6F894DEBF0FBECDBF6FEDED
:1034700076E08AE494E10E942208809134149091CD
:103480003514039754F10E94560760E57DE080E013
:103490000E9452096CE57DE081E00E94520961E7DB
:1034A0007DE082E00E94520961E87DE083E00E94B5
:1034B000520961E080E00E94E9068EE090E052CF80
:1034C00062E17DE08AE494E10E94220861E37DE00C
:1034D0008AE494E10E942208CACF10923714109215
:1034E0003614EFE2F4E185E0DF011D928A95E9F7F9
:1034F000EFCEFF2009F487CCEAE2FE1207C089E391
:1035000096E10E94D00E0E945E0B7DCCF3E2FF128A
:103510001CC11DA21CA21FA21EA219A618A6609162
:10352000391670913A166115710539F040913D16C2
:1035300050913E16C2010E94A50E48E4E42E46E0DA
:10354000F42EB12CA12CD7016D917C911A82198295
:103550001C821B821E821D826115710559F0FB01C0
:1035600001900020E9F73197AF01461B570BC601C8
:103570000E94A50E28A539A58D819E81281739079F
:1035800011F58CA19DA169817A81009759F061158F
:10359000710509F0BDC0232B09F4BDC0DC018C917D
:1035A00090E00DC06115710509F4B5C0232B09F435
:1035B000B2C0FB01808190E0919581959109992499
:1035C0009394892B09F0912CC6010E94D10D99206A
:1035D00009F4A4C0B6E0BA9DF001BB9DF00D112422
:1035E000E85BF94F0281138110932E1400932D1480
:1035F000C2010E94D10DE0910806F0910906EE0F7C
:10360000FF1FEE0FFF1FE258F94FA0910606B09181
:10361000070620813181428153810E94AF234B01F3
:103620005C01D801AC019B010E94AF232CE93FEF64
:103630004FEF5FEF0E948523820E931EA41EB51EDE
:103640008092291490922A14A0922B14B0922C14D8
:103650000E945607101611060CF06CC065E97DE05B
:1036600080E00E94520980912E148F9380912D1436
:103670008F9385EA9DE09F938F931F9285E18F93AF
:10368000DF92CF920E944E2661E080E00E942407E4
:10369000B6018EEA96E10E9453080FB6F894DEBF99
:1036A0000FBECDBF80912C148F9380912B148F93DC
:1036B00080912A148F93809129148F938AED9DE035
:1036C0009F938F931F9285E18F93DF92CF920E94F9
:1036D0004E2662E080E00E942407B6018EEA96E161
:1036E0000E94530863E080E00E9424076AEE7DE0B8
:1036F0008EEA96E10E94530887E090E09093491487
:10370000809348140FB6F894DEBF0FBECDBF7BCBBD
:103710000E942F2654CF9924939456CFEFEFAE1AE0
:10372000BE0AF6E0EF0EF11C23E0A216B10409F088
:103730000ACF5ACF6DEB7DE080E00E9452096BEC1E
:103740007DE081E00E945209ADCF80ED8F0D8A307F
:1037500008F059CB80913D1690913E16069708F0DF
:1037600052CB6F2D89E396E10E94740ECCCEFF20E0
:1037700009F449CB93E2F91204C183E396E10E9474
:10378000D00E1092281400910806109109066FEDD2
:1037900076E087EE94E10E9422086FEF7DE087EEED
:1037A00094E10E9422086FED76E087EE94E10E949A
:1037B000220880910A0690910B0697FD2CC06BE5BC
:1037C00077E087EE94E10E94530880910A06909179
:1037D0000B0627E6F22EF89EB001F99E700D11241B
:1037E00060507E4F87EE94E10E94530868E677E0D0
:1037F00087EE94E10E94530880910A0690910B068F
:10380000F89EB001F99E700D11246C5F7D4F87EE1C
:1038100094E10E9422086CE677E087EE94E10E9432
:103820005308000F111FF801E459F94F60817181AD
:1038300087EE94E10E94220869E777E087EE94E141
:103840000E945308609106067091070687EE94E186
:103850000E940A086EE17EE087EE94E10E94530820
:10386000F801E65AF94F6081718187EE94E10E9478
:10387000220880912D1490912E1418161906C4F464
:103880006FE27EE087EE94E10E94530840912D1490
:1038900050912E14052E000C660B770B87EE94E1E9
:1038A0000E9476076DE37EE087EE94E10E94220895
:1038B0006DEC77E087EE94E10E9453084091291463
:1038C00050912A1460912B1470912C1487EE94E17E
:1038D0000E94F60766EB7BE087EE94E10E942208E7
:1038E0006FE37EE087EE94E10E9422086EE57EE0C1
:1038F00087EE94E10E9422086FED76E087EE94E176
:103900000E94220800910806109109060E9456079D
:103910006DE77EE080E00E945209809107068F9358
:10392000809106068F93F801EE0FFF1FE459F94FBF
:1039300081818F9380818F9380E19AE09F938F9311
:103940001F9285E18F93DF92CF920E944E2661E015
:1039500080E00E942407B6018EEA96E10E94530897
:1039600069E87EE082E00E9452096CE97EE083E033
:103970000E94520961E080E00E94E90688E090E040
:103980004ACCBAE2FB123FCA89E396E10E94D00E0C
:1039900010922E1410922D140E945E0B86E090E07F
:1039A000E1CA80912814882309F40DC110922814CB
:1039B00068EA7EE083E396E10E94BC0D811109C0B4
:1039C0006CEA7EE083E396E10E94BC0D882309F453
:1039D00030C18DE296E10E94D00E10922714009122
:1039E000080610910906E0900A06F0900B066FEDAC
:1039F00076E08AE494E10E9422086EEA7EE08AE49E
:103A000094E10E9422086FED76E08AE494E10E943E
:103A100022086AE97BE08AE494E10E94530887E681
:103A20008E9D50018F9DB00C1124B5016C5F7D4FB0
:103A30008AE494E10E94220866EA7BE08AE494E149
:103A40000E945308F501E050FE4F46895789608D6A
:103A5000718D8AE494E10E94F6076DEC7EE08AE4C1
:103A600094E10E945308000F111FF801E459F94F27
:103A7000608171818AE494E10E94220869ED7EE010
:103A80008AE494E10E94530860910606709107064B
:103A90008AE494E10E940A0880912D1490912E14DA
:103AA00018161906C4F465EE7EE08AE494E10E94DB
:103AB000530840912D1450912E14052E000C660BC6
:103AC000770B8AE494E10E94760762EF7EE08AE455
:103AD00094E10E94220868EF7EE08AE494E10E946B
:103AE00053084091291450912A1460912B1470911D
:103AF0002C148AE494E10E94F60766EB7BE08AE4EA
:103B000094E10E94220868E07FE08AE494E10E9448
:103B1000220867E27FE08AE494E10E9422086FEDC8
:103B200076E08AE494E10E9422080E94560766E447
:103B30007FE080E00E94520964E57FE081E00E941E
:103B4000520980912C148F9380912B148F93809124
:103B50002A148F93809129148F938AED9DE09F936F
:103B60008F931F9285E18F93DF92CF920E944E2612
:103B700062E080E00E942407B6018EEA96E10E948E
:103B8000530864E67FE083E00E94520961E080E030
:103B90000E94E9068BE090E09093491480934814CA
:103BA0000E94AA0460933E1470933F1480934014C3
:103BB000909341140FB6F894DEBF0FBECDBF83E3E0
:103BC00096E10E94D00E0E94AA0400913E1410912A
:103BD0003F142091401430914114601B710B820BF3
:103BE000930B613C744D8140910508F40CC98091A0
:103BF0000A0690910B0697FD13C0009129141091AD
:103C00002A1420912B1430912C14409106065091C7
:103C100007066091080670910906E12C0E94540D78
:103C20000E94710983E396E10E94D00E109228143D
:103C3000BFCB69E77FE083E396E10E94BC0D811171
:103C400009C06FE77CE083E396E10E94BC0D882306
:103C500009F4B5CF80910A0690910B0697FD13C029
:103C60000091291410912A1420912B1430912C14B6
:103C7000409106065091070660910806709109066A
:103C8000E12C0E94540D0E9471090E943B0860E0E3
:103C900080910806909109060E945B088FE090E0F1
:103CA00090934914809348140E94AA0460933E1490
:103CB00070933F14809340149093411480CF80916F
:103CC0002714882309F4ABC1109227146CEA7EE014
:103CD0008DE296E10E94BC0D811140C068EA7EE051
:103CE0008DE296E10E94BC0D811138C06FE77CE047
:103CF0008DE296E10E94BC0D811109C06AEC70E171
:103D00008DE296E10E94BC0D882309F484C1809164
:103D10000A0690910B0697FD13C00091291410918B
:103D20002A1420912B1430912C14409106065091A6
:103D300007066091080670910906E12C0E94540D57
:103D40000E9471090E943B0860E0809108069091F2
:103D500009060E945B088FE090E04FC180910A063F
:103D600090910B0640E050E0BA0197FD0CC027E6A9
:103D7000289FF001299FF00D1124E050FE4F468945
:103D80005789608D718D0091291410912A1420910A
:103D90002B1430912C1440175107620773070CF451
:103DA0007EC147E6F42EF89E4001F99E900C112446
:103DB000A40140505E4F3A01DA0156964D915D9153
:103DC0006D917C915997401B510B620B730BF30162
:103DD000468B578B608F718FA0900806B0900906B4
:103DE0004091060650910706EE24E394B5010E9427
:103DF000540D6FED76E08AE494E10E94220860E8B9
:103E00007FE08AE494E10E9422086FED76E08AE484
:103E100094E10E9422086FE97FE08AE494E10E9425
:103E20005308B4016C5F7D4F8AE494E10E9422083C
:103E30006CE677E08AE494E10E945308F501EE0F06
:103E4000FF1FE459F94F608171818AE494E10E9477
:103E5000220869E777E08AE494E10E9453086091C0
:103E60000606709107068AE494E10E940A086CEA4B
:103E70007FE08AE494E10E94530840912914509114
:103E80002A1460912B1470912C148AE494E10E94FE
:103E9000F6076DEB7FE08AE494E10E945308D301BA
:103EA00056964D915D916D917C9159978AE494E17C
:103EB0000E94F60766EB7BE08AE494E10E94220808
:103EC0006EEC7FE08AE494E10E9422086DEE7FE0D0
:103ED0008AE494E10E9422086CE070E18AE494E1B3
:103EE0000E94220866EB7BE08AE494E10E942208AB
:103EF0006BE270E18AE494E10E9422086FED76E0C3
:103F00008AE494E10E94220861E080910806909181
:103F100009060E945B0800910806109109060E949C
:103F200056076AE470E180E00E945209809107061A
:103F30008F93809106068F93F801EE0FFF1FE459CF
:103F4000F94F81818F9380818F9380E19AE09F93D5
:103F50008F931F9215E11F93DF92CF920E944E26FE
:103F600061E080E00E942407B6018EEA96E10E949B
:103F7000530860E670E182E00E94520980910A06CF
:103F800090910B060FB6F894DEBF0FBECDBF97FD24
:103F90002EC0F89EF001F99EF00D1124E050FE4F66
:103FA000DF01569613968C9113978F9312968C91EE
:103FB00012978F9311968C918F9386898F9385E7B3
:103FC00090E19F938F931F921F93DF92CF920E9455
:103FD0004E2663E080E00E942407B6018EEA96E157
:103FE0000E9453080FB6F894DEBF0FBECDBF60E04D
:103FF00081E00E94E9068CE090E090934914809360
:1040000048140E94AA0460933E1470933F14809356
:104010004014909341148DE296E10E94D00E0E94CC
:10402000AA0400913E1410913F1420914014309145
:104030004114601B710B820B930B61327F4B8240EA
:10404000910510F40C94031780910A0690910B06C9
:1040500097FD13C00091291410912A1420912B145C
:1040600030912C1440910606509107066091080685
:1040700070910906E12C0E94540D0E9471090E9462
:104080003B0860E080910806909109060E945B0859
:104090008DE296E10E94D00E1092271489C997FDF7
:1040A0000BC040910606509107066091080670917A
:1040B0000906E12C0E94540D0E94560765E870E144
:1040C00080E00E94520964E970E181E00E94520997
:1040D00080910A0690910B0697FD30C027E6289F35
:1040E000F001299FF00D1124E050FE4FDF0156969C
:1040F00013968C9113978F9312968C9112978F939E
:1041000011968C918F9386898F9389EA90E19F9382
:104110008F931F9285E18F93DF92CF920E944E265C
:1041200062E080E00E942407B6018EEA96E10E94D8
:1041300053080FB6F894DEBF0FBECDBF6CEB70E135
:1041400083E00E94520961E080E00E94E9060E943B
:104150003B0860E080910806909109060E945B0888
:104160008DE090E04ACF0E94AA0480903E14909087
:104170003F14A0904014B0904114681979098A093D
:104180009B09613D77408105910510F40C9403175C
:104190000E94560780910A0690910B0697FDC8C0B1
:1041A00027E6289FB001299F700D11246C5F7D4F79
:1041B0004BE050E0C2010E943F261FA6F201819110
:1041C000803209F0AEC0F201E00FF11F10825F9261
:1041D0004F928DEC90E19F938F931F9215E11F9367
:1041E000DF92CF920E944E26B60180E00E945209D3
:1041F00080910A0690910B0627E6289FF001299FDF
:10420000F00D1124E050FE4FDF01569613968C916D
:1042100013978F9312968C9112978F9311968C917E
:104220008F9386898F9385E790E19F938F931F9259
:104230001F93DF92CF920E944E2661E080E00E94A1
:104240002407B6018EEA96E10E9453080FB6F8944F
:10425000DEBF0FBECDBF63EE70E182E00E94520967
:1042600068EF70E183E00E94520960E081E00E9403
:10427000E906E0900A06F0900B06F7FC4EC06FEDE1
:1042800076E08AE494E10E94220867E071E18AE422
:1042900094E10E9422086FED76E08AE494E10E94A6
:1042A00022086AE97BE08AE494E10E94530887E6E9
:1042B0008E9D80018F9D100D1124B8016C5F7D4F84
:1042C0008AE494E10E94220866EA7BE08AE494E1B1
:1042D0000E945308F801E050FE4F46895789608DCF
:1042E000718D8AE494E10E94F60766EB7BE08AE434
:1042F00094E10E94220866E271E18AE494E10E945E
:10430000220865E471E18AE494E10E9422086FEDDD
:1043100076E08AE494E10E94220881E190E00C9426
:10432000C4160F5F1F4F0B30110509F048CF4FCF58
:104330006AED70E180E00E9452098DCF0E94AA04CC
:1043400000913E1410913F1420914014309141147B
:10435000601B710B820B930B613D774081059105CA
:1043600010F40C9403172FEF3FEF30930B062093BC
:104370000A060E94C609109249141092481460E07F
:104380000C942A190E94AA0400913E1410913F1423
:104390002091401430914114601B710B820B930BE0
:1043A000693873418105910510F40C9403170E943C
:1043B0003B0810923D1410923C1490E080E00C9465
:1043C00015180E94AA0400913E1410913F142091E8
:1043D000401430914114601B710B820B930B6938B0
:1043E00073418105910510F40C940317E2CFFF206F
:1043F00011F40C94031780910A0690910B0697FD17
:1044000029C027E6289FF001299FF00D1124EB59C0
:10441000FD4F6081718116161706E4F453E2809116
:104420003A1490913B140196F51651F08AE2F81275
:1044300011C080913A1490913B140197860F971FF9
:104440000E94E82390933B1480933A140E94E00961
:104450000C94031790E3F9120C94031780913C1409
:1044600090913D140C94151861700C94BD15109327
:104470000B0600930A066FED76E08AE494E10E9451
:10448000220864E671E18AE494E10E9422086FED5B
:1044900076E08AE494E10E9422086AE97BE08AE4FB
:1044A00094E10E945308B7016C5F7D4F8AE494E168
:1044B0000E94220863E871E18AE494E10E945308B3
:1044C000B5018AE494E10E94220866EA7BE08AE46E
:1044D00094E10E94530887E6809FF001819FF00DD0
:1044E0001124E050FE4F46895789608D718D8AE412
:1044F00094E10E94F60766EB7BE08AE494E10E9477
:1045000022086FE871E18AE494E10E9422086EEAD1
:1045100071E18AE494E10E9422086FED76E08AE47A
:1045200094E10E94220810923D1410923C1490E0F5
:1045300080E00E94A70C83E090E090934914809360
:1045400048140C94EA168DE296E10E94D10D83E3A3
:1045500096E10E94D10D89E396E10C94D10D8F92E2
:104560009F92AF92BF92CF92DF92EF92FF92CF9342
:10457000DF93EC01688179818A819B8161157105E6
:104580008105910521F464E279ED8BE597E02DE159
:1045900033EF41E050E00E94852349015A019B011D
:1045A000AC01A7EAB1E40E94A4236B017C01ACEE4C
:1045B000B4EFA50194010E94B223C60ED71EE81ED7
:1045C000F91EF7FE06C081E0C81AD108E10880E8AC
:1045D000F80AC882D982EA82FB82C701B6019F77B6
:1045E000DF91CF91FF90EF90DF90CF90BF90AF9091
:1045F0009F908F9008958F929F92AF92BF92CF928B
:10460000DF92EF92FF9260911F06709120068091D9
:10461000210690912206611571058105910521F40D
:1046200064E279ED8BE597E02DE133EF41E050E076
:104630000E94852349015A019B01AC01A7EAB1E41C
:104640000E94A4236B017C01ACEEB4EFA5019401A0
:104650000E94B223C60ED71EE81EF91EF7FE06C042
:1046600081E0C81AD108E10880E8F80AC0921F0664
:10467000D0922006E0922106F0922206C701B601F0
:104680009F77FF90EF90DF90CF90BF90AF909F907B
:104690008F90089560931F067093200680932106E3
:1046A000909322060895FC0188279927E894219188
:1046B0002032E9F3293010F02E30C8F32B3241F0CC
:1046C0002D3239F4689404C00E947123820F911D29
:1046D000219120532A30C0F31EF4909581959F4F6D
:1046E00008957AE0979F902D879F802D910D11243A
:1046F000089591110C948223803219F089508550CD
:10470000C8F70895992788270895052E97FB1EF46A
:1047100000940E949C2357FD07D00E94B72307FCFA
:1047200003D04EF40C949C235095409530952195E0
:104730003F4F4F4F5F4F08959095809570956195CD
:104740007F4F8F4F9F4F08950E94D923A59F900DB3
:10475000B49F900DA49F800D911D11240895B7FF63
:104760000C94A4230E94A423821B930B0895A1E21E
:104770001A2EAA1BBB1BFD010DC0AA1FBB1FEE1FDB
:10478000FF1FA217B307E407F50720F0A21BB30B26
:10479000E40BF50B661F771F881F991F1A9469F7A2
:1047A00060957095809590959B01AC01BD01CF01FE
:1047B0000895A29FB001B39FC001A39F700D811DFA
:1047C0001124911DB29F700D811D1124911D08951A
:1047D00097FB072E16F4009407D077FD09D00E94AE
:1047E000042407FC05D03EF4909581959F4F0895D1
:1047F000709561957F4F0895EE0FFF1F881F8BBF47
:104800000790F691E02D1994AA1BBB1B51E107C03C
:10481000AA1FBB1FA617B70710F0A61BB70B881F50
:10482000991F5A95A9F780959095BC01CD010895DF
:104830000F931F93CF93DF938230910510F482E0A2
:1048400090E0E091BC16F091BD1630E020E0B0E0C1
:10485000A0E0309799F42115310509F44AC0281BCE
:10486000390B24303105D8F58A819B81611571059A
:1048700089F1FB0193838283FE0111C04081518144
:104880000281138148175907E0F04817590799F436
:10489000109761F012960C93129713961C93329610
:1048A000CF01DF91CF911F910F9108950093BC1616
:1048B0001093BD16F4CF2115310551F0421753075F
:1048C00038F0A901DB019A01BD01DF01F801C1CF78
:1048D000EF01F9CF9093BD168093BC16CDCFFE01AA
:1048E000E20FF31F8193919322503109398328837A
:1048F000D7CF2091BA163091BB16232B41F42091CB
:104900002506309126063093BB162093BA162091C7
:104910002306309124062115310541F42DB73EB709
:104920004091270650912806241B350BE091BA16BA
:10493000F091BB16E217F307A0F42E1B3F0B2817CC
:10494000390778F0AC014E5F5F4F2417350748F008
:104950004E0F5F1F5093BB164093BA1681939193ED
:104960009FCFF0E0E0E09CCFCF93DF930097E9F09A
:10497000FC01329713821282A091BC16B091BD1631
:10498000ED0130E020E01097A1F420813181820F09
:10499000931F2091BA163091BB162817390709F0DA
:1049A00061C0F093BB16E093BA16DF91CF910895E2
:1049B000EA01CE17DF07E8F54A815B819E014115C8
:1049C0005105B1F7E901FB83EA8349915991C40F7D
:1049D000D51FEC17FD0761F4808191810296840F49
:1049E000951FE90199838883828193819B838A83C0
:1049F000F0E0E0E012968D919C9113970097B9F545
:104A00002D913C911197CD010296820F931F209119
:104A1000BA163091BB162817390739F6309751F579
:104A20001092BD161092BC16B093BB16A093BA1686
:104A3000BCCFD383C28340815181840F951FC81797
:104A4000D90761F44E5F5F4F88819981480F591FE4
:104A5000518340838A819B81938382832115310511
:104A600009F0B0CFF093BD16E093BC169ECFFD01C8
:104A7000DC01C0CF13821282D7CF4F925F926F9228
:104A80007F928F929F92AF92BF92CF92DF92EF92DE
:104A9000FF920F931F93CF93DF938C01009799F4AC
:104AA000CB01DF91CF911F910F91FF90EF90DF909D
:104AB000CF90BF90AF909F908F907F906F905F90BE
:104AC0004F900C941824FC01E60FF71F9C01225014
:104AD0003109E217F30708F4AEC0D901CD91DC919A
:104AE0001197C617D70720F1C530D10578F0CE0150
:104AF00004978617970750F0C61BD70B2297C193D0
:104B0000D1936D937C93CF010E94B424C801DF91AF
:104B1000CF911F910F91FF90EF90DF90CF90BF90BA
:104B2000AF909F908F907F906F905F904F9008957F
:104B30005B01AC1ABD0A4C018C0E9D1EA091BC16E7
:104B4000B091BD16512C412CF12CE12C109731F570
:104B50008091BA169091BB168815990509F05CC032
:104B60004616570608F058C08091230690912406F7
:104B7000009741F48DB79EB74091270650912806C3
:104B8000841B950BE817F90708F055C0F093BB1686
:104B9000E093BA16F90171836083B8CF8D919C912F
:104BA000119712966C90129713967C901397A815F4
:104BB000B90559F56C0142E0C40ED11CCA14DB04DE
:104BC00020F1AC014A195B09DA011296159780F0C1
:104BD0006282738251834083D9016D937C93E11487
:104BE000F10471F0D7011396FC93EE9312978ECFD8
:104BF00022968C0F9D1FF90191838083F301EFCFE3
:104C0000F093BD16E093BC1681CF4816590608F400
:104C10002C017D01D3019ACFCB010E9418247C0185
:104C2000009749F0AE01B8010E942626C8010E94F3
:104C3000B42487016BCF10E000E068CF9111089594
:104C400081568A5108F4805285580895FB01DC0191
:104C500002C001900D9241505040D8F70895FB01D9
:104C6000DC018D91019080190110D9F3990B089501
:104C7000FB01DC0101900D920020E1F70895FB019A
:104C8000DC014150504048F001900D920020C9F7DE
:104C900001C01D9241505040E0F708950F931F93BB
:104CA000CF93DF93CDB7DEB72E970FB6F894DEBF64
:104CB0000FBECDBF0E891F89888D998D26E02C836C
:104CC0001A83098397FF02C080E090E801979E83D2
:104CD0008D83AE01445E5F4F6A8D7B8DCE01019660
:104CE0000E948B264D815E8157FD0AC02F81388539
:104CF000421753070CF49A01020F131FF801108298
:104D00002E960FB6F894DEBF0FBECDBFDF91CF91C8
:104D10001F910F9108952F923F924F925F926F9241
:104D20007F928F929F92AF92BF92CF92DF92EF923B
:104D3000FF920F931F93CF93DF9300D000D000D04A
:104D40001F921F92CDB7DEB77C013B018A01FC01A7
:104D500017821682838181FFDDC1CE0101965C013D
:104D6000F7019381F30193FD859193FF81913F01B9
:104D7000882309F453C1853239F493FD859193FF5B
:104D800081913F01853229F4B70190E00E94A32868
:104D9000E7CF912C212C312CFFE1F31538F08B3229
:104DA00011F190F4803209F1833229F137FC3CC0D3
:104DB00020ED280F2A3050F536FE20C08AE0989E5C
:104DC000200D1124922E06C08D3291F0803371F7A0
:104DD000689430F8F30193FD859193FF81913F0131
:104DE0008111DACF21C0689431F8689432F8F2CF9B
:104DF000689433F8EFCF689434F8ECCFEAE02E9E55
:104E0000200D1124222E689435F8E4CF8E3229F437
:104E100036FC04C1689436F8DDCF8C3619F46894FA
:104E200037F8D8CF8836B1F2982F9F7D95549330BC
:104E3000E0F08336A1F18337C1F1833509F063C017
:104E40002801F2E04F0E511CF801C080D180692D7D
:104E500070E036FC02C06FEF7FEFC6010E948D2824
:104E60004C01689437F882010AC00C5F1F4FFFE3C2
:104E7000F98388248394912C6501E89437F833FEF4
:104E80002DC0522C8114910471F5552009F468CF7E
:104E9000B70180E290E00E94A3285A94F6CFF8016F
:104EA000808189830E5F1F4FE4CF2801F2E04F0E0F
:104EB000511CF801C080D180692D70E036FC02C021
:104EC0006FEF7FEFC6010E9498284C018201D5CF79
:104ED000B70180E290E00E94A3282A9428141904C4
:104EE00009F0B0F7CECFF60137FC859137FE8191FE
:104EF0006F01B70190E00E94A32851105A94F1E08D
:104F00008F1A9108BFCF843619F0893609F077C01F
:104F1000F80137FE6BC060817181828193810C5FE3
:104F20001F4FF32DFF763F2E97FF09C09095809578
:104F3000709561957F4F8F4F9F4F689437F82AE0A7
:104F400030E0A5010E94D328C82ECA188C2C432C0F
:104F500036FE0CC0E89440F8C91440F434FE05C095
:104F600032FC03C0F32DFE7E4F2E892C44FEAAC0D6
:104F7000FE01EC0DF11D8081803309F09CC0242DD1
:104F8000297E422E842D8870582E43FCAAC040FEF4
:104F9000A4C09C2C821418F42C0C922C981844FE5B
:104FA000A6C0B70180E390E00E94A32842FE09C09A
:104FB00088E790E041FE02C088E590E0B7010E94DA
:104FC000A328C91408F49FC0CA94D12C9FEFC91A12
:104FD000D90ACA0CDB1CF60182916F01B70190E07F
:104FE0000E94A328AC14BD04B1F74FCF608171813A
:104FF000072E000C880B990B0E5F1F4F92CFD32CFE
:10500000E894D4F82AE030E08537E1F1232D297FB8
:10501000D22E8F36A9F1F0F4883551F1F70186814F
:1050200097812B960FB6F894DEBF0FBECDBFDF91F0
:10503000CF911F910F91FF90EF90DF90CF90BF9095
:10504000AF909F908F907F906F905F904F903F9028
:105050002F900895803749F0883701F7D4FE02C0B9
:105060006894D2F820E130E00DC06894D4F8F6CF0F
:1050700034FE03C0822F8660D82E20E132E002C0C9
:1050800028E030E0F801D7FE0FC060817181828195
:1050900093810C5F1F4FA5010E94D328C82ECA1808
:1050A0003D2CE89437F852CF6081718190E080E028
:1050B0000E5F1F4FF0CF42FC02C0839463CF8394F6
:1050C000839460CF842D867809F45CCFF6CFB70146
:1050D00080E290E00E94A32883948214C0F3512CB4
:1050E0005ECF522C5818821408F459CFF8CF842D73
:1050F000867809F466CF8BE241FE80E247FC8DE2C0
:10510000B70190E05CCFB70180E390E00E94A32854
:105110009A9457CF8FEF9FEF84CFFC010590615099
:1051200070400110D8F7809590958E0F9F1F0895BD
:10513000FC016150704001900110D8F78095909566
:105140008E0F9F1F08950F931F93CF93DF93182FF8
:10515000092FEB018B8181FD09C01FEF0FEF812F1C
:10516000902FDF91CF911F910F91089582FF14C06E
:105170002E813F818C819D81281739073CF4E8817D
:10518000F981CF0101969983888310838E819F8155
:1051900001969F838E83E3CFE885F985812F19954A
:1051A000892BA1F3DACFFA01AA27283051F1203157
:1051B00081F1E8946F936E7F6E5F7F4F8F4F9F4FAB
:1051C000AF4FB1E03ED0B4E03CD0670F781F891FED
:1051D0009A1FA11D680F791F8A1F911DA11D6A0FBB
:1051E000711D811D911DA11D20D009F468943F916E
:1051F0002AE0269F11243019305D3193DEF6CF016D
:105200000895462F4770405D4193B3E00FD0C9F732
:10521000F6CF462F4F70405D4A3318F0495D31FD9F
:105220004052419302D0A9F7EACFB4E0A6959795F2
:10523000879577956795BA95C9F7009761057105C8
:1052400008959B01AC010A2E069457954795379512
:105250002795BA95C9F7620F731F841F951FA01D6C
:10526000089511E0C5E7D1E000E006C0802FFE01FF
:105270000E94FC232196011DC637D10780E0080754
:06528000A9F7F894FFCF2E
:1052860030303100476976656E20456C69610000F3
:1052960000000000000050C30000010000000000F4
:1052A60000000000000000000000000000000000F8
:1052B60000000000000000000000000000000000E8
:1052C60000000000000000000000000000000000D8
:1052D60000000000000000000000000000000000C8
:1052E600000000000000003030320049737261682F
:1052F6002054656368000000000000000050C300F1
:105306000001000000000000000000000000000096
:105316000000000000000000000000000000000087
:105326000000000000000000000000000000000077
:105336000000000000000000000000000000000067
:1053460000000000000000000000000000003030F7
:1053560033004A554D412053616C696D00000000D1
:105366000000000050C30000010000000000000023
:105376000000000000000000000000000000000027
:105386000000000000000000000000000000000017
:105396000000000000000000000000000000000007
:1053A60000000000000000000000000000000000F7
:1053B600000000000030303400426172616B6120F1
:1053C6004A756D610000000000000050C300000136
:1053D60000000000000000000000000000000000C7
:1053E60000000000000000000000000000000000B7
:1053F60000000000000000000000000000000000A7
:105406000000000000000000000000000000000096
:1054160000000000000000000000000030303500F1
:105426005A61696E6162204A756D61000000000074
:10543600000050C300000100000000000000000052
:105446000000000000000000000000000000000056
:105456000000000000000000000000000000000046
:105466000000000000000000000000000000000036
:105476000000000000000000000000000000000026
:105486000000003030360048617373616E204D773E
:10549600616D6261000000000050C3000001000061
:1054A60000000000000000000000000000000000F6
:1054B60000000000000000000000000000000000E6
:1054C60000000000000000000000000000000000D6
:1054D60000000000000000000000000000000000C6
:1054E6000000000000000000000030303700526568
:1054F60068656D61204D617374657200000000007F
:1055060050C3000001000000000000000000000081
:105516000000000000000000000000000000000085
:105526000000000000000000000000000000000075
:105536000000000000000000000000000000000065
:105546000000000000000000000000000000000055
:1055560000303038004B656D626F204D61737465A5
:105566007200000000000050C300000100000000AF
:105576000000000000000000000000000000000025
:105586000000000000000000000000000000000015
:105596000000000000000000000000000000000005
:1055A60000000000000000000000000000000000F5
:1055B6000000000000000000303039004D617279B3
:1055C600616D20497372610000000000000050C345
:1055D60000000100000000000000000000000000C4
:1055E60000000000000000000000000000000000B5
:1055F60000000000000000000000000000000000A5
:105606000000000000000000000000000000000094
:105616000000000000000000000000000000003054
:105626003130005975737566204B656D626F0000E9
:10563600000000000050C300000100000000000050
:105646000000000000000000000000000000000054
:105656000000000000000000000000000000000044
:105666000000000000000000000000000000000034
:105676000000000000000000000000000000000024
:105686000000000000000100FFFFFFFF0A090804F8
:105696000506073132333435363738392A30230197
:1056A6000000000000BE16800000004000140054F8
:1056B600002020200000EE11031218122D124212B3
:1056C60057126C1281129612AB120A00AF12C21256
:1056D6001400C612D8123200DC12FE111312281260
:1056E6003D12521267127B129112A612EA12F6129C
:1056F600021311131F132A13321342134F13881365
:10570600000070170000B80B0000C4090000581B09
:105716000000401F0000E02E0000E8030000DC054A
:10572600000000000000B802F5013B0205036C0210
:105736004A025E0200000000D005A305E6067905D0
:105746009C0589057A05000000004F040F04DE035E
:10575600000000006107F501E60612050D0A003D8E
:105766003D3D3D3D3D3D3D3D3D3D3D3D3D3D3D3D63
:105776003D3D3D3D3D3D3D3D3D3D3D3D3D002020CA
:10578600202020204F524445522043414E43454C51
:105796004C4544202020202020202020002020507E
:1057A60061796D656E7420776173206E6F74206DFC
:1057B6006164652E2020202020202000202020202B
:1057C600534D4152542043414645202D20524543D6
:1057D6004549505420202020202000202043757366
:1057E600746F6D65723A2000202D200020204974C8
:1057F600656D202020203A20002020517479202039
:105806002020203A20002020537562746F74616C4A
:105816003A2054736820002020446973636F756EC4
:10582600743A202D0025203D205473682000202046
:105836002D2D2D2D2D2D2D2D2D2D2D2D2D2D2D2D92
:105846002D2D2D2D2D2D2D2D2D2D2D2D00202054A2
:105856004F54414C2020203A2054736820002020C9
:1058660053544154555320203A202A2A2050414966
:1058760044202A2A2020202020202020200020200A
:10588600506C656173652070726570617265207415
:105896006865206F726465722120202000202053E5
:1058A600544154555320203A2043414E43454C4CD5
:1058B600454420202020202020202020004F524434
:1058C60045522043414E43454C4C454400506C657F
:1058D6006173652074727920616761696E006F7209
:1058E6002061736B20612077616974657200594F7E
:1058F60055522053454C454354494F4E3A00507239
:105906006963653A205473682000233D436F6E66D1
:1059160069726D2020202A3D4261636B2020002A97
:105926002A20534D4152542043414645202A2A00FD
:105936004F52444552202620504159205359535422
:10594600454D0057656C636F6D6521005072657338
:105956007320616E79206B65792E2E2E0050414999
:105966004420200043414E434C44004E4F204355B3
:1059760053544F4D4552002D204F52444552204816
:105986004953544F5259202573202D004E6F206FD6
:1059960072646572732079657400303D4261636B91
:1059A60020746F206D656E7500252D32307300787A
:1059B6002564202054736820252D31326C6400251F
:1059C60073202025642F256420202A2F233D627210
:1059D6006F77736500454E544552204F545020282A
:1059E60034206469676974732900202020205B20B5
:1059F6002573205D2020202000417474656D70742D
:105A06003A2025642F2564202020202020202020D5
:105A160020002A3D436C6561722020233D436F6E52
:105A26006669726D2020004841564520412050523B
:105A36004F4D4F20434F44453F00456E74657220DD
:105A4600636F64652062656C6F77006F7220232038
:105A5600746F20736B6970003E20252D31367300FC
:105A6600233D436F6E6669726D002A3D436C656126
:105A7600722020233D436F6E74696E756520005356
:105A8600454C454354205155414E544954593A00CA
:105A9600252D313373202078256400546F74616C92
:105AA6003A2054736820252D396C6400312D393D18
:105AB6005174792020233D4F4B20202A3D426B20F4
:105AC60000454E54455220594F5552204944002016
:105AD600202020205B202573205D202020202020F0
