:100000000C943F130C94AE580C9483580C9458588D
:100010000C942D580C9402580C94D7570C94AC5750
:100020000C9481570C9470130C9470130C947013EF
:100030000C9470130C9470130C9470130C94701334
:100040000C9470130C9470130C9470130C94701324
:100050000C9470130C9470130C9470130C94375709
:100060000C9470130C9401570C94D7560C94701385
:100070000C9470130C9470130C9470130C947013F4
:100080000C9470130C9470130C9470130C947013E4
:100090000C94A1560C9477560C9470130C94D95868
:1000A0000C9470130C9470130C9470130C947013C4
:1000B0000C9470130C9470130C9470130C947013B4
:1000C0000C9470130C9470130C9470130C947013A4
:1000D0000C9470130C9470130C9470130C94701394
:1000E0000C9470130C947E700C94051C0C94A61345
:1000F0000C9470150C9486150C94EE150C94711DCF
:100100000C94E0140C945D150C9451140C942E1660
:100110000C94EB5D0C944B150C9493140C941F1CD5
:100120000C944C1C0C94181C0C9457160C94F31340
:100130000C9482150C9455150C94CB160C942F141A
:100140000C9490150C948C150C940E1A0C94B913F5
:100150000C9466150C9420140C9451150C94601595
:100160000C9478150C94F51B0C94741D0C94741558
:100170000C948B150C9459150C949C130C949D1392
:100180000C94B0190C9443140C94F81E0C946A153A
:100190000C94F61B0C947E150C94BD154E414E49E3
:1001A0004E495459494E46CDCCCC3D0AD7233C1735
:1001B000B7D13877CC2B329595E6241FB14F0A0082
:1001C0000020410000C84200401C4620BCBE4CCA72
:1001D0001B0E5AAEC59D7400407A10F35A00A072EF
:1001E0004E18090010A5D4E80000E8764817000072
:1001F000E40B54020000CA9A3B000000E1F5050040
:100200000080969800000040420F000000A0860188
:10021000000000102700000000E803000000006458
:1002200000000000000A00000000000100000000C3
:10023000002C76D888DC674F0823DFC1DFAE59E198
:10024000B1B796E5E3E453C63AE651997696E8E607
:10025000C28426EB898C9B62ED407C6FFCEFBC9CDA
:100260009F40F2BAA56FA5F490055A2AF75C936BEC
:100270006CF9676DC11BFCE0E40D47FEF520E6B5A7
:1002800000D0ED902E0300943577050080841E0881
:100290000000204E0A000000C80C333333330F989F
:1002A0006E12831141EF8D2114893BE65516CFFE66
:1002B000E6DB18D1844B381BF77C1D901DA4BBE4F2
:1002C00024203284725E228100C9F124ECA1E53D34
:1002D000275072652D436C6F7365204F666673659A
:1002E000742073617665643A2000454550524F4D45
:1002F000207772697465206661696C656420666F39
:100300007220666C6F7743616C6962726174696FA9
:100310006E466163746F7221205265747279696EE2
:10032000672E2E2E00454550524F4D20777269742E
:1003300065206661696C656420666F722070726901
:1003400063655065724C69746572212052657472E0
:1003500079696E672E2E2E004341524453544F52FA
:10036000453A0053544F5245445F43415244533A37
:10037000002000436F6D6D616E64733A20277072C8
:10038000696365272C202763616C666163746F72F3
:10039000272C2027707265636C6F7365272C2027CC
:1003A00073657470686F6E65272C202762616C61BD
:1003B0006E6365272C20277265736574272C2027B0
:1003C0006E657770617373272C2027757365727063
:1003D000617373272C202741444443415244272C06
:1003E000202741444442414C414E4345272C20277D
:1003F00044454C455445434152443A3C6E616D6519
:100400003E272C202744454C455445414C4C434104
:100410005244533A3C70617373776F72643E272C79
:100420002027434152444C495354272C20276578B8
:100430006974270020005072652D436C6F7365202E
:100440004F6666736574206C6F616465643A200062
:10045000200050686F6E653A200043616C696272DB
:100460006174696F6E20466163746F723A20005048
:10047000726963652F4C203A2054736820004375DD
:100480007272656E7420446174613A00200020002D
:10049000436F6D6D616E64733A202741444443415C
:1004A0005244272C202741444442414C414E43456D
:1004B000272C202765786974270020002000436FCF
:1004C0006E746163743A202B3235353736373833E2
:1004D00030333139005448414E4B5320464F52205F
:1004E0005452555354494E472044757261626C65AD
:1004F0002057617465722056656E6473005265748E
:1005000075726E656420746F20576F726B204D6F2B
:1005100064652E00416C6C206461746120736176A7
:1005200065642100200020002000456E7465722063
:100530002744454C455445414C4C43415244533A61
:100540003C70617373776F72643E27002000456EC4
:10055000746572202744454C455445434152443A02
:100560003C6E616D653E2700200020004F722073B5
:10057000656E64206F7468657220636F6D6D616E67
:1005800064732E00456E7465726564205365742033
:1005900050686F6E65204D6F64653A2053656E64D8
:1005A0002070686F6E65206E756D626572202865BB
:1005B0002E672E2C202B32353537363738333033F3
:1005C000313929002000200053656E64206F746863
:1005D000657220636F6D6D616E64732E0020005430
:1005E0006F74616C2053616C6573206E6F773A2075
:1005F0005473682000200053616C6573207265732A
:10060000657421002000200053656E64206F7468BB
:10061000657220636F6D6D616E64732E00200054EF
:100620006F74616C2053616C65733A205473682059
:100630000020002000456E74657265642055736566
:10064000722050617373776F7264204368616E67C4
:1006500065204D6F64653A2053656E64206E657742
:1006600020757365722070617373776F72642028D0
:10067000342D31352063686172616374657273294A
:100680000020002000456E7465726564205061731F
:1006900073776F7264204368616E6765204D6F6485
:1006A000653A2053656E64206E65772070617373C0
:1006B000776F72642028342D313520636861726150
:1006C00063746572732900200020004F72207365E7
:1006D0006E64206F7468657220636F6D6D616E6407
:1006E000732E00456E74657265642043616C6663A9
:1006F000746F72204D6F64653A2053656E64206696
:100700006163746F722028652E672E2C20372E357A
:100710002900200020004F722073656E64206F74E2
:1007200068657220636F6D6D616E64732E00456E37
:100730007465726564205072696365206D6F6465CD
:100740003A2053656E642070726963652028652EB7
:10075000672E2C2036302E302900200020005765CF
:100760006B61206B61646920736173612E2E2E00B2
:100770004552524F523A436172642072656164651A
:1007800072202852464944292069732064697361A4
:10079000626C6564206F6E2074686973206D61639C
:1007A00068696E650020004F722073656E642027B3
:1007B000582720746F2063616E63656C2E00456E50
:1007C0007465726564204164642043617264204DE5
:1007D0006F64653A2053656E6420637573746F6D42
:1007E0006572206E616D6520286D6178203134203E
:1007F0006368617261637465727329002000200070
:100800004F722073656E642027582720746F206311
:10081000616E63656C2E00456E746572656420417F
:1008200064642042616C616E6365204D6F64653A5B
:100830002053656E6420637573746F6D6572206EEE
:10084000616D65004F4E47455A412053414C494F19
:1008500000456E7465726564204164642042616C79
:10086000616E6365204D6F64653A205363616E204D
:10087000637573746F6D65722063617264206F724B
:100880002073656E6420637573746F6D6572206E7E
:10089000616D65002000200053656E6420616D6FFE
:1008A000756E7420746F206164642028652E672E35
:1008B00020313030302900200054696D656F757427
:1008C0002E2052657475726E656420746F206D659C
:1008D0006E752E0029005D202841534349493A2076
:1008E0000044697363617264656420636861723A8D
:1008F000205B00200053656E642064656661756C42
:1009000074206F72206E65772070617373776F72D9
:10091000642E0050617373776F7264207265736523
:100920007420746F2064656661756C74210020000A
:1009300050617373776F726420616E64206F776E9D
:100940006572206E756D62657220726573657420C4
:10095000746F2064656661756C742E004341524467
:10096000544F5055503A004552524F523A436172DB
:1009700064204E6F7420466F756E640043616E6331
:10098000656C6C65642E2042616C616E6365206EDF
:100990006F74206368616E6765642E002000536584
:1009A0006E6420275945532720746F20636F6E664D
:1009B00069726D206F722027582720746F20636141
:1009C0006E63656C0020004552524F523A496E7674
:1009D000616C696420416D6F756E742E2053656E75
:1009E0006420616D6F756E7420616761696E3A0095
:1009F0004552524F523A43617264204E6F74204602
:100A00006F756E642E2053656E64206E616D652077
:100A1000616761696E2C207363616E20636172642B
:100A20002C206F72202758270057616974696E6700
:100A300020666F722063617264207363616E2E2E74
:100A40002E202873656E642027582720746F20633A
:100A5000616E63656C290053414A494C49204B4102
:100A60004449204D5059410020005363616E20528B
:100A70004649442063617264206E6F772E2E2E00EB
:100A800020004552524F523A496E76616C6964209B
:100A9000416D6F756E742E2053656E642062616CBB
:100AA000616E636520616761696E3A00200053657D
:100AB0006E6420696E697469616C2062616C616E3C
:100AC00063652028652E672E20313030302C206F52
:100AD000722030290020004552524F523A4E616D2B
:100AE0006520416C726561647920557365642E20C0
:100AF00053656E6420616E6F74686572206E616DFF
:100B0000653A004552524F523A496E76616C6964BB
:100B1000204E616D652028312D313420636861726B
:100B20006163746572732C206E6F20273A27292E1B
:100B30002053656E64206E616D6520616761696E2A
:100B40003A0043616E63656C6C65642E00534554D6
:100B50005052453A00436172642044656C65746587
:100B60006400535543434553533A436172642044F0
:100B7000656C657465640043617264204E6F742017
:100B8000466F756E64004552524F523A436172642B
:100B9000204E6F7420466F756E6400454550524F6D
:100BA0004D20436172647320436C6561726564001B
:100BB00053455450524943453A0053455443414CE0
:100BC0003A002000496E76616C696420636F6D6D38
:100BD000616E64212053656E642020277072696302
:100BE00065272C202773657470686F6E65272C202D
:100BF0002763616C666163746F72272C20276E65B2
:100C00007770617373272C20277573657270617319
:100C100073272C202741444443415244272C20274A
:100C200041444442414C414E4345272C20274445F2
:100C30004C45544543415244272C202744454C45BC
:100C40005445414C4C4341524453272C20274341A7
:100C500052444C495354272C206F722027657869E1
:100C600074272E002000496E76616C696420636FE2
:100C70006D6D616E64212053656E6420277072690A
:100C80006365272C202773657470686F6E65272C49
:100C9000202763616C666163746F72272C20277252
:100CA00065736574272C20276E65777061737327D1
:100CB0002C20277573657270617373272C20274170
:100CC000444443415244272C202741444442414C50
:100CD000414E4345272C202744454C45544543412C
:100CE0005244272C202744454C455445414C4C4305
:100CF00041524453272C2027434152444C495354DA
:100D0000272C206F72202765786974272E00200019
:100D100053656E64206F7468657220636F6D6D61DA
:100D20006E64732E00557365722070617373776FF4
:100D30007264206368616E67656420616E6420730D
:100D40006176656421002000200055736572207073
:100D5000617373776F7264206D75737420626520A0
:100D60003420746F2031352063686172616374656B
:100D70007273212054727920616761696E2E0020A0
:100D80000053656E64206F7468657220636F6D6DCB
:100D9000616E64732E0050617373776F72642063A9
:100DA00068616E67656420616E6420736176656456
:100DB00021002000200050617373776F7264206DF2
:100DC000757374206265203420746F203135206380
:100DD0006861726163746572732120547279206155
:100DE0006761696E2E00200053656E64206F746821
:100DF000657220636F6D6D616E64732E0050686F55
:100E00006E65206E756D6265722073657420616E0B
:100E1000642073617665643A200020002000496EEA
:100E200076616C69642070686F6E65206E756D62A6
:100E3000657221204C656E6774682031302D313920
:100E40002063686172732C20652E672E2C202B3254
:100E500035353736373833303331392C206F7220FF
:100E60006F7468657220636F6D6D616E64732E00C0
:100E700020002000496E76616C69642063616C66B5
:100E80006163746F72212053656E642061206E75FA
:100E90006D626572206265747765656E20302E31F3
:100EA00020616E642031302E302C206F72206F74E0
:100EB00068657220636F6D6D616E64732E0053659B
:100EC0006E64206F7468657220636F6D6D616E640F
:100ED000732E00200043616C466163746F7220774B
:100EE000617465722073657420616E64207361762D
:100EF00065643A200020002000496E76616C6964C8
:100F000020707269636520706572206C6974657207
:100F1000212053656E642061206E756D62657220BC
:100F20006265747765656E20302E303120616E64A5
:100F30002031303030302E302C206F72206F7468AA
:100F4000657220636F6D6D616E64732E00200020EA
:100F50000053656E64206F7468657220636F6D6DF9
:100F6000616E64732E005072696365207065722033
:100F70006C697465722073657420616E642073619E
:100F80007665643A2054736820002000496E7661CB
:100F90006C696420636F6D6D616E64212053656EB2
:100FA00064202741444443415244272C2027414494
:100FB0004442414C414E4345272C202765786974B3
:100FC000272E00496E76616C696420636F6D6D61D8
:100FD0006E64212053656E642020277072696365FA
:100FE000272C202763616C666163746F72272C2045
:100FF0002773657470686F6E65272C202762616C9B
:10100000616E6365272C20277265736574272C2019
:10101000276E657770617373272C2027757365724F
:1010200070617373272C2027414444434152442765
:101030002C202741444442414C414E4345272C201B
:101040002744454C455445434152443A3C6E616DFA
:10105000653E272C202744454C455445414C4C4384
:10106000415244533A3C70617373776F72643E2708
:101070002C2027434152444C495354272C202765A8
:10108000786974272E002000436F6E746163743A90
:10109000202B323535373637383330333139005439
:1010A00048414E4B5320464F5220545255535449B9
:1010B0004E472044757261626C6520576174657299
:1010C0002056656E64730052657475726E65642097
:1010D000746F20576F726B204D6F64652E00416CEA
:1010E0006C20646174612073617665642100200066
:1010F0002000556E617574686F72697A656420634B
:101100006F6D6D616E6421002000556E61757468AD
:101110006F72697A656420636F6D6D616E64210022
:10112000200020004552524F523A57726F6E67208E
:1011300050617373776F7264002000200053554331
:10114000434553533A416C6C2043617264732044AD
:10115000656C657465640020004552524F523A4FE9
:10116000776E657220417574686F72697A6174690F
:101170006F6E20526571756972656400556E617598
:1011800074686F72697A656420636F6D6D616E64F7
:1011900021002000200053656E64206F7468657222
:1011A00020636F6D6D616E64732E002000546F7448
:1011B000616C2053616C6573206E6F773A205473B5
:1011C000682000200053616C65732072657365743C
:1011D00021002000556E617574686F72697A6564CC
:1011E00020636F6D6D616E642100200020005365E7
:1011F0006E64206F7468657220636F6D6D616E64DC
:10120000732E002000546F74616C2053616C657301
:101210003A2054736820002000556E617574686F21
:1012200072697A656420636F6D6D616E6421002060
:10123000002000456E7465726564205573657220E8
:1012400050617373776F7264204368616E676520C5
:101250004D6F64653A2053656E64206E6577207526
:101260007365722070617373776F72642028342DF8
:10127000313520636861726163746572732900207F
:1012800000556E617574686F72697A656420636F6A
:101290006D6D616E64210020002000456E746572E2
:1012A00065642050617373776F7264204368616E68
:1012B0006765204D6F64653A2053656E64206E65E6
:1012C000772070617373776F72642028342D313505
:1012D0002063686172616374657273290020005530
:1012E0006E617574686F72697A656420636F6D6D85
:1012F000616E642100200020004F722073656E64CF
:10130000206F7468657220636F6D6D616E64732EFB
:1013100000456E7465726564205365742050686F73
:101320006E65204D6F64653A2053656E6420706869
:101330006F6E65206E756D6265722028652E672E52
:101340002C202B3235353736373833303331392985
:10135000002000556E617574686F72697A6564204B
:10136000636F6D6D616E642100200020004F72205C
:1013700073656E64206F7468657220636F6D6D6154
:101380006E64732E00456E74657265642043616CF3
:1013900020207761746572204D6F64653A20536533
:1013A0006E642063616C6962726174696F6E20663D
:1013B0006163746F722028652E672E2C20372E35BE
:1013C00029002000556E617574686F72697A6564D2
:1013D00020636F6D6D616E642100200020004F72EC
:1013E0002073656E64206F7468657220636F6D6D25
:1013F000616E64732E00456E746572656420507270
:10140000696365207761746572204D6F64653A2069
:1014100053656E6420707269636520706572206C1C
:10142000697465722028652E672E2C2036302E3088
:1014300029002000556E617574686F72697A656461
:1014400020636F6D6D616E642100200020004F727B
:101450002073656E64206F7468657220636F6D6DB4
:10146000616E64732E00456E7465726564205072FF
:10147000652D436C6F7365204D6F64653A2053652D
:101480006E64206F666673657420696E206C697483
:101490006572732028652E672E2C20302E3329008C
:1014A00020002000496E76616C6964206F66667367
:1014B0006574212053656E64206E756D62657220BF
:1014C000302E30202D2031302E30206C6974657222
:1014D000732C206F72206F7468657220636F6D6D5E
:1014E000616E64732E002000200053656E64206FCF
:1014F0007468657220636F6D6D616E64732E002079
:101500006C6974657273005072652D636C6F7365DE
:10151000206F66667365742073657420616E642045
:1015200073617665643A200020002000496E636F85
:1015300072726563742070617373776F72642120B7
:1015400054727920616761696E206F7220707265D4
:10155000737320726573657420666F722035207313
:1015600065636F6E647320746F2072657665727444
:1015700020746F2064656661756C7420706173738C
:10158000776F72642E002000200055736572204D25
:101590006F646500200044757261626C652057615C
:1015A0007465722056656E64733A20436F6E746181
:1015B00063743A202B323535373637383330333190
:1015C0003900200020004F776E6572204D6F6465F2
:1015D00000200044757261626C6520576174657209
:1015E0002056656E64733A20436F6E746163743A7B
:1015F000202B323535373637383330333139002008
:10160000002000436F6E746163743A202B323535CD
:10161000373637383330333139005448414E4B5325
:1016200020464F52205452555354494E472044753A
:101630007261626C652057617465722056656E64D4
:10164000730052657475726E656420746F20576FF5
:10165000726B204D6F64652E00426C7565746F6F00
:1016600074682069646C652074696D656F75742099
:10167000726561636865642E20416C6C20646174DE
:1016800061207361766564210052657475726E69BC
:101690006E6720746F20576F726B00426C756574B3
:1016A0006F6F74682054696D656F757400434152A3
:1016B000445245473A004C4956453A002062616C15
:1016C000616E63653D004341524453594E4320755A
:1016D00070736572743A20004341524453594E432B
:1016E0002064656C6574653A20004D4F42494C4555
:1016F0005041594F4E3A204C697061206B77612000
:1017000053696D7520696D65776173687761206EC7
:10171000612053757065722041646D696E0042618D
:101720006C3A2000436172642053617665643A200C
:10173000004552524F523A53746F726167652046AA
:10174000756C6C005363616E20616E6F74686572B6
:101750002063617264206F722073656E6420275865
:1017600027005363616E20616E6F74686572206339
:101770006172642C2073656E6420637573746F6D81
:101780006572206E616D652C206F722027582700CE
:101790004552524F523A43617264204E6F74204654
:1017A0006F756E64005363616E2052464944204356
:1017B000617264005363616E20616E6F746865725C
:1017C0002063617264206F722073656E64202765E8
:1017D000786974270042616C3A200043617264208A
:1017E00053617665643A20005363616E2052464926
:1017F000442043617264005363616E20616E6F74B4
:101800006865722063617264206F722073656E6414
:1018100020276578697427004361726420457869E0
:10182000737473004552524F523A436172642041BF
:101830006C726561647920457869737473005363D1
:10184000616E2052464944204361726400536361D3
:101850006E20616E6F746865722063617264206FC0
:10186000722073656E642027657869742700456D62
:1018700070747920546167004552524F523A456D59
:1018800070747920546167005363616E6E696E678E
:101890002E2E2E00494E414B41475541204B41448D
:1018A0004900544146414448414C4920535542491E
:1018B000524900413A57454B412053414C494F2032
:1018C000423A4F4E444F410053414C494F3A205405
:1018D000736820004A494E413A200054584E3A431A
:1018E0004F494E3A0054584E3A4D4F42494C4543A9
:1018F0004F494E3A004B41524942552054454E41C2
:10190000004153414E54452053414E4100547368A9
:101910003A004C6974613A004A554D4C4120594196
:10192000204C4954413A004A554D4C413A54736851
:101930002000527564692062616164617965004DBF
:101940004154454E47454E455A4F00576173696CA7
:1019500069616E612041646D696E004D4153484973
:101960004E4520494D4546554E47574100494E4149
:10197000544F41204D414A492E2E2E2E2E2E2E0000
:10198000F09F92B320436172642072656164657256
:101990002028524649442920494D455A494D57412E
:1019A00020E28094206D617368696E652079612002
:1019B0007361726166752070656B65652028696D5D
:1019C0006568696661646869776120454550524F72
:1019D0004D2900F09F92B3204361726420726561CB
:1019E0006465722028524649442920494D45574193
:1019F000534857412028696D656869666164686964
:101A0000776120454550524F4D29004552524F5263
:101A10003A4361726420726561646572202852469F
:101A200049442920696D657A696D776120E2809467
:101A3000207573616A696C69207761206B616469E4
:101A400020756D65736974697368776100F09F94A0
:101A50009220464F52434556414C56453A207661B6
:101A60006C766520696D6566756E67776120286D97
:101A70006D696C696B692900F09F949320464F5201
:101A8000434556414C56453A2076616C766520694F
:101A90006D6566756E67756C69776120286D6D6917
:101AA0006C696B692C206D616A61726962696F296A
:101AB00020E280942069746166756E677761207991
:101AC000656E796577652062616164612079612066
:101AD00073656B756E646520333000F09F94A720AA
:101AE0004D41494E54454E414E4345204D4F44458E
:101AF0003A204F464620286D6D696C696B69292034
:101B0000E280942064697370656E73696E67206902
:101B10006D65727564697368776100F09F94A720A2
:101B20004D41494E54454E414E4345204D4F44454D
:101B30003A204F4E20286D6D696C696B692920E24F
:101B400080942064697370656E73696E6720696D37
:101B50006573696D616D697368776100F09F949337
:101B6000204D617368696E6520696D6566756E6785
:101B7000756C697761206E612053757065722041C4
:101B8000646D696E20E280942064697370656E7381
:101B9000696E6720696E6172756875736977612017
:101BA00074656E612028696D65686966616468693D
:101BB000776120454550524F4D2900F09F94922067
:101BC0004D415348494E4520494D4546554E47578E
:101BD00041206E612053757065722041646D696E9D
:101BE00020E280942064697370656E73696E67206B
:101BF000696D6573696D616D6973687761202869C6
:101C00006D65686966616468697761204545505211
:101C10004F4D29002000200053455454494E47534E
:101C20003A207072652D636C6F7365206D707961F9
:101C3000206B75746F6B61207365727665723A20E4
:101C40000053455454494E47533A2063616C6962CE
:101C5000726174696F6E206D707961206B75746F3D
:101C60006B61207365727665723A20005345545457
:101C7000494E47533A20626569206D707961206B47
:101C800075746F6B61207365727665723A20004FD0
:101C900046464341503A206B696B6F6D6F206B690C
:101CA00070796120636861206F66666C696E653A61
:101CB00020004B41444920494D455A554957410060
:101CC0004B41444920494D454655545741005741E1
:101CD00053494C49414E41204E41204F574E4552A9
:101CE00000574153494C49414E41204E41204F57E6
:101CF0004E4552004B414449204841494A415341D5
:101D00004A494C4957410048414B554E41204D549A
:101D1000414E44414F004B414449204841495041C4
:101D200054494B414E4900574153494C49414E415A
:101D3000204E41204F574E4552004B4144492049C7
:101D40004D455A55495741005343414E204B41445C
:101D5000492054454E41004B41444920494D45508E
:101D60004154494B414E4100413A57454B41205364
:101D7000414C494F20423A4F4E444F410053414C51
:101D8000494F3A2054736820004A494E413A200096
:101D90004A41524942552054454E41004849544910
:101DA0004C414655205941204B41444900202020B8
:101DB000200053414C494F3A205473682000202D95
:101DC0003E2000200053414C494F2053594E433A86
:101DD00020004C697465723A20004D414C49504FC7
:101DE0002059414D4546414E494B49574100496EA6
:101DF000617375626972692E2E2E0057656B6120C2
:101E000050494E206B7574686962697469736861C2
:101E100000414E47414C49412053494D55205941BD
:101E20004B4F004D4F42494C455041594F46463A61
:101E3000204C697061206B77612053696D75206952
:101E40006D657A696D7761206E612053757065727A
:101E50002041646D696E0000002200250028002BDF
:101E6000002E003100340002010000050108010BC2
:101E700001000020002300260029002C002F003242
:101E8000000001000003010601090100000A0B0225
:101E9000090C0D0E080703040100000000000000FB
:101EA0000000000000000000000000000000000032
:101EB00000000000000000121110000000000000EF
:101EC0000000000000000000000000000000000012
:101ED0000000002100240027002A002D00300033DC
:101EE0000001010000040107010A01010210202085
:101EF000080810204010204080020102010804025E
:101F000001010204081020408080402010080402D3
:101F1000018004020180402010080402010804022C
:101F20000101020408102040800102040810204032
:101F30008005050505070508080808020202020ACF
:101F40000A0808040404040101010101010101035C
:101F500003030303030303040707070C0C0C0C0C17
:101F60000C0C0C0202020206060606060606060B0A
:101F70000B0B0B0B0B0B0BE29AA0EFB88F2052430D
:101F8000353232204841494A49425520E280942066
:101F9000616E67616C696120776179612F756D652C
:101FA0006D652028332E33562900E29C852052434C
:101FB00035323220696D65706174696B616E6120C4
:101FC0006E6120696E616A69627500524335323212
:101FD0002076657273696F6E3A20307800507265B2
:101FE0002D436C6F7365204F6666736574206C6F4C
:101FF000616465643A2000F09F92B320436172648B
:1020000020726561646572202852464944293A204D
:10201000494D455A494D57412028454550524F4D4D
:102020002920E28094206D617368696E6520796172
:10203000207361726166752070656B656500F09F45
:1020400092B32043617264207265616465722028D6
:1020500052464944293A20494D4557415348574132
:102060002028454550524F4D29004B696B6F6D6FCD
:1020700020636861206F66666C696E65202845453F
:1020800050524F4D293A2000F09F9492204D617399
:1020900068696E6520696C696B75776120494D458B
:1020A00046554E4757412028454550524F4D29200F
:1020B000E2809420696E6162616B6920696D65667A
:1020C000756E677761206D70616B61205375706507
:1020D000722041646D696E20616966756E67756511
:1020E000003A20456D70747900536C6F7420002C99
:1020F0002042616C616E63653D002C204E616D6510
:102100003D003A205461673D00536C6F74200053CA
:10211000746F7265642043617264733A005072692F
:10212000636520706572204C6974657220004C6F85
:1021300061646564204F776E6572204E756D6265CF
:10214000723A200043616C6962726174696F6E203B
:10215000466163746F723A200020532E572E56202A
:1021600000534D4152544B454D424F205741544529
:10217000522056454E440048423A0020202020205C
:1021800020200053696D753A2000494E4154554D49
:1021900041204F4D42492E2E2E004D4F42494C4575
:1021A0005041593A002020202020202020202020AB
:1021B000202020202020202020004B49415349206E
:1021C0004B49444F474F2053414E4100202020208F
:1021D00020202020202000233A54756D61202042C9
:1021E0003A476861697269004B6961736920547389
:1021F000683A20004C495041204B57412053494DEB
:1022000055002020202020202020202020202020B9
:10221000202020202020004E414D424120534920C3
:1022200053414849484920283130290020202000C6
:1022300053656B756E64653A20004A4152494255B8
:102240002054454E41204241414441450048414BC4
:10225000554E41204A49425500233A456E64656C0B
:10226000656120423A476861697269004E616D623A
:10227000613A20004C495041204B57412053494D71
:102280005500434F494E42414C3A0054584E3A4350
:102290004152443A004B41524942552054454E4127
:1022A000004153414E54452053414E410054736800
:1022B0003A004C6974613A004A554D4C41205941ED
:1022C000204C4954413A004A554D4C413A547368A8
:1022D0002000527564692062616164617965004D16
:1022E0004154454E47454E455A4F00576173696CFE
:1022F00069616E612041646D696E004D41534849CA
:102300004E4520494D4546554E47574100494E419F
:10231000544F41204D414A492E2E2E2E00536361C9
:102320006E204B6164692054656E61004D554441D7
:1023300020554D454953484100413A57454B4120AE
:1023400053414C494F20423A4F4E444F4100534174
:102350004C494F3A2054736820004A494E413A2074
:10236000004D55444120554D4549534841002020DA
:10237000202020202020202020202020202000534A
:10238000414C494F3A2054736820004A494E413A23
:1023900020004D616A692E2E2E2E2E004C69746528
:1023A000723A2000423A4F4E444F4120202A3A468A
:1023B0005554410057454B41204B49415349205406
:1023C00073683A0059414B4F205941204E59554DA1
:1023D00042414E490041552054554D4941204D41FF
:1023E0005348494E4500535542495249204D5441A6
:1023F0004E44414F0057454B4120484144492054E9
:10240000736820004B494B4F4D4F20434841204FAC
:1024100046464C494E4500200053414C494F204808
:10242000414C49544F5348490020004B49415349BE
:10243000204B49444F474F2053414E4100413A57AA
:10244000454B412053414C494F20423A4F4E444F57
:10245000410053414C494F3A2054736820004A4987
:102460004E413A200048414B554E41204B49415383
:1024700049004B61646920496D656F6E646F6C65DE
:10248000776100423A4F4E444F4120202A3A465548
:10249000544100424F4E59455A412023204B55523A
:1024A00055485553556000200057454B41204B4936
:1024B000415349205473683A004B61646920496D67
:1024C000656F6E646F6C65776100545A533A2000F3
:1024D0004F4E47455A412053414C494F004C697477
:1024E00065723A200044697370656E73696E672087
:1024F00057617465722028436F696E73290020202C
:10250000200053414C494F20545A533A2000202078
:1025100020202020202020202020202020202020BB
:1025200020200057454B4120534152414655202021
:102530002020202020202000433A204C49504120D8
:102540004B57412053494D55202020200057454BE3
:102550004120534152414655204155202020202002
:10256000200057454B41204B41444920202020204A
:102570002020202020200057454B4120534152412C
:10258000465520415520202020202000433A204C51
:10259000495041204B57412053494D552020202080
:1025A0000057454B4120534152414655204155204B
:1025B0004B41444920005275646920626161646145
:1025C0007965004D4154454E47454E455A4F005799
:1025D0006173696C69616E612041646D696E004D63
:1025E000415348494E4520494D4546554E47574170
:1025F0000048414B554E4120534855474855524994
:102600000053797374656D20526573657400E28FB1
:10261000B120464F52434556414C56453A207661CB
:102620006C766520696D6566756E677761204B49CC
:102630004F544F4D4154494B49202873656B756E7B
:102640006465203330207A696D657069746120E2B9
:102650008094207573616C616D612900434152441F
:10266000434845434B3A0020202020004F46464C2B
:10267000494E45204D41583A0000EB5D7E701124D3
:102680001FBECFEFD1E2DEBFCDBF00E00CBF17E031
:10269000A0E0B2E0E4EFF5EF00E00BBF02C007906E
:1026A0000D92A63CB107D9F72DE0A6ECB7E001C02A
:1026B0001D92A439B207E1F713E1CEE3D3E100E0C4
:1026C00006C021970109802FFE010E947578CD3345
:1026D000D10780E00807A9F70E941C5F0C94E87AF4
:1026E0000C940000FC01A089B18982E08C93A48540
:1026F000B5851C92A685B7858FEC8C93108EA48926
:10270000B58986E08C93A289B3898C9180618C9382
:10271000A289B3898C9188608C93A289B3898C91AA
:1027200080688C930288F389E02D80818F7D80837F
:1027300008958CBD9DBD089508950895ED9886EA8D
:1027400093E1909355028093540208950895FC01FB
:10275000248135816217730720F48081918100976D
:1027600029F41092DD088DED98E00895860F971FEB
:1027700008950895DC01ED91FC910190F081E02D28
:102780001994DB0114964D915C9115976D917C9194
:10279000DC01ED91FC910280F381E02D1994EF9220
:1027A000FF920F931F93CF93DF938C017B01D0E0B7
:1027B000C0E0F701EC0FFD1F6491662361F0D801C2
:1027C000ED91FC910190F081E02DC8011995892BC4
:1027D00011F02196EECFCE01DF91CF911F910F9195
:1027E000FF90EF900895AF92BF92CF92DF92EF9259
:1027F000FF920F931F93CF93DF936C017B018B01AB
:10280000040F151FEB015E01AE18BF08C017D107FA
:1028100059F06991D601ED91FC910190F081E02D84
:10282000C6011995892B79F7C501DF91CF911F91C9
:102830000F91FF90EF90DF90CF90BF90AF900895F1
:10284000FC01538D448D252F30E0842F90E0821BB6
:10285000930B541710F0CF96089501970895FC013B
:10286000918D828D981761F0A28DAE0FBF2FB11D93
:102870005D968C91928D9F5F9F73928F90E00895EB
:102880008FEF9FEF0895FC01918D828D981731F0A5
:10289000828DE80FF11D858D90E008958FEF9FEFF9
:1028A0000895FC01918D228D892F90E0805C9F4FCF
:1028B000821B91098F739927089587E89BE00E94F6
:1028C000511421E0892B09F420E0822F089584E23D
:1028D0009CE00E94511421E0892B09F420E0822F12
:1028E0000895FC01A48DA80FB92FB11DA35ABF4FA5
:1028F0002C91848D90E001968F739927848FA689FF
:10290000B7892C93A089B1898C91837080648C9352
:10291000938D848D981306C00288F389E02D808101
:102920008F7D80830895EF92FF920F931F93CF9333
:10293000DF93EC0181E0888F9B8D8C8D98131AC0FA
:10294000E889F989808185FF15C09FB7F894EE89E1
:10295000FF896083E889F98980818370806480833E
:102960009FBF81E090E0DF91CF911F910F91FF9089
:10297000EF900895F62E0B8D10E00F5F1F4F0F7331
:102980001127E02E8C8D8E110CC00FB607FCFACFEC
:10299000E889F989808185FFF5CFCE010E94711405
:1029A000F1CFEB8DEC0FFD2FF11DE35AFF4FF082BD
:1029B0009FB7F8940B8FEA89FB8980818062CFCF23
:1029C000CF93DF93EC01888D8823B9F0AA89BB8966
:1029D000E889F9898C9185FD03C0808186FD0DC051
:1029E0000FB607FCF7CF8C9185FFF2CF808185FF72
:1029F000EDCFCE010E947114E9CFDF91CF91089500
:102A000080E090E0892B29F00E94671481110E94D8
:102A1000000080E090E0892B29F00E945D14811174
:102A20000E94000080E090E0892B49F080E090E077
:102A3000892B29F00E94000081110E94000080E093
:102A400090E0892B49F080E090E0892B29F00E94EA
:102A5000000081110C94000008958150823108F02B
:102A60005AC0E82FF0E08827E75CFA4E8F4F0C94AD
:102A7000757859155D154B15511555158B15601544
:102A800066156A157015741578157E1582158B15E7
:102A900086158C159015809180008F77809380002B
:102AA0000895809180008F7DF9CF80918000877F8D
:102AB000F5CF84B58F7784BD089584B58F7DFBCF26
:102AC0008091B0008F778093B00008958091B0001E
:102AD0008F7DF9CF809190008F778093900008953B
:102AE000809190008F7DF9CF80919000877FF5CF06
:102AF0008091A0008F778093A00008958091A0001E
:102B00008F7DF9CF8091A000877FF5CF8091200144
:102B10008F77809320010895809120018F7DF9CFD8
:102B200080912001877FF5CFCF93DF93282F30E06E
:102B3000F901E557F14E8491F901E551F14ED49137
:102B4000F901EF5CF04EC491CC23A1F081110E94F9
:102B50002D15EC2FF0E0EE0FFF1FEF58F14EA59171
:102B6000B491EC91ED2381E090E009F480E0DF91F5
:102B7000CF91089580E090E0FACF862F0C949415C1
:102B80001F93CF93DF93282F30E0F901E557F14EE3
:102B90008491F901E551F14ED491F901EF5CF04EC9
:102BA000C491CC23A9F0162F81110E942D15EC2F72
:102BB000F0E0EE0FFF1FE95AF14EA591B4918FB7E7
:102BC000F894EC91111108C0D095DE23DC938FBFEF
:102BD000DF91CF911F910895DE2BF8CF862F642FC0
:102BE0000C94C015CF93DF9390E0FC01E551F14EBA
:102BF00024918F5C904EFC0184918823C9F090E071
:102C0000880F991FFC01EF52F14EA591B491FC0180
:102C1000E95AF14EC591D49161110DC09FB7F89456
:102C20008C91209582238C938881282328839FBFB1
:102C3000DF91CF910895623051F49FB7F8943C91A1
:102C4000822F809583238C93E8812E2BEFCF8FB733
:102C5000F894EC912E2B2C938FBFEACF862F642F04
:102C60000C94F2153FB7F8948091D9089091DA0846
:102C7000A091DB08B091DC0826B5A89B05C02F3FCA
:102C800019F00196A11DB11D3FBFBA2FA92F982F92
:102C90008827BC01CD01620F711D811D911D42E08D
:102CA000660F771F881F991F4A95D1F70895CF9215
:102CB000DF92EF92FF920F931F930E9432160091C2
:102CC000CA071091CB072091CC073091CD076B013B
:102CD0007C01C01AD10AE20AF30A97018601013D7C
:102CE00017402105310590F020914809309149099C
:102CF0002F5F3F4F30934909209348096093CA07DB
:102D00007093CB078093CC079093CD071F910F91C1
:102D1000FF90EF90DF90CF9008958F929F92AF92A7
:102D2000BF92CF92DF92EF92FF924B015C010E9423
:102D300032166B017C010E9432166C197D098E09D6
:102D40009F09683E734081059105A8F321E0821A2E
:102D50009108A108B10888EEC80E83E0D81EE11CD6
:102D6000F11C81149104A104B10429F7FF90EF90A4
:102D7000DF90CF90BF90AF909F908F9008952FB726
:102D8000F8946091D5087091D6088091D7089091F9
:102D9000D8082FBF0895BC016E5F7F4FDC01ED9115
:102DA000FC910190F081E02D40E0199591E08111B6
:102DB00090E0892F089508958EBD00000DB407FEA0
:102DC000FDCF8EB50895DF92EF92FF920F931F9380
:102DD000CF93DF937C01062FD42E152F80E590E052
:102DE0000E94991360E0F70186850E94C01582E178
:102DF0000E94DC16CD2DD12F0C0F1D2F111DC017D9
:102E0000D10721F089910E94DC16F9CF61E0F7012A
:102E10008685DF91CF911F910F91FF90EF90DF900A
:102E20000C94C0151F93CF93DF93EC01162F80E510
:102E300090E00E94991360E08E850E94C015812F5A
:102E400080680E94DC1680E00E94DC16182F61E08A
:102E50008E850E94C015812FDF91CF911F9108951B
:102E60000F931F93CF93DF93EC01062F142F80E570
:102E700090E00E94991360E08E850E94C015802F1B
:102E80000E94DC16812F0E94DC1661E08E85DF91A6
:102E9000CF911F910F910C94C015CF9361E0809159
:102EA000110D0E94F21561E08091110D0E94C01574
:102EB0008091120D8F3F09F46AC060E00E94F21504
:102EC0008091120D0E949415892B09F060C061E079
:102ED0008091120D0E94F21560E08091120D0E9407
:102EE000C01583E090E00197F1F761E08091120D49
:102EF0000E94C01562E370E080E090E00E948D16B1
:102F000040E064E283E09DE00E94301740E066E22A
:102F100083E09DE00E94301746E268E483E09DE094
:102F20000E94301740E864E583E09DE00E9430177E
:102F300049EA66E583E09DE00E94301743E068E5DA
:102F400083E09DE00E94301748EE6AE583E09DE053
:102F50000E94301740E46AE283E09DE00E9430174F
:102F60004DE362E283E09DE00E94301768E283E077
:102F70009DE00E941217982F93709330F9F0482F1C
:102F8000436068E283E09DE0CF910C9430174FE0FE
:102F900062E083E09DE00E943017C3E062E370E0EE
:102FA00080E090E00E948D1662E083E09DE00E9448
:102FB000121784FFA5CFC15089F7A2CFCF910895F2
:102FC000CF92DF92EF92FF920F931F93CF93DF93F5
:102FD000EC016B01F42E890140E062E00E943017A1
:102FE00044E06AE0CE010E94301740E864E1CE017F
:102FF0000E943017A6016F2DCE010E94E31643E018
:1030000062E0CE010E9430170E94BF166B017C0166
:1030100029E5C20ED11CE11CF11C6AE0CE010E9420
:10302000121782FF1BC040E062E0CE010E94301701
:1030300064E4CE010E941217F801808362E4CE019D
:103040000E941217F801818380E0DF91CF911F91D8
:103050000F91FF90EF90DF90CF9008950E94BF16E0
:103060006C157D058E059F05C0F283E0EECF2F9293
:103070003F924F925F926F927F928F929F92AF9208
:10308000CF92DF92EF92FF920F931F93CF93DF9334
:103090001F921F92CDB7DEB74C012B01D42E390100
:1030A00080E0E114F10411F0F70180813C2C3294AE
:1030B00090EF3922380E40E062E0C4010E943017E0
:1030C0004FE768E0C4010E94301740E864E1C401A2
:1030D0000E943017A2016D2DC4010E94E316432DFA
:1030E0006AE1C4010E9430174CE062E0C4010E9412
:1030F00030176AE1C4010E941217482F40686AE144
:10310000C4010E9430170E94BF161B012C01F4E27B
:103110002F0E311C411C511C68E0C4010E94121783
:10312000982F907309F0B7C080FF15C083E00F900F
:103130000F90DF91CF911F910F91FF90EF90DF9053
:10314000CF90AF909F908F907F906F905F904F90B7
:103150003F902F9008950E94BF1662157305840555
:103160009505D0F2E3CF6114710409F469C001152B
:10317000110509F465C064E1C4010E941217382EDC
:10318000F8018081831508F480C030823320E1F19A
:1031900080E590E00E94991360E0F40186850E942A
:1031A000C0153A9482E90E94DC16CC20B1F08FEF72
:1031B00090E09C0102C0220F331FCA94E2F769011C
:1031C00082E90E94DC169C2D9095F30120819223C8
:1031D0008C21982B9083CC24C39423014C0C511C3C
:1031E000C31440F482E90E94DC16F20181932F019E
:1031F000C394F6CF80E00E94DC16F201808361E088
:10320000F40186850E94C01568E1C4010E9412176E
:103210008770E114F10411F0F701808323FC37C0BB
:1032200061147104B1F10115110599F1AA2089F118
:10323000F8014081413031F4843029F58FEF77CFA8
:1032400080E0ECCF4230F8F081111DC042509E0169
:103250002F5F3F4FB301C4010E94E017811167CF78
:10326000F8019081690E711CF301329720819981D8
:10327000291309C0F1E06F1A7108F30120819A81C6
:10328000291709F454CF87E052CF84E050CF82E071
:103290004ECF80E04CCF6CE0C4010E941217282E64
:1032A000837109F460CF81E042CF8F929F92AF92F9
:1032B000CF92DF92EF92FF920F931F93CF93DF9302
:1032C00000D01F92CDB7DEB74C0180E589831A820A
:1032D0009E012D5F3F4F42E0BE016F5F7F4FC401F3
:1032E0000E94E017D82E811116C0A12CC12CF12C00
:1032F000E12C10E000E030E020E044E0BE016F5F30
:103300007F4FC4010E943718833029F0D82E8111D5
:1033100002C0DD24D3948D2D0F900F900F900F904D
:10332000DF91CF911F910F91FF90EF90DF90CF90A1
:10333000AF909F908F9008950F931F93CF93DF933B
:103340008C01D62FC42F0E941217C0954C2F4823F2
:103350006D2FC801DF91CF911F910F910C94301701
:103360008F929F92AF92CF92EF92FF920F931F9303
:10337000CF93DF9300D01F921F92CDB7DEB74C01E1
:1033800082E08D8340E064E2C4010E94301740E097
:1033900066E2C4010E94301746E268E4C4010E945C
:1033A000301786E28B838D818230B0F140E86CE18A
:1033B000C4010E949C1987E08C83A12CC12CCE01F2
:1033C00004967C018E010B5F1F4F9E012F5F3F4FC4
:1033D00041E0BE016D5F7F4FC4010E943718982FF6
:1033E000811117C08D818230B9F48C81811114C094
:1033F00081E00F900F900F900F900F90DF91CF9181
:103400001F910F91FF90EF90CF90AF909F908F9072
:10341000089581E0923069F380E0EBCF2F923F92E4
:103420004F925F926F927F928F929F92AF92BF92D4
:10343000CF92DF92EF92FF920F931F93CF93DF9380
:10344000CDB7DEB72D970FB6F894DEBF0FBECDBF58
:1034500016E0413508F045C1342E4B013C0140E8EF
:103460006CE10E949C1983E98983332029F081E073
:10347000F4019081953008F480E022242394B12C4B
:103480009B2D990F990F990FD32CD91AD7FCD12CBA
:1034900032E0882319F098E89B8333E021E09D2DEA
:1034A000977009F420E09D2D959595959595290F98
:1034B000C9F094E0811193E0291708F4922FEB2DC5
:1034C000F0E03196E80DF91D232F4191A1E0B0E025
:1034D000AC0FBD1FA20FB11D4C932F5F422F431B9A
:1034E000491798F3882311F0F8E0DF0E8FE18D156E
:1034F0000CF082C090E79A838B819C8189279D8103
:1035000089279E8189278F839E01285F3F4F47E04F
:10351000BE016F5F7F4FC3010E94E017182F81111A
:10352000E0C01A86E3E0EB87DC86CE0107962C012B
:1035300099E09D87CA844C2D4295407F4C0D6AE1ED
:10354000C3010E943017A12CCE010A967C018E0186
:10355000055F1F4F92014D85BE016F5F7F4FC30115
:103560000E943718182F823009F065C06CE1C30142
:103570000E94121785FDB5C08F7109F480E2282FD3
:1035800030E04D2DDD0C550B421753070CF09DC05C
:10359000D82EE82FE595E595E595EF5F982F977084
:1035A00081E009F480E0E80F81E090E08C0F9D1F3E
:1035B0008E0F911DFC01215031092770332781E0C6
:1035C00090E002C0880F991F2A95E2F79C01808144
:1035D000822B80838BCF85E98983332031F081E092
:1035E000F4019081983008F04BCF80E049CF87E913
:1035F000898326E0B22EF9CF9D2D97709A878D2D65
:103600008595859585958E5F282F2295207F290F9A
:103610002A8321E0911101C020E0280F2D87442446
:103620004394512C4C0E5D1E480E511CE9E0E81BE2
:10363000EB87DC867FCF811154C080E2D82E9C8539
:1036400090320CF457CF8B81883809F040C083E06A
:1036500093E0EB2DF0E03196E80DF91D980FA1E015
:10366000B0E0AC0FBD1FA80FB11D2C9121938F5F4F
:103670008913F5CFBB84E3E0BE124DC08A8581116A
:103680004AC09E012D5F3F4F41E0B201C3010E943D
:10369000E017182F811125C09B81F20181819813B9
:1036A0003CC09C818281981338C0808182FF12C007
:1036B0002394F2E02F1609F48ECF83E0281609F444
:1036C00096CF91E0291609F4CECE15E00AC082E02B
:1036D00094E0BFCFF4018387822D880F820D8F5F26
:1036E0008083812F2D960FB6F894DEBF0FBECDBF1D
:1036F000DF91CF911F910F91FF90EF90DF90CF90CE
:10370000BF90AF909F908F907F906F905F904F9001
:103710003F902F90089511E0E4CF17E0E2CF209181
:103720006308260F3327331F21323105ECF4209133
:10373000AC08FC0190E080E0243069F082E008955C
:10374000A09163082191AC014D5B574FA40FB52F99
:10375000B11D2C930196861798F380916308680F2A
:103760006093630880E0089581E008951092AC08AA
:1037700081E08093AB081092860861E084E10E94AA
:10378000C01561E085E10E94C015E9EBF0E08081A1
:103790008E7F808380818D7F808388E48093B800D2
:1037A00085E48093BC000895CF93DF9391E09093DC
:1037B00042088823B9F0C091B800D091BA00809136
:1037C000BC008A7B8093BC0060E084E10E94C0154D
:1037D00060E085E10E94C0150E94B61BD093BA003C
:1037E000C093B800DF91CF9108950895E091860BC2
:1037F0008091850BE81730F4F0E0EE5DF74F8081A3
:1038000090E008958FEF9FEF08959091860B80913F
:10381000850B2FEF3FEF981748F4E92FF0E0EE5DAE
:10382000F74F208130E09F5F9093860BC901089588
:103830008091850B9091860B891B990B0895CF92EF
:10384000DF92EF92FF920F931F93CF93DF937C0150
:10385000CB018A012091B208222389F0EB016B0190
:10386000C40ED51ECC15DD0569F06991D701ED9127
:10387000FC910190F081E02DC7011995F3CF642FE1
:103880000E948F1BC801DF91CF911F910F91FF9074
:10389000EF90DF90CF900895CF93DF931F92CDB735
:1038A000DEB769832091B2082223F9F02091830BBF
:1038B000203258F021E030E0FC013383228390E095
:1038C00080E00F90DF91CF9108958091840BE82FD5
:1038D000F0E0ED54F74F998190838F5F8093840BD4
:1038E0008093830B81E090E0ECCF61E0CE01019604
:1038F0000E948F1BF7CFCF92DF92EF92FF920F9330
:103900001F93CF93DF93FC01C48121E02093B20881
:10391000C093D3081092840B1092830B8385682B7D
:1039200081EC9CE00E944C1CD091830BD13208F0BA
:1039300092C00E9432166B017C018091AC0881110B
:1039400065C082E08093AC0881E08093AB088FEF84
:103950008093AA081092A908D093A808A3EBB8E016
:10396000E8E8F8E080E0D81385C0109287088091DD
:103970008708CC0FC82BC0938708809186088130B8
:1039800009F07CC0109286080E9432166B017C01FF
:10399000809187088093BB008091AE089091AF081A
:1039A000A091B008B091B108892B8A2B8B2B99F08C
:1039B0000E9432160091AE081091AF082091B00815
:1039C0003091B1086C197D098E099F0906171707F8
:1039D00028073907E0F18091BC0083FDD9CF85EC41
:1039E0008093BC000E9432166B017C018091AC0870
:1039F000823009F445C08091AA088F3F61F180911F
:103A0000AA08803241F18091AA0825C08091AE08B1
:103A10009091AF08A091B008B091B108892B8A2B82
:103A20008B2B09F48ACF0E9432160091AE081091B8
:103A3000AF082091B0083091B1086C197D098E094A
:103A40009F09061717072807390708F076CF8091D6
:103A5000AD080E94D41B1092840B1092830B10921D
:103A6000B208DF91CF911F910F91FF90EF90DF90FF
:103A7000CF9008959D9191938F5F75CF85EEB0CFD4
:103A80008091AE089091AF08A091B008B091B108B4
:103A9000892B8A2B8B2B09F4A9CF0E943216009117
:103AA000AE081091AF082091B0083091B1086C19A0
:103AB0007D098E099F09061717072807390708F09F
:103AC00095CFC5CF10928D0D60E082E89DE00C94FB
:103AD0007B1C88E080938D0D60E082E89DE00C9473
:103AE0007B1C90E080E00895CF92DF92EF92FF92EE
:103AF00080917409811157C080917309811153C05D
:103B00000E9432166B017C018091C6079091C70715
:103B1000A091C807B091C907A7019601281B390BCE
:103B20004A0B5B0BDA01C9018135934CA105B10544
:103B3000D0F160916209709163098091640990915C
:103B4000650920E030E048E452E40E944A7760933F
:103B50006209709363098093640990936509609189
:103B600062097091630980916409909165090E94CE
:103B70002878609366097093670980936809909329
:103B800069090E94BF1660936A0970936B0980935C
:103B90006C0990936D09C092C607D092C707E09256
:103BA000C807F092C907FF90EF90DF90CF9008957B
:103BB000E7EBF9E010821786108A118A128A739651
:103BC0008BE0EF37F807B1F70895CF92DF92EF92CD
:103BD000FF928091FA078823E1F0C090F607D09019
:103BE000F707E090F807F090F907C114D104E10459
:103BF000F10471F00E94BF16AB01BC014C195D09C4
:103C00006E097F0981E0403F59446240710508F028
:103C100080E0FF90EF90DF90CF9008950F931F9377
:103C2000CF938C01C62F0E947B1C6C2F6460C8014F
:103C30000E947B1C6C2F6B7FC8010E947B1C83EC55
:103C400090E00197F1F7CF911F910F9108950F9395
:103C50001F93CF93DF938C01D62FC42F607F642BEB
:103C60000E940E1E80E1D89FB00111246C2BC80168
:103C7000DF91CF911F910F910C940E1ECF93DF9384
:103C800000D000D01F921F92CDB7DEB798E0E8E8D1
:103C9000F2E0DE01119601900D929A95E1F7909174
:103CA0008A0D961710F46FEF690F262F30E0220F60
:103CB000331F41E050E04C0F5D1F240F351FF90109
:103CC0006081680F606840E082E89DE028960FB64A
:103CD000F894DEBF0FBECDBFDF91CF910C94271EAD
:103CE00040E061E082E89DE00E94271E8BE39FE1B7
:103CF0000197F1F70895CF93DF931092860B1092FE
:103D0000850B1092840B1092830B0E94B61B8CE9DA
:103D100093E19093820B8093810B8DE993E19093D3
:103D2000800B80937F0B1092870D80918C0D8230D9
:103D300018F098E09093870D80938A0D62E370E00D
:103D400080E090E00E948D1660918D0D82E89DE0EC
:103D50000E947B1C68EE73E080E090E00E948D166C
:103D600060E382E89DE00E940E1ECBE4D6E4CE0123
:103D70000197F1F760E382E89DE00E940E1E219713
:103D8000F1F760E382E89DE00E940E1E83E592E079
:103D90000197F1F760E282E89DE00E940E1E6091BB
:103DA000870D606240E082E89DE00E94271E84E06B
:103DB0008093880D40E06CE082E89DE00E94271E21
:103DC0000E94701E82E08093890D40E066E082E8E8
:103DD0009DE00E94271E40E062E082E89DE00E9494
:103DE000271E8BE39FE10197F1F7DF91CF910895B3
:103DF00041E00E94271E81E090E00895DC011496C6
:103E00008D919C9115976817790750F4ED91FC916D
:103E10001197E60FF71F15967C936E9314971082F7
:103E20000895CF93DF93EC018991882349F0082E00
:103E3000000C990B0E94977AFE0131978083F4CF92
:103E4000DF91CF910895FC0124813581232B39F432
:103E500021E0FB018081882349F020E007C08081B8
:103E600091810E94BB7A21E0892BB9F7822F0895B6
:103E7000EF92FF920F931F93CF93DF937C0107EB99
:103E800019E0D0E0C0E0F8018081882331F0B7016B
:103E9000C8010E94BB7A892B41F021960D5E1F4F0D
:103EA000C831D10581F7CFEFDFEFCE01DF91CF91A0
:103EB0001F910F91FF90EF900895CF92DF92EF92B4
:103EC000FF920E94E51D81113FC08091B2098634A6
:103ED000D9F584E999E00E94381F97FF0FC0E7EBFE
:103EE000F9E08FE79BE020812223B9F173968E17CA
:103EF0009F07C9F7C12CD12C76011FC023E1289F51
:103F0000F001299FF00D1124E954F64F27853089DF
:103F100041895289609162027091630280916402CA
:103F2000909165020E9449776B017C0120E030E0AE
:103F3000A9010E9457781816ECF6C701B601FF9048
:103F4000EF90DF90CF90089588E2C82E8BE6D82EB0
:103F50008EE6E82E8EE4F82EF0CFC0906202D0906C
:103F60006302E0906402F0906502E7CFCF92DF92A7
:103F7000EF92FF920F931F93CF93DF93EB017B019F
:103F800023E2E20EF11C8B016C01C61AD70AC601AE
:103F9000800F911F0E94D076F80181938F01EE155A
:103FA000FF05A9F7CE01DF91CF911F910F91FF90EF
:103FB000EF90DF90CF900895EF92FF920F931F93B1
:103FC000CF93DF93CDB7DEB7C354D1090FB6F894C2
:103FD000DEBF0FBECDBF4EE050E0BC01CE01C496A7
:103FE0000E94D97A23961FAE2397CE01C4960E94D1
:103FF000111F84E4E82EF12C10E000E0BE016F5F99
:104000007F4FC7010E94B61F888981110BC00F5FC7
:104010001F4F83E2E80EF11C0233110579F70FEF11
:104020001FEF17C04EE050E0BE01605F7F4FCE0132
:1040300084960E94D97A1AAACE0184960E94111FF2
:10404000BE016C5C7F4FCE0184960E94BB7A892BA7
:10405000F1F6C801CD5BDF4F0FB6F894DEBF0FBE9F
:10406000CDBFDF91CF911F910F91FF90EF900895F9
:10407000CF92DF92EF92FF920F931F93CF93DF9334
:10408000EB017B0120E1E20EF11C8B016C01C61AF1
:10409000D70AC601800F911F0E94D076F801819344
:1040A0008F01EE15FF05A9F7CE01DF91CF911F918A
:1040B0000F91FF90EF90DF90CF900895CF92DF9215
:1040C000EF92FF920F931F93CF93DF93EB017B014E
:1040D00024E0E20EF11C8B016C01C61AD70AC6015E
:1040E000800F911F0E94D076F80181938F01EE1509
:1040F000FF05A9F7CE01DF91CF911F910F91FF909E
:10410000EF90DF90CF9008950C94D0762F923F924D
:104110004F925F926F927F928F929F92AF92BF92D7
:10412000CF92DF92EF92FF920F931F93CF93DF9383
:1041300000D000D000D0CDB7DEB76C011B018FEFEF
:104140009FEFF60191838083FB011082118212821E
:1041500013820BE517E0F12CE12C1986412C512C30
:104160003201CE0101965C01480198E0890E911C54
:10417000C8010E94D076F50181935F010F5F1F4F48
:1041800008151905A9F78D819E81AF81B8858F3FEC
:10419000FFEF9F07AF07BF07D9F02985222351F012
:1041A000F1014081518162817381481759076A0783
:1041B0007B0760F4F10180839183A283B383F601CE
:1041C000F182E08249805A806B807C80F1E0F9873F
:1041D0002FEFE21AF20A80E1E816F10411F6998550
:1041E000911106C0412C512C80E8682E8FEB782E5F
:1041F000C301B20129960FB6F894DEBF0FBECDBF42
:10420000DF91CF911F910F91FF90EF90DF90CF90B2
:10421000BF90AF909F908F907F906F905F904F90E6
:104220003F902F900895FB0101900020E9F731970E
:10423000AF01461B570BDC01ED91FC910280F3812D
:10424000E02D19948F929F92AF92BF92EF92FF92BE
:104250000F931F93CF93DF93CDB7DEB7A1970FB620
:10426000F894DEBF0FBECDBF7C01FA01CB0119A2CD
:10427000223008F42AE08E010F5D1F4F822E912C10
:10428000B12CA12CBF01A50194010E941877F9015E
:10429000CA016A300CF5605DD8016E938D01232B45
:1042A000242B252B79F790E080E0109721F0BD01B9
:1042B000C7010E941321A1960FB6F894DEBF0FBE6E
:1042C000CDBFDF91CF911F910F91FF90EF90BF90E5
:1042D000AF909F908F900895695CDECFCF92DF9270
:1042E000EF92FF92CF93DF93AB01BC0177FF1DC02C
:1042F0006A017C016DE284E29CE00E94BA13EC0149
:1043000044275527BA014C195D096E097F092AE037
:1043100084E29CE00E9422218C0F9D1FDF91CF91AF
:10432000FF90EF90DF90CF9008952AE084E29CE028
:10433000DF91CF91FF90EF90DF90CF900C942221EE
:104340008F929F92AF92BF92CF92DF92EF92FF92A5
:104350000E945D1F6B017C0120E034E244E759E4D8
:104360000E94577887FF36C062E080E00E943E1EC0
:104370006CE676E282E89DE00E94CF138090B3095C
:104380009090B409A090B509B090B609A501940128
:10439000C701B6010E94A97587FF19C0C701B60100
:1043A0000E9428782AE0AB01BC0182E89DE00E94CF
:1043B000222167E676E282E89DE0FF90EF90DF90B1
:1043C000CF90BF90AF909F908F900C94CF13C5016A
:1043D000B401E6CFFF90EF90DF90CF90BF90AF9009
:1043E0009F908F9008952F923F924F925F926F927D
:1043F0007F928F929F92AF92BF92CF92DF92EF9275
:10440000FF921F93CF93DF93EC016A017B01722E21
:10441000AB019601CB01B6010E945C7864ED72E0BD
:10442000811126C046015701E894B7F82FEF3FEFFE
:104430004FE75FE7C501B4010E945C7881110CC0B1
:104440002FEF3FEF4FE75FE7C501B4010E94A97569
:1044500068ED72E0181664F02FEF3FEF4FE75FE46E
:10446000C701B6010E9457781816B4F46CED72E0DB
:10447000CE01DF91CF911F91FF90EF90DF90CF9011
:10448000BF90AF909F908F907F906F905F904F9074
:104490003F902F900C9413212FEF3FEF4FE75FECED
:1044A000C701B6010E94A97587FDE0CF20E030E08A
:1044B000A901C701B6010E94A975312C212C87FFE3
:1044C00009C06DE2CE010E94BA131C01F7FAF09404
:1044D000F7F8F09410E060E070E080E09FE3711680
:1044E00041F020E030E040E251E40E94B6771F5FE7
:1044F000F6CFA70196010E944A772B013C010E944A
:1045000028784B015C012AE0BC01A401CE010E9485
:1045100022217C01E20CF31C1123C1F1C501B4017D
:104520000E94AE759B01AC01C301B2010E944977A4
:104530004B015C016EE2CE010E94BA13E80EF91E37
:10454000115020F120E030E040E251E4C501B40117
:104550000E940F762B013C010E9428784B01B12C60
:10456000A12C2AE0B501A401CE010E942221E80E6F
:10457000F91EC501B4010E94AE759B01AC01C301D7
:10458000B2010E9449774B015C01DACFC701DF918C
:10459000CF911F91FF90EF90DF90CF90BF90AF90A1
:1045A0009F908F907F906F905F904F903F902F9053
:1045B00008950F931F93CF93DF93EC010E94F32193
:1045C0008C0160EE72E0CE010E941321800F911FDA
:1045D000DF91CF911F910F9108950C94F3214F9289
:1045E0005F926F927F928F929F92AF92BF92CF9283
:1045F000DF92EF92FF920F931F932B013C01490131
:104600005A01670166EB76E184E29CE00E94CF13D9
:1046100023E030E0B301A20184E29CE00E94ED229D
:104620006AE384E29CE00E94BA1323E030E0B50123
:10463000A40184E29CE00E94ED226AE384E29CE013
:104640000E94BA1322E030E0B801A60184E29CE0A7
:104650001F910F91FF90EF90DF90CF90BF90AF90A0
:104660009F908F907F906F905F904F900C94D92285
:104670000F931F93CF93DF93EC010E9413218C01C2
:1046800060EE72E0CE010E941321800F911FDF9136
:10469000CF911F910F9108950F931F93882311F1CC
:1046A0004EE050E064E979E085E899E00E94D97A2B
:1046B000109293090E94BF1660938109709382093A
:1046C00080938309909384096CE576E284E29CE010
:1046D0000E94CF1364E979E084E29CE01F910F917E
:1046E0000C94382364E979E085E899E00E94BB7A6C
:1046F000892BB1F60E94BF160091810910918209A1
:104700002091830930918409601B710B820B930BFC
:10471000603177428105910518F61F910F91089538
:104720000F931F93CF93DF93EC010E94C1138C0171
:1047300060EE72E0CE010E941321800F911FDF9185
:10474000CF911F910F9108950F931F93CF93DF93F4
:10475000EC010E94CF138C0160EE72E0CE010E944A
:104760001321800F911FDF91CF911F910F91089519
:104770006AEB74E087E89BE00E94CF1360E974E085
:1047800087E89BE00E94A4236EE874E087E89BE042
:104790000C94CF136CE874E087E89BE00E94CF1381
:1047A0006EE774E087E89BE00E94A4236FE674E064
:1047B00087E89BE00E94CF1340914C0250914D023C
:1047C00060914E0270914F0222E030E087E89BE05A
:1047D0000E94D9226AE574E087E89BE00E94CF132B
:1047E00040914602509147026091480270914902FF
:1047F00022E030E087E89BE00E94D92262E574E085
:1048000087E89BE00E94CF1368E272E087E89BE0B4
:104810000E94382360E574E087E89BE00E94CF1394
:1048200066E374E087E89BE00E94CF1340913C026E
:1048300050913D0260913E0270913F0222E030E0D3
:1048400087E89BE00E94D92264E374E087E89BE05C
:104850000E94CF1363E773E087E89BE00E94A423E4
:1048600061E773E087E89BE00C94CF130C9413216D
:10487000EF92FF920F931F93CF937C018B01C42F74
:104880000E94701E60E080E00E943E1EB70182E838
:104890009DE00E94CF1361E080E00E943E1EB801BF
:1048A00082E89DE00E94CF13CC2351F063E080E0CA
:1048B0000E943E1E68E272E082E89DE00E9436247B
:1048C00061E088E00E94C0156CE271E080E090E059
:1048D0000E948D1660E088E00E94C01564EC79E0CB
:1048E00080E090E00E948D160E94701E0E94BF160C
:1048F00060936A0970936B0980936C0990936D09BA
:10490000CF911F910F91FF90EF900895FC0180814E
:104910009181009711F00C94647160E070E0CB011C
:104920000895AF92BF92CF92DF92EF92FF920F93D2
:104930001F93CF93DF93DC01CD90DC901197C114CE
:10494000D10439F01496CD91DC918C017601209739
:1049500061F4DF91CF911F910F91FF90EF90DF9065
:10496000CF90BF90AF90089575015701BFEFAB1A7C
:10497000BB0AF7018081082E000C990B0E94787504
:10498000892B91F72197CC0DDD1D8881082E000C15
:10499000990B0E947875892B29F0CE15DF0510F050
:1049A0002197F3CFAE014F5F5F4F4E195F09D801DA
:1049B00015965C934E931497CE14DF0420F4B70140
:1049C000C6010E94A77AD801ED91FC911197149627
:1049D0008D919C91E80FF91F1082BBCFCF93DF938D
:1049E000FC01C081D181209761F08991882349F031
:1049F000082E000C990B0E949F7AFE01319780834C
:104A0000F4CFDF91CF910895FB0144815581FC01E2
:104A1000248135812417350778F0808191810097B2
:104A200059F0FB01608171816115710529F00E94C7
:104A3000CB7A21E0892B09F020E0822F0895CF92D4
:104A4000DF92EF92FF920F931F93CF93DF93CDB737
:104A5000DEB7A3970FB6F894DEBF0FBECDBF6C01D3
:104A600084E4E82EF12C10E000E0BE016F5F7F4F80
:104A7000C7010E94B61F4EE050E0B601CE0101967C
:104A80000E94CB7A892B19F4898181110AC00F5FAA
:104A90001F4F83E2E80EF11C0233110531F70FEFCF
:104AA0001FEFC801A3960FB6F894DEBF0FBECDBFAF
:104AB000DF91CF911F910F91FF90EF90DF90CF90FA
:104AC00008950F931F93CF93DF938C01EB01FC01AB
:104AD000808191810097E1F068817981611571058C
:104AE000A9F0428153812C813D814217530770F018
:104AF0000E94C47A8C819D81F801958384831D82F4
:104B00001C82DF91CF911F910F9108950E942D7902
:104B100088819981F801918380838A819B81938325
:104B200082838C819D8195838483198218821B8264
:104B30001A82E5CFCF93DF93EC01888199810097AA
:104B400011F00E942D79198218821D821C821B820D
:104B50001A82DF91CF910895FC01808191810097A5
:104B600011F00C942D7908950F931F93CF93DF9339
:104B7000EC0188819981009759F02A813B812617A1
:104B8000370730F081E0DF91CF911F910F910895A9
:104B90008B016F5F7F4F0E94B679009759F0998320
:104BA00088831B830A832C813D81232B59F7FC01C9
:104BB0001082E8CF80E0E7CFEF92FF920F931F9330
:104BC000CF93DF936115710541F480E0DF91CF91C0
:104BD0001F910F91FF90EF90089541155105B1F08D
:104BE0007B01EC010C811D81040F151FB8010E948F
:104BF000B425882351F3288139818C819D81B701A7
:104C0000820F931F0E94C47A1D830C8381E0DECF44
:104C1000CF93DF93EC016115710539F4CE010E9449
:104C20009A25CE01DF91CF910895FB0101900020DC
:104C3000E9F73197AF01461B570B0E94DC2588230B
:104C400069F3EFCFCF93DF93EC01FB0144815581F2
:104C5000608171810E94DC25811103C0CE010E9418
:104C60009A25CE01DF91CF910895CF93DF931F92C4
:104C70001F92CDB7DEB769831A8241E050E0BE01D2
:104C80006F5F7F4F0E94DC250F900F90DF91CF91D7
:104C90000895EF92FF920F931F93CF93DF93EC0150
:104CA0008B01F801648175816115710581F0808146
:104CB0009181009761F061507109860F971FFC0187
:104CC0008081803221F4C8010E94FE1EEACF85E077
:104CD000E82EF12C60E2C8010E943526F1E0EF1ABF
:104CE000F108C1F7198218821B821A821D821C8268
:104CF000B801CE010E946125CE01DF91CF911F91B5
:104D00000F91FF90EF900895EF92FF920F931F93F2
:104D1000CF93DF93EC017B018A01BA010E94B42595
:104D200081110BC0CE010E949A25CE01DF91CF9157
:104D30001F910F91FF90EF9008951D830C83B70191
:104D4000888199810E94C47AF0CFFB0101900020F4
:104D5000E9F73197AF01461B570B0C948426EF926D
:104D6000FF920F931F93CF93DF93CDB7DEB7A19739
:104D70000FB6F894DEBF0FBECDBF7C01CB01BA01E8
:104D8000F7011182108213821282158214828E0121
:104D90000F5F1F4F22E044E00E94A270009789F04D
:104DA000BC01C7010E94A526A1960FB6F894DEBFEC
:104DB0000FBECDBFDF91CF911F910F91FF90EF906C
:104DC0000895C7010E949A25EFCFCF93DF93EC019E
:104DD00010927B09109233091092320962EE72E050
:104DE0008BEE9CE00E94A52662EE72E085EE9CE0D0
:104DF0000E94A5260E94701E60E080E00E943E1E78
:104E0000BE0182E89DE00E94362461E088E00E94B5
:104E1000C01566E970E080E090E00E948D1660E0C9
:104E200088E00E94C0156CED75E080E090E00E9483
:104E30008D16DF91CF910C94701E1092EE07109298
:104E4000ED078FEF9FEF909303028093020262EED3
:104E500072E08DEC9CE00E94A5261092E107109272
:104E6000E2071092E3071092E4071092F407109201
:104E7000F5070E94701E0E94621D80917A098111BF
:104E80000C94CA230C94B823CF93DF93EC016CE508
:104E900077E087E89BE00E94CF13BE0187E89BE0A4
:104EA0000E94A423DF91CF910C941D27CF93DF9311
:104EB000EC01FB018617970749F06081718161154C
:104EC000710541F0448155810E948426CE01DF9115
:104ED000CF9108950E949A25F9CFFC01118210828A
:104EE00013821282158214820C945627FC011182BF
:104EF00010821382128215821482FB01019000201D
:104F0000E9F73197AF01461B570B0C948426AF92FB
:104F1000BF92CF92DF92EF92FF920F931F93CF93A6
:104F2000DF936C015B017A0189012417350720F4B6
:104F30008F2D7901042F182F62EE72E0C6010E94B6
:104F40007627D5011496CD91DC91EC16FD06E0F4A0
:104F50000C171D0708F4E801D501ED91FC9111979C
:104F6000EC0FFD1F108110826D917C916E0D7F1DE5
:104F7000C60161157105A1F00E94A526F501808189
:104F80009181C80FD91F1883C601DF91CF911F915E
:104F90000F91FF90EF90DF90CF90BF90AF9008956A
:104FA0000E949A25EBCF8F929F92AF92BF92CF92A1
:104FB000DF92EF92FF920F931F93CF93DF938C01B9
:104FC0006B015A01D0E0C0E0F12CE12C912C812C36
:104FD000F601848195818C179D0760F18C179D07E0
:104FE000B9F4EA14FB04F1F49E01A401B601C8016E
:104FF0000E948727C801DF91CF911F910F91FF90E9
:10500000EF90DF90CF90BF90AF909F908F900895DA
:10501000BE01C6010E94A713FC0180818A3309F3F7
:105020002196D6CF4E01FFEF8F1A9F0A8FEFE81A15
:10503000F80AF6CF62EE72E0C8010E947627DACF56
:10504000CF92DF92EF92FF920F931F93CF93DF9354
:1050500000D000D0CDB7DEB76C017B018A010E9481
:10506000691D0E94701E60E080E00E943E1EB60135
:1050700082E89DE00E94CF1361E080E00E943E1E26
:1050800024E130E050E040E0B701CE0101960E94FB
:105090008727BE016F5F7F4F82E89DE00E94C113AA
:1050A000CE0101960E94AC2562E080E00E943E1E87
:1050B00024E130E050E040E0B801CE0101960E94CA
:1050C0008727BE016F5F7F4F82E89DE00E94C1137A
:1050D000CE0101960E94AC2563E080E00E943E1E56
:1050E0006EE577E082E89DE00E94CF1326960FB62A
:1050F000F894DEBF0FBECDBFDF91CF911F910F910E
:10510000FF90EF90DF90CF900895CF93DF93EC0165
:10511000FB01248135810E948727CE01DF91CF9149
:1051200008950F931F93CF93DF93CDB7DEB7E59725
:105130000FB6F894DEBF0FBECDBF8C0123E2209FD7
:10514000C001219F900D1124BE016F5F7F4F8C5BCA
:105150009F4F0E94B61F109303020093020285E046
:1051600090E09093EE078093ED070E94BF16609346
:10517000E5077093E6078093E7079093E8070E949E
:10518000701E0E94621D67EB78E087E89BE00E943A
:10519000CF1348A159A16AA17BA1CE01C0960E945C
:1051A000AF26BE01605F7F4FCE018A960E947627B0
:1051B00066EF72E0CE0184960E947627BE01665D9E
:1051C0007F4FCE0184960E94222668E073E00E9401
:1051D0000826BE01605D7F4F0E942226BC0187E841
:1051E0009BE00E949023CE0184960E94AC25CE01C4
:1051F0008A960E94AC25CE01C0960E94AC2568E933
:1052000078E087E89BE00E94A42366E978E087E8DD
:105210009BE00E94CF13E5960FB6F894DEBF0FBE59
:10522000CDBFDF91CF911F910F91089585ED8093B0
:10523000BC008091AE089091AF08A091B008B091E9
:10524000B1080796A11DB11D23E0B695A7959795C6
:1052500087952A95D1F72091BC0024FD03C01092B8
:10526000AC0808954091AE085091AF086091B00825
:105270007091B108452B462B472B69F30097A10588
:10528000B10541F02AE22A95F1F700C00197A10982
:10529000B109E1CF8091AD080C94D41BEF92FF923D
:1052A0000F931F93CF93DF93CDB7DEB7A3970FB6BE
:1052B000F894DEBF0FBECDBF84E4E82EF12C10E0E1
:1052C00000E0BE016F5F7F4FC7010E94B61F89815A
:1052D000882309F4A2C00F5F1F4F83E2E80EF11C80
:1052E0000233110571F78091000290910102C2977B
:1052F00090F10E94321620917B00277F20937B0043
:1053000021E420937C0020917A00206420937A008D
:1053100020917A0026FDFCCF009178001091790051
:10532000012E000C220B330B6017710782079307C5
:1053300031F060277127822793270E945B710E94BA
:105340000C7122E330E040E050E00E94E67670937A
:1053500001026093000280916009811104C0809174
:105360007C098823A1F08091000290910102209194
:105370004A0230914B028217930749F4019662E387
:1053800070E00E9461789093010280930002009186
:10539000000210910102C801019662E370E00E94D0
:1053A0006178909301028093000223E2209FC00164
:1053B000219F900D1124BE016F5F7F4F8C5B9F4F2B
:1053C0000E94B61F8981882341F168E573E084E279
:1053D0009CE00E94CF13BE016F5F7F4F84E29CE090
:1053E0000E9436246AE384E29CE00E94BA1348A13A
:1053F00059A16AA17BA122E030E084E29CE00E94F6
:10540000ED226AE384E29CE00E94BA13BE01605F71
:105410007F4F84E29CE00E943823C801A3960FB618
:10542000F894DEBF0FBECDBFDF91CF911F910F91DA
:10543000FF90EF900895FF920F931F93CF93DF9308
:10544000EC01F62E08811981C8010E94D076F81669
:1054500021F06F2DC8010E94D876CE01DF91CF9147
:105460001F910F91FF900895AF92BF92CF92DF925C
:10547000EF92FF920F931F93CF93DF931F921F9290
:10548000CDB7DEB78B016B0123E2C20ED11C7B01CD
:105490005C01A61AB70AC5018E0D9F1D9A838983E8
:1054A000F70161917F01CE0101960E941B2AEC1445
:1054B000FD0489F7C8010F900F90DF91CF911F91E4
:1054C0000F91FF90EF90DF90CF90BF90AF90089535
:1054D000FF920F931F93CF93DF93CDB7DEB7C758DB
:1054E000D1090FB6F894DEBF0FBECDBF8091510237
:1054F000882309F41AC10E94BF160091EF0710918A
:10550000F0072091F1073091F207601B710B820BBD
:10551000930B683C71058105910508F406C10E9452
:10552000BF166093EF077093F0078093F107909395
:10553000F2070091ED071091EE07035011098091D9
:105540007A09811104C080917909882361F08091E2
:10555000F507811108C08091F407811104C0023061
:10556000110508F0E2C080915F098111DEC00E9440
:105570004D176AE070E080E090E00E948D1683E0B5
:105580009DE00E94B019882309F4CFC083E09DE01C
:105590000E94CB16882309F4C8C062EE72E0CE01E7
:1055A0008E579F4F0E947627F12C8091050DF8169B
:1055B00040F5EF2DF0E0ED5FF24F83811DA21CA2BC
:1055C0001FA21EA219A618A640E1BE016F5F7F4F61
:1055D00090E00E94AF71BE016F5F7F4FCE01849655
:1055E0000E94A52648A559A56CA17DA1CE018E5784
:1055F0009F4F0E94DC25CE0184960E94AC25F39437
:10560000D4CFCE018E579F4F0E94EE240E94BF162A
:1056100060936A0970936B0980936C0990936D098C
:1056200064E373E0CE0101960E947627BE016E57B7
:105630007F4FCE0101960E942226BC0184E29CE0AD
:105640000E949023CE0101960E94AC2561E088E083
:105650000E94C01568E770E080E090E00E948D161F
:1056600060E088E00E94C0150230110508F085C195
:1056700080917A09811105C080917909882309F404
:105680007CC1BE016E577F4FCE0184589F4F0E9450
:105690006D27EE966EAD7FADEE974EE050E0CE01F9
:1056A000895B9F4F0E94D97A66961FAE6697CE019E
:1056B000895B9F4F0E941F258C010E94BF1660933B
:1056C000E5077093E6078093E7079093E8078091DA
:1056D000ED079091EE0784309105A1F50F3F10077B
:1056E00069F460E977E187E89BE00E94A42362E621
:1056F00077E187E89BE00E94A42303C0C8010E94D1
:105700009128CE0184589F4F0E94AC2583E09DE0F4
:105710000E94551948E060E183E09DE00E949C19D9
:10572000CE018E579F4F0E94AC25C957DF4F0FB651
:10573000F894DEBF0FBECDBFDF91CF911F910F91C7
:10574000FF9008950397E9F60F3F100709F44BC047
:1057500023E2209FC001219F900D1124BE016F5FA5
:105760007F4F8C5B9F4F0E94B61F48A159A16AA131
:105770007BA1CE0184960E94AF26BE01605F7F4F61
:10578000CE0186599F4F0E94762768E473E0CE01D0
:1057900080599F4F0E947627BE0166597F4FCE01E8
:1057A00080599F4F0E94222668E073E00E940826DD
:1057B000BE016C5D7F4F0E942226BC0187E89BE002
:1057C0000E949023CE0180599F4F0E94AC25CE01AC
:1057D00086599F4F0E94AC25CE0184960E94AC252D
:1057E00064E477E186CF0E944E298C0197FF05C0C3
:1057F00081E397E10E94442784CF4EE050E0BE0150
:10580000695B7F4FCE0101960E94D97A1F861F8E59
:105810006091CD0C7091CE0C4EE050E0CE014096E0
:105820000E94D97A1E8E88E48F8F8091E107909133
:10583000E207A091E307B091E40788A399A3AAA384
:10584000BBA383E2FE013196DE01949601900D9296
:105850008A95E1F723E2209FC001219F900D11243A
:10586000BE016C5D7F4F8C5B9F4F0E94342A28A144
:1058700039A14AA15BA1BE01605F7F4FCE010196B5
:105880000E94C35B61E088E00E94C01568EC70E094
:1058900080E090E00E948D1660E088E00E94C015D4
:1058A0000E94701E60E080E00E943E1E64E277E18C
:1058B00082E89DE00E94CF13BE01605F7F4F82E8C7
:1058C0009DE00E94362461E080E00E943E1E6EE171
:1058D00077E182E89DE00E94CF1348A159A16AA117
:1058E0007BA122E030E082E89DE00E94ED2248A109
:1058F00059A16AA17BA1CE0186599F4F0E94AF2674
:10590000BE01605F7F4FCE0180599F4F0E94762776
:1059100069E673E0CE018A589F4F0E947627BE0148
:1059200060597F4FCE018A589F4F0E94222668E01F
:1059300073E00E940826BE0166597F4F0E9422260E
:10594000BC0187E89BE00E949023CE018A589F4FBC
:105950000E94AC25CE0180599F4F0E94AC25CE01FC
:1059600086599F4F0E94AC2560ED77E080E090E083
:105970000E948D160E941D27C4CE8091F5078823B2
:1059800009F4FFC18091F407882309F4FAC1BE012C
:105990006E577F4FCE018A589F4F0E946D27EC961D
:1059A0008EAD9FADEC971DA21CA21FA21EA219A630
:1059B00018A64AE0BE016F5F7F4F0E94AF71BE0123
:1059C0006F5F7F4FCE0184960E94A52663E873E047
:1059D000CE0101960E947627BE016A587F4FCE0104
:1059E00001960E94222669E973E00E940826BE0102
:1059F0006C5D7F4F0E942226BC0184E29CE00E94E5
:105A00009023CE0101960E94AC25CE0184960E947F
:105A1000AC2563EA73E0CE0101960E947627BE01B1
:105A20006A587F4FCE0101960E942226BC0187E86A
:105A30009BE00E949023CE0101960E94AC250E941B
:105A4000701E60E080E00E943E1E68E878E182E817
:105A50009DE00E94CF13EC968EAD9FADEC97892B05
:105A600059F568E778E187E89BE00E94A42360E0AD
:105A700080E00E943E1E6EE678E182E89DE00E9492
:105A8000CF1360ED77E080E090E00E948D161092D9
:105A9000F5076DE478E187E89BE00E94A4230E946B
:105AA000701E60E080E00E943E1E6EE378E182E8B6
:105AB0009DE00E94CF137EC0E8966EAD7FADE89763
:105AC0004EE050E0CE0184960E94D97A1AAACE0107
:105AD00084960E941F25019639F164E278E187E8F7
