:100000000C94C6110C94364E0C940B4E0C94E04D8F
:100010000C94B54D0C948A4D0C945F4D0C94344D5A
:100020000C94094D0C94F7110C94F7110C94F711E2
:100030000C94F7110C94F7110C94F7110C94F71120
:100040000C94F7110C94F7110C94F7110C94F71110
:100050000C94F7110C94F7110C94F7110C94BF4CFD
:100060000C94F7110C94894C0C945F4C0C94F71180
:100070000C94F7110C94F7110C94F7110C94F711E0
:100080000C94F7110C94F7110C94F7110C94F711D0
:100090000C94294C0C94FF4B0C94F7110C94614E6A
:1000A0000C94F7110C94F7110C94F7110C94F711B0
:1000B0000C94F7110C94F7110C94F7110C94F711A0
:1000C0000C94F7110C94F7110C94F7110C94F71190
:1000D0000C94F7110C94F7110C94F7110C94F71180
:1000E0000C94F7110C9420120C94331A0C94F31303
:1000F0000C949B1B0C94E91C0C94461A0C94C6128D
:100100000C94DF130C94F7130C942C630C9463146D
:100110000C94E9130C94D2130C9440150C94DE1734
:100120000C94FB130C9401140C942D120C94681273
:100130000C94AB520C94981B0C947A1A0C940014E7
:100140000C94241A0C94DB130C9405140C944D1A83
:100150000C9455130C94231A0C94A4120C9495121D
:100160000C94E5130C94CA130C942E120C94C01327
:100170000C9408130C9421120C943C180C94ED135D
:100180000C94A3140C94B8120C9432140C94D51340
:100190000C94CC140C94C6130C94CE134E414E49BF
:1001A0004E495459494E46CDCCCC3D0AD7233C1735
:1001B000B7D13877CC2B329595E6241FB14F0A0082
:1001C0000020410000C84200401C4620BCBE4CCA72
:1001D0001B0E5AAEC59D7400407A10F35A00A072EF
:1001E0004E18090010A5D4E80000E8764817000072
:1001F000E40B54020000CA9A3B000000E1F5050040
:100200000080969800000040420F000000A0860188
:10021000000000102700000000E803000000006458
:1002200000000000000A00000000000100000000C3
:10023000002C76D888DC674F0823DFC1DFAE59E198
:10024000B1B796E5E3E453C63AE651997696E8E607
:10025000C28426EB898C9B62ED407C6FFCEFBC9CDA
:100260009F40F2BAA56FA5F490055A2AF75C936BEC
:100270006CF9676DC11BFCE0E40D47FEF520E6B5A7
:1002800000D0ED902E0300943577050080841E0881
:100290000000204E0A000000C80C333333330F989F
:1002A0006E12831141EF8D2114893BE65516CFFE66
:1002B000E6DB18D1844B381BF77C1D901DA4BBE4F2
:1002C00024203284725E228100C9F124ECA1E53D34
:1002D000275072652D436C6F7365204F666673659A
:1002E000742073617665643A2000536176656420FA
:1002F0004F776E6572204E756D6265723A200045CB
:100300004550524F4D207772697465206661696C63
:10031000656420666F7220666C6F7743616C6962FA
:10032000726174696F6E466163746F7221205265E9
:10033000747279696E672E2E2E00454550524F4DCE
:10034000207772697465206661696C656420666FE8
:10035000722070726963655065724C6974657221B0
:10036000205265747279696E672E2E2E0053544F99
:100370005245445F43415244533A002000436F6D5D
:100380006D616E64733A20277072696365272C2053
:100390002763616C666163746F72272C202770720B
:1003A00065636C6F7365272C202773657470686FA5
:1003B0006E65272C202762616C616E6365272C2097
:1003C000277265736574272C20276E6577706173BB
:1003D00073272C20277573657270617373272C2027
:1003E00027414444434152443A3C6E616D653E3A74
:1003F0003C62616C616E63653E272C20274144445A
:1004000042414C414E43453A3C6E616D653E3A3C3B
:10041000616D6F756E743E272C202744454C455402
:1004200045434152443A3C6E616D653E272C20277E
:1004300044454C455445414C4C43415244533A3C4D
:1004400070617373776F72643E272C20274341528B
:10045000444C495354272C20276578697427002081
:10046000005072652D436C6F7365204F666673652F
:1004700074206C6F616465643A2000200050686FDE
:100480006E653A200043616C6962726174696F6ED7
:1004900020466163746F723A200050726963652F61
:1004A0004C203A20547368200043757272656E7454
:1004B00020446174613A0020002000436F6D6D613B
:1004C0006E64733A2027414444434152443A3C6E9F
:1004D000616D653E3A3C62616C616E63653E272CDE
:1004E000202741444442414C414E43453A3C6E61D1
:1004F0006D653E3A3C616D6F756E743E272C20270A
:1005000065786974270020002000436F6E74616372
:10051000743A202B3235353736373833303331396A
:10052000005448414E4B5320464F5220545255538D
:1005300054494E472044757261626C65205761745E
:1005400065722056656E64730052657475726E65CF
:100550006420746F20576F726B204D6F64652E009E
:10056000416C6C2064617461207361766564210064
:10057000200020002000456E746572202744454C01
:10058000455445414C4C43415244533A3C7061738D
:1005900073776F72643E27002000456E7465722089
:1005A0002744454C455445434152443A3C6E616DA5
:1005B000653E27002000456E746572202741444443
:1005C00042414C414E43453A3C6E616D653E3A3C7A
:1005D000616D6F756E743E27002000200020004F73
:1005E000722073656E64206F7468657220636F6D2E
:1005F0006D616E64732E00456E7465726564205380
:1006000065742050686F6E65204D6F64653A2053A5
:10061000656E642070686F6E65206E756D626572C0
:100620002028652E672E2C202B323535373637386B
:10063000333033313929002000200053656E6420A7
:100640006F7468657220636F6D6D616E64732E00E8
:100650002000546F74616C2053616C6573206E6F61
:10066000773A205473682000200053616C65732032
:10067000726573657421002000200053656E64204C
:100680006F7468657220636F6D6D616E64732E00A8
:100690002000546F74616C2053616C65733A205470
:1006A0007368200020002000456E74657265642028
:1006B000557365722050617373776F72642043685D
:1006C000616E6765204D6F64653A2053656E6420E6
:1006D0006E657720757365722070617373776F72C2
:1006E000642028342D31352063686172616374653C
:1006F0007273290020002000456E746572656420C5
:1007000050617373776F7264204368616E67652010
:100710004D6F64653A2053656E64206E6577207076
:10072000617373776F72642028342D3135206368CC
:1007300061726163746572732900200020004F723A
:100740002073656E64206F7468657220636F6D6DD1
:10075000616E64732E00456E74657265642043613A
:100760006C6663746F72204D6F64653A2053656EDA
:100770006420666163746F722028652E672E2C20BA
:10078000372E352900200020004F722073656E64DB
:10079000206F7468657220636F6D6D616E64732E77
:1007A00000456E7465726564205072696365206DE2
:1007B0006F64653A2053656E6420707269636520CA
:1007C00028652E672E2C2036302E30290020002957
:1007D000005D202841534349493A2000446973632E
:1007E000617264656420636861723A205B00200076
:1007F00053656E642064656661756C74206F722049
:100800006E65772070617373776F72642E0050612C
:100810007373776F726420726573657420746F20D0
:1008200064656661756C7421002000506173737794
:100830006F726420616E64206F776E6572206E75D2
:100840006D62657220726573657420746F206465D3
:100850006661756C742E005345545052453A0043FE
:10086000415244544F5055503A004552524F523A1B
:10087000496E76616C696420416D6F756E740045D8
:1008800052524F523A43617264204E6F7420466F49
:10089000756E6400436172642044656C65746564C0
:1008A00000535543434553533A43617264204465B2
:1008B0006C657465640043617264204E6F742046F9
:1008C0006F756E64004552524F523A436172642014
:1008D0004E6F7420466F756E6400454550524F4D03
:1008E00020436172647320436C65617265640053D8
:1008F000455450524943453A0053455443414C3ABC
:10090000002000496E76616C696420636F6D6D61D3
:100910006E64212053656E64202741444443415254
:10092000443A3C6E616D653E3A3C62616C616E6357
:10093000653E27206F72202765786974272E002076
:1009400000456E7465726564204164642043617281
:1009500064204D6F64653A205363616E20524649AE
:100960004420636172640020002000456E7465724B
:100970002027414444434152443A3C6E616D653EF8
:100980003A3C62616C616E63653E27206F7220277E
:100990006578697427004552524F523A496E766124
:1009A0006C696420416D6F756E74002000456E7433
:1009B00065722027414444434152443A3C6E616D84
:1009C000653E3A3C62616C616E63653E27206F72E2
:1009D00020276578697427004552524F523A4E617C
:1009E0006D6520416C7265616479205573656400A2
:1009F000456E7465722027414444434152443A3C59
:100A00006E616D653E3A3C62616C616E63653E2766
:100A1000206F7220276578697427004552524F5223
:100A20003A4E616D6520546F6F204C6F6E670045C4
:100A30006E7465722027414444434152443A3C6EEF
:100A4000616D653E3A3C62616C616E63653E272074
:100A50006F7220276578697427004552524F523AC9
:100A6000496E76616C696420466F726D61740049ED
:100A70006E76616C696420636F6D6D616E642120B8
:100A800053656E642027636F6E74696E75652720E9
:100A90006F72202765786974272E0020004F72201E
:100AA00073656E642027657869742720746F2073DE
:100AB000746F7020616464696E672063617264732F
:100AC00000456E7465722027414444434152443AC4
:100AD0003C6E616D653E3A3C62616C616E63653E81
:100AE0002720746F20636F6E74696E756520616472
:100AF00064696E67206120636172640020002000D9
:100B0000496E76616C696420636F6D6D616E6421FE
:100B10002053656E642020277072696365272C203E
:100B20002773657470686F6E65272C202763616C6E
:100B3000666163746F72272C20276E65777061730E
:100B400073272C20277573657270617373272C20AF
:100B50002741444443415244272C202741444442E6
:100B6000414C414E4345272C202744454C45544594
:100B700043415244272C202744454C455445414C81
:100B80004C4341524453272C2027434152444C4963
:100B90005354272C206F72202765786974272E0004
:100BA0002000496E76616C696420636F6D6D616EC3
:100BB00064212053656E6420277072696365272C59
:100BC000202773657470686F6E65272C202763611A
:100BD0006C666163746F72272C202772657365746D
:100BE000272C20276E657770617373272C2027755B
:100BF00073657270617373272C202741444443410D
:100C00005244272C202741444442414C414E434505
:100C1000272C202744454C45544543415244272C1A
:100C2000202744454C455445414C4C434152445384
:100C3000272C2027434152444C495354272C206FE2
:100C400072202765786974272E00200053656E6432
:100C5000206F7468657220636F6D6D616E64732EB2
:100C600000557365722070617373776F72642063CF
:100C700068616E67656420616E6420736176656487
:100C80002100200020005573657220706173737716
:100C90006F7264206D757374206265203420746FE8
:100CA000203135206368617261637465727321203D
:100CB00054727920616761696E2E00200053656E61
:100CC00064206F7468657220636F6D6D616E64730C
:100CD0002E0050617373776F7264206368616E6772
:100CE000656420616E642073617665642100200074
:100CF000200050617373776F7264206D7573742078
:100D00006265203420746F20313520636861726120
:100D10006374657273212054727920616761696E12
:100D20002E00200053656E64206F74686572206326
:100D30006F6D6D616E64732E0050686F6E65206E0E
:100D4000756D6265722073657420616E64207361D5
:100D50007665643A200020002000496E76616C6957
:100D6000642070686F6E65206E756D6265722120FB
:100D70004C656E6774682031302D313920636861AD
:100D800072732C20652E672E2C202B32353537368A
:100D9000373833303331392C206F72206F746865E7
:100DA0007220636F6D6D616E64732E0020002000F1
:100DB000496E76616C69642063616C666163746F0F
:100DC00072212053656E642061206E756D626572BC
:100DD000206265747765656E20302E3120616E6407
:100DE0002031302E302C206F72206F746865722095
:100DF000636F6D6D616E64732E0053656E64206F5A
:100E00007468657220636F6D6D616E64732E00206F
:100E10000043616C466163746F7220776174657220
:100E20002073657420616E642073617665643A2076
:100E30000020002000496E76616C69642070726940
:100E4000636520706572206C69746572212053653A
:100E50006E642061206E756D6265722062657477C4
:100E600065656E20302E303120616E642031303067
:100E700030302E302C206F72206F746865722063C2
:100E80006F6D6D616E64732E002000200053656EDF
:100E900064206F7468657220636F6D6D616E64733A
:100EA0002E00507269636520706572206C697465EC
:100EB000722073657420616E642073617665643A94
:100EC0002054736820002000496E76616C696420AC
:100ED000636F6D6D616E64212053656E64202741E0
:100EE0004444434152443A3C6E616D653E3A3C6233
:100EF000616C616E63653E272C202741444442416A
:100F00004C414E43453A3C6E616D653E3A3C616DE5
:100F10006F756E743E272C202765786974272E0024
:100F2000496E76616C696420636F6D6D616E6421DA
:100F30002053656E642020277072696365272C201A
:100F40002763616C666163746F72272C2027736559
:100F50007470686F6E65272C202762616C616E6308
:100F600065272C20277265736574272C20276E65F2
:100F70007770617373272C202775736572706173A6
:100F800073272C2027414444434152443A3C6E612C
:100F90006D653E3A3C62616C616E63653E272C2054
:100FA0002741444442414C414E43453A3C6E616DB9
:100FB000653E3A3C616D6F756E743E272C20274468
:100FC000454C455445434152443A3C6E616D653E43
:100FD000272C202744454C455445414C4C43415215
:100FE00044533A3C70617373776F72643E272C20D0
:100FF00027434152444C495354272C202765786994
:1010000074272E002000436F6E746163743A202BA6
:10101000323535373637383330333139005448417B
:101020004E4B5320464F52205452555354494E472D
:101030002044757261626C65205761746572205638
:10104000656E64730052657475726E656420746FAA
:1010500020576F726B204D6F64652E00416C6C20C1
:101060006461746120736176656421002000200052
:10107000556E617574686F72697A656420636F6D0F
:101080006D616E6421002000556E617574686F7229
:10109000697A656420636F6D6D616E642100200064
:1010A00020004552524F523A57726F6E672050617E
:1010B0007373776F726400200020005355434345DB
:1010C00053533A416C6C2043617264732044656CE5
:1010D000657465640020004552524F523A4F776E56
:1010E000657220417574686F72697A6174696F6E98
:1010F000205265717569726564004552524F523ACB
:10110000496E76616C696420466F726D617400206F
:1011100000456E74657265642041646420436172A9
:1011200064204D6F64653A205363616E20524649D6
:1011300044206361726400200020004552524F52E7
:101140003A496E76616C696420416D6F756E74000A
:1011500020004552524F523A4E616D6520416C72EB
:10116000656164792055736564004552524F523A67
:101170004E616D6520546F6F204C6F6E67002000CC
:101180004552524F523A496E76616C696420466FFF
:10119000726D6174002000556E617574686F7269BC
:1011A0007A656420636F6D6D616E6421002000209C
:1011B0000053656E64206F7468657220636F6D6D97
:1011C000616E64732E002000546F74616C20536153
:1011D0006C6573206E6F773A20547368200020008E
:1011E00053616C657320726573657421002000552E
:1011F0006E617574686F72697A656420636F6D6D76
:10120000616E6421002000200053656E64206F74BD
:1012100068657220636F6D6D616E64732E002000CF
:10122000546F74616C2053616C65733A2054736819
:1012300020002000556E617574686F72697A65646C
:1012400020636F6D6D616E64210020002000456E8B
:10125000746572656420557365722050617373778D
:101260006F7264204368616E6765204D6F64653AF4
:101270002053656E64206E657720757365722070EB
:10128000617373776F72642028342D313520636861
:10129000617261637465727329002000556E617517
:1012A00074686F72697A656420636F6D6D616E64D6
:1012B000210020002000456E746572656420506135
:1012C0007373776F7264204368616E6765204D6F3A
:1012D00064653A2053656E64206E65772070617393
:1012E00073776F72642028342D3135206368617202
:1012F00061637465727329002000556E61757468AE
:101300006F72697A656420636F6D6D616E64210030
:10131000200020004F722073656E64206F74686532
:101320007220636F6D6D616E64732E00456E74651F
:10133000726564205365742050686F6E65204D6F30
:1013400064653A2053656E642070686F6E65206E28
:10135000756D6265722028652E672E2C202B323524
:101360003537363738333033313929002000556E60
:10137000617574686F72697A656420636F6D6D6101
:101380006E642100200020004F722073656E64207F
:101390006F7468657220636F6D6D616E64732E008B
:1013A000456E74657265642043616C2020776174BA
:1013B0006572204D6F64653A2053656E64206361E9
:1013C0006C6962726174696F6E20666163746F72BA
:1013D0002028652E672E2C20372E35290020005519
:1013E0006E617574686F72697A656420636F6D6D84
:1013F000616E642100200020004F722073656E64CE
:10140000206F7468657220636F6D6D616E64732EFA
:1014100000456E746572656420507269636520775B
:1014200061746572204D6F64653A2053656E642067
:10143000707269636520706572206C6974657220D2
:1014400028652E672E2C2036302E3029002000559E
:101450006E617574686F72697A656420636F6D6D13
:10146000616E642100200020004F722073656E645D
:10147000206F7468657220636F6D6D616E64732E8A
:1014800000456E7465726564205072652D436C6F03
:101490007365204D6F64653A2053656E64206F66F6
:1014A0006673657420696E206C6974657273202898
:1014B000652E672E2C20302E332900200020004975
:1014C0006E76616C6964206F666673657421205363
:1014D000656E64206E756D62657220302E30202D31
:1014E0002031302E30206C69746572732C206F723D
:1014F000206F7468657220636F6D6D616E64732E0A
:10150000002000200053656E64206F7468657220AF
:10151000636F6D6D616E64732E00206C697465720B
:1015200073005072652D636C6F7365206F66667310
:1015300065742073657420616E64207361766564E0
:101540003A200020002000496E636F727265637458
:101550002070617373776F726421205472792061F7
:101560006761696E206F7220707265737320726597
:1015700073657420666F722035207365636F6E64C7
:101580007320746F2072657665727420746F2064A6
:10159000656661756C742070617373776F72642E09
:1015A000002000200055736572204D6F6465002097
:1015B0000044757261626C652057617465722056D3
:1015C000656E64733A20436F6E746163743A202BC6
:1015D0003235353736373833303331390020002053
:1015E000004F776E6572204D6F6465002000447572
:1015F0007261626C652057617465722056656E6415
:10160000733A20436F6E746163743A202B32353520
:101610003736373833303331390020002000436FFC
:101620006E746163743A202B323535373637383370
:1016300030333139005448414E4B5320464F5220ED
:101640005452555354494E472044757261626C653B
:101650002057617465722056656E6473005265741C
:1016600075726E656420746F20576F726B204D6FBA
:1016700064652E00426C7565746F6F7468206964D0
:101680006C652074696D656F75742072656163683F
:1016900065642E20416C6C206461746120736176F6
:1016A0006564210052657475726E696E6720746F8F
:1016B00020576F726B00426C7565746F6F74682091
:1016C00054696D656F7574004C4956453A004D4F2D
:1016D00042494C455041594F4E3A204C6970612067
:1016E0006B77612053696D7520696D6577617368EB
:1016F0007761206E612053757065722041646D6959
:101700006E0043415244434845434B3A00434152E3
:10171000445245473A005363616E20524649442083
:1017200043617264005363616E20616E6F7468651B
:10173000722063617264206F722073656E6420276B
:1017400065786974270042616C3A200043617264D5
:101750002053617665643A20005363616E205246DF
:1017600049442043617264005363616E20616E6F6F
:10177000746865722063617264206F722073656E95
:101780006420276578697427004361726420457876
:1017900069737473004552524F523A436172642028
:1017A000416C726561647920457869737473005384
:1017B00063616E2052464944204361726400536362
:1017C000616E20616E6F746865722063617264205F
:1017D0006F722073656E64202765786974270045F1
:1017E0006D70747920546167004552524F523A45EA
:1017F0006D70747920546167005363616E6E696E19
:10180000672E2E2E004B5553414A494C49204B41DF
:10181000444900574153494C49414E41204E4120D3
:101820004F574E4552004B41444920484149504191
:1018300054494B414E4900413A57454B4120534191
:101840004C494F20423A4F4E444F410053414C497E
:101850004F3A2054736820004A494E413A200020F4
:101860006C616B696E69206C696D6570756E67750A
:101870007A77612068616469206B696B6F6D6F2096
:10188000636861206F66666C696E652000E29AA0ED
:10189000EFB88F204F46464C494E45204341503AC1
:1018A0002073616C696F206C61206B616469202812
:1018B000636163686529206E692000494E41414E8D
:1018C00047414C4941204B4144492E2E2E0054584B
:1018D0004E3A434F494E3A0054584E3A4D4F4249C2
:1018E0004C45434F494E3A004B41524942552054D2
:1018F000454E41004153414E54452053414E410015
:101900005473683A004C6974613A004A554D4C4131
:10191000205941204C4954413A004A554D4C413AD6
:101920005473682000494E41544F41204D414A496B
:101930002E2E2E2E2E2E2E00576173696C69616E2D
:10194000612041646D696E004D415348494E452008
:10195000494D4546554E475741004341524453591E
:101960004E432064656C6574653A20002062616CAA
:10197000616E63653D004341524453594E432075A7
:1019800070736572743A20004341524453594E4378
:101990003A20454550524F4D20696D656A6161207E
:1019A000284D41585F54414753292C20696D657378
:1019B00068696E647761206B756F6E67657A610028
:1019C000F09F92B320436172642072656164657216
:1019D0002028524649442920494D455A494D5741EE
:1019E00020E28094206D617368696E6520796120C2
:1019F0007361726166752070656B65652028696D1D
:101A00006568696661646869776120454550524F31
:101A10004D2900F09F92B32043617264207265618A
:101A20006465722028524649442920494D45574152
:101A3000534857412028696D656869666164686923
:101A4000776120454550524F4D2900F09F949220D8
:101A5000464F52434556414C56453A2076616C7686
:101A60006520696D6566756E67776120286D6D69A3
:101A70006C696B692900F09F949320464F5243454F
:101A800056414C56453A2076616C766520696D6505
:101A900066756E67756C69776120286D6D696C6914
:101AA0006B692C206D616A61726962696F2920E23D
:101AB00080942069746166756E6777612079656EC0
:101AC0007965776520626161646120796120736561
:101AD0006B756E646520333000F09F94A7204D41F4
:101AE000494E54454E414E4345204D4F44453A20C2
:101AF0004F464620286D6D696C696B692920E2802C
:101B0000942064697370656E73696E6720696D6592
:101B1000727564697368776100F09F94A7204D41E6
:101B2000494E54454E414E4345204D4F44453A2081
:101B30004F4E20286D6D696C696B692920E2809495
:101B40002064697370656E73696E6720696D657373
:101B5000696D616D697368776100F09F9493204DA2
:101B6000617368696E6520696D6566756E67756C11
:101B7000697761206E612053757065722041646DD4
:101B8000696E20E280942064697370656E73696E7B
:101B90006720696E61727568757369776120746515
:101BA0006E612028696D656869666164686977613E
:101BB00020454550524F4D2900F09F9492204D41B1
:101BC0005348494E4520494D4546554E47574120BB
:101BD0006E612053757065722041646D696E20E2FC
:101BE00080942064697370656E73696E6720696D97
:101BF0006573696D616D69736877612028696D65CA
:101C000068696661646869776120454550524F4D47
:101C100029002000200053455454494E47533A2090
:101C20007072652D636C6F7365206D707961206BC8
:101C300075746F6B61207365727665723A2000531C
:101C4000455454494E47533A2063616C696272614E
:101C500074696F6E206D707961206B75746F6B6144
:101C6000207365727665723A200053455454494E8C
:101C700047533A20626569206D707961206B7574F5
:101C80006F6B61207365727665723A20004F46462D
:101C90004341503A206B696B6F6D6F206B697079AF
:101CA0006120636861206F66666C696E653A20002A
:101CB0004C697465723A20004D414C49504F20598F
:101CC000414D4546414E494B49574100496E61736C
:101CD00075626972692E2E2E0057656B612050491E
:101CE0004E206B757468696269746973686100413C
:101CF0004E47414C49412053494D552059414B4F86
:101D0000004D4F42494C455041594F46463A204CB0
:101D1000697061206B77612053696D7520696D650D
:101D20007A696D7761206E6120537570657220410C
:101D3000646D696E0000002200250028002B002E33
:101D4000003100340002010000050108010B010010
:101D50000020002300260029002C002F0032000064
:101D600001000003010601090100000A0B02090C31
:101D70000D0E080703040100000000000000000031
:101D80000000000000000000000000000000000053
:101D90000000000000121110000000000000000010
:101DA0000000000000000000000000000000000033
:101DB000002100240027002A002D003000330001FC
:101DC000010000040107010A010102102020080897
:101DD000102040102040800201020108040201018D
:101DE0000204081020408080402010080402018076
:101DF00004020180402010080402010804020101CD
:101E000002040810204080010204081020408005D0
:101E1000050505070508080808020202020A0A0863
:101E20000804040404010101010101010103030389
:101E30000303030303040707070C0C0C0C0C0C0C26
:101E40000C0202020206060606060606060B0B0B2D
:101E50000B0B0B0B0B5072652D436C6F7365204F92
:101E60006666736574206C6F616465643A2000F087
:101E70009F92B32043617264207265616465722031
:101E80002852464944293A20494D455A494D57411F
:101E90002028454550524F4D2920E28094206D6105
:101EA0007368696E6520796120736172616675205F
:101EB00070656B656500F09F92B32043617264208A
:101EC000726561646572202852464944293A204966
:101ED0004D455741534857412028454550524F4D95
:101EE0002900F09F9492204D617368696E652069A6
:101EF0006C696B75776120494D4546554E47574192
:101F00002028454550524F4D2920E2809420696E8B
:101F10006162616B6920696D6566756E67776120C6
:101F20006D70616B612053757065722041646D69DD
:101F30006E20616966756E677565003A20456D7043
:101F4000747900536C6F7420002C2042616C616EB8
:101F500063653D002C204E616D653D003A20546163
:101F6000673D00536C6F74200053746F726564207A
:101F700043617264733A00507269636520706572E0
:101F8000204C6974657220004C6F61646564204F59
:101F9000776E6572204E756D6265723A20004361FE
:101FA0006C6962726174696F6E20466163746F72EE
:101FB0003A200020442E572E5620004455524142CC
:101FC0004C452057415445522056454E4400484206
:101FD0003A00202020202020200053696D753A20EF
:101FE00000494E4154554D41204F4D42492E2E2E11
:101FF000004D4F42494C455041593A002020202085
:1020000020202020202020202020202020202020D0
:10201000004B49415349204B49444F474F205341BE
:102020004E41002020202020202020202000233A84
:1020300054756D612020423A476861697269004BAE
:1020400069617369205473683A20004C49504120FB
:102050004B57412053494D5500202020202020205F
:1020600020202020202020202020202020004E4141
:102070004D42412053492053414849484920283185
:10208000302900233A456E64656C656120423A4709
:102090006861697269004E616D62613A20004C4965
:1020A0005041204B57412053494D5500434F494E15
:1020B00042414C3A0054584E3A434152443A004B44
:1020C00041524942552054454E41004153414E54DE
:1020D000452053414E41005473683A004C69746185
:1020E0003A004A554D4C41205941204C4954413AFF
:1020F000004A554D4C413A5473682000494E4154B2
:102100004F41204D414A492E2E2E2E0057617369B2
:102110006C69616E612041646D696E004D41534888
:10212000494E4520494D4546554E4757410053635A
:10213000616E204B6164692054656E61004D5544A9
:102140004120554D454953484100413A57454B417F
:102150002053414C494F20423A4F4E444F41005387
:10216000414C494F3A2054736820004A494E413A45
:1021700020004D55444120554D45495348410020CC
:10218000202020202020202020202020202020006F
:1021900053414C494F3A2054736820004A494E41FC
:1021A0003A20004D616A692E2E2E2E2E004C697445
:1021B00065723A2000200053414C494F2048414C61
:1021C00049544F5348490020004B49415349204B43
:1021D00049444F474F2053414E4100413A57454BE8
:1021E000412053414C494F20423A4F4E444F410009
:1021F00053414C494F3A2054736820004A494E419C
:102200003A200048414B554E41204B49415349002B
:102210004B61646920496D656F6E646F6C657761B1
:1022200000423A4F4E444F4120202A3A46555441ED
:1022300000424F4E59455A412023204B5552554894
:102240005553556000200057454B41204B494153A1
:1022500049205473683A004B61646920496D656F89
:102260006E646F6C65776100545A533A20004F4E8C
:1022700047455A412053414C494F004C697465729F
:102280003A200044697370656E73696E6720576108
:102290007465722028436F696E7329002020200026
:1022A00053414C494F20545A533A200020202020BB
:1022B00020202020202020202020200057454B4196
:1022C000205341524146550057454B41204B414414
:1022D000490057454B4120534152414655204155F5
:1022E00000527564692062616164617965004D41E5
:1022F00054454E47454E455A4F00576173696C69C6
:10230000616E612041646D696E004D415348494ED4
:102310004520494D4546554E4757410048414B558C
:102320004E412053485547485552490053797374DC
:10233000656D20526573657400E28FB120464F527F
:10234000434556414C56453A2076616C7665206986
:102350006D6566756E677761204B494F544F4D41EF
:1023600054494B49202873656B756E646520333082
:10237000207A696D657069746120E28094207573BC
:10238000616C616D61290000AB522C6311241FBE8A
:10239000CFEFD1E2DEBFCDBF00E00CBF2AE0A8E264
:1023A000B7E001C01D92A43DB207E1F717E0A0E03D
:1023B000B2E0E8ECF9ED00E00BBF02C007900D922F
:1023C000A832B107D9F711E1C5ECD1E100E006C0B0
:1023D00021970109802FFE010E94546AC43CD10755
:1023E00080E00807A9F70E94D6530C94D26C0C9495
:1023F0000000FC01A089B18982E08C93A485B58599
:102400001C92A685B7858FEC8C93108EA489B58914
:1024100086E08C93A289B3898C9180618C93A28988
:10242000B3898C9188608C93A289B3898C918068E0
:102430008C930288F389E02D80818F7D80830895BD
:10244000089508958CBD9DBD0895ED988DE292E1AB
:102450009093550280935402089508950895DC01E5
:10246000ED91FC910190F081E02D1994DB0114961F
:102470004D915C9115976D917C91DC01ED91FC91F2
:102480000280F381E02D1994EF92FF920F931F9336
:10249000CF93DF938C017B01D0E0C0E0F701EC0F1C
:1024A000FD1F6491662361F0D801ED91FC910190CC
:1024B000F081E02DC8011995892B11F02196EECFFE
:1024C000CE01DF91CF911F910F91FF90EF90089572
:1024D000AF92BF92CF92DF92EF92FF920F931F9332
:1024E000CF93DF936C017B018B01040F151FEB0170
:1024F0005E01AE18BF08C017D10759F06991D60127
:10250000ED91FC910190F081E02DC6011995892B88
:1025100079F7C501DF91CF911F910F91FF90EF9057
:10252000DF90CF90BF90AF900895FC01538D448D04
:10253000252F30E0842F90E0821B930B541710F06E
:10254000CF96089501970895FC01918D828D98177B
:1025500061F0A28DAE0FBF2FB11D5D968C91928D53
:102560009F5F9F73928F90E008958FEF9FEF089584
:10257000FC01918D828D981731F0828DE80FF11D4D
:10258000858D90E008958FEF9FEF0895FC01918D68
:10259000228D892F90E0805C9F4F821B91098F7361
:1025A000992708958DEC98E00E94C61221E0892BAE
:1025B00009F420E0822F08958AE699E00E94C6126D
:1025C00021E0892B09F420E0822F0895FC01A48DDD
:1025D000A80FB92FB11DA35ABF4F2C91848D90E045
:1025E00001968F739927848FA689B7892C93A08928
:1025F000B1898C91837080648C93938D848D9813B2
:1026000006C00288F389E02D80818F7D8083089544
:10261000EF92FF920F931F93CF93DF93EC0181E032
:10262000888F9B8D8C8D98131AC0E889F9898081D9
:1026300085FF15C09FB7F894EE89FF896083E8890C
:10264000F98980818370806480839FBF81E090E0FE
:10265000DF91CF911F910F91FF90EF900895F62E8B
:102660000B8D10E00F5F1F4F0F731127E02E8C8D25
:102670008E110CC00FB607FCFACFE889F98980816A
:1026800085FFF5CFCE010E94E612F1CFEB8DEC0F66
:10269000FD2FF11DE35AFF4FF0829FB7F8940B8F87
:1026A000EA89FB8980818062CFCFCF93DF93EC01F1
:1026B000888D8823B9F0AA89BB89E889F9898C912A
:1026C00085FD03C0808186FD0DC00FB607FCF7CFE6
:1026D0008C9185FFF2CF808185FFEDCFCE010E94E6
:1026E000E612E9CFDF91CF91089580E090E0892B49
:1026F00029F00E94DC1281110E94000080E090E02D
:10270000892B29F00E94D21281110E94000080E0E2
:1027100090E0892B49F080E090E0892B29F00E941D
:10272000000081110E94000080E090E0892B49F0B8
:1027300080E090E0892B29F00E94000081110C9428
:10274000000008958150823108F05AC0E82FF0E06F
:102750008827E255FC4E8F4F0C94546ACE13D21347
:10276000C013C613CA130014D513DB13DF13E5130C
:10277000E913ED13F313F7130014FB1301140514FD
:10278000809180008F7780938000089580918000F1
:102790008F7DF9CF80918000877FF5CF84B58F77CB
:1027A00084BD089584B58F7DFBCF8091B0008F7775
:1027B0008093B00008958091B0008F7DF9CF809113
:1027C00090008F77809390000895809190008F7D86
:1027D000F9CF80919000877FF5CF8091A0008F770F
:1027E0008093A00008958091A0008F7DF9CF809103
:1027F000A000877FF5CF809120018F778093200103
:102800000895809120018F7DF9CF80912001877FED
:10281000F5CFCF93DF93282F30E0F901E759F24E3F
:102820008491F901E753F24ED491F901E15FF14E41
:10283000C491CC23A1F081110E94A213EC2FF0E0EF
:10284000EE0FFF1FE15BF24EA591B491EC91ED23E9
:1028500081E090E009F480E0DF91CF91089580E07D
:1028600090E0FACF862F0C9409141F93CF93DF9337
:10287000282F30E0F901E759F24E8491F901E7532E
:10288000F24ED491F901E15FF14EC491CC23A9F04D
:10289000162F81110E94A213EC2FF0E0EE0FFF1F04
:1028A000EB5CF24EA591B4918FB7F894EC911111B5
:1028B00008C0D095DE23DC938FBFDF91CF911F91AD
:1028C0000895DE2BF8CF862F642F0C943514CF9308
:1028D000DF9390E0FC01E753F24E2491815F914E2B
:1028E000FC0184918823C9F090E0880F991FFC01B6
:1028F000E155F24EA591B491FC01EB5CF24EC5910D
:10290000D49161110DC09FB7F8948C9120958223CA
:102910008C938881282328839FBFDF91CF910895CE
:10292000623051F49FB7F8943C91822F80958323B5
:102930008C93E8812E2BEFCF8FB7F894EC912E2B50
:102940002C938FBFEACF862F642F0C9467143FB768
:10295000F8948091070890910808A0910908B09117
:102960000A0826B5A89B05C02F3F19F00196A11DA6
:10297000B11D3FBFBA2FA92F982F8827BC01CD01C9
:10298000620F711D811D911D42E0660F771F881F28
:10299000991F4A95D1F70895CF92DF92EF92FF9257
:1029A0000F931F930E94A71400912C0710912D07DD
:1029B00020912E0730912F076B017C01C01AD10A9C
:1029C000E20AF30A97018601013D1740210531050E
:1029D00090F020918C0830918D082F5F3F4F3093FD
:1029E0008D0820938C0860932C0770932D0780939B
:1029F0002E0790932F071F910F91FF90EF90DF907C
:102A0000CF9008958F929F92AF92BF92CF92DF9214
:102A1000EF92FF924B015C010E94A7146B017C01B5
:102A20000E94A7146C197D098E099F09683E7340A6
:102A300081059105A8F321E0821A9108A108B10847
:102A400088EEC80E83E0D81EE11CF11C81149104AD
:102A5000A104B10429F7FF90EF90DF90CF90BF90D1
:102A6000AF909F908F9008952FB7F89460910308CE
:102A70007091040880910508909106082FBF089571
:102A8000BC016E5F7F4FDC01ED91FC910190F08104
:102A9000E02D40E0199591E0811190E0892F089593
:102AA00008958EBD00000DB407FEFDCF8EB50895CC
:102AB000DF92EF92FF920F931F93CF93DF937C01EE
:102AC000062FD42E152F80E590E00E94221260E0A0
:102AD000F70186850E94351482E10E945115CD2DA3
:102AE000D12F0C0F1D2F111DC017D10721F0899177
:102AF0000E945115F9CF61E0F7018685DF91CF91F2
:102B00001F910F91FF90EF90DF900C9435141F935D
:102B1000CF93DF93EC01162F80E590E00E94221204
:102B200060E08E850E943514812F80680E945115C7
:102B300080E00E945115182F61E08E850E943514A7
:102B4000812FDF91CF911F9108950F931F93CF9302
:102B5000DF93EC01062F142F80E590E00E942212F3
:102B600060E08E850E943514802F0E945115812FC0
:102B70000E94511561E08E85DF91CF911F910F91D9
:102B80000C943514CF9361E08091510A0E94671430
:102B900061E08091510A0E9435148091520A8F3F62
:102BA00009F46AC060E00E9467148091520A0E9492
:102BB0000914892B09F060C061E08091520A0E94DB
:102BC000671460E08091520A0E94351483E090E01F
:102BD0000197F1F761E08091520A0E94351462E397
:102BE00070E080E090E00E94021540E064E283E43F
:102BF0009AE00E94A51540E066E283E49AE00E9414
:102C0000A51546E268E483E49AE00E94A51540E831
:102C100064E583E49AE00E94A51549EA66E583E449
:102C20009AE00E94A51543E068E583E49AE00E94DB
:102C3000A51548EE6AE583E49AE00E94A51540E4F4
:102C40006AE283E49AE00E94A5154DE362E283E420
:102C50009AE00E94A51568E283E49AE00E94871535
:102C6000982F93709330F9F0482F436068E283E423
:102C70009AE0CF910C94A5154FE062E083E49AE0CE
:102C80000E94A515C3E062E370E080E090E00E943E
:102C9000021562E083E49AE00E94871584FFA5CFC5
:102CA000C15089F7A2CFCF910895CF92DF92EF92D2
:102CB000FF920F931F93CF93DF93EC016B01F42EE0
:102CC000890140E062E00E94A51544E06AE0CE017F
:102CD0000E94A51540E864E1CE010E94A515A60159
:102CE0006F2DCE010E94581543E062E0CE010E9494
:102CF000A5150E9434156B017C0129E5C20ED11C7B
:102D0000E11CF11C6AE0CE010E94871582FF1BC006
:102D100040E062E0CE010E94A51564E4CE010E946D
:102D20008715F801808362E4CE010E948715F801BF
:102D3000818380E0DF91CF911F910F91FF90EF9001
:102D4000DF90CF9008950E9434156C157D058E0597
:102D50009F05C0F283E0EECF2F923F924F925F9299
:102D60006F927F928F929F92AF92CF92DF92EF926B
:102D7000FF920F931F93CF93DF931F921F92CDB7B4
:102D8000DEB74C012B01D42E390180E0E114F104AF
:102D900011F0F70180813C2C329490EF3922380EEB
:102DA00040E062E0C4010E94A5154FE768E0C4015D
:102DB0000E94A51540E864E1C4010E94A515A20186
:102DC0006D2DC4010E945815432D6AE1C4010E9473
:102DD000A5154CE062E0C4010E94A5156AE1C4019A
:102DE0000E948715482F40686AE1C4010E94A5151A
:102DF0000E9434151B012C01F4E22F0E311C411CE2
:102E0000511C68E0C4010E948715982F907309F047
:102E1000B7C080FF15C083E00F900F90DF91CF9176
:102E20001F910F91FF90EF90DF90CF90AF909F9008
:102E30008F907F906F905F904F903F902F9008956C
:102E40000E9434156215730584059505D0F2E3CF11
:102E50006114710409F469C00115110509F465C014
:102E600064E1C4010E948715382EF8018081831522
:102E700008F480C030823320E1F180E590E00E94C8
:102E8000221260E0F40186850E9435143A9482E9AA
:102E90000E945115CC20B1F08FEF90E09C0102C050
:102EA000220F331FCA94E2F7690182E90E9451158B
:102EB0009C2D9095F301208192238C21982B908357
:102EC000CC24C39423014C0C511CC31440F482E95C
:102ED0000E945115F20181932F01C394F6CF80E037
:102EE0000E945115F201808361E0F40186850E9401
:102EF000351468E1C4010E9487158770E114F1045C
:102F000011F0F701808323FC37C061147104B1F123
:102F10000115110599F1AA2089F1F801408141308C
:102F200031F4843029F58FEF77CF80E0ECCF423059
:102F3000F8F081111DC042509E012F5F3F4FB30139
:102F4000C4010E945516811167CFF8019081690E66
:102F5000711CF301329720819981291309C0F1E096
:102F60006F1A7108F30120819A81291709F454CF4F
:102F700087E052CF84E050CF82E04ECF80E04CCF4C
:102F80006CE0C4010E948715282E837109F460CF7C
:102F900081E042CF0F931F93CF93DF938C01D62F05
:102FA000C42F0E948715C0954C2F48236D2FC80150
:102FB000DF91CF911F910F910C94A5158F929F9245
:102FC000AF92CF92EF92FF920F931F93CF93DF9325
:102FD00000D01F921F92CDB7DEB74C0182E08D83E7
:102FE00040E064E2C4010E94A51540E066E2C4012D
:102FF0000E94A51546E268E4C4010E94A51586E278
:103000008B838D818230B0F140E86CE1C4010E9475
:10301000CA1787E08C83A12CC12CCE0104967C01B9
:103020008E010B5F1F4F9E012F5F3F4F41E0BE019E
:103030006D5F7F4FC4010E94AC16982F811117C09D
:103040008D818230B9F48C81811114C081E00F90A0
:103050000F900F900F900F90DF91CF911F910F91D4
:10306000FF90EF90CF90AF909F908F90089581E068
:10307000923069F380E0EBCF2F923F924F925F92B4
:103080006F927F928F929F92AF92BF92CF92DF9278
:10309000EF92FF920F931F93CF93DF93CDB7DEB7DD
:1030A0002D970FB6F894DEBF0FBECDBF16E04135A9
:1030B00008F045C1342E4B013C0140E86CE10E9410
:1030C000CA1783E98983332029F081E0F4019081D4
:1030D000953008F480E022242394B12C9B2D990F85
:1030E000990F990FD32CD91AD7FCD12C32E0882311
:1030F00019F098E89B8333E021E09D2D977009F447
:1031000020E09D2D959595959595290FC9F094E012
:10311000811193E0291708F4922FEB2DF0E03196FE
:10312000E80DF91D232F4191A1E0B0E0AC0FBD1FC8
:10313000A20FB11D4C932F5F422F431B491798F3E9
:10314000882311F0F8E0DF0E8FE18D150CF082C0BE
:1031500090E79A838B819C8189279D8189279E8115
:1031600089278F839E01285F3F4F47E0BE016F5F35
:103170007F4FC3010E945516182F8111E0C01A8697
:10318000E3E0EB87DC86CE0107962C0199E09D8772
:10319000CA844C2D4295407F4C0D6AE1C3010E94C8
:1031A000A515A12CCE010A967C018E01055F1F4F4B
:1031B00092014D85BE016F5F7F4FC3010E94AC1627
:1031C000182F823009F065C06CE1C3010E94871599
:1031D00085FDB5C08F7109F480E2282F30E04D2DB8
:1031E000DD0C550B421753070CF09DC0D82EE82F6D
:1031F000E595E595E595EF5F982F977081E009F4E7
:1032000080E0E80F81E090E08C0F9D1F8E0F911DF4
:10321000FC01215031092770332781E090E002C082
:10322000880F991F2A95E2F79C018081822B808369
:103230008BCF85E98983332031F081E0F4019081DF
:10324000983008F04BCF80E049CF87E9898326E0AA
:10325000B22EF9CF9D2D97709A878D2D85958595E6
:1032600085958E5F282F2295207F290F2A8321E0C4
:10327000911101C020E0280F2D8744244394512C44
:103280004C0E5D1E480E511CE9E0E81BEB87DC8606
:103290007FCF811154C080E2D82E9C8590320CF4EF
:1032A00057CF8B81883809F040C083E093E0EB2D45
:1032B000F0E03196E80DF91D980FA1E0B0E0AC0FF9
:1032C000BD1FA80FB11D2C9121938F5F8913F5CFDE
:1032D000BB84E3E0BE124DC08A8581114AC09E01C5
:1032E0002D5F3F4F41E0B201C3010E945516182FD8
:1032F000811125C09B81F201818198133CC09C8182
:103300008281981338C0808182FF12C02394F2E03A
:103310002F1609F48ECF83E0281609F496CF91E09A
:10332000291609F4CECE15E00AC082E094E0BFCFA2
:10333000F4018387822D880F820D8F5F8083812F18
:103340002D960FB6F894DEBF0FBECDBFDF91CF91A3
:103350001F910F91FF90EF90DF90CF90BF90AF90B3
:103360009F908F907F906F905F904F903F902F90A5
:10337000089511E0E4CF17E0E2CF20919107260FE6
:103380003327331F21323105ECF42091DA07FC0199
:1033900090E080E0243069F082E00895A0919107E8
:1033A0002191AC014F58584FA40FB52FB11D2C934C
:1033B0000196861798F380919107680F60939107A3
:1033C00080E0089581E008951092DA0781E080930B
:1033D000D9071092B40761E084E10E94351461E0DE
:1033E00085E10E943514E9EBF0E080818E7F8083D7
:1033F00080818D7F808388E48093B80085E480930A
:10340000BC000895CF93DF9391E0909370078823D9
:10341000B9F0C091B800D091BA008091BC008A7B0D
:103420008093BC0060E084E10E94351460E085E197
:103430000E9435140E94E419D093BA00C093B800DA
:10344000DF91CF9108950895E091CB088091CA084B
:10345000E81730F4F0E0E05BF84F808190E00895E9
:103460008FEF9FEF08959091CB088091CA082FEFBE
:103470003FEF981748F4E92FF0E0E05BF84F208128
:1034800030E09F5F9093CB08C90108958091CA08EE
:103490009091CB08891B990B0895CF92DF92EF9200
:1034A000FF920F931F93CF93DF937C01CB018A018F
:1034B0002091E007222389F0EB016B01C40ED51E99
:1034C000CC15DD0569F06991D701ED91FC91019072
:1034D000F081E02DC7011995F3CF642F0E94BD192B
:1034E000C801DF91CF911F910F91FF90EF90DF9076
:1034F000CF900895CF93DF931F92CDB7DEB7698346
:103500002091E0072223F9F02091C808203258F0DA
:1035100021E030E0FC013383228390E080E00F90D3
:10352000DF91CF9108958091C908E82FF0E0EF5125
:10353000F84F998190838F5F8093C9088093C80862
:1035400081E090E0ECCF61E0CE0101960E94BD19D0
:10355000F7CFCF92DF92EF92FF920F931F93CF930B
:10356000DF93FC01C48121E02093E007C0930108B0
:103570001092C9081092C8088385682B87E09AE0EA
:103580000E947A1AD091C808D13208F092C00E94E5
:10359000A7146B017C018091DA07811165C082E07C
:1035A0008093DA0781E08093D9078FEF8093D80763
:1035B0001092D707D093D607A1EEB7E0E6EBF7E07D
:1035C00080E0D81385C01092B5078091B507CC0F65
:1035D000C82BC093B5078091B407813009F07CC037
:1035E0001092B4070E94A7146B017C018091B5076B
:1035F0008093BB008091DC079091DD07A091DE07EE
:10360000B091DF07892B8A2B8B2B99F00E94A7148E
:103610000091DC071091DD072091DE073091DF0774
:103620006C197D098E099F090617170728073907A6
:10363000E0F18091BC0083FDD9CF85EC8093BC0084
:103640000E94A7146B017C018091DA07823009F493
:1036500045C08091D8078F3F61F18091D8078032B3
:1036600041F18091D80725C08091DC079091DD075A
:10367000A091DE07B091DF07892B8A2B8B2B09F4F1
:103680008ACF0E94A7140091DC071091DD072091DA
:10369000DE073091DF076C197D098E099F09061737
:1036A00017072807390708F076CF8091DB070E94BB
:1036B000021A1092C9081092C8081092E007DF9110
:1036C000CF911F910F91FF90EF90DF90CF900895D1
:1036D0009D9191938F5F75CF85EEB0CF8091DC0780
:1036E0009091DD07A091DE07B091DF07892B8A2B2F
:1036F0008B2B09F4A9CF0E94A7140091DC0710912D
:10370000DD072091DE073091DF076C197D098E09F6
:103710009F09061717072807390708F095CFC5CF67
:1037200088E08093CD0A60E082EC9AE00C94A91ABC
:1037300090E080E00895CF92DF92EF92FF92809127
:10374000B708811157C08091B608811153C00E94FB
:10375000A7146B017C018091280790912907A09103
:103760002A07B0912B07A7019601281B390B4A0B9A
:103770005B0BDA01C9018135934CA105B105D0F18C
:103780006091A5087091A6088091A7089091A8085B
:1037900020E030E048E452E40E9407696093A50805
:1037A0007093A6088093A7089093A8086091A50835
:1037B0007091A6088091A7089091A8080E94E569D9
:1037C0006093A9087093AA088093AB089093AC0803
:1037D0000E9434156093AD087093AE088093AF08D3
:1037E0009093B008C0922807D0922907E0922A0748
:1037F000F0922B07FF90EF90DF90CF9008950F93FA
:103800001F93CF938C01C62F0E94A91A6C2F64605E
:10381000C8010E94A91A6C2F6B7FC8010E94A91AC7
:1038200083EC90E00197F1F7CF911F910F910895EC
:103830000F931F93CF93DF938C01D62FC42F607FFC
:10384000642B0E94FF1B80E1D89FB00111246C2BD8
:10385000C801DF91CF911F910F910C94FF1BCF9363
:10386000DF9300D000D01F921F92CDB7DEB798E053
:10387000E0E8F2E0DE01119601900D929A95E1F7F1
:103880009091CA0A961710F46FEF690F262F30E057
:10389000220F331F41E050E04C0F5D1F240F351FF6
:1038A000F9016081680F606840E082EC9AE0289638
:1038B0000FB6F894DEBF0FBECDBFDF91CF910C9451
:1038C000181C40E061E082EC9AE00E94181C8BE337
:1038D0009FE10197F1F70895CF93DF931092CB0802
:1038E0001092CA081092C9081092C8080E94E419E0
:1038F00080E292E19093C7088093C60881E292E14A
:103900009093C5088093C4081092C70A8091CC0A8E
:10391000823018F098E09093C70A8093CA0A62E355
:1039200070E080E090E00E9402156091CD0A82EC88
:103930009AE00E94A91A68EE73E080E090E00E948D
:10394000021560E382EC9AE00E94FF1BCBE4D6E410
:10395000CE010197F1F760E382EC9AE00E94FF1B31
:103960002197F1F760E382EC9AE00E94FF1B83E568
:1039700092E00197F1F760E282EC9AE00E94FF1B6F
:103980006091C70A606240E082EC9AE00E94181CD5
:1039900084E08093C80A40E06CE082EC9AE00E94E8
:1039A000181C0E94611C82E08093C90A40E066E016
:1039B00082EC9AE00E94181C40E062E082EC9AE0FF
:1039C0000E94181C8BE39FE10197F1F7DF91CF91E3
:1039D000089541E00E94181C81E090E00895DC0108
:1039E00014968D919C9115976817790750F4ED9175
:1039F000FC911197E60FF71F15967C936E93149721
:103A000010820895CF93DF93FC0124813581232B0D
:103A100071F0C081D1816AE370E0CE010E948F6CA9
:103A2000009729F08C1B9D0BDF91CF9108958FEFAC
:103A30009FEFFACFFB0101900020E9F73197AF012A
:103A4000461B570BDC01ED91FC910280F381E02DC8
:103A500019948F929F92AF92BF92EF92FF920F9321
:103A60001F93CF93DF93CDB7DEB7A1970FB6F8942E
:103A7000DEBF0FBECDBF7C01FA01CB0119A22230FF
:103A800008F42AE08E010F5D1F4F822E912CB12C7D
:103A9000A12CBF01A50194010E94326AF901CA015B
:103AA0006A300CF5605DD8016E938D01232B242BB9
:103AB000252B79F790E080E0109721F0BD01C70138
:103AC0000E941A1DA1960FB6F894DEBF0FBECDBF9F
:103AD000DF91CF911F910F91FF90EF90BF90AF902A
:103AE0009F908F900895695CDECFCF92DF92EF9226
:103AF000FF92CF93DF93AB01BC0177FF1DC06A013A
:103B00007C016DE28AE699E00E942F12EC014427C5
:103B10005527BA014C195D096E097F092AE08AE62A
:103B200099E00E94291D8C0F9D1FDF91CF91FF907E
:103B3000EF90DF90CF9008952AE08AE699E0DF9138
:103B4000CF91FF90EF90DF90CF900C94291D2F9292
:103B50003F924F925F926F927F928F929F92AF921D
:103B6000BF92CF92DF92EF92FF921F93CF93DF939A
:103B7000EC016A017B01722EAB019601CB01B6010B
:103B80000E94196A6CEC72E0811126C0460157014F
:103B9000E894B7F82FEF3FEF4FE75FE7C501B401B7
:103BA0000E94196A81110CC02FEF3FEF4FE75FE7CA
:103BB000C501B4010E94AF6760ED72E0181664F0B1
:103BC0002FEF3FEF4FE75FE4C701B6010E94146A91
:103BD0001816B4F464ED72E0CE01DF91CF911F911D
:103BE000FF90EF90DF90CF90BF90AF909F908F901D
:103BF0007F906F905F904F903F902F900C941A1D84
:103C00002FEF3FEF4FE75FECC701B6010E94AF67B0
:103C100087FDE0CF20E030E0A901C701B6010E9496
:103C2000AF67312C212C87FF09C06DE2CE010E94C5
:103C30002F121C01F7FAF094F7F8F09410E060E00E
:103C400070E080E09FE3711641F020E030E040E258
:103C500051E40E9473691F5FF6CFA70196010E948D
:103C600007692B013C010E94E5694B015C012AE0D8
:103C7000BC01A401CE010E94291D7C01E20CF31CB1
:103C80001123C1F1C501B4010E94B4679B01AC01CD
:103C9000C301B2010E9406694B015C016EE2CE01D4
:103CA0000E942F12E80EF91E115020F120E030E0A2
:103CB00040E251E4C501B4010E9415682B013C01AA
:103CC0000E94E5694B01B12CA12C2AE0B501A401A9
:103CD000CE010E94291DE80EF91EC501B4010E9403
:103CE000B4679B01AC01C301B2010E9406694B019C
:103CF0005C01DACFC701DF91CF911F91FF90EF9068
:103D0000DF90CF90BF90AF909F908F907F906F90FB
:103D10005F904F903F902F9008950F931F93CF93F4
:103D2000DF93EC010E94A71D8C0168ED72E0CE01CB
:103D30000E941A1D800F911FDF91CF911F910F914B
:103D400008950C94A71D4F925F926F927F928F926D
:103D50009F92AF92BF92CF92DF92EF92FF920F931A
:103D60001F932B013C0149015A01670168EC76E180
:103D70008AE699E00E94441223E030E0B301A201F8
:103D80008AE699E00E94A11E6AE38AE699E00E9411
:103D90002F1223E030E0B501A4018AE699E00E94E9
:103DA000A11E6AE38AE699E00E942F1222E030E029
:103DB000B801A6018AE699E01F910F91FF90EF905C
:103DC000DF90CF90BF90AF909F908F907F906F903B
:103DD0005F904F900C948D1E0F931F93CF93DF93A2
:103DE000EC010E941A1D8C0168ED72E0CE010E9468
:103DF0001A1D800F911FDF91CF911F910F91089590
:103E00000F931F93CF93DF93EC010E9436128C0126
:103E100068ED72E0CE010E941A1D800F911FDF91A4
:103E2000CF911F910F9108950F931F93CF93DF931D
:103E3000EC010E9444128C0168ED72E0CE010E94F8
:103E40001A1D800F911FDF91CF911F910F9108953F
:103E500066E075E08DEC98E00E9444126BEB74E034
:103E60008DEC98E00E94141F69EB74E08DEC98E0F3
:103E70000C94441267EB74E08DEC98E00E944412BD
:103E800069EA74E08DEC98E00E94141F6AE974E01E
:103E90008DEC98E00E94441240914C0250914D02EA
:103EA00060914E0270914F0222E030E08DEC98E07C
:103EB0000E948D1E65E874E08DEC98E00E9444122B
:103EC0004091460250914702609148027091490228
:103ED00022E030E08DEC98E00E948D1E6DE774E0EA
:103EE0008DEC98E00E94441268E272E08DEC98E05C
:103EF0000E94EC1E6BE774E08DEC98E00E94441287
:103F000061E674E08DEC98E00E94441240913C021E
:103F100050913D0260913E0270913F0222E030E0FC
:103F20008DEC98E00E948D1E6FE574E08DEC98E0BA
:103F30000E9444126DE773E08DEC98E00E94141F1C
:103F40006BE773E08DEC98E00C9444120C941A1D0E
:103F5000FC0180819181009711F00C946A6360E00C
:103F600070E0CB010895AF92BF92CF92DF92EF92B3
:103F7000FF920F931F93CF93DF93DC01CD90DC90E2
:103F80001197C114D10439F01496CD91DC918C01B4
:103F90007601209761F4DF91CF911F910F91FF90EF
:103FA000EF90DF90CF90BF90AF90089575015701CB
:103FB000BFEFAB1ABB0AF7018081082E000C990BEA
:103FC0000E947E67892B91F72197CC0DDD1D88819A
:103FD000082E000C990B0E947E67892B29F0CE15C4
:103FE000DF0510F02197F3CFAE014F5F5F4F4E1901
:103FF0005F09D80115965C934E931497CE14DF0495
:1040000020F4B701C6010E94866CD801ED91FC91A5
:10401000119714968D919C91E80FF91F1082BBCFD8
:10402000CF93DF93FC01C081D181209761F089910A
:10403000882349F0082E000C990B0E947E6CFE012B
:1040400031978083F4CFDF91CF910895FB014481B4
:104050005581FC01248135812417350778F0808152
:104060009181009759F0FB016081718161157105A3
:1040700029F00E94AA6C21E0892B09F020E0822F10
:104080000895FC0124813581232B39F421E0FB01C3
:104090008081882349F020E007C0808191810E94BF
:1040A0009A6C21E0892BB9F7822F0895FC012481B5
:1040B0003581FB014481558124173507E1F4FC016A
:1040C00080819181FB01608171810097D1F0611540
:1040D0007105A1F4232BC1F0FC01808190E008C0A0
:1040E000232B91F0FB01808190E0919581959109BE
:1040F00021E0892B09F020E0822F08950E949A6C1C
:10410000F7CF6115710561F721E0F6CF0F931F938B
:10411000CF93DF938C01EB01FC01808191810097AB
:10412000E1F06881798161157105A9F042815381BF
:104130002C813D814217530770F00E94A36C8C8143
:104140009D81F801958384831D821C82DF91CF912C
:104150001F910F9108950E940C6B88819981F8013D
:10416000918380838A819B81938382838C819D81CB
:1041700095838483198218821B821A82E5CFCF939C
:10418000DF93EC0188819981009711F00E940C6BFC
:10419000198218821D821C821B821A82DF91CF91A4
:1041A0000895FC0180819181009711F00C940C6BB3
:1041B00008950F931F93CF93DF93EC01888199812A
:1041C000009759F02A813B812617370730F081E0AC
:1041D000DF91CF911F910F9108958B016F5F7F4FFA
:1041E0000E94956B009759F0998388831B830A83FB
:1041F0002C813D81232B59F7FC011082E8CF80E010
:10420000E7CFEF92FF920F931F93CF93DF93611548
:10421000710541F480E0DF91CF911F910F91FF90E4
:10422000EF90089541155105B1F07B01EC010C812F
:104230001D81040F151FB8010E94D920882351F356
:10424000288139818C819D81B701820F931F0E9443
:10425000A36C1D830C8381E0DECFCF93DF93EC0151
:104260006115710539F4CE010E94BF20CE01DF91A6
:10427000CF910895FB0101900020E9F73197AF013C
:10428000461B570B0E940121882369F3EFCFCF9380
:10429000DF93EC01FB0144815581608171810E94B3
:1042A0000121811103C0CE010E94BF20CE01DF9108
:1042B000CF910895CF93DF931F921F92CDB7DEB7B2
:1042C00069831A8241E050E0BE016F5F7F4F0E9418
:1042D00001210F900F90DF91CF910895EF92FF92FF
:1042E0000F931F93CF93DF93EC018B01F80164814F
:1042F00075816115710581F080819181009761F070
:1043000061507109860F971FFC018081803221F472
:10431000C8010E94EF1CEACF85E0E82EF12C60E294
:10432000C8010E945A21F1E0EF1AF108C1F7198281
:1043300018821B821A821D821C82B801CE010E9443
:104340008620CE01DF91CF911F910F91FF90EF90CA
:104350000895EF92FF920F931F93CF93DF93EC0199
:104360007B018A01BA010E94D92081110BC0CE01C4
:104370000E94BF20CE01DF91CF911F910F91FF903E
:10438000EF9008951D830C83B701888199810E9465
:10439000A36CF0CFFB0101900020E9F73197AF014A
:1043A000461B570B0C94A921EF92FF920F931F937A
:1043B000CF93DF93CDB7DEB7A1970FB6F894DEBFEA
:1043C0000FBECDBF7C01CB01BA01F7011182108273
:1043D00013821282158214828E010F5F1F4F22E01A
:1043E00044E00E944C63009789F0BC01C7010E9421
:1043F000CA21A1960FB6F894DEBF0FBECDBFDF91E4
:10440000CF911F910F91FF90EF900895C7010E94E7
:10441000BF20EFCF0F931F93CF93DF93CDB7DEB7BE
:1044200062970FB6F894DEBF0FBECDBF8C01CB01F3
:10443000F8011182108213821282158214824AE0DE
:10444000BE016F5F7F4F0E949563BE016F5F7F4F1C
:10445000C8010E94CA2162960FB6F894DEBF0FBE53
:10446000CDBFDF91CF911F910F910895CF93DF932F
:10447000EC011092BE0810925408109253086AED95
:1044800072E08BE29AE00E94CA216AED72E085E256
:104490009AE00E94CA210E94611C60E080E00E94B4
:1044A0002F1CBE0182EC9AE00E94A61F61E088E00A
:1044B0000E94351466E970E080E090E00E940215E9
:1044C00060E088E00E9435146CED75E080E090E0DB
:1044D0000E940215DF91CF910C94611CFB01DC015D
:1044E00011961C921E9213961C921E92129715966C
:1044F0001C921E9214978617970749F0608171816C
:104500006115710521F0448155810C94A92108950C
:10451000FC01118210821382128215821482FB0127
:1045200001900020E9F73197AF01461B570B0C941F
:10453000A921AF92BF92CF92DF92EF92FF920F9399
:104540001F93CF93DF936C015B017A0189012417DC
:10455000350720F48F2D7901042F182F6AED72E0B2
:10456000C6010E948822D5011496CD91DC91EC16EB
:10457000FD06E0F40C171D0708F4E801D501ED91E4
:10458000FC911197EC0FFD1F108110826D917C91B1
:104590006E0D7F1DC60161157105A1F00E94CA2133
:1045A000F50180819181C80FD91F1883C601DF9161
:1045B000CF911F910F91FF90EF90DF90CF90BF9020
:1045C000AF9008950E94BF20EBCFEF92FF920F9320
:1045D0001F93CF93DF93EC018A01FB0184819581C6
:1045E00030E020E0B0E0A0E050E040E08217930728
:1045F00058F18217930771F4A017B10701F5CE01A6
:104600000E949922CE01DF91CF911F910F91FF90CF
:10461000EF9008952817390740F4FB01E080F180FE
:10462000F701E20FF31FEF2821F41092CC08ECEC15
:10463000F8E0E081EA3301F32F5F3F4FD7CFA901C4
:104640004F5F5F4F1196F8CF6AED72E0CE010E9486
:104650008822D8CFCF93DF93EC01FB0124813581F1
:104660000E949922CE01DF91CF91089585ED80932C
:10467000BC008091DC079091DD07A091DE07B0912E
:10468000DF070796A11DB11D23E0B695A795979565
:1046900087952A95D1F72091BC0024FD03C0109284
:1046A000DA0708954091DC075091DD076091DE073D
:1046B0007091DF07452B462B472B69F30097A10527
:1046C000B10541F02AE22A95F1F700C00197A1094E
:1046D000B109E1CF8091DB070C94021A0F931F936D
:1046E000CF93DF9308E212E0C8E0D0E0F8016191D7
:1046F0008F01CE010E94DE682196CC31D105B1F741
:104700006AEE72E08AE699E00E94441268E272E082
:104710008AE699E0DF91CF911F910F910C94EC1EE6
:10472000FC01808191810C94D668AF92BF92CF92A8
:10473000DF92EF92FF920F931F93CF93DF931F921D
:104740001F92CDB7DEB78B016B0123E2C20ED11CE5
:104750007B015C01A61AB70AC5018E0D9F1D9A83C5
:104760008983CE0101960E949023F70181937F01F6
:10477000EC15FD0589F7C8010F900F90DF91CF91DF
:104780001F910F91FF90EF90DF90CF90BF90AF906F
:104790000895EF92FF920F931F93CF93DF93CDB7BE
:1047A000DEB7A3970FB6F894DEBF0FBECDBF84E48B
:1047B000E82EF12C10E000E0BE016F5F7F4FC701D3
:1047C0000E9495238981882351F00F5F1F4F83E258
:1047D000E80EF11C0233110579F70FEF1FEFC80146
:1047E000A3960FB6F894DEBF0FBECDBFDF91CF9179
:1047F0001F910F91FF90EF900895CF92DF92EF926B
:10480000FF920F931F93CF93DF93CDB7DEB7A3979C
:104810000FB6F894DEBF0FBECDBF6C0184E4E82E66
:10482000F12C10E000E0BE016F5F7F4FC7010E94D6
:1048300095234EE050E0B601CE0101960E94AA6C8D
:10484000892B19F4898181110AC00F5F1F4F83E200
:10485000E80EF11C0233110531F70FEF1FEFC8010D
:10486000A3960FB6F894DEBF0FBECDBFDF91CF91F8
:104870001F910F91FF90EF90DF90CF900895AF922E
:10488000BF92CF92DF92EF92FF920F931F93CF933D
:10489000DF931F921F92CDB7DEB78B016B0120E132
:1048A000C20ED11C7B015C01A61AB70AC5018E0D90
:1048B0009F1D9A838983CE0101960E949023F70160
:1048C00081937F01EC15FD0589F7C8010F900F90CA
:1048D000DF91CF911F910F91FF90EF90DF90CF90DC
:1048E000BF90AF900895AF92BF92CF92DF92EF92B8
:1048F000FF920F931F93CF93DF931F921F92CDB719
:10490000DEB78B016B0124E0C20ED11C7B015C0180
:10491000A61AB70AC5018E0D9F1D9A838983CE0101
:1049200001960E949023F70181937F01EC15FD050C
:1049300089F7C8010F900F90DF91CF911F910F91D0
:10494000FF90EF90DF90CF90BF90AF9008952F929F
:104950003F924F925F926F927F928F929F92AF920F
:10496000BF92CF92DF92EF92FF920F931F93CF935C
:10497000DF9300D000D000D01F921F92CDB7DEB7DA
:104980006C011B018FEF9FEFF60191838083FB0188
:1049900010821182128213820BE517E0F12CE12CB8
:1049A0001B86412C512C3201CE0101965C0148013D
:1049B00098E0890E911C1A870987CE0109960E94FA
:1049C0009023F50181935F010F5F1F4F08151905B3
:1049D00091F78D819E81AF81B8858F3FFFEF9F0753
:1049E000AF07BF07D9F02B85222351F0F101408199
:1049F000518162817381481759076A077B0760F408
:104A0000F10180839183A283B383F601F182E08276
:104A100049805A806B807C80F1E0FB872FEFE21A9F
:104A2000F20A80E1E816F10409F0BECF9B859111EE
:104A300006C0412C512C80E8682E8FEB782EC301E4
:104A4000B2012B960FB6F894DEBF0FBECDBFDF913B
:104A5000CF911F910F91FF90EF90DF90CF90BF907B
:104A6000AF909F908F907F906F905F904F903F900E
:104A70002F9008951F93CF93DF93EC01162F0E9480
:104A80009023811729F0612F888199810E94DE6827
:104A9000CE01DF91CF911F910895AF92BF92CF9237
:104AA000DF92EF92FF920F931F93CF93DF931F92AA
:104AB0001F92CDB7DEB78B016B0123E2C20ED11C72
:104AC0007B015C01A61AB70AC5018E0D9F1D9A8352
:104AD0008983F70161917F01CE0101960E943A25F9
:104AE000EC14FD0489F7C8010F900F90DF91CF916E
:104AF0001F910F91FF90EF90DF90CF90BF90AF90FC
:104B00000895AF92BF92CF92DF92EF92FF920F93F0
:104B10001F93CF93DF931F921F92CDB7DEB78B0108
:104B20006B0120E1C20ED11C7B015C01A61AB70A01
:104B3000C5018E0D9F1D9A838983F70161917F01C5
:104B4000CE0101960E943A25EC14FD0489F7C801B4
:104B50000F900F90DF91CF911F910F91FF90EF90E9
:104B6000DF90CF90BF90AF900895CF93DF93CDB7F4
:104B7000DEB760970FB6F894DEBF0FBECDBF68E01A
:104B800072E080E390E00E948125BE016F5F7F4F5D
:104B900080E390E00E943F2468E072E0CE0101963D
:104BA0000E949A6C892B61F06CEF72E08AE699E0C2
:104BB0000E94EC1E68E072E080E390E00E94812594
:104BC00060960FB6F894DEBF0FBECDBFDF91CF91D8
:104BD0000895CF93DF93CDB7DEB760970FB6F89403
:104BE000DEBF0FBECDBF68E172E08CE190E00E94B5
:104BF0008125BE016F5F7F4F8CE190E00E943F24D2
:104C000068E172E0CE0101960E949A6C892B61F0F6
:104C10006EE273E08AE699E00E94EC1E68E172E0C1
:104C20008CE190E00E94812560960FB6F894DEBF7B
:104C30000FBECDBFDF91CF910895AF92BF92CF92BB
:104C4000DF92EF92FF920F931F93CF93DF931F9208
:104C50001F92CDB7DEB78B016B0124E0C20ED11CD1
:104C60007B015C01A61AB70AC5018E0D9F1D9A83B0
:104C70008983F70161917F01CE0101960E943A2557
:104C8000EC14FD0489F7C8010F900F90DF91CF91CC
:104C90001F910F91FF90EF90DF90CF90BF90AF905A
:104CA0000895CF93DF9300D01F92CDB7DEB76CE4A9
:104CB00072E08CE290E00E941D26BE016F5F7F4F84
:104CC0008CE290E00E94732420914C0230914D02BE
:104CD00040914E0250914F0269817A818B819C8173
:104CE0000E9406699F772AE037ED43E25CE30E9469
:104CF000146A181664F46AE373E08AE699E00E9485
:104D0000141F6CE472E08CE290E00E941D260F906C
:104D10000F900F900F90DF91CF910895CF93DF9375
:104D200000D01F92CDB7DEB766E472E084E090E079
:104D30000E941D26BE016F5F7F4F84E090E00E94BD
:104D400073242091460230914702409148025091CD
:104D5000490269817A818B819C810E9406699F77D3
:104D60002AE037ED43E25CE30E94146A181664F40B
:104D70006FEF72E08AE699E00E94141F66E472E029
:104D800084E090E00E941D260F900F900F900F90EE
:104D9000DF91CF9108952F923F924F925F926F9241
:104DA0007F928F929F92AF92BF92CF92DF92EF92BB
:104DB000FF920F931F93CF93DF93CDB7DEB7C15808
:104DC000D1090FB6F894DEBF0FBECDBF8091BD08EC
:104DD000811104C08091BC08882349F080914D075F
:104DE000811105C080914C07882309F4D5C10E9428
:104DF0003415009148071091490720914A073091D6
:104E00004B07601B710B820B930B683C710581058E
:104E1000910508F4C1C10E94C2156AE070E080E00B
:104E200090E00E94021583E49AE00E94DE17882336
:104E300009F4A8C183E49AE00E944015382E882323
:104E400009F4A0C16AED72E0CE0184589F4F0E9420
:104E5000882210E08091450A181740F5E12FF0E014
:104E6000ED5BF54F83811DA21CA21FA21EA219A6F5
:104E700018A640E1BE016F5F7F4F90E00E94B563CE
:104E8000BE016F5F7F4FCE0184960E94CA2148A564
:104E900059A56CA17DA1CE0184589F4F0E9401218C
:104EA000CE0184960E94D1201F5FD4CFCE018458BA
:104EB0009F4F0E9410200E9434156093AD0870939C
:104EC000AE088093AF089093B00880914D07882377
:104ED00009F47AC280914C07882309F475C2BE0197
:104EE00064587F4FCE018A589F4F0E946E22EC96E5
:104EF0008EAD9FADEC971DA21CA21FA21EA219A6EB
:104F000018A64AE0BE016F5F7F4F0E94B563BE01E5
:104F10006F5F7F4FCE0184960E94CA2162E673E0E4
:104F2000CE0101960E948822BE016A587F4FCE01B1
:104F300001960E94472168E773E00E942D21BE017F
:104F40006C5D7F4F0E944721BC018AE699E00E9478
:104F5000001FCE0101960E94D120CE0184960E94AE
:104F6000D12062E873E0CE0101960E948822BE0142
:104F70006A587F4FCE0101960E944721BC018DECFB
:104F800098E00E94001FCE0101960E94D1200E944D
:104F9000611C60E080E00E942F1C69EF77E182ECE9
:104FA0009AE00E944412EC968EAD9FADEC97892B4F
:104FB00071F569EE77E18DEC98E00E94141F60E0D6
:104FC00080E00E942F1C6FED77E182EC9AE00E9456
:104FD000441260ED77E080E090E00E9402151092AC
:104FE0004D0781E0809347076EEB77E18DEC98E009
:104FF0000E94141F0E94611C60E080E00E942F1C30
:105000006FEA77E182EC9AE00E94441284C0E8964D
:105010006EAD7FADE8974EE050E0CE0184960E94E1
:10502000B86C1AAACE0184960E94FD23019651F114
:1050300065E977E18DEC98E00E94141F60E080E064
:105040000E942F1C69E877E182EC9AE00E944412EA
:1050500060ED77E080E090E00E94021510924D072D
:1050600081E08093470768E677E18DEC98E00E9445
:10507000141F0E94611C60E080E00E942F1C69E503
:1050800077E1C0CF0E94C9238C010F3F100709F0C0
:10509000A0C062E370E0CE0101960E940A226DE991
:1050A00073E0CE01895B9F4F0E948822BE016F5F33
:1050B0007F4FCE01895B9F4F0E94472166EB73E0D3
:1050C0000E942D21BC018DEC98E00E94001FCE01B2
:1050D000895B9F4F0E94D120CE0101960E94D12072
:1050E00010924C0710924D07109247076AED72E03C
:1050F00081E39AE00E94CA2110924307109244076C
:1051000010924507109246078091BD08882309F444
:105110005DC00E943A1FCE018A589F4F0E94D12045
:1051200080E5AB968FAFAB97AC961FAEAC972AE6F7
:1051300030E02C0F3D1F2E5F3F4F42E0BE0166590D
:105140007F4F83E49AE00E945516811110C0A12C74
:10515000C12CF12CE12C10E000E030E020E044E034
:10516000BE0166597F4F83E49AE00E94AC1648E086
:1051700060E183E49AE00E94CA17CE0184589F4FF1
:105180000E94D1200E94341560934807709349070C
:1051900080934A0790934B07CF57DF4F0FB6F89491
:1051A000DEBF0FBECDBFDF91CF911F910F91FF905A
:1051B000EF90DF90CF90BF90AF909F908F907F90B7
:1051C0006F905F904F903F902F9008950E94281FFE
:1051D000A2CF6091310A7091320A4FE050E0CE01C7
:1051E000C3960E94B86C23961FAE23978091430705
:1051F00090914407A0914507B091460727968CAF40
:105200009DAFAEAFBFAF279783E2FE01B496DE013C
:10521000119601900D928A95E1F723E2209FC0013B
:10522000219F900D1124BE016F5F7F4F8C5B9F4FBC
:105230000E944D252796CCACDDACEEACFFAC279799
:105240006DE077E18AE699E00E944412BE016C5D50
:105250007F4F8AE699E00E94A61F6AE38AE699E0FA
:105260000E942F12BE016D5C7F4F8AE699E00E947A
:10527000A61F6AE38AE699E00E942F1222E030E03E
:10528000B701A6018AE699E00E948D1E61E088E0E0
:105290000E94351468EC70E080E090E00E940215F6
:1052A00060E088E00E94351427964CAD5DAD6EAD90
:1052B0007FAD2797CE01895B9F4F0E94D421BE010D
:1052C0006D5C7F4FCE0186599F4F0E9488226EEB06
:1052D00073E0CE0180599F4F0E948822BE0166591B
:1052E0007F4FCE0180599F4F0E94472168ED73E0A8
:1052F0000E942D21BE01695B7F4F0E944721BC01A6
:105300008DEC98E00E94001FCE0180599F4F0E94B3
:10531000D120CE0186599F4F0E94D120CE01895BBA
:105320009F4F0E94D1200E94611C60E080E00E949B
:105330002F1C6CE477E182EC9AE00E944412BE01DB
:105340006D5C7F4F82EC9AE00E94A61F61E080E0D6
:105350000E942F1C66E477E182EC9AE00E944412DE
:1053600027964CAD5DAD6EAD7FAD279722E030E066
:1053700082EC9AE00E94A11E60ED77E080E090E070
:105380000E94021510924D0781E0809347076AED55
:1053900072E081E39AE00E94CA21109243071092C2
:1053A0004407109245071092460765E277E18DECBD
:1053B00098E00E94141F0E94611C60E080E00E943F
:1053C0002F1C66E177E11ECEEE966EAD7FADEE97B7
:1053D0004EE050E08FE598E00E94B86C10926D08A6
:1053E0000E94611C60E080E00E942F1C6BEB78E162
:1053F00082EC9AE00E9444126AED72E0CE018A5873
:105400009F4F0E948822BE0164587F4FCE01805971
:105410009F4F0E946E2262E077E18AE699E00E9447
:105420004412BE0160597F4F8AE699E00E94001F36
:105430006AED72E0CE0186599F4F0E9488220E9439
:1054400034152B013C010E94341564197509860935
:105450009709683B7B408105910508F0A7C2A89594
:105460008AE699E00E94C612892B69F38AE699E0E0
:105470000E94A4128A3019F08D3009F088C2E0969B
:105480008EAD9FADE097892BF1F263EE73E0CE0114
:1054900001960E948822BE016F5F7F4FCE01865920
:1054A0009F4F0E942620182FCE0101960E94D120E6
:1054B000112309F434C247E050E0BE0166597F4F22
:1054C000CE01895B9F4F0E942A23CE01895B9F4FAB
:1054D0000E94021D6C017C018FEFE81AF80A2D96DC
:1054E0008EAC9FAC2D97E814F90480F42996AEACED
:1054F000BFAC29976AE370E0C5018E0D9F1D0E9425
:105500008F6C8C010A191B09892B11F40FEF1FEF07
:105510008114910409F094C1AA24AA94BA2C1C14F1
:105520001D040CF0EFC1101611060CF0EBC1960132
:1055300050E040E0BE01695B7F4FCE0184960A15C2
:105540001B050CF09DC10E949922CE0184960E94F9
:105550001020BE0160597F4FCE0184960E945620D4
:10556000882309F4CBC19801A701BE01695B7F4F75
:10557000CE0101960E949922CE0101960E94A81F99
:105580006B017C01CE0101960E94D120A8014F5FE2
:105590005F4F9501BE01695B7F4FCE0101960E946E
:1055A0009922BE016F5F7F4FCE018A589F4F0E94A4
:1055B0008620CE0101960E94D120A5014F5F5F4F4A
:1055C000BE01695B7F4FCE0101960E942A236BEEDC
:1055D00073E0CE0101960E9441203324339481115F
:1055E00001C0312CCE0101960E94D120CE018496BB
:1055F0000E94D120CE01895B9F4F0E94D12010E0F4
:1056000000E0CE0186599F4F0E94D120CE018059E3
:105610009F4F0E94D1200115110509F0CDC18FE5E2
:1056200098E00E94FD238C010196C9F50E94C923D0
:105630008C010F3F100799F58AE197E09A838983DF
:10564000CE0101960E9490238CA38BE197E09A8370
:105650008983CE0101960E9490238DA38CA19DA1E8
:10566000C29710F01DA21CA20CA11DA1C801019699
:1056700062E370E00E941E6AB92E2AE137E03A83A5
:105680002983682FCE0101960E943A258BE197E08D
:105690009A8389836B2DCE0101960E943A25E89664
:1056A0006EAD7FADE8974FE050E08EE698E00E9447
:1056B000B86C10927D08311038C0A7019601609136
:1056C00004027091050280910602909107020E94E7
:1056D000AF6787FF2AC06DE878E18AE699E00E940B
:1056E000441222E030E0B701A6018AE699E00E9468
:1056F000A11E6FE578E18AE699E00E94441240918C
:10570000040250910502609106027091070222E0A6
:1057100030E08AE699E00E948D1EC0900402D0908D
:105720000502E0900602F0900702C0927E08D09237
:105730007F08E0928008F092810883E2EFE5F8E0CC
:10574000DE01A95BBF4F01900D928A95E1F723E23C
:10575000209FC001219F900D1124BE01695B7F4FE6
:105760008C5B9F4F0E944D2510934B0200934A0281
:1057700061E088E00E9435146AEF70E080E090E01C
:105780000E94021560E088E00E9435140E94611CAE
:1057900060E080E00E942F1C68E578E182EC9AE0EE
:1057A0000E9444126EE678E082EC9AE00E94A61F06
:1057B00061E080E00E942F1C6CE478E182EC9AE0CA
:1057C0000E94441240917E0850917F0860918008A9
:1057D0007091810822E030E082EC9AE00E94A11EE4
:1057E00063E080E00E942F1C67E378E182EC9AE09E
:1057F0000E94441281E08093A3088093870810924E
:1058000086086AED72E08FE19AE00E94CA210E9448
:105810003415609388087093890880938A08909360
:105820008B0861E088E00E9435146AEF70E080E048
:1058300090E00E94021560E088E00E9435146BCC75
:105840002996EEADFFAD2997E80DF91D2080108255
:105850002996AEACBFAC29976AE370E0C5010E94FF
:10586000C76CF501E80DF91D2082009709F454CEAC
:1058700029962EAD3FAD29975C01A21AB30A4FCEEF
:105880000E949922CE0184960E941020BE01605988
:105890007F4FCE0184960E945620882379F198018B
:1058A000A701BE01695B7F4FCE0101960E9499223C
:1058B000CE0101960E94A81F6B017C01CE010196CA
:1058C0000E94D120A8014F5F5F4FBE01695B7F4FEF
:1058D000CE0101960E942A23BE016F5F7F4FCE0149
:1058E0008A589F4F0E948620CE0101960E94D120A7
:1058F000CE0184960E94D120312C7CCECE0184969C
:105900000E94D120CE01895B9F4F0E94D1206AED79
:1059100072E0CE0186599F4F0E94CA2194CD6DEE50
:1059200073E0CE0101960E948822BE016F5F7F4F17
:10593000CE0186599F4F0E942620182FCE01019636
:105940000E94D120112319F347E050E0BE016659AF
:105950007F4FCE0101960E942A23CE0101960E941C
:105960001020BE0160597F4FCE0101960E94562043
:10597000882351F0CE0101960E94D120C12CD12C58
:10598000760101E010E03DCECE010196BECFE0965B
:105990002EAD3FADE0972639310508F054CD682F84
:1059A000CE0186599F4F0E945A214DCDC12CD12C3A
:1059B000760102E010E025CE0230110511F58FE5E9
:1059C00098E00E94FD2390934B0280934A028F3F00
:1059D0009807B9F013E2189F9001199F300D112418
:1059E000BE016C5D7F4FC9018C5B9F4F0E94952368
:1059F000FE01B496AFE5B8E001900D921A95E1F77B
:105A0000B7CE0E94611C60E080E00E942F1C66E21D
:105A100078E182EC9AE00E94441261E080E00E940A
:105A20002F1C63E178E182EC9AE00E94441262E06C
:105A300080E00E942F1C65E078E182EC9AE00E94F1
:105A4000441263E080E00E942F1C68E272E082EC66
:105A50009AE00E94A61F61E088E00E94351464EF7E
:105A600071E080E090E00E94021560E088E00E9412
:105A7000351460ED77E080E090E00E9402150E940E
:105A8000611C49CBCF93DF931F921F92CDB7DEB736
:105A90006091A2088BED97E09A838983CE010196ED
:105AA0000E943A250F900F90DF91CF910895CF92E9
:105AB000DF92EF92FF920F931F93CF93DF93CDB7B7
:105AC000DEB760970FB6F894DEBF0FBECDBF6B0197
:105AD0007C01BE01675F7F4FCE010F960E94A72415
