:100000000C944C0E0C9449270C941E270C94F32648
:100010000C94C8260C949D260C9472260C944726AA
:100020000C941C260C9474270C9474270C9474273D
:100030000C947D0E0C947D0E0C947D0E0C947D0E14
:100040000C947D0E0C947D0E0C947D0E0C947D0E04
:100050000C947D0E0C947D0E0C947D0E0C94D22588
:100060000C947D0E0C949C250C9472250C947D0EA2
:100070000C947D0E0C947D0E0C947D0E0C947D0ED4
:100080000C947D0E0C947D0E0C947D0E0C947D0EC4
:100090000C943C250C9412250C947D0E0C947E2718
:1000A0000C947D0E0C947D0E0C947D0E0C947D0EA4
:1000B0000C947D0E0C947D0E0C947D0E0C947D0E94
:1000C0000C947D0E0C947D0E0C947D0E0C947D0E84
:1000D0000C947D0E0C947D0E0C947D0E0C947D0E74
:1000E0000C947D0E0C94550F0C947C100C940714FA
:1000F0000C94C90E0C9467100C94E00E0C94001133
:100100000C9428150C94DF0E0C948A100C94320F6A
:100110000C9494100C9440110C9472100C94050FD4
:100120000C949E100C94A2100C94CA0E0C94C92826
:100130000C94B0130C94A50F0C9425150C9463101B
:100140000C94C0130C946B100C9458160C94F20F72
:100150000C94B1130C94DA130C94630F0C94781074
:100160000C94D3130C94CF100C94BC3D0C948610BB
:100170000C949D100C9490100C9482100C94CB0E47
:100180000C94410F0C946F100C945D100C9498100B
:100190004E414E494E495459494E46CDCCCC3D0A6C
:1001A000D7233C17B7D13877CC2B329595E6241F4F
:1001B000B14F0A000020410000C84200401C462008
:1001C000BCBE4CCA1B0E5AAEC59D7400407A10F3DB
:1001D0005A00A0724E18090010A5D4E80000E87675
:1001E00048170000E40B54020000CA9A3B000000CC
:1001F000E1F505000080969800000040420F0000E5
:1002000000A08601000000102700000000E80300A5
:100210000000006400000000000A0000000000016F
:1002200000000000002C76D888DC674F0823DFC16F
:10023000DFAE59E1B1B796E5E3E453C63AE651992A
:100240007696E8E6C28426EB898C9B62ED407C6F53
:10025000FCEFBC9C9F40F2BAA56FA5F490055A2A0A
:10026000F75C936B6CF9676DC11BFCE0E40D47FE16
:10027000F520E6B500D0ED902E030094357705000B
:1002800080841E080000204E0A000000C80C333392
:1002900033330F986E12831141EF8D2114893BE6A1
:1002A0005516CFFEE6DB18D1844B381BF77C1D902A
:1002B0001DA4BBE424203284725E228100C9F12493
:1002C000ECA1E53D27494D4546414E494B49574133
:1002D000210057656B612050494E2E2E2E00414E55
:1002E00047414C49412053494D55002020202020B2
:1002F0002020200053414C494F3A54736820004855
:100300004954494C41465520494D45544F4B454170
:1003100021004B41524942552054454E4100415322
:10032000414E54452053414E41005052452D434CBF
:100330004F53452041435449564500547A3A004CA6
:100340003A004A554D4C413A5473682000494E4199
:10035000544F41204D414A492E2E2E00576173695A
:100360006C69616E612041646D696E004D41534856
:10037000494E4520494D4546554E475741000000DE
:100380002100240027002A002D0030003300010145
:100390000000040107010A010000220025002800D6
:1003A0002B002E003100340002010000050108017D
:1003B0000B01000020002300260029002C002F0044
:1003C00032000001000003010601090105050505D1
:1003D000070508080808020202020A0A08080404BD
:1003E00004040101010101010101030303030303EB
:1003F0000303040707070C0C0C0C0C0C0C0C02027A
:10040000020206060606060606060B0B0B0B0B0B76
:100410000B0B010210202008081020401020408003
:1004200002010201080402010102040810204080B8
:100430008040201008040201800402018040201046
:10044000080402010804020101020408102040808F
:10045000010204081020408000000A0B02090C0D64
:100460000E08070304010000000000000000000067
:10047000000000000000000000000000000000007C
:100480000000000012111000000000000000000039
:10049000000000000000000000000000000055689F
:1004A000616D6973686F3A206A756D6C612079615E
:1004B000207A616D616E69206B75746F6B6120616C
:1004C0006E77616E69207961206177616C69202D9A
:1004D0003E20574C3A200020532E572E5620200005
:1004E000534D4427732057415445522056454E449E
:1004F00000200053656E642064656661756C74202D
:100500006F72206E65772070617373776F72642EDF
:100510000050617373776F72642072657365742025
:10052000746F2064656661756C7421004C6F6E6732
:1005300020707265737320646574656374656421EB
:100540000020002000496E76616C696420636F6D45
:100550006D616E64212053656E642027707269633B
:1005600065272C202763616C666163746F72272C8A
:1005700020276E657770617373272C206F72202798
:1005800065786974272E0000456E74657265642075
:1005900050617373776F7264204368616E67652082
:1005A0004D6F64653B2053656E64206E65772070E7
:1005B000617373776F72642028757020746F2031B7
:1005C000352063686172616374657273290020006D
:1005D0002000436F6E746163743A202B32353537D7
:1005E00036373833303331392E005448414E4B536F
:1005F00020464F52205452555354494E4720534D94
:100600004427732057617465722056656E647300C9
:1006100052657475726E656420746F20576F726BCB
:10062000204D6F64652E002000416C6C2064617465
:100630006120736176656421004F722073656E647A
:1006400020277072696365272C202762616C616EB8
:100650006365272C2027707265636C6F7365272C88
:1006600020277265736574272C20276E657770616B
:100670007373272C206F72202765786974272E00EA
:1006800000456E74657265642043616C69627261D5
:1006900074696F6E20466163746F72204D6F64657C
:1006A0003A2053656E642063616C6962726174699B
:1006B0006F6E20666163746F722028652E672E2C22
:1006C0002073656E6420312E30290020004F722087
:1006D00073656E64202763616C666163746F722753
:1006E0002C202762616C616E6365272C2027707255
:1006F00065636C6F7365272C20277265736574279B
:100700002C20276E657770617373272C206F722001
:100710002765786974272E0000456E7465726564DC
:1007200020507269636520506572204C697465724F
:10073000204D6F64653A2053656E64207072696362
:100740006520706572206C697465722028652E675B
:100750002E2C2073656E642035302E302900200049
:100760002000496E76616C696420636F6D6D616E07
:1007700064212053656E6420277072696365272C9D
:100780002027707265636C6F7365272C2027636167
:100790006C666163746F72272C20277265736574B1
:1007A000272C20276E657770617373272C206F725A
:1007B000202765786974272E0000456E7465726580
:1007C000642050617373776F7264204368616E6751
:1007D00065204D6F64653B2053656E64206E6577C0
:1007E0002070617373776F72642028757020746F46
:1007F000203135206368617261637465727329000A
:1008000020002000436F6E746163742055733A209A
:100810002B3235353736373833303331392E0054B3
:1008200048414E4B5320464F522054525553544941
:100830004E4720534D4427732057617465722056EC
:10084000656E64730052657475726E656420746FB2
:1008500020576F726B204D6F64652E00416C6C20C9
:10086000646174612073617665642100200020005A
:1008700053656E6420277072696365272C20276397
:10088000616C666163746F72272C202770726563D8
:100890006C6F7365272C20276E65777061737327E3
:1008A0002C206F72202765786974272E0000546F02
:1008B00074616C2053616C6573206E6F773A2054BD
:1008C000736820000053616C6573207265736574F2
:1008D000210020004F722073656E642027707269BA
:1008E0006365272C202762616C616E6365272C206D
:1008F00027707265636C6F7365272C202772657390
:100900006574272C20276E657770617373272C2000
:100910006F72202765786974272E0000456E746514
:100920007265642043616C6962726174696F6E20E4
:10093000466163746F72204D6F64653A2053656E33
:10094000642063616C6962726174696F6E206661B4
:1009500063746F722028652E672E2C2073656E6479
:1009600020312E30290020004F722073656E6420E4
:100970002763616C666163746F72272C2027626144
:100980006C616E6365272C2027707265636C6F73D2
:1009900065272C20277265736574272C20276E65C8
:1009A0007770617373272C206F72202765786974C4
:1009B000272E0000456E746572656420507269636D
:1009C0006520506572204C69746572204D6F6465B6
:1009D0003A2053656E642070726963652070657299
:1009E000206C697465722028652E672E2C20736533
:1009F0006E642035302E30290020002000496E76AC
:100A0000616C696420636F6D6D616E642120536554
:100A10006E64202773617665272C202770726963C6
:100A200065272C2027707265636C6F7365272C20F7
:100A30002763616C666163746F72272C2027626183
:100A40006C616E6365272C20277265736574272C93
:100A500020276E657770617373272C206F722027B3
:100A600065786974272E002000436F6E746163748B
:100A70003A202B3235353736373833303331392E4B
:100A8000005448414E4B5320464F52205452555328
:100A900054494E4720534D44277320576174657263
:100AA0002056656E64730052657475726E656420BD
:100AB000746F20576F726B204D6F64652E00416C10
:100AC0006C2064617461207361766564210020008C
:100AD00000456E74657265642050617373776F7240
:100AE00064204368616E6765204D6F64653A2053EA
:100AF000656E64206E65772070617373776F7264C2
:100B00002028757020746F20313520636861726110
:100B100063746572732900200000546F74616C2047
:100B200053616C6573206E6F773A205473682000B0
:100B30000053616C65732072657365742120536581
:100B40006E6420277072696365272C202763616CAF
:100B5000666163746F72272C20276E6577706173EE
:100B600073272C206F72202765786974272E002048
:100B70000053656E6420277072696365272C2027F7
:100B800063616C666163746F72272C2027726573D2
:100B90006574272C20276E657770617373272C206E
:100BA0006F72202765786974272E0000546F746176
:100BB0006C2053616C65733A205473682000004FB9
:100BC000722073656E6420277072696365272C201C
:100BD0002762616C616E6365272C202770726563E4
:100BE0006C6F7365272C20277265736574272C2022
:100BF000276E657770617373272C206F72202765CD
:100C0000786974272E0000456E7465726564204310
:100C1000616C6962726174696F6E20466163746FA2
:100C200072204D6F64653A2053656E642063616C79
:100C30006962726174696F6E20666163746F72209D
:100C400028652E672E2C2073656E6420312E302986
:100C50000020004F722073656E64202763616C660C
:100C60006163746F72272C202762616C616E63650B
:100C7000272C2027707265636C6F7365272C2027E3
:100C80007265736574272C20276E657770617373A6
:100C9000272C206F72202765786974272E00004565
:100CA0006E74657265642050726963652050657268
:100CB000204C69746572204D6F64653A2053656EEF
:100CC0006420707269636520706572206C69746558
:100CD000722028652E672E2C2073656E64203530B7
:100CE0002E30290020002000416C6C20646174616A
:100CF000207361766564212053656E6420277072CD
:100D0000696365272C202763616C666163746F7269
:100D1000272C20276E657770617373272C2027702E
:100D20007265636C6F7365272C202762616C616E3E
:100D30006365272C20277265736574272C206F72DA
:100D4000202765786974272E0020002000506173E9
:100D500073776F7264206D75737420626520342020
:100D6000746F2031352063686172616374657273DA
:100D7000212054727920616761696E2E0053656E7F
:100D80006420277072696365272C20277072656361
:100D90006C6F7365272C202763616C666163746FC9
:100DA00072272C202762616C616E6365272C2027D7
:100DB0007265736574272C206F72202765786974BB
:100DC000272E00200050617373776F726420636870
:100DD000616E67656420616E64207361766564216D
:100DE00000496E76616C69642076616C75652120BE
:100DF000302E30202D2031302E30206F6E6C790057
:100E0000200053656E6420277072696365272C206B
:100E100027707265636C6F7365272C202763616C84
:100E2000666163746F72272C20276E65777061731B
:100E300073272C206F72202765786974272E000095
:100E400020005072652D436C6F7365204F6666738A
:100E500065742073657420262073617665643A207A
:100E6000002000496E76616C69642063616C696280
:100E7000726174696F6E20666163746F72212053B2
:100E8000656E642061206E756D62657220626574A6
:100E90007765656E20302E3120616E642031302EF2
:100EA000302C20277072696365272C202762616CC3
:100EB000616E6365272C20277265736574272C206B
:100EC000276E657770617373272C206F72202765FA
:100ED000786974272E0053656E64202770726963E9
:100EE00065272C27707265636C6F7365272C20272C
:100EF00062616C616E6365272C202772657365746F
:100F0000272C20276E657770617373272C206F72F2
:100F1000202765786974272E00200043616C696280
:100F2000726174696F6E20466163746F72207365BD
:100F30007420616E642073617665643A200020003D
:100F4000456E74657265642050617373776F726467
:100F5000204368616E6765204D6F64653A20536574
:100F60006E64206E65772070617373776F72642092
:100F700028757020746F2031352063686172616359
:100F800074657273290020002000436F6E746163E2
:100F9000743A202B323535373637383330333139E0
:100FA0002E005448414E4B5320464F522054525528
:100FB0005354494E4720534D44277320576174655D
:100FC000722056656E64730052657475726E656446
:100FD00020746F20576F726B204D6F64652E004137
:100FE0006C6C2064617461207361766564210020FB
:100FF00000200053656E6420277072696365272C9A
:101000002027707265636C6F7365272C20276361DE
:101010006C666163746F72272C20276E6577706130
:101020007373272C206F72202765786974272E0030
:1010300000546F74616C2053616C6573206E6F7720
:101040003A2054736820000053616C657320726508
:101050007365742100200053656E642027707269E7
:101060006365272C2027707265636C6F7365272C6E
:10107000202763616C666163746F72272C2027726E
:1010800065736574272C20276E65777061737327ED
:101090002C206F72202765786974272E0000546F0A
:1010A00074616C2053616C65733A2054736820003E
:1010B000004F722073656E64202763616C66616304
:1010C000746F72272C2027707265636C6F736527AD
:1010D0002C202762616C616E6365272C2027726566
:1010E000736574272C20276E657770617373272CC6
:1010F000206F72202765786974272E0000456E7472
:101100006572656420507269636520506572204C79
:1011100069746572204D6F64653A2053656E642072
:10112000707269636520706572206C6974657220E5
:1011300028652E672E2C2073656E642035302E3086
:10114000290020002000496E76616C69642070726D
:1011500069636520706572206C6974657221205323
:10116000656E642061206E756D62657220626574C3
:101170007765656E203120616E642031303030300B
:101180002E302C202763616C666163746F72272C8C
:10119000202762616C616E6365272C20277265735E
:1011A0006574272C20276E657770617373272C2058
:1011B0006F72202765786974272E0053656E64204E
:1011C000277072696365272C2027707265636C6FC6
:1011D0007365272C202763616C666163746F7227C7
:1011E0002C202762616C616E6365272C2027726555
:1011F000736574272C20276E657770617373272CB5
:10120000206F72202765786974272E0020005072A5
:1012100069636520706572204C697465722073651E
:101220007420616E642073617665643A205473683B
:1012300020002000436F6E746163743A202B3235B6
:10124000353736373833303331392E005448414E34
:101250004B5320464F52205452555354494E472029
:10126000534D4427732057617465722056656E6430
:10127000730052657475726E656420746F20576FC9
:10128000726B204D6F64652E00416C6C206461743C
:101290006120736176656421002000200053656E33
:1012A0006420277072696365272C2027707265633C
:1012B0006C6F7365272C202763616C666163746FA4
:1012C00072272C20276E657770617373272C206F2F
:1012D00072202765786974272E0000546F74616C42
:1012E0002053616C6573206E6F773A2054736820C9
:1012F000000053616C657320726573657421002072
:101300000053656E6420277072696365272C20275F
:10131000707265636C6F7365272C202763616C6640
:101320006163746F72272C20277265736574272C94
:1013300020276E657770617373272C206F722027CA
:1013400065786974272E0000546F74616C205361B6
:101350006C65733A2054736820000000456E746514
:101360007265642050617373776F726420436861A3
:101370006E6765204D6F64653A2053656E64206E1C
:1013800065772070617373776F72642028757020A1
:10139000746F2031352063686172616374657273A4
:1013A000290020004F722073656E642027707269D7
:1013B0006365272C2027707265636C6F7365272C1B
:1013C000202762616C616E6365272C20277265732C
:1013D0006574272C20276E657770617373272C2026
:1013E0006F72202765786974272E0000456E74653A
:1013F0007265642043616C6962726174696F6E200A
:10140000466163746F72204D6F64653A2053656E58
:10141000642063616C6962726174696F6E206661D9
:1014200063746F722028652E672E2C2073656E649E
:1014300020312E30290020004F722073656E642009
:101440002763616C666163746F72272C202770724A
:1014500065636C6F7365272C202762616C616E6316
:1014600065272C20277265736574272C20276E65ED
:101470007770617373272C206F72202765786974E9
:10148000272E0000456E7465726564205072696392
:101490006520506572204C69746572204D6F6465DB
:1014A0003A2053656E6420707269636520706572BE
:1014B000206C697465722028652E672E2C20736558
:1014C0006E642035302E30290020002000496E76D1
:1014D000616C696420636F6D6D616E64212053657A
:1014E0006E6420277072696365272C2027707265EF
:1014F000636C6F73652C27202763616C666163746E
:101500006F72272C202762616C616E6365272C2027
:10151000277265736574272C20276E657770617359
:1015200073272C206F72202765786974272E00207E
:101530000053656E6420277072696365272C20272D
:10154000707265636C6F7365272C202763616C660E
:101550006163746F72272C20276E657770617373D7
:10156000272C206F72202765786974272E0000537E
:10157000656E64206E65772076616C7565202865E0
:101580002E672E20302E3329206F72202765786930
:1015900074270043757272656E74206F666673659A
:1015A000743A2000456E7465726564205072652D32
:1015B000436C6F7365204F6666736574204D6F646E
:1015C000650020002000436F6E74616374207573A2
:1015D0003A202B3235353736373833303331392EE0
:1015E000005448414E4B5320464F522054525553BD
:1015F00054494E4720534D442773205761746572F8
:101600002056656E64730052657475726E65642051
:10161000746F20576F726B204D6F64652E00416CA4
:101620006C20646174612073617665642100200020
:10163000200053656E6420277072696365272C2033
:101640002763616C666163746F72272C2027707248
:1016500065636C6F7365272C20276E6577706173E7
:1016600073272C206F72202765786974272E00203D
:1016700000546F74616C2053616C6573206E6F77DA
:101680003A205473682000200053616C6573207207
:101690006573657421002000200053656E64202767
:1016A0007072696365272C202763616C66616374BF
:1016B0006F72272C2027707265636C6F7365272CFF
:1016C00020277265736574272C20276E65777061FB
:1016D0007373272C206F72202765786974272E007A
:1016E0002000546F74616C2053616C65733A205410
:1016F0007368200020002000456E746572656420C8
:1017000050617373776F7264204368616E67652000
:101710004D6F64653A2053656E64206E6577207066
:10172000617373776F72642028757020746F203135
:1017300035206368617261637465727329002000EB
:10174000004F722073656E6420277072696365278D
:101750002C2027707265636C6F7365272C202762BD
:10176000616C616E6365272C202772657365742731
:101770002C20276E657770617373272C206F722081
:101780002765786974272E0000456E74657265645C
:101790002043616C6962726174696F6E2046616397
:1017A000746F72204D6F64653A2053656E642063D8
:1017B000616C6962726174696F6E20666163746FD7
:1017C000722028652E672E2C2073656E6420312EC2
:1017D0003029000020004F722073656E642027635B
:1017E000616C666163746F72272C20277072656369
:1017F0006C6F7365272C202762616C616E636527AF
:101800002C20277265736574272C20276E657770EE
:10181000617373272C206F72202765786974272ED7
:10182000002000456E7465726564205072696365BE
:1018300020506572204C69746572204D6F64653A62
:101840002053656E64207072696365207065722034
:101850006C697465722028652E672E2C2073656E66
:10186000642035302E30290020002000507265732E
:101870007320726573657420627574746F6E206670
:101880006F722035207365636F6E647320746F20F0
:1018900072657665727420746F2064656661756C1C
:1018A000742070617373776F72642E00436F6E746F
:1018B00061637420746865206F776E657220666F4F
:1018C00072206675727468657220617373697374CF
:1018D000616E63652E00496E636F7272656374207A
:1018E00070617373776F726421205472792061671D
:1018F00061696E206F72200020004F722073656E48
:1019000064202762616C616E63652720746F2063B9
:101910006865636B2062616C616E63652C20277063
:101920007265636C6F73652720746F207365742014
:1019300056616C766520636C6F73652C2027726529
:101940007365742720746F207265736574207361EA
:101950006C65732C206F722027657869742720745A
:101960006F2072657475726E20746F20576F726B82
:10197000204D6F64652E00200053656E6420277033
:10198000726963652720746F206368616E676520E4
:10199000707269636520706572206C697465722C61
:1019A000202763616C666163746F722720746F20F7
:1019B0006368616E67652063616C696272617469F6
:1019C0006F6E20666163746F722C20276E6577706E
:1019D0006173732720746F206368616E6765207080
:1019E000617373776F72642E0020005072652D430F
:1019F0006C6F7365204F6666736574206C6F6164ED
:101A000065643A2000200043616C69627261746908
:101A10006F6E20466163746F723A2000200050722E
:101A200069636520706572204C697465723A205450
:101A300073682000200043757272656E74204461E3
:101A400074613A002000534D442773205761746538
:101A5000722056656E64733A20576173696C6961D0
:101A60006E61206E6173693A202B32353537363717
:101A70003833303331392E002000436F6E74616388
:101A8000743A202B323535373637383330333139E5
:101A90002E005448414E4B5320464F52205452552D
:101AA0005354494E4720534D442773205761746562
:101AB000722056656E64730052657475726E65644B
:101AC00020746F20576F726B204D6F64652E00423B
:101AD0006C7565746F6F74682069646C65207469D7
:101AE0006D656F757420726561636865642E204151
:101AF0006C6C2064617461207361766564210052AE
:101B0000657475726E696E6720746F20576F726BA3
:101B100000426C7565746F6F74682054696D656FF1
:101B2000757400202020202020202020202020004C
:101B3000494E4154554D41204F4D42490054736820
:101B40003A202020202020202020202020004B4947
:101B5000415349204B49444F474F0020202020202B
:101B6000202020202000233A54756D6120423A47FE
:101B70006861697269005473683A004E414D424190
:101B80003A20202020202020202020004E414D42BD
:101B900041205349205341484948492000202020F2
:101BA0002020202020202020202020202000233A38
:101BB0004F4B20423A476861697269004E414D427D
:101BC000413A005473683A20004F4E47455A41202D
:101BD00053414C494F0053414C494F205473683A8C
:101BE00000527564692062616164617965004D41EC
:101BF00054454E47454E455A4F00576173696C69CD
:101C0000616E612041646D696E004D415348494EDB
:101C10004520494D4546554E475741005741534988
:101C20004C49414E41204E41204D4D494C494B4974
:101C30000056414C564520494D455348494E44575E
:101C4000412120202000574153494C49414E412019
:101C50004E41204D4D4C494B490056414C56452074
:101C6000494D455348494E445741210020202020EA
:101C7000202020200053414C494F3A5473682000E3
:101C8000484954494C41465520494D45544F4B45D0
:101C900041210000C928BC3D11241FBECFEFD1E275
:101CA000DEBFCDBF00E00CBF27E0ACE0B4E001C078
:101CB0001D92A537B207E1F714E0A0E0B2E0EEED27
:101CC000FEE800E00BBF02C007900D92AC30B107F8
:101CD000D9F71EE0CBE4DEE000E006C02197010961
:101CE000802FFE010E94FA44CA34D10780E0080721
:101CF000A9F70E94D6290C945D470C940000FC01C2
:101D0000A089B18982E08C93A485B5851C92A685B3
:101D1000B7858FEC8C93108EA489B58986E08C935F
:101D2000A289B3898C9180618C93A289B3898C91AB
:101D300088608C93A289B3898C9180688C93028887
:101D4000F389E02D80818F7D8083089596E0899FBF
:101D5000D0011124AC50B94F90967C936E935F974D
:101D600091E091969C939197E0916107F0916207C1
:101D700090916007992339F0309751F0811108C094
:101D8000809110071994309719F05C968C91FACFD6
:101D90000895089508958091650590916605A09134
:101DA0006705B09168050196A11DB11D8093650579
:101DB00090936605A0936705B0936805089508950C
:101DC0000895EF92FF920F931F93CF93DF938C01AF
:101DD0007B01D0E0C0E0F701EC0FFD1F64916623AA
:101DE00061F0D801ED91FC910190F081E02DC801E6
:101DF0001995892B11F02196EECFCE01DF91CF916D
:101E00001F910F91FF90EF900895AF92BF92CF92E4
:101E1000DF92EF92FF920F931F93CF93DF936C01AA
:101E20007B018B01040F151FEB015E01AE18BF088B
:101E3000C017D10759F06991D601ED91FC9101903D
:101E4000F081E02DC6011995892B79F7C501DF9145
:101E5000CF911F910F91FF90EF90DF90CF90BF90A7
:101E6000AF900895FC01538D448D252F30E0842FD1
:101E700090E0821B930B541710F0CF9608950197B2
:101E80000895FC01918D828D981761F0A28DAE0F9F
:101E9000BF2FB11D5D968C91928D9F5F9F73928F26
:101EA00090E008958FEF9FEF0895FC01918D828D52
:101EB000981731F0828DE80FF11D858D90E008951F
:101EC0008FEF9FEF0895FC01918D228D892F90E077
:101ED000805C9F4F821B91098F739927089580E939
:101EE00095E00E94630F21E0892B09F420E0822F06
:101EF00008958DE296E00E94630F21E0892B09F49A
:101F000020E0822F0895FC01A48DA80FB92FB11DE8
:101F1000A35ABF4F2C91848D90E001968F7399271F
:101F2000848FA689B7892C93A089B1898C918370FD
:101F300080648C93938D848D981306C00288F389F6
:101F4000E02D80818F7D80830895EF92FF920F9323
:101F50001F93CF93DF93EC0181E0888F9B8D8C8D55
:101F600098131AC0E889F989808185FF15C09FB749
:101F7000F894EE89FF896083E889F989808183700C
:101F8000806480839FBF81E090E0DF91CF911F91BB
:101F90000F91FF90EF900895F62E0B8D10E00F5FDC
:101FA0001F4F0F731127E02E8C8D8E110CC00FB6B2
:101FB00007FCFACFE889F989808185FFF5CFCE014A
:101FC0000E94830FF1CFEB8DEC0FFD2FF11DE35A33
:101FD000FF4FF0829FB7F8940B8FEA89FB898081CD
:101FE0008062CFCFCF93DF93EC01888D8823B9F047
:101FF000AA89BB89E889F9898C9185FD03C0808114
:1020000086FD0DC00FB607FCF7CF8C9185FFF2CF90
:10201000808185FFEDCFCE010E94830FE9CFDF9154
:10202000CF91089580E090E0892B29F00E94790FEC
:1020300081110E94000080E090E0892B29F00E942D
:102040006F0F81110E94000080E090E0892B49F021
:1020500080E090E0892B29F00E94000081110E940D
:10206000000080E090E0892B49F080E090E0892B2F
:1020700029F00E94000081110C9400000895815005
:10208000823108F05AC0E82FF0E08827E55BFF4E68
:102090008F4F0C94FA446B106F105D106310671033
:1020A0009D10721078107C10821086108A1090108B
:1020B00094109D1098109E10A210809180008F7730
:1020C000809380000895809180008F7DF9CF80916A
:1020D0008000877FF5CF84B58F7784BD089584B560
:1020E0008F7DFBCF8091B0008F778093B0000895F3
:1020F0008091B0008F7DF9CF809190008F77809391
:1021000090000895809190008F7DF9CF809190008C
:10211000877FF5CF8091A0008F778093A0000895EE
:102120008091A0008F7DF9CF8091A000877FF5CFAF
:10213000809120018F778093200108958091200164
:102140008F7DF9CF80912001877FF5CFCF93DF93EB
:10215000282F30E0F901E85AFB4F8491F901EE5E37
:10216000FB4FD491F901E453FC4FC491CC23A1F06F
:1021700081110E943F10EC2FF0E0EE0FFF1FEE5494
:10218000FC4FA591B491EC91ED2381E090E009F42E
:1021900080E0DF91CF91089580E090E0FACF862F24
:1021A0000C94A6101F93CF93DF93282F30E0F901F2
:1021B000E85AFB4F8491F901EE5EFB4FD491F9018F
:1021C000E453FC4FC491CC23A9F0162F81110E9437
:1021D0003F10EC2FF0E0EE0FFF1FE856FC4FA591EB
:1021E000B4918FB7F894EC91111108C0D095DE230B
:1021F000DC938FBFDF91CF911F910895DE2BF8CF35
:10220000862F642F0C94D210CF93DF9390E0FC01C3
:10221000EE5EFB4F249184539C4FFC0184918823F4
:10222000C9F090E0880F991FFC01E258FC4FA5917E
:10223000B491FC01E856FC4FC591D49161110DC0D9
:102240009FB7F8948C91209582238C9388812823C2
:1022500028839FBFDF91CF910895623051F49FB7DB
:10226000F8943C91822F809583238C93E8812E2BC8
:10227000EFCF8FB7F894EC912E2B2C938FBFEACF32
:10228000862F642F0C9404113FB7F8948091D704E3
:102290009091D804A091D904B091DA0426B5A89BF6
:1022A00005C02F3F19F00196A11DB11D3FBFBA2FE8
:1022B000A92F982F8827BC01CD01620F711D811DA8
:1022C000911D42E0660F771F881F991F4A95D1F72D
:1022D00008958F929F92AF92BF92CF92DF92EF922A
:1022E000FF924B015C010E9444116B017C010E9432
:1022F00044116C197D098E099F09683E7340810560
:102300009105A8F321E0821A9108A108B10888EE8E
:10231000C80E83E0D81EE11CF11C81149104A104B5
:10232000B10429F7FF90EF90DF90CF90BF90AF906E
:102330009F908F9008952FB7F8946091D304709177
:10234000D4048091D5049091D6042FBF08950F93A3
:102350001F93CF93DF93C82FD62F86E0C89FF0013D
:102360001124EC50F94F11A2878D90A18130910575
:10237000F1F058F082309105F1F1039709F440C073
:10238000DF91CF911F910F9108956623C9F361E00A
:1023900070E08C2F0E94A60E0E949B1160934C0748
:1023A00070934D0780934E0790934F07E9CF0E949B
:1023B0009B1100914C0710914D0720914E073091D1
:1023C0004F07AB01BC01401B510B620B730B80919B
:1023D0005E0790915F07B0E0A0E084179507A6071D
:1023E000B70748F462E070E08C2FDF91CF911F9126
:1023F0000F910C94A60E63E070E0D111C1CFF4CF21
:1024000070E060E0F1CF6F927F928F929F92AF92D7
:10241000BF92CF92DF92EF92FF920F931F93CF93D1
:10242000DF9381E0809360070E949B110091500729
:10243000109151072091520730915307AB01BC0115
:10244000401B510B620B730B80915C0790915D07F1
:10245000B0E0A0E084179507A607B70708F014C1FD
:10246000C0E080915A07C81760F4E0915607F091D8
:102470005707EC0FF11D62E080810E940411CF5FCD
:10248000F0CF712C812C912C5401839480915B07A7
:10249000781608F05FC0072D10E0E0915807F09122
:1024A0005907E00FF11F61E080810E940411E09163
:1024B0005807F0915907E00FF11F60E080810E94FA
:1024C000D210D501C401072C04C0880F991FAA1F80
:1024D000BB1F0A94D2F76C017C01E094F094612C4C
:1024E00080915A076816F8F4C62DD0E0E09156079F
:1024F000F0915707EC0FFD1F80810E94A6102496D3
:10250000CC0FDD1FCC50D94F892B41F488819981A4
:102510008C299D29998388836394E2CF888199814E
:102520008E219F21F7CFE0915807F0915907E00FD6
:10253000F11F61E080810E94D21080915807909134
:102540005907080F191F60E0F80180810E940411EB
:1025500073949CCFC4EFD6E0FE018FEF9FEF278DE1
:1025600030A1232B21F4148E968F858F11A23696DD
:1025700027E0E033F20799F7F12C96E0D92E80910D
:102580005A07F81608F050C0E12C0F2D10E0000F8C
:10259000111F0450194F20915B07E21608F042C04A
:1025A000F801608171810E2C02C0769567950A94BE
:1025B000E2F7F29E900111242E0D311DE4EFF6E0BA
:1025C00080E0458D568D2417350709F461C08F5F73
:1025D00036968A30B1F760FF23C0E4EFF6E090E072
:1025E00080E0448D411117C0E0915407F0915507E8
:1025F000E20FF31F4081D89EF001D99EF00D112407
:10260000EC50F94F448F368F258F10A2178E61E062
:102610000E94A71105C0019636968A30910509F7E8
:10262000E394B9CFF394ABCF10E089A18111182FB7
:102630002696F7E0C033DF07C1F70E949B11609335
:1026400050077093510780935207909353071123BB
:10265000D9F0809115078823B9F0809113079091E4
:102660001407019789F480911007DF91CF911F9192
:102670000F91FF90EF90DF90CF90BF90AF909F9021
:102680008F907F906F9008951092600780E0EDCF5B
:102690006170BECF20915F04260F3327331F213294
:1026A0003105ECF42091A804FC0190E080E0243096
:1026B00069F082E00895A0915F042191AC01415C32
:1026C0005B4FA40FB52FB11D2C930196861798F37D
:1026D00080915F04680F60935F0480E0089581E05B
:1026E00008951092A80481E08093A70410928204B8
:1026F00061E084E10E94D21061E085E10E94D21085
:10270000E9EBF0E080818E7F808380818D7F808304
:1027100088E48093B80085E48093BC000895CF934B
:10272000DF9391E090933E048823B9F0C091B80004
:10273000D091BA008091BC008A7B8093BC0060E09D
:1027400084E10E94D21060E085E10E94D2100E94D4
:102750007113D093BA00C093B800DF91CF91089560
:102760000895E0918F0580918E05E81730F4F0E030
:10277000E25EFB4F808190E008958FEF9FEF089518
:1027800090918F0580918E052FEF3FEF981748F4B9
:10279000E92FF0E0E25EFB4F208130E09F5F9093F5
:1027A0008F05C901089580918E0590918F05891B31
:1027B000990B0895CF92DF92EF92FF920F931F93A0
:1027C000CF93DF937C01CB018A012091AE042223B9
:1027D00089F0EB016B01C40ED51ECC15DD0569F047
:1027E0006991D701ED91FC910190F081E02DC70135
:1027F0001995F3CF642F0E944A13C801DF91CF913E
:102800001F910F91FF90EF90DF90CF900895CF939D
:10281000DF931F92CDB7DEB769832091AE042223E8
:10282000F9F020918C05203258F021E030E0FC01D5
:102830003383228390E080E00F90DF91CF91089561
:1028400080918D05E82FF0E0E155FB4F9981908351
:102850008F5F80938D0580938C0581E090E0ECCFB5
:1028600061E0CE0101960E944A13F7CFCF92DF922A
:10287000EF92FF920F931F93CF93DF93FC01C481DC
:1028800021E02093AE04C093CF0410928D051092E6
:102890008C058385682B8AEC96E00E940714D09102
:1028A0008C05D13208F092C00E9444116B017C016A
:1028B0008091A804811165C082E08093A80481E022
:1028C0008093A7048FEF8093A6041092A504D09361
:1028D000A404AFEAB4E0E4E8F4E080E0D81385C0F3
:1028E0001092830480918304CC0FC82BC09383047F
:1028F00080918204813009F07CC0109282040E9491
:1029000044116B017C01809183048093BB00809112
:10291000AA049091AB04A091AC04B091AD04892BB2
:102920008A2B8B2B99F00E9444110091AA041091DC
:10293000AB042091AC043091AD046C197D098E0973
:102940009F090617170728073907E0F18091BC0097
:1029500083FDD9CF85EC8093BC000E9444116B01AC
:102960007C018091A804823009F445C08091A604BE
:102970008F3F61F18091A604803241F18091A604DD
:1029800025C08091AA049091AB04A091AC04B091B1
:10299000AD04892B8A2B8B2B09F48ACF0E9444111A
:1029A0000091AA041091AB042091AC043091AD04C5
:1029B0006C197D098E099F09061717072807390723
:1029C00008F076CF8091A9040E948F1310928D0594
:1029D00010928C051092AE04DF91CF911F910F9150
:1029E000FF90EF90DF90CF9008959D9191938F5F2E
:1029F00075CF85EEB0CF8091AA049091AB04A091E1
:102A0000AC04B091AD04892B8A2B8B2B09F4A9CF90
:102A10000E9444110091AA041091AB042091AC04CF
:102A20003091AD046C197D098E099F0906171707AF
:102A30002807390708F095CFC5CF88E080936E0747
:102A400060E083E697E00C94361490E080E008950F
:102A500080915B05811136C080915A05811132C089
:102A600060915005709151058091520590915305E8
:102A700020E030E048E452E40E94AD43609350050A
:102A800070935105809352059093530560915005C2
:102A90007091510580915205909153050E948B448D
:102AA00060936D0570936E0580936F05909370052C
:102AB0000E949B116093790570937A0580937B0542
:102AC00090937C05089580E995E00E94630F892B1F
:102AD00029F080E995E00E94410FF5CF08950F930A
:102AE0001F93CF938C01C62F0E9436146C2F646005
:102AF000C8010E9436146C2F6B7FC8010E943614E7
:102B000083EC90E00197F1F7CF911F910F91089519
:102B10000F931F93CF93DF938C01D62FC42F607F29
:102B2000642B0E946F1580E1D89FB00111246C2B9B
:102B3000C801DF91CF911F910F910C946F15CF9326
:102B4000DF9300D000D01F921F92CDB7DEB798E080
:102B5000EBE4F2E0DE01119601900D929A95E1F717
:102B600090916B07961708F46FEF262F30E0220F35
:102B7000331F41E050E04C0F5D1F240F351FF9015A
:102B80006081680F606840E083E697E028960FB6A2
:102B9000F894DEBF0FBECDBFDF91CF910C948815A6
:102BA00040E061E083E697E00E9488158BE39FE1B7
:102BB0000197F1F70895CF93DF9310928F0510924C
:102BC0008E0510928D0510928C050E94711389EC70
:102BD0009EE090938905809388058AEC9EE090930F
:102BE0008B0580938A051092680780916D0782306B
:102BF00018F098E09093680780936B0762E370E0A9
:102C000080E090E00E94691160916E0783E697E092
:102C10000E94361468EE73E080E090E00E94691133
:102C200060E383E697E00E946F15CBE4D6E4CE0123
:102C30000197F1F760E383E697E00E946F15219713
:102C4000F1F760E383E697E00E946F1583E592E079
:102C50000197F1F760E283E697E00E946F156091BB
:102C60006807606240E083E697E00E94881584E090
:102C70008093690740E06CE083E697E00E94881546
:102C80000E94D01582E080936A0740E066E083E608
:102C900097E00E94881540E062E083E697E00E949A
:102CA00088158BE39FE10197F1F7DF91CF910895AC
:102CB00041E00E94881581E090E00895DC011496BF
:102CC0008D919C9115976817790750F4ED91FC91BF
:102CD0001197E60FF71F15967C936E931497108249
:102CE0000895FC0180819181009711F00C94EE3DD4
:102CF00060E070E0CB010895FB0101900020E9F74E
:102D00003197AF01461B570BDC01ED91FC9102801E
:102D1000F381E02D1994CF93DF93FC014481558119
:102D2000608171818DE296E00E94050FEC016DE8F3
:102D300072E08DE296E00E947C168C0F9D1FDF9161
:102D4000CF910895CF93DF93BC0180E995E00E9475
:102D5000E10EEC016DE872E080E995E00E947C16DE
:102D60008C0F9D1FDF91CF9108958F929F92AF920C
:102D7000BF92EF92FF920F931F93CF93DF93CDB744
:102D8000DEB7A1970FB6F894DEBF0FBECDBF7C01B2
:102D9000FA01CB0119A2223008F42AE08E010F5D5E
:102DA0001F4F822E912CB12CA12CBF01A5019401A3
:102DB0000E94D844F901CA016A300CF5605DD8015F
:102DC0006E938D01232B242B252B79F790E080E047
:102DD000109721F0BD01C7010E947C16A1960FB685
:102DE000F894DEBF0FBECDBFDF91CF911F910F9141
:102DF000FF90EF90BF90AF909F908F900895695C87
:102E0000DECF0F931F93CF93DF93EC012AE00E9454
:102E1000B5168C016DE872E0CE010E947C16800F21
:102E2000911FDF91CF911F910F9108952F923F92A3
:102E30004F925F926F927F928F929F92AF92BF92CA
:102E4000CF92DF92EF92FF921F93CF93DF93EC012B
:102E50006A017B01722EAB019601CB01B6010E9483
:102E6000BF4460E972E0811126C046015701E89431
:102E7000B7F82FEF3FEF4FE75FE7C501B4010E94BE
:102E8000BF4481110CC02FEF3FEF4FE75FE7C50153
:102E9000B4010E94554264E972E0181664F02FEF05
:102EA0003FEF4FE75FE4C701B6010E94BA4418162E
:102EB000B4F468E972E0CE01DF91CF911F91FF90E9
:102EC000EF90DF90CF90BF90AF909F908F907F90CA
:102ED0006F905F904F903F902F900C947C162FEF47
:102EE0003FEF4FE75FECC701B6010E94554287FDF7
:102EF000E0CF20E030E0A901C701B6010E945542B1
:102F0000312C212C87FF0DC0E881F9810190F081DF
:102F1000E02D6DE2CE0119951C01F7FAF094F7F857
:102F2000F09410E060E070E080E09FE3711641F003
:102F300020E030E040E251E40E9419441F5FF6CFE8
:102F4000A70196010E94AD432B013C010E948B44D6
:102F50004B015C012AE0BC01A401CE010E94B51620
:102F60007C01E20CF31C1123E1F1C501B4010E94C4
:102F70005A429B01AC01C301B2010E94AC434B0118
:102F80005C01E881F9810190F081E02D6EE2CE01D3
:102F90001995E80EF91E115020F120E030E040E2D2
:102FA00051E4C501B4010E94BB422B013C010E94C7
:102FB0008B444B01B12CA12C2AE0B501A401CE0118
:102FC0000E94B516E80EF91EC501B4010E945A42CE
:102FD0009B01AC01C301B2010E94AC434B015C01F7
:102FE000DACFC701DF91CF911F91FF90EF90DF9073
:102FF000CF90BF90AF909F908F907F906F905F9099
:103000004F903F902F900895CF93DF93AB01BC0179
:1030100022E080E995E00E941617EC016DE872E06D
:1030200080E995E00E947C168C0F9D1FDF91CF9167
:103030000895FB0144815581FC01248135812417C9
:10304000350778F080819181009759F0FB0160810C
:1030500071816115710529F00E94404721E0892B9B
:1030600009F020E0822F08950F931F93CF93DF93F1
:103070008C01EB01FC01808191810097E1F0688176
:10308000798161157105A9F0428153812C813D81BF
:103090004217530770F00E9439478C819D81F801D7
:1030A000958384831D821C82DF91CF911F910F91A4
:1030B00008950E94B24588819981F80191838083A7
:1030C0008A819B81938382838C819D819583848374
:1030D000198218821B821A82E5CFCF93DF93EC010D
:1030E00088819981009711F00E94B2451982188257
:1030F0001D821C821B821A82DF91CF910895FC01F0
:1031000080819181009711F00C94B24508950F933E
:103110001F93CF93DF93EC0188819981009759F039
:103120002A813B812617370730F081E0DF91CF916C
:103130001F910F9108958B016F5F7F4F0E943B4657
:10314000009759F0998388831B830A832C813D81E2
:10315000232B59F7FC011082E8CF80E0E7CFEF92F4
:10316000FF920F931F93CF93DF936115710541F485
:1031700080E0DF91CF911F910F91FF90EF90089524
:1031800041155105B1F07B01EC010C811D81040F4B
:10319000151FB8010E948718882351F328813981AF
:1031A0008C819D81B701820F931F0E9439471D8337
:1031B0000C8381E0DECFCF93DF93EC01FB01019024
:1031C0000020E9F73197AF01461B570B0E94AF185B
:1031D000811103C0CE010E946D18CE01DF91CF9105
:1031E0000895CF93DF93EC01FB0144815581608109
:1031F00071810E94AF18811103C0CE010E946D1829
:10320000CE01DF91CF910895CF93DF931F921F924C
:10321000CDB7DEB769831A8241E050E0BE016F5F2F
:103220007F4F0E94AF180F900F90DF91CF910895BC
:10323000EF92FF920F931F93CF93DF93EC018B01DB
:10324000F801648175816115710581F0808191813A
:10325000009761F061507109860F971FFC01808112
:10326000803221F4C8010E945E16EACF85E0E82E84
:10327000F12C60E2C8010E940419F1E0EF1AF10894
:10328000C1F7198218821B821A821D821C82B80122
:10329000CE010E943418CE01DF91CF911F910F9182
:1032A000FF90EF900895EF92FF920F931F93CF93AB
:1032B000DF93EC017B018A01BA010E94871881111A
:1032C0000BC0CE010E946D18CE01DF91CF911F91EE
:1032D0000F91FF90EF9008951D830C83B7018881B3
:1032E00099810E943947F0CFFB0101900020E9F756
:1032F0003197AF01461B570B0C945319CF93DF93B3
:10330000EC011092590510924F0510924E056FE88E
:1033100072E082EE96E00E9474196FE872E08CED24
:1033200096E00E9474190E94D01560E080E00E942F
:103330009F15BE0183E697E00E947C1661E088E05D
:103340000E94D21066E970E080E090E00E9469116E
:1033500060E088E00E94D2106CED75E080E090E0C3
:103360000E946911DF91CF910C94D015FB01DC0113
:1033700011961C921E9213961C921E9212971596ED
:103380001C921E9214978617970749F060817181ED
:103390006115710521F0448155810C9453190895EC
:1033A000FC01118210821382128215821482FB01A9
:1033B00001900020E9F73197AF01461B570B0C94A1
:1033C0005319AF92BF92CF92DF92EF92FF920F9379
:1033D0001F93CF93DF936C015B017A01890124175E
:1033E000350720F48F2D7901042F182F6FE872E034
:1033F000C6010E94D019D5011496CD91DC91EC162E
:10340000FD06E0F40C171D0708F4E801D501ED9165
:10341000FC911197EC0FFD1F108110826D917C9132
:103420006E0D7F1DC60161157105A1F00E94741912
:10343000F50180819181C80FD91F1883C601DF91E2
:10344000CF911F910F91FF90EF90DF90CF90BF90A1
:10345000AF9008950E946D18EBCFEF92FF920F93FB
:103460001F93CF93DF93CDB7DEB7A1970FB6F89434
:10347000DEBF0FBECDBF7C01CB01BA01F7011182C7
:103480001082138212821582148242E0420F8E0152
:103490000F5F1F4F0E94D03D009789F0BC01C7010C
:1034A0000E947419A1960FB6F894DEBF0FBECDBF6F
:1034B000DF91CF911F910F91FF90EF900895C70179
:1034C0000E946D18EFCF4F925F926F927F928F9212
:1034D0009F92AF92BF92EF92FF920F931F93CF9361
:1034E000DF93CDB7DEB76E970FB6F894DEBF0FBE91
:1034F000CDBF4B015C0129013A01B801A70122E0CF
:10350000CE0143960E942D1A23E0B301A201CE0101
:103510000D960E942D1A23E0B501A401CE01079655
:103520000E942D1A6CE972E0CE0101960E94D0191A
:10353000BE01695F7F4FCE0101960E94F1186AEDCE
:1035400073E00E94DB18BE01635F7F4F0E94F11899
:103550006AED73E00E94DB18BE016D5E7F4F0E9432
:10356000F118BC01CE0149960E94B619CE014996C8
:103570000E948B16CE0149960E947F18CE010196BB
:103580000E947F18CE0107960E947F18CE010D96EB
:103590000E947F18CE0143960E947F186E960FB648
:1035A000F894DEBF0FBECDBFDF91CF911F910F9179
:1035B000FF90EF90BF90AF909F908F907F906F9013
:1035C0005F904F90089585ED8093BC008091AA0490
:1035D0009091AB04A091AC04B091AD040796A11DED
:1035E000B11D23E0B695A795979587952A95D1F7B4
:1035F0002091BC0024FD03C01092A80408954091BE
:10360000AA045091AB046091AC047091AD04452BB9
:10361000462B472B69F30097A105B10541F02AE23B
:103620002A95F1F700C00197A109B109E1CF809176
:10363000A9040C948F13FC01808191810C947C432C
:10364000CF92DF92EF92FF920F931F93CF93DF936E
:103650001F921F92CDB7DEB76C017C0108E010E02D
:103660001A830983CE0101960E941B1BF7018193E7
:103670007F010F5F1F4F0831110591F7C6010F90B1
:103680000F90DF91CF911F910F91FF90EF90DF90FE
:10369000CF900895AF92BF92CF92DF92EF92FF92B8
:1036A0000F931F93CF93DF931F921F92CDB7DEB777
:1036B0008B016B0124E0C20ED11C7B015C01A61AB8
:1036C000B70AC5018E0D9F1D9A838983CE0101968D
:1036D0000E941B1BF70181937F01EC15FD0589F703
:1036E000C8010F900F90DF91CF911F910F91FF9024
:1036F000EF90DF90CF90BF90AF9008952F923F92C0
:103700004F925F926F927F928F929F92AF92BF92F1
:10371000CF92DF92EF92FF920F931F93CF93DF939D
:1037200000D000D000D01F921F92CDB7DEB76C0141
:103730001B018FEF9FEFF60191838083FB011082C5
:103740001182128213820FE510E0F12CE12C1B860E
:10375000412C512C3201CE0101965C01480198E0C8
:10376000890E911C1A870987CE0109960E941B1B9E
:10377000F50181935F010F5F1F4F0815190591F740
:103780008D819E81AF81B8858F3FFFEF9F07AF0787
:10379000BF07D9F02B85222351F0F10140815181DF
:1037A00062817381481759076A077B0760F4F1014A
:1037B00080839183A283B383F601F182E082498002
:1037C0005A806B807C80F1E0FB872FEFE21AF20ACF
:1037D00080E1E816F10409F0BECF9B85911105C088
:1037E0008EEF9FEFF60191838083C301B2012B9688
:1037F0000FB6F894DEBF0FBECDBFDF91CF911F9102
:103800000F91FF90EF90DF90CF90BF90AF909F907F
:103810008F907F906F905F904F903F902F90089582
:103820001F93CF93DF93EC01162F0E941B1B811770
:1038300029F0612F888199810E948443CE01DF9114
:10384000CF911F910895EF92FF920F931F93CF9303
:10385000DF931F921F92CDB7DEB78DE1E82E82E095
:10386000F82E08E010E01A830983F70161917F01C7
:10387000CE0101960E94101C0F5F1F4F08311105E9
:1038800091F78DE192E00F900F90DF91CF911F9112
:103890000F91FF90EF900895CF93DF93CDB7DEB7F0
:1038A00060970FB6F894DEBF0FBECDBF0E94231CF9
:1038B000CE0101960E94201B6DE172E0CE010196BF
:1038C0000E943047892B11F00E94231C60960FB68E
:1038D000F894DEBF0FBECDBFDF91CF910895AF92B8
:1038E000BF92CF92DF92EF92FF920F931F93CF93ED
:1038F000DF931F921F92CDB7DEB78B016B0124E0DF
:10390000C20ED11C7B015C01A61AB70AC5018E0D3F
:103910009F1D9A838983F70161917F01CE010196F2
:103920000E94101CEC14FD0489F7C8010F900F9041
:10393000DF91CF911F910F91FF90EF90DF90CF908B
:10394000BF90AF900895CF92DF92EF92FF920F93C6
:103950001F93CF93DF9300D01F92CDB7DEB710E057
:1039600000E068E072E088E190E00E946F1CBE0118
:103970006F5F7F4F88E190E00E944A1B2091080210
:103980003091090240910A0250910B0269817A81BB
:103990008B819C810E94AC436B017C0120E030E074
:1039A000A9010E94BA441816BCF420E030E040E8B7
:1039B0005FE3C701B6010E94554287FF17C00F9011
:1039C0000F900F900F90DF91CF911F910F91FF906B
:1039D000EF90DF90CF90089520E030E040E85FEB7B
:1039E000C701B6010E94BA4418164CF30F5F1F4F6F
:1039F0000330110509F0B5CFE2CFCF93DF9300D0AC
:103A00001F92CDB7DEB764E072E084E090E00E94E0
:103A10006F1CBE016F5F7F4F84E090E00E944A1BE5
:103A20002091040230910502409106025091070254
:103A300069817A818B819C810E945542882331F073
:103A400064E072E084E090E00E946F1C0F900F90A1
:103A50000F900F90DF91CF910895CF92DF92EF9268
:103A6000FF920F931F93CF93DF93CDB7DEB760978D
:103A70000FB6F894DEBF0FBECDBF6B017C01BE0157
:103A8000675F7F4FCE010F960E947E1B8F859889BE
:103A900097FD40C001968F70992749855A856B859F
:103AA0007C854F5F5F4F6F4F7F4FC982DA82EB8219
:103AB000FC824D835E836F83788723E0880F991F94
:103AC0002A95E1F77C012FE5E20EF11CFE0131960B
:103AD0006F018C0109591F4FFE86ED86F601619139
:103AE0006F01CE010D960E94101CFFEFEF1AFF0A26
:103AF000E016F10689F760960FB6F894DEBF0FBEA8
:103B0000CDBFDF91CF911F910F91FF90EF90DF908C
:103B1000CF90089590E080E0C0CFCF93DF931F92C5
:103B20001F92CDB7DEB71A8219826DECCE010196D5
:103B30000E94101C81E090E09A8389836BEACE0199
:103B400001960E94101C60911E0570911F058091C6
:103B50002005909121050E942D1D0E94FD1C0E94B0
:103B60004C1C0E94A31C60E072E08CE190E00E947B
:103B70006F1C0F900F90DF91CF9108952F923F927D
:103B80004F925F926F927F928F929F92AF92BF926D
:103B9000CF92DF92EF92FF920F931F93CF93DF9319
:103BA000CDB7DEB7E0970FB6F894DEBF0FBECDBF3E
:103BB00080915B05811103C480915A058111FFC377
:103BC0000E94D01560E080E00E949F156DE473E0D4
:103BD00083E697E00E94E10E61E08AE00E94D21045
:103BE00010921A0410921B0410921C0410921D04CF
:103BF000109265051092660510926705109268058F
:103C00000E949B11609318057093190580931A0503
:103C100090931B0560916D0570916E0580916F0505
:103C2000909170050E945A424B015C0180921604EB
:103C300090921704A0921804B092190420910802DF
:103C40003091090240910A0250910B020E941944DE
:103C50002B013C01109215041092110410921204D1
:103C6000109213041092140485017401AC019B019D
:103C700060E070E0CB010E94631A19A61AA61BA689
:103C80001CA6812C912C80E8282E9FEB392ED12C5C
:103C9000C12CB12CA12CA8950E9400220E949B113E
:103CA00029A53AA54BA55CA5621B730B840B950B4C
:103CB000603D774081059105B0F0E0901604F090EA
:103CC00017040091180410911904A30192016D2D9D
:103CD0007C2D8B2D9A2D0E94631A0E949B1169A73F
:103CE0007AA78BA79CA70E949B11009118051091A1
:103CF000190520911A0530911B05601B710B820B71
:103D0000930B683E73408105910508F463C2ED98FA
:103D10008FED9EE090930F0280930E0260916505F7
:103D20007091660580916705909168050E945A42DE
:103D30002091040230910502409106025091070241
:103D40000E94194460930D0470930E0480930F0435
:103D50009093100420E030E040E752E40E941944C0
:103D600020911A0430911B0440911C0450911D04B1
:103D70000E94AD43D62EC72EB82EA92E862F9C2D7D
:103D8000AB2DBA2D80931A0490931B04A0931C04AE
:103D9000B0931D04209108023091090240910A025B
:103DA00050910B026D2D7C2D8B2D9A2D0E94BB42C4
:103DB0006DA77EA78FA798AB109265051092660538
:103DC00010926705109268050E949B116093180578
:103DD0007093190580931A0590931B05ABECBEE018
:103DE000B0930F02A0930E0280916A00837F8860D7
:103DF00080936A00ED9A9401A1016D2D7C2D8B2D8D
:103E00009A2D0E94AC436DA37EA38FA398A720E0B8
:103E100030E0A9010E94BA4418160CF08EC12AE0C5
:103E200037ED43E25CE36DA17EA18FA198A50E94CE
:103E3000BA4487FF8FC12D2D3C2D4B2D5A2DC30128
:103E4000B2010E94554218160CF084C180911504ED
:103E5000811129C02091000230910102409102029B
:103E600050910302C301B2010E94AC439B01AC011B
:103E70006D2D7C2D8B2D9A2D0E94BA4487FD13C089
:103E8000B1E0B093150460E08AE00E94D2100E9475
:103E9000D01560E080E00E949F156AE273E083E63F
:103EA00097E00E94E10E2D2D3C2D4B2D5A2DC30184
:103EB000B2010E94554218160CF48CC160E08AE0F1
:103EC0000E94D210ED988FED9EE090930F028093A8
:103ED0000E02109265051092660510926705109209
:103EE00068050E949B1160931805709319058093D3
:103EF0001A0590931B058BEC9EE090930F02809324
:103F00000E0280916A00837F886080936A00ED9A38
:103F100010921504109211041092120410921304BE
:103F20001092140460E08AE00E94D21060911E0595
:103F300070911F0580912005909121050E945A42A1
:103F400020911604309117044091180450911904DF
:103F50000E94AD430E948B4460931E0570931F0521
:103F600080932005909321050E942D1D40901604FA
:103F700050901704609018047090190480910C04FC
:103F800062EB72E0882311F062EA72E0CE014F9694
:103F90000E94D01910920C0440910802509109021D
:103FA00060910A0270910B0222E0CE0107960E94F6
:103FB0002D1A23E04D2D5C2D6B2D7A2DCE010D9603
:103FC0000E942D1A22E0B301A201CE0143960E9465
:103FD0002D1ABE01615E7F4FCE0149960E94B6192F
:103FE000BE016D5E7F4FCE0149960E94F1186AEDC9
:103FF00073E00E94DB18BE01635F7F4F0E94F118DF
:104000006AED73E00E94DB18BE01695F7F4F0E947A
:10401000F118BC01CE0101960E94B619CE0101969D
:104020000E948B16CE0101960E947F18CE01499600
:104030000E947F18CE0143960E947F18CE010D96F4
:104040000E947F18CE0107960E947F18CE014F96DE
:104050000E947F180E94D01560E083E00E949F15A7
:104060006EE173E083E697E00E94E10E61E082E09A
:104070000E949F1562E173E083E697E00E94E10EE3
:1040800068EE73E080E090E00E9469111092830571
:1040900060E08AE00E94D2100E94D0150E948D1D1F
:1040A00010926D0510926E0510926F0510927005BA
:1040B000109250051092510510925205109253051E
:1040C00010921604109217041092180410921904FA
:1040D00010921A0410921B0410921C0410921D04DA
:1040E000109265051092660510926705109268059A
:1040F00010921104109212041092130410921404DE
:1041000061E089E00E94D210E0960FB6F894DEBF1D
:104110000FBECDBFDF91CF911F910F91FF90EF9018
:10412000DF90CF90BF90AF909F908F907F906F90D7
:104130005F904F903F902F9008952AE037ED43E233
:104140005CEB6DA17EA18FA198A50E945542181627
:104150000CF471CE0E94D01562E473E083E697E020
:104160000E94E10E409116045091170460911804CA
:104170007091190422E083E697E00E94161761E02F
:1041800080E00E949F156FE373E083E697E00E9452
:10419000E10E22E04D2D5C2D6B2D7A2D83E697E00C
:1041A0000E94161761E087E00E949F156BE373E0A1
:1041B00083E697E00E94E10E22E04DA55EA56FA583
:1041C00078A983E697E00E9416178D2C9C2C2B2C47
:1041D0003A2C3CCE8091150481115DCD2AE037ED5B
:1041E00043E25CE360910D0470910E0480910F0432
:1041F000909110040E94554287FFD8C0209111046D
:104200003091120440911304509114042DA33EA345
:104210004FA358A7232B242B252B59F40E949B1125
:104220006093110470931204809313049093140408
:1042300032CD0E949B112DA13EA14FA158A5621B1A
:10424000730B840B950B603177428105910508F45F
:1042500022CD60E08AE00E94D21060E089E00E94F6
:10426000D21081E080937D05109211041092120407
:10427000109213041092140405E010E0A89561E078
:1042800088E00E94D2106CE271E080E090E00E9431
:10429000691160E088E00E94D21068EC70E080E074
:1042A00090E00E9469110150110941F72091080224
:1042B0003091090240910A0250910B026D2D7C2D24
:1042C0008B2D9A2D0E94BB420E948B4480906D05DD
:1042D00090906E05A0906F05B0907005462F572FF7
:1042E000BC0184169506A606B70610F4B501A40114
:1042F000841A950AA60AB70A8092750590927605E7
:10430000A0927705B09278050E94D01560E080E019
:104310000E949F156FEF72E083E697E00E94E10E26
:1043200061E080E00E949F1564EF72E083E697E011
:104330000E94E10E409175055091760560917705D8
:10434000709178052AE083E697E00E94B5166BEE3F
:1043500072E083E697E00E94E10E10926D051092E4
:104360006E0510926F051092700510925005109214
:104370005105109252051092530510921604109296
:104380001704109218041092190410921A04109233
:104390001B0410921C0410921D04109265051092CB
:1043A00066051092670510926805AECE1092110452
:1043B0001092120410921304109214046CCC0E94F8
:1043C000D01560E080E00E949F156CE673E083E604
:1043D00097E00E94E10E61E080E00E949F156CE58D
:1043E00073E083E697E00E94E10E64EC79E080E000
:1043F00090E00E9469110E94D0151092830584CE2E
:104400003F924F925F926F927F928F929F92AF9264
:10441000BF92CF92DF92EF92FF920F931F93CF93B1
:10442000DF93CDB7DEB768970FB6F894DEBF0FBE47
:10443000CDBF332433948DE296E00E94630F892B25
:1044400009F4D8C28DE296E00E94410F2091DA066D
:104450003091DB068A3019F08D3009F0C1C2232B70
:1044600051F366ED76E0CE0143960E94B6196CEBEF
:1044700072E0CE0101960E94D019BE016F5F7F4F9E
:10448000CE0143960E941918182FCE0101960E9462
:104490007F18112369F030925805CE0143960E948F
:1044A0007F186FE872E086ED96E00E947419C3CF22
:1044B00068EC72E0CE0101960E94D019BE016F5FD8
:1044C0007F4FCE0143960E941918182FCE010196F6
:1044D0000E947F18112359F01092580580915905B8
:1044E0008823D9F285ED92E00E947E19D6CF65EE41
:1044F00072E0CE0101960E94D019BE016F5F7F4F1E
:10450000CE0143960E941918182FCE0101960E94E1
:104510007F18112319F180915905882309F4BDCF23
:1045200080914E0590914F05029709F0B6CF0E94F9
:10453000D01560E080E00E949F156EED72E083E68A
:1045400097E00E94E10E61E080E00E949F1562ED1D
:1045500072E083E697E00E94E10E9FCF64EF72E085
:10456000CE0101960E94D019BE016F5F7F4FCE0130
:1045700043960E941918182FCE0101960E947F18A9
:10458000112309F455C02F89388D4DE050E0BE014C
:104590006D5E7F4FCE0101960E94E119CE0101961A
:1045A0000E9471162B013C01CE0101960E947F18DA
:1045B0001092590510924F0510924E0520E030E000
:1045C00048E452E4C301B2010E94BA4487FD2DC001
:1045D00040925005509251056092520570925305D9
:1045E000C301B2010E948B4460936D0570936E0508
:1045F00080936F05909370050E94D01560E080E075
:104600000E949F1565EC72E083E697E00E94E10E40
:1046100068EE73E080E090E00E94691130920C0433
:10462000309283050E94BE1D38CF82E093E05CCFBC
:1046300062E173E0CE0101960E94D019BE016F5F66
:104640007F4FCE0143960E941918182FCE01019674
:104650000E947F18112341F080915905882309F4A5
:104660001CCF81E293E040CF6CE273E0CE01019673
:104670000E94D019BE016F5F7F4FCE0143960E940A
:104680001918182FCE0101960E947F18112309F4E2
:10469000BDC02F89388D49E050E0BE016D5E7F4F6F
:1046A000CE0107960E94E1190B851C8501151105A5
:1046B00061F08F8098846AE370E0C4010E9425470E
:1046C0007C01E818F908892B19F4EE24EA94FE2CF1
:1046D00047018FEF881A980A8016910608F091C05A
:1046E0006F8078846AE370E0C301880D991D0E9491
:1046F0002547009709F485C08C01061917091E1477
:104700001F040CF07EC0101611060CF07AC0970141
:1047100050E040E0BE01695F7F4FCE0101960E94EC
:10472000E119CE0101960E9471162B013C01CE01C8
:1047300001960E947F189801A401BE01695F7F4F16
:10474000CE0101960E94E119CE0101960E947116D8
:104750004B015C01CE0101960E947F182B853C85A0
:10476000A8014F5F5F4FBE01695F7F4FCE01019689
:104770000E94E119CE0101960E9471166B017C0125
:10478000CE0101960E947F1820E030E0A901C3010C
:10479000B2010E94BA4487FD0AC0409208025092BA
:1047A000090260920A0270920B020E94A31C20E090
:1047B00030E0A901C501B4010E94BA4487FD0AC0D6
:1047C0008092040290920502A0920602B092070223
:1047D0000E94FD1C20E030E0A901C701B6010E9443
:1047E000BA4487FD0EC0C0920002D0920102E0924E
:1047F0000202F092030260E072E08CE190E00E941D
:104800006F1CCE0107960E947F1847CE66E373E0C7
:10481000CE0101960E94D019BE016F5F7F4FCE017D
:1048200043960E941918182FCE0101960E947F18F6
:104830001123A1F110915B052F89388D45E050E0DF
:10484000BE016D5E7F4FCE0101960E94E119898104
:104850009A810097F9F00E94F23D21E061307105E4
:104860008105910509F020E020935B05CE010196BA
:104870000E947F1880915B05181709F40ECE609195
:104880005B0580E290E09A838983CE0101960E94C5
:10489000101C03CE60E070E0CB01DFCF6CE373E06F
:1048A000CE0101960E94D019BE016F5F7F4FCE01ED
:1048B00043960E941918182FCE0101960E947F1866
:1048C000112309F12F89388D46E050E0BE016D5E5D
:1048D0007F4FCE0101960E94E11989819A8100974C
:1048E00071F00E94F23D21E0613071058105910572
:1048F00009F020E020935A05CE01019684CF60E0B4
:1049000070E0CB01F0CF63E473E0CE0101960E942A
:10491000D019BE016F5F7F4FCE0143960E941918D8
:10492000182FCE0101960E947F18112309F4B5CDEE
:104930002F89388D4BE050E0BE016D5E7F4FCE0178
:104940000D960E94E11909891A890115110549F08E
:10495000ED84FE846FE473E0C7010E943047892B29
:1049600049F51092DB040E94A22868EE76E0CE01A1
:1049700001960E94B619BE016F5F7F4FCE01079668
:104980000E941819BE01695F7F4F8EEE96E00E946B
:104990003418CE0107960E947F18CE0101960E941E
:1049A0007F1810924905109248050E94D015CE013B
:1049B0000D9629CF0D331105A0F7A801B7018BED96
:1049C00094E00E944E47F801E552FB4F10820E948E
:1049D000A2286BED74E0CE0101960E94D019CBCFD6
:1049E0002837310508F027CD682F86ED96E00E9424
:1049F000041921CD68960FB6F894DEBF0FBECDBF67
:104A0000DF91CF911F910F91FF90EF90DF90CF90AA
:104A1000BF90AF909F908F907F906F905F904F90DE
:104A20003F9008951F920F920FB60F9211240BB66C
:104A30000F922F933F934F935F936F937F938F9337
:104A40009F93AF93BF93EF93FF9380E995E00E940C
:104A5000830FFF91EF91BF91AF919F918F917F91C4
:104A60006F915F914F913F912F910F900BBE0F90DF
:104A70000FBE0F901F9018951F920F920FB60F92B6
:104A800011240BB60F922F938F939F93EF93FF9365
:104A9000E091A005F091A1058081E091A605F0913B
:104AA000A70582FD1DC090818091A9058F5F8F733E
:104AB0002091AA05821741F0E091A905F0E0E057A6
:104AC000FA4F958F8093A905FF91EF919F918F9158
:104AD0002F910F900BBE0F900FBE0F901F90189547
:104AE0008081F2CF1F920F920FB60F9211240BB656
:104AF0000F922F933F934F935F936F937F938F9377
:104B00009F93AF93BF93EF93FF938DE296E00E9444
:104B1000830FFF91EF91BF91AF919F918F917F9103
:104B20006F915F914F913F912F910F900BBE0F901E
:104B30000FBE0F901F9018951F920F920FB60F92F5
:104B400011240BB60F922F938F939F93EF93FF93A4
:104B5000E0913D06F0913E068081E0914306F091A0
:104B6000440682FD1DC09081809146068F5F8F7341
:104B700020914706821741F0E0914606F0E0E35DA0
:104B8000F94F958F80934606FF91EF919F918F91FA
:104B90002F910F900BBE0F900FBE0F901F90189586
:104BA0008081F2CF1F920F920FB60F9211242F9394
:104BB0003F938F939F93AF93BF938091D304909132
:104BC000D404A091D504B091D6043091D20423E04E
:104BD000230F2D3758F50196A11DB11D2093D20446
:104BE0008093D3049093D404A093D504B093D604B7
:104BF0008091D7049091D804A091D904B091DA049F
:104C00000196A11DB11D8093D7049093D804A09361
:104C1000D904B093DA04BF91AF919F918F913F91E6
:104C20002F910F900FBE0F901F90189526E8230F1D
:104C30000296A11DB11DD2CF1F920F920FB60F92F7
:104C400011240BB60F922F933F934F935F936F9363
:104C50007F938F939F93AF93BF93EF93FF93E091D5
:104C60001A02F0911B021995FF91EF91BF91AF913C
:104C70009F918F917F916F915F914F913F912F9174
:104C80000F900BBE0F900FBE0F901F9018951F92A4
:104C90000F920FB60F9211240BB60F922F933F93E2
:104CA0004F935F936F937F938F939F93AF93BF9334
:104CB000EF93FF93E0911802F09119021995FF917B
:104CC000EF91BF91AF919F918F917F916F915F9184
:104CD0004F913F912F910F900BBE0F900FBE0F90F1
:104CE0001F9018951F920F920FB60F9211240BB6BA
:104CF0000F922F933F934F935F936F937F938F9375
:104D00009F93AF93BF93EF93FF93E0910E02F091C7
:104D10000F021995FF91EF91BF91AF919F918F91E4
:104D20007F916F915F914F913F912F910F900BBEAB
:104D30000F900FBE0F901F9018951F920F920FB6F5
:104D40000F9211240BB60F922F933F934F935F93C3
:104D50006F937F938F939F93AF93BF93EF93FF9343
:104D6000E0910C02F0910D021995FF91EF91BF9126
:104D7000AF919F918F917F916F915F914F913F91F3
:104D80002F910F900BBE0F900FBE0F901F90189594
:104D90001F920F920FB60F9211240BB60F922F9302
:104DA0003F934F935F936F937F938F939F93AF93B3
:104DB000BF93EF93FF93E0911602F09117021995BC
:104DC000FF91EF91BF91AF919F918F917F916F91E3
:104DD0005F914F913F912F910F900BBE0F900FBE9F
:104DE0000F901F9018951F920F920FB60F921124DB
:104DF0000BB60F922F933F934F935F936F937F93D5
:104E00008F939F93AF93BF93EF93FF93E09114021F
:104E1000F09115021995FF91EF91BF91AF919F917C
:104E20008F917F916F915F914F913F912F910F9053
:104E30000BBE0F900FBE0F901F9018951F920F92F0
:104E40000FB60F9211240BB60F922F933F934F93EF
:104E50005F936F937F938F939F93AF93BF93EF93E2
:104E6000FF93E0911202F09113021995FF91EF91D7
:104E7000BF91AF919F918F917F916F915F914F9172
:104E80003F912F910F900BBE0F900FBE0F901F9070
:104E900018951F920F920FB60F9211240BB60F9216
:104EA0002F933F934F935F936F937F938F939F9332
:104EB000AF93BF93EF93FF93E0911002F091110233
:104EC0001995FF91EF91BF91AF919F918F917F9134
:104ED0006F915F914F913F912F910F900BBE0F906B
:104EE0000FBE0F901F9018951F920F920FB60F9242
:104EF00011240F900FBE0F901F9018951F920F92C4
:104F00000FB60F9211240BB60F922F933F934F932E
:104F10005F936F937F938F939F93AF93BF93EF9321
:104F2000FF938091B900887F803609F44DC008F066
:104F300040C0883209F4A9C028F5803109F49DC029
:104F4000C8F4882309F4FBC0883009F496C0FF91A7
:104F5000EF91BF91AF919F918F917F916F915F91F1
:104F60004F913F912F910F900BBE0F900FBE0F905E
:104F70001F901895883109F488C0803241F78093DA
:104F8000A60414C0803409F49DC040F48033B9F302
:104F90008833E9F68093A60485ECB0C0803509F427
:104FA00085C0883509F496C0883489F60E94E31AD2
:104FB000CECF883909F48CC038F5883729F050F401
:104FC000883611F0803719F683E08093A804109298
:104FD000810457C0883809F47BC0803919F08038C3
:104FE00009F0B5CF80918104803208F071C0E09162
:104FF000810481E08E0F809381048091BB00F0E0FA
:10500000EF59FB4F80833DC0803B39F0E0F4803A9C
:1050100009F479C0883A09F09ACF84E08093A80413
:105020001092600410925F04E0918805F091890568
:10503000199580915F0481110FC081E080935F0416
:1050400010923F0409C0803C09F4A6CF883C09F4C3
:10505000A3CF883B09F07BCFE091600481E08E0F05
:1050600080936004F0E0E15CFB4F80818093BB00A3
:105070009091600480915F0429C0809183048093A3
:10508000BB0085EC8093BC0062CF9091A504809119
:10509000A404981758F5E091A50481E08E0F809341
:1050A000A504F0E0EC57FB4F8081E9CFE091A50427
:1050B00081E08E0F8093A5048091BB00F0E0EC5757
:1050C000FB4F80839091A5048091A4049817C8F2A7
:1050D00085E8D8CFE091A50481E08E0F8093A504E8
:1050E0008091BB00F0E0EC57FB4F80838091A704D8
:1050F00081115CCF81E08093820484EA8093BC00BC
:105100001092A80424CF85EC8093BC001092A804D0
:1051100080918104803230F4E0918104F0E0EF5915
:10512000FB4F10826091810470E0E0918A05F0915C
:105130008B0581E694E019951092810408CF1092B6
:10514000A60434CFEF92FF920F931F93CF93DF9378
:105150001F921F92CDB7DEB78BEDE82E84E0F82EBC
:1051600002E210E01A830983F70161917F01CE0109
:1051700001960E94101C0F5F1F4F0F35110591F70C
:105180000F900F90DF91CF911F910F91FF90EF90B3
:105190000895109293051092920588EE93E0A0E096
:1051A000B0E08093940590939505A0939605B093F5
:1051B000970527E532E030939105209390054DEC5B
:1051C00050E050939D0540939C054CEC50E050936B
:1051D0009F0540939E0548EC50E05093A1054093F5
:1051E000A00549EC50E05093A3054093A2054AEC7A
:1051F00050E05093A5054093A4054EEC50E0509329
:10520000A7054093A6051092A9051092AA05109231
:10521000AB051092AC051092300610922F068093C9
:10522000310690933206A0933306B0933406309340
:105230002E0620932D0625EC30E030933A0620937D
:10524000390624EC30E030933C0620933B0620ECFA
:1052500030E030933E0620933D0621EC30E0309361
:10526000400620933F0622EC30E030934206209324
:10527000410626EC30E0309344062093430610921A
:105280004606109247061092480610924906109260
:10529000CD061092CC068093CE069093CF06A093B5
:1052A000D006B093D10689E692E09093CB06809326
:1052B000CA06109266071092650785E892E09093FF
:1052C00064078093630787E28093670780E1809398
:1052D0006C0782E080936D0710926E071092F606BD
:1052E0001092FA061092F9061092FB068BE792E0F4
:1052F0009093F5068093F406E0E1F7E010821482C3
:1053000013821582369687E0EC34F807B9F781E30B
:1053100092E090935707809356078DE292E0909326
:1053200059078093580784E080935A0780935B075E
:1053300085E392E090935507809354078AE090E0CC
:1053400090935D0780935C0784EF91E090935F07F3
:1053500080935E07109262071092610710925007C7
:105360001092510710925207109253071092600743
:1053700067E573E08EEE96E00E94D01967E573E072
:1053800088EE96E00E94D0196FE872E082EE96E017
:105390000E94D0196FE872E08CED96E00E94D0195F
:1053A0006FE872E086ED96E00C94D019CF93DF930E
:1053B000CDB7DEB7AF970FB6F894DEBF0FBECDBF47
:1053C000789484B5826084BD84B5816084BD85B5E0
:1053D000826085BD85B5816085BD80916E008160EC
:1053E00080936E0010928100809181008260809392
:1053F0008100809181008160809381008091800094
:105400008160809380008091B10084608093B100BE
:105410008091B00081608093B000809191008260A3
:1054200080939100809191008160809391008091A0
:1054300090008160809390008091A10082608093B1
:10544000A1008091A10081608093A1008091A000C3
:1054500081608093A000809121018260809321016E
:1054600080912101816080932101809120018160E0
:105470008093200180917A00846080937A008091EB
:105480007A00826080937A0080917A0081608093B4
:105490007A0080917A00806880937A001092C1002F
:1054A00088E199E20FB6F894A895809360000FBE4A
:1054B000909360008DE296E00E947F0E10928F051F
:1054C00010928E0510928D0510928C050E9471131A
:1054D00089EC9EE090938905809388058AEC9EE094
:1054E00090938B0580938A050E94DB150E941D1501
:1054F00062E082E00E94041161E089E00E940411F0
:1055000061E08AE00E94041161E08BE00E940411D6
:1055100061E088E00E94041160E083E00E940411D1
:1055200060E08CE00E94041160E084E00E940411BD
:1055300060E089E00E94D21060E08AE00E94D21010
:1055400060E08BE00E94D21060E088E00E94D21000
:105550001A821982CE0101960E941B1B8EA781E040
:1055600090E09A838983CE0101960E941B1B8FA72E
:10557000BE016F5F7F4FCE0188960E947E1B28A5DB
:1055800039A52E3F3F4F09F4F8C160931E05709373
:105590001F05809320059093210564E072E084E06C
:1055A00090E00E944A1BC0900402D0900502E09057
:1055B0000602F0900702A7019601C701B6010E94FA
:1055C000BF44811114C02DEC3CEC4CEC5DE3C701F1
:1055D000B6010E94554287FD0AC020E030E040E25B
:1055E00051E4C701B6010E94BA44181694F480E051
:1055F00090E0A0EFB0E48093040290930502A093A2
:105600000602B093070264E072E084E090E00E943A
:105610006F1C8DE192E00E94201B80911D02811180
:1056200008C06AE973E08DE192E00E9439470E9468
:10563000231C68E072E088E190E00E944A1BC09061
:105640000802D0900902E0900A02F0900B02A70134
:105650009601C701B6010E94BF44811114C020E029
:1056600030E040E85FE3C701B6010E94554287FD84
:105670000AC020E030E44CE156E4C701B6010E94C4
:10568000BA44181694F480E090E0A8E4B2E4809361
:10569000080290930902A0930A02B0930B0268E0FB
:1056A00072E088E190E00E946F1C60E072E08CE1A3
:1056B00090E00E944A1BC0900002D0900102E0904E
:1056C0000202F0900302A7019601C701B6010E94F1
:1056D000BF44811113C020E030E0A901C701B60129
:1056E0000E94554287FD0AC020E030E040E251E4CC
:1056F000C701B6010E94BA44181694F48AE999E9E0
:10570000A9E9BEE38093000290930102A0930202F4
:10571000B093030260E072E08CE190E00E946F1CA5
:105720008EA59FA58D3C9B4A51F010921E051092AC
:105730001F0510922005109221050E948D1D80E208
:1057400090E09A838983CE0101960E941B1B91E011
:10575000813009F090E090935B053BEDE32E34E05F
:10576000F32E02E210E01A830983CE0101960E9413
:105770001B1BF70181937F010F5F1F4F0F35110531
:1057800091F78091DB048F5F823008F038C110926E
:10579000DB0468EE76E0CE0101960E94B619BE01E8
:1057A0006F5F7F4FCE0182960E941819BE016E5D19
:1057B0007F4F8EEE96E00E943418CE0182960E94B2
:1057C0007F18CE0101960E947F1860E080E00E9461
:1057D0009F1560EE74E083E697E00E94E10E61E0C1
:1057E00085E00E949F1567ED74E083E697E00E94D4
:1057F000E10E60ED77E080E090E00E94691161E0E9
:1058000089E00E94D2100E94D01588E295E1909321
:105810000D0280930C0280916A008C7F82608093DD
:105820006A00EC9A8BEC9EE090930F0280930E023C
:1058300080916A00837F886080936A00ED9A0E945D
:105840009B11609318057093190580931A05909326
:105850001B0580E995E00E947F0E64E670E080E021
:1058600090E00E9469113324339444244394512CD2
:105870009FED692E9EE0792E2BEC822E2EE0922E4B
:10588000A89580E995E00E94630F892B51F00E9452
:105890009B116093790570937A0580937B059093B3
:1058A0007C0580918205882309F4C6C00E949B1163
:1058B0000091790510917A0520917B0530917C0546
:1058C000601B710B820B930B603C744D8140910502
:1058D00008F4B2C00E948D1D61E088E00E94D210E1
:1058E00068EC70E080E090E00E94691160E088E080
:1058F0000E94D2101092820510924205109241052A
:105900001092400510923F0510923E050E941D1511
:105910000E94D01560E080E00E949F1561E17BE16C
:1059200083E697E00E94E10E61E080E00E949F150F
:105930006FEF7AE183E697E00E94E10E0E94D015B6
:105940008FEC9AE10E94A21688EB9AE10E94A216BF
:1059500082E99AE10E94A2168AE79AE10E94A216C1
:1059600068E77AE180E995E00E94E10E10923D053A
:1059700010923C050E94631549C78EA59FA58D3CDA
:105980009B4A89F54EE1E42E45E0F42E02E010E05A
:105990001BA30AA3CE0182960E941B1BF7018193D1
:1059A0007F010F5F1F4F0630110591F76EE974E01C
:1059B0008DE296E00E94E10E40911E0550911F0578
:1059C00060912005709121058DE296E00E940117FB
:1059D00060911E0570911F05809120059091210511
:1059E0000E942D1DDACD10921E0510921F051092F7
:1059F00020051092210560E070E0CB01F1CF1092FC
:105A000017056BED74E0CE0182960E94D019BE019D
:105A10006E5D7F4FCE0101960E941819BE016F5F27
:105A20007F4F8EEE96E00E943418CE0101960E94C0
:105A30007F18CE018296C7CE84E00E94A610892BE3
:105A400009F01DC180913B058111C7C00E949B11C7
:105A500060933705709338058093390590933A0524
:105A600030923B050E949B11009133051091340543
:105A70002091350530913605601B710B820B930B1D
:105A80006A3071058105910508F4C0C680E995E08A
:105A90000E94630F892B09F4B9C60E949B11609381
:105AA000330570933405809335059093360580E96E
:105AB00095E00E94410F909182059111F6C02091CE
:105AC0003C0530913D058A3019F08D3009F09AC6B9
:105AD000121613060CF09AC62D5D3A4FF90110828A
