:100000000C94D4100C947A450C944F450C942445D0
:100010000C94F9440C94CE440C94A3440C9478446E
:100020000C944D440C9405110C9405110C9405117D
:100030000C9405110C9405110C9405110C940511E8
:100040000C9405110C9405110C9405110C940511D8
:100050000C9405110C9405110C9405110C94034497
:100060000C9405110C94CD430C94A3430C940511EE
:100070000C9405110C9405110C9405110C940511A8
:100080000C9405110C9405110C9405110C94051198
:100090000C946D430C9443430C9405110C94A545AA
:1000A0000C9405110C9405110C9405110C94051178
:1000B0000C9405110C9405110C9405110C94051168
:1000C0000C9405110C9405110C9405110C94051158
:1000D0000C9405110C9405110C9405110C94051148
:1000E0000C9405110C942B190C94EF120C94641BB6
:1000F0000C9431110C94D3120C949B130C943E1954
:100100000C9460110C9438140C94F8120C94331164
:100110000C94FD120C94F3120C94B8120C94931AD4
:100120000C94D7120C9434170C9445190C94D448A1
:100130000C94C4130C94B0110C94CA120C94EB12CE
:100140000C94C6120C945B130C94CD120C94C21236
:100150000C9472190C9434110C949C110C942A1365
:100160000C941C190C948D110C9400120C94D6163E
:100170000C94345B0C9432110C94901A0C94E11290
:100180000C94BE120C944D120C94DD120C94BE1102
:100190000C94F9120C941B190C94E5124E414E4923
:1001A0004E495459494E46CDCCCC3D0AD7233C1735
:1001B000B7D13877CC2B329595E6241FB14F0A0082
:1001C0000020410000C84200401C4620BCBE4CCA72
:1001D0001B0E5AAEC59D7400407A10F35A00A072EF
:1001E0004E18090010A5D4E80000E8764817000072
:1001F000E40B54020000CA9A3B000000E1F5050040
:100200000080969800000040420F000000A0860188
:10021000000000102700000000E803000000006458
:1002200000000000000A00000000000100000000C3
:10023000002C76D888DC674F0823DFC1DFAE59E198
:10024000B1B796E5E3E453C63AE651997696E8E607
:10025000C28426EB898C9B62ED407C6FFCEFBC9CDA
:100260009F40F2BAA56FA5F490055A2AF75C936BEC
:100270006CF9676DC11BFCE0E40D47FEF520E6B5A7
:1002800000D0ED902E0300943577050080841E0881
:100290000000204E0A000000C80C333333330F989F
:1002A0006E12831141EF8D2114893BE65516CFFE66
:1002B000E6DB18D1844B381BF77C1D901DA4BBE4F2
:1002C00024203284725E228100C9F124ECA1E53D34
:1002D000275072652D436C6F7365204F666673659A
:1002E000742073617665643A2000454550524F4D45
:1002F000207772697465206661696C656420666F39
:100300007220746F74616C436F696E732120526543
:10031000747279696E672E2E2E00536176656420A3
:100320004F776E6572204E756D6265723A2000459A
:100330004550524F4D207772697465206661696C33
:10034000656420666F7220666C6F7743616C6962CA
:10035000726174696F6E466163746F7221205265B9
:10036000747279696E672E2E2E00454550524F4D9E
:10037000207772697465206661696C656420666FB8
:10038000722070726963655065724C697465722180
:10039000205265747279696E672E2E2E0053544F69
:1003A0005245445F43415244533A002000436F6D2D
:1003B0006D616E64733A20277072696365272C2023
:1003C0002763616C666163746F72272C20277072DB
:1003D00065636C6F7365272C202773657470686F75
:1003E0006E65272C202762616C616E6365272C2067
:1003F000277265736574272C20276E65777061738B
:1004000073272C20277573657270617373272C20F6
:1004100027414444434152443A3C6E616D653E3A43
:100420003C62616C616E63653E272C202741444429
:1004300042414C414E43453A3C6E616D653E3A3C0B
:10044000616D6F756E743E272C202744454C4554D2
:1004500045434152443A3C6E616D653E272C20274E
:1004600044454C455445414C4C43415244533A3C1D
:1004700070617373776F72643E272C20274341525B
:10048000444C495354272C20276578697427002051
:10049000005072652D436C6F7365204F66667365FF
:1004A00074206C6F616465643A2000200050686FAE
:1004B0006E653A200043616C6962726174696F6EA7
:1004C00020466163746F723A200050726963652F31
:1004D0004C203A20547368200043757272656E7424
:1004E00020446174613A0020002000436F6D6D610B
:1004F0006E64733A2027414444434152443A3C6E6F
:10050000616D653E3A3C62616C616E63653E272CAD
:10051000202741444442414C414E43453A3C6E61A0
:100520006D653E3A3C616D6F756E743E272C2027D9
:1005300065786974270020002000436F6E74616342
:10054000743A202B3235353736373833303331393A
:10055000005448414E4B5320464F5220545255535D
:1005600054494E4720536D6172746B656D626F2004
:1005700057617465722056656E64730052657475B8
:10058000726E656420746F20576F726B204D6F64BC
:10059000652E00416C6C2064617461207361766526
:1005A000642100200020002000456E746572202721
:1005B00044454C455445414C4C43415244533A3CCC
:1005C00070617373776F72643E27002000456E740C
:1005D0006572202744454C455445434152443A3CBA
:1005E0006E616D653E27002000456E7465722027A0
:1005F00041444442414C414E43453A3C6E616D6535
:100600003E3A3C616D6F756E743E270020002000FD
:1006100020004F722073656E64206F7468657220CD
:10062000636F6D6D616E64732E00456E74657265E7
:1006300064205365742050686F6E65204D6F64654B
:100640003A2053656E642070686F6E65206E756D1C
:100650006265722028652E672E2C202B32353537A7
:1006600036373833303331392900200020005365C4
:100670006E64206F7468657220636F6D6D616E6467
:10068000732E002000546F74616C2053616C65738D
:10069000206E6F773A205473682000200053616CFD
:1006A0006573207265736574210020002000536516
:1006B0006E64206F7468657220636F6D6D616E6427
:1006C000732E002000546F74616C2053616C65734D
:1006D0003A20547368200020002000456E74657233
:1006E000656420557365722050617373776F72640F
:1006F000204368616E6765204D6F64653A205365DD
:100700006E64206E657720757365722070617373F7
:10071000776F72642028342D3135206368617261EF
:100720006374657273290020002000456E74657241
:1007300065642050617373776F7264204368616EE3
:100740006765204D6F64653A2053656E64206E6561
:10075000772070617373776F72642028342D313580
:1007600020636861726163746572732900200020E0
:10077000004F722073656E64206F74686572206329
:100780006F6D6D616E64732E00456E746572656485
:100790002043616C6663746F72204D6F64653A200C
:1007A00053656E6420666163746F722028652E67DE
:1007B0002E2C20372E352900200020004F72207368
:1007C000656E64206F7468657220636F6D6D616E15
:1007D00064732E00456E746572656420507269639F
:1007E00065206D6F64653A2053656E642070726990
:1007F00063652028652E672E2C2036302E30290088
:10080000200029005D202841534349493A200044F3
:10081000697363617264656420636861723A205B26
:1008200000200053656E642064656661756C7420F9
:100830006F72206E65772070617373776F72642EAC
:100840000050617373776F726420726573657420F2
:10085000746F2064656661756C74210020005061BE
:100860007373776F726420616E64206F776E657248
:10087000206E756D62657220726573657420746F89
:100880002064656661756C742E0053455450524562
:100890003A0043415244544F5055503A0045525249
:1008A0004F523A496E76616C696420416D6F756E86
:1008B00074004552524F523A43617264204E6F7435
:1008C00020466F756E6400436172642044656C65F8
:1008D00074656400535543434553533A436172640E
:1008E0002044656C657465640043617264204E6FDA
:1008F0007420466F756E64004552524F523A436100
:100900007264204E6F7420466F756E6400454550CA
:10091000524F4D20436172647320436C6561726570
:10092000640053455450524943453A00534554439B
:10093000414C3A002000496E76616C696420636F17
:100940006D6D616E64212053656E642027414444BF
:10095000434152443A3C6E616D653E3A3C62616C83
:10096000616E63653E27206F722027657869742762
:100970002E002000456E7465726564204164642019
:1009800043617264204D6F64653A205363616E2049
:100990005246494420636172640020002000456E85
:1009A0007465722027414444434152443A3C6E618D
:1009B0006D653E3A3C62616C616E63653E27206FF7
:1009C0007220276578697427004552524F523A4980
:1009D0006E76616C696420416D6F756E74002000E5
:1009E000456E7465722027414444434152443A3C69
:1009F0006E616D653E3A3C62616C616E63653E2777
:100A0000206F7220276578697427004552524F5233
:100A10003A4E616D6520416C726561647920557351
:100A2000656400456E746572202741444443415219
:100A3000443A3C6E616D653E3A3C62616C616E6346
:100A4000653E27206F72202765786974270045521C
:100A5000524F523A4E616D6520546F6F204C6F6E4D
:100A60006700456E746572202741444443415244F7
:100A70003A3C6E616D653E3A3C62616C616E6365E5
:100A80003E27206F722027657869742700455252EF
:100A90004F523A496E76616C696420466F726D619F
:100AA0007400496E76616C696420636F6D6D616E70
:100AB00064212053656E642027636F6E74696E75C0
:100AC0006527206F72202765786974272E00200023
:100AD0004F722073656E64202765786974272074CF
:100AE0006F2073746F7020616464696E6720636146
:100AF00072647300456E746572202741444443411B
:100B000052443A3C6E616D653E3A3C62616C616E86
:100B100063653E2720746F20636F6E74696E756520
:100B200020616464696E67206120636172640020E3
:100B3000002000496E76616C696420636F6D6D61A1
:100B40006E64212053656E6420202770726963658E
:100B5000272C202773657470686F6E65272C2027FB
:100B600063616C666163746F72272C20276E6577F2
:100B700070617373272C20277573657270617373AE
:100B8000272C202741444443415244272C2027410D
:100B9000444442414C414E4345272C202744454C78
:100BA00045544543415244272C202744454C455445
:100BB00045414C4C4341524453272C20274341523A
:100BC000444C495354272C206F7220276578697450
:100BD000272E002000496E76616C696420636F6D7A
:100BE0006D616E64212053656E64202770726963A5
:100BF00065272C202773657470686F6E65272C201D
:100C00002763616C666163746F72272C202772659D
:100C1000736574272C20276E657770617373272C9A
:100C200020277573657270617373272C20274144E8
:100C30004443415244272C202741444442414C41E3
:100C40004E4345272C202744454C455445434152AB
:100C500044272C202744454C455445414C4C4341A6
:100C6000524453272C2027434152444C4953542784
:100C70002C206F72202765786974272E002000537E
:100C8000656E64206F7468657220636F6D6D616E50
:100C900064732E00557365722070617373776F7281
:100CA00064206368616E67656420616E64207361AF
:100CB0007665642100200020005573657220706104
:100CC0007373776F7264206D75737420626520345E
:100CD00020746F20313520636861726163746572BE
:100CE00073212054727920616761696E2E002000A3
:100CF00053656E64206F7468657220636F6D6D61FB
:100D00006E64732E0050617373776F726420636832
:100D1000616E67656420616E64207361766564212D
:100D2000002000200050617373776F7264206D752E
:100D30007374206265203420746F2031352063681D
:100D400061726163746572732120547279206167E6
:100D500061696E2E00200053656E64206F746865B3
:100D60007220636F6D6D616E64732E0050686F6EDC
:100D700065206E756D6265722073657420616E64A6
:100D80002073617665643A200020002000496E7669
:100D9000616C69642070686F6E65206E756D626548
:100DA0007221204C656E6774682031302D313920F6
:100DB00063686172732C20652E672E2C202B3235D0
:100DC000353736373833303331392C206F72206F56
:100DD0007468657220636F6D6D616E64732E0020A0
:100DE000002000496E76616C69642063616C666105
:100DF00063746F72212053656E642061206E756D7F
:100E0000626572206265747765656E20302E3120D0
:100E1000616E642031302E302C206F72206F746828
:100E2000657220636F6D6D616E64732E0053656E25
:100E300064206F7468657220636F6D6D616E64739A
:100E40002E00200043616C466163746F72207761ED
:100E50007465722073657420616E642073617665B9
:100E6000643A200020002000496E76616C6964209D
:100E7000707269636520706572206C697465722197
:100E80002053656E642061206E756D62657220620C
:100E900065747765656E20302E303120616E642078
:100EA00031303030302E302C206F72206F746865F6
:100EB0007220636F6D6D616E64732E0020002000E0
:100EC00053656E64206F7468657220636F6D6D6129
:100ED0006E64732E00507269636520706572206CB9
:100EE000697465722073657420616E642073617625
:100EF00065643A2054736820002000496E76616C66
:100F0000696420636F6D6D616E64212053656E644A
:100F10002027414444434152443A3C6E616D653E52
:100F20003A3C62616C616E63653E272C2027414428
:100F30004442414C414E43453A3C6E616D653E3AF8
:100F40003C616D6F756E743E272C2027657869743F
:100F5000272E00496E76616C696420636F6D6D6148
:100F60006E64212053656E6420202770726963656A
:100F7000272C202763616C666163746F72272C20B5
:100F80002773657470686F6E65272C202762616C0B
:100F9000616E6365272C20277265736574272C208A
:100FA000276E657770617373272C202775736572C0
:100FB00070617373272C2027414444434152443AC3
:100FC0003C6E616D653E3A3C62616C616E63653E8C
:100FD000272C202741444442414C414E43453A3C52
:100FE0006E616D653E3A3C616D6F756E743E272C87
:100FF000202744454C455445434152443A3C6E6198
:101000006D653E272C202744454C455445414C4CAA
:1010100043415244533A3C70617373776F72643E3C
:10102000272C2027434152444C495354272C202736
:1010300065786974272E002000436F6E74616374B5
:101040003A202B32353537363738333033313900A3
:101050005448414E4B5320464F52205452555354FE
:10106000494E4720536D6172746B656D626F2057F6
:10107000617465722056656E647300526574757292
:101080006E656420746F20576F726B204D6F6465BE
:101090002E00416C6C20646174612073617665641C
:1010A000210020002000556E617574686F72697AA6
:1010B000656420636F6D6D616E6421002000556E64
:1010C000617574686F72697A656420636F6D6D61B4
:1010D0006E642100200020004552524F523A577250
:1010E0006F6E672050617373776F72640020002009
:1010F00000535543434553533A416C6C204361724E
:1011000064732044656C6574656400200045525228
:101110004F523A4F776E657220417574686F7269ED
:101120007A6174696F6E20526571756972656400C9
:101130004552524F523A496E76616C696420466F4F
:10114000726D6174002000456E74657265642041A3
:1011500064642043617264204D6F64653A20536378
:10116000616E205246494420636172640020002071
:10117000004552524F523A496E76616C6964204183
:101180006D6F756E740020004552524F523A4E6199
:101190006D6520416C7265616479205573656400EA
:1011A0004552524F523A4E616D6520546F6F204C3C
:1011B0006F6E670020004552524F523A496E766179
:1011C0006C696420466F726D6174002000556E6119
:1011D0007574686F72697A656420636F6D6D616E96
:1011E0006421002000200053656E64206F746865E0
:1011F0007220636F6D6D616E64732E002000546FFA
:1012000074616C2053616C6573206E6F773A205463
:1012100073682000200053616C65732072657365EC
:101220007421002000556E617574686F72697A656B
:101230006420636F6D6D616E642100200020005397
:10124000656E64206F7468657220636F6D6D616E8A
:1012500064732E002000546F74616C2053616C65C0
:10126000733A2054736820002000556E61757468CD
:101270006F72697A656420636F6D6D616E642100C1
:1012800020002000456E7465726564205573657298
:101290002050617373776F7264204368616E676575
:1012A000204D6F64653A2053656E64206E6577202B
:1012B000757365722070617373776F726420283460
:1012C0002D31352063686172616374657273290022
:1012D0002000556E617574686F72697A6564206369
:1012E0006F6D6D616E64210020002000456E746595
:1012F0007265642050617373776F72642043686114
:101300006E6765204D6F64653A2053656E64206E8C
:1013100065772070617373776F72642028342D3184
:1013200035206368617261637465727329002000FF
:10133000556E617574686F72697A656420636F6D4C
:101340006D616E642100200020004F722073656E75
:1013500064206F7468657220636F6D6D616E647375
:101360002E00456E74657265642053657420506864
:101370006F6E65204D6F64653A2053656E64207012
:10138000686F6E65206E756D6265722028652E67C8
:101390002E2C202B32353537363738333033313930
:1013A00029002000556E617574686F72697A6564F2
:1013B00020636F6D6D616E642100200020004F720C
:1013C0002073656E64206F7468657220636F6D6D45
:1013D000616E64732E00456E7465726564204361AE
:1013E0006C20207761746572204D6F64653A2053DC
:1013F000656E642063616C6962726174696F6E20EE
:10140000666163746F722028652E672E2C20372E3C
:101410003529002000556E617574686F72697A65B0
:101420006420636F6D6D616E642100200020004FA9
:10143000722073656E64206F7468657220636F6DCF
:101440006D616E64732E00456E7465726564205024
:1014500072696365207761746572204D6F64653AC7
:101460002053656E64207072696365207065722018
:101470006C697465722028652E672E2C2036302EFC
:101480003029002000556E617574686F72697A6545
:101490006420636F6D6D616E642100200020004F39
:1014A000722073656E64206F7468657220636F6D5F
:1014B0006D616E64732E00456E74657265642050B4
:1014C00072652D436C6F7365204D6F64653A2053D0
:1014D000656E64206F666673657420696E206C6942
:1014E000746572732028652E672E2C20302E3329C8
:1014F0000020002000496E76616C6964206F66668A
:10150000736574212053656E64206E756D6265721B
:1015100020302E30202D2031302E30206C69746523
:1015200072732C206F72206F7468657220636F6D08
:101530006D616E64732E002000200053656E642080
:101540006F7468657220636F6D6D616E64732E00D9
:10155000206C6974657273005072652D636C6F73D3
:1015600065206F66667365742073657420616E64B0
:101570002073617665643A200020002000496E6384
:101580006F72726563742070617373776F72642118
:101590002054727920616761696E206F72207072C9
:1015A00065737320726573657420666F72203520D1
:1015B0007365636F6E647320746F207265766572F5
:1015C0007420746F2064656661756C74207061733B
:1015D00073776F72642E00200020005573657220AF
:1015E0004D6F6465002000536D6172746B656D62B0
:1015F0006F2057617465722056656E64733A20439C
:101600006F6E746163743A202B3235353736373854
:10161000333033313900200020004F776E6572205F
:101620004D6F6465002000536D6172746B656D626F
:101630006F2057617465722056656E64733A20435B
:101640006F6E746163743A202B3235353736373814
:1016500033303331390020002000436F6E746163F2
:10166000743A202B32353537363738333033313909
:10167000005448414E4B5320464F5220545255532C
:1016800054494E4720536D6172746B656D626F20D3
:1016900057617465722056656E6473005265747587
:1016A000726E656420746F20576F726B204D6F648B
:1016B000652E00426C7565746F6F74682069646C88
:1016C000652074696D656F75742072656163686506
:1016D000642E20416C6C20646174612073617665B6
:1016E00064210052657475726E696E6720746F2094
:1016F000576F726B00426C7565746F6F746820541D
:10170000696D656F7574004C4956453A0043415206
:1017100044434845434B3A00434152445245473ABB
:10172000005363616E205246494420436172640055
:101730005363616E20616E6F7468657220636172BD
:1017400064206F722073656E642027657869742742
:101750000042616C3A2000436172642053617665F7
:10176000643A20005363616E20524649442043612D
:101770007264005363616E20616E6F7468657220DD
:1017800063617264206F722073656E6420276578D0
:10179000697427004361726420457869737473002B
:1017A0004552524F523A4361726420416C726561F6
:1017B000647920457869737473005363616E2052B5
:1017C0004649442043617264005363616E20616E38
:1017D0006F746865722063617264206F7220736534
:1017E0006E642027657869742700456D70747920D0
:1017F000546167004552524F523A456D70747920DA
:10180000546167005363616E6E696E672E2E2E0001
:101810004B5553414A494C49204B4144490057419B
:1018200053494C49414E41204E41204F574E45525D
:10183000004B41444920484149504154494B414E95
:101840004900413A57454B412053414C494F2042B2
:101850003A4F4E444F410053414C494F3A20547344
:101860006820004A494E413A2000494E41414E47C6
:10187000414C4941204B4144492E2E2E00434152B8
:101880004453594E432064656C6574653A200020CA
:1018900062616C616E63653D004341524453594E31
:1018A00043207570736572743A200043415244536B
:1018B000594E433A20454550524F4D20696D656A57
:1018C000616120284D41585F54414753292C2069BC
:1018D0006D657368696E647761206B756F6E67659F
:1018E0007A6100F09F92B320436172642072656157
:1018F0006465722028524649442920494D455A4979
:101900004D574120E28094206D617368696E6520B7
:101910007961207361726166752070656B65652001
:1019200028696D6568696661646869776120454505
:1019300050524F4D2900F09F92B3204361726420B2
:101940007265616465722028524649442920494DD8
:10195000455741534857412028696D65686966615C
:10196000646869776120454550524F4D2900F09FCA
:10197000949220464F52434556414C56453A207664
:10198000616C766520696D6566756E677761202884
:101990006D6D696C696B692900F09F949320464FC7
:1019A00052434556414C56453A2076616C76652047
:1019B000696D6566756E67756C69776120286D6DF8
:1019C000696C696B692C206D616A61726962696F0B
:1019D0002920E280942069746166756E67776120C2
:1019E00079656E79657765206261616461207961EE
:1019F0002073656B756E646520333000F09F94A78B
:101A0000204D41494E54454E414E4345204D4F4493
:101A1000453A204F464620286D6D696C696B6929EF
:101A200020E280942064697370656E73696E67202C
:101A3000696D65727564697368776100F09F94A73A
:101A4000204D41494E54454E414E4345204D4F4453
:101A5000453A204F4E20286D6D696C696B692920CD
:101A6000E280942064697370656E73696E672069A3
:101A70006D6573696D616D697368776100F09F943E
:101A800093204D617368696E6520696D6566756E3A
:101A900067756C697761206E61205375706572207F
:101AA00041646D696E20E280942064697370656E94
:101AB00073696E6720696E617275687573697761A5
:101AC0002074656E612028696D6568696661646867
:101AD00069776120454550524F4D2900F09F9492FF
:101AE000204D415348494E4520494D4546554E47A6
:101AF0005741206E612053757065722041646D6995
:101B00006E20E280942064697370656E73696E67FD
:101B100020696D6573696D616D69736877612028EF
:101B2000696D6568696661646869776120454550DB
:101B3000524F4D29002000200053455454494E4730
:101B4000533A207072652D636C6F7365206D7079E8
:101B500061206B75746F6B61207365727665723A84
:101B6000200053455454494E47533A2063616C69F1
:101B700062726174696F6E206D707961206B75742B
:101B80006F6B61207365727665723A20005345541D
:101B900054494E47533A20626569206D707961203F
:101BA0006B75746F6B61207365727665723A200095
:101BB00000002200250028002B002E0031003400F8
:101BC00002010000050108010B01000020002300B4
:101BD000260029002C002F00320000010000030124
:101BE0000601090100000A0B02090C0D0E0807038B
:101BF00004010000000000000000000000000000E0
:101C000000000000000000000000000000000000D4
:101C10001211100000000000000000000000000091
:101C2000000000000000000000000000210024006F
:101C300027002A002D0030003300010100000401BC
:101C400007010A010102102020080810204010207E
:101C50004080020102010804020101020408102070
:101C6000408080402010080402018004020180406E
:101C700020100804020108040201010204081020D7
:101C80004080010204081020408005050505070575
:101C900008080808020202020A0A080804040404E8
:101CA0000101010101010101030303030303030314
:101CB000040707070C0C0C0C0C0C0C0C02020202A3
:101CC00006060606060606060B0B0B0B0B0B0B0B8C
:101CD0005072652D436C6F7365204F666673657433
:101CE000206C6F616465643A2000F09F92B32043DA
:101CF00061726420726561646572202852464944AD
:101D0000293A20494D455A494D57412028454550CB
:101D1000524F4D2920E28094206D617368696E6591
:101D2000207961207361726166752070656B6565ED
:101D300000F09F92B3204361726420726561646514
:101D400072202852464944293A20494D455741536B
:101D50004857412028454550524F4D2900F09F9447
:101D600092204D617368696E6520696C696B757747
:101D70006120494D4546554E47574120284545501D
:101D8000524F4D2920E2809420696E6162616B6937
:101D900020696D6566756E677761206D70616B6136
:101DA0002053757065722041646D696E20616966AB
:101DB000756E677565003A20456D70747900536CD7
:101DC0006F7420002C2042616C616E63653D002CB5
:101DD000204E616D653D003A205461673D00536CB3
:101DE0006F74200053746F72656420436172647372
:101DF0003A00507269636520706572204C697465A1
:101E00007220004C6F61646564204F776E657220AC
:101E10004E756D6265723A200043616C6962726151
:101E200074696F6E20466163746F723A20002044BB
:101E30002E572E56200044555241424C45205741C2
:101E40005445522056454E440048423A00434F49BB
:101E50004E42414C3A0054584E3A434F494E3A0094
:101E60004B41524942552054454E41004153414E49
:101E700054452053414E41005473683A004C6974F4
:101E8000613A004A554D4C41205941204C4954413A
:101E90003A004A554D4C413A5473682000494E412E
:101EA000544F41204D414A492E2E2E2E2E2E2E00CB
:101EB000576173696C69616E612041646D696E0080
:101EC0004D415348494E4520494D4546554E47578B
:101ED000410054584E3A434152443A004B41524912
:101EE00042552054454E41004153414E54452053E4
:101EF000414E41005473683A004C6974613A004A9B
:101F0000554D4C41205941204C4954413A004A55C5
:101F10004D4C413A5473682000494E41544F412082
:101F20004D414A492E2E2E2E00576173696C69610E
:101F30006E612041646D696E004D415348494E45C4
:101F400020494D4546554E475741005363616E2029
:101F50004B6164692054656E61004D5544412055C4
:101F60004D454953484100413A57454B4120534163
:101F70004C494F20423A4F4E444F410053414C4947
:101F80004F3A2054736820004A494E413A20004D90
:101F900055444120554D45495348410020202020BB
:101FA0002020202020202020202020200053414CD1
:101FB000494F3A2054736820004A494E413A200064
:101FC0004D616A692E2E2E2E2E004C697465723A70
:101FD0002000200053414C494F2048414C49544F68
:101FE0005348490020004B49415349204B49444F35
:101FF000474F2053414E4100413A57454B412053F2
:10200000414C494F20423A4F4E444F410053414CBE
:10201000494F3A2054736820004A494E413A200003
:1020200048414B554E41204B49415349004B616457
:102030006920496D656F6E646F6C65776100423A27
:102040004F4E444F4120202A3A4655544100424FBA
:102050004E59455A412023204B555255485553550A
:102060006000200057454B41204B494153492054C3
:1020700073683A004B61646920496D656F6E646FE7
:102080006C65776100545A533A20004F4E47455AC9
:10209000412053414C494F004C697465723A20000D
:1020A00044697370656E73696E67205761746572F9
:1020B0002028436F696E7329002020200053414C73
:1020C000494F20545A533A2000202020202020201D
:1020D00020202020202020200057454B4120534124
:1020E000524146550057454B41204B41444900570A
:1020F000454B4120534152414655204155005275B0
:1021000064692062616164617965004D4154454EA6
:1021100047454E455A4F00576173696C69616E615E
:102120002041646D696E004D415348494E45204938
:102130004D4546554E4757410048414B554E41206D
:1021400053485547485552490053797374656D207B
:10215000526573657400E28FB120464F5243455675
:10216000414C56453A2076616C766520696D65660E
:10217000756E677761204B494F544F4D4154494B21
:1021800049202873656B756E6465203330207A6949
:102190006D657069746120E28094207573616C6173
:1021A0006D612900D448345B11241FBECFEFD1E20A
:1021B000DEBFCDBF00E00CBF2AE0A8E8B6E001C05A
:1021C0001D92AB31B207E1F716E0A0E0B2E0E2EB1E
:1021D000F9EC00E00BBF02C007900D92A838B107E0
:1021E000D9F710E1C3EDD0E100E006C02197010965
:1021F000802FFE010E945462C23DD10780E0080793
:10220000A9F70E94F3490C94C7640C940000FC01E8
:10221000A089B18982E08C93A485B5851C92A6859E
:10222000B7858FEC8C93108EA489B58986E08C934A
:10223000A289B3898C9180618C93A289B3898C9196
:1022400088608C93A289B3898C9180688C93028872
:10225000F389E02D80818F7D808308958CBD9DBDA5
:1022600008950895089508950895DC01ED91FC9175
:102270000190F081E02D1994EF92FF920F931F933C
:10228000CF93DF938C017B01D0E0C0E0F701EC0F2E
:10229000FD1F6491662361F0D801ED91FC910190DE
:1022A000F081E02DC8011995892B11F02196EECF10
:1022B000CE01DF91CF911F910F91FF90EF90089584
:1022C000AF92BF92CF92DF92EF92FF920F931F9344
:1022D000CF93DF936C017B018B01040F151FEB0182
:1022E0005E01AE18BF08C017D10759F06991D60139
:1022F000ED91FC910190F081E02DC6011995892B9B
:1023000079F7C501DF91CF911F910F91FF90EF9069
:10231000DF90CF90BF90AF900895FC01538D448D16
:10232000252F30E0842F90E0821B930B541710F080
:10233000CF96089501970895FC01918D828D98178D
:1023400061F0A28DAE0FBF2FB11D5D968C91928D65
:102350009F5F9F73928F90E008958FEF9FEF089596
:10236000FC01918D828D981731F0828DE80FF11D5F
:10237000858D90E008958FEF9FEF0895FC01918D7A
:10238000228D892F90E0805C9F4F821B91098F7373
:102390009927089580E298E00E94BE1121E0892BE0
:1023A00009F420E0822F08958DEB98E00E94BE1181
:1023B00021E0892B09F420E0822F0895FC01A48DEF
:1023C000A80FB92FB11DA35ABF4F2C91848D90E057
:1023D00001968F739927848FA689B7892C93A0893A
:1023E000B1898C91837080648C93938D848D9813C4
:1023F00006C00288F389E02D80818F7D8083089557
:10240000EF92FF920F931F93CF93DF93EC0181E044
:10241000888F9B8D8C8D98131AC0E889F9898081EB
:1024200085FF15C09FB7F894EE89FF896083E8891E
:10243000F98980818370806480839FBF81E090E010
:10244000DF91CF911F910F91FF90EF900895F62E9D
:102450000B8D10E00F5F1F4F0F731127E02E8C8D37
:102460008E110CC00FB607FCFACFE889F98980817C
:1024700085FFF5CFCE010E94DE11F1CFEB8DEC0F81
:10248000FD2FF11DE35AFF4FF0829FB7F8940B8F99
:10249000EA89FB8980818062CFCFCF93DF93EC0103
:1024A000888D8823B9F0AA89BB89E889F9898C913C
:1024B00085FD03C0808186FD0DC00FB607FCF7CFF8
:1024C0008C9185FFF2CF808185FFEDCFCE010E94F8
:1024D000DE11E9CFDF91CF91089580E090E0892B64
:1024E00029F00E94D41181110E94000080E090E048
:1024F000892B29F00E94CA1181110E94000080E0FE
:1025000090E0892B49F080E090E0892B29F00E942F
:10251000000081110E94000080E090E0892B49F0CA
:1025200080E090E0892B29F00E94000081110C943A
:10253000000008958150823108F05AC0E82FF0E081
:102540008827EA55FD4E8F4F0C945462C612CA126A
:10255000B812BE12C212F812CD12D312D712DD1267
:10256000E112E512EB12EF12F812F312F912FD125A
:10257000809180008F778093800008958091800003
:102580008F7DF9CF80918000877FF5CF84B58F77DD
:1025900084BD089584B58F7DFBCF8091B0008F7787
:1025A0008093B00008958091B0008F7DF9CF809125
:1025B00090008F77809390000895809190008F7D98
:1025C000F9CF80919000877FF5CF8091A0008F7721
:1025D0008093A00008958091A0008F7DF9CF809115
:1025E000A000877FF5CF809120018F778093200115
:1025F0000895809120018F7DF9CF80912001877F00
:10260000F5CFCF93DF93282F30E0F901EC51F44E52
:102610008491F901EC5BF34ED491F901E657F34E46
:10262000C491CC23A1F081110E949A12EC2FF0E00A
:10263000EE0FFF1FE653F44EA591B491EC91ED23FC
:1026400081E090E009F480E0DF91CF91089580E08F
:1026500090E0FACF862F0C9401131F93CF93DF9352
:10266000282F30E0F901EC51F44E8491F901EC5B34
:10267000F34ED491F901E657F34EC491CC23A9F05F
:10268000162F81110E949A12EC2FF0E0EE0FFF1F1F
:10269000E055F44EA591B4918FB7F894EC911111D7
:1026A00008C0D095DE23DC938FBFDF91CF911F91BF
:1026B0000895DE2BF8CF862F642F0C942D13CF9323
:1026C000DF9390E0FC01EC5BF34E24918657934E30
:1026D000FC0184918823C9F090E0880F991FFC01C8
:1026E000E65DF34EA591B491FC01E055F44EC59121
:1026F000D49161110DC09FB7F8948C9120958223DD
:102700008C938881282328839FBFDF91CF910895E0
:10271000623051F49FB7F8943C91822F80958323C7
:102720008C93E8812E2BEFCF8FB7F894EC912E2B62
:102730002C938FBFEACF862F642F0C945F133FB783
:10274000F8948091650790916607A0916707B09112
:10275000680726B5A89B05C02F3F19F00196A11D5B
:10276000B11D3FBFBA2FA92F982F8827BC01CD01DB
:10277000620F711D811D911D42E0660F771F881F3A
:10278000991F4A95D1F70895CF92DF92EF92FF9269
:102790000F931F930E949F1300918C0610918D063A
:1027A00020918E0630918F066B017C01C01AD10AF0
:1027B000E20AF30A97018601013D17402105310520
:1027C00090F02091ED073091EE072F5F3F4F30934F
:1027D000EE072093ED0760938C0670938D0680932F
:1027E0008E0690938F061F910F91FF90EF90DF90D0
:1027F000CF9008958F929F92AF92BF92CF92DF9227
:10280000EF92FF924B015C010E949F136B017C01D0
:102810000E949F136C197D098E099F09683E7340C1
:1028200081059105A8F321E0821A9108A108B10859
:1028300088EEC80E83E0D81EE11CF11C81149104BF
:10284000A104B10429F7FF90EF90DF90CF90BF90E3
:10285000AF909F908F9008952FB7F8946091610783
:102860007091620780916307909164072FBF08956C
:10287000BC016E5F7F4FDC01ED91FC910190F08116
:10288000E02D40E0199591E0811190E0892F0895A5
:1028900008958EBD00000DB407FEFDCF8EB50895DE
:1028A000DF92EF92FF920F931F93CF93DF937C0100
:1028B000062FD42E152F80E590E00E942E1160E0A7
:1028C000F70186850E942D1382E10E944914CD2DC7
:1028D000D12F0C0F1D2F111DC017D10721F0899189
:1028E0000E944914F9CF61E0F7018685DF91CF910D
:1028F0001F910F91FF90EF90DF900C942D131F9379
:10290000CF93DF93EC01162F80E590E00E942E110B
:1029100060E08E850E942D13812F80680E944914EB
:1029200080E00E944914182F61E08E850E942D13CB
:10293000812FDF91CF911F9108950F931F93CF9314
:10294000DF93EC01062F142F80E590E00E942E11FA
:1029500060E08E850E942D13802F0E944914812FE4
:102960000E94491461E08E85DF91CF911F910F91F4
:102970000C942D13CF9361E0809198090E945F130E
:1029800061E0809198090E942D13809199098F3FF1
:1029900009F46AC060E00E945F13809199090E9467
:1029A0000113892B09F060C061E0809199090E94B0
:1029B0005F1360E0809199090E942D1383E090E0FD
:1029C0000197F1F761E0809199090E942D1362E36C
:1029D00070E080E090E00E94FA1340E064E28AE850
:1029E00099E00E949D1440E066E28AE899E00E9426
:1029F0009D1446E268E48AE899E00E949D1440E84C
:102A000064E58AE899E00E949D1449EA66E58AE84F
:102A100099E00E949D1443E068E58AE899E00E94ED
:102A20009D1448EE6AE58AE899E00E949D1440E40E
:102A30006AE28AE899E00E949D144DE362E28AE826
:102A400099E00E949D1468E28AE899E00E947F1450
:102A5000982F93709330F9F0482F436068E28AE82A
:102A600099E0CF910C949D144FE062E08AE899E0E0
:102A70000E949D14C3E062E370E080E090E00E9459
:102A8000FA1362E08AE899E00E947F1484FFA5CFE0
:102A9000C15089F7A2CFCF910895CF92DF92EF92E4
:102AA000FF920F931F93CF93DF93EC016B01F42EF2
:102AB000890140E062E00E949D1444E06AE0CE019A
:102AC0000E949D1440E864E1CE010E949D14A6017D
:102AD0006F2DCE010E94501443E062E0CE010E94AF
:102AE0009D140E942C146B017C0129E5C20ED11C9F
:102AF000E11CF11C6AE0CE010E947F1482FF1BC022
:102B000040E062E0CE010E949D1464E4CE010E9488
:102B10007F14F801808362E4CE010E947F14F801E3
:102B2000818380E0DF91CF911F910F91FF90EF9013
:102B3000DF90CF9008950E942C146C157D058E05B2
:102B40009F05C0F283E0EECF2F923F924F925F92AB
:102B50006F927F928F929F92AF92CF92DF92EF927D
:102B6000FF920F931F93CF93DF931F921F92CDB7C6
:102B7000DEB74C012B01D42E390180E0E114F104C1
:102B800011F0F70180813C2C329490EF3922380EFD
:102B900040E062E0C4010E949D144FE768E0C40178
:102BA0000E949D1440E864E1C4010E949D14A201AA
:102BB0006D2DC4010E945014432D6AE1C4010E948E
:102BC0009D144CE062E0C4010E949D146AE1C401BE
:102BD0000E947F14482F40686AE1C4010E949D143E
:102BE0000E942C141B012C01F4E22F0E311C411CFD
:102BF000511C68E0C4010E947F14982F907309F063
:102C0000B7C080FF15C083E00F900F90DF91CF9188
:102C10001F910F91FF90EF90DF90CF90AF909F901A
:102C20008F907F906F905F904F903F902F9008957E
:102C30000E942C146215730584059505D0F2E3CF2C
:102C40006114710409F469C00115110509F465C026
:102C500064E1C4010E947F14382EF801808183153D
:102C600008F480C030823320E1F180E590E00E94DA
:102C70002E1160E0F40186850E942D133A9482E9BA
:102C80000E944914CC20B1F08FEF90E09C0102C06B
:102C9000220F331FCA94E2F7690182E90E944914A6
:102CA0009C2D9095F301208192238C21982B908369
:102CB000CC24C39423014C0C511CC31440F482E96E
:102CC0000E944914F20181932F01C394F6CF80E052
:102CD0000E944914F201808361E0F40186850E941C
:102CE0002D1368E1C4010E947F148770E114F10480
:102CF00011F0F701808323FC37C061147104B1F136
:102D00000115110599F1AA2089F1F801408141309E
:102D100031F4843029F58FEF77CF80E0ECCF42306B
:102D2000F8F081111DC042509E012F5F3F4FB3014B
:102D3000C4010E944D15811167CFF8019081690E81
:102D4000711CF301329720819981291309C0F1E0A8
:102D50006F1A7108F30120819A81291709F454CF61
:102D600087E052CF84E050CF82E04ECF80E04CCF5E
:102D70006CE0C4010E947F14282E837109F460CF97
:102D800081E042CF0F931F93CF93DF938C01D62F17
:102D9000C42F0E947F14C0954C2F48236D2FC8016B
:102DA000DF91CF911F910F910C949D148F929F9260
:102DB000AF92CF92EF92FF920F931F93CF93DF9337
:102DC00000D01F921F92CDB7DEB74C0182E08D83F9
:102DD00040E064E2C4010E949D1440E066E2C40148
:102DE0000E949D1446E268E4C4010E949D1486E29C
:102DF0008B838D818230B0F140E86CE1C4010E9488
:102E0000C21687E08C83A12CC12CCE0104967C01D4
:102E10008E010B5F1F4F9E012F5F3F4F41E0BE01B0
:102E20006D5F7F4FC4010E94A415982F811117C0B8
:102E30008D818230B9F48C81811114C081E00F90B2
:102E40000F900F900F900F90DF91CF911F910F91E6
:102E5000FF90EF90CF90AF909F908F90089581E07A
:102E6000923069F380E0EBCF2F923F924F925F92C6
:102E70006F927F928F929F92AF92BF92CF92DF928A
:102E8000EF92FF920F931F93CF93DF93CDB7DEB7EF
:102E90002D970FB6F894DEBF0FBECDBF16E04135BB
:102EA00008F045C1342E4B013C0140E86CE10E9422
:102EB000C21683E98983332029F081E0F4019081EF
:102EC000953008F480E022242394B12C9B2D990F97
:102ED000990F990FD32CD91AD7FCD12C32E0882323
:102EE00019F098E89B8333E021E09D2D977009F459
:102EF00020E09D2D959595959595290FC9F094E025
:102F0000811193E0291708F4922FEB2DF0E0319610
:102F1000E80DF91D232F4191A1E0B0E0AC0FBD1FDA
:102F2000A20FB11D4C932F5F422F431B491798F3FB
:102F3000882311F0F8E0DF0E8FE18D150CF082C0D0
:102F400090E79A838B819C8189279D8189279E8127
:102F500089278F839E01285F3F4F47E0BE016F5F47
:102F60007F4FC3010E944D15182F8111E0C01A86B2
:102F7000E3E0EB87DC86CE0107962C0199E09D8784
:102F8000CA844C2D4295407F4C0D6AE1C3010E94DA
:102F90009D14A12CCE010A967C018E01055F1F4F66
:102FA00092014D85BE016F5F7F4FC3010E94A41542
:102FB000182F823009F065C06CE1C3010E947F14B4
:102FC00085FDB5C08F7109F480E2282F30E04D2DCA
:102FD000DD0C550B421753070CF09DC0D82EE82F7F
:102FE000E595E595E595EF5F982F977081E009F4F9
:102FF00080E0E80F81E090E08C0F9D1F8E0F911D07
:10300000FC01215031092770332781E090E002C094
:10301000880F991F2A95E2F79C018081822B80837B
:103020008BCF85E98983332031F081E0F4019081F1
:10303000983008F04BCF80E049CF87E9898326E0BC
:10304000B22EF9CF9D2D97709A878D2D85958595F8
:1030500085958E5F282F2295207F290F2A8321E0D6
:10306000911101C020E0280F2D8744244394512C56
:103070004C0E5D1E480E511CE9E0E81BEB87DC8618
:103080007FCF811154C080E2D82E9C8590320CF401
:1030900057CF8B81883809F040C083E093E0EB2D57
:1030A000F0E03196E80DF91D980FA1E0B0E0AC0F0B
:1030B000BD1FA80FB11D2C9121938F5F8913F5CFF0
:1030C000BB84E3E0BE124DC08A8581114AC09E01D7
:1030D0002D5F3F4F41E0B201C3010E944D15182FF3
:1030E000811125C09B81F201818198133CC09C8194
:1030F0008281981338C0808182FF12C02394F2E04D
:103100002F1609F48ECF83E0281609F496CF91E0AC
:10311000291609F4CECE15E00AC082E094E0BFCFB4
:10312000F4018387822D880F820D8F5F8083812F2A
:103130002D960FB6F894DEBF0FBECDBFDF91CF91B5
:103140001F910F91FF90EF90DF90CF90BF90AF90C5
:103150009F908F907F906F905F904F903F902F90B7
:10316000089511E0E4CF17E0E2CF2091EF06260F9B
:103170003327331F21323105ECF420913807FC014D
:1031800090E080E0243069F082E00895A091EF069D
:103190002191AC014153594FA40FB52FB11D2C9370
:1031A0000196861798F38091EF06680F6093EF06FB
:1031B00080E0089581E008951092380781E08093BF
:1031C00037071092120761E084E10E942D1361E03D
:1031D00085E10E942D13E9EBF0E080818E7F8083F2
:1031E00080818D7F808388E48093B80085E480931C
:1031F000BC000895CF93DF9391E09093CE0688238F
:10320000B9F0C091B800D091BA008091BC008A7B1F
:103210008093BC0060E084E10E942D1360E085E1B2
:103220000E942D130E94DC18D093BA00C093B800FE
:10323000DF91CF9108950895E09171078091700713
:10324000E81730F4F0E0E255F94F808190E00895FE
:103250008FEF9FEF089590917107809170072FEF86
:103260003FEF981748F4E92FF0E0E255F94F20813D
:1032700030E09F5F90937107C901089580917007B6
:1032800090917107891B990B0895CF92DF92EF926D
:10329000FF920F931F93CF93DF937C01CB018A01A1
:1032A00020913E07222389F0EB016B01C40ED51E4D
:1032B000CC15DD0569F06991D701ED91FC91019084
:1032C000F081E02DC7011995F3CF642F0E94B51846
:1032D000C801DF91CF911F910F91FF90EF90DF9088
:1032E000CF900895CF93DF931F92CDB7DEB7698358
:1032F00020913E072223F9F020916E07203258F0EA
:1033000021E030E0FC013383228390E080E00F90E5
:10331000DF91CF91089580916F07E82FF0E0E15C95
:10332000F84F998190838F5F80936F0780936E072A
:1033300081E090E0ECCF61E0CE0101960E94B518EB
:10334000F7CFCF92DF92EF92FF920F931F93CF931D
:10335000DF93FC01C48121E020933E07C0935F0707
:1033600010926F0710926E078385682B8AE599E0AB
:103370000E947219D0916E07D13208F092C00E945B
:103380009F136B017C0180913807811165C082E039
:103390008093380781E0809337078FEF809336075B
:1033A00010923507D0933407AFE3B7E0E4E1F7E0DC
:1033B00080E0D81385C01092130780911307CC0FBB
:1033C000C82BC093130780911207813009F07CC08D
:1033D000109212070E949F136B017C0180911307CA
:1033E0008093BB0080913A0790913B07A0913C07E6
:1033F000B0913D07892B8A2B8B2B99F00E949F134C
:1034000000913A0710913B0720913C0730913D070E
:103410006C197D098E099F090617170728073907B8
:10342000E0F18091BC0083FDD9CF85EC8093BC0096
:103430000E949F136B017C0180913807823009F450
:1034400045C0809136078F3F61F180913607803209
:1034500041F18091360725C080913A0790913B0752
:10346000A0913C07B0913D07892B8A2B8B2B09F447
:103470008ACF0E949F1300913A0710913B07209139
:103480003C0730913D076C197D098E099F0906178D
:1034900017072807390708F076CF809139070E946F
:1034A000FA1810926F0710926E0710923E07DF9184
:1034B000CF911F910F91FF90EF90DF90CF900895E3
:1034C0009D9191938F5F75CF85EEB0CF80913A0734
:1034D00090913B07A0913C07B0913D07892B8A2B27
:1034E0008B2B09F4A9CF0E949F1300913A071091EA
:1034F0003B0720913C0730913D076C197D098E09EF
:103500009F09061717072807390708F095CFC5CF79
:1035100088E08093140A60E089E09AE00C94A11995
:1035200090E080E00895CF92DF92EF92FF92809139
:103530001A08811157C080911908811153C00E9447
:103540009F136B017C018091880690918906A09160
:103550008A06B0918B06A7019601281B390B4A0BEE
:103560005B0BDA01C9018135934CA105B105D0F19E
:1035700060910608709107088091080890910908E9
:1035800020E030E048E452E40E94076160930608BE
:1035900070930708809308089093090860910608C3
:1035A0007091070880910808909109080E94E561D0
:1035B00060930A0870930B0880930C0890930D0891
:1035C0000E942C14609310087093110880931208C5
:1035D00090931308C0928806D0928906E0928A06DA
:1035E000F0928B06FF90EF90DF90CF9008950F93AD
:1035F0001F93CF938C01C62F0E94A1196C2F64607A
:10360000C8010E94A1196C2F6B7FC8010E94A119EB
:1036100083EC90E00197F1F7CF911F910F910895FE
:103620000F931F93CF93DF938C01D62FC42F607F0E
:10363000642B0E94F71A80E1D89FB00111246C2BF3
:10364000C801DF91CF911F910F910C94F71ACF937E
:10365000DF9300D000D01F921F92CDB7DEB798E065
:10366000ECE7F2E0DE01119601900D929A95E1F7F8
:103670009091110A961710F46FEF690F262F30E022
:10368000220F331F41E050E04C0F5D1F240F351F08
:10369000F9016081680F606840E089E09AE028964F
:1036A0000FB6F894DEBF0FBECDBFDF91CF910C9463
:1036B000101B40E061E089E09AE00E94101B8BE360
:1036C0009FE10197F1F7089541E00E94101B81E00E
:1036D00090E00895CF93DF93FC0124813581232B63
:1036E00071F0C081D1816AE370E0CE010E948F64E5
:1036F000009729F08C1B9D0BDF91CF9108958FEFE0
:103700009FEFFACFCF92DF92EF92FF920F931F932A
:10371000CF93DF93EB017B0123E2E20EF11C8B01DF
:103720006C01C61AD70AC601800F911F0E94D6608D
:10373000F80181938F01EE15FF05A9F7CE01DF9106
:10374000CF911F910F91FF90EF90DF90CF90089550
:10375000EF92FF920F931F93CF93DF93CDB7DEB716
:10376000A3970FB6F894DEBF0FBECDBF84E4E82E5A
:10377000F12C10E000E0BE016F5F7F4FC7010E9497
:10378000821B8981882351F00F5F1F4F83E2E80E6F
:10379000F11C0233110579F70FEF1FEFC801A39653
:1037A0000FB6F894DEBF0FBECDBFDF91CF911F9152
:1037B0000F91FF90EF900895CF92DF92EF92FF92DA
:1037C0000F931F93CF93DF93EB017B0120E1E20E78
:1037D000F11C8B016C01C61AD70AC601800F911F1C
:1037E0000E94D660F80181938F01EE15FF05A9F7BD
:1037F000CE01DF91CF911F910F91FF90EF90DF905D
:10380000CF900895CF92DF92EF92FF920F931F9384
:10381000CF93DF93EB017B0124E0E20EF11C8B01DF
:103820006C01C61AD70AC601800F911F0E94D6608C
:10383000F80181938F01EE15FF05A9F7CE01DF9105
:10384000CF911F910F91FF90EF90DF90CF9008954F
:10385000FB0101900020E9F73197AF01461B570BA0
:10386000DC01ED91FC910280F381E02D19948F929F
:103870009F92AF92BF92EF92FF920F931F93CF93BD
:10388000DF93CDB7DEB7A1970FB6F894DEBF0FBEBA
:10389000CDBF7C01FA01CB0119A2223008F42AE045
:1038A0008E010F5D1F4F822E912CB12CA12CBF01D8
:1038B000A50194010E943262F901CA016A300CF537
:1038C000605DD8016E938D01232B242B252B79F776
:1038D00090E080E0109721F0BD01C7010E94281CF4
:1038E000A1960FB6F894DEBF0FBECDBFDF91CF918A
:1038F0001F910F91FF90EF90BF90AF909F908F908E
:103900000895695CDECFCF92DF92EF92FF92CF9362
:10391000DF93AB01BC0177FF1DC06A017C016DE242
:103920008DEB98E00E943511EC0144275527BA0130
:103930004C195D096E097F092AE08DEB98E00E9421
:10394000371C8C0F9D1FDF91CF91FF90EF90DF9080
:10395000CF9008952AE08DEB98E0DF91CF91FF9012
:10396000EF90DF90CF900C94371C2F923F924F92A4
:103970005F926F927F928F929F92AF92BF92CF92FF
:10398000DF92EF92FF921F93CF93DF93EC016A01D6
:103990007B01722EAB019601CB01B6010E94196228
:1039A00068EC72E0811126C046015701E894B7F82F
:1039B0002FEF3FEF4FE75FE7C501B4010E941962A7
:1039C00081110CC02FEF3FEF4FE75FE7C501B40156
:1039D0000E94AF5F6CEC72E0181664F02FEF3FEFBF
:1039E0004FE75FE4C701B6010E9414621816B4F4F1
:1039F00060ED72E0CE01DF91CF911F91FF90EF90CB
:103A0000DF90CF90BF90AF909F908F907F906F90FE
:103A10005F904F903F902F900C94281C2FEF3FEF1A
:103A20004FE75FECC701B6010E94AF5F87FDE0CFB3
:103A300020E030E0A901C701B6010E94AF5F312C40
:103A4000212C87FF09C06DE2CE010E9435111C01B7
:103A5000F7FAF094F7F8F09410E060E070E080E09E
:103A60009FE3711641F020E030E040E251E40E9413
:103A700073611F5FF6CFA70196010E9407612B01BA
:103A80003C010E94E5614B015C012AE0BC01A401FC
:103A9000CE010E94371C7C01E20CF31C1123C1F102
:103AA000C501B4010E94B45F9B01AC01C301B20126
:103AB0000E9406614B015C016EE2CE010E9435114D
:103AC000E80EF91E115020F120E030E040E251E410
:103AD000C501B4010E9415602B013C010E94E56103
:103AE0004B01B12CA12C2AE0B501A401CE010E940A
:103AF000371CE80EF91EC501B4010E94B45F9B019A
:103B0000AC01C301B2010E9406614B015C01DACF36
:103B1000C701DF91CF911F91FF90EF90DF90CF9081
:103B2000BF90AF909F908F907F906F905F904F90DD
:103B30003F902F9008950F931F93CF93DF93EC0145
:103B40000E94B51C8C0164ED72E0CE010E94281C1D
:103B5000800F911FDF91CF911F910F9108950C94C9
:103B6000B51C0F931F93CF93DF93EC010E94281C89
:103B70008C0164ED72E0CE010E94281C800F911F21
:103B8000DF91CF911F910F9108950F931F93CF93C2
:103B9000DF93EC01FB0144815581608171810E94BA
:103BA00060118C0164ED72E0CE010E94281C800F30
:103BB000911FDF91CF911F910F9108950F931F9344
:103BC000CF93DF93EC010E943C118C0164ED72E015
:103BD000CE010E94281C800F911FDF91CF911F9171
:103BE0000F91089566E375E080E298E00E943C1131
:103BF0006BEE74E080E298E00E94DE1D69EE74E0F6
:103C000080E298E00C943C1167EE74E080E298E06A
:103C10000E943C1169ED74E080E298E00E94DE1D94
:103C20006AEC74E080E298E00E943C114091480206
:103C30005091490260914A0270914B0222E030E0BB
:103C400080E298E00E949B1D65EB74E080E298E0C2
:103C50000E943C1140914202509143026091440203
:103C60007091450222E030E080E298E00E949B1DC6
:103C70006DEA74E080E298E00E943C1160E272E03C
:103C800080E298E00E94B11D6BEA74E080E298E067
:103C90000E943C1161E974E080E298E00E943C11CE
:103CA000409138025091390260913A0270913B0282
:103CB00022E030E080E298E00E949B1D6FE874E013
:103CC00080E298E00E943C116DEA73E080E298E0A7
:103CD0000E94DE1D6BEA73E080E298E00C943C11D8
:103CE0000C94281CFC0180819181009711F00C94A8
:103CF0006A5B60E070E0CB010895FC0180819181F6
:103D0000009711F00C946E5B60E070E0CB010895B9
:103D1000AF92BF92CF92DF92EF92FF920F931F93D9
:103D2000CF93DF93DC01CD90DC901197C114D104C7
:103D300039F01496CD91DC918C017601209761F4D5
:103D4000DF91CF911F910F91FF90EF90DF90CF9077
:103D5000BF90AF90089575015701BFEFAB1ABB0A32
:103D6000F7018081082E000C990B0E947E5F892B41
:103D700091F72197CC0DDD1D8881082E000C990B41
:103D80000E947E5F892B29F0CE15DF0510F0219768
:103D9000F3CFAE014F5F5F4F4E195F09D801159603
:103DA0005C934E931497CE14DF0420F4B701C60140
:103DB0000E948664D801ED91FC91119714968D9123
:103DC0009C91E80FF91F1082BBCFCF93DF93FC01CA
:103DD000C081D181209761F08991882349F0082E14
:103DE000000C990B0E947E64FE0131978083F4CF12
:103DF000DF91CF910895FB0144815581FC0124811D
:103E000035812417350778F080819181009759F02A
:103E1000FB01608171816115710529F00E94AA641E
:103E200021E0892B09F020E0822F0895CF92DF92C4
:103E3000EF92FF920F931F93CF93DF93CDB7DEB72F
:103E4000A3970FB6F894DEBF0FBECDBF6C0184E41C
:103E5000E82EF12C10E000E0BE016F5F7F4FC7013C
:103E60000E94821B4EE050E0B601CE0101960E94F6
:103E7000AA64892B19F4898181110AC00F5F1F4F31
:103E800083E2E80EF11C0233110531F70FEF1FEF4B
:103E9000C801A3960FB6F894DEBF0FBECDBFDF9169
:103EA000CF911F910F91FF90EF90DF90CF900895E9
:103EB000FC0124813581232B39F421E0FB01808131
:103EC000882349F020E007C0808191810E949A6494
:103ED00021E0892BB9F7822F0895FC0124813581D7
:103EE000FB014481558124173507E1F4FC018081F1
:103EF0009181FB01608171810097D1F0611571059D
:103F0000A1F4232BC1F0FC01808190E008C0232B99
:103F100091F0FB01808190E091958195910921E0DC
:103F2000892B09F020E0822F08950E949A64F7CF30
:103F30006115710561F721E0F6CF0F931F93CF93C1
:103F4000DF938C01EB01FC01808191810097E1F00E
:103F50006881798161157105A9F0428153812C81B5
:103F60003D814217530770F00E94A3648C819D81AC
:103F7000F801958384831D821C82DF91CF911F916C
:103F80000F9108950E940C6388819981F8019183B3
:103F900080838A819B81938382838C819D81958399
:103FA0008483198218821B821A82E5CFCF93DF9314
:103FB000EC0188819981009711F00E940C631982AD
:103FC00018821D821C821B821A82DF91CF91089574
:103FD000FC0180819181009711F00C940C6308958D
:103FE0000F931F93CF93DF93EC0188819981009702
:103FF00059F02A813B812617370730F081E0DF91A5
:10400000CF911F910F9108958B016F5F7F4F0E9499
:104010009563009759F0998388831B830A832C81C9
:104020003D81232B59F7FC011082E8CF80E0E7CFD8
:10403000EF92FF920F931F93CF93DF93611571055A
:1040400041F480E0DF91CF911F910F91FF90EF90AD
:10405000089541155105B1F07B01EC010C811D81E2
:10406000040F151FB8010E94F01F882351F3288107
:1040700039818C819D81B701820F931F0E94A364B7
:104080001D830C8381E0DECFCF93DF93EC016115BC
:10409000710539F4CE010E94D61FCE01DF91CF9178
:1040A0000895FB0101900020E9F73197AF01461B0D
:1040B000570B0E941820882369F3EFCFCF93DF932B
:1040C000EC01FB0144815581608171810E941820BF
:1040D000811103C0CE010E94D61FCE01DF91CF9186
:1040E0000895CF93DF931F921F92CDB7DEB76983F8
:1040F0001A8241E050E0BE016F5F7F4F0E9418209E
:104100000F900F90DF91CF910895EF92FF920F9350
:104110001F93CF93DF93EC017B018A01BA010E94C8
:10412000F01F81110BC0CE010E94D61FCE01DF917E
:10413000CF911F910F91FF90EF9008951D830C83F5
:10414000B701888199810E94A364F0CFFB0101909F
:104150000020E9F73197AF01461B570B0C948520DF
:104160000F931F93CF93DF93CDB7DEB762970FB650
:10417000F894DEBF0FBECDBF8C01CB01F8011182D8
:10418000108213821282158214824AE0BE016F5F90
:104190007F4F0E94955BBE016F5F7F4FC8010E94F9
:1041A000A62062960FB6F894DEBF0FBECDBFDF919A
:1041B000CF911F910F910895EF92FF920F931F934C
:1041C000CF93DF93CDB7DEB7A1970FB6F894DEBFDC
:1041D0000FBECDBF7C01CB01BA01F7011182108265
:1041E00013821282158214828E010F5F1F4F22E00C
:1041F00044E00E944C5B009789F0BC01C7010E941B
:10420000A620A1960FB6F894DEBF0FBECDBFDF91FA
:10421000CF911F910F91FF90EF900895C7010E94D9
:10422000D61FEFCFCF93DF93EC01FB0186179707E3
:1042300049F0608171816115710541F044815581BA
:104240000E948520CE01DF91CF9108950E94D61F54
:10425000F9CFFC011182108213821282158214821E
:104260000C941221FC011182108213821282158299
:104270001482FB0101900020E9F73197AF01461B42
:10428000570B0C948520AF92BF92CF92DF92EF92A2
:10429000FF920F931F93CF93DF936C015B017A0121
:1042A00089012417350720F48F2D7901042F182F49
:1042B00066ED72E0C6010E943221D5011496CD91BF
:1042C000DC91EC16FD06E0F40C171D0708F4E8017C
:1042D000D501ED91FC911197EC0FFD1F108110821B
:1042E0006D917C916E0D7F1DC60161157105A1F068
:1042F0000E94A620F50180819181C80FD91F1883E3
:10430000C601DF91CF911F910F91FF90EF90DF9049
:10431000CF90BF90AF9008950E94D61FEBCFEF9241
:10432000FF920F931F93CF93DF93EC018A01FB0160
:104330008481958130E020E0B0E0A0E050E040E0F2
:104340008217930758F18217930771F4A017B107EA
:1043500001F5CE010E944321CE01DF91CF911F9143
:104360000F91FF90EF9008952817390740F4FB0153
:10437000E080F180F701E20FF31FEF2821F41092A3
:104380001F08EFE1F8E0E081EA3301F32F5F3F4FD0
:10439000D7CFA9014F5F5F4F1196F8CF66ED72E05E
:1043A000CE010E943221D8CFCF93DF93EC01FB01E5
:1043B000248135810E944321CE01DF91CF91089560
:1043C00085ED8093BC0080913A0790913B07A091C6
:1043D0003C07B0913D070796A11DB11D23E0B6959E
:1043E000A795979587952A95D1F72091BC0024FD34
:1043F00003C010923807089540913A0750913B0747
:1044000060913C0770913D07452B462B472B69F384
:104410000097A105B10541F02AE22A95F1F700C005
:104420000197A109B109E1CF809139070C94FA18DD
:104430000F931F93CF93DF9300E212E0C8E0D0E028
:10444000F80161918F01CE010E94DE602196CC318E
:10445000D105B1F76AE173E08DEB98E00E943C1161
:1044600060E272E08DEB98E0DF91CF911F910F91A8
:104470000C94B11DFF920F931F93CF93DF93EC0128
:10448000F62E08811981C8010E94D660F81621F025
:104490006F2DC8010E94DE60CE01DF91CF911F9188
:1044A0000F91FF900895AF92BF92CF92DF92EF925B
:1044B000FF920F931F93CF93DF931F921F92CDB75D
:1044C000DEB78B016B0123E2C20ED11C7B015C01C4
:1044D000A61AB70AC5018E0D9F1D9A838983F7011D
:1044E00061917F01CE0101960E943A22EC14FD04F5
:1044F00089F7C8010F900F90DF91CF911F910F9115
:10450000FF90EF90DF90CF90BF90AF900895AF9263
:10451000BF92CF92DF92EF92FF920F931F93CF93B0
:10452000DF931F921F92CDB7DEB78B016B0120E1A5
:10453000C20ED11C7B015C01A61AB70AC5018E0D03
:104540009F1D9A838983F70161917F01CE010196B6
:104550000E943A22EC14FD0489F7C8010F900F90D5
:10456000DF91CF911F910F91FF90EF90DF90CF904F
:10457000BF90AF900895CF93DF93CDB7DEB760972C
:104580000FB6F894DEBF0FBECDBF60E072E080E3EF
:1045900090E00E948722BE016F5F7F4F80E390E032
:1045A0000E94DC1B60E072E0CE0101960E949A64DA
:1045B000892B61F068EF72E08DEB98E00E94B11DED
:1045C00060E072E080E390E00E94872260960FB680
:1045D000F894DEBF0FBECDBFDF91CF910895CF938A
:1045E000DF93CDB7DEB760970FB6F894DEBF0FBE8E
:1045F000CDBF60E172E08CE190E00E948722BE01B5
:104600006F5F7F4F8CE190E00E94DC1B60E172E005
:10461000CE0101960E949A64892B61F06AE273E0F0
:104620008DEB98E00E94B11D60E172E08CE190E0BA
:104630000E94872260960FB6F894DEBF0FBECDBFF2
:10464000DF91CF910895AF92BF92CF92DF92EF9218
:10465000FF920F931F93CF93DF931F921F92CDB7BB
:10466000DEB78B016B0124E0C20ED11C7B015C0123
:10467000A61AB70AC5018E0D9F1D9A838983F7017B
:1046800061917F01CE0101960E943A22EC14FD0453
:1046900089F7C8010F900F90DF91CF911F910F9173
:1046A000FF90EF90DF90CF90BF90AF900895CF93A1
:1046B000DF9300D01F92CDB7DEB768E472E08CE2E2
:1046C00090E00E942323BE016F5F7F4F8CE290E059
:1046D0000E94021C209148023091490240914A02F6
:1046E00050914B0269817A818B819C810E94066185
:1046F0009F772AE037ED43E25CE30E9414621816CC
:1047000064F46AE673E08DEB98E00E94DE1D68E4D5
:1047100072E08CE290E00E9423230F900F900F90A4
:104720000F90DF91CF910895CF93DF9300D01F9228
:10473000CDB7DEB762E472E084E090E00E9423230C
:10474000BE016F5F7F4F84E090E00E94021C2091C9
:1047500042023091430240914402509145026981E6
:104760007A818B819C810E9406619F772AE037EDD8
:1047700043E25CE30E941462181664F46FE273E093
:104780008DEB98E00E94DE1D62E472E084E090E030
:104790000E9423230F900F900F900F90DF91CF91E5
:1047A0000895CF93DF9300D01F92CDB7DEB766EBAD
:1047B00077E090E080E00E942323BE016F5F7F4F8F
:1047C00090E080E00E94021C2091B6073091B7076C
:1047D0004091B8075091B90769817A818B819C819A
:1047E0000E9406619F772AE037ED43E25CE30E9476
:1047F0001462181664F46AEE72E08DEB98E00E9481
:10480000DE1D66EB77E090E080E00E9423230F90AE
:104810000F900F900F90DF91CF9108950E94D123B8
:104820000E9494230E9457230E9418220E94EF2284
:104830000C94BB221F93CF93DF9310910E0811119C
:1048400005C020910508222309F46BC1EC016EE537
:1048500073E00E94581F811107C064E673E0CE0127
:104860000E94581F882379F1112309F45AC181E06D
:104870008093A20661E088E00E942D1368EC70E04E
:1048800080E090E00E94FA1360E088E00E942D131F
:1048900060E078E080E298E00E943C1164ED77E00F
:1048A00080E298E00E94DE1D6CEB77E080E298E009
:1048B0000E94DE1D6AEB77E080E298E0DF91CF9105
:1048C0001F910C943C116AE673E0CE010E94581FC0
:1048D000811139C064E773E0CE010E94581F811135
:1048E00032C06EE773E0CE010E94581F811154C0A0
:1048F00066E873E0CE010E94581F882309F46FC058
:10490000112309F40EC181E080939F0661E088E0E5
:104910000E942D1368EC70E080E090E00E94FA1392
:1049200060E088E00E942D1367E277E080E298E083
:104930000E943C116BED76E080E298E00E94DE1D63
:1049400069ED76E0B9CF112309F4EBC081E08093E3
:10495000A10661E088E00E942D1368EC70E080E021
:1049600090E00E94FA1360E088E00E942D1368EB4B
:1049700077E080E298E00E943C1169E877E080E20D
:1049800098E00E94DE1D61E777E080E298E00E94F7
:10499000DE1D6FE677E090CF112309F4C2C081E0FD
:1049A0008093A00661E088E00E942D1368EC70E01F
:1049B00080E090E00E94FA1360E088E00E942D13EE
:1049C0006DE677E080E298E00E943C116BE277E0D0
:1049D00080E298E00E94DE1D69E277E06DCF6FE82B
:1049E00073E0CE010E94581F8823E9F1112309F4D6
:1049F00098C081E080939E0661E088E00E942D13BC
:104A000068EC70E080E090E00E94FA1360E088E0DB
:104A10000E942D1367ED76E080E298E00E943C1141
:104A200065EC76E080E298E00E943C114091B60788
:104A30005091B7076091B8077091B90722E030E054
:104A400080E298E00E949B1D63EC76E080E298E0B3
:104A50000E943C116EEA76E080E298E00E94DE1D42
:104A60006CEA76E029CF67E973E0CE010E94581F17
:104A7000882309F45AC0112309F453C01092B607D1
:104A80001092B7071092B8071092B9070E94D1236D
:104A900061E088E00E942D1368EC70E080E090E017
:104AA0000E94FA1360E088E00E942D136AEA76E023
:104AB00080E298E00E943C116DE976E080E298E0A7
:104AC0000E94DE1D6BE976E080E298E00E943C11D6
:104AD00065E876E080E298E00E943C114091B607DC
:104AE0005091B7076091B8077091B90722E030E0A4
:104AF00080E298E00E949B1D63E876E080E298E007
:104B00000E943C116EE676E080E298E00E94DE1D95
:104B10006CE676E080E298E00E943C1181E08093B0
:104B20009D06DF91CF911F9108956DE973E0CE014D
:104B30000E94581F811123C066EA73E0CE010E94D3
:104B4000581F81111CC06FEA73E0CE010E94581FEC
:104B500081113DC068ED73E0CE010E94581F88238B
:104B600009F44FC06CE076E080E298E00E943C11CE
:104B700069EE75E080E298E00E94DE1D34C01123EA
:104B800081F281E080939C0661E088E00E942D1311
:104B900068EC70E080E090E00E94FA1360E088E04A
:104BA0000E942D136AE676E080E298E00E943C11B4
:104BB0006AE276E080E298E00E94DE1D62E176E043
:104BC00080E298E00E94DE1D60E176E075CE6EE046
:104BD00076E080E298E00E943C1167EB73E080E2AF
:104BE00098E00E94B11D80910E08882329F0DF9182
:104BF000CF911F910C94041EDF91CF911F910C94C3
:104C0000F21D63EE73E0CE010E94581F8823C1F0AD
:104C100067EE75E080E298E00E943C116DEC75E073
:104C200080E298E00E94DE1D80910E08882329F022
:104C30000E94041E6BEC75E03FCE0E94F21DFACF7D
:104C40006EEE73E0CE010E94581F882371F011238D
:104C500009F467CF69EA75E080E298E00E94DE1D02
:104C60000E94041E67EA75E027CE6DEF73E0CE0167
:104C70000E94581F882341F0112309F452CF0E944B
:104C8000AB4765EA75E018CE66E074E0CE010E949D
:104C9000581F811108C06BE074E0CE010E94581FBC
:104CA000882309F43ECF0E940E2461E088E00E9430
:104CB0002D1368EC70E080E090E00E94FA1360E051
:104CC00088E00E942D1310920E0810920508109291
:104CD00004081092A2061092A1061092A00610924B
:104CE0009F0610929E0610929D0610929C061092AE
:104CF000AC061092AD061092A7060E94881A63EACD
:104D000075E080E298E00E943C1163E975E080E282
:104D100098E00E94DE1D6CE775E080E298E00E945A
:104D2000DE1D61E575E080E298E00E94DE1D6AE329
:104D300075E080E298E00E94DE1D68E375E0BCCD7E
:104D400068E372E080E490E00E94232361ED72E06A
:104D50008DEB98E00E943C1140913802509139024D
:104D600060913A0270913B0223E030E08DEB98E0D5
:104D70000C949B1D6F927F928F929F92AF92BF92E5
:104D8000CF92DF92EF92FF920F931F93CF93DF9317
:104D9000CDB7DEB7C158D1090FB6F894DEBF0FBE4C
:104DA000CDBF80910E08811104C080910508882331
:104DB00049F08091AD06811105C08091AC06882331
:104DC00009F4D4C10E942C140091A8061091A906E0
:104DD0002091AA063091AB06601B710B820B930BDE
:104DE000683C71058105910508F4C0C10E94BA14A0
:104DF0006AE070E080E090E00E94FA138AE899E0AF
:104E00000E94D616882309F4A7C18AE899E00E9477
:104E10003814882309F4A0C166ED72E0CE018458ED
:104E20009F4F0E94322110E080918C09181740F5A5
:104E3000E12FF0E0E657F64F83811DA21CA21FA2CE
:104E40001EA219A618A640E1BE016F5F7F4F90E039
:104E50000E94B55BBE016F5F7F4FCE0184960E94BA
:104E6000A62048A559A56CA17DA1CE0184589F4FCD
:104E70000E941820CE0184960E94E81F1F5FD4CFA5
:104E8000CE0184589F4F0E94E51E0E942C1460930F
:104E90001008709311088093120890931308809162
:104EA000AD06882309F476C28091AC06882309F404
:104EB00071C2BE0164587F4FCE018A589F4F0E9435
:104EC0002921EC968EAD9FADEC971DA21CA21FA2CE
:104ED0001EA219A618A64AE0BE016F5F7F4F0E946E
:104EE000B55BBE016F5F7F4FCE0184960E94A62006
:104EF00060E174E0CE0101960E943221BE016A5841
:104F00007F4FCE0101960E945E2066E274E00E940F
:104F10004420BE016C5D7F4F0E945E20BC018DEB82
:104F200098E00E94C51DCE0101960E94E81FCE01A7
:104F300084960E94E81F60E374E0CE0101960E940F
:104F40003221BE016A587F4FCE0101960E945E2039
:104F5000BC0180E298E00E94C51DCE0101960E942E
:104F6000E81F0E94591B60E080E00E94271B64E05C
:104F700078E189E09AE00E943C11EC968EAD9FADFD
:104F8000EC97892B71F564EF77E180E298E00E945D
:104F9000DE1D60E080E00E94271B6AEE77E189E079
:104FA0009AE00E943C1160ED77E080E090E00E9482
:104FB000FA131092AD0681E08093A70669EC77E1C1
:104FC00080E298E00E94DE1D0E94591B60E080E0B4
:104FD0000E94271B6AEB77E189E09AE00E943C116E
:104FE00084C0E8966EAD7FADE8974EE050E0CE010C
:104FF00084960E94B8641AAACE0184960E94161F55
:10500000019651F160EA77E180E298E00E94DE1DAE
:1050100060E080E00E94271B64E977E189E09AE084
:105020000E943C1160ED77E080E090E00E94FA136E
:105030001092AD0681E08093A70663E777E180E2F6
:1050400098E00E94DE1D0E94591B60E080E00E94F3
:10505000271B64E677E1C0CF0E94A81B8C010F3F9D
:10506000100709F09CC062E370E0CE0101960E9437
:10507000B0206BE474E0CE01895B9F4F0E94322127
:10508000BE016F5F7F4FCE01895B9F4F0E945E2004
:1050900064E674E00E944420BC0180E298E00E9433
:1050A000C51DCE01895B9F4F0E94E81FCE0101966E
:1050B0000E94E81F1092AC061092AD061092A7064F
:1050C00066ED72E088E799E00E94A6201092A306A0
:1050D0001092A4061092A5061092A60680910E08C2
:1050E000882309F459C00E94041ECE018A589F4F9C
:1050F0000E94E81F80E5AB968FAFAB97AC961FAED2
:10510000AC972AE630E02C0F3D1F2E5F3F4F42E068
:10511000BE0166597F4F8AE899E00E944D158111C2
:1051200010C0A12CC12CF12CE12C10E000E030E0EB
:1051300020E044E0BE0166597F4F8AE899E00E9472
:10514000A41548E060E18AE899E00E94C216CE0109
:1051500084589F4F0E94E81F0E942C146093A80659
:105160007093A9068093AA069093AB06CF57DF4FA2
:105170000FB6F894DEBF0FBECDBFDF91CF911F9168
:105180000F91FF90EF90DF90CF90BF90AF909F90E6
:105190008F907F906F9008950E94F21DA6CF60912E
:1051A0007809709179094FE050E0CE01C3960E94D2
:1051B000B86423961FAE23978091A3069091A4060E
:1051C000A091A506B091A60627968CAF9DAFAEAF75
:1051D000BFAF279783E2FE01B496DE0111960190DE
:1051E0000D928A95E1F723E2209FC001219F900D47
:1051F0001124BE016F5F7F4F8C5B9F4F0E94532233
:105200002796CCACDDACEEACFFAC279768E177E13C
:105210008DEB98E00E943C11BE016C5D7F4F8DEBE1
:1052200098E00E94701E6AE38DEB98E00E943511B1
:10523000BE016D5C7F4F8DEB98E00E94701E6AE3AB
:105240008DEB98E00E94351122E030E0B701A60115
:105250008DEB98E00E949B1D61E088E00E942D1379
:1052600068EC70E080E090E00E94FA1360E088E073
:105270000E942D1327964CAD5DAD6EAD7FAD279787
:10528000CE01895B9F4F0E94DC20BE016D5C7F4F89
:10529000CE0186599F4F0E9432216CE674E0CE0108
:1052A00080599F4F0E943221BE0166597F4FCE0127
:1052B00080599F4F0E945E2066E874E00E9444205F
:1052C000BE01695B7F4F0E945E20BC0180E298E0D6
:1052D0000E94C51DCE0180599F4F0E94E81FCE013C
:1052E00086599F4F0E94E81FCE01895B9F4F0E9405
:1052F000E81F0E94591B60E080E00E94271B67E5C1
:1053000077E189E09AE00E943C11BE016D5C7F4F1D
:1053100089E09AE00E94701E61E080E00E94271BF5
:1053200061E577E189E09AE00E943C1127964CAD57
:105330005DAD6EAD7FAD279722E030E089E09AE069
:105340000E94AF1D60ED77E080E090E00E94FA13CC
:105350001092AD0681E08093A70666ED72E088E7C3
:1053600099E00E94A6201092A3061092A406109223
:10537000A5061092A60660E377E180E298E00E941D
:10538000DE1D0E94591B60E080E00E94271B61E245
:1053900077E122CEEE966EAD7FADEE974EE050E017
:1053A00080EC97E00E94B8641092CE070E94591BCF
:1053B00060E080E00E94271B6AE678E189E09AE0DD
:1053C0000E943C1166ED72E0CE018A589F4F0E9408
:1053D0003221BE0164587F4FCE0180599F4F0E94F9
:1053E00029216DE077E18DEB98E00E943C11BE0130
:1053F00060597F4F8DEB98E00E94C51D66ED72E00D
:10540000CE0186599F4F0E9432210E942C144B01DD
:105410005C010E942C14681979098A099B09683B70
:105420007B408105910508F0E2C1A8958DEB98E0DD
:105430000E94BE11892B69F38DEB98E00E949C11AC
:105440008A3019F08D3009F0C3C1E0968EAD9FAD62
:10545000E097892BF1F261E974E0CE0101960E9498
:105460003221BE016F5F7F4FCE0186599F4F0E9450
:10547000FB1E182FCE0101960E94E81F112309F48C
:105480006FC147E050E0BE0166597F4FCE01895B96
:105490009F4F0E94D421CE01895B9F4F0E946A1BBF
:1054A0006C017C018FEFE81AF80A2D968EAD9FAD46
:1054B0002D97E816F90608F046C129966EAC7FAC28
:1054C00029976AE370E0C3018E0D9F1D0E948F64CF
:1054D000009709F438C18C01061917091C141D0422
:1054E0000CF031C1101611060CF02DC1960150E0E0
:1054F00040E0BE01695B7F4FCE0184960E9443214C
:10550000CE0184960E94E51EBE0160597F4FCE01F8
:1055100084960E946D1F882309F411C19801A70188
:10552000BE01695B7F4FCE0101960E944321CE01EF
:1055300001960E94721E6B017C01CE0101960E94B1
:10554000E81FA8014F5F5F4FBE01695B7F4FCE012F
:1055500001960E94D421BE016F5F7F4FCE018A5811
:105560009F4F0E949D1FCE0101960E94E81FCE0111
:1055700084960E94E81FCE01895B9F4F0E94E81F1E
:1055800010E000E0CE0186599F4F0E94E81FCE0137
:1055900080599F4F0E94E81F0115110509F02DC188
:1055A00080EC97E00E94161F8C01019689F50E94FD
:1055B000A81B8C010F3F100759F58AE197E00E9464
:1055C000D6608CA38BE197E00E94D6608DA38CA15E
:1055D0009DA1C29710F01DA21CA20CA11DA1C80183
:1055E000019662E370E00E941E62B92E2AE137E064
:1055F0003A832983682FCE0101960E943A228BE1DB
:1056000097E09A8389836B2DCE0101960E943A22FE
:10561000E8966EAD7FADE8974FE050E08FEC97E0F5
:105620000E94B8641092DE07C092DF07D092E007B4
:10563000E092E107F092E20783E2E0ECF7E0DE01BE
:10564000A95BBF4F01900D928A95E1F723E2209F5D
:10565000C001219F900D1124BE01695B7F4F8C5BBF
:105660009F4F0E945322109347020093460261E02D
:1056700088E00E942D136AEF70E080E090E00E94C5
:10568000FA1360E088E00E942D130E94591B60E02D
:1056900080E00E94271B63E678E189E09AE00E949F
:1056A0003C116FEC77E089E09AE00E94701E61E0A7
:1056B00080E00E94271B67E578E189E09AE00E947C
:1056C0003C114091DF075091E0076091E107709134
:1056D000E20722E030E089E09AE00E94AF1D63E03B
:1056E00080E00E94271B62E478E189E09AE00E9452
:1056F0003C1181E0809303088093E8071092E7074C
:1057000066ED72E082E799E00E94A6200E942C14C8
:105710006093E9077093EA078093EB079093EC0797
:1057200061E088E00E942D136AEF70E080E090E075
:105730000E94FA1360E088E00E942D13D6CCCE01BF
:1057400084960E94E81FCE01895B9F4F0E94E81F4C
:1057500066ED72E0CE0186599F4F0E94A62059CE79
:1057600069E974E0CE0101960E943221BE016F5FAB
:105770007F4FCE0186599F4F0E94FB1E182FCE01EE
:1057800001960E94E81F112319F347E050E0BE0183
:1057900066597F4FCE0101960E94D421CE01019619
:1057A0000E94E51EBE0160597F4FCE0101960E9406
:1057B0006D1F882351F0CE0101960E94E81FC12C75
:1057C000D12C760101E010E0DDCECE010196BECFF6
:1057D000E0962EAD3FADE0972639310508F019CEA1
:1057E000682FCE0186599F4F0E94712012CEC12C86
:1057F000D12C760102E010E0C5CE0230110511F582
:1058000080EC97E00E94161F909347028093460217
:105810008F3F9807B9F013E2189F9001199F300D40
:105820001124BE016C5D7F4FC9018C5B9F4F0E94AC
:10583000821BFE01B496A0ECB7E001900D921A9580
:10584000E1F715CF0E94591B60E080E00E94271B02
:1058500061E378E189E09AE00E943C1161E080E038
:105860000E94271B6EE178E189E09AE00E943C11DA
:1058700062E080E00E94271B60E178E189E09AE025
:105880000E943C1163E080E00E94271B60E272E00E
:1058900089E09AE00E94701E61E088E00E942D136A
:1058A00064EF71E080E090E00E94FA1360E088E02D
:1058B0000E942D1360ED77E080E090E00E94FA13E3
:1058C0000E94591B12CC8F929F92AF92BF92CF929F
:1058D000DF92EF92FF920F931F93CF93DF93CDB799
:1058E000DEB7C05BD1090FB6F894DEBF0FBECDBFE7
:1058F00080E298E00E94BE11892B51F00E942C1486
:105900006093100870931108809312089093130805
:1059100080910E08811105C080910508882309F443
:10592000ADC080910F088111A9C00E942C14009174
:105930001008109111082091120830911308601B73
:10594000710B820B930B603C744D8140910508F400
:1059500095C00E940E2461E088E00E942D1368EC3F
:1059600070E080E090E00E94FA1360E088E00E941E
:105970002D1310920E081092050810920408109230
:10598000A2061092A1061092A00610929F061092F5
:105990009E0610929D0610929C061092AC061092E4
:1059A000AD061092A7060E94881A0E94591B60E05B
:1059B00080E00E94271B65EF76E189E09AE00E9473
:1059C0003C1161E080E00E94271B63EE76E189E0F4
:1059D0009AE00E943C1163EB76E180E298E00E943D
:1059E000DE1D6CE976E180E298E00E94DE1D61E751
:1059F00076E180E298E00E94DE1D6AE576E180E2D1
:105A000098E00E94DE1D68E576E180E298E00E9461
:105A10003C1166ED72E08EE799E00E94A62010929C
:105A20009B0610929A0680E298E00E94BE11892B94
:105A300009F4FEC080E298E00E949C11182F6FE0EC
:105A400078E08DEB98E00E943C11612F8DEB98E09F
:105A50000E94351164E078E08DEB98E00E943C11E3
:105A6000612F110F770B880B990B0E94831C62E04A
:105A700078E08DEB98E00E94DE1DD5CF0E94BA261B
:105A800084E00E940113892B09F048C18091990696
:105A90008111ECC00E942C146093950670939606B9
:105AA00080939706909398060E942C146093100898
:105AB00070931108809312089093130881E08093EB
:105AC00099060E942C140091910610919206209143
:105AD000930630919406601B710B820B930B6A3016
