:100000000C94CD100C94BD450C9492450C9467450E
:100010000C943C450C9411450C94E6440C94BB4460
:100020000C9490440C94FE100C94FE100C94FE1052
:100030000C94FE100C94FE100C94FE100C94FE1008
:100040000C94FE100C94FE100C94FE100C94FE10F8
:100050000C94FE100C94FE100C94FE100C9446446C
:100060000C94FE100C9410440C94E6430C94FE1077
:100070000C94FE100C94FE100C94FE100C94FE10C8
:100080000C94FE100C94FE100C94FE100C94FE10B8
:100090000C94B0430C9486430C94FE100C94E845E9
:1000A0000C94FE100C94FE100C94FE100C94FE1098
:1000B0000C94FE100C94FE100C94FE100C94FE1088
:1000C0000C94FE100C94FE100C94FE100C94FE1078
:1000D0000C94FE100C94FE100C94FE100C94FE1068
:1000E0000C94FE100C94C6120C94891A0C94A9114D
:1000F0000C9446120C94985B0C94BB120C94174908
:100100000C94F2120C9495110C9454130C94141931
:100110000C9437190C94BF120C94DA120C94B7118A
:100120000C94C3120C9431140C94B7120C943E1915
:100130000C94DE120C94BD130C94B1120C942B1180
:100140000C94E4120C942D170C946B190C94CF168C
:100150000C94EC120C94F1120C94D0120C94941395
:100160000C94E8120C948C1A0C9423130C94F61231
:100170000C942A110C942D110C94F9110C9424193F
:100180000C94D6120C94CC120C942C110C945D1B74
:100190000C9486110C9415190C9459114E414E492A
:1001A0004E495459494E46CDCCCC3D0AD7233C1735
:1001B000B7D13877CC2B329595E6241FB14F0A0082
:1001C0000020410000C84200401C4620BCBE4CCA72
:1001D0001B0E5AAEC59D7400407A10F35A00A072EF
:1001E0004E18090010A5D4E80000E8764817000072
:1001F000E40B54020000CA9A3B000000E1F5050040
:100200000080969800000040420F000000A0860188
:10021000000000102700000000E803000000006458
:1002200000000000000A00000000000100000000C3
:10023000002C76D888DC674F0823DFC1DFAE59E198
:10024000B1B796E5E3E453C63AE651997696E8E607
:10025000C28426EB898C9B62ED407C6FFCEFBC9CDA
:100260009F40F2BAA56FA5F490055A2AF75C936BEC
:100270006CF9676DC11BFCE0E40D47FEF520E6B5A7
:1002800000D0ED902E0300943577050080841E0881
:100290000000204E0A000000C80C333333330F989F
:1002A0006E12831141EF8D2114893BE65516CFFE66
:1002B000E6DB18D1844B381BF77C1D901DA4BBE4F2
:1002C00024203284725E228100C9F124ECA1E53D34
:1002D000275072652D436C6F7365204F666673659A
:1002E000742073617665643A2000454550524F4D45
:1002F000207772697465206661696C656420666F39
:100300007220746F74616C436F696E732120526543
:10031000747279696E672E2E2E00536176656420A3
:100320004F776E6572204E756D6265723A2000459A
:100330004550524F4D207772697465206661696C33
:10034000656420666F7220666C6F7743616C6962CA
:10035000726174696F6E466163746F7221205265B9
:10036000747279696E672E2E2E00454550524F4D9E
:10037000207772697465206661696C656420666FB8
:10038000722070726963655065724C697465722180
:10039000205265747279696E672E2E2E0053544F69
:1003A0005245445F43415244533A002000436F6D2D
:1003B0006D616E64733A20277072696365272C2023
:1003C0002763616C666163746F72272C20277072DB
:1003D00065636C6F7365272C202773657470686F75
:1003E0006E65272C202762616C616E6365272C2067
:1003F000277265736574272C20276E65777061738B
:1004000073272C20277573657270617373272C20F6
:1004100027414444434152443A3C6E616D653E3A43
:100420003C62616C616E63653E272C202741444429
:1004300042414C414E43453A3C6E616D653E3A3C0B
:10044000616D6F756E743E272C202744454C4554D2
:1004500045434152443A3C6E616D653E272C20274E
:1004600044454C455445414C4C43415244533A3C1D
:1004700070617373776F72643E272C20274341525B
:10048000444C495354272C20276578697427002051
:10049000005072652D436C6F7365204F66667365FF
:1004A00074206C6F616465643A2000200050686FAE
:1004B0006E653A200043616C6962726174696F6EA7
:1004C00020466163746F723A200050726963652F31
:1004D0004C203A20547368200043757272656E7424
:1004E00020446174613A0020002000436F6D6D610B
:1004F0006E64733A2027414444434152443A3C6E6F
:10050000616D653E3A3C62616C616E63653E272CAD
:10051000202741444442414C414E43453A3C6E61A0
:100520006D653E3A3C616D6F756E743E272C2027D9
:1005300065786974270020002000436F6E74616342
:10054000743A202B3235353736373833303331393A
:10055000005448414E4B5320464F5220545255535D
:1005600054494E472044757261626C65205761742E
:1005700065722056656E64730052657475726E659F
:100580006420746F20576F726B204D6F64652E006E
:10059000416C6C2064617461207361766564210034
:1005A000200020002000456E746572202744454CD1
:1005B000455445414C4C43415244533A3C7061735D
:1005C00073776F72643E27002000456E7465722059
:1005D0002744454C455445434152443A3C6E616D75
:1005E000653E27002000456E746572202741444413
:1005F00042414C414E43453A3C6E616D653E3A3C4A
:10060000616D6F756E743E27002000200020004F42
:10061000722073656E64206F7468657220636F6DFD
:100620006D616E64732E00456E746572656420534F
:1006300065742050686F6E65204D6F64653A205375
:10064000656E642070686F6E65206E756D62657290
:100650002028652E672E2C202B323535373637383B
:10066000333033313929002000200053656E642077
:100670006F7468657220636F6D6D616E64732E00B8
:100680002000546F74616C2053616C6573206E6F31
:10069000773A205473682000200053616C65732002
:1006A000726573657421002000200053656E64201C
:1006B0006F7468657220636F6D6D616E64732E0078
:1006C0002000546F74616C2053616C65733A205440
:1006D0007368200020002000456E746572656420F8
:1006E000557365722050617373776F72642043682D
:1006F000616E6765204D6F64653A2053656E6420B6
:100700006E657720757365722070617373776F7291
:10071000642028342D31352063686172616374650B
:100720007273290020002000456E74657265642094
:1007300050617373776F7264204368616E676520E0
:100740004D6F64653A2053656E64206E6577207046
:10075000617373776F72642028342D31352063689C
:1007600061726163746572732900200020004F720A
:100770002073656E64206F7468657220636F6D6DA1
:10078000616E64732E00456E74657265642043610A
:100790006C6663746F72204D6F64653A2053656EAA
:1007A0006420666163746F722028652E672E2C208A
:1007B000372E352900200020004F722073656E64AB
:1007C000206F7468657220636F6D6D616E64732E47
:1007D00000456E7465726564205072696365206DB2
:1007E0006F64653A2053656E64207072696365209A
:1007F00028652E672E2C2036302E30290020002927
:10080000005D202841534349493A200044697363FD
:10081000617264656420636861723A205B00200045
:1008200053656E642064656661756C74206F722018
:100830006E65772070617373776F72642E005061FC
:100840007373776F726420726573657420746F20A0
:1008500064656661756C7421002000506173737764
:100860006F726420616E64206F776E6572206E75A2
:100870006D62657220726573657420746F206465A3
:100880006661756C742E005345545052453A0043CE
:10089000415244544F5055503A004552524F523AEB
:1008A000496E76616C696420416D6F756E740045A8
:1008B00052524F523A43617264204E6F7420466F19
:1008C000756E6400436172642044656C6574656490
:1008D00000535543434553533A4361726420446582
:1008E0006C657465640043617264204E6F742046C9
:1008F0006F756E64004552524F523A4361726420E4
:100900004E6F7420466F756E6400454550524F4DD2
:1009100020436172647320436C65617265640053A7
:10092000455450524943453A0053455443414C3A8B
:10093000002000496E76616C696420636F6D6D61A3
:100940006E64212053656E64202741444443415224
:10095000443A3C6E616D653E3A3C62616C616E6327
:10096000653E27206F72202765786974272E002046
:1009700000456E7465726564204164642043617251
:1009800064204D6F64653A205363616E205246497E
:100990004420636172640020002000456E7465721B
:1009A0002027414444434152443A3C6E616D653EC8
:1009B0003A3C62616C616E63653E27206F7220274E
:1009C0006578697427004552524F523A496E7661F4
:1009D0006C696420416D6F756E74002000456E7403
:1009E00065722027414444434152443A3C6E616D54
:1009F000653E3A3C62616C616E63653E27206F72B2
:100A000020276578697427004552524F523A4E614B
:100A10006D6520416C726561647920557365640071
:100A2000456E7465722027414444434152443A3C28
:100A30006E616D653E3A3C62616C616E63653E2736
:100A4000206F7220276578697427004552524F52F3
:100A50003A4E616D6520546F6F204C6F6E67004594
:100A60006E7465722027414444434152443A3C6EBF
:100A7000616D653E3A3C62616C616E63653E272044
:100A80006F7220276578697427004552524F523A99
:100A9000496E76616C696420466F726D61740049BD
:100AA0006E76616C696420636F6D6D616E64212088
:100AB00053656E642027636F6E74696E75652720B9
:100AC0006F72202765786974272E0020004F7220EE
:100AD00073656E642027657869742720746F2073AE
:100AE000746F7020616464696E67206361726473FF
:100AF00000456E7465722027414444434152443A94
:100B00003C6E616D653E3A3C62616C616E63653E50
:100B10002720746F20636F6E74696E756520616441
:100B200064696E67206120636172640020002000A8
:100B3000496E76616C696420636F6D6D616E6421CE
:100B40002053656E642020277072696365272C200E
:100B50002773657470686F6E65272C202763616C3E
:100B6000666163746F72272C20276E6577706173DE
:100B700073272C20277573657270617373272C207F
:100B80002741444443415244272C202741444442B6
:100B9000414C414E4345272C202744454C45544564
:100BA00043415244272C202744454C455445414C51
:100BB0004C4341524453272C2027434152444C4933
:100BC0005354272C206F72202765786974272E00D4
:100BD0002000496E76616C696420636F6D6D616E93
:100BE00064212053656E6420277072696365272C29
:100BF000202773657470686F6E65272C20276361EA
:100C00006C666163746F72272C202772657365743C
:100C1000272C20276E657770617373272C2027752A
:100C200073657270617373272C20274144444341DC
:100C30005244272C202741444442414C414E4345D5
:100C4000272C202744454C45544543415244272CEA
:100C5000202744454C455445414C4C434152445354
:100C6000272C2027434152444C495354272C206FB2
:100C700072202765786974272E00200053656E6402
:100C8000206F7468657220636F6D6D616E64732E82
:100C900000557365722070617373776F726420639F
:100CA00068616E67656420616E6420736176656457
:100CB00021002000200055736572207061737377E6
:100CC0006F7264206D757374206265203420746FB8
:100CD000203135206368617261637465727321200D
:100CE00054727920616761696E2E00200053656E31
:100CF00064206F7468657220636F6D6D616E6473DC
:100D00002E0050617373776F7264206368616E6741
:100D1000656420616E642073617665642100200043
:100D2000200050617373776F7264206D7573742047
:100D30006265203420746F203135206368617261F0
:100D40006374657273212054727920616761696EE2
:100D50002E00200053656E64206F746865722063F6
:100D60006F6D6D616E64732E0050686F6E65206EDE
:100D7000756D6265722073657420616E64207361A5
:100D80007665643A200020002000496E76616C6927
:100D9000642070686F6E65206E756D6265722120CB
:100DA0004C656E6774682031302D3139206368617D
:100DB00072732C20652E672E2C202B32353537365A
:100DC000373833303331392C206F72206F746865B7
:100DD0007220636F6D6D616E64732E0020002000C1
:100DE000496E76616C69642063616C666163746FDF
:100DF00072212053656E642061206E756D6265728C
:100E0000206265747765656E20302E3120616E64D6
:100E10002031302E302C206F72206F746865722064
:100E2000636F6D6D616E64732E0053656E64206F29
:100E30007468657220636F6D6D616E64732E00203F
:100E40000043616C466163746F72207761746572F0
:100E50002073657420616E642073617665643A2046
:100E60000020002000496E76616C69642070726910
:100E7000636520706572206C69746572212053650A
:100E80006E642061206E756D626572206265747794
:100E900065656E20302E303120616E642031303037
:100EA00030302E302C206F72206F74686572206392
:100EB0006F6D6D616E64732E002000200053656EAF
:100EC00064206F7468657220636F6D6D616E64730A
:100ED0002E00507269636520706572206C697465BC
:100EE000722073657420616E642073617665643A64
:100EF0002054736820002000496E76616C6964207C
:100F0000636F6D6D616E64212053656E64202741AF
:100F10004444434152443A3C6E616D653E3A3C6202
:100F2000616C616E63653E272C2027414444424139
:100F30004C414E43453A3C6E616D653E3A3C616DB5
:100F40006F756E743E272C202765786974272E00F4
:100F5000496E76616C696420636F6D6D616E6421AA
:100F60002053656E642020277072696365272C20EA
:100F70002763616C666163746F72272C2027736529
:100F80007470686F6E65272C202762616C616E63D8
:100F900065272C20277265736574272C20276E65C2
:100FA0007770617373272C20277573657270617376
:100FB00073272C2027414444434152443A3C6E61FC
:100FC0006D653E3A3C62616C616E63653E272C2024
:100FD0002741444442414C414E43453A3C6E616D89
:100FE000653E3A3C616D6F756E743E272C20274438
:100FF000454C455445434152443A3C6E616D653E13
:10100000272C202744454C455445414C4C434152E4
:1010100044533A3C70617373776F72643E272C209F
:1010200027434152444C495354272C202765786963
:1010300074272E002000436F6E746163743A202B76
:10104000323535373637383330333139005448414B
:101050004E4B5320464F52205452555354494E47FD
:101060002044757261626C65205761746572205608
:10107000656E64730052657475726E656420746F7A
:1010800020576F726B204D6F64652E00416C6C2091
:101090006461746120736176656421002000200022
:1010A000556E617574686F72697A656420636F6DDF
:1010B0006D616E6421002000556E617574686F72F9
:1010C000697A656420636F6D6D616E642100200034
:1010D00020004552524F523A57726F6E672050614E
:1010E0007373776F726400200020005355434345AB
:1010F00053533A416C6C2043617264732044656CB5
:10110000657465640020004552524F523A4F776E25
:10111000657220417574686F72697A6174696F6E67
:10112000205265717569726564004552524F523A9A
:10113000496E76616C696420466F726D617400203F
:1011400000456E7465726564204164642043617279
:1011500064204D6F64653A205363616E20524649A6
:1011600044206361726400200020004552524F52B7
:101170003A496E76616C696420416D6F756E7400DA
:1011800020004552524F523A4E616D6520416C72BB
:10119000656164792055736564004552524F523A37
:1011A0004E616D6520546F6F204C6F6E670020009C
:1011B0004552524F523A496E76616C696420466FCF
:1011C000726D6174002000556E617574686F72698C
:1011D0007A656420636F6D6D616E6421002000206C
:1011E0000053656E64206F7468657220636F6D6D67
:1011F000616E64732E002000546F74616C20536123
:101200006C6573206E6F773A20547368200020005D
:1012100053616C65732072657365742100200055FD
:101220006E617574686F72697A656420636F6D6D45
:10123000616E6421002000200053656E64206F748D
:1012400068657220636F6D6D616E64732E0020009F
:10125000546F74616C2053616C65733A20547368E9
:1012600020002000556E617574686F72697A65643C
:1012700020636F6D6D616E64210020002000456E5B
:10128000746572656420557365722050617373775D
:101290006F7264204368616E6765204D6F64653AC4
:1012A0002053656E64206E657720757365722070BB
:1012B000617373776F72642028342D313520636831
:1012C000617261637465727329002000556E6175E7
:1012D00074686F72697A656420636F6D6D616E64A6
:1012E000210020002000456E746572656420506105
:1012F0007373776F7264204368616E6765204D6F0A
:1013000064653A2053656E64206E65772070617362
:1013100073776F72642028342D31352063686172D1
:1013200061637465727329002000556E617574687D
:101330006F72697A656420636F6D6D616E64210000
:10134000200020004F722073656E64206F74686502
:101350007220636F6D6D616E64732E00456E7465EF
:10136000726564205365742050686F6E65204D6F00
:1013700064653A2053656E642070686F6E65206EF8
:10138000756D6265722028652E672E2C202B3235F4
:101390003537363738333033313929002000556E30
:1013A000617574686F72697A656420636F6D6D61D1
:1013B0006E642100200020004F722073656E64204F
:1013C0006F7468657220636F6D6D616E64732E005B
:1013D000456E74657265642043616C20207761748A
:1013E0006572204D6F64653A2053656E64206361B9
:1013F0006C6962726174696F6E20666163746F728A
:101400002028652E672E2C20372E352900200055E8
:101410006E617574686F72697A656420636F6D6D53
:10142000616E642100200020004F722073656E649D
:10143000206F7468657220636F6D6D616E64732ECA
:1014400000456E746572656420507269636520772B
:1014500061746572204D6F64653A2053656E642037
:10146000707269636520706572206C6974657220A2
:1014700028652E672E2C2036302E3029002000556E
:101480006E617574686F72697A656420636F6D6DE3
:10149000616E642100200020004F722073656E642D
:1014A000206F7468657220636F6D6D616E64732E5A
:1014B00000456E7465726564205072652D436C6FD3
:1014C0007365204D6F64653A2053656E64206F66C6
:1014D0006673657420696E206C6974657273202868
:1014E000652E672E2C20302E332900200020004945
:1014F0006E76616C6964206F666673657421205333
:10150000656E64206E756D62657220302E30202D00
:101510002031302E30206C69746572732C206F720C
:10152000206F7468657220636F6D6D616E64732ED9
:10153000002000200053656E64206F74686572207F
:10154000636F6D6D616E64732E00206C69746572DB
:1015500073005072652D636C6F7365206F666673E0
:1015600065742073657420616E64207361766564B0
:101570003A200020002000496E636F727265637428
:101580002070617373776F726421205472792061C7
:101590006761696E206F7220707265737320726567
:1015A00073657420666F722035207365636F6E6497
:1015B0007320746F2072657665727420746F206476
:1015C000656661756C742070617373776F72642ED9
:1015D000002000200055736572204D6F6465002067
:1015E0000044757261626C652057617465722056A3
:1015F000656E64733A20436F6E746163743A202B96
:101600003235353736373833303331390020002022
:10161000004F776E6572204D6F6465002000447541
:101620007261626C652057617465722056656E64E4
:10163000733A20436F6E746163743A202B323535F0
:101640003736373833303331390020002000436FCC
:101650006E746163743A202B323535373637383340
:1016600030333139005448414E4B5320464F5220BD
:101670005452555354494E472044757261626C650B
:101680002057617465722056656E647300526574EC
:1016900075726E656420746F20576F726B204D6F8A
:1016A00064652E00426C7565746F6F7468206964A0
:1016B0006C652074696D656F75742072656163680F
:1016C00065642E20416C6C206461746120736176C6
:1016D0006564210052657475726E696E6720746F5F
:1016E00020576F726B00426C7565746F6F74682061
:1016F00054696D656F7574004C4956453A00434115
:101700005244434845434B3A0043415244524547B3
:101710003A005363616E205246494420436172642B
:10172000005363616E20616E6F746865722063613F
:101730007264206F722073656E6420276578697407
:10174000270042616C3A2000436172642053617645
:1017500065643A20005363616E2052464944204339
:10176000617264005363616E20616E6F74686572AC
:101770002063617264206F722073656E6420276538
:1017800078697427004361726420457869737473C3
:10179000004552524F523A4361726420416C726567
:1017A00061647920457869737473005363616E20B6
:1017B000524649442043617264005363616E206164
:1017C0006E6F746865722063617264206F7220733B
:1017D000656E642027657869742700456D7074799B
:1017E00020546167004552524F523A456D707479EA
:1017F00020546167005363616E6E696E672E2E2EF2
:10180000004B5553414A494C49204B4144490057EC
:101810004153494C49414E41204E41204F574E457E
:1018200052004B41444920484149504154494B41A1
:101830004E4900413A57454B412053414C494F20B6
:10184000423A4F4E444F410053414C494F3A205485
:10185000736820004A494E413A2000494E41414EAA
:1018600047414C4941204B4144492E2E2E004341D3
:10187000524453594E432064656C6574653A2000A8
:101880002062616C616E63653D004341524453596F
:101890004E43207570736572743A20004341524480
:1018A00053594E433A20454550524F4D20696D657E
:1018B0006A616120284D41585F54414753292C20CB
:1018C000696D657368696E647761206B756F6E67AB
:1018D000657A6100F09F92B3204361726420726563
:1018E000616465722028524649442920494D455A71
:1018F000494D574120E28094206D617368696E659F
:10190000207961207361726166752070656B656511
:101910002028696D6568696661646869776120453A
:101920004550524F4D2900F09F92B320436172649D
:101930002072656164657220285246494429204915
:101940004D455741534857412028696D6568696680
:1019500061646869776120454550524F4D2900F018
:101960009F949220464F52434556414C56453A204B
:1019700076616C766520696D6566756E6777612046
:10198000286D6D696C696B692900F09F94932046FE
:101990004F52434556414C56453A2076616C766528
:1019A00020696D6566756E67756C69776120286D55
:1019B0006D696C696B692C206D616A61726962691D
:1019C0006F2920E280942069746166756E67776183
:1019D0002079656E7965776520626161646120793F
:1019E000612073656B756E646520333000F09F94E1
:1019F000A7204D41494E54454E414E4345204D4F41
:101A000044453A204F464620286D6D696C696B69E4
:101A10002920E280942064697370656E73696E6733
:101A200020696D65727564697368776100F09F94D1
:101A3000A7204D41494E54454E414E4345204D4F00
:101A400044453A204F4E20286D6D696C696B6929B9
:101A500020E280942064697370656E73696E6720FC
:101A6000696D6573696D616D697368776100F09F79
:101A70009493204D617368696E6520696D65667524
:101A80006E67756C697761206E6120537570657241
:101A90002041646D696E20E28094206469737065F2
:101AA0006E73696E6720696E6172756875736977A8
:101AB000612074656E612028696D6568696661647E
:101AC0006869776120454550524F4D2900F09F9439
:101AD00092204D415348494E4520494D4546554E6B
:101AE000475741206E612053757065722041646DC7
:101AF000696E20E280942064697370656E73696E0C
:101B00006720696D6573696D616D697368776120C0
:101B100028696D6568696661646869776120454513
:101B200050524F4D29002000200053455454494E37
:101B300047533A207072652D636C6F7365206D702A
:101B40007961206B75746F6B612073657276657255
:101B50003A200053455454494E47533A2063616C30
:101B60006962726174696F6E206D707961206B7546
:101B7000746F6B61207365727665723A200053450D
:101B80005454494E47533A20626569206D7079611B
:101B9000206B75746F6B61207365727665723A2085
:101BA0000000002200250028002B002E0031003408
:101BB0000002010000050108010B010000200023C4
:101BC00000260029002C002F003200000100000335
:101BD000010601090100000A0B02090C0D0E08079D
:101BE00003040100000000000000000000000000ED
:101BF00000000000000000000000000000000000E5
:101C000000121110000000000000000000000000A1
:101C1000000000000000000000000000002100247F
:101C20000027002A002D00300033000101000004CD
:101C30000107010A010102102020080810204010AD
:101C40002040800201020108040201010204081080
:101C5000204080804020100804020180040201809E
:101C600040201008040201080402010102040810C7
:101C7000204080010204081020408005050505076A
:101C80000508080808020202020A0A0808040404F7
:101C90000401010101010101010303030303030323
:101CA00003040707070C0C0C0C0C0C0C0C020202B2
:101CB0000206060606060606060B0B0B0B0B0B0BA5
:101CC0000B5072652D436C6F7365204F66667365AC
:101CD00074206C6F616465643A2000F09F92B320B9
:101CE00043617264207265616465722028524649BE
:101CF00044293A20494D455A494D574120284545E8
:101D000050524F4D2920E28094206D617368696EB6
:101D100065207961207361726166752070656B65FD
:101D20006500F09F92B32043617264207265616424
:101D30006572202852464944293A20494D45574169
:101D4000534857412028454550524F4D2900F09F98
:101D50009492204D617368696E6520696C696B753A
:101D6000776120494D4546554E4757412028454506
:101D700050524F4D2920E2809420696E6162616B60
:101D80006920696D6566756E677761206D70616B3E
:101D9000612053757065722041646D696E206169C0
:101DA00066756E677565003A20456D7074790053ED
:101DB0006C6F7420002C2042616C616E63653D0085
:101DC0002C204E616D653D003A205461673D005303
:101DD0006C6F74200053746F726564204361726489
:101DE000733A00507269636520706572204C6974A3
:101DF000657220004C6F61646564204F776E657278
:101E0000204E756D6265723A200043616C696272A2
:101E10006174696F6E20466163746F723A200020AE
:101E2000442E572E56200044555241424C452057CF
:101E3000415445522056454E440048423A00434FD3
:101E4000494E42414C3A0054584E3A434F494E3A5B
:101E5000004B41524942552054454E4100415341A7
:101E60004E54452053414E41005473683A004C692A
:101E700074613A004A554D4C41205941204C495417
:101E8000413A004A554D4C413A5473682000494E3E
:101E900041544F41204D414A492E2E2E2E2E2E2E9A
:101EA00000576173696C69616E612041646D696E90
:101EB000004D415348494E4520494D4546554E47F2
:101EC00057410054584E3A434152443A004B415214
:101ED0004942552054454E41004153414E544520FE
:101EE00053414E41005473683A004C6974613A00A2
:101EF0004A554D4C41205941204C4954413A004AE1
:101F0000554D4C413A5473682000494E41544F415D
:101F1000204D414A492E2E2E2E00576173696C695F
:101F2000616E612041646D696E004D415348494EB8
:101F30004520494D4546554E475741005363616E14
:101F4000204B6164692054656E61004D5544412009
:101F5000554D454953484100413A57454B4120535F
:101F6000414C494F20423A4F4E444F410053414C5F
:101F7000494F3A2054736820004A494E413A2000A4
:101F80004D55444120554D4549534841002020209E
:101F9000202020202020202020202020200053410D
:101FA0004C494F3A2054736820004A494E413A2028
:101FB000004D616A692E2E2E2E2E004C69746572BA
:101FC0003A2000200053414C494F2048414C49548D
:101FD0004F5348490020004B49415349204B494445
:101FE0004F474F2053414E4100413A57454B412006
:101FF00053414C494F20423A4F4E444F41005341C8
:102000004C494F3A2054736820004A494E413A20C7
:102010000048414B554E41204B49415349004B61CB
:10202000646920496D656F6E646F6C65776100420D
:102030003A4F4E444F4120202A3A465554410042DF
:102040004F4E59455A412023204B55525548555320
:10205000556000200057454B41204B4941534920D2
:102060005473683A004B61646920496D656F6E6412
:102070006F6C65776100545A533A20004F4E4745C4
:102080005A412053414C494F004C697465723A20C3
:102090000044697370656E73696E6720576174657B
:1020A000722028436F696E7329002020200053415D
:1020B0004C494F20545A533A200020202020202001
:1020C0002020202020202020200057454B41205355
:1020D00041524146550057454B41204B4144490030
:1020E00057454B41205341524146552041550052DE
:1020F0007564692062616164617965004D41544590
:102100004E47454E455A4F00576173696C69616E81
:10211000612041646D696E004D415348494E452030
:10212000494D4546554E4757410048414B554E4154
:102130002053485547485552490053797374656D8B
:1021400020526573657400E28FB120464F524345BB
:1021500056414C56453A2076616C766520696D652E
:1021600066756E677761204B494F544F4D41544916
:102170004B49202873656B756E6465203330207A77
:10218000696D657069746120E28094207573616C7B
:10219000616D612900001749985B11241FBECFEFC4
:1021A000D1E2DEBFCDBF00E00CBF29E0A8E3B6E07E
:1021B00001C01D92AB3CB207E1F716E0A0E0B2E02F
:1021C000EAE7FAEC00E00BBF02C007900D92A833DB
:1021D000B107D9F710E1CCECD0E100E006C02197BF
:1021E0000109802FFE010E94B862CB3CD10780E03C
:1021F0000807A9F70E94364A0C942B650C9400003E
:10220000FC01A089B18982E08C93A485B5851C92DC
:10221000A685B7858FEC8C93108EA489B58986E04E
:102220008C93A289B3898C9180618C93A289B389A4
:102230008C9188608C93A289B3898C9180688C93EF
:102240000288F389E02D80818F7D808308958CBD85
:102250009DBD08950895089508950895DC01ED91B8
:10226000FC910190F081E02D1994EF92FF920F9371
:102270001F93CF93DF938C017B01D0E0C0E0F70187
:10228000EC0FFD1F6491662361F0D801ED91FC9184
:102290000190F081E02DC8011995892B11F021964C
:1022A000EECFCE01DF91CF911F910F91FF90EF9074
:1022B0000895AF92BF92CF92DF92EF92FF920F9369
:1022C0001F93CF93DF936C017B018B01040F151FCC
:1022D000EB015E01AE18BF08C017D10759F0699134
:1022E000D601ED91FC910190F081E02DC601199588
:1022F000892B79F7C501DF91CF911F910F91FF9045
:10230000EF90DF90CF90BF90AF900895FC01538D78
:10231000448D252F30E0842F90E0821B930B5417BF
:1023200010F0CF96089501970895FC01918D828D4C
:10233000981761F0A28DAE0FBF2FB11D5D968C91E5
:10234000928D9F5F9F73928F90E008958FEF9FEF24
:102350000895FC01918D828D981731F0828DE80FE0
:10236000F11D858D90E008958FEF9FEF0895FC019A
:10237000918D228D892F90E0805C9F4F821B910967
:102380008F739927089580ED97E00E94B71121E09F
:10239000892B09F420E0822F08958DE698E00E94B1
:1023A000B71121E0892B09F420E0822F0895FC0168
:1023B000A48DA80FB92FB11DA35ABF4F2C91848DA6
:1023C00090E001968F739927848FA689B7892C9303
:1023D000A089B1898C91837080648C93938D848D56
:1023E000981306C00288F389E02D80818F7D808359
:1023F0000895EF92FF920F931F93CF93DF93EC0119
:1024000081E0888F9B8D8C8D98131AC0E889F9899B
:10241000808185FF15C09FB7F894EE89FF8960839E
:10242000E889F98980818370806480839FBF81E01F
:1024300090E0DF91CF911F910F91FF90EF90089561
:10244000F62E0B8D10E00F5F1F4F0F731127E02E3C
:102450008C8D8E110CC00FB607FCFACFE889F98974
:10246000808185FFF5CFCE010E94D711F1CFEB8D92
:10247000EC0FFD2FF11DE35AFF4FF0829FB7F89448
:102480000B8FEA89FB8980818062CFCFCF93DF9366
:10249000EC01888D8823B9F0AA89BB89E889F9897C
:1024A0008C9185FD03C0808186FD0DC00FB607FCB1
:1024B000F7CF8C9185FFF2CF808185FFEDCFCE01E4
:1024C0000E94D711E9CFDF91CF91089580E090E08D
:1024D000892B29F00E94CD1181110E94000080E01B
:1024E00090E0892B29F00E94C31181110E94000005
:1024F00080E090E0892B49F080E090E0892B29F082
:102500000E94000081110E94000080E090E0892B71
:1025100049F080E090E0892B29F00E9400008111B1
:102520000C94000008958150823108F05AC0E82FC1
:10253000F0E08827E156FD4E8F4F0C94B862BF1231
:10254000C312B112B712BB12F112C612CC12D012C2
:10255000D612DA12DE12E412E812F112EC12F212C2
:10256000F612809180008F7780938000089580918B
:1025700080008F7DF9CF80918000877FF5CF84B573
:102580008F7784BD089584B58F7DFBCF8091B00097
:102590008F778093B00008958091B0008F7DF9CF40
:1025A000809190008F7780939000089580919000A3
:1025B0008F7DF9CF80919000877FF5CF8091A0002B
:1025C0008F778093A00008958091A0008F7DF9CF30
:1025D0008091A000877FF5CF809120018F77809335
:1025E00020010895809120018F7DF9CF80912001F5
:1025F000877FF5CFCF93DF93282F30E0F901EB529F
:10260000F44E8491F901EB5CF34ED491F901E55855
:10261000F34EC491CC23A1F081110E949312EC2FB0
:10262000F0E0EE0FFF1FE554F44EA591B491EC914C
:10263000ED2381E090E009F480E0DF91CF910895EF
:1026400080E090E0FACF862F0C94FA121F93CF937C
:10265000DF93282F30E0F901EB52F44E8491F90119
:10266000EB5CF34ED491F901E558F34EC491CC23C1
:10267000A9F0162F81110E949312EC2FF0E0EE0FBB
:10268000FF1FEF55F44EA591B4918FB7F894EC91DC
:10269000111108C0D095DE23DC938FBFDF91CF915D
:1026A0001F910895DE2BF8CF862F642F0C942613EC
:1026B000CF93DF9390E0FC01EB5CF34E24918558BF
:1026C000934EFC0184918823C9F090E0880F991FF4
:1026D000FC01E55EF34EA591B491FC01EF55F44E7B
:1026E000C591D49161110DC09FB7F8948C9120953C
:1026F00082238C938881282328839FBFDF91CF91E9
:102700000895623051F49FB7F8943C91822F8095E0
:1027100083238C93E8812E2BEFCF8FB7F894EC9125
:102720002E2B2C938FBFEACF862F642F0C94581337
:102730003FB7F8948091150790911607A09117075D
:10274000B091180726B5A89B05C02F3F19F0019638
:10275000A11DB11D3FBFBA2FA92F982F8827BC01FB
:10276000CD01620F711D811D911D42E0660F771F23
:10277000881F991F4A95D1F70895CF92DF92EF9263
:10278000FF920F931F930E94981300913C061091A3
:102790003D0620913E0630913F066B017C01C01A38
:1027A000D10AE20AF30A97018601013D174021058B
:1027B000310590F020919D0730919E072F5F3F4F8C
:1027C00030939E0720939D0760933C0670933D06CF
:1027D00080933E0690933F061F910F91FF90EF90DC
:1027E000DF90CF9008958F929F92AF92BF92CF9239
:1027F000DF92EF92FF924B015C010E9498136B01F4
:102800007C010E9498136C197D098E099F09683E0E
:10281000734081059105A8F321E0821A9108A1086F
:10282000B10888EEC80E83E0D81EE11CF11C8114AB
:102830009104A104B10429F7FF90EF90DF90CF90AD
:10284000BF90AF909F908F9008952FB7F8946091AC
:1028500011077091120780911307909114072FBFF1
:102860000895BC016E5F7F4FDC01ED91FC910190FA
:10287000F081E02D40E0199591E0811190E0892FE1
:10288000089508958EBD00000DB407FEFDCF8EB5EE
:102890000895DF92EF92FF920F931F93CF93DF93F0
:1028A0007C01062FD42E152F80E590E00E94271181
:1028B00060E0F70186850E94261382E10E9442149F
:1028C000CD2DD12F0C0F1D2F111DC017D10721F0B9
:1028D00089910E944214F9CF61E0F7018685DF916A
:1028E000CF911F910F91FF90EF90DF900C942613E2
:1028F0001F93CF93DF93EC01162F80E590E00E94A9
:10290000271160E08E850E942613812F80680E9427
:10291000421480E00E944214182F61E08E850E94CC
:102920002613812FDF91CF911F9108950F931F934D
:10293000CF93DF93EC01062F142F80E590E00E94E7
:10294000271160E08E850E942613802F0E9442147A
:10295000812F0E94421461E08E85DF91CF911F91FB
:102960000F910C942613CF9361E0809148090E9447
:10297000581361E0809148090E942613809149090B
:102980008F3F09F46AC060E00E94581380914909A2
:102990000E94FA12892B09F060C061E08091490918
:1029A0000E94581360E0809149090E94261383E039
:1029B00090E00197F1F761E0809149090E942613A8
:1029C00062E370E080E090E00E94F31340E064E294
:1029D0008AE399E00E94961440E066E28AE399E077
:1029E0000E94961446E268E48AE399E00E949614F5
:1029F00040E864E58AE399E00E94961449EA66E5B6
:102A00008AE399E00E94961443E068E58AE399E03E
:102A10000E94961448EE6AE58AE399E00E949614B3
:102A200040E46AE28AE399E00E9496144DE362E290
:102A30008AE399E00E94961468E28AE399E00E9492
:102A40007814982F93709330F9F0482F436068E220
:102A50008AE399E0CF910C9496144FE062E08AE308
:102A600099E00E949614C3E062E370E080E090E099
:102A70000E94F31362E08AE399E00E94781484FFD5
:102A8000A5CFC15089F7A2CFCF910895CF92DF9201
:102A9000EF92FF920F931F93CF93DF93EC016B01A3
:102AA000F42E890140E062E00E94961444E06AE05E
:102AB000CE010E94961440E864E1CE010E94961473
:102AC000A6016F2DCE010E94491443E062E0CE01C1
:102AD0000E9496140E9425146B017C0129E5C20E08
:102AE000D11CE11CF11C6AE0CE010E94781482FF27
:102AF0001BC040E062E0CE010E94961464E4CE0167
:102B00000E947814F801808362E4CE010E94781458
:102B1000F801818380E0DF91CF911F910F91FF90A9
:102B2000EF90DF90CF9008950E9425146C157D05DD
:102B30008E059F05C0F283E0EECF2F923F924F9219
:102B40005F926F927F928F929F92AF92CF92DF921D
:102B5000EF92FF920F931F93CF93DF931F921F92D9
:102B6000CDB7DEB74C012B01D42E390180E0E11442
:102B7000F10411F0F70180813C2C329490EF39225E
:102B8000380E40E062E0C4010E9496144FE768E00E
:102B9000C4010E94961440E864E1C4010E949614A6
:102BA000A2016D2DC4010E944914432D6AE1C401A4
:102BB0000E9496144CE062E0C4010E9496146AE1FF
:102BC000C4010E947814482F40686AE1C4010E9441
:102BD00096140E9425141B012C01F4E22F0E311CC7
:102BE000411C511C68E0C4010E947814982F907316
:102BF00009F0B7C080FF15C083E00F900F90DF9100
:102C0000CF911F910F91FF90EF90DF90CF90AF90F9
:102C10009F908F907F906F905F904F903F902F90FC
:102C200008950E9425146215730584059505D0F258
:102C3000E3CF6114710409F469C00115110509F4A9
:102C400065C064E1C4010E947814382EF8018081C7
:102C5000831508F480C030823320E1F180E590E0F4
:102C60000E94271160E0F40186850E9426133A94A1
:102C700082E90E944214CC20B1F08FEF90E09C01D9
:102C800002C0220F331FCA94E2F7690182E90E9451
:102C900042149C2D9095F301208192238C21982B36
:102CA0009083CC24C39423014C0C511CC31440F4D6
:102CB00082E90E944214F20181932F01C394F6CF5E
:102CC00080E00E944214F201808361E0F401868575
:102CD0000E94261368E1C4010E9478148770E114F1
:102CE000F10411F0F701808323FC37C061147104F3
:102CF000B1F10115110599F1AA2089F1F80140817E
:102D0000413031F4843029F58FEF77CF80E0ECCF7C
:102D10004230F8F081111DC042509E012F5F3F4F9D
:102D2000B301C4010E944615811167CFF80190815B
:102D3000690E711CF301329720819981291309C012
:102D4000F1E06F1A7108F30120819A81291709F4C3
:102D500054CF87E052CF84E050CF82E04ECF80E066
:102D60004CCF6CE0C4010E947814282E837109F4C2
:102D700060CF81E042CF0F931F93CF93DF938C01FD
:102D8000D62FC42F0E947814C0954C2F48236D2F46
:102D9000C801DF91CF911F910F910C9496148F92DF
:102DA0009F92AF92CF92EF92FF920F931F93CF9388
:102DB000DF9300D01F921F92CDB7DEB74C0182E0A7
:102DC0008D8340E064E2C4010E94961440E066E214
:102DD000C4010E94961446E268E4C4010E9496145D
:102DE00086E28B838D818230B0F140E86CE1C401D2
:102DF0000E94BB1687E08C83A12CC12CCE010496C7
:102E00007C018E010B5F1F4F9E012F5F3F4F41E002
:102E1000BE016D5F7F4FC4010E949D15982F8111E7
:102E200017C08D818230B9F48C81811114C081E08A
:102E30000F900F900F900F900F90DF91CF911F91F7
:102E40000F91FF90EF90CF90AF909F908F9008954B
:102E500081E0923069F380E0EBCF2F923F924F9266
:102E60005F926F927F928F929F92AF92BF92CF921A
:102E7000DF92EF92FF920F931F93CF93DF93CDB723
:102E8000DEB72D970FB6F894DEBF0FBECDBF16E0AC
:102E9000413508F045C1342E4B013C0140E86CE15E
:102EA0000E94BB1683E98983332029F081E0F40175
:102EB0009081953008F480E022242394B12C9B2D3E
:102EC000990F990F990FD32CD91AD7FCD12C32E036
:102ED000882319F098E89B8333E021E09D2D9770BB
:102EE00009F420E09D2D959595959595290FC9F0AC
:102EF00094E0811193E0291708F4922FEB2DF0E074
:102F00003196E80DF91D232F4191A1E0B0E0AC0FFF
:102F1000BD1FA20FB11D4C932F5F422F431B4917BA
:102F200098F3882311F0F8E0DF0E8FE18D150CF097
:102F300082C090E79A838B819C8189279D81892714
:102F40009E8189278F839E01285F3F4F47E0BE0106
:102F50006F5F7F4FC3010E944615182F8111E0C09B
:102F60001A86E3E0EB87DC86CE0107962C0199E018
:102F70009D87CA844C2D4295407F4C0D6AE1C30168
:102F80000E949614A12CCE010A967C018E01055F49
:102F90001F4F92014D85BE016F5F7F4FC3010E949D
:102FA0009D15182F823009F065C06CE1C3010E94A5
:102FB000781485FDB5C08F7109F480E2282F30E0C8
:102FC0004D2DDD0C550B421753070CF09DC0D82E2C
:102FD000E82FE595E595E595EF5F982F977081E0EF
:102FE00009F480E0E80F81E090E08C0F9D1F8E0FC8
:102FF000911DFC01215031092770332781E090E0B9
:1030000002C0880F991F2A95E2F79C018081822BCC
:1030100080838BCF85E98983332031F081E0F4010F
:103020009081983008F04BCF80E049CF87E98983C1
:1030300026E0B22EF9CF9D2D97709A878D2D85951C
:10304000859585958E5F282F2295207F290F2A83CD
:1030500021E0911101C020E0280F2D8744244394E2
:10306000512C4C0E5D1E480E511CE9E0E81BEB870D
:10307000DC867FCF811154C080E2D82E9C859032AF
:103080000CF457CF8B81883809F040C083E093E07F
:10309000EB2DF0E03196E80DF91D980FA1E0B0E0BE
:1030A000AC0FBD1FA80FB11D2C9121938F5F891309
:1030B000F5CFBB84E3E0BE124DC08A8581114AC0C2
:1030C0009E012D5F3F4F41E0B201C3010E944615B2
:1030D000182F811125C09B81F201818198133CC07A
:1030E0009C818281981338C0808182FF12C0239412
:1030F000F2E02F1609F48ECF83E0281609F496CF5C
:1031000091E0291609F4CECE15E00AC082E094E0E1
:10311000BFCFF4018387822D880F820D8F5F80835C
:10312000812F2D960FB6F894DEBF0FBECDBFDF9175
:10313000CF911F910F91FF90EF90DF90CF90BF90B4
:10314000AF909F908F907F906F905F904F903F9047
:103150002F90089511E0E4CF17E0E2CF20919F0671
:10316000260F3327331F21323105ECF42091E80676
:10317000FC0190E080E0243069F082E00895A091A5
:103180009F062191AC014158594FA40FB52FB11D95
:103190002C930196861798F380919F06680F609391
:1031A0009F0680E0089581E008951092E80681E08E
:1031B0008093E7061092C20661E084E10E94261324
:1031C00061E085E10E942613E9EBF0E080818E7FCB
:1031D000808380818D7F808388E48093B80085E43C
:1031E0008093BC000895CF93DF9391E090937E0687
:1031F0008823B9F0C091B800D091BA008091BC008A
:103200008A7B8093BC0060E084E10E94261360E02A
:1032100085E10E9426130E94D518D093BA00C0936E
:10322000B800DF91CF9108950895E0912107809132
:103230002007E81730F4F0E0E25AF94F808190E07F
:1032400008958FEF9FEF08959091210780912007B7
:103250002FEF3FEF981748F4E92FF0E0E25AF94FCB
:10326000208130E09F5F90932107C90108958091EC
:10327000200790912107891B990B0895CF92DF9227
:10328000EF92FF920F931F93CF93DF937C01CB01BB
:103290008A012091EE06222389F0EB016B01C40E16
:1032A000D51ECC15DD0569F06991D701ED91FC9132
:1032B0000190F081E02DC7011995F3CF642F0E9492
:1032C000AE18C801DF91CF911F910F91FF90EF9041
:1032D000DF90CF900895CF93DF931F92CDB7DEB7E5
:1032E00069832091EE062223F9F020911E072032F7
:1032F00058F021E030E0FC013383228390E080E04D
:103300000F90DF91CF91089580911F07E82FF0E093
:10331000E151F94F998190838F5F80931F078093CC
:103320001E0781E090E0ECCF61E0CE0101960E94A3
:10333000AE18F7CFCF92DF92EF92FF920F931F93C9
:10334000CF93DF93FC01C48121E02093EE06C0936C
:103350000F0710921F0710921E078385682B8AE0C3
:1033600099E00E946B19D0911E07D13208F092C0EB
:103370000E9498136B017C018091E806811165C061
:1033800082E08093E80681E08093E7068FEF8093E8
:10339000E6061092E506D093E406AFEEB6E0E4EC64
:1033A000F6E080E0D81385C01092C3068091C30672
:1033B000CC0FC82BC093C3068091C206813009F0A0
:1033C0007CC01092C2060E9498136B017C01809110
:1033D000C3068093BB008091EA069091EB06A09112
:1033E000EC06B091ED06892B8A2B8B2B99F00E946D
:1033F00098130091EA061091EB062091EC063091AB
:10340000ED066C197D098E099F0906171707280715
:103410003907E0F18091BC0083FDD9CF85EC809322
:10342000BC000E9498136B017C018091E8068230F9
:1034300009F445C08091E6068F3F61F18091E60670
:10344000803241F18091E60625C08091EA06909194
:10345000EB06A091EC06B091ED06892B8A2B8B2B05
:1034600009F48ACF0E9498130091EA061091EB06A6
:103470002091EC063091ED066C197D098E099F09AB
:10348000061717072807390708F076CF8091E90655
:103490000E94F31810921F0710921E071092EE065A
:1034A000DF91CF911F910F91FF90EF90DF90CF9020
:1034B00008959D9191938F5F75CF85EEB0CF8091E8
:1034C000EA069091EB06A091EC06B091ED06892BEF
:1034D0008A2B8B2B09F4A9CF0E9498130091EA063E
:1034E0001091EB062091EC063091ED066C197D09E8
:1034F0008E099F09061717072807390708F095CF87
:10350000C5CF88E08093C40960E089EB99E00C9412
:103510009A1990E080E00895CF92DF92EF92FF92A7
:103520008091CA07811157C08091C907811153C08A
:103530000E9498136B017C018091380690913906A6
:10354000A0913A06B0913B06A7019601281B390BC2
:103550004A0B5B0BDA01C9018135934CA105B1051A
:10356000D0F16091B6077091B7078091B80790913C
:10357000B90720E030E048E452E40E946B616093B8
:10358000B6077093B7078093B8079093B907609117
:10359000B6077091B7078091B8079091B9070E945C
:1035A00049626093BA077093BB078093BC079093FE
:1035B000BD070E9425146093C0077093C1078093D4
:1035C000C2079093C307C0923806D0923906E092A2
:1035D0003A06F0923B06FF90EF90DF90CF9008956F
:1035E0000F931F93CF938C01C62F0E949A196C2FB3
:1035F0006460C8010E949A196C2F6B7FC8010E94F9
:103600009A1983EC90E00197F1F7CF911F910F91F8
:1036100008950F931F93CF93DF938C01D62FC42F60
:10362000607F642B0E94F01A80E1D89FB0011124C2
:103630006C2BC801DF91CF911F910F910C94F01A60
:10364000CF93DF9300D000D01F921F92CDB7DEB78B
:1036500098E0ECE7F2E0DE01119601900D929A9568
:10366000E1F79091C109961710F46FEF690F262FBB
:1036700030E0220F331F41E050E04C0F5D1F240F5C
:10368000351FF9016081680F606840E089EB99E0BF
:1036900028960FB6F894DEBF0FBECDBFDF91CF9155
:1036A0000C94091B40E061E089EB99E00E94091B42
:1036B0008BE39FE10197F1F7089541E00E94091B18
:1036C00081E090E00895CF93DF93FC012481358160
:1036D000232B71F0C081D1816AE370E0CE010E949A
:1036E000F364009729F08C1B9D0BDF91CF91089517
:1036F0008FEF9FEFFACFCF92DF92EF92FF920F936F
:103700001F93CF93DF93EB017B0123E2E20EF11CC9
:103710008B016C01C61AD70AC601800F911F0E9447
:103720003A61F80181938F01EE15FF05A9F7CE01EB
:10373000DF91CF911F910F91FF90EF90DF90CF908D
:103740000895EF92FF920F931F93CF93DF93CDB71E
:10375000DEB7A3970FB6F894DEBF0FBECDBF84E4EB
:10376000E82EF12C10E000E0BE016F5F7F4FC70133
:103770000E947B1B8981882351F00F5F1F4F83E2DA
:10378000E80EF11C0233110579F70FEF1FEFC801A6
:10379000A3960FB6F894DEBF0FBECDBFDF91CF91D9
:1037A0001F910F91FF90EF900895CF92DF92EF92CB
:1037B000FF920F931F93CF93DF93EB017B0120E1E7
:1037C000E20EF11C8B016C01C61AD70AC601800FEC
:1037D000911F0E943A61F80181938F01EE15FF0558
:1037E000A9F7CE01DF91CF911F910F91FF90EF903C
:1037F000DF90CF900895CF92DF92EF92FF920F93D8
:103800001F93CF93DF93EB017B0124E0E20EF11CC9
:103810008B016C01C61AD70AC601800F911F0E9446
:103820003A61F80181938F01EE15FF05A9F7CE01EA
:10383000DF91CF911F910F91FF90EF90DF90CF908C
:103840000895FB0101900020E9F73197AF01461B75
:10385000570BDC01ED91FC910280F381E02D19946E
:103860008F929F92AF92BF92EF92FF920F931F930E
:10387000CF93DF93CDB7DEB7A1970FB6F894DEBF35
:103880000FBECDBF7C01FA01CB0119A2223008F492
:103890002AE08E010F5D1F4F822E912CB12CA12C9E
:1038A000BF01A50194010E949662F901CA016A3024
:1038B0000CF5605DD8016E938D01232B242B252BF5
:1038C00079F790E080E0109721F0BD01C7010E94D8
:1038D000211CA1960FB6F894DEBF0FBECDBFDF91BD
:1038E000CF911F910F91FF90EF90BF90AF909F905D
:1038F0008F900895695CDECFCF92DF92EF92FF92B6
:10390000CF93DF93AB01BC0177FF1DC06A017C013F
:103910006DE28DE698E00E942E11EC0144275527B8
:10392000BA014C195D096E097F092AE08DE698E01D
:103930000E94301C8C0F9D1FDF91CF91FF90EF9064
:10394000DF90CF9008952AE08DE698E0DF91CF9147
:10395000FF90EF90DF90CF900C94301C2F923F920D
:103960004F925F926F927F928F929F92AF92BF928F
:10397000CF92DF92EF92FF921F93CF93DF93EC01F0
:103980006A017B01722EAB019601CB01B6010E9448
:103990007D6268EC72E0811126C046015701E8940F
:1039A000B7F82FEF3FEF4FE75FE7C501B4010E9483
:1039B0007D6281110CC02FEF3FEF4FE75FE7C5013C
:1039C000B4010E9413606CEC72E0181664F02FEFE3
:1039D0003FEF4FE75FE4C701B6010E947862181617
:1039E000B4F460ED72E0CE01DF91CF911F91FF90B2
:1039F000EF90DF90CF90BF90AF909F908F907F908F
:103A00006F905F904F903F902F900C94211C2FEF60
:103A10003FEF4FE75FECC701B6010E94136087FDDF
:103A2000E0CF20E030E0A901C701B6010E94136099
:103A3000312C212C87FF09C06DE2CE010E942E118E
:103A40001C01F7FAF094F7F8F09410E060E070E0F1
:103A500080E09FE3711641F020E030E040E251E465
:103A60000E94D7611F5FF6CFA70196010E946B618C
:103A70002B013C010E9449624B015C012AE0BC0120
:103A8000A401CE010E94301C7C01E20CF31C112326
:103A9000C1F1C501B4010E9418609B01AC01C301D2
:103AA000B2010E946A614B015C016EE2CE010E948C
:103AB0002E11E80EF91E115020F120E030E040E216
:103AC00051E4C501B4010E9479602B013C010E94C0
:103AD00049624B01B12CA12C2AE0B501A401CE0111
:103AE0000E94301CE80EF91EC501B4010E94186046
:103AF0009B01AC01C301B2010E946A614B015C01F0
:103B0000DACFC701DF91CF911F91FF90EF90DF9047
:103B1000CF90BF90AF909F908F907F906F905F906D
:103B20004F903F902F9008950F931F93CF93DF9363
:103B3000EC010E94AE1C8C0164ED72E0CE010E948B
:103B4000211C800F911FDF91CF911F910F9108953C
:103B50000C94AE1C0F931F93CF93DF93EC010E9444
:103B6000211C8C0164ED72E0CE010E94211C800FAB
:103B7000911FDF91CF911F910F9108950F931F9384
:103B8000CF93DF93EC01FB0144815581608171810A
:103B90000E9459118C0164ED72E0CE010E94211C3B
:103BA000800F911FDF91CF911F910F9108950F9377
:103BB0001F93CF93DF93EC010E9435118C0164EDCC
:103BC00072E0CE010E94211C800F911FDF91CF91E6
:103BD0001F910F91089566E375E080ED97E00E94D4
:103BE00035116BEE74E080ED97E00E94D71D69EE11
:103BF00074E080ED97E00C94351167EE74E080ED91
:103C000097E00E94351169ED74E080ED97E00E9425
:103C1000D71D6AEC74E080ED97E00E943511409169
:103C200048025091490260914A0270914B0222E091
:103C300030E080ED97E00E94941D65EB74E080ED2C
:103C400097E00E94351140914202509143026091E9
:103C500044027091450222E030E080ED97E00E943E
:103C6000941D6DEA74E080ED97E00E94351160E2EA
:103C700072E080ED97E00E94AA1D6BEA74E080ED8F
:103C800097E00E94351161E974E080ED97E00E94B1
:103C90003511409138025091390260913A02709189
:103CA0003B0222E030E080ED97E00E94941D6FE837
:103CB00074E080ED97E00E9435116DEA73E080EDCD
:103CC00097E00E94D71D6BEA73E080ED97E00C94BB
:103CD00035110C94211CFC0180819181009711F019
:103CE0000C94CE5B60E070E0CB010895FC01808114
:103CF0009181009711F00C94D25B60E070E0CB01F1
:103D00000895AF92BF92CF92DF92EF92FF920F93FE
:103D10001F93CF93DF93DC01CD90DC901197C114FA
:103D2000D10439F01496CD91DC918C017601209765
:103D300061F4DF91CF911F910F91FF90EF90DF9091
:103D4000CF90BF90AF90089575015701BFEFAB1AA8
:103D5000BB0AF7018081082E000C990B0E94E25FDC
:103D6000892B91F72197CC0DDD1D8881082E000C41
:103D7000990B0E94E25F892B29F0CE15DF0510F028
:103D80002197F3CFAE014F5F5F4F4E195F09D80106
:103D900015965C934E931497CE14DF0420F4B7016C
:103DA000C6010E94EA64D801ED91FC911197149626
:103DB0008D919C91E80FF91F1082BBCFCF93DF93B9
:103DC000FC01C081D181209761F08991882349F05D
:103DD000082E000C990B0E94E264FE01319780834B
:103DE000F4CFDF91CF910895FB0144815581FC010F
:103DF000248135812417350778F0808191810097DF
:103E000059F0FB01608171816115710529F00E94F3
:103E10000E6521E0892B09F020E0822F0895CF92D2
:103E2000DF92EF92FF920F931F93CF93DF93CDB763
:103E3000DEB7A3970FB6F894DEBF0FBECDBF6C01FF
:103E400084E4E82EF12C10E000E0BE016F5F7F4FAC
:103E5000C7010E947B1B4EE050E0B601CE010196E7
:103E60000E940E65892B19F4898181110AC00F5FA8
:103E70001F4F83E2E80EF11C0233110531F70FEFFB
:103E80001FEFC801A3960FB6F894DEBF0FBECDBFDB
:103E9000DF91CF911F910F91FF90EF90DF90CF9026
:103EA0000895FC0124813581232B39F421E0FB01A5
:103EB0008081882349F020E007C0808191810E94A1
:103EC000FE6421E0892BB9F7822F0895FC0124813B
:103ED0003581FB014481558124173507E1F4FC014C
:103EE00080819181FB01608171810097D1F0611522
:103EF0007105A1F4232BC1F0FC01808190E008C082
:103F0000232B91F0FB01808190E09195819591099F
:103F100021E0892B09F020E0822F08950E94FE64A1
:103F2000F7CF6115710561F721E0F6CF0F931F936D
:103F3000CF93DF938C01EB01FC018081918100978D
:103F4000E1F06881798161157105A9F042815381A1
:103F50002C813D814217530770F00E9407658C81C8
:103F60009D81F801958384831D821C82DF91CF910E
:103F70001F910F9108950E94706388819981F801C3
:103F8000918380838A819B81938382838C819D81AD
:103F900095838483198218821B821A82E5CFCF937E
:103FA000DF93EC0188819981009711F00E94706382
:103FB000198218821D821C821B821A82DF91CF9186
:103FC0000895FC0180819181009711F00C94706339
:103FD00008950F931F93CF93DF93EC01888199810C
:103FE000009759F02A813B812617370730F081E08E
:103FF000DF91CF911F910F9108958B016F5F7F4FDC
:104000000E94F963009759F0998388831B830A8380
:104010002C813D81232B59F7FC011082E8CF80E0F1
:10402000E7CFEF92FF920F931F93CF93DF9361152A
:10403000710541F480E0DF91CF911F910F91FF90C6
:10404000EF90089541155105B1F07B01EC010C8111
:104050001D81040F151FB8010E94E91F882351F329
:10406000288139818C819D81B701820F931F0E9425
:1040700007651D830C8381E0DECFCF93DF93EC01D6
:104080006115710539F4CE010E94CF1FCE01DF9179
:10409000CF910895FB0101900020E9F73197AF011E
:1040A000461B570B0E941120882369F3EFCFCF9353
:1040B000DF93EC01FB0144815581608171810E9495
:1040C0001120811103C0CE010E94CF1FCE01DF91CC
:1040D000CF910895CF93DF931F921F92CDB7DEB794
:1040E00069831A8241E050E0BE016F5F7F4F0E94FA
:1040F00011200F900F90DF91CF910895EF92FF92D2
:104100000F931F93CF93DF93EC017B018A01BA01D8
:104110000E94E91F81110BC0CE010E94CF1FCE016A
:10412000DF91CF911F910F91FF90EF9008951D8324
:104130000C83B701888199810E940765F0CFFB014C
:1041400001900020E9F73197AF01461B570B0C9403
:104150007E200F931F93CF93DF93CDB7DEB7629787
:104160000FB6F894DEBF0FBECDBF8C01CB01F801B6
:104170001182108213821282158214824AE0BE01DB
:104180006F5F7F4F0E94F95BBE016F5F7F4FC80179
:104190000E949F2062960FB6F894DEBF0FBECDBF7F
:1041A000DF91CF911F910F910895EF92FF920F939E
:1041B0001F93CF93DF93CDB7DEB7A1970FB6F894D7
:1041C000DEBF0FBECDBF7C01CB01BA01F70111826A
:1041D000108213821282158214828E010F5F1F4F8C
:1041E00022E044E00E94B05B009789F0BC01C70167
:1041F0000E949F20A1960FB6F894DEBF0FBECDBFE0
:10420000DF91CF911F910F91FF90EF900895C7011B
:104210000E94CF1FEFCFFB01DC0111961C921E9272
:1042200013961C921E92129715961C921E9214972A
:104230008617970749F0608171816115710521F03A
:10424000448155810C947E200895FC0111821082D6
:104250001382128215821482FB0101900020E9F77B
:104260003197AF01461B570B0C947E20AF92BF9243
:10427000CF92DF92EF92FF920F931F93CF93DF9332
:104280006C015B017A0189012417350720F48F2D19
:104290007901042F182F66ED72E0C6010E942521D6
:1042A000D5011496CD91DC91EC16FD06E0F40C17C7
:1042B0001D0708F4E801D501ED91FC911197EC0F71
:1042C000FD1F108110826D917C916E0D7F1DC601C6
:1042D00061157105A1F00E949F20F50180819181F7
:1042E000C80FD91F1883C601DF91CF911F910F917D
:1042F000FF90EF90DF90CF90BF90AF9008950E9415
:10430000CF1FEBCFEF92FF920F931F93CF93DF93CB
:10431000EC018A01FB018481958130E020E0B0E06E
:10432000A0E050E040E08217930758F1821793070E
:1043300071F4A017B10701F5CE010E943621CE011C
:10434000DF91CF911F910F91FF90EF900895281763
:10435000390740F4FB01E080F180F701E20FF31F21
:10436000EF2821F41092CF07EFECF7E0E081EA3379
:1043700001F32F5F3F4FD7CFA9014F5F5F4F1196DA
:10438000F8CF66ED72E0CE010E942521D8CFCF9301
:10439000DF93EC01FB01248135810E943621CE019F
:1043A000DF91CF91089585ED8093BC008091EA065E
:1043B0009091EB06A091EC06B091ED060796A11D39
:1043C000B11D23E0B695A795979587952A95D1F7C6
:1043D0002091BC0024FD03C01092E806089540918E
:1043E000EA065091EB066091EC067091ED06452BC4
:1043F000462B472B69F30097A105B10541F02AE24E
:104400002A95F1F700C00197A109B109E1CF809188
:10441000E9060C94F318EF92FF920F931F93CF933A
:10442000DF93EC018B01D80114968D919C91159727
:10443000009789F0ED91FC911197309761F0019709
:10444000E80FF91F2081203231F415969C938E934A
:1044500014971082E8CF85E0E82EF12C60E2C801C5
:104460000E946A20B1E0EB1AF108C1F719821882A4
:104470001B821A821D821C82B801CE010E94961FE7
:10448000CE01DF91CF911F910F91FF90EF90089592
:104490000F931F93CF93DF9300E212E0C8E0D0E0C8
:1044A000F80161918F01CE010E9442612196CC31C9
:1044B000D105B1F76AE173E08DE698E00E9435110D
:1044C00060E272E08DE698E0DF91CF911F910F914D
:1044D0000C94AA1DFF920F931F93CF93DF93EC01CF
:1044E000F62E08811981C8010E943A61F81621F060
:1044F0006F2DC8010E944261CE01DF91CF911F91C3
:104500000F91FF900895AF92BF92CF92DF92EF92FA
:10451000FF920F931F93CF93DF931F921F92CDB7FC
:10452000DEB78B016B0123E2C20ED11C7B015C0163
:10453000A61AB70AC5018E0D9F1D9A838983F701BC
:1045400061917F01CE0101960E946A22EC14FD0464
:1045500089F7C8010F900F90DF91CF911F910F91B4
:10456000FF90EF90DF90CF90BF90AF900895AF9203
:10457000BF92CF92DF92EF92FF920F931F93CF9350
:10458000DF931F921F92CDB7DEB78B016B0120E145
:10459000C20ED11C7B015C01A61AB70AC5018E0DA3
:1045A0009F1D9A838983F70161917F01CE01019656
:1045B0000E946A22EC14FD0489F7C8010F900F9045
:1045C000DF91CF911F910F91FF90EF90DF90CF90EF
:1045D000BF90AF900895CF93DF93CDB7DEB76097CC
:1045E0000FB6F894DEBF0FBECDBF60E072E080E38F
:1045F00090E00E94B722BE016F5F7F4F80E390E0A2
:104600000E94D51B60E072E0CE0101960E94FE641C
:10461000892B61F068EF72E08DE698E00E94AA1D98
:1046200060E072E080E390E00E94B72260960FB6EF
:10463000F894DEBF0FBECDBFDF91CF910895CF9329
:10464000DF93CDB7DEB760970FB6F894DEBF0FBE2D
:10465000CDBF60E172E08CE190E00E94B722BE0124
:104660006F5F7F4F8CE190E00E94D51B60E172E0AC
:10467000CE0101960E94FE64892B61F06AE273E02C
:104680008DE698E00E94AA1D60E172E08CE190E066
:104690000E94B72260960FB6F894DEBF0FBECDBF62
:1046A000DF91CF910895AF92BF92CF92DF92EF92B8
:1046B000FF920F931F93CF93DF931F921F92CDB75B
:1046C000DEB78B016B0124E0C20ED11C7B015C01C3
:1046D000A61AB70AC5018E0D9F1D9A838983F7011B
:1046E00061917F01CE0101960E946A22EC14FD04C3
:1046F00089F7C8010F900F90DF91CF911F910F9113
:10470000FF90EF90DF90CF90BF90AF900895CF9340
:10471000DF9300D01F92CDB7DEB768E472E08CE281
:1047200090E00E945323BE016F5F7F4F8CE290E0C8
:104730000E94FB1B209148023091490240914A029D
:1047400050914B0269817A818B819C810E946A61C0
:104750009F772AE037ED43E25CE30E947862181607
:1047600064F46AE673E08DE698E00E94D71D68E481
:1047700072E08CE290E00E9453230F900F900F9014
:104780000F90DF91CF910895CF93DF9300D01F92C8
:10479000CDB7DEB762E472E084E090E00E9453237C
:1047A000BE016F5F7F4F84E090E00E94FB1B209171
:1047B0004202309143024091440250914502698186
:1047C0007A818B819C810E946A619F772AE037ED14
:1047D00043E25CE30E947862181664F46FE273E0CF
:1047E0008DE698E00E94D71D62E472E084E090E0DC
:1047F0000E9453230F900F900F900F90DF91CF9155
:104800000895CF93DF9300D01F92CDB7DEB766E651
:1048100077E090E080E00E945323BE016F5F7F4FFE
:1048200090E080E00E94FB1B2091660730916707B3
:10483000409168075091690769817A818B819C81D9
:104840000E946A619F772AE037ED43E25CE30E94B1
:104850007862181664F46AEE72E08DE698E00E94C1
:10486000D71D66E677E090E080E00E9453230F902A
:104870000F900F900F90DF91CF9108950E94012427
:104880000E94C4230E9487230E9448220E941F2363
:104890000C94EB221F93CF93DF931091BE0711115D
:1048A00005C02091B507222309F46BC1EC016EE528
:1048B00073E00E94511F811107C064E673E0CE01CE
:1048C0000E94511F882379F1112309F45AC181E014
:1048D0008093520661E088E00E94261368EC70E045
:1048E00080E090E00E94F31360E088E00E942613CD
:1048F0006DEF77E080ED97E00E94351161ED77E094
:1049000080ED97E00E94D71D69EB77E080ED97E09E
:104910000E94D71D67EB77E080ED97E0DF91CF91A4
:104920001F910C9435116AE673E0CE010E94511F6D
:10493000811139C064E773E0CE010E94511F8111DB
:1049400032C06EE773E0CE010E94511F811154C046
:1049500066E873E0CE010E94511F882309F46FC0FE
:10496000112309F40EC181E080934F0661E088E0D5
:104970000E94261368EC70E080E090E00E94F31340
:1049800060E088E00E94261364E277E080ED97E023
:104990000E94351168ED76E080ED97E00E94D71D0A
:1049A00066ED76E0B9CF112309F4EBC081E0809386
:1049B000510661E088E00E94261368EC70E080E018
:1049C00090E00E94F31360E088E00E94261365EBFC
:1049D00077E080ED97E00E94351166E877E080EDA2
:1049E00097E00E94D71D6EE677E080ED97E00E9489
:1049F000D71D6CE677E090CF112309F4C2C081E0A7
:104A00008093500661E088E00E94261368EC70E015
:104A100080E090E00E94F31360E088E00E9426139B
:104A20006AE677E080ED97E00E94351168E277E072
:104A300080ED97E00E94D71D66E277E06DCF6FE8CA
:104A400073E0CE010E94511F8823E9F1112309F47C
:104A500098C081E080934E0661E088E00E942613B2
:104A600068EC70E080E090E00E94F31360E088E082
:104A70000E94261364ED76E080ED97E00E943511E8
:104A800062EC76E080ED97E00E9435114091660778
:104A900050916707609168077091690722E030E0E4
:104AA00080ED97E00E94941D60EC76E080ED97E049
:104AB0000E9435116BEA76E080ED97E00E94D71DE9
:104AC00069EA76E029CF67E973E0CE010E94511FC1
:104AD000882309F45AC0112309F453C010926607C1
:104AE0001092670710926807109269070E940124CC
:104AF00061E088E00E94261368EC70E080E090E0BE
:104B00000E94F31360E088E00E94261367EA76E0D3
:104B100080ED97E00E9435116AE976E080ED97E03C
:104B20000E94D71D68E976E080ED97E00E9435117C
:104B300062E876E080ED97E00E94351140916607CB
:104B400050916707609168077091690722E030E033
:104B500080ED97E00E94941D60E876E080ED97E09C
:104B60000E9435116BE676E080ED97E00E94D71D3C
:104B700069E676E080ED97E00E94351181E0809350
:104B80004D06DF91CF911F9108956DE973E0CE013D
:104B90000E94511F811123C066EA73E0CE010E947A
:104BA000511F81111CC06FEA73E0CE010E94511F9A
:104BB00081113DC068ED73E0CE010E94511F882332
:104BC00009F44FC069E076E080ED97E00E9435116E
:104BD00066EE75E080ED97E00E94D71D34C011238A
:104BE00081F281E080934C0661E088E00E94261308
:104BF00068EC70E080E090E00E94F31360E088E0F1
:104C00000E94261367E676E080ED97E00E9435115A
:104C100067E276E080ED97E00E94D71D6FE076E0D6
:104C200080ED97E00E94D71D6DE076E075CE6BE0D9
:104C300076E080ED97E00E94351167EB73E080ED40
:104C400097E00E94AA1D8091BE07882329F0DF917A
:104C5000CF911F910C94FD1DDF91CF911F910C946A
:104C6000EB1D63EE73E0CE010E94511F8823C1F05B
:104C700064EE75E080ED97E00E9435116AEC75E016
:104C800080ED97E00E94D71D8091BE07882329F010
:104C90000E94FD1D68EC75E03FCE0E94EB1DFACF2F
:104CA0006EEE73E0CE010E94511F882371F0112334
:104CB00009F467CF66EA75E080ED97E00E94D71DA2
:104CC0000E94FD1D64EA75E027CE6DEF73E0CE0112
:104CD0000E94511F882341F0112309F452CF0E94F2
:104CE000EE4762EA75E018CE66E074E0CE010E94FD
:104CF000511F811108C06BE074E0CE010E94511F6A
:104D0000882309F43ECF0E943E2461E088E00E949F
:104D1000261368EC70E080E090E00E94F31360E0FE
:104D200088E00E9426131092BE071092B5071092D9
:104D3000B40710925206109251061092500610922B
:104D40004F0610924E0610924D0610924C0610928D
:104D50005C0610925D06109257060E94811A60EA66
:104D600075E080ED97E00E94351160E975E080ED17
:104D700097E00E94D71D69E775E080ED97E00E94FB
:104D8000D71D61E575E080ED97E00E94D71D6AE3CD
:104D900075E080ED97E00E94D71D68E375E0BCCD1B
:104DA00068E372E080E490E00E94532361ED72E0DA
:104DB0008DE698E00E9435114091380250913902F9
:104DC00060913A0270913B0223E030E08DE698E07A
:104DD0000C94941D6F927F928F929F92AF92BF928C
:104DE000CF92DF92EF92FF920F931F93CF93DF93B7
:104DF000CDB7DEB7C158D1090FB6F894DEBF0FBEEC
:104E0000CDBF8091BE07811104C08091B507882372
:104E100049F080915D06811105C080915C06882370
:104E200009F4D4C10E942514009158061091590626
:104E300020915A0630915B06601B710B820B930B1D
:104E4000683C71058105910508F4C0C10E94B31446
:104E50006AE070E080E090E00E94F3138AE399E05A
:104E60000E94CF16882309F4A7C18AE399E00E9423
:104E70003114882309F4A0C166ED72E0CE01845894
:104E80009F4F0E94252110E080913C09181740F5A2
:104E9000E12FF0E0E65CF64F83811DA21CA21FA269
:104EA0001EA219A618A640E1BE016F5F7F4F90E0D9
:104EB0000E94195CBE016F5F7F4FCE0184960E94F5
:104EC0009F2048A559A56CA17DA1CE0184589F4F74
:104ED0000E941120CE0184960E94E11F1F5FD4CF53
:104EE000CE0184589F4F0E94DE1E0E9425146093BD
:104EF000C0077093C1078093C2079093C307809146
:104F00005D06882309F476C280915C06882309F443
:104F100071C2BE0164587F4FCE018A589F4F0E94D4
:104F20000B21EC968EAD9FADEC971DA21CA21FA28B
:104F30001EA219A618A64AE0BE016F5F7F4F0E940D
:104F4000195CBE016F5F7F4FCE0184960E949F2047
:104F500060E174E0CE0101960E942521BE016A58ED
:104F60007F4FCE0101960E94572066E274E00E94B6
:104F70003D20BE016C5D7F4F0E945720BC018DE635
:104F800098E00E94BE1DCE0101960E94E11FCE0155
:104F900084960E94E11F60E374E0CE0101960E94B6
:104FA0002521BE016A587F4FCE0101960E945720ED
:104FB000BC0180ED97E00E94BE1DCE0101960E94CB
:104FC000E11F0E94521B60E080E00E94201B65EF01
:104FD00077E189EB99E00E943511EC968EAD9FAD9B
:104FE000EC97892B71F565EE77E180ED97E00E94F3
:104FF000D71D60E080E00E94201B6BED77E189EB1C
:1050000099E00E94351160ED77E080E090E00E9429
:10501000F31310925D0681E0809357066AEB77E107
:1050200080ED97E00E94D71D0E94521B60E080E057
:105030000E94201B6BEA77E189EB99E00E94351111
:1050400084C0E8966EAD7FADE8974EE050E0CE01AB
:1050500084960E941C651AAACE0184960E940F1F96
:10506000019651F161E977E180ED97E00E94D71D4B
:1050700060E080E00E94201B65E877E189EB99E021
:105080000E94351160ED77E080E090E00E94F3131C
:1050900010925D0681E08093570664E677E180ED2B
:1050A00097E00E94D71D0E94521B60E080E00E94A2
:1050B000201B65E577E1C0CF0E94A11B8C010F3F4B
:1050C000100709F09CC062E370E0CE0101960E94D7
:1050D000A9206BE474E0CE01895B9F4F0E942521DB
:1050E000BE016F5F7F4FCE01895B9F4F0E945720AB
:1050F00064E674E00E943D20BC0180ED97E00E94D0
:10510000BE1DCE01895B9F4F0E94E11FCE0101961B
:105110000E94E11F10925C0610925D0610925706E5
:1051200066ED72E088E299E00E949F20109253069B
:105130001092540610925506109256068091BE07A2
:10514000882309F459C00E94FD1DCE018A589F4F43
:105150000E94E11F80E5AB968FAFAB97AC961FAE78
:10516000AC972AE630E02C0F3D1F2E5F3F4F42E008
:10517000BE0166597F4F8AE399E00E94461581116E
:1051800010C0A12CC12CF12CE12C10E000E030E08B
:1051900020E044E0BE0166597F4F8AE399E00E9417
:1051A0009D1548E060E18AE399E00E94BB16CE01BC
:1051B00084589F4F0E94E11F0E9425146093580657
:1051C0007093590680935A0690935B06CF57DF4F32
:1051D0000FB6F894DEBF0FBECDBFDF91CF911F9108
:1051E0000F91FF90EF90DF90CF90BF90AF909F9086
:1051F0008F907F906F9008950E94EB1DA6CF6091D5
:105200002809709129094FE050E0CE01C3960E9411
:105210001C6523961FAE23978091530690915406E8
:10522000A0915506B091560627968CAF9DAFAEAFB4
:10523000BFAF279783E2FE01B496DE01119601907D
:105240000D928A95E1F723E2209FC001219F900DE6
:105250001124BE016F5F7F4F8C5B9F4F0E948322A2
:105260002796CCACDDACEEACFFAC279769E077E1DC
:105270008DE698E00E943511BE016C5D7F4F8DE692
:1052800098E00E94691E6AE38DE698E00E942E1164
:10529000BE016D5C7F4F8DE698E00E94691E6AE357
:1052A0008DE698E00E942E1122E030E0B701A601C1
:1052B0008DE698E00E94941D61E088E00E9426132C
:1052C00068EC70E080E090E00E94F31360E088E01A
:1052D0000E94261327964CAD5DAD6EAD7FAD27972E
:1052E000CE01895B9F4F0E94D520BE016D5C7F4F30
:1052F000CE0186599F4F0E9425216CE674E0CE01B5
:1053000080599F4F0E942521BE0166597F4FCE01D3
:1053100080599F4F0E94572066E874E00E943D200C
:10532000BE01695B7F4F0E945720BC0180ED97E072
:105330000E94BE1DCE0180599F4F0E94E11FCE01E9
:1053400086599F4F0E94E11FCE01895B9F4F0E94AB
:10535000E11F0E94521B60E080E00E94201B68E475
:1053600077E189EB99E00E943511BE016D5C7F4FBA
:1053700089EB99E00E94691E61E080E00E94201B99
:1053800062E477E189EB99E00E94351127964CADF4
:105390005DAD6EAD7FAD279722E030E089EB99E0FF
:1053A0000E94A81D60ED77E080E090E00E94F3137A
:1053B00010925D0681E08093570666ED72E088E208
:1053C00099E00E949F20109253061092540610926A
:1053D00055061092560661E277E180ED97E00E9453
:1053E000D71D0E94521B60E080E00E94201B62E1FA
:1053F00077E122CEEE966EAD7FADEE974EE050E0B7
:1054000080E797E00E941C6510927E070E94521B65
:1054100060E080E00E94201B6BE578E189EB99E079
:105420000E94351166ED72E0CE018A589F4F0E94AE
:105430002521BE0164587F4FCE0180599F4F0E94A5
:105440000B216EEF76E18DE698E00E943511BE01EA
:1054500060597F4F8DE698E00E94BE1D66ED72E0B8
:10546000CE0186599F4F0E9425210E9425144B0191
:105470005C010E942514681979098A099B09683B17
:105480007B408105910508F0E2C1A8958DE698E082
:105490000E94B711892B69F38DE698E00E9495115F
:1054A0008A3019F08D3009F0C3C1E0968EAD9FAD02
:1054B000E097892BF1F261E974E0CE0101960E9438
:1054C0002521BE016F5F7F4FCE0186599F4F0E94FD
:1054D000F41E182FCE0101960E94E11F112309F43A
:1054E0006FC147E050E0BE0166597F4FCE01895B36
:1054F0009F4F0E94C721CE01895B9F4F0E94631B73
:105500006C017C018FEFE81AF80A2D968EAD9FADE5
:105510002D97E816F90608F046C129966EAC7FACC7
:1055200029976AE370E0C3018E0D9F1D0E94F3640A
:10553000009709F438C18C01061917091C141D04C1
:105540000CF031C1101611060CF02DC1960150E07F
:1055500040E0BE01695B7F4FCE0184960E943621F8
:10556000CE0184960E94DE1EBE0160597F4FCE019F
:1055700084960E94661F882309F411C19801A7012F
:10558000BE01695B7F4FCE0101960E943621CE019C
:1055900001960E946B1E6B017C01CE0101960E9458
:1055A000E11FA8014F5F5F4FBE01695B7F4FCE01D6
:1055B00001960E94C721BE016F5F7F4FCE018A58BE
:1055C0009F4F0E94961FCE0101960E94E11FCE01BF
:1055D00084960E94E11FCE01895B9F4F0E94E11FCC
:1055E00010E000E0CE0186599F4F0E94E11FCE01DE
:1055F00080599F4F0E94E11F0115110509F02DC12F
:1056000080E797E00E940F1F8C01019689F50E94A8
:10561000A11B8C010F3F100759F58AE197E00E940A
:105620003A618CA38BE197E00E943A618DA38CA133
:105630009DA1C29710F01DA21CA20CA11DA1C80122
:10564000019662E370E00E948262B92E2AE137E09F
:105650003A832983682FCE0101960E946A228BE14A
:1056600097E09A8389836B2DCE0101960E946A226E
:10567000E8966EAD7FADE8974FE050E08FE797E09A
:105680000E941C6510928E07C0928F07D0929007DF
:10569000E0929107F092920783E2E0E7F7E0DE0103
:1056A000A95BBF4F01900D928A95E1F723E2209FFD
:1056B000C001219F900D1124BE01695B7F4F8C5B5F
:1056C0009F4F0E948322109347020093460261E09D
:1056D00088E00E9426136AEF70E080E090E00E946C
:1056E000F31360E088E00E9426130E94521B60E0E2
:1056F00080E00E94201B64E578E189EB99E00E943C
:1057000035116FE777E089EB99E00E94691E61E04F
:1057100080E00E94201B68E478E189EB99E00E9418
:10572000351140918F0750919007609191077091CA
:10573000920722E030E089EB99E00E94A81D63E027
:1057400080E00E94201B63E378E189EB99E00E94EE
:10575000351181E08093B3078093980710929707E3
:1057600066ED72E082E299E00E949F200E9425147B
:105770006093990770939A0780939B0790939C0777
:1057800061E088E00E9426136AEF70E080E090E01C
:105790000E94F31360E088E00E942613D6CCCE016D
:1057A00084960E94E11FCE01895B9F4F0E94E11FFA
:1057B00066ED72E0CE0186599F4F0E949F2059CE20
:1057C00069E974E0CE0101960E942521BE016F5F58
:1057D0007F4FCE0186599F4F0E94F41E182FCE0195
:1057E00001960E94E11F112319F347E050E0BE012A
:1057F00066597F4FCE0101960E94C721CE010196C6
:105800000E94DE1EBE0160597F4FCE0101960E94AC
:10581000661F882351F0CE0101960E94E11FC12C22
:10582000D12C760101E010E0DDCECE010196BECF95
:10583000E0962EAD3FADE0972639310508F019CE40
:10584000682FCE0186599F4F0E946A2012CEC12C2C
:10585000D12C760102E010E0C5CE0230110511F521
:1058600080E797E00E940F1F9093470280934602C3
:105870008F3F9807B9F013E2189F9001199F300DE0
:105880001124BE016C5D7F4FC9018C5B9F4F0E944C
:105890007B1BFE01B496A0E7B7E001900D921A952C
:1058A000E1F715CF0E94521B60E080E00E94201BB0
:1058B00062E278E189EB99E00E94351161E080E0D5
:1058C0000E94201B6FE078E189EB99E00E9435117E
:1058D00062E080E00E94201B61E078E189EB99E0C2
:1058E0000E94351163E080E00E94201B60E272E0BC
:1058F00089EB99E00E94691E61E088E00E9426130E
:1059000064EF71E080E090E00E94F31360E088E0D3
:105910000E94261360ED77E080E090E00E94F31390
:105920000E94521B12CC8F929F92AF92BF92CF9245
:10593000DF92EF92FF920F931F93CF93DF93CDB738
:10594000DEB7C05BD1090FB6F894DEBF0FBECDBF86
:1059500080ED97E00E94B711892B51F00E94251429
:105960006093C0077093C1078093C2079093C307E9
:105970008091BE07811105C08091B507882309F485
:10598000ADC08091BF078111A9C00E94251400916C
:10599000C0071091C1072091C2073091C307601B57
:1059A000710B820B930B603C744D8140910508F4A0
:1059B00095C00E943E2461E088E00E94261368ECB6
:1059C00070E080E090E00E94F31360E088E00E94C5
:1059D00026131092BE071092B5071092B4071092CA
:1059E0005206109251061092500610924F061092D5
:1059F0004E0610924D0610924C0610925C061092C4
:105A00005D06109257060E94811A0E94521B60E0A8
:105A100080E00E94201B66EE76E189EB99E00E940F
:105A2000351161E080E00E94201B64ED76E189EB96
:105A300099E00E94351164EA76E180ED97E00E94DA
:105A4000D71D6DE876E180ED97E00E94D71D65E6F1
:105A500076E180ED97E00E94D71D6EE476E180ED5F
:105A600097E00E94D71D6CE476E180ED97E00E94FC
:105A7000351166ED72E08EE299E00E949F2010924F
:105A80004B0610924A0680ED97E00E94B711892BD1
:105A900009F4FEC080ED97E00E949511182F6CE08C
:105AA00078E08DE698E00E943511612F8DE698E050
:105AB0000E942E1161E078E08DE698E00E94351199
:105AC000612F110F770B880B990B0E947C1C6FEFD5
:105AD00077E08DE698E00E94D71DD5CF0E94EA2698
