:100000000C94EB0D0C94B2230C9487230C945C237A
:100010000C9431230C9406230C94DB220C94B02214
:100020000C9485220C94DD230C94DD230C94DD23A9
:100030000C941C0E0C941C0E0C941C0E0C941C0E98
:100040000C941C0E0C941C0E0C941C0E0C941C0E88
:100050000C941C0E0C941C0E0C941C0E0C943B2245
:100060000C941C0E0C9405220C94DB210C941C0E99
:100070000C941C0E0C941C0E0C941C0E0C941C0E58
:100080000C941C0E0C941C0E0C941C0E0C941C0E48
:100090000C94A5210C947B210C941C0E0C94E7234A
:1000A0000C941C0E0C941C0E0C941C0E0C941C0E28
:1000B0000C941C0E0C941C0E0C941C0E0C941C0E18
:1000C0000C941C0E0C941C0E0C941C0E0C941C0E08
:1000D0000C941C0E0C941C0E0C941C0E0C941C0EF8
:1000E0000C941C0E0C947E110C941A100C94470E58
:1000F0000C94F40F0C94210F0C94DF0E0C940C1044
:100100000C945C0E0C94450E0C947F110C94460ECE
:100110000C94E0370C94BD0E0C9414100C94D90F71
:100120000C941E100C94F3120C940B250C940210DA
:100130000C948E110C94FE0F0C945B0E0C942614F0
:100140000C94E30F0C9419100C94A1110C946E0FE5
:100150000C94D5110C9410100C94810E0C94F61282
:100160000C94DF0F0C94EE0F0C94D10E0C94E70F4F
:100170000C9406100C94A8110C94AE0E0C94F80F6D
:100180000C94EB0F4E414E494E495459494E46CDC1
:10019000CCCC3D0AD7233C17B7D13877CC2B32953E
:1001A00095E6241FB14F0A000020410000C842001C
:1001B000401C4620BCBE4CCA1B0E5AAEC59D7400E6
:1001C000407A10F35A00A0724E18090010A5D4E826
:1001D0000000E87648170000E40B54020000CA9AB9
:1001E0003B000000E1F5050000809698000000400B
:1001F000420F000000A08601000000102700000050
:1002000000E803000000006400000000000A000095
:100210000000000100000000002C76D888DC674F49
:100220000823DFC1DFAE59E1B1B796E5E3E453C679
:100230003AE651997696E8E6C28426EB898C9B6271
:10024000ED407C6FFCEFBC9C9F40F2BAA56FA5F41B
:1002500090055A2AF75C936B6CF9676DC11BFCE043
:10026000E40D47FEF520E6B500D0ED902E03009496
:100270003577050080841E080000204E0A0000002B
:10028000C80C333333330F986E12831141EF8D2135
:1002900014893BE65516CFFEE6DB18D1844B381B9C
:1002A000F77C1D901DA4BBE424203284725E228161
:1002B00000C9F124ECA1E53D2720202020202020AA
:1002C000200053414C494F3A547368200048495428
:1002D000494C41465520494D45544F4B454121001D
:1002E0004B41524942552054454E41004153414EE5
:1002F00054452053414E41005052452D434C4F53DD
:10030000452041435449564500547A3A004C3A003E
:100310004A554D4C413A5473682000494E41544F60
:1003200041204D414A492E2E2E000000210024007C
:1003300027002A002D0030003300010100000401D5
:1003400007010A0100002200250028002B002E00D2
:100350003100340002010000050108010B0100001A
:1003600020002300260029002C002F00320000016D
:100370000000030106010901050505050705080838
:100380000808020202020A0A08080404040401011F
:100390000101010101010303030303030303040734
:1003A00007070C0C0C0C0C0C0C0C020202020606CB
:1003B0000606060606060B0B0B0B0B0B0B0B0102BE
:1003C0001020200808102040102040800201020167
:1003D000080402010102040810204080804020101F
:1003E0000804020180040201804020100804020178
:1003F00008040201010204081020408001020408E0
:100400001020408000000A0B02090C0D0E080703A3
:1004100004010000000000000000000000000000D7
:1004200000000000000000000000000000000000CC
:100430001211100000000000000000000000000089
:10044000000000000000000000005568616D697345
:10045000686F3A206A756D6C61207961207A616DF0
:10046000616E69206B75746F6B6120616E77616E70
:1004700069207961206177616C69202D3E20574C9D
:100480003A200020532E572E56202000534D44274B
:10049000732057415445522056454E440020005386
:1004A000656E642064656661756C74206F72206E81
:1004B00065772070617373776F72642E005061737B
:1004C00073776F726420726573657420746F206433
:1004D000656661756C7421004C6F6E672070726583
:1004E0007373206465746563746564210020002063
:1004F00000496E76616C696420636F6D6D616E6436
:10050000212053656E6420277072696365272C2053
:100510002763616C666163746F72272C20276E6598
:100520007770617373272C206F7220276578697448
:10053000272E0000456E74657265642050617373E8
:10054000776F7264204368616E6765204D6F6465E4
:100550003B2053656E64206E6577207061737377FE
:100560006F72642028757020746F203135206368A5
:100570006172616374657273290020002000436F0B
:100580006E746163743A202B323535373637383321
:10059000303331392E005448414E4B5320464F5290
:1005A000205452555354494E4720534D44277320ED
:1005B00057617465722056656E6473005265747578
:1005C000726E656420746F20576F726B204D6F647C
:1005D000652E002000416C6C2064617461207361A1
:1005E00076656421004F722073656E6420277072F7
:1005F000696365272C202762616C616E6365272C17
:100600002027707265636C6F7365272C20277265D5
:10061000736574272C20276E657770617373272CA0
:10062000206F72202765786974272E0000456E744C
:10063000657265642043616C6962726174696F6E92
:1006400020466163746F72204D6F64653A20536574
:100650006E642063616C6962726174696F6E20669A
:100660006163746F722028652E672E2C2073656E6F
:100670006420312E30290020004F722073656E6493
:10068000202763616C666163746F72272C20276278
:10069000616C616E6365272C2027707265636C6FD7
:1006A0007365272C20277265736574272C20276EAD
:1006B000657770617373272C206F722027657869C6
:1006C00074272E0000456E7465726564205072694F
:1006D000636520506572204C69746572204D6F64AB
:1006E000653A2053656E6420707269636520706599
:1006F00072206C697465722028652E672E2C207319
:10070000656E642035302E30290020002000496EAF
:1007100076616C696420636F6D6D616E6421205336
:10072000656E6420277072696365272C20277072BC
:1007300065636C6F7365272C202763616C6661634A
:10074000746F72272C20277265736574272C2027FD
:100750006E657770617373272C206F722027657820
:100760006974272E0000456E7465726564205061BF
:100770007373776F7264204368616E6765204D6F95
:1007800064653B2053656E64206E657720706173ED
:1007900073776F72642028757020746F2031352054
:1007A00063686172616374657273290020002000C0
:1007B000436F6E746163742055733A202B32353564
:1007C0003736373833303331392E005448414E4BA9
:1007D0005320464F52205452555354494E472053AC
:1007E0004D4427732057617465722056656E64739B
:1007F0000052657475726E656420746F20576F7255
:100800006B204D6F64652E00416C6C2064617461D7
:1008100020736176656421002000200053656E64BA
:1008200020277072696365272C202763616C6661DD
:1008300063746F72272C2027707265636C6F736509
:10084000272C20276E657770617373272C206F72B9
:10085000202765786974272E0000546F74616C201E
:1008600053616C6573206E6F773A20547368200073
:100870000053616C657320726573657421002000FC
:100880004F722073656E6420277072696365272C30
:10089000202762616C616E6365272C20277072656A
:1008A000636C6F7365272C20277265736574272C22
:1008B00020276E657770617373272C206F72202755
:1008C00065786974272E0000456E74657265642032
:1008D00043616C6962726174696F6E204661637412
:1008E0006F72204D6F64653A2053656E64206361BA
:1008F0006C6962726174696F6E20666163746F7295
:100900002028652E672E2C2073656E6420312E30D2
:10091000290020004F722073656E64202763616C8C
:10092000666163746F72272C202762616C616E634D
:1009300065272C2027707265636C6F7365272C20E8
:10094000277265736574272C20276E657770617335
:1009500073272C206F72202765786974272E00007A
:10096000456E7465726564205072696365205065D8
:1009700072204C69746572204D6F64653A2053652E
:100980006E6420707269636520706572206C697492
:1009900065722028652E672E2C2073656E642035C5
:1009A000302E30290020002000496E76616C696489
:1009B00020636F6D6D616E64212053656E64202726
:1009C00073617665272C20277072696365272C2058
:1009D00027707265636C6F7365272C202763616CC9
:1009E000666163746F72272C202762616C616E638D
:1009F00065272C20277265736574272C20276E6568
:100A00007770617373272C206F7220276578697463
:100A1000272E002000436F6E746163743A202B32DE
:100A200035353736373833303331392E0054484175
:100A30004E4B5320464F52205452555354494E4723
:100A400020534D4427732057617465722056656E9C
:100A500064730052657475726E656420746F2057FC
:100A60006F726B204D6F64652E00416C6C20646169
:100A700074612073617665642100200000456E7406
:100A8000657265642050617373776F726420436888
:100A9000616E6765204D6F64653A2053656E642012
:100AA0006E65772070617373776F7264202875703C
:100AB00020746F20313520636861726163746572E0
:100AC000732900200000546F74616C2053616C65C1
:100AD00073206E6F773A2054736820000053616C66
:100AE0006573207265736574212053656E642027D9
:100AF0007072696365272C202763616C666163747B
:100B00006F72272C20276E657770617373272C20F6
:100B10006F72202765786974272E00200053656E58
:100B20006420277072696365272C202763616C66D7
:100B30006163746F72272C20277265736574272C8C
:100B400020276E657770617373272C206F722027C2
:100B500065786974272E0000546F74616C205361AE
:100B60006C65733A205473682000004F72207365DF
:100B70006E6420277072696365272C202762616C80
:100B8000616E6365272C2027707265636C6F7365D7
:100B9000272C20277265736574272C20276E6577B4
:100BA00070617373272C206F722027657869742712
:100BB0002E0000456E74657265642043616C696245
:100BC000726174696F6E20466163746F72204D6F3D
:100BD00064653A2053656E642063616C696272617A
:100BE00074696F6E20666163746F722028652E676A
:100BF0002E2C2073656E6420312E30290020004F8A
:100C0000722073656E64202763616C666163746F24
:100C100072272C202762616C616E6365272C202768
:100C2000707265636C6F7365272C2027726573651E
:100C300074272C20276E657770617373272C206FC3
:100C400072202765786974272E0000456E746572DE
:100C5000656420507269636520506572204C697428
:100C60006572204D6F64653A2053656E6420707222
:100C700069636520706572206C69746572202865EF
:100C80002E672E2C2073656E642035302E3029009F
:100C900020002000416C6C206461746120736176D7
:100CA0006564212053656E6420277072696365272F
:100CB0002C202763616C666163746F72272C202778
:100CC0006E657770617373272C2027707265636C73
:100CD0006F7365272C202762616C616E6365272C1A
:100CE00020277265736574272C206F722027657822
:100CF0006974272E002000200050617373776F7293
:100D000064206D757374206265203420746F203107
:100D10003520636861726163746572732120547257
:100D20007920616761696E2E0053656E64202770BB
:100D300072696365272C2027707265636C6F736519
:100D4000272C202763616C666163746F72272C20E7
:100D50002762616C616E6365272C2027726573655D
:100D600074272C206F72202765786974272E002045
:100D70000050617373776F7264206368616E67659A
:100D80006420616E642073617665642100496E762B
:100D9000616C69642076616C75652120302E30208D
:100DA0002D2031302E30206F6E6C7900200053657D
:100DB0006E6420277072696365272C202770726526
:100DC000636C6F7365272C202763616C66616374A5
:100DD0006F72272C20276E657770617373272C2024
:100DE0006F72202765786974272E000020005072EA
:100DF000652D436C6F7365204F6666736574207351
:100E0000657420262073617665643A2000200049CD
:100E10006E76616C69642063616C69627261746989
:100E20006F6E20666163746F72212053656E64205B
:100E300061206E756D626572206265747765656E9E
:100E400020302E3120616E642031302E302C20274E
:100E50007072696365272C202762616C616E63651F
:100E6000272C20277265736574272C20276E6577E1
:100E700070617373272C206F72202765786974273F
:100E80002E0053656E6420277072696365272C27D6
:100E9000707265636C6F7365272C202762616C61CB
:100EA0006E6365272C20277265736574272C2027B5
:100EB0006E657770617373272C206F7220276578B9
:100EC0006974272E00200043616C69627261746945
:100ED0006F6E20466163746F722073657420616E5B
:100EE000642073617665643A20002000456E746565
:100EF0007265642050617373776F72642043686118
:100F00006E6765204D6F64653A2053656E64206E90
:100F100065772070617373776F7264202875702015
:100F2000746F203135206368617261637465727318
:100F3000290020002000436F6E746163743A202BF7
:100F40003235353736373833303331392E0054485F
:100F5000414E4B5320464F52205452555354494E04
:100F60004720534D4427732057617465722056659E
:100F70006E64730052657475726E656420746F20C0
:100F8000576F726B204D6F64652E00416C6C20644E
:100F90006174612073617665642100200020005334
:100FA000656E6420277072696365272C2027707234
:100FB00065636C6F7365272C202763616C666163C2
:100FC000746F72272C20276E657770617373272CDE
:100FD000206F72202765786974272E0000546F7483
:100FE000616C2053616C6573206E6F773A20547387
:100FF0006820000053616C6573207265736574210D
:1010000000200053656E6420277072696365272C89
:101010002027707265636C6F7365272C20276361CE
:101020006C666163746F72272C2027726573657418
:10103000272C20276E657770617373272C206F72C1
:10104000202765786974272E0000546F74616C2026
:1010500053616C65733A205473682000004F72200E
:1010600073656E64202763616C666163746F7227B9
:101070002C2027707265636C6F7365272C202762A4
:10108000616C616E6365272C202772657365742718
:101090002C20276E657770617373272C206F722068
:1010A0002765786974272E0000456E746572656443
:1010B00020507269636520506572204C69746572B6
:1010C000204D6F64653A2053656E642070726963C9
:1010D0006520706572206C697465722028652E67C2
:1010E0002E2C2073656E642035302E3029002000B0
:1010F0002000496E76616C696420707269636520B6
:10110000706572206C69746572212053656E64206D
:1011100061206E756D626572206265747765656EBB
:10112000203120616E642031303030302E302C2060
:101130002763616C666163746F72272C202762617C
:101140006C616E6365272C20277265736574272C8C
:1011500020276E657770617373272C206F722027AC
:1011600065786974272E0053656E64202770726954
:101170006365272C2027707265636C6F7365272C5D
:10118000202763616C666163746F72272C2027626D
:10119000616C616E6365272C202772657365742707
:1011A0002C20276E657770617373272C206F722057
:1011B0002765786974272E002000507269636520C6
:1011C000706572204C697465722073657420616E5D
:1011D000642073617665643A2054736820002000AF
:1011E000436F6E746163743A202B3235353736376E
:1011F0003833303331392E005448414E4B5320465A
:101200004F52205452555354494E4720534D442772
:10121000732057617465722056656E647300526561
:101220007475726E656420746F20576F726B204DF9
:101230006F64652E00416C6C206461746120736181
:1012400076656421002000200053656E64202770BD
:1012500072696365272C2027707265636C6F7365F4
:10126000272C202763616C666163746F72272C20C2
:10127000276E657770617373272C206F7220276546
:10128000786974272E0000546F74616C2053616C70
:101290006573206E6F773A205473682000005361A5
:1012A0006C65732072657365742100200053656E50
:1012B0006420277072696365272C2027707265632C
:1012C0006C6F7365272C202763616C666163746F94
:1012D00072272C20277265736574272C20276E6572
:1012E0007770617373272C206F722027657869747B
:1012F000272E0000546F74616C2053616C65733A43
:101300002054736820000000456E74657265642087
:1013100050617373776F7264204368616E676520F4
:101320004D6F64653A2053656E64206E657720705A
:10133000617373776F72642028757020746F203129
:1013400035206368617261637465727329002000DF
:101350004F722073656E6420277072696365272C55
:101360002027707265636C6F7365272C202762617C
:101370006C616E6365272C20277265736574272C5A
:1013800020276E657770617373272C206F7220277A
:1013900065786974272E0000456E74657265642057
:1013A00043616C6962726174696F6E204661637437
:1013B0006F72204D6F64653A2053656E64206361DF
:1013C0006C6962726174696F6E20666163746F72BA
:1013D0002028652E672E2C2073656E6420312E30F8
:1013E000290020004F722073656E64202763616CB2
:1013F000666163746F72272C2027707265636C6F4F
:101400007365272C202762616C616E6365272C2031
:10141000277265736574272C20276E65777061735A
:1014200073272C206F72202765786974272E00009F
:10143000456E7465726564205072696365205065FD
:1014400072204C69746572204D6F64653A20536553
:101450006E6420707269636520706572206C6974B7
:1014600065722028652E672E2C2073656E642035EA
:10147000302E30290020002000496E76616C6964AE
:1014800020636F6D6D616E64212053656E6420274B
:101490007072696365272C2027707265636C6F73A7
:1014A000652C27202763616C666163746F72272C3B
:1014B000202762616C616E6365272C20277265733B
:1014C0006574272C20276E657770617373272C2035
:1014D0006F72202765786974272E00200053656E8F
:1014E0006420277072696365272C202770726563FA
:1014F0006C6F7365272C202763616C666163746F62
:1015000072272C20276E657770617373272C206FEC
:1015100072202765786974272E000053656E642059
:101520006E65772076616C75652028652E672E20A4
:10153000302E3329206F7220276578697427004385
:10154000757272656E74206F66667365743A2000FA
:10155000456E7465726564205072652D436C6F73BF
:1015600065204F6666736574204D6F6465002000CA
:101570002000436F6E746163742075733A202B32C0
:1015800035353736373833303331392E005448410A
:101590004E4B5320464F52205452555354494E47B8
:1015A00020534D4427732057617465722056656E31
:1015B00064730052657475726E656420746F205791
:1015C0006F726B204D6F64652E00416C6C206461FE
:1015D00074612073617665642100200020005365EA
:1015E0006E6420277072696365272C202763616C05
:1015F000666163746F72272C2027707265636C6F4D
:101600007365272C20276E657770617373272C20F4
:101610006F72202765786974272E002000546F743C
:10162000616C2053616C6573206E6F773A20547340
:10163000682000200053616C6573207265736574C7
:1016400021002000200053656E64202770726963BA
:1016500065272C202763616C666163746F72272C89
:101660002027707265636C6F7365272C2027726565
:10167000736574272C20276E657770617373272C30
:10168000206F72202765786974272E002000546F20
:1016900074616C2053616C65733A20547368200048
:1016A00020002000456E746572656420506173737C
:1016B000776F7264204368616E6765204D6F646563
:1016C0003A2053656E64206E65772070617373777E
:1016D0006F72642028757020746F20313520636824
:1016E000617261637465727329002000004F72207B
:1016F00073656E6420277072696365272C202770DC
:101700007265636C6F7365272C202762616C616E54
:101710006365272C20277265736574272C20276E3C
:10172000657770617373272C206F72202765786945
:1017300074272E0000456E74657265642043616CE9
:101740006962726174696F6E20466163746F7220A2
:101750004D6F64653A2053656E642063616C696205
:10176000726174696F6E20666163746F72202865A0
:101770002E672E2C2073656E6420312E30290000D8
:1017800020004F722073656E64202763616C666170
:1017900063746F72272C2027707265636C6F73659A
:1017A000272C202762616C616E6365272C202772CD
:1017B00065736574272C20276E65777061737327B6
:1017C0002C206F72202765786974272E0020004531
:1017D0006E7465726564205072696365205065722D
:1017E000204C69746572204D6F64653A2053656EB4
:1017F0006420707269636520706572206C6974651D
:10180000722028652E672E2C2073656E642035307B
:101810002E302900200020005072657373207265FD
:1018200073657420627574746F6E20666F722035F4
:10183000207365636F6E647320746F2072657665C4
:10184000727420746F2064656661756C74207061B9
:101850007373776F72642E00436F6E7461637420CC
:10186000746865206F776E657220666F722066758A
:10187000727468657220617373697374616E6365F5
:101880002E00496E636F72726563742070617373AA
:10189000776F7264212054727920616761696E20CC
:1018A0006F72200020004F722073656E64202762E3
:1018B000616C616E63652720746F20636865636B7C
:1018C0002062616C616E63652C2027707265636CA9
:1018D0006F73652720746F207365742056616C7672
:1018E0006520636C6F73652C2027726573657427A0
:1018F00020746F2072657365742073616C65732C3E
:10190000206F722027657869742720746F207265B4
:101910007475726E20746F20576F726B204D6F64F8
:10192000652E00200053656E642027707269636520
:101930002720746F206368616E6765207072696329
:101940006520706572206C697465722C2027636154
:101950006C666163746F722720746F206368616EB8
:1019600067652063616C6962726174696F6E20667D
:101970006163746F722C20276E65777061737327B3
:1019800020746F206368616E676520706173737780
:101990006F72642E0020005072652D436C6F73656A
:1019A000204F6666736574206C6F616465643A20CD
:1019B00000200043616C6962726174696F6E204639
:1019C0006163746F723A2000200050726963652071
:1019D000706572204C697465723A205473682000F7
:1019E000200043757272656E7420446174613A0020
:1019F0002000534D4427732057617465722056654B
:101A00006E64733A20576173696C69616E61206E10
:101A10006173693A202B32353537363738333033F6
:101A200031392E002000436F6E746163743A202BAD
:101A30003235353736373833303331392E00544864
:101A4000414E4B5320464F52205452555354494E09
:101A50004720534D442773205761746572205665A3
:101A60006E64730052657475726E656420746F20C5
:101A7000576F726B204D6F64652E00426C756574F4
:101A80006F6F74682069646C652074696D656F752B
:101A90007420726561636865642E20416C6C2064FB
:101AA000617461207361766564210052657475729A
:101AB0006E696E6720746F20576F726B00426C7591
:101AC00065746F6F74682054696D656F757400205C
:101AD0002020202020202020202020202020200026
:101AE000576173696C69616E612041646D696E0054
:101AF0004D415348494E4520494D4546554E47575F
:101B000041005473683A20004F4E47455A412053D4
:101B1000414C494F0053414C494F205473683A009F
:101B2000527564692062616164617965004D415458
:101B3000454E47454E455A4F00576173696C696180
:101B40006E612041646D696E004D415348494E45B8
:101B500020494D4546554E47574100574153494C42
:101B600049414E41204E41204D4D494C494B490081
:101B700056414C564520494D455348494E445741DE
:101B80002120202000574153494C49414E41204ECD
:101B900041204D4D4C494B490056414C564520493A
:101BA0004D455348494E44574121002020202020D4
:101BB0002020200053414C494F3A5473682000487C
:101BC0004954494C41465520494D45544F4B454198
:101BD00021000B25E03711241FBECFEFD1E2DEBF7D
:101BE000CDBF00E00CBF26E0A6E4B3E001C01D922B
:101BF000AB32B207E1F713E0A0E0B2E0E6E1F3E8D0
:101C000000E00BBF02C007900D92A634B107D9F7D0
:101C10001DE0CAEEDDE000E006C021970109802F3B
:101C2000FE010E94163FC93ED10780E00807A9F7D0
:101C30000E948A250C9479410C940000FC01A08933
:101C4000B18982E08C93A485B5851C92A685B78561
:101C50008FEC8C93108EA489B58986E08C93A28931
:101C6000B3898C9180618C93A289B3898C918860AF
:101C70008C93A289B3898C9180688C930288F389B4
:101C8000E02D80818F7D808308950895089580914F
:101C9000960490919704A0919804B09199040196AC
:101CA000A11DB11D8093960490939704A09398046E
:101CB000B0939904089508950895EF92FF920F93B9
:101CC0001F93CF93DF938C017B01D0E0C0E0F7013D
:101CD000EC0FFD1F6491662361F0D801ED91FC913A
:101CE0000190F081E02DC8011995892B11F0219602
:101CF000EECFCE01DF91CF911F910F91FF90EF902A
:101D00000895AF92BF92CF92DF92EF92FF920F931E
:101D10001F93CF93DF936C017B018B01040F151F81
:101D2000EB015E01AE18BF08C017D10759F06991E9
:101D3000D601ED91FC910190F081E02DC60119953D
:101D4000892B79F7C501DF91CF911F910F91FF90FA
:101D5000EF90DF90CF90BF90AF900895FC01538D2E
:101D6000448D252F30E0842F90E0821B930B541775
:101D700010F0CF96089501970895FC01918D828D02
:101D8000981761F0A28DAE0FBF2FB11D5D968C919B
:101D9000928D9F5F9F73928F90E008958FEF9FEFDA
:101DA0000895FC01918D828D981731F0828DE80F96
:101DB000F11D858D90E008958FEF9FEF0895FC0150
:101DC000918D228D892F90E0805C9F4F821B91091D
:101DD0008F739927089581EC94E00E94DF0E21E033
:101DE000892B09F420E0822F08958EE595E00E946A
:101DF000DF0E21E0892B09F420E0822F0895FC01F9
:101E0000A48DA80FB92FB11DA35ABF4F2C91848D5B
:101E100090E001968F739927848FA689B7892C93B8
:101E2000A089B1898C91837080648C93938D848D0B
:101E3000981306C00288F389E02D80818F7D80830E
:101E40000895EF92FF920F931F93CF93DF93EC01CE
:101E500081E0888F9B8D8C8D98131AC0E889F98951
:101E6000808185FF15C09FB7F894EE89FF89608354
:101E7000E889F98980818370806480839FBF81E0D5
:101E800090E0DF91CF911F910F91FF90EF90089517
:101E9000F62E0B8D10E00F5F1F4F0F731127E02EF2
:101EA0008C8D8E110CC00FB607FCFACFE889F9892A
:101EB000808185FFF5CFCE010E94FF0EF1CFEB8D23
:101EC000EC0FFD2FF11DE35AFF4FF0829FB7F894FE
:101ED0000B8FEA89FB8980818062CFCFCF93DF931C
:101EE000EC01888D8823B9F0AA89BB89E889F98932
:101EF0008C9185FD03C0808186FD0DC00FB607FC67
:101F0000F7CF8C9185FFF2CF808185FFEDCFCE0199
:101F10000E94FF0EE9CFDF91CF91089580E090E01D
:101F2000892B29F00E94F50E81110E94000080E0AB
:101F300090E0892B29F00E94EB0E81110E94000095
:101F400080E090E0892B49F080E090E0892B29F037
:101F50000E94000081110E94000080E090E0892B27
:101F600049F080E090E0892B29F00E940000811167
:101F70000C94000008958150823108F05AC0E82F77
:101F8000F0E08827E953F04F8F4F0C94163FE70F8E
:101F9000EB0FD90FDF0FE30F1910EE0FF40FF80F4F
:101FA000FE0F021006100C101010191014101A1049
:101FB0001E10809180008F7780938000089580911B
:101FC00080008F7DF9CF80918000877FF5CF84B529
:101FD0008F7784BD089584B58F7DFBCF8091B0004D
:101FE0008F778093B00008958091B0008F7DF9CFF6
:101FF000809190008F778093900008958091900059
:102000008F7DF9CF80919000877FF5CF8091A000E0
:102010008F778093A00008958091A0008F7DF9CFE5
:102020008091A000877FF5CF809120018F778093EA
:1020300020010895809120018F7DF9CF80912001AA
:10204000877FF5CFCF93DF93282F30E0F901EC5F46
:10205000FB4F8491F901E254FC4FD491F901E85807
:10206000FC4FC491CC23A1F081110E94BB0FEC2F37
:10207000F0E0EE0FFF1FE25AFC4FA591B491EC91F6
:10208000ED2381E090E009F480E0DF91CF910895A5
:1020900080E090E0FACF1F93CF93DF93282F30E0BA
:1020A000F901EC5FFB4F8491F901E254FC4FD491AC
:1020B000F901E858FC4FC491CC23A9F0162F8111E7
:1020C0000E94BB0FEC2FF0E0EE0FFF1FEC5BFC4F0C
:1020D000A591B4918FB7F894EC91111108C0D095E7
:1020E000DE23DC938FBFDF91CF911F910895DE2B0C
:1020F000F8CFCF93DF9390E0FC01E254FC4F2491A2
:1021000088589C4FFC0184918823C9F090E0880F87
:10211000991FFC01E65DFC4FA591B491FC01EC5BBD
:10212000FC4FC591D49161110DC09FB7F8948C916B
:10213000209582238C938881282328839FBFDF9159
:10214000CF910895623051F49FB7F8943C91822F5B
:10215000809583238C93E8812E2BEFCF8FB7F89453
:10216000EC912E2B2C938FBFEACF3FB7F894809140
:10217000100490911104A0911204B091130426B59B
:10218000A89B05C02F3F19F00196A11DB11D3FBFAF
:10219000BA2FA92F982F8827BC01CD01620F711D7E
:1021A000811D911D42E0660F771F881F991F4A9578
:1021B000D1F708958F929F92AF92BF92CF92DF9204
:1021C000EF92FF924B015C010E94B5106B017C0104
:1021D0000E94B5106C197D098E099F09683E7340F5
:1021E00081059105A8F321E0821A9108A108B108A0
:1021F00088EEC80E83E0D81EE11CF11C8114910406
:10220000A104B10429F7FF90EF90DF90CF90BF9029
:10221000AF909F908F9008952FB7F89460910C0421
:1022200070910D0480910E0490910F042FBF0895BA
:1022300020919803260F3327331F21323105ECF408
:102240002091E103FC0190E080E0243069F082E01D
:102250000895A09198032191AC0148585C4FA40FB8
:10226000B52FB11D2C930196861798F38091980392
:10227000680F6093980380E0089581E008951092BC
:10228000E10381E08093E0031092BB0361E084E10D
:102290000E944B1061E085E10E944B10E9EBF0E0F9
:1022A00080818E7F808380818D7F808388E480938E
:1022B000B80085E48093BC000895CF93DF9391E04C
:1022C000909377038823B9F0C091B800D091BA00F9
:1022D0008091BC008A7B8093BC0060E084E10E9416
:1022E0004B1060E085E10E944B100E943F11D0939B
:1022F000BA00C093B800DF91CF9108950895E0919E
:10230000C0048091BF04E81730F4F0E0E95AFC4FB4
:10231000808190E008958FEF9FEF08959091C00421
:102320008091BF042FEF3FEF981748F4E92FF0E0BA
:10233000E95AFC4F208130E09F5F9093C004C901AF
:1023400008958091BF049091C004891B990B089552
:10235000CF92DF92EF92FF920F931F93CF93DF9371
:102360007C01CB018A012091E703222389F0EB0154
:102370006B01C40ED51ECC15DD0569F06991D7013E
:10238000ED91FC910190F081E02DC7011995F3CFFB
:10239000642F0E941811C801DF91CF911F910F91F6
:1023A000FF90EF90DF90CF900895CF93DF931F922F
:1023B000CDB7DEB769832091E7032223F9F020919E
:1023C000BD04203258F021E030E0FC013383228349
:1023D00090E080E00F90DF91CF9108958091BE044E
:1023E000E82FF0E0E851FC4F998190838F5F809354
:1023F000BE048093BD0481E090E0ECCF61E0CE01AB
:1024000001960E941811F7CFCF92DF92EF92FF92C0
:102410000F931F93CF93DF93FC01C48121E020939E
:10242000E703C09308041092BE041092BD04838594
:10243000682B8BEF95E00E94D511D091BD04D1326D
:1024400008F092C00E94B5106B017C018091E103FD
:10245000811165C082E08093E10381E08093E00315
:102460008FEF8093DF031092DE03D093DD03A8EE9D
:10247000B3E0EDEBF3E080E0D81385C01092BC032D
:102480008091BC03CC0FC82BC093BC038091BB03CD
:10249000813009F07CC01092BB030E94B5106B0123
:1024A0007C018091BC038093BB008091E3039091F9
:1024B000E403A091E503B091E603892B8A2B8B2BD3
:1024C00099F00E94B5100091E3031091E40320916C
:1024D000E5033091E6036C197D098E099F09061703
:1024E000170728073907E0F18091BC0083FDD9CF99
:1024F00085EC8093BC000E94B5106B017C0180913B
:10250000E103823009F445C08091DF038F3F61F120
:102510008091DF03803241F18091DF0325C08091FB
:10252000E3039091E403A091E503B091E603892BC6
:102530008A2B8B2B09F48ACF0E94B5100091E303FC
:102540001091E4032091E5033091E6036C197D09B5
:102550008E099F09061717072807390708F076CF55
:102560008091E2030E945D111092BE041092BD049E
:102570001092E703DF91CF911F910F91FF90EF90A1
:10258000DF90CF9008959D9191938F5F75CF85EEE9
:10259000B0CF8091E3039091E403A091E503B09163
:1025A000E603892B8A2B8B2B09F4A9CF0E94B51047
:1025B0000091E3031091E4032091E5033091E603D9
:1025C0006C197D098E099F09061717072807390717
:1025D00008F095CFC5CF88E08093240660E089E1BC
:1025E00096E00C94041290E080E0089580918C04B1
:1025F000811136C080918B04811132C060918304B7
:1026000070918404809185049091860420E030E0EC
:1026100048E452E40E94C93D6093830470938404AB
:102620008093850490938604609183047091840460
:1026300080918504909186040E94A73E60939E0439
:1026400070939F048093A0049093A1040E940C11A6
:102650006093AA047093AB048093AC049093AD0490
:10266000089581EC94E00E94DF0E892B29F081EC23
:1026700094E00E94BD0EF5CF08950F931F93CF9362
:102680008C01C62F0E9404126C2F6460C8010E9446
:1026900004126C2F6B7FC8010E94041283EC90E03F
:1026A0000197F1F7CF911F910F9108950F931F9309
:1026B000CF93DF938C01D62FC42F607F642B0E94B1
:1026C0003D1380E1D89FB00111246C2BC801DF912C
:1026D000CF911F910F910C943D13CF93DF9300D0B6
:1026E00000D01F921F92CDB7DEB798E0E3E3F2E08F
:1026F000DE01119601900D929A95E1F790912106D5
:10270000961708F46FEF262F30E0220F331F41E0B9
:1027100050E04C0F5D1F240F351FF9016081680FD9
:10272000606840E089E196E028960FB6F894DEBF35
:102730000FBECDBFDF91CF910C94561340E061E006
:1027400089E196E00E9456138BE39FE10197F1F730
:102750000895CF93DF931092C0041092BF0410929B
:10276000BE041092BD040E943F1185E49EE0909348
:10277000BA048093B90486E49EE09093BC048093ED
:10278000BB0410921E0680912306823018F098E058
:1027900090931E068093210662E370E080E090E053
:1027A0000E94DA106091240689E196E00E940412EA
:1027B00068EE73E080E090E00E94DA1060E389E167
:1027C00096E00E943D13CBE4D6E4CE010197F1F7E9
:1027D00060E389E196E00E943D132197F1F760E301
:1027E00089E196E00E943D1383E592E00197F1F7BD
:1027F00060E289E196E00E943D1360911E066062EE
:1028000040E089E196E00E94561384E080931F0621
:1028100040E06CE089E196E00E9456130E949E130E
:1028200082E08093200640E066E089E196E00E9425
:10283000561340E062E089E196E00E9456138BE374
:102840009FE10197F1F7DF91CF91089541E00E9458
:10285000561381E090E00895FB0101900020E9F714
:102860003197AF01461B570BDC01ED91FC910280C3
:10287000F381E02D1994CF93DF93BC0181EC94E0B8
:102880000E945D0EEC016BE672E081EC94E00E9428
:102890002C148C0F9D1FDF91CF9108958F929F92E2
:1028A000AF92BF92EF92FF920F931F93CF93DF935C
:1028B000CDB7DEB7A1970FB6F894DEBF0FBECDBF80
:1028C0007C01FA01CB0119A2223008F42AE08E0122
:1028D0000F5D1F4F822E912CB12CA12CBF01A501A1
:1028E00094010E94F43EF901CA016A300CF5605D62
:1028F000D8016E938D01232B242B252B79F790E0A3
:1029000080E0109721F0BD01C7010E942C14A19610
:102910000FB6F894DEBF0FBECDBFDF91CF911F91F0
:102920000F91FF90EF90BF90AF909F908F90089580
:10293000695CDECF0F931F93CF93DF93EC012AE006
:102940000E944E148C016BE672E0CE010E942C14A2
:10295000800F911FDF91CF911F910F9108952F92BA
:102960003F924F925F926F927F928F929F92AF921F
:10297000BF92CF92DF92EF92FF921F93CF93DF939C
:10298000EC016A017B01722EAB019601CB01B6010D
:102990000E94DB3E6EE672E0811126C046015701BF
:1029A000E894B7F82FEF3FEF4FE75FE7C501B401B9
:1029B0000E94DB3E81110CC02FEF3FEF4FE75FE736
:1029C000C501B4010E94713C62E772E0181664F020
:1029D0002FEF3FEF4FE75FE4C701B6010E94D63EFD
:1029E0001816B4F466E772E0CE01DF91CF911F9123
:1029F000FF90EF90DF90CF90BF90AF909F908F901F
:102A00007F906F905F904F903F902F900C942C147C
:102A10002FEF3FEF4FE75FECC701B6010E94713C1B
:102A200087FDE0CF20E030E0A901C701B6010E9498
:102A3000713C312C212C87FF0DC0E881F981019078
:102A4000F081E02D6DE2CE0119951C01F7FAF094AA
:102A5000F7F8F09410E060E070E080E09FE371161A
:102A600041F020E030E040E251E40E94353E1F5F3B
:102A7000F6CFA70196010E94C93D2B013C010E949F
:102A8000A73E4B015C012AE0BC01A401CE010E94DB
:102A90004E147C01E20CF31C1123E1F1C501B401D9
:102AA0000E94763C9B01AC01C301B2010E94C83D6B
:102AB0004B015C01E881F9810190F081E02D6EE22B
:102AC000CE011995E80EF91E115020F120E030E0FA
:102AD00040E251E4C501B4010E94D73C2B013C0106
:102AE0000E94A73E4B01B12CA12C2AE0B501A40104
:102AF000CE010E944E14E80EF91EC501B4010E94D9
:102B0000763C9B01AC01C301B2010E94C83D4B0160
:102B10005C01DACFC701DF91CF911F91FF90EF9059
:102B2000DF90CF90BF90AF909F908F907F906F90ED
:102B30005F904F903F902F900895CF93DF93AB011C
:102B4000BC0122E081EC94E00E94AF14EC016BE642
:102B500072E081EC94E00E942C148C0F9D1FDF9199
:102B6000CF910895FB0144815581FC012481358179
:102B70002417350778F080819181009759F0FB0187
:102B8000608171816115710529F00E945C4121E02D
:102B9000892B09F020E0822F08950F931F93CF9384
:102BA000DF938C01EB01FC01808191810097E1F0C2
:102BB0006881798161157105A9F0428153812C8169
:102BC0003D814217530770F00E9455418C819D81D1
:102BD000F801958384831D821C82DF91CF911F9120
:102BE0000F9108950E94CE3F88819981F8019183C9
:102BF00080838A819B81938382838C819D8195834D
:102C00008483198218821B821A82E5CFCF93DF93C7
:102C1000EC0188819981009711F00E94CE3F1982C2
:102C200018821D821C821B821A82DF91CF91089527
:102C3000FC0180819181009711F00C94CE3F0895A2
:102C40000F931F93CF93DF93EC01888199810097B5
:102C500059F02A813B812617370730F081E0DF9158
:102C6000CF911F910F9108958B016F5F7F4F0E944D
:102C70005740009759F0998388831B830A832C81DE
:102C80003D81232B59F7FC011082E8CF80E0E7CF8C
:102C9000EF92FF920F931F93CF93DF93611571050E
:102CA00041F480E0DF91CF911F910F91FF90EF9061
:102CB000089541155105B1F07B01EC010C811D8196
:102CC000040F151FB8010E942016882351F3288194
:102CD00039818C819D81B701820F931F0E945541DC
:102CE0001D830C8381E0DECFCF93DF93EC01FB01EA
:102CF00001900020E9F73197AF01461B570B0E9466
:102D00004816811103C0CE010E940616CE01DF9144
:102D1000CF910895CF93DF93EC01FB01448155815E
:102D2000608171810E944816811103C0CE010E940A
:102D30000616CE01DF91CF910895EF92FF920F9387
:102D40001F93CF93DF93EC017B018A01BA010E94AC
:102D5000201681110BC0CE010E940616CE01DF9114
:102D6000CF911F910F91FF90EF9008951D830C83D9
:102D7000B701888199810E945541F0CFFB010190F4
:102D80000020E9F73197AF01461B570B0C949D16B5
:102D9000FB01DC0111961C921E9213961C921E924E
:102DA000129715961C921E9214978617970749F052
:102DB000608171816115710521F0448155810C9408
:102DC0009D160895FC0111821082138212821582D1
:102DD0001482FB0101900020E9F73197AF01461BF7
:102DE000570B0C949D16AF92BF92CF92DF92EF9249
:102DF000FF920F931F93CF93DF936C015B017A01D6
:102E000089012417350720F48F2D7901042F182FFD
:102E10006DE672E0C6010E94E216D5011496CD91CE
:102E2000DC91EC16FD06E0F40C171D0708F4E80130
:102E3000D501ED91FC911197EC0FFD1F10811082CF
:102E40006D917C916E0D7F1DC60161157105A1F01C
:102E50000E94BE16F50180819181C80FD91F188389
:102E6000C601DF91CF911F910F91FF90EF90DF90FE
:102E7000CF90BF90AF9008950E940616EBCFEF92CF
:102E8000FF920F931F93CF93DF93CDB7DEB7A19738
:102E90000FB6F894DEBF0FBECDBF7C01CB01BA01E7
:102EA000F70111821082138212821582148242E08D
:102EB000420F8E010F5F1F4F0E94EC37009789F081
:102EC000BC01C7010E94BE16A1960FB6F894DEBFE2
:102ED0000FBECDBFDF91CF911F910F91FF90EF906B
:102EE0000895C7010E940616EFCF4F925F926F922E
:102EF0007F928F929F92AF92BF92EF92FF920F9329
:102F00001F93CF93DF93CDB7DEB76E970FB6F894CC
:102F1000DEBF0FBECDBF4B015C0129013A01B801F4
:102F2000A70122E0CE0143960E943F1723E0B301A0
:102F3000A201CE010D960E943F1723E0B501A40126
:102F4000CE0107960E943F176AE772E0CE01019614
:102F50000E94E216BE01695F7F4FCE0101960E947A
:102F60008A1668E373E00E947416BE01635F7F4FA8
:102F70000E948A1668E373E00E947416BE016D5EBB
:102F80007F4F0E948A16BC01CE0149960E94C81646
:102F9000CE0149960E941816CE0101960E9418167D
:102FA000CE0107960E941816CE010D960E941816A3
:102FB000CE0143960E9418166E960FB6F894DEBFA7
:102FC0000FBECDBFDF91CF911F910F91FF90EF907A
:102FD000BF90AF909F908F907F906F905F904F9039
:102FE000089585ED8093BC008091E3039091E40304
:102FF000A091E503B091E6030796A11DB11D23E062
:10300000B695A795979587952A95D1F72091BC00FD
:1030100024FD03C01092E10308954091E303509111
:10302000E4036091E5037091E603452B462B472BA3
:1030300069F30097A105B10541F02AE22A95F1F75D
:1030400000C00197A109B109E1CF8091E2030C947E
:103050005D11BF92CF92DF92EF92FF920F931F9379
:10306000CF93DF931F921F92CDB7DEB78C017B0108
:10307000D70114968D919C911597009789F0ED9149
:10308000FC911197309761F00197E80FF91F2081AB
:10309000203231F415969C938E9314971082E8CFCA
:1030A00085E0C82ED12C90E2B92EB9821A8241E077
:1030B00050E0BE016F5F7F4FC7010E944816B1E02C
:1030C000CB1AD10891F7F801118210821382128273
:1030D00015821482B701C8010E94CD15C8010F9056
:1030E0000F90DF91CF911F910F91FF90EF90DF90A4
:1030F000CF90BF900895FC01808191810C94983D00
:10310000CF92DF92EF92FF920F931F93CF93DF93B3
:103110001F921F92CDB7DEB76C017C0108E010E072
:103120001A830983CE0101960E947B18F7018193CF
:103130007F010F5F1F4F0831110591F7C6010F90F6
:103140000F90DF91CF911F910F91FF90EF90DF9043
:10315000CF900895AF92BF92CF92DF92EF92FF92FD
:103160000F931F93CF93DF931F921F92CDB7DEB7BC
:103170008B016B0124E0C20ED11C7B015C01A61AFD
:10318000B70AC5018E0D9F1D9A838983CE010196D2
:103190000E947B18F70181937F01EC15FD0589F7EB
:1031A000C8010F900F90DF91CF911F910F91FF9069
:1031B000EF90DF90CF90BF90AF9008952F923F9205
:1031C0004F925F926F927F928F929F92AF92BF9237
:1031D000CF92DF92EF92FF920F931F93CF93DF93E3
:1031E00000D000D000D01F921F92CDB7DEB76C0187
:1031F0001B018FEF9FEFF60191838083FB0110820B
:103200001182128213820FE510E0F12CE12C1B8653
:10321000412C512C3201CE0101965C01480198E00D
:10322000890E911C1A870987CE0109960E947B1886
:10323000F50181935F010F5F1F4F0815190591F785
:103240008D819E81AF81B8858F3FFFEF9F07AF07CC
:10325000BF07D9F02B85222351F0F1014081518124
:1032600062817381481759076A077B0760F4F1018F
:1032700080839183A283B383F601F182E082498047
:103280005A806B807C80F1E0FB872FEFE21AF20A14
:1032900080E1E816F10409F0BECF9B85911105C0CD
:1032A0008EEF9FEFF60191838083C301B2012B96CD
:1032B0000FB6F894DEBF0FBECDBFDF91CF911F9147
:1032C0000F91FF90EF90DF90CF90BF90AF909F90C5
:1032D0008F907F906F905F904F903F902F900895C8
:1032E0001F93CF93DF93EC01162F0E947B18811759
:1032F00029F0612F888199810E94A03DCE01DF9144
:10330000CF911F910895EF92FF920F931F93CF9348
:10331000DF931F921F92CDB7DEB78DE1E82E82E0DA
:10332000F82E08E010E01A830983F70161917F010C
:10333000CE0101960E9470190F5F1F4F08311105D1
:1033400091F78DE192E00F900F90DF91CF911F9157
:103350000F91FF90EF900895CF93DF93CDB7DEB735
:1033600060970FB6F894DEBF0FBECDBF0E948319E1
:10337000CE0101960E9480186DE172E0CE010196A7
:103380000E944C41892B11F00E94831960960FB660
:10339000F894DEBF0FBECDBFDF91CF910895AF92FD
:1033A000BF92CF92DF92EF92FF920F931F93CF9332
:1033B000DF931F921F92CDB7DEB78B016B0124E024
:1033C000C20ED11C7B015C01A61AB70AC5018E0D85
:1033D0009F1D9A838983F70161917F01CE01019638
:1033E0000E947019EC14FD0489F7C8010F900F902A
:1033F000DF91CF911F910F91FF90EF90DF90CF90D1
:10340000BF90AF900895CF92DF92EF92FF920F930B
:103410001F93CF93DF9300D01F92CDB7DEB710E09C
:1034200000E068E072E088E190E00E94CF19BE0100
:103430006F5F7F4F88E190E00E94AA1820910802F8
:103440003091090240910A0250910B0269817A8100
:103450008B819C810E94C83D6B017C0120E030E0A3
:10346000A9010E94D63E1816BCF420E030E040E8E6
:103470005FE3C701B6010E94713C87FF17C00F9040
:103480000F900F900F90DF91CF911F910F91FF90B0
:10349000EF90DF90CF90089520E030E040E85FEBC0
:1034A000C701B6010E94D63E18164CF30F5F1F4F9E
:1034B0000330110509F0B5CFE2CFCF93DF9300D0F1
:1034C0001F92CDB7DEB764E072E084E090E00E9426
:1034D000CF19BE016F5F7F4F84E090E00E94AA1871
:1034E000209104023091050240910602509107029A
:1034F00069817A818B819C810E94713C882331F0A3
:1035000064E072E084E090E00E94CF190F900F9089
:103510000F900F90DF91CF910895EF92FF920F934C
:103520001F93CF93DF931F921F92CDB7DEB784E135
:10353000E82E84E0F82E02E210E01A830983F701F6
:1035400061917F01CE0101960E9470190F5F1F4F9C
:103550000F35110591F70F900F90DF91CF911F91CB
:103560000F91FF90EF9008952F923F924F925F92AC
:103570006F927F928F929F92AF92BF92CF92DF9283
:10358000EF92FF920F931F93CF93DF93CDB7DEB7E8
:1035900068970FB6F894DEBF0FBECDBF90E2292E1C
:1035A000312C8EE595E00E94DF0E892B09F4F7C1DE
:1035B0008EE595E00E94BD0E20910B0630910C0621
:1035C0008A3019F08D3009F0DAC1232B51F367E00E
:1035D00076E0CE0143960E94C81660E872E0CE0104
:1035E00001960E94E216BE016F5F7F4FCE014396A7
:1035F0000E94B215182FCE0101960E9418161123B1
:1036000009F4CCC02F89388D49E050E0BE016D5ED1
:103610007F4FCE0107960E94F3160B851C8501157E
:10362000110561F0AF80B8846AE370E0C5010E94C3
:1036300041417C01EA18FB08892B19F4EE24EA9435
:10364000FE2C57018FEFA81AB80AA016B10608F091
:10365000A0C08F8098846AE370E0C4018A0D9B1D2E
:103660000E944141009709F494C01E141F040CF0FD
:1036700090C08C0108191909101611060CF089C0A8
:10368000970150E040E0BE01695F7F4FCE01019697
:103690000E94F31689819A81412C512C32010097A6
:1036A00021F00E940A382B013C01CE0101960E94B4
:1036B00018169801A501BE01695F7F4FCE010196E2
:1036C0000E94F31689819A81812C912C54010097D4
:1036D00021F00E940A384B015C01CE0101960E9444
:1036E00018162B853C85A8014F5F5F4FBE01695FAF
:1036F0007F4FCE0101960E94F31689819A81C12CD9
:10370000D12C7601009721F00E940A386B017C01D0
:10371000CE0101960E94181620E030E0A901C301F5
:10372000B2010E94D63E87FD0AC040920802509224
:10373000090260920A0270920B020E94031A20E0B2
:1037400030E0A901C501B4010E94D63E87FD0AC040
:103750008092040290920502A0920602B0920702A3
:103760000E945D1A20E030E0A901C701B6010E9465
:10377000D63E87FD0EC0C0920002D0920102E092B8
:103780000202F092030260E072E08CE190E00E949D
:10379000CF19CE0107960E94181640C06AE872E061
:1037A000CE0101960E94E216BE016F5F7F4FCE01EF
:1037B00043960E94B215182FCE0101960E9418164A
:1037C0001123D9F110918C042F89388D45E050E0F8
:1037D000BE016D5E7F4FCE0101960E94F316898176
:1037E0009A81009731F10E940E3821E06130710515
:1037F0008105910509F020E020938C04CE0101960B
:103800000E94181680918C04181741F060918C0466
:103810003A822982CE0101960E947019CE01439608
:103820000E9418166DE672E087E096E00E94BE16D0
:10383000B8CE60E070E0CB01D8CF60E972E0CE0195
:1038400001960E94E216BE016F5F7F4FCE01439644
:103850000E94B215182FCE0101960E94181611234E
:1038600009F12F89388D46E050E0BE016D5E7F4F33
:10387000CE0101960E94F31689819A81009771F01A
:103880000E940E3821E0613071058105910509F033
:1038900020E020938B04CE0101967DCF60E070E0A4
:1038A000CB01F0CF67E972E0CE0101960E94E216EB
:1038B000BE016F5F7F4FCE0143960E94B215182F55
:1038C000CE0101960E941816112309F4A7CF2F8963
:1038D000388D4BE050E0BE016D5E7F4FCE010D96FE
:1038E0000E94F31609891A890115110549F0ED8422
:1038F000FE8463EA72E0C7010E944C41892B49F5BE
:10390000109214040E948D1A6DE076E0CE010796A5
:103910000E94C816BE01695F7F4FCE0101960E94CA
:103920002918BE016F5F7F4F83E196E00E94CD159D
:10393000CE0101960E941816CE0107960E94181615
:1039400010927E0410927D040E949E13CE010D966B
:1039500022CF0D331105A0F7A801B70184E194E04F
:103960000E946A41F801EC5EFB4F10820E948D1AA2
:1039700064E174E0CE0107960E94E216CBCF2837AF
:10398000310508F00ECE89831A8241E050E0BE0175
:103990006F5F7F4F87E096E00E94481602CE6896E0
:1039A0000FB6F894DEBF0FBECDBFDF91CF911F9150
:1039B0000F91FF90EF90DF90CF90BF90AF909F90CE
:1039C0008F907F906F905F904F903F902F900895D1
:1039D000CF92DF92EF92FF920F931F93CF93DF93DB
:1039E000CDB7DEB760970FB6F894DEBF0FBECDBF80
:1039F0006B017C01BE01675F7F4FCE010F960E9475
:103A0000DE188F85988997FD40C001968F709927A1
:103A100049855A856B857C854F5F5F4F6F4F7F4F20
:103A2000C982DA82EB82FC824D835E836F83788762
:103A300023E0880F991F2A95E1F77C012FE5E20E1C
:103A4000F11CFE0131966F018C0109591F4FFE8652
:103A5000ED86F60161916F01CE010D960E947019FD
:103A6000FFEFEF1AFF0AE016F10689F760960FB62E
:103A7000F894DEBF0FBECDBFDF91CF911F910F91A4
:103A8000FF90EF90DF90CF90089590E080E0C0CF5E
:103A9000CF93DF931F921F92CDB7DEB71A821982A0
:103AA0006DECCE0101960E94701981E090E09A833E
:103AB00089836BEACE0101960E94701960915704C8
:103AC000709158048091590490915A040E94E81C06
:103AD0000E945D1A0E94AC190E94031A60E072E015
:103AE0008CE190E00E94CF190F900F90DF91CF9161
:103AF00008952F923F924F925F926F927F928F9292
:103B00009F92AF92BF92CF92DF92EF92FF920F936C
:103B10001F93CF93DF93CDB7DEB7AA970FB6F89474
:103B2000DEBF0FBECDBF0E949E1360E080E00E940A
:103B30006D136BE173E089E196E00E945D0E61E038
:103B40008AE00E944B10109253031092540310927B
:103B500055031092560310929604109297041092F7
:103B60009804109299040E940C1160935104709370
:103B70005204809353049093540460919E04709176
:103B80009F048091A0049091A1040E94763C4B0177
:103B90005C0180924F0390925003A0925103B09227
:103BA0005203209108023091090240910A0250917B
:103BB0000B020E94353E2B013C0110924E031092E5
:103BC0004A0310924B0310924C0310924D0385014F
:103BD0007401AC019B0160E070E0CB010E9475179D
:103BE0001BA21CA21DA21EA2812C912C80E8282EB3
:103BF0009FEB392ED12CC12CB12CA12CA8950E9461
:103C0000B41A0E940C112BA13CA14DA15EA1621B14
:103C1000730B840B950B603D774081059105B0F0E7
:103C2000E0904F03F0905003009151031091520324
:103C3000A30192016D2D7C2D8B2D9A2D0E9475175D
:103C40000E940C116BA37CA38DA39EA30E940C1158
:103C50000091510410915204209153043091540466
:103C6000601B710B820B930B683E734081059105BD
:103C700008F44CC2ED988BE59EE090930F02809380
:103C80000E0260919604709197048091980490912F
:103C900099040E94763C20910402309105024091E3
:103CA0000602509107020E94353E609346037093CE
:103CB0004703809348039093490320E030E040E7B6
:103CC00052E40E94353E20915303309154034091B9
:103CD0005503509156030E94C93DD62EC72EB82ECB
:103CE000A92E862F9C2DAB2DBA2D80935303909334
:103CF0005403A0935503B0935603209108023091CA
:103D0000090240910A0250910B026D2D7C2D8B2DE2
:103D10009A2D0E94D73C6FA378A789A79AA71092E3
:103D200096041092970410929804109299040E949D
:103D30000C11609351047093520480935304909338
:103D40005404A7E4BEE0B0930F02A0930E0280914A
:103D50006A00837F886080936A00ED9A9401A101D4
:103D60006D2D7C2D8B2D9A2D0E94C83D6F8F78A3D1
:103D700089A39AA320E030E0A9010E94D63E18163C
:103D80000CF077C12AE037ED43E25CE36F8D78A158
:103D900089A19AA10E94D63E87FF78C12D2D3C2D86
:103DA0004B2D5A2DC301B2010E94713C18160CF024
:103DB0006DC180914E03811129C020910002309184
:103DC00001024091020250910302C301B2010E941C
:103DD000C83D9B01AC016D2D7C2D8B2D9A2D0E9431
:103DE000D63E87FD13C0B1E0B0934E0360E08AE099
:103DF0000E944B100E949E1360E080E00E946D13B1
:103E000068EF72E089E196E00E945D0E2D2D3C2D59
:103E10004B2D5A2DC301B2010E94713C18160CF4AF
:103E200075C160E08AE00E944B10ED988BE59EE042
:103E300090930F0280930E021092960410929704B2
:103E400010929804109299040E940C1160935104EE
:103E500070935204809353049093540487E49EE03B
:103E600090930F0280930E0280916A00837F886096
:103E700080936A00ED9A10924E0310924A031092BA
:103E80004B0310924C0310924D0360E08AE00E94B5
:103E90004B1060915704709158048091590490918F
:103EA0005A040E94763C20914F0330915003409178
:103EB0005103509152030E94C93D0E94A73E609356
:103EC0005704709358048093590490935A040E94A5
:103ED000E81C40904F035090500360905103709045
:103EE0005203409108025091090260910A027091B8
:103EF0000B0222E0CE0107960E943F1723E04D2DD2
:103F00005C2D6B2D7A2DCE010D960E943F1722E07D
:103F1000B301A201CE0143960E943F176BEA72E003
:103F2000CE0149960E94E216BE016D5E7F4FCE0122
:103F300049960E948A1668E373E00E947416BE01D7
:103F4000635F7F4F0E948A1668E373E00E947416D5
:103F5000BE01695F7F4F0E948A16BC01CE010196A7
:103F60000E94C816CE0101960E941816CE014996ED
:103F70000E941816CE0143960E941816CE010D9687
:103F80000E941816CE0107960E9418160E949E13D2
:103F900060E083E00E946D136CEE72E089E196E0D0
:103FA0000E945D0E61E082E00E946D1360EE72E09F
:103FB00089E196E00E945D0E68EE73E080E090E09B
:103FC0000E94DA101092B40460E08AE00E944B1064
:103FD0000E949E130E94481D10929E0410929F04FE
:103FE0001092A0041092A1041092830410928404F1
:103FF000109285041092860410924F031092500381
:1040000010925103109252031092530310925403D2
:104010001092550310925603109296041092970432
:10402000109298041092990410924A0310924B0334
:1040300010924C0310924D0361E089E00E944B10F6
:10404000AA960FB6F894DEBF0FBECDBFDF91CF9119
:104050001F910F91FF90EF90DF90CF90BF90AF90A6
:104060009F908F907F906F905F904F903F902F9098
:1040700008952AE037ED43E25CEB6F8D78A189A1CA
:104080009AA10E94713C18160CF488CE0E949E13CF
:1040900060E173E089E196E00E945D0E40914F037C
:1040A00050915003609151037091520322E089E1D5
:1040B00096E00E94AF1461E080E00E946D136DE015
:1040C00073E089E196E00E945D0E22E04D2D5C2DAB
:1040D0006B2D7A2D89E196E00E94AF1461E087E0B4
:1040E0000E946D1369E073E089E196E00E945D0E25
:1040F00022E04FA158A569A57AA589E196E00E9422
:10410000AF148D2C9C2C2B2C3A2C53CE80914E032B
:10411000811174CD2AE037ED43E25CE36091460300
:104120007091470380914803909149030E94713C2C
:1041300087FFD8C020914A0330914B0340914C0334
:1041400050914D032F8F38A349A35AA3232B242B1F
:10415000252B59F40E940C1160934A0370934B0372
:1041600080934C0390934D0349CD0E940C112F8DE9
:1041700038A149A15AA1621B730B840B950B6031C6
:1041800077428105910508F439CD60E08AE00E940C
:104190004B1060E089E00E944B1081E08093AE04F8
:1041A00010924A0310924B0310924C0310924D034D
:1041B00005E010E0A89561E088E00E944B106CE2F9
:1041C00071E080E090E00E94DA1060E088E00E94F8
:1041D0004B1068EC70E080E090E00E94DA10015033
:1041E000110941F7209108023091090240910A0219
:1041F00050910B026D2D7C2D8B2D9A2D0E94D73C5A
:104200000E94A73E80909E0490909F04A090A004DE
:10421000B090A104462F572FBC0184169506A60620
:10422000B70610F4B501A401841A950AA60AB70AC4
:104230008092A6049092A704A092A804B092A90428
:104240000E949E1360E080E00E946D136DEC72E0AE
:1042500089E196E00E945D0E61E080E00E946D13AE
:1042600062EC72E089E196E00E945D0E4091A60446
:104270005091A7046091A8047091A9042AE089E1F3
:1042800096E00E944E1469EB72E089E196E00E948C
:104290005D0E10929E0410929F041092A004109242
:1042A000A104109283041092840410928504109249
:1042B000860410924F0310925003109251031092F3
:1042C000520310925303109254031092550310920C
:1042D000560310929604109297041092980410922C
:1042E0009904AECE10924A0310924B0310924C03E5
:1042F00010924D0383CC1F920F920FB60F92112490
:104300000BB60F922F933F934F935F936F937F93CF
:104310008F939F93AF93BF93EF93FF9381EC94E0C0
:104320000E94FF0EFF91EF91BF91AF919F918F91EE
:104330007F916F915F914F913F912F910F900BBEA5
:104340000F900FBE0F901F9018951F920F920FB6EF
:104350000F9211240BB60F922F938F939F93EF938D
:10436000FF93E091D104F091D2048081E091D704D1
:10437000F091D80482FD1DC090818091DA048F5F96
:104380008F732091DB04821741F0E091DA04F0E0B2
:10439000EF53FB4F958F8093DA04FF91EF919F913C
:1043A0008F912F910F900BBE0F900FBE0F901F900B
:1043B00018958081F2CF1F920F920FB60F921124A1
:1043C0000BB60F922F933F934F935F936F937F930F
:1043D0008F939F93AF93BF93EF93FF938EE595E0F9
:1043E0000E94FF0EFF91EF91BF91AF919F918F912E
:1043F0007F916F915F914F913F912F910F900BBEE5
:104400000F900FBE0F901F9018951F920F920FB62E
:104410000F9211240BB60F922F938F939F93EF93CC
:10442000FF93E0916E05F0916F058081E091740536
:10443000F091750582FD1DC09081809177058F5F99
:104440008F7320917805821741F0E0917705F0E0B5
:10445000E25AFA4F958F80937705FF91EF919F91E4
:104460008F912F910F900BBE0F900FBE0F901F904A
:1044700018958081F2CF1F920F920FB60F921124E0
:104480002F933F938F939F93AF93BF9380910C048F
:1044900090910D04A0910E04B0910F0430910B0483
:1044A00023E0230F2D3758F50196A11DB11D209350
:1044B0000B0480930C0490930D04A0930E04B0930E
:1044C0000F048091100490911104A0911204B091F6
:1044D00013040196A11DB11D809310049093110443
:1044E000A0931204B0931304BF91AF919F918F9149
:1044F0003F912F910F900FBE0F901F90189526E8B7
:10450000230F0296A11DB11DD2CF1F920F920FB69D
:104510000F9211240BB60F922F933F934F935F93FB
:104520006F937F938F939F93AF93BF93EF93FF937B
:10453000E0911A02F0911B021995FF91EF91BF9142
:10454000AF919F918F917F916F915F914F913F912B
:104550002F910F900BBE0F900FBE0F901F901895CC
:104560001F920F920FB60F9211240BB60F922F933A
:104570003F934F935F936F937F938F939F93AF93EB
:10458000BF93EF93FF93E0911802F09119021995F0
:10459000FF91EF91BF91AF919F918F917F916F911B
:1045A0005F914F913F912F910F900BBE0F900FBED7
:1045B0000F901F9018951F920F920FB60F92112413
:1045C0000BB60F922F933F934F935F936F937F930D
:1045D0008F939F93AF93BF93EF93FF93E0910E025E
:1045E000F0910F021995FF91EF91BF91AF919F91BB
:1045F0008F917F916F915F914F913F912F910F908C
:104600000BBE0F900FBE0F901F9018951F920F9228
:104610000FB60F9211240BB60F922F933F934F9327
:104620005F936F937F938F939F93AF93BF93EF931A
:10463000FF93E0910C02F0910D021995FF91EF911B
:10464000BF91AF919F918F917F916F915F914F91AA
:104650003F912F910F900BBE0F900FBE0F901F90A8
:1046600018951F920F920FB60F9211240BB60F924E
:104670002F933F934F935F936F937F938F939F936A
:10468000AF93BF93EF93FF93E0911602F09117025F
:104690001995FF91EF91BF91AF919F918F917F916C
:1046A0006F915F914F913F912F910F900BBE0F90A3
:1046B0000FBE0F901F9018951F920F920FB60F927A
:1046C00011240BB60F922F933F934F935F936F93E9
:1046D0007F938F939F93AF93BF93EF93FF93E0915B
:1046E0001402F09115021995FF91EF91BF91AF91CE
:1046F0009F918F917F916F915F914F913F912F91FA
:104700000F900BBE0F900FBE0F901F9018951F9229
:104710000F920FB60F9211240BB60F922F933F9367
:104720004F935F936F937F938F939F93AF93BF93B9
:10473000EF93FF93E0911202F09113021995FF910C
:10474000EF91BF91AF919F918F917F916F915F9109
:104750004F913F912F910F900BBE0F900FBE0F9076
:104760001F9018951F920F920FB60F9211240BB63F
:104770000F922F933F934F935F936F937F938F93FA
:104780009F93AF93BF93EF93FF93E0911002F0914B
:1047900011021995FF91EF91BF91AF919F918F9168
:1047A0007F916F915F914F913F912F910F900BBE31
:1047B0000F900FBE0F901F9018951F920F920FB67B
:1047C0000F9211240F900FBE0F901F9018951F92FB
:1047D0000F920FB60F9211240BB60F922F933F93A7
:1047E0004F935F936F937F938F939F93AF93BF93F9
:1047F000EF93FF938091B900887F803609F44DC014
:1048000008F040C0883209F4A9C028F5803109F4C5
:104810009DC0C8F4882309F4FBC0883009F496C011
:10482000FF91EF91BF91AF919F918F917F916F9188
:104830005F914F913F912F910F900BBE0F900FBE44
:104840000F901F901895883109F488C0803241F785
:104850008093DF0314C0803409F49DC040F480339A
:10486000B9F38833E9F68093DF0385ECB0C0803577
:1048700009F485C0883509F496C0883489F60E9409
:10488000F117CECF883909F48CC038F5883729F074
:1048900050F4883611F0803719F683E08093E103F5
:1048A0001092BA0357C0883809F47BC0803919F0D8
:1048B000803809F0B5CF8091BA03803208F071C01A
:1048C000E091BA0381E08E0F8093BA038091BB0020
:1048D000F0E0E656FC4F80833DC0803B39F0E0F4C9
:1048E000803A09F479C0883A09F09ACF84E080933D
:1048F000E1031092990310929803E091B904F091AA
:10490000BA0419958091980381110FC081E08093BA
:1049100098031092780309C0803C09F4A6CF883C24
:1049200009F4A3CF883B09F07BCFE091990381E0A4
:104930008E0F80939903F0E0E858FC4F80818093BC
:10494000BB00909199038091980329C08091BC038A
:104950008093BB0085EC8093BC0062CF9091DE0316
:104960008091DD03981758F5E091DE0381E08E0F0A
:104970008093DE03F0E0E354FC4F8081E9CFE091C7
:10498000DE0381E08E0F8093DE038091BB00F0E0B8
:10499000E354FC4F80839091DE038091DD039817F0
:1049A000C8F285E8D8CFE091DE0381E08E0F8093D6
:1049B000DE038091BB00F0E0E354FC4F80838091E4
:1049C000E00381115CCF81E08093BB0384EA809394
:1049D000BC001092E10324CF85EC8093BC001092C0
:1049E000E1038091BA03803230F4E091BA03F0E041
:1049F000E656FC4F10826091BA0370E0E091BB0470
:104A0000F091BC048AE993E019951092BA0308CF9B
:104A10001092DF0334CFE1ECF4E01382128288EECF
:104A200093E0A0E0B0E084839583A683B7832FE36F
:104A300032E0318320834DEC50E0558744874CECC5
:104A400050E05787468748EC50E0518B408B49EC4B
:104A500050E0538B428B4AEC50E0558B448B4EEC2C
:104A600050E0578B468B118E128E138E148EEEE50E
:104A7000F5E01382128284839583A683B783318302
:104A8000208325EC30E03587248724EC30E037871D
:104A9000268720EC30E0318B208B21EC30E0338B0B
:104AA000228B22EC30E0358B248B26EC30E0378BE8
:104AB000268B118E128E138E148EEBEFF5E013827F
:104AC000128284839583A683B78381E592E09183E4
:104AD0008083E9E1F6E01382128283E692E091831B
:104AE000808387E2848380E1818782E082871386E6
:104AF00065EB72E083E196E00E94E21665EB72E0FE
:104B00008DE096E00E94E2166DE672E087E096E0A6
:104B10000C94E216CF93DF93CDB7DEB7AF970FB605
:104B2000F894DEBF0FBECDBF789484B5826084BD9B
:104B300084B5816084BD85B5826085BD85B58160A1
:104B400085BD80916E00816080936E00109281001F
:104B500080918100826080938100809181008160DA
:104B6000809381008091800081608093800080919B
:104B7000B10084608093B1008091B0008160809327
:104B8000B0008091910082608093910080919100AB
:104B9000816080939100809190008160809390006B
:104BA0008091A10082608093A1008091A10081602A
:104BB0008093A1008091A00081608093A0008091EB
:104BC0002101826080932101809121018160809385
:104BD00021018091200181608093200180917A00E1
:104BE000846080937A0080917A00826080937A005A
:104BF00080917A00816080937A0080917A00806849
:104C000080937A001092C10088E199E20FB6F8947F
:104C1000A895809360000FBE909360008EE595E0AC
:104C20000E941E0E1092C0041092BF041092BE0487
:104C30001092BD040E943F1185E49EE09093BA0457
:104C40008093B90486E49EE09093BC048093BB04F7
:104C50000E94A9130E94EB1262E082E00E94791088
:104C600061E089E00E94791061E08AE00E94791099
:104C700061E08BE00E94791061E088E00E94791089
:104C800060E083E00E94791060E08CE00E9479107F
:104C900060E084E00E94791060E089E00E944B109F
:104CA00060E08AE00E944B1060E08BE00E944B10B5
:104CB00060E088E00E944B101A821982CE010196B2
:104CC0000E947B188EA781E090E09A838983CE01B1
:104CD00001960E947B188FA7BE016F5F7F4FCE01A8
:104CE00088960E94DE1828A539A52E3F3F4F09F46B
:104CF000F5C16093570470935804809359049093BE
:104D00005A0464E072E084E090E00E94AA18C09027
:104D10000402D0900502E0900602F0900702A7017D
:104D20009601C701B6010E94DB3E811114C02DEC33
:104D30003CEC4CEC5DE3C701B6010E94713C87FD81
:104D40000AC020E030E040E251E4C701B6010E9411
:104D5000D63E181694F480E090E0A0EFB0E4809383
:104D6000040290930502A0930602B093070264E048
:104D700072E084E090E00E94CF198DE192E00E9401
:104D8000801880911D02811108C068EF72E08DE1EA
:104D900092E00E9455410E94831968E072E088E128
:104DA00090E00E94AA18C0900802D0900902E090FA
:104DB0000A02F0900B02A7019601C701B6010E94FA
:104DC000DB3E811114C020E030E040E85FE3C70122
:104DD000B6010E94713C87FD0AC020E030E44CE13E
:104DE00056E4C701B6010E94D63E181694F480E03E
:104DF00090E0A8E4B2E48093080290930902A093A3
:104E00000A02B0930B0268E072E088E190E00E9431
:104E1000CF1960E072E08CE190E00E94AA18C09087
:104E20000002D0900102E0900202F0900302A7017C
:104E30009601C701B6010E94DB3E811113C020E03C
:104E400030E0A901C701B6010E94713C87FD0AC08C
:104E500020E030E040E251E4C701B6010E94D63EB6
:104E6000181694F48AE999E9A9E9BEE3809300024F
:104E700090930102A0930202B093030260E072E0FB
:104E80008CE190E00E94CF198EA59FA58D3C9B4A96
:104E900051F0109257041092580410925904109235
:104EA0005A040E94481D80E290E09A838983CE01D3
:104EB00001960E947B1891E0813009F090E0909378
:104EC0008C0424E1E22E24E0F22E02E210E01A83A8
:104ED0000983CE0101960E947B18F70181937F011F
:104EE0000F5F1F4F0F35110591F7809114048F5FED
:104EF000823008F035C1109214046DE076E0CE01E6
:104F000001960E94C816BE016F5F7F4FCE01829648
:104F10000E942918BE016E5D7F4F83E196E00E94DA
:104F2000CD15CE0182960E941816CE0101960E94E0
:104F3000181660E080E00E946D136CE874E089E16F
:104F400096E00E945D0E61E085E00E946D1363E8CB
:104F500074E089E196E00E945D0E60ED77E080E00C
:104F600090E00E94DA1061E089E00E944B100E94FC
:104F70009E1386EF92E190930D0280930C02809134
:104F80006A008C7F826080936A00EC9A87E49EE0DE
:104F900090930F0280930E0280916A00837F886055
:104FA00080936A00ED9A0E940C11609351047093F3
:104FB0005204809353049093540481EC94E00E9433
:104FC0001E0E64E670E080E090E00E94DA10552446
:104FD00053948BE5682E8EE0782E97E4892E9EE020
:104FE000992EA89581EC94E00E94DF0E892B51F058
:104FF0000E940C116093AA047093AB048093AC04DC
:105000009093AD048091B304882309F4C6C00E9434
:105010000C110091AA041091AB042091AC043091C2
:10502000AD04601B710B820B930B603C744D81408F
:10503000910508F4B2C00E94481D61E088E00E941A
:105040004B1068EC70E080E090E00E94DA1060E0C5
:1050500088E00E944B101092B30410927B041092CF
:105060007A041092790410927804109277040E94C6
:10507000EB120E949E1360E080E00E946D136DEBC6
:105080007AE189E196E00E945D0E61E080E00E9495
:105090006D136BEA7AE189E196E00E945D0E0E9451
:1050A0009E138BE79AE10E943B1484E69AE10E94EA
:1050B0003B148EE39AE10E943B1486E29AE10E943F
:1050C0003B1464E27AE181EC94E00E945D0E109260
:1050D0007604109275040E94311349C78EA59FA5CE
:1050E0008D3C9B4A89F537E5E32E34E0F32E02E050
:1050F00010E01BA30AA3CE0182960E947B18F70141
:1051000081937F010F5F1F4F0630110591F76AE40D
:1051100074E08EE595E00E945D0E40915704509139
:1051200058046091590470915A048EE595E00E94EC
:105130009A14609157047091580480915904909189
:105140005A040E94E81CDDCD1092570410925804B6
:105150001092590410925A0460E070E0CB01F1CF34
:105160001092500464E174E0CE0182960E94E2162F
:10517000BE016E5D7F4FCE0101960E942918BE01CF
:105180006F5F7F4F83E196E00E94CD15CE010196BF
:105190000E941816CE018296CACE84E00E94221088
:1051A000892B09F01DC1809174048111C7C00E9430
:1051B0000C11609370047093710480937204909347
:1051C0007304509274040E940C1100916C041091AD
:1051D0006D0420916E0430916F04601B710B820B83
:1051E000930B6A3071058105910508F4C0C681EC06
:1051F00094E00E94DF0E892B09F4B9C60E940C11BD
:1052000060936C0470936D0480936E0490936F04AC
:1052100081EC94E00E94BD0E9091B3049111F6C010
:1052200020917504309176048A3019F08D3009F0A0
:105230009AC6121613060CF09AC6245A3B4FF9016F
:1052400010826DE172E08CE594E00E944C41892B64
:1052500009F0C9C061E088E00E944B1068EC70E082
:1052600080E090E00E94DA1060E088E00E944B103D
:105270005092B30450927B040E949E131092240615
:1052800060E089E196E00E94041282EF99E10E94B9
:105290003B1480EF99E10E943B1482EE99E10E9459
:1052A0003B1480EE99E10E943B146AEC79E181ECB9
:1052B00094E00E945D0E6091080270910902809155
:1052C0000A0290910B020E949D1588EC99E10E94C0
:1052D0003B1463EB79E181EC94E00E945D0E6091F8
:1052E00004027091050280910602909107020E94CB
:1052F0009D1581EB99E10E943B1467E979E181EC0E
:1053000094E00E945D0E6091000270910102809114
:105310000202909103020E949D1585E999E10E9485
:105320003B1485E299E10E943B1483E299E10E94DB
:105330003B1486EA98E10E943B14C9CE0E940C11EE
:1053400000917004109171042091720430917304E3
:10535000601B710B820B930B6838734181059105BB
:1053600008F431CF68EF72E08DE192E00E94554180
:105370000E94AC1961E088E00E944B1068EC70E07C
:1053800080E090E00E94DA1060E088E00E944B101C
:1053900068EC70E080E090E00E94DA1061E088E064
:1053A0000E944B1068EC70E080E090E00E94DA1000
:1053B00060E088E00E944B108DEE94E00E943B1468
:1053C00088ED94E00E943B148DEB94E00E943B1426
:1053D0008FE994E00E943B148DE994E00E943B1415
:1053E00010927404F0CE84EA98E10E943B1482E8A3
:1053F00098E10E943B1488E598E10E943B1488E103
:1054000098E10E943B1486E198E195CF90917B044E
:10541000992309F4A7C120917504309176048A304C
:1054200019F08D3009F0A9C4121613060CF09FC5AF
:10543000245A3B4FF90110826DEF72E08CE594E045
:105440000E944C41892B29F510927B0450925B04F9
:1054500061E088E00E944B1068EC70E080E090E032
:105460000E94DA1060E088E00E944B1084E198E12D
:105470000E943B148FEC97E10E943B148DEC97E166
:105480000E943B1482E897E10E943B1480E897E178
:1054900052CF63E073E08CE594E00E944C41892B8D
:1054A00029F510927B0450927A0461E088E00E9412
:1054B0004B1068EC70E080E090E00E94DA1060E051
:1054C00088E00E944B108FE797E10E943B1485E330
:1054D00097E10E943B1484E397E10E943B148DEE18
:1054E00096E10E943B148CEE96E125CF6DE073E0CF
:1054F0008CE594E00E944C41892BE9F410927B04E6
:105500005092790461E088E00E944B1068EC70E0F2
:1055100080E090E00E94DA1060E088E00E944B108A
:105520008AEE96E10E943B1484EA96E10E943B14C5
:1055300082EA96E100CF65E173E08CE594E00E9499
:105540004C41892B99F510927B045092780461E0CC
:1055500088E00E944B1068EC70E080E090E00E94D0
:10556000DA1060E088E00E944B1080EA96E10E9429
:105570003B146EE876E181EC94E00E945D0E409170
:105580005704509158046091590470915A0481EC69
:1055900094E00E949A148CE896E10E943B1486E401
:1055A00096E10E943B1484E496E1C5CE6DE173E080
:1055B0008CE594E00E944C41892B09F047C0109281
:1055C0005704109258041092590410925A040E94E1
:1055D000481D61E088E00E944B1068EC70E080E0BC
:1055E00090E00E94DA1060E088E00E944B1082E4B4
:1055F00096E10E943B1485E396E10E943B1483E30D
:1056000096E10E943B146DE176E181EC94E00E940A
:105610005D0E409157045091580460915904709167
:105620005A0481EC94E00E949A148BE196E10E9466
:105630003B148EED95E10E943B148CED95E10E94A8
:105640003B1410927B045092770441CD63E273E0E7
:105650008CE594E00E944C41892B69F50E94481D1D
:1056600061E088E00E944B1068EC70E080E090E020
:105670000E94DA1060E088E00E944B101092B304A0
:1056800010927B040E94EB128AED95E10E943B147C
:105690008AEC95E10E943B1483EB95E10E943B1458
:1056A0008DE895E10E943B1482E795E10E943B144E
:1056B00080E795E140CE68E273E08CE594E00E94DB
:1056C0004C41892B09F041C010927B0410927A045E
:1056D0001092790410927804109277045092560434
:1056E00061E088E00E944B1068EC70E080E090E0A0
:1056F0000E94DA1060E088E00E944B108EE695E18F
:105700000E943B1480E595E10E943B146FE375E134
:1057100081EC94E00E945D0E6091000270910102A4
:1057200080910202909103020E949D158BE195E108
:105730000E943B148AE195E10E943B148DED94E1B7
:105740000E943B148BED94E1F6CD89E794E10E9431
:105750003B1487E794E10E943B1410927604109268
:10576000750405C490915B04992309F496C12091B6
:105770007504309176048A3019F08D3009F0FDC23D
:10578000121613060CF0F3C3245A3B4FF901108292
:105790006DEF72E08CE594E00E944C41892B09F595
:1057A00010925B0450927B0461E088E00E944B10F1
:1057B00068EC70E080E090E00E94DA1060E088E041
:1057C0000E944B1085E794E10E943B1480E394E132
:1057D0000E943B148FE294E10E943B1484EE93E11B
:1057E000AACD63E073E08CE594E00E944C41892BE4
:1057F00009F510925B0450927A0461E088E00E94FF
:105800004B1068EC70E080E090E00E94DA1060E0FD
:1058100088E00E944B1082EE93E10E943B1488E9DD
:1058200093E10E943B1487E993E10E943B1480E5D9
:1058300093E181CD6DE073E08CE594E00E944C41F2
:10584000892BE9F410925B045092790461E088E0BE
:105850000E944B1068EC70E080E090E00E94DA104B
:1058600060E088E00E944B108EE493E10E943B14BC
:1058700088E093E10E943B1487E093E15CCD65E111
:1058800073E08CE594E00E944C41892B99F51092CD
:105890005B045092780461E088E00E944B1068EC51
:1058A00070E080E090E00E94DA1060E088E00E9402
:1058B0004B1086E093E10E943B1464EF72E181ECAF
:1058C00094E00E945D0E40915704509158046091FD
:1058D000590470915A0481EC94E00E949A1483EF69
:1058E00092E10E943B148DEA92E10E943B148BEA04
:1058F00092E121CD6DE173E08CE594E00E944C4192
:10590000892B09F041C0109257041092580410924C
:10591000590410925A040E94481D61E088E00E94D8
:105920004B1068EC70E080E090E00E94DA1060E0DC
:1059300088E00E944B108EE992E10E943B148DE9B1
:1059400092E10E943B1467E872E181EC94E00E94CE
:105950005D0E409157045091580460915904709124
:105960005A0481EC94E00E949A1486E892E10E9425
:105970003B1489E492E10E943B1487E492E10E9487
:105980003B1410925B045FCE63E273E08CE594E01D
:105990000E944C41892B69F50E94481D61E088E016
:1059A0000E944B1068EC70E080E090E00E94DA10FA
:1059B00060E088E00E944B101092B30410925B04E8
:1059C0000E94EB1285E492E10E943B1485E392E190
:1059D0000E943B148EE192E10E943B1488EF91E11A
:1059E0000E943B1480EE91E10E943B148EED91E108
:1059F000A2CC8CE594E00E940A386B017C012AE07D
:105A000037ED43E25CE30E94D63E87FD3FC020E0D5
:105A100030E44CE156E4C701B6010E94713C18160F
:105A2000ACF1C0920802D0920902E0920A02F09210
:105A30000B020E94031A61E088E00E944B1068ECA0
:105A400070E080E090E00E94DA1060E088E00E9460
:105A50004B106AEB71E181EC94E00E945D0E609165
:105A600008027091090280910A0290910B020E9433
:105A70009D1588EB91E10E943B1487E691E10E941D
:105A80003B1410925B0450927B0421CB82EF90E197
:105A90000E943B1480EF90E15ECE90917A049923AE
:105AA00009F49CC120917504309176048A3019F074
:105AB0008D3009F062C1121613060CF058C2245A38
:105AC0003B4FF90110826DEF72E08CE594E00E948B
:105AD0004C41892B09F510927A0450927B0461E0C5
