:100000000C94CF0D0C94D1210C94A6210C947B213F
:100010000C9450210C9425210C94FA200C94CF20A0
:100020000C94A4200C94FC210C94FC210C94FC2135
:100030000C94000E0C94000E0C94000E0C94000E08
:100040000C94000E0C94000E0C94000E0C94000EF8
:100050000C94000E0C94000E0C94000E0C945A207C
:100060000C94000E0C9424200C94FA1F0C94000E97
:100070000C94000E0C94000E0C94000E0C94000EC8
:100080000C94000E0C94000E0C94000E0C94000EB8
:100090000C94C41F0C949A1F0C94000E0C9406220E
:1000A0000C94000E0C94000E0C94000E0C94000E98
:1000B0000C94000E0C94000E0C94000E0C94000E88
:1000C0000C94000E0C94000E0C94000E0C94000E78
:1000D0000C94000E0C94000E0C94000E0C94000E68
:1000E0000C94000E0C94D7120C9462110C94D80F3F
:1000F0000C94C70F0C94BD0F0C94CF0F0C94EA0F07
:100100000C94E60F0C94290E0C9402100C94B50E6E
:100110000C9463110C948D130C94FD0F0C94920E9F
:100120000C94B9110C94C30E0C943E0E0C94D20F87
:100130000C942A230C9472110C948C110C94F80FCB
:100140000C94E20F0C943F0E0C9485110C94F40F58
:100150000C94650E0C94C30F0C94A10E0C94DC0F40
:100160000C94050F0C94FE0F0C94400E0C94520F3F
:100170000C94CB0F0C943D0E0C94F00F0C94C735DF
:100180000C94DA124E414E494E495459494E46CDCF
:10019000CCCC3D0AD7233C17B7D13877CC2B32953E
:1001A00095E6241FB14F0A000020410000C842001C
:1001B000401C4620BCBE4CCA1B0E5AAEC59D7400E6
:1001C000407A10F35A00A0724E18090010A5D4E826
:1001D0000000E87648170000E40B54020000CA9AB9
:1001E0003B000000E1F5050000809698000000400B
:1001F000420F000000A08601000000102700000050
:1002000000E803000000006400000000000A000095
:100210000000000100000000002C76D888DC674F49
:100220000823DFC1DFAE59E1B1B796E5E3E453C679
:100230003AE651997696E8E6C28426EB898C9B6271
:10024000ED407C6FFCEFBC9C9F40F2BAA56FA5F41B
:1002500090055A2AF75C936B6CF9676DC11BFCE043
:10026000E40D47FEF520E6B500D0ED902E03009496
:100270003577050080841E080000204E0A0000002B
:10028000C80C333333330F986E12831141EF8D2135
:1002900014893BE65516CFFEE6DB18D1844B381B9C
:1002A000F77C1D901DA4BBE424203284725E228161
:1002B00000C9F124ECA1E53D2720202020202020AA
:1002C000200053414C494F3A547368200048495428
:1002D000494C41465520494D45544F4B454121001D
:1002E0004B41524942552054454E41004153414EE5
:1002F00054452053414E41005052452D434C4F53DD
:10030000452041435449564500547A3A004C3A003E
:100310004A554D4C413A5473682000494E41544F60
:1003200041204D414A492E2E2E000000210024007C
:1003300027002A002D0030003300010100000401D5
:1003400007010A0100002200250028002B002E00D2
:100350003100340002010000050108010B0100001A
:1003600020002300260029002C002F00320000016D
:100370000000030106010901050505050705080838
:100380000808020202020A0A08080404040401011F
:100390000101010101010303030303030303040734
:1003A00007070C0C0C0C0C0C0C0C020202020606CB
:1003B0000606060606060B0B0B0B0B0B0B0B0102BE
:1003C0001020200808102040102040800201020167
:1003D000080402010102040810204080804020101F
:1003E0000804020180040201804020100804020178
:1003F00008040201010204081020408001020408E0
:100400001020408000000A0B02090C0D0E080703A3
:1004100004010000000000000000000000000000D7
:1004200000000000000000000000000000000000CC
:100430001211100000000000000000000000000089
:100440000000000000000000000020532E572E5630
:10045000202000534D4427732057415445522056C5
:10046000454E4400200053656E64206465666175E6
:100470006C74206F72206E65772070617373776F74
:1004800072642E0050617373776F726420726573AB
:10049000657420746F2064656661756C7421004C0E
:1004A0006F6E672070726573732064657465637422
:1004B0006564210020002000496E76616C6964202B
:1004C000636F6D6D616E64212053656E64202770CB
:1004D00072696365272C202763616C666163746FA2
:1004E00072272C20276E657770617373272C206F1D
:1004F00072202765786974272E0000456E74657236
:1005000065642050617373776F7264204368616E15
:100510006765204D6F64653B2053656E64206E6592
:10052000772070617373776F726420287570207400
:100530006F2031352063686172616374657273295D
:100540000020002000436F6E746163743A202B32E8
:1005500035353736373833303331392E005448414A
:100560004E4B5320464F52205452555354494E47F8
:1005700020534D4427732057617465722056656E71
:1005800064730052657475726E656420746F2057D1
:100590006F726B204D6F64652E002000416C6C20E3
:1005A0006461746120736176656421004F72207309
:1005B000656E6420277072696365272C202762614D
:1005C0006C616E6365272C2027707265636C6F7396
:1005D00065272C20277265736574272C20276E658C
:1005E0007770617373272C206F7220276578697488
:1005F000272E0000456E74657265642043616C6946
:1006000062726174696F6E20466163746F72204D0F
:100610006F64653A2053656E642063616C69627231
:100620006174696F6E20666163746F722028652E35
:10063000672E2C2073656E6420312E302900200037
:100640004F722073656E64202763616C666163740A
:100650006F72272C202762616C616E6365272C20E6
:1006600027707265636C6F7365272C202772657322
:100670006574272C20276E657770617373272C2093
:100680006F72202765786974272E0000456E7465A7
:1006900072656420507269636520506572204C69F0
:1006A000746572204D6F64653A2053656E642070E6
:1006B0007269636520706572206C697465722028A8
:1006C000652E672E2C2073656E642035302E302900
:1006D0000020002000496E76616C696420636F6DB4
:1006E0006D616E64212053656E64202770726963AA
:1006F00065272C2027707265636C6F7365272C202B
:100700002763616C666163746F72272C20277265A2
:10071000736574272C20276E657770617373272C9F
:10072000206F72202765786974272E0000456E744B
:10073000657265642050617373776F7264204368DB
:10074000616E6765204D6F64653B2053656E642064
:100750006E65772070617373776F7264202875708F
:1007600020746F2031352063686172616374657233
:1007700073290020002000436F6E7461637420555C
:10078000733A202B323535373637383330333139F9
:100790002E005448414E4B5320464F522054525540
:1007A0005354494E4720534D442773205761746575
:1007B000722056656E64730052657475726E65645E
:1007C00020746F20576F726B204D6F64652E00414F
:1007D0006C6C206461746120736176656421002013
:1007E00000200053656E6420277072696365272CB2
:1007F000202763616C666163746F72272C202770F9
:100800007265636C6F7365272C20276E6577706146
:100810007373272C206F72202765786974272E0048
:1008200000546F74616C2053616C6573206E6F7738
:100830003A2054736820000053616C657320726520
:10084000736574210020004F722073656E64202749
:100850007072696365272C202762616C616E636525
:10086000272C2027707265636C6F7365272C2027F7
:100870007265736574272C20276E657770617373BA
:10088000272C206F72202765786974272E00004579
:100890006E74657265642043616C6962726174692B
:1008A0006F6E20466163746F72204D6F64653A20ED
:1008B00053656E642063616C6962726174696F6E06
:1008C00020666163746F722028652E672E2C20735A
:1008D000656E6420312E30290020004F7220736530
:1008E0006E64202763616C666163746F72272C20CD
:1008F0002762616C616E6365272C202770726563C7
:100900006C6F7365272C20277265736574272C2004
:10091000276E657770617373272C206F72202765AF
:10092000786974272E0000456E74657265642050E6
:100930007269636520506572204C69746572204D40
:100940006F64653A2053656E642070726963652038
:10095000706572206C697465722028652E672E2C74
:100960002073656E642035302E3029002000200071
:10097000496E76616C696420636F6D6D616E642190
:100980002053656E64202773617665272C202770BD
:1009900072696365272C2027707265636C6F7365BD
:1009A000272C202763616C666163746F72272C208B
:1009B0002762616C616E6365272C20277265736501
:1009C00074272C20276E657770617373272C206F36
:1009D00072202765786974272E002000436F6E749B
:1009E0006163743A202B323535373637383330333C
:1009F00031392E005448414E4B5320464F5220541B
:100A000052555354494E4720534D44277320576144
:100A10007465722056656E64730052657475726EEB
:100A2000656420746F20576F726B204D6F64652E64
:100A300000416C6C2064617461207361766564218F
:100A400000200000456E7465726564205061737308
:100A5000776F7264204368616E6765204D6F6465CF
:100A60003A2053656E64206E6577207061737377EA
:100A70006F72642028757020746F20313520636890
:100A800061726163746572732900200000546F7491
:100A9000616C2053616C6573206E6F773A205473DC
:100AA0006820000053616C65732072657365742162
:100AB0002053656E6420277072696365272C202798
:100AC00063616C666163746F72272C20276E657793
:100AD00070617373272C206F7220276578697427E3
:100AE0002E00200053656E642027707269636527AD
:100AF0002C202763616C666163746F72272C20273A
:100B00007265736574272C20276E65777061737327
:100B1000272C206F72202765786974272E000054D7
:100B20006F74616C2053616C65733A205473682054
:100B300000004F722073656E6420277072696365D0
:100B4000272C202762616C616E6365272C2027703B
:100B50007265636C6F7365272C20277265736574EB
:100B6000272C20276E657770617373272C206F7296
:100B7000202765786974272E0000456E74657265BC
:100B8000642043616C6962726174696F6E204661B2
:100B900063746F72204D6F64653A2053656E6420F4
:100BA00063616C6962726174696F6E2066616374FF
:100BB0006F722028652E672E2C2073656E6420319D
:100BC0002E30290020004F722073656E6420276349
:100BD000616C666163746F72272C202762616C619F
:100BE0006E6365272C2027707265636C6F736527B1
:100BF0002C20277265736574272C20276E6577700B
:100C0000617373272C206F72202765786974272EF3
:100C10000000456E746572656420507269636520DA
:100C2000506572204C69746572204D6F64653A207E
:100C300053656E6420707269636520706572206C04
:100C4000697465722028652E672E2C2073656E648A
:100C50002035302E30290020002000416C6C2064AB
:100C6000617461207361766564212053656E642030
:100C7000277072696365272C202763616C66616346
:100C8000746F72272C20276E657770617373272C21
:100C90002027707265636C6F7365272C2027626153
:100CA0006C616E6365272C20277265736574272C31
:100CB000206F72202765786974272E00200020009D
:100CC00050617373776F7264206D75737420626501
:100CD000203420746F203135206368617261637441
:100CE000657273212054727920616761696E2E00EC
:100CF00053656E6420277072696365272C20277006
:100D00007265636C6F7365272C202763616C666165
:100D100063746F72272C202762616C616E63652794
:100D20002C20277265736574272C206F722027652D
:100D3000786974272E00200050617373776F726496
:100D4000206368616E67656420616E6420736176FC
:100D500065642100496E76616C69642076616C750A
:100D6000652120302E30202D2031302E30206F6E26
:100D70006C7900200053656E64202770726963658A
:100D8000272C2027707265636C6F7365272C2027D2
:100D900063616C666163746F72272C20276E6577C0
:100DA00070617373272C206F722027657869742710
:100DB0002E000020005072652D436C6F7365204F2C
:100DC000666673657420736574202620736176658A
:100DD000643A20002000496E76616C69642063618A
:100DE0006C6962726174696F6E20666163746F72A0
:100DF000212053656E642061206E756D62657220DE
:100E00006265747765656E20302E3120616E6420D6
:100E100031302E302C20277072696365272C2027F3
:100E200062616C616E6365272C202772657365743F
:100E3000272C20276E657770617373272C206F72C3
:100E4000202765786974272E0053656E642027700B
:100E500072696365272C27707265636C6F736527F1
:100E60002C202762616C616E6365272C20277265D8
:100E7000736574272C20276E657770617373272C38
:100E8000206F72202765786974272E002000436147
:100E90006C6962726174696F6E20466163746F720F
:100EA0002073657420616E642073617665643A20F6
:100EB000002000456E74657265642050617373771D
:100EC0006F7264204368616E6765204D6F64653A98
:100ED0002053656E64206E65772070617373776F41
:100EE00072642028757020746F203135206368612A
:100EF00072616374657273290020002000436F6E75
:100F0000746163743A202B323535373637383330D5
:100F10003331392E005448414E4B5320464F522016
:100F20005452555354494E4720534D44277320572C
:100F3000617465722056656E6473005265747572D3
:100F40006E656420746F20576F726B204D6F6465FF
:100F50002E00416C6C20646174612073617665645D
:100F600021002000200053656E64202770726963A1
:100F700065272C2027707265636C6F7365272C20A2
:100F80002763616C666163746F72272C20276E651E
:100F90007770617373272C206F72202765786974CE
:100FA000272E0000546F74616C2053616C657320B0
:100FB0006E6F773A2054736820000053616C65733C
:100FC0002072657365742100200053656E642027CC
:100FD0007072696365272C2027707265636C6F736C
:100FE00065272C202763616C666163746F72272C00
:100FF00020277265736574272C20276E65777061D2
:101000007373272C206F72202765786974272E0050
:1010100000546F74616C2053616C65733A20547393
:10102000682000004F722073656E64202763616C36
:10103000666163746F72272C2027707265636C6F12
:101040007365272C202762616C616E6365272C20F5
:10105000277265736574272C20276E65777061731E
:1010600073272C206F72202765786974272E000063
:10107000456E7465726564205072696365205065C1
:1010800072204C69746572204D6F64653A20536517
:101090006E6420707269636520706572206C69747B
:1010A00065722028652E672E2C2073656E642035AE
:1010B000302E30290020002000496E76616C696472
:1010C00020707269636520706572206C6974657246
:1010D000212053656E642061206E756D62657220FB
:1010E0006265747765656E203120616E64203130F1
:1010F0003030302E302C202763616C666163746F52
:1011000072272C202762616C616E6365272C202773
:101110007265736574272C20276E65777061737311
:10112000272C206F72202765786974272E0053655D
:101130006E6420277072696365272C2027707265A2
:10114000636C6F7365272C202763616C6661637421
:101150006F72272C202762616C616E6365272C20DB
:10116000277265736574272C20276E65777061730D
:1011700073272C206F72202765786974272E002032
:1011800000507269636520706572204C69746572E5
:101190002073657420616E642073617665643A2003
:1011A00054736820002000436F6E746163743A20AA
:1011B0002B3235353736373833303331392E00540A
:1011C00048414E4B5320464F522054525553544998
:1011D0004E4720534D442773205761746572205643
:1011E000656E64730052657475726E656420746F09
:1011F00020576F726B204D6F64652E00416C6C2020
:1012000064617461207361766564210020002000B0
:1012100053656E6420277072696365272C202770E0
:101220007265636C6F7365272C202763616C666140
:1012300063746F72272C20276E6577706173732734
:101240002C206F72202765786974272E0000546F58
:1012500074616C2053616C6573206E6F773A205413
:10126000736820000053616C657320726573657448
:101270002100200053656E64202770726963652722
:101280002C2027707265636C6F7365272C20276391
:10129000616C666163746F72272C202772657365B9
:1012A00074272C20276E657770617373272C206F4D
:1012B00072202765786974272E0000546F74616C62
:1012C0002053616C65733A20547368200000004518
:1012D0006E74657265642050617373776F726420F9
:1012E0004368616E6765204D6F64653A2053656E93
:1012F00064206E65772070617373776F7264202845
:10130000757020746F203135206368617261637479
:10131000657273290020004F722073656E64202768
:101320007072696365272C2027707265636C6F7318
:1013300065272C202762616C616E6365272C20274E
:101340007265736574272C20276E657770617373DF
:10135000272C206F72202765786974272E0000459E
:101360006E74657265642043616C69627261746950
:101370006F6E20466163746F72204D6F64653A2012
:1013800053656E642063616C6962726174696F6E2B
:1013900020666163746F722028652E672E2C20737F
:1013A000656E6420312E30290020004F7220736555
:1013B0006E64202763616C666163746F72272C20F2
:1013C00027707265636C6F7365272C202762616CD0
:1013D000616E6365272C20277265736574272C2046
:1013E000276E657770617373272C206F72202765D5
:1013F000786974272E0000456E746572656420500C
:101400007269636520506572204C69746572204D65
:101410006F64653A2053656E64207072696365205D
:10142000706572206C697465722028652E672E2C99
:101430002073656E642035302E3029002000200096
:10144000496E76616C696420636F6D6D616E6421B5
:101450002053656E6420277072696365272C2027EE
:10146000707265636C6F73652C27202763616C66EF
:101470006163746F72272C202762616C616E6365F3
:10148000272C20277265736574272C20276E6577BB
:1014900070617373272C206F722027657869742719
:1014A0002E00200053656E642027707269636527E3
:1014B0002C2027707265636C6F7365272C2027635F
:1014C000616C666163746F72272C20276E6577707C
:1014D000617373272C206F72202765786974272E1B
:1014E000000053656E64206E65772076616C7565CB
:1014F0002028652E672E20302E3329206F7220275A
:1015000065786974270043757272656E74206F6622
:10151000667365743A2000456E7465726564205088
:1015200072652D436C6F7365204F6666736574201A
:101530004D6F64650020002000436F6E746163741A
:101540002075733A202B3235353736373833303300
:1015500031392E005448414E4B5320464F522054AF
:1015600052555354494E4720534D442773205761D9
:101570007465722056656E64730052657475726E80
:10158000656420746F20576F726B204D6F64652EF9
:1015900000416C6C20646174612073617665642124
:1015A000002000200053656E642027707269636517
:1015B000272C202763616C666163746F72272C206F
:1015C00027707265636C6F7365272C20276E6577B3
:1015D00070617373272C206F7220276578697427D8
:1015E0002E002000546F74616C2053616C65732071
:1015F0006E6F773A205473682000200053616C6549
:101600007320726573657421002000200053656E9D
:101610006420277072696365272C202763616C66DC
:101620006163746F72272C2027707265636C6F730F
:1016300065272C20277265736574272C20276E651B
:101640007770617373272C206F7220276578697417
:10165000272E002000546F74616C2053616C6573F9
:101660003A20547368200020002000456E74657293
:1016700065642050617373776F7264204368616E94
:101680006765204D6F64653A2053656E64206E6512
:10169000772070617373776F72642028757020747F
:1016A0006F203135206368617261637465727329DC
:1016B000002000004F722073656E642027707269ED
:1016C0006365272C2027707265636C6F7365272C08
:1016D000202762616C616E6365272C202772657319
:1016E0006574272C20276E657770617373272C2013
:1016F0006F72202765786974272E0000456E746527
:101700007265642043616C6962726174696F6E20F6
:10171000466163746F72204D6F64653A2053656E45
:10172000642063616C6962726174696F6E206661C6
:1017300063746F722028652E672E2C2073656E648B
:1017400020312E3029000020004F722073656E6416
:10175000202763616C666163746F72272C20277089
:101760007265636C6F7365272C202762616C616EF4
:101770006365272C20277265736574272C20276EDC
:10178000657770617373272C206F722027657869E5
:1017900074272E002000456E7465726564205072B7
:1017A00069636520506572204C69746572204D6FC5
:1017B00064653A2053656E642070726963652070B9
:1017C0006572206C697465722028652E672E2C2046
:1017D00073656E642035302E3029002000200050C3
:1017E0007265737320726573657420627574746FAB
:1017F0006E20666F722035207365636F6E64732090
:10180000746F2072657665727420746F20646566EB
:1018100061756C742070617373776F72642E00430E
:101820006F6E7461637420746865206F776E657283
:1018300020666F72206675727468657220617373BA
:10184000697374616E63652E00496E636F727265B1
:1018500063742070617373776F726421205472799E
:1018600020616761696E206F72200020004F722036
:1018700073656E64202762616C616E6365272074F6
:101880006F20636865636B2062616C616E63652CB9
:101890002027707265636C6F73652720746F2073E7
:1018A00065742056616C766520636C6F73652C20BF
:1018B0002772657365742720746F20726573657471
:1018C0002073616C65732C206F72202765786974B2
:1018D0002720746F2072657475726E20746F2057A4
:1018E0006F726B204D6F64652E00200053656E642F
:1018F000202770726963652720746F206368616EAA
:10190000676520707269636520706572206C697408
:1019100065722C202763616C666163746F72272087
:10192000746F206368616E67652063616C696272C1
:101930006174696F6E20666163746F722C20276E0C
:101940006577706173732720746F206368616E67B9
:10195000652070617373776F72642E00200050727F
:10196000652D436C6F7365204F6666736574206CDC
:101970006F616465643A2000200043616C696272A3
:101980006174696F6E20466163746F723A20002043
:1019900000507269636520706572204C69746572CD
:1019A0003A205473682000200043757272656E748B
:1019B00020446174613A002000534D44277320573E
:1019C000617465722056656E64733A20576173695D
:1019D0006C69616E61206E6173693A202B32353516
:1019E0003736373833303331392E002000436F6EAD
:1019F000746163743A202B323535373637383330DB
:101A00003331392E005448414E4B5320464F52201B
:101A10005452555354494E4720534D442773205731
:101A2000617465722056656E6473005265747572D8
:101A30006E656420746F20576F726B204D6F646504
:101A40002E00426C7565746F6F74682069646C65F4
:101A50002074696D656F7574207265616368656473
:101A60002E20416C6C206461746120736176656422
:101A7000210052657475726E696E6720746F20570D
:101A80006F726B00426C7565746F6F746820546977
:101A90006D656F75740020202020202020202020DC
:101AA00020202020202000576173696C69616E61DD
:101AB0002041646D696E004D415348494E452049AF
:101AC0004D4546554E475741005473683A20004FE4
:101AD0004E47455A412053414C494F0053414C49D0
:101AE0004F205473683A00527564692062616164E2
:101AF000617965004D4154454E47454E455A4F006A
:101B0000576173696C69616E612041646D696E0033
:101B10004D415348494E4520494D4546554E47573E
:101B20004100574153494C49414E41204E41204DBF
:101B30004D494C494B490056414C564520494D456D
:101B40005348494E445741212020200057415349D2
:101B50004C49414E41204E41204D4D4C494B49008E
:101B600056414C564520494D455348494E445741EE
:101B7000210020202020202020200053414C494FCC
:101B80003A5473682000484954494C41465520490D
:101B90004D45544F4B45412100002A23C7351124A0
:101BA0001FBECFEFD1E2DEBFCDBF00E00CBF26E00D
:101BB000A6E4B3E001C01D92A732B207E1F713E03B
:101BC000A0E0B2E0E4EEFEE700E00BBF02C0079049
:101BD0000D92A634B107D9F71DE0CEECDDE000E0B0
:101BE00006C021970109802FFE010E94FD3CCD3CDB
:101BF000D10780E00807A9F70E94A9230C94603F51
:101C00000C940000FC01A089B18982E08C93A4852A
:101C1000B5851C92A685B7858FEC8C93108EA48910
:101C2000B58986E08C93A289B3898C9180618C936D
:101C3000A289B3898C9188608C93A289B3898C9195
:101C400080688C930288F389E02D80818F7D80836A
:101C5000089580919F049091A004A091A104B09157
:101C6000A2040196A11DB11D80939F049093A0042E
:101C7000A093A104B093A20408950895089508952F
:101C80000895EF92FF920F931F93CF93DF938C01F0
:101C90007B01D0E0C0E0F701EC0FFD1F64916623EB
:101CA00061F0D801ED91FC910190F081E02DC80127
:101CB0001995892B11F02196EECFCE01DF91CF91AE
:101CC0001F910F91FF90EF900895AF92BF92CF9226
:101CD000DF92EF92FF920F931F93CF93DF936C01EC
:101CE0007B018B01040F151FEB015E01AE18BF08CD
:101CF000C017D10759F06991D601ED91FC9101907F
:101D0000F081E02DC6011995892B79F7C501DF9186
:101D1000CF911F910F91FF90EF90DF90CF90BF90E8
:101D2000AF900895FC01538D448D252F30E0842F12
:101D300090E0821B930B541710F0CF9608950197F3
:101D40000895FC01918D828D981761F0A28DAE0FE0
:101D5000BF2FB11D5D968C91928D9F5F9F73928F67
:101D600090E008958FEF9FEF0895FC01918D828D93
:101D7000981731F0828DE80FF11D858D90E0089560
:101D80008FEF9FEF0895FC01918D228D892F90E0B8
:101D9000805C9F4F821B91098F73992708958DEB6B
:101DA00094E00E94C30E21E0892B09F420E0822FE9
:101DB00008958AE595E00E94C30E21E0892B09F47D
:101DC00020E0822F0895FC01A48DA80FB92FB11D2A
:101DD000A35ABF4F2C91848D90E001968F73992761
:101DE000848FA689B7892C93A089B1898C9183703F
:101DF00080648C93938D848D981306C00288F38938
:101E0000E02D80818F7D80830895EF92FF920F9364
:101E10001F93CF93DF93EC0181E0888F9B8D8C8D96
:101E200098131AC0E889F989808185FF15C09FB78A
:101E3000F894EE89FF896083E889F989808183704D
:101E4000806480839FBF81E090E0DF91CF911F91FC
:101E50000F91FF90EF900895F62E0B8D10E00F5F1D
:101E60001F4F0F731127E02E8C8D8E110CC00FB6F3
:101E700007FCFACFE889F989808185FFF5CFCE018B
:101E80000E94E30EF1CFEB8DEC0FFD2FF11DE35A15
:101E9000FF4FF0829FB7F8940B8FEA89FB8980810E
:101EA0008062CFCFCF93DF93EC01888D8823B9F088
:101EB000AA89BB89E889F9898C9185FD03C0808155
:101EC00086FD0DC00FB607FCF7CF8C9185FFF2CFD2
:101ED000808185FFEDCFCE010E94E30EE9CFDF9137
:101EE000CF91089580E090E0892B29F00E94D90ECF
:101EF00081110E94000080E090E0892B29F00E946F
:101F0000CF0E81110E94000080E090E0892B49F003
:101F100080E090E0892B29F00E94000081110E944E
:101F2000000080E090E0892B49F080E090E0892B70
:101F300029F00E94000081110C9400000895815046
:101F4000823108F05AC0E82FF0E08827E555F04FBD
:101F50008F4F0C94FD3CCB0FCF0FBD0FC30FC70F9E
:101F6000FD0FD20FD80FDC0FE20FE60FEA0FF00FD4
:101F7000F40FFD0FF80FFE0F0210809180008F7795
:101F8000809380000895809180008F7DF9CF8091AB
:101F90008000877FF5CF84B58F7784BD089584B5A1
:101FA0008F7DFBCF8091B0008F778093B000089534
:101FB0008091B0008F7DF9CF809190008F778093D2
:101FC00090000895809190008F7DF9CF80919000CE
:101FD000877FF5CF8091A0008F778093A000089530
:101FE0008091A0008F7DF9CF8091A000877FF5CFF1
:101FF000809120018F7780932001089580912001A6
:102000008F7DF9CF80912001877FF5CFCF93DF932C
:10201000282F30E0F901EC5FFB4F8491F901E25485
:10202000FC4FD491F901E858FC4FC491CC23A1F0A6
:1020300081110E949F0FEC2FF0E0EE0FFF1FE25A7C
:10204000FC4FA591B491EC91ED2381E090E009F46F
:1020500080E0DF91CF91089580E090E0FACF1F9368
:10206000CF93DF93282F30E0F901EC5FFB4F849191
:10207000F901E254FC4FD491F901E858FC4FC491A6
:10208000CC23A9F0162F81110E949F0FEC2FF0E0B6
:10209000EE0FFF1FEC5BFC4FA591B4918FB7F89446
:1020A000EC91111108C0D095DE23DC938FBFDF9136
:1020B000CF911F910895DE2BF8CFCF93DF9390E05F
:1020C000FC01E254FC4F249188589C4FFC01849100
:1020D0008823C9F090E0880F991FFC01E65DFC4F52
:1020E000A591B491FC01EC5BFC4FC591D4916111B9
:1020F0000DC09FB7F8948C91209582238C93888192
:10210000282328839FBFDF91CF910895623051F437
:102110009FB7F8943C91822F809583238C93E8811C
:102120002E2BEFCF8FB7F894EC912E2B2C938FBFE3
:10213000EACF3FB7F8948091100490911104A091D8
:102140001204B091130426B5A89B05C02F3F19F0C7
:102150000196A11DB11D3FBFBA2FA92F982F882727
:10216000BC01CD01620F711D811D911D42E0660F02
:10217000771F881F991F4A95D1F708958F929F92D4
:10218000AF92BF92CF92DF92EF92FF924B015C0130
:102190000E9499106B017C010E9499106C197D09B5
:1021A0008E099F09683E734081059105A8F321E0DF
:1021B000821A9108A108B10888EEC80E83E0D81EE3
:1021C000E11CF11C81149104A104B10429F7FF90D2
:1021D000EF90DF90CF90BF90AF909F908F90089539
:1021E0002FB7F89460910C0470910D0480910E0447
:1021F00090910F042FBF089520919803260F332745
:10220000331F21323105ECF42091E103FC0190E011
:1022100080E0243069F082E00895A0919803219134
:10222000AC0148585C4FA40FB52FB11D2C930196FB
:10223000861798F380919803680F6093980380E065
:10224000089581E008951092E10381E08093E00316
:102250001092BB0361E084E10E942F1061E085E1F0
:102260000E942F10E9EBF0E080818E7F80838081D7
:102270008D7F808388E48093B80085E48093BC00E0
:102280000895CF93DF9391E0909377038823B9F07B
:10229000C091B800D091BA008091BC008A7B809335
:1022A000BC0060E084E10E942F1060E085E10E94A4
:1022B0002F100E942311D093BA00C093B800DF9171
:1022C000CF9108950895E0911B0480911A04E817B6
:1022D00030F4F0E0E95AFC4F808190E008958FEFF0
:1022E0009FEF089590911B0480911A042FEF3FEF08
:1022F000981748F4E92FF0E0E95AFC4F208130E0CC
:102300009F5F90931B04C901089580911A049091D6
:102310001B04891B990B0895CF92DF92EF92FF92D5
:102320000F931F93CF93DF937C01CB018A01209100
:10233000E703222389F0EB016B01C40ED51ECC15F7
:10234000DD0569F06991D701ED91FC910190F08173
:10235000E02DC7011995F3CF642F0E94FC10C8012E
:10236000DF91CF911F910F91FF90EF90DF90CF9071
:102370000895CF93DF931F92CDB7DEB76983209185
:10238000E7032223F9F020911804203258F021E0CD
:1023900030E0FC013383228390E080E00F90DF91F6
:1023A000CF91089580911904E82FF0E0E851FC4F97
:1023B000998190838F5F809319048093180481E042
:1023C00090E0ECCF61E0CE0101960E94FC10F7CFC7
:1023D000CF92DF92EF92FF920F931F93CF93DF93F1
:1023E000FC01C48121E02093E703C093080410920C
:1023F0001904109218048385682B87EF95E00E94DA
:10240000B911D0911804D13208F092C00E949910ED
:102410006B017C018091E103811165C082E08093B2
:10242000E10381E08093E0038FEF8093DF0310925C
:10243000DE03D093DD03A8EEB3E0EDEBF3E080E044
:10244000D81385C01092BC038091BC03CC0FC82B5D
:10245000C093BC038091BB03813009F07CC0109213
:10246000BB030E9499106B017C018091BC03809397
:10247000BB008091E3039091E403A091E503B09148
:10248000E603892B8A2B8B2B99F00E9499100091DF
:10249000E3031091E4032091E5033091E6036C1906
:1024A0007D098E099F090617170728073907E0F1EC
:1024B0008091BC0083FDD9CF85EC8093BC000E9445
:1024C00099106B017C018091E103823009F445C0D1
:1024D0008091DF038F3F61F18091DF03803241F112
:1024E0008091DF0325C08091E3039091E403A091E4
:1024F000E503B091E603892B8A2B8B2B09F48ACF55
:102500000E9499100091E3031091E4032091E503E8
:102510003091E6036C197D098E099F09061717078C
:102520002807390708F076CF8091E2030E94411115
:1025300010921904109218041092E703DF91CF91C2
:102540001F910F91FF90EF90DF90CF9008959D9194
:1025500091938F5F75CF85EEB0CF8091E30390911B
:10256000E403A091E503B091E603892B8A2B8B2B22
:1025700009F4A9CF0E9499100091E3031091E4039C
:102580002091E5033091E6036C197D098E099F09BE
:10259000061717072807390708F095CFC5CF88E039
:1025A0008093200660E085E196E00C94E81190E0CD
:1025B00080E0089580919404811136C08091930445
:1025C000811132C060918B0470918C0480918D04D4
:1025D00090918E0420E030E048E452E40E94B03B49
:1025E00060938B0470938C0480938D0490938E047D
:1025F00060918B0470918C0480918D0490918E0475
:102600000E948E3C6093A7047093A8048093A90451
:102610009093AA040E94F0106093B4047093B504E0
:102620008093B6049093B70408958DEB94E00E94D4
:10263000C30E892B29F08DEB94E00E94A10EF5CFFB
:1026400008950F931F93CF938C01C62F0E94E8111A
:102650006C2F6460C8010E94E8116C2F6B7FC80169
:102660000E94E81183EC90E00197F1F7CF911F9160
:102670000F9108950F931F93CF93DF938C01D62F63
:10268000C42F607F642B0E94211380E1D89FB0018A
:1026900011246C2BC801DF91CF911F910F910C94E5
:1026A0002113CF93DF9300D000D01F921F92CDB79C
:1026B000DEB798E0E3E3F2E0DE01119601900D92BF
:1026C0009A95E1F790911D06961708F46FEF262F63
:1026D00030E0220F331F41E050E04C0F5D1F240F0C
:1026E000351FF9016081680F606840E085E196E080
:1026F00028960FB6F894DEBF0FBECDBFDF91CF9105
:102700000C943A1340E061E085E196E00E943A13B0
:102710008BE39FE10197F1F7089541E00E943A139E
:1027200081E090E00895EF92FF920F931F93CF9373
:10273000DF937C018C01C8E0D0E0CE010E947F3B9A
:10274000F80181938F012196C831D105B1F7C701F6
:10275000DF91CF911F910F91FF90EF900895CF924D
:10276000DF92EF92FF920F931F93CF93DF93EB01D2
:102770007B0124E0E20EF11C8B016C01C61AD70A22
:10278000C601800F911F0E947F3BF80181938F014A
:10279000EE15FF05A9F7CE01DF91CF911F910F91A3
:1027A000FF90EF90DF90CF900895CF93DF93EC01EF
:1027B00080910F06909110060097E9F06881798169
:1027C00061157105B1F040911106509112062C81EE
:1027D0003D814217530768F00E943C3F8C819D81E8
:1027E00090931406809313061D821C82DF91CF9173
:1027F00008950E94B53D8881998190931006809339
:102800000F068A819B8190931206809311068C811A
:102810009D819093140680931306198218821B825F
:102820001A82E2CFCF93DF93EC01888199810097E0
:1028300011F00E94B53D198218821D821C821B82F4
:102840001A82DF91CF910895FC01808191810097D8
:1028500011F00C94B53D0895FB0101900020E9F7BB
:102860003197AF01461B570BDC01ED91FC910280C3
:10287000F381E02D1994CF93DF93BC018DEB94E0AD
:102880000E94410EEC016BE672E08DEB94E00E9439
:102890002C148C0F9D1FDF91CF9108958F929F92E2
:1028A000AF92BF92EF92FF920F931F93CF93DF935C
:1028B000CDB7DEB7A1970FB6F894DEBF0FBECDBF80
:1028C0007C01FA01CB0119A2223008F42AE08E0122
:1028D0000F5D1F4F822E912CB12CA12CBF01A501A1
:1028E00094010E94DB3CF901CA016A300CF5605D7D
:1028F000D8016E938D01232B242B252B79F790E0A3
:1029000080E0109721F0BD01C7010E942C14A19610
:102910000FB6F894DEBF0FBECDBFDF91CF911F91F0
:102920000F91FF90EF90BF90AF909F908F90089580
:10293000695CDECFCF93DF93AB01BC012AE08DEB66
:1029400094E00E944E14EC016BE672E08DEB94E093
:102950000E942C148C0F9D1FDF91CF9108952F9210
:102960003F924F925F926F927F928F929F92AF921F
:10297000BF92CF92DF92EF92FF921F93CF93DF939C
:10298000EC016A017B01722EAB019601CB01B6010D
:102990000E94C23C6EE672E0811126C046015701DA
:1029A000E894B7F82FEF3FEF4FE75FE7C501B401B9
:1029B0000E94C23C81110CC02FEF3FEF4FE75FE751
:1029C000C501B4010E94583A62E772E0181664F03B
:1029D0002FEF3FEF4FE75FE4C701B6010E94BD3C18
:1029E0001816B4F466E772E0CE01DF91CF911F9123
:1029F000FF90EF90DF90CF90BF90AF909F908F901F
:102A00007F906F905F904F903F902F900C942C147C
:102A10002FEF3FEF4FE75FECC701B6010E94583A36
:102A200087FDE0CF20E030E0A901C701B6010E9498
:102A3000583A312C212C87FF0DC0E881F981019093
:102A4000F081E02D6DE2CE0119951C01F7FAF094AA
:102A5000F7F8F09410E060E070E080E09FE371161A
:102A600041F020E030E040E251E40E941C3C1F5F56
:102A7000F6CFA70196010E94B03B2B013C010E94BA
:102A80008E3C4B015C012AE0BC01A401CE010E94F6
:102A90004E147C01E20CF31C1123E1F1C501B401D9
:102AA0000E945D3A9B01AC01C301B2010E94AF3BA1
:102AB0004B015C01E881F9810190F081E02D6EE22B
:102AC000CE011995E80EF91E115020F120E030E0FA
:102AD00040E251E4C501B4010E94BE3A2B013C0121
:102AE0000E948E3C4B01B12CA12C2AE0B501A4011F
:102AF000CE010E944E14E80EF91EC501B4010E94D9
:102B00005D3A9B01AC01C301B2010E94AF3B4B0196
:102B10005C01DACFC701DF91CF911F91FF90EF9059
:102B2000DF90CF90BF90AF909F908F907F906F90ED
:102B30005F904F903F902F900895CF93DF93AB011C
:102B4000BC0122E08DEB94E00E94AF14EC016BE637
:102B500072E08DEB94E00E942C148C0F9D1FDF918E
:102B6000CF910895FB0144815581FC012481358179
:102B70002417350778F080819181009759F0FB0187
:102B8000608171816115710529F00E94433F21E048
:102B9000892B09F020E0822F08950F931F93CF9384
:102BA000DF93EC0188819981009759F02A813B815C
:102BB0002617370730F081E0DF91CF911F910F91F9
:102BC00008958B016F5F7F4F0E943E3E009759F042
:102BD000998388831B830A832C813D81232B59F79A
:102BE000FC011082E8CF80E0E7CFEF92FF920F93D5
:102BF0001F93CF93DF936115710541F480E0DF915E
:102C0000CF911F910F91FF90EF90089541155105BD
:102C1000B1F07B01EC010C811D81040F151FB8017F
:102C20000E94CD15882351F3288139818C819D81A3
:102C3000B701820F931F0E943C3F1D830C8381E0EC
:102C4000DECFCF93DF93EC01FB0101900020E9F789
:102C50003197AF01461B570B0E94F515811103C038
:102C6000CE010E941214CE01DF91CF910895CF932F
:102C7000DF93EC01FB0144815581608171810E94E9
:102C8000F515811103C0CE010E941214CE01DF910F
:102C9000CF910895EF92FF920F931F93CF93DF93FD
:102CA000EC017B018A01BA010E94CD1581110BC094
:102CB000CE010E941214CE01DF91CF911F910F918E
:102CC000FF90EF9008951D830C83B701888199814F
:102CD0000E943C3FF0CFFB0101900020E9F73197C3
:102CE000AF01461B570B0C944A16CF93DF93EC01B0
:102CF000FB018617970749F06081718161157105A5
:102D000041F0448155810E944A16CE01DF91CF9156
:102D100008950E941214F9CFFC01118210821382CF
:102D20001282158214820C947516FC011182108295
:102D30001382128215821482FB0101900020E9F7B0
:102D40003197AF01461B570B0C944A16AF92BF92B6
:102D5000CF92DF92EF92FF920F931F93CF93DF9367
:102D60006C015B017A0189012417350720F48F2D4E
:102D70007901042F182F6DE672E0C6010E949516A6
:102D8000D5011496CD91DC91EC16FD06E0F40C17FC
:102D90001D0708F4E801D501ED91FC911197EC0FA6
:102DA000FD1F108110826D917C916E0D7F1DC601FB
:102DB00061157105A1F00E946B16F501808191816A
:102DC000C80FD91F1883C601DF91CF911F910F91B2
:102DD000FF90EF90DF90CF90BF90AF9008950E944A
:102DE0001214EBCFEF92FF920F931F93CF93DF93C9
:102DF000CDB7DEB7A1970FB6F894DEBF0FBECDBF3B
:102E00007C01CB01BA01F701118210821382128278
:102E10001582148242E0420F8E010F5F1F4F0E9405
:102E2000D335009789F0BC01C7010E946B16A196AB
:102E30000FB6F894DEBF0FBECDBFDF91CF911F91CB
:102E40000F91FF90EF900895C7010E941214EFCFE9
:102E50004F925F926F927F928F929F92AF92BF92AA
:102E6000EF92FF920F931F93CF93DF93CDB7DEB70F
:102E70006E970FB6F894DEBF0FBECDBF4B015C015D
:102E800029013A01B801A70122E0CE0143960E9430
:102E9000F21623E0B301A201CE010D960E94F216B4
:102EA00023E0B501A401CE0107960E94F2166AE75D
:102EB00072E0CE0101960E949516BE01695F7F4FB8
:102EC000CE0101960E94371668E373E00E94211636
:102ED000BE01635F7F4F0E94371668E373E00E9474
:102EE0002116BE016D5E7F4F0E943716BC01CE01D8
:102EF00049960E948C16CE0149960E942414CE0158
:102F000001960E942414CE0107960E942414CE013B
:102F10000D960E942414CE0143960E9424146E96AE
:102F20000FB6F894DEBF0FBECDBFDF91CF911F91DA
:102F30000F91FF90EF90BF90AF909F908F907F90F8
:102F40006F905F904F90089585ED8093BC008091C5
:102F5000E3039091E403A091E503B091E6030796A3
:102F6000A11DB11D23E0B695A795979587952A9544
:102F7000D1F72091BC0024FD03C01092E103089515
:102F80004091E3035091E4036091E5037091E603FF
:102F9000452B462B472B69F30097A105B10541F05E
:102FA0002AE22A95F1F700C00197A109B109E1CF02
:102FB0008091E2030C944111FF920F931F93CF93E2
:102FC000DF93EC01F62E08811981C8010E947F3B36
:102FD000F81621F06F2DC8010E94873BCE01DF91CA
:102FE000CF911F910F91FF900895EF92FF920F9351
:102FF0001F93CF93DF931F921F92CDB7DEB78DE162
:10300000E82E82E0F82E08E010E01A830983F70129
:1030100061917F01CE0101960E94DC170F5F1F4F67
:103020000831110591F78DE192E00F900F90DF913B
:10303000CF911F910F91FF90EF900895CF93DF9361
:10304000CDB7DEB760970FB6F894DEBF0FBECDBF29
:103050000E94F517CE0101960E9493136DE172E074
:10306000CE0101960E94333F892B11F00E94F51783
:1030700060960FB6F894DEBF0FBECDBFDF91CF9143
:103080000895AF92BF92CF92DF92EF92FF920F938B
:103090001F93CF93DF931F921F92CDB7DEB78B01A3
:1030A0006B0124E0C20ED11C7B015C01A61AB70A99
:1030B000C5018E0D9F1D9A838983F70161917F0160
:1030C000CE0101960E94DC17EC14FD0489F7C801BB
:1030D0000F900F90DF91CF911F910F91FF90EF9084
:1030E000DF90CF90BF90AF900895CF92DF92EF9294
:1030F000FF920F931F93CF93DF9300D01F92CDB712
:10310000DEB710E000E068E072E088E190E00E9445
:103110004118BE016F5F7F4F88E190E00E94AF13BE
:10312000209108023091090240910A0250910B024D
:1031300069817A818B819C810E94AF3B6B017C010C
:1031400020E030E0A9010E94BD3C1816BCF420E04C
:1031500030E040E85FE3C701B6010E94583A87FFBC
:1031600017C00F900F900F900F90DF91CF911F918C
:103170000F91FF90EF90DF90CF90089520E030E026
:1031800040E85FEBC701B6010E94BD3C18164CF346
:103190000F5F1F4F0330110509F0B5CFE2CFCF937A
:1031A000DF9300D01F92CDB7DEB764E072E084E019
:1031B00090E00E944118BE016F5F7F4F84E090E075
:1031C0000E94AF1320910402309105024091060243
:1031D0005091070269817A818B819C810E94583AC3
:1031E000882331F064E072E084E090E00E944118AE
:1031F0000F900F900F900F90DF91CF910895EF9265
:10320000FF920F931F93CF93DF931F921F92CDB71F
:10321000DEB78CE1E82E84E0F82E02E210E01A839B
:103220000983F70161917F01CE0101960E94DC17AD
:103230000F5F1F4F0F35110591F70F900F90DF9122
:10324000CF911F910F91FF90EF9008952F923F9291
:103250004F925F926F927F928F929F92AF92BF92A6
:10326000CF92DF92EF92FF920F931F93CF93DF9352
:10327000CDB7DEB762970FB6F894DEBF0FBECDBFF5
:1032800090E2292E312C8AE595E00E94C30E892B0D
:1032900009F4E5C18AE595E00E94A10E2091070698
:1032A000309108068A3019F08D3009F0C8C1232BFF
:1032B00051F363E076E0CE010D960E948C1660E833
:1032C00072E0CE0101960E949516BE016F5F7F4F9E
:1032D000CE010D960E94B215182FCE0101960E94C4
:1032E0002414112309F4CAC029893A8949E050E01D
:1032F000BE01635F7F4FCE0107960E94A6160B8525
:103300001C850115110561F0AF80B8846AE370E097
:10331000C5010E94283F7C01EA18FB08892B19F49B
:10332000EE24EA94FE2C57018FEFA81AB80AA016D3
:10333000B10608F0A0C08F8098846AE370E0C401F1
:103340008A0D9B1D0E94283F009709F494C01E140B
:103350001F040CF090C08C010819190910161106F1
:103360000CF089C0970150E040E0BE01695F7F4FDB
:10337000CE0101960E94A61689819A81412C512C7A
:103380003201009721F00E94F1352B013C01CE0162
:1033900001960E9424149801A501BE01695F7F4F28
:1033A000CE0101960E94A61689819A81812C912CCA
:1033B0005401009721F00E94F1354B015C01CE01D0
:1033C00001960E9424142B853C85A8014F5F5F4F16
:1033D000BE01695F7F4FCE0101960E94A6168981CA
:1033E0009A81C12CD12C7601009721F00E94F135F1
:1033F0006B017C01CE0101960E94241420E030E094
:10340000A901C301B2010E94BD3C87FD0AC04092E0
:1034100008025092090260920A0270920B020E9406
:10342000751820E030E0A901C501B4010E94BD3C3F
:1034300087FD0AC08092040290920502A0920602C3
:10344000B09207020E94CF1820E030E0A901C70126
:10345000B6010E94BD3C87FD0EC0C0920002D09212
:103460000102E0920202F092030260E072E08CE15D
:1034700090E00E944118CE0107967FC06AE872E092
:10348000CE0101960E949516BE016F5F7F4FCE015F
:103490000D960E94B215182FCE0101960E94241499
:1034A0001123D9F11091940429893A8945E050E01B
:1034B000BE01635F7F4FCE0101960E94A6168981EF
:1034C0009A81009731F10E94F53521E06130710554
:1034D0008105910509F020E020939404CE01019626
:1034E0000E94241480919404181741F06091940470
:1034F0003A822982CE0101960E94DC17CE010D96F8
:103500000E9424146DE672E083E096E00E946B1640
:10351000BACE60E070E0CB01D8CF60E972E0CE01B6
:1035200001960E949516BE016F5F7F4FCE010D96EA
:103530000E94B215182FCE0101960E942414112367
:1035400019F129893A8946E050E0BE01635F7F4F57
:10355000CE0101960E94A61689819A81009781F07A
:103560000E94F53521E0613071058105910509F072
:1035700020E020939304CE0101960E942414BECF34
:1035800060E070E0CB01EECF67E972E0CE0101961A
:103590000E949516BE016F5F7F4FCE010D960E946F
:1035A000B215182FCE0101960E942414112309F49C
:1035B000A5CF29893A894BE050E0BE01635F7F4F78
:1035C000CE0107960E94A6160B851C8501151105D4
:1035D00049F0EF80F88463EA72E0C7010E94333F4C
:1035E000892B79F410921C040E94FF1869E076E0A0
:1035F0008FE096E00E947516109286041092850462
:103600003ACF0D331105C0F7A801B7018CE194E062
:103610000E94513FF801E45EFB4F10820E94FF18A8
:103620006CE174E0CE0101960E949516CE010196E0
:103630000E94D513CE0101960E942414DDCF2837B5
:10364000310508F020CE89831A8241E050E0BE01A6
:103650006F5F7F4F83E096E00E94F51514CE62966F
:103660000FB6F894DEBF0FBECDBFDF91CF911F9193
:103670000F91FF90EF90DF90CF90BF90AF909F9011
:103680008F907F906F905F904F903F902F90089514
:10369000EF92FF920F931F93CF93DF931F921F928E
:1036A000CDB7DEB78FE5E82E84E0F82E02E010E01B
:1036B0001A830983F70161917F01CE0101960E946F
:1036C000DC170F5F1F4F0630110591F70F900F9019
:1036D000DF91CF911F910F91FF90EF900895CF93BD
:1036E000DF931F921F92CDB7DEB71A8219826DEC5D
:1036F000CE0101960E94DC1781E090E09A838983D5
:103700006BEACE0101960E94DC170E94481B0E94C2
:10371000CF180E941E180E94751860E072E08CE1BC
:1037200090E00E9441180F900F90DF91CF91089583
:103730002F923F924F925F926F927F928F929F92C1
:10374000AF92BF92CF92DF92EF92FF920F931F93AF
:10375000CF93DF93CDB7DEB7AA970FB6F894DEBF4D
:103760000FBECDBF0E94821360E080E00E94511323
:103770006BE173E085E196E00E94410E61E08AE032
:103780000E942F101092530310925403109255036D
:103790001092560310929F041092A0041092A1045C
:1037A0001092A2040E94F0106093590470935A047E
:1037B00080935B0490935C046091A7047091A804CB
:1037C0008091A9049091AA040E945D3A4B015C018A
:1037D00080924F0390925003A0925103B0925203F3
:1037E000209108023091090240910A0250910B0287
:1037F0000E941C3C2B013C0110924E0310924A0384
:1038000010924B0310924C0310924D0385017401EA
:10381000AC019B0160E070E0CB010E9428171BA265
:103820001CA21DA21EA2812C912C80E8282E9FEBA9
:10383000392ED12CC12CB12CA12CA8950E9426196F
:103840000E94F0102BA13CA14DA15EA1621B730B45
:10385000840B950B603D774081059105B0F0E090B9
:103860004F03F09050030091510310915203A301B4
:1038700092016D2D7C2D8B2D9A2D0E9428170E9470
:10388000F0106BA37CA38DA39EA30E94F010009167
:10389000590410915A0420915B0430915C04601B20
:1038A000710B820B930B683E73408105910508F400
:1038B0004CC2ED988DE39EE090930F0280930E0230
:1038C00060919F047091A0048091A1049091A20442
:1038D0000E945D3A20910402309105024091060257
:1038E000509107020E941C3C60934603709347036B
:1038F000809348039093490320E030E040E752E48E
:103900000E941C3C20915303309154034091550375
:10391000509156030E94B03BD62EC72EB82EA92E2A
:10392000862F9C2DAB2DBA2D809353039093540377
:10393000A0935503B09356032091080230910902D9
:1039400040910A0250910B026D2D7C2D8B2D9A2DEA
:103950000E94BE3A6FA378A789A79AA710929F04E6
:103960001092A0041092A1041092A2040E94F010E0
:103970006093590470935A0480935B0490935C04A1
:10398000A9E2BEE0B0930F02A0930E0280916A00FC
:10399000837F886080936A00ED9A9401A1016D2D68
:1039A0007C2D8B2D9A2D0E94AF3B6F8F78A389A31E
:1039B0009AA320E030E0A9010E94BD3C18160CF04B
:1039C00077C12AE037ED43E25CE36F8D78A189A1EE
:1039D0009AA10E94BD3C87FF78C12D2D3C2D4B2D17
:1039E0005A2DC301B2010E94583A18160CF06DC14D
:1039F00080914E03811129C0209100023091010273
:103A00004091020250910302C301B2010E94AF3BF8
:103A10009B01AC016D2D7C2D8B2D9A2D0E94BD3C00
:103A200087FD13C0B1E0B0934E0360E08AE00E94CE
:103A30002F100E94821360E080E00E94511368EF13
:103A400072E085E196E00E94410E2D2D3C2D4B2D1C
:103A50005A2DC301B2010E94583A18160CF475C1D0
:103A600060E08AE00E942F10ED988DE39EE0909335
:103A70000F0280930E0210929F041092A0041092E5
:103A8000A1041092A2040E94F01060935904709354
:103A90005A0480935B0490935C0489E29EE09093C7
:103AA0000F0280930E0280916A00837F886080936A
:103AB0006A00ED9A10924E0310924A0310924B0343
:103AC00010924C0310924D0360E08AE00E942F1088
:103AD00060915F0470916004809161049091620430
:103AE0000E945D3A20914F03309150034091510361
:103AF000509152030E94B03B0E948E3C60935F0441
:103B00007093600480936104909362040E94481B48
:103B100040904F03509050036090510370905203B7
:103B2000409108025091090260910A0270910B02C3
:103B300022E0CE0107960E94F21623E04D2D5C2D67
:103B40006B2D7A2DCE010D960E94F21622E0B30164
:103B5000A201CE0143960E94F2166BEA72E0CE01FA
:103B600049960E949516BE016D5E7F4FCE01499623
:103B70000E94371668E373E00E942116BE01635F5E
:103B80007F4F0E94371668E373E00E942116BE0142
:103B9000695F7F4F0E943716BC01CE0101960E94DB
:103BA0008C16CE0101960E942414CE0149960E94E3
:103BB0002414CE0143960E942414CE010D960E9437
:103BC0002414CE0107960E9424140E94821360E000
:103BD00083E00E9451136CEE72E085E196E00E9452
:103BE000410E61E082E00E94511360EE72E085E1D7
:103BF00096E00E94410E68EE73E080E090E00E9443
:103C0000BE101092AB0460E08AE00E942F100E9468
:103C100082130E946F1B1092A7041092A8041092A6
:103C2000A9041092AA0410928B0410928C04109292
:103C30008D0410928E0410924F0310925003109234
:103C40005103109252031092530310925403109296
:103C500055031092560310929F041092A0041092E4
:103C6000A1041092A20410924A0310924B031092E6
:103C70004C0310924D0361E089E00E942F10AA9638
:103C80000FB6F894DEBF0FBECDBFDF91CF911F916D
:103C90000F91FF90EF90DF90CF90BF90AF909F90EB
:103CA0008F907F906F905F904F903F902F900895EE
:103CB0002AE037ED43E25CEB6F8D78A189A19AA1F0
:103CC0000E94583A18160CF488CE0E94821360E1C4
:103CD00073E085E196E00E94410E40914F035091C0
:103CE0005003609151037091520322E085E196E008
:103CF0000E94AF1461E080E00E9451136DE073E018
:103D000085E196E00E94410E22E04D2D5C2D6B2D49
:103D10007A2D85E196E00E94AF1461E087E00E9471
:103D2000511369E073E085E196E00E94410E22E0C4
:103D30004FA158A569A57AA585E196E00E94AF1428
:103D40008D2C9C2C2B2C3A2C53CE80914E03811120
:103D500074CD2AE037ED43E25CE360914603709155
:103D6000470380914803909149030E94583A87FF86
:103D7000D8C020914A0330914B0340914C0350919D
:103D80004D032F8F38A349A35AA3232B242B252B74
:103D900059F40E94F01060934A0370934B03809390
:103DA0004C0390934D0349CD0E94F0102F8D38A104
:103DB00049A15AA1621B730B840B950B60317742AA
:103DC0008105910508F439CD60E08AE00E942F104A
:103DD00060E089E00E942F1081E08093B804109287
:103DE0004A0310924B0310924C0310924D0305E0CE
:103DF00010E0A89561E088E00E942F106CE271E06D
:103E000080E090E00E94BE1060E088E00E942F10E9
:103E100068EC70E080E090E00E94BE100150110953
:103E200041F7209108023091090240910A02509115
:103E30000B026D2D7C2D8B2D9A2D0E94BE3A0E9477
:103E40008E3C8090A7049090A804A090A904B09004
:103E5000AA04462F572FBC0184169506A606B7065E
:103E600010F4B501A401841A950AA60AB70A809233
:103E7000B0049092B104A092B204B092B3040E9434
:103E8000821360E080E00E9451136DEC72E085E1E6
:103E900096E00E94410E61E080E00E94511362ECC6
:103EA00072E085E196E00E94410E4091B00450918D
:103EB000B1046091B2047091B3042AE085E196E008
:103EC0000E944E1469EB72E085E196E00E94410E7B
:103ED0001092A7041092A8041092A9041092AA04A8
:103EE00010928B0410928C0410928D0410928E0408
:103EF00010924F03109250031092510310925203EC
:103F000010925303109254031092550310925603CB
:103F100010929F041092A0041092A1041092A20487
:103F2000AECE10924A0310924B0310924C031092A3
:103F30004D0383CC1F920F920FB60F9211240BB634
:103F40000F922F933F934F935F936F937F938F9332
:103F50009F93AF93BF93EF93FF938DEB94E00E94F9
:103F6000E30EFF91EF91BF91AF919F918F917F9160
:103F70006F915F914F913F912F910F900BBE0F90DA
:103F80000FBE0F901F9018951F920F920FB60F92B1
:103F900011240BB60F922F938F939F93EF93FF9360
:103FA000E091CD04F091CE048081E091D304F091B2
:103FB000D40482FD1DC090818091D6048F5F8F73E1
:103FC0002091D704821741F0E091D604F0E0E35449
:103FD000FB4F958F8093D604FF91EF919F918F9126
:103FE0002F910F900BBE0F900FBE0F901F90189542
:103FF0008081F2CF1F920F920FB60F9211240BB651
:104000000F922F933F934F935F936F937F938F9371
:104010009F93AF93BF93EF93FF938AE595E00E9440
:10402000E30EFF91EF91BF91AF919F918F917F919F
:104030006F915F914F913F912F910F900BBE0F9019
:104040000FBE0F901F9018951F920F920FB60F92F0
:1040500011240BB60F922F938F939F93EF93FF939F
:10406000E0916A05F0916B058081E0917005F09117
:10407000710582FD1DC09081809173058F5F8F73E4
:1040800020917405821741F0E0917305F0E0E65A43
:10409000FA4F958F80937305FF91EF919F918F91C8
:1040A0002F910F900BBE0F900FBE0F901F90189581
:1040B0008081F2CF1F920F920FB60F9211242F938F
:1040C0003F938F939F93AF93BF9380910C049091F4
:1040D0000D04A0910E04B0910F0430910B0423E065
:1040E000230F2D3758F50196A11DB11D20930B0408
:1040F00080930C0490930D04A0930E04B0930F04CE
:104100008091100490911104A0911204B0911304B5
:104110000196A11DB11D8093100490931104A093EA
:104120001204B0931304BF91AF919F918F913F916F
:104130002F910F900FBE0F901F90189526E8230F18
:104140000296A11DB11DD2CF1F920F920FB60F92F2
:1041500011240BB60F922F933F934F935F936F935E
:104160007F938F939F93AF93BF93EF93FF93E091D0
:104170001A02F0911B021995FF91EF91BF91AF9137
:104180009F918F917F916F915F914F913F912F916F
:104190000F900BBE0F900FBE0F901F9018951F929F
:1041A0000F920FB60F9211240BB60F922F933F93DD
:1041B0004F935F936F937F938F939F93AF93BF932F
:1041C000EF93FF93E0911802F09119021995FF9176
:1041D000EF91BF91AF919F918F917F916F915F917F
:1041E0004F913F912F910F900BBE0F900FBE0F90EC
:1041F0001F9018951F920F920FB60F9211240BB6B5
:104200000F922F933F934F935F936F937F938F936F
:104210009F93AF93BF93EF93FF93E0910E02F091C2
:104220000F021995FF91EF91BF91AF919F918F91DF
:104230007F916F915F914F913F912F910F900BBEA6
:104240000F900FBE0F901F9018951F920F920FB6F0
:104250000F9211240BB60F922F933F934F935F93BE
:104260006F937F938F939F93AF93BF93EF93FF933E
:10427000E0910C02F0910D021995FF91EF91BF9121
:10428000AF919F918F917F916F915F914F913F91EE
:104290002F910F900BBE0F900FBE0F901F9018958F
:1042A0001F920F920FB60F9211240BB60F922F93FD
:1042B0003F934F935F936F937F938F939F93AF93AE
:1042C000BF93EF93FF93E0911602F09117021995B7
:1042D000FF91EF91BF91AF919F918F917F916F91DE
:1042E0005F914F913F912F910F900BBE0F900FBE9A
:1042F0000F901F9018951F920F920FB60F921124D6
:104300000BB60F922F933F934F935F936F937F93CF
:104310008F939F93AF93BF93EF93FF93E09114021A
:10432000F09115021995FF91EF91BF91AF919F9177
:104330008F917F916F915F914F913F912F910F904E
:104340000BBE0F900FBE0F901F9018951F920F92EB
:104350000FB60F9211240BB60F922F933F934F93EA
:104360005F936F937F938F939F93AF93BF93EF93DD
:10437000FF93E0911202F09113021995FF91EF91D2
:10438000BF91AF919F918F917F916F915F914F916D
:104390003F912F910F900BBE0F900FBE0F901F906B
:1043A00018951F920F920FB60F9211240BB60F9211
:1043B0002F933F934F935F936F937F938F939F932D
:1043C000AF93BF93EF93FF93E0911002F09111022E
:1043D0001995FF91EF91BF91AF919F918F917F912F
:1043E0006F915F914F913F912F910F900BBE0F9066
:1043F0000FBE0F901F9018951F920F920FB60F923D
:1044000011240F900FBE0F901F9018951F920F92BE
:104410000FB60F9211240BB60F922F933F934F9329
:104420005F936F937F938F939F93AF93BF93EF931C
:10443000FF938091B900887F803609F44DC008F061
:1044400040C0883209F4A9C028F5803109F49DC024
:10445000C8F4882309F4FBC0883009F496C0FF91A2
:10446000EF91BF91AF919F918F917F916F915F91EC
:104470004F913F912F910F900BBE0F900FBE0F9059
:104480001F901895883109F488C0803241F78093D5
:10449000DF0314C0803409F49DC040F48033B9F3C5
:1044A0008833E9F68093DF0385ECB0C0803509F4EA
:1044B00085C0883509F496C0883489F60E94A4170F
:1044C000CECF883909F48CC038F5883729F050F4FC
:1044D000883611F0803719F683E08093E10310925B
:1044E000BA0357C0883809F47BC0803919F0803886
:1044F00009F0B5CF8091BA03803208F071C0E09125
:10450000BA0381E08E0F8093BA038091BB00F0E084
:10451000E656FC4F80833DC0803B39F0E0F4803AA2
:1045200009F479C0883A09F09ACF84E08093E103D6
:104530001092990310929803E0911604F0911704D9
:1045400019958091980381110FC081E080939803A1
:104550001092780309C0803C09F4A6CF883C09F486
:10456000A3CF883B09F07BCFE091990381E08E0FC8
:1045700080939903F0E0E858FC4F80818093BB0062
:10458000909199038091980329C08091BC038093F6
:10459000BB0085EC8093BC0062CF9091DE038091DC
:1045A000DD03981758F5E091DE0381E08E0F8093CC
:1045B000DE03F0E0E354FC4F8081E9CFE091DE03BD
:1045C00081E08E0F8093DE038091BB00F0E0E35426
:1045D000FC4F80839091DE038091DD039817C8F231
:1045E00085E8D8CFE091DE0381E08E0F8093DE0373
:1045F0008091BB00F0E0E354FC4F80838091E003A6
:1046000081115CCF81E08093BB0384EA8093BC007E
:104610001092E10324CF85EC8093BC001092E1035B
:104620008091BA03803230F4E091BA03F0E0E656AC
:10463000FC4F10826091BA0370E0E0911404F09195
:1046400015048AE993E019951092BA0308CF1092E5
:10465000DF0334CFEDEBF4E01382128288EE93E0B7
:10466000A0E0B0E084839583A683B7832FE332E094
:10467000318320834DEC50E0558744874CEC50E06B
:104680005787468748EC50E0518B408B49EC50E00F
:10469000538B428B4AEC50E0558B448B4EEC50E0F0
:1046A000578B468B118E128E138E148EEAE5F5E031
:1046B0001382128284839583A683B78331832083F8
:1046C00025EC30E03587248724EC30E037872687D7
:1046D00020EC30E0318B208B21EC30E0338B228BCF
:1046E00022EC30E0358B248B26EC30E0378B268BA8
:1046F000118E128E138E148EE7EFF5E01382128264
:1047000084839583A683B78381E592E09183808338
:10471000E5E1F6E01382128283E692E091838083E2
:1047200087E2848380E1818782E08287138665EB5C
:1047300072E08FE096E00E94951665EB72E089E0EA
:1047400096E00E9495166DE672E083E096E00C9488
:104750009516CF93DF93CDB7DEB7AD970FB6F8942C
:10476000DEBF0FBECDBF789484B5826084BD84B5B2
:10477000816084BD85B5826085BD85B5816085BD5C
:1047800080916E00816080936E0010928100809114
:10479000810082608093810080918100816080939C
:1047A0008100809180008160809380008091B100C1
:1047B00084608093B1008091B00081608093B000EC
:1047C000809191008260809391008091910081603E
:1047D00080939100809190008160809390008091FF
:1047E000A10082608093A1008091A10081608093EC
:1047F000A1008091A00081608093A00080912101A0
:104800008260809321018091210181608093210148
:104810008091200181608093200180917A008460E2
:1048200080937A0080917A00826080937A008091F0
:104830007A00816080937A0080917A00806880930A
:104840007A001092C10088E199E20FB6F894A89519
:10485000809360000FBE909360008AE595E00E940F
:10486000020E10921B0410921A0410921904109256
:1048700018040E9423118EE39EE090931704809306
:1048800016048FE39EE090931504809314040E9415
:10489000231110921A0680911F06823018F098E0BA
:1048A00090931A0680931D0662E370E080E090E02A
:1048B0000E94BE106091200685E196E00E94E811FA
:1048C00068EE73E080E090E00E94BE1060E385E156
:1048D00096E00E9421130BE416E4C8010197F1F75A
:1048E00060E385E196E00E942113C8010197F1F78A
:1048F00060E385E196E00E94211383E592E0019751
:10490000F1F760E285E196E00E94211360911A06BA
:10491000606240E085E196E00E943A1384E0809373
:104920001B0640E06CE085E196E00E943A130E948D
:10493000821382E080931C0640E066E085E196E009
:104940000E943A1340E062E085E196E00E943A134B
:104950008BE39FE10197F1F70E94CF1262E082E0C2
:104960000E945D1061E089E00E945D1061E08AE0D4
:104970000E945D1061E08BE00E945D1061E088E0C4
:104980000E945D1060E083E00E945D1060E08CE0BA
:104990000E945D1060E084E00E945D1060E089E0AC
:1049A0000E942F1060E08AE00E942F1060E08BE0F0
:1049B0000E942F1060E088E00E942F1090E080E0BD
:1049C0000E947F3B898381E090E00E947F3B8A8345
:1049D00009811A810D3C2BEA120709F0E6C182E039
:1049E00090E00E947F3B80935F0483E090E00E9410
:1049F0007F3B8093600484E090E00E947F3B809343
:104A0000610485E090E00E947F3B8093620464E053
:104A100072E084E090E00E94AF13C0900402D09056
:104A20000502E0900602F0900702A7019601C70177
:104A3000B6010E94C23C811114C02DEC3CEC4CEC40
:104A40005DE3C701B6010E94583A87FD0AC020E025
:104A500030E040E251E4C701B6010E94BD3C1816A7
:104A600094F480E090E0A0EFB0E48093040290938F
:104A70000502A0930602B093070264E072E084E0AE
:104A800090E00E9441188DE192E00E949313809182
:104A90001D02811108C068EF72E08DE192E00E9472
:104AA0003C3F0E94F51768E072E088E190E00E94C8
:104AB000AF13C0900802D0900902E0900A02F09073
:104AC0000B02A7019601C701B6010E94C23C8111E9
:104AD00014C020E030E040E85FE3C701B6010E9467
:104AE000583A87FD0AC020E030E44CE156E4C701A3
:104AF000B6010E94BD3C181694F480E090E0A8E452
:104B0000B2E48093080290930902A0930A02B09342
:104B10000B0268E072E088E190E00E94411860E0DA
:104B200072E08CE190E00E94AF13C0900002D09040
:104B30000102E0900202F0900302A7019601C70172
:104B4000B6010E94C23C811113C020E030E0A901EF
:104B5000C701B6010E94583A87FD0AC020E030E044
:104B600040E251E4C701B6010E94BD3C181694F41E
:104B70008AE999E9A9E9BEE38093000290930102D2
:104B8000A0930202B093030260E072E08CE190E037
:104B90000E9441180D3C1B4A51F010925F04109284
:104BA000600410926104109262040E946F1B80E204
:104BB00090E00E947F3B91E0813009F090E090937B
:104BC00094042CE1E22E24E0F22E02E210E0C8016F
:104BD0000E947F3BF70181937F010F5F1F4F0F35CD
:104BE0001105A9F780911C048F5F823008F0E6C0A0
:104BF00010921C0469E076E08FE096E00E94751642
:104C000060E080E00E94511363E574E085E196E086
:104C10000E94410E61E085E00E9451136AE474E055
:104C200085E196E00E94410E60ED77E080E090E043
:104C30000E94BE1061E089E00E942F100E94821342
:104C40008AED92E190930D0280930C0280916A00AC
:104C50008C7F826080936A00EC9A89E29EE0909358
:104C60000F0280930E0280916A00837F8860809398
:104C70006A00ED9A0E94F0106093590470935A04F0
:104C800080935B0490935C048DEB94E00E94020E91
:104C900064E670E080E090E00E94BE1055245394DA
:104CA0008DE3682E8EE0782E99E2892E9EE0992E73
:104CB000A8958DEB94E00E94C30E892B51F00E94C1
:104CC000F0106093B4047093B5048093B60490938D
:104CD000B70480919504882309F481C00E94F010E4
:104CE0000091B4041091B5042091B6043091B7043A
:104CF000601B710B820B930B603C744D81409105DE
:104D000008F46DC00E946F1B61E088E00E942F10C4
:104D100068EC70E080E090E00E94BE1060E088E007
:104D20000E942F1010929504109283041092820416
:104D3000109281041092800410927F040E94CF127E
:104D40000E94821360E080E00E94511364E87AE1DF
:104D500085E196E00E94410E61E080E00E945113DF
:104D600062E77AE185E196E00E94410E0E9482139B
:104D700082E49AE10E943B148BE29AE10E943B1488
:104D800085E09AE10E943B148DEE99E10E943B146C
:104D90006BEE79E18DEB94E00E94410E10927E045F
:104DA00010927D040E941513F8C610925F041092B1
:104DB0006004109261041092620429CE109258048B
:104DC0006CE174E0CE0101960E949516CE01019629
:104DD0000E94D513CE0101960E94241411CF84E0C5
:104DE0000E940610892B09F01DC180917C0481115D
:104DF000C7C00E94F0106093780470937904809388
:104E00007A0490937B0450927C040E94F0100091ED
:104E10007404109175042091760430917704601B1E
:104E2000710B820B930B6A3071058105910508F4B3
:104E3000B4C68DEB94E00E94C30E892B09F4ADC675
:104E40000E94F0106093740470937504809376044C
:104E5000909377048DEB94E00E94A10E90919504BD
:104E60009111F6C020917D0430917E048A3019F0B2
:104E70008D3009F08EC6121613060CF08EC62C5912
:104E80003B4FF90110826DE172E084E694E00E94EC
:104E9000333F892B09F0C9C061E088E00E942F10E0
:104EA00068EC70E080E090E00E94BE1060E088E076
:104EB0000E942F1050929504509283040E948213F6
:104EC0001092200660E085E196E00E94E81189EBEF
:104ED00099E10E943B1487EB99E10E943B1489EA17
:104EE00099E10E943B1487EA99E10E943B1461E931
:104EF00079E18DEB94E00E94410E6091080270917F
:104F0000090280910A0290910B020E949D158FE880
:104F100099E10E943B146AE779E18DEB94E00E94ED
:104F2000410E6091040270910502809106029091F9
:104F300007020E949D1588E799E10E943B146EE5E7
:104F400079E18DEB94E00E94410E60910002709136
:104F5000010280910202909103020E949D158CE54E
:104F600099E10E943B148CEE98E10E943B148AEE7A
:104F700098E10E943B148DE698E10E943B140ECF0D
:104F80000E94F010009178041091790420917A0425
:104F900030917B04601B710B820B930B683873415B
:104FA0008105910508F431CF68EF72E08DE192E060
:104FB0000E943C3F0E941E1861E088E00E942F1072
:104FC00068EC70E080E090E00E94BE1060E088E055
:104FD0000E942F1068EC70E080E090E00E94BE100C
:104FE00061E088E00E942F1068EC70E080E090E0C3
:104FF0000E94BE1060E088E00E942F1084EB94E0D5
:105000000E943B148FE994E00E943B1484E894E0F2
:105010000E943B1486E694E00E943B1484E694E0F0
:105020000E943B1410927C04F0CE8BE698E10E9423
:105030003B1489E498E10E943B148FE198E10E94BF
:105040003B148FED97E10E943B148DED97E195CFD6
:1050500090918304992309F4A3C120917D04309198
:105060007E048A3019F08D3009F09DC412161306A3
:105070000CF093C52C593B4FF90110826DEF72E093
:1050800084E694E00E94333F892B29F51092830433
:105090005092630461E088E00E942F1068EC70E099
:1050A00080E090E00E94BE1060E088E00E942F1037
:1050B0008BED97E10E943B1486E997E10E943B1437
:1050C00084E997E10E943B1489E497E10E943B1434
:1050D00087E497E152CF63E073E084E694E00E94B6
:1050E000333F892B29F5109283045092820461E0AA
:1050F00088E00E942F1068EC70E080E090E00E9451
:10510000BE1060E088E00E942F1086E497E10E94C4
:105110003B148CEF96E10E943B148BEF96E10E94CA
:105120003B1484EB96E10E943B1483EB96E125CF80
:105130006DE073E084E694E00E94333F892BE9F44C
:10514000109283045092810461E088E00E942F1045
:1051500068EC70E080E090E00E94BE1060E088E0C3
:105160000E942F1081EB96E10E943B148BE696E1A2
:105170000E943B1489E696E100CF65E173E084E686
:1051800094E00E94333F892B89F51092830450925A
:10519000800461E088E00E942F1068EC70E080E0FD
:1051A00090E00E94BE1060E088E00E942F1087E629
:1051B00096E10E943B1465E576E18DEB94E00E9458
:1051C000410E60915F047091600480916104909140
:1051D00062040E949A1483E596E10E943B148DE0DC
:1051E00096E10E943B148BE096E1C7CE6DE173E03F
:1051F00084E694E00E94333F892B09F045C0109269
:105200005F041092600410926104109262040E9484
:105210006F1B61E088E00E942F1068EC70E080E076
:1052200090E00E94BE1060E088E00E942F1089E0AC
:1052300096E10E943B148CEF95E10E943B148AEFAB
:1052400095E10E943B1464EE75E18DEB94E00E94C1
:10525000410E60915F0470916004809161049091AF
:1052600062040E949A1482EE95E10E943B1485EA42
:1052700095E10E943B1483EA95E10E943B14109251
:10528000830450927F048ACD63E273E084E694E065
:105290000E94333F892B69F50E946F1B61E088E013
:1052A0000E942F1068EC70E080E090E00E94BE1039
:1052B00060E088E00E942F10109295041092830401
:1052C0000E94CF1281EA95E10E943B1481E995E1A9
:1052D0000E943B148AE795E10E943B1484E595E126
:1052E0000E943B1489E395E10E943B1487E395E11A
:1052F00044CE68E273E084E694E00E94333F892B59
:1053000009F041C01092830410928204109281042B
:105310001092800410927F0450925E0461E088E055
:105320000E942F1068EC70E080E090E00E94BE10B8
:1053300060E088E00E942F1085E395E10E943B1415
:1053400087E195E10E943B1466E075E18DEB94E006
:105350000E94410E60910002709101028091020250
:10536000909103020E949D1582EE94E10E943B14ED
:1053700081EE94E10E943B1484EA94E10E943B1484
:1053800082EA94E1FACD80E494E10E943B148EE33A
:1053900094E10E943B1410927E0410927D04FDC3A0
:1053A00090916304992309F492C120917D04309176
:1053B0007E048A3019F08D3009F0F5C212161306FA
:1053C0000CF0EBC32C593B4FF90110826DEF72E0EA
:1053D00084E694E00E94333F892B09F51092630420
:1053E0005092830461E088E00E942F1068EC70E026
:1053F00080E090E00E94BE1060E088E00E942F10E4
:105400008CE394E10E943B1487EF93E10E943B14EC
:1054100086EF93E10E943B148BEA93E1AECD63E00B
:1054200073E084E694E00E94333F892B09F51092E3
:1054300063045092820461E088E00E942F1068ECBF
:1054400070E080E090E00E94BE1060E088E00E9482
:105450002F1089EA93E10E943B148FE593E10E94AB
:105460003B148EE593E10E943B1487E193E185CDE7
:105470006DE073E084E694E00E94333F892BE9F409
:10548000109263045092810461E088E00E942F1022
:1054900068EC70E080E090E00E94BE1060E088E080
:1054A0000E942F1085E193E10E943B148FEC92E162
:1054B0000E943B148EEC92E160CD65E173E084E6DE
:1054C00094E00E94333F892B89F510926304509237
:1054D000800461E088E00E942F1068EC70E080E0BA
:1054E00090E00E94BE1060E088E00E942F108DECDA
:1054F00092E10E943B146BEB72E18DEB94E00E9411
:10550000410E60915F0470916004809161049091FC
:1055100062040E949A148AEB92E10E943B1484E791
:1055200092E10E943B1482E792E127CD6DE173E0A6
:1055300084E694E00E94333F892B09F03FC010922B
:105540005F041092600410926104109262040E9441
:105550006F1B61E088E00E942F1068EC70E080E033
:1055600090E00E94BE1060E088E00E942F1085E667
:1055700092E10E943B1484E692E10E943B146EE4A7
:1055800072E18DEB94E00E94410E60915F04709196
:10559000600480916104909162040E949A148DE4E9
:1055A00092E10E943B1480E192E10E943B148EE064
:1055B00092E10E943B141092630463CE63E273E0B5
:1055C00084E694E00E94333F892B69F50E946F1BAB
:1055D00061E088E00E942F1068EC70E080E090E0CD
:1055E0000E94BE1060E088E00E942F101092950487
:1055F000109263040E94CF128CE092E10E943B144F
:105600008CEF91E10E943B1485EE91E10E943B14E6
:105610008FEB91E10E943B1487EA91E10E943B14D9
:1056200085EA91E1AACC84E694E00E94F1356B0111
:105630007C012AE037ED43E25CE30E94BD3C87FD3C
:105640003FC020E030E44CE156E4C701B6010E94BF
:10565000583A1816ACF1C0920802D0920902E092B2
:105660000A02F0920B020E94751861E088E00E9425
:105670002F1068EC70E080E090E00E94BE1060E0C7
:1056800088E00E942F1061E871E18DEB94E00E94A8
:10569000410E609108027091090280910A02909176
:1056A0000B020E949D158FE791E10E943B148EE250
:1056B00091E10E943B1410926304509283046ECBDC
:1056C00089EB90E10E943B1487EB90E162CE9091D0
:1056D0008204992309F498C120917D0430917E04BD
:1056E0008A3019F08D3009F05EC1121613060CF0E5
:1056F00054C22C593B4FF90110826DEF72E084E6E1
:1057000094E00E94333F892B09F510928204509255
:10571000830461E088E00E942F1068EC70E080E074
:1057200090E00E94BE1060E088E00E942F1085EBA0
:1057300090E10E943B1480E790E10E943B148FE6C9
:1057400090E10E943B1484E290E117CC65E173E0A4
:1057500084E694E00E94333F892B89F510928204FD
:105760005092800461E088E00E942F1068EC70E0A5
:1057700080E090E00E94BE1060E088E00E942F1060
:1057800083E290E10E943B1461E170E18DEB94E0D3
:105790000E94410E60915F047091600480916104E9
:1057A000909162040E949A1480E190E10E943B145F
:1057B0008AEC9FE00E943B1488EC9FE0DECB6DE119
:1057C00073E084E694E00E94333F892B09F03FC0E8
:1057D00010925F04109260041092610410926204AF
:1057E0000E946F1B61E088E00E942F1068EC70E05F
:1057F00080E090E00E94BE1060E088E00E942F10E0
:105800008BEB9FE00E943B148AEB9FE00E943B14CD
:1058100064EA7FE08DEB94E00E94410E60915F04AA
:105820007091600480916104909162040E949A14C6
:1058300083EA9FE00E943B1486E69FE00E943B14AF
:1058400084E69FE00E943B14109282041ACD63E22A
:1058500073E084E694E00E94333F892B69F50E944F
:105860006F1B61E088E00E942F1068EC70E080E020
:1058700090E00E94BE1060E088E00E942F1010921D
:105880009504109282040E94CF1282E69FE00E944B
:105890003B1482E59FE00E943B148BE39FE00E9453
:1058A0003B1485E19FE00E943B148DEF9EE00E9437
:1058B0003B148BEF9EE061CB6DE073E084E694E0F7
:1058C0000E94333F892BE9F41092820450928104A4
:1058D00061E088E00E942F1068EC70E080E090E0CA
:1058E0000E94BE1060E088E00E942F1089EF9EE0C9
:1058F0000E943B1483EB9EE00E943B1481EB9EE0F0
:105900003CCB84E694E00E94F1356B017C012DECE8
:105910003CEC4CEC5DE30E94BD3C87FD3DC020E0CB
:1059200030E040E251E4C701B6010E94583A18162F
:105930009CF1C0920402D0920502E0920602F0921D
:1059400007020E94CF1861E088E00E942F1068ECE7
:1059500070E080E090E00E94BE1060E088E00E946D
:105960002F106EE87EE08DEB94E00E94410E609176
:1059700004027091050280910602909107020E9434
:105980009D158CE89EE00E943B1489E49EE00E94F5
:105990003B141092820491CE86ED9DE00E943B1450
:1059A00084ED9DE0F6CC203131050CF0F6C0482F97
:1059B000082E000C550B405351094A30510508F48C
:1059C00097C08E3209F494C09EE8980F943008F482
:1059D0008FC0893609F48CC09BE9980F923008F487
:1059E00087C09FE9980F933008F482C08C3609F481
:1059F0007FC092E9980F933008F47AC099E8980F25
:105A0000923008F0CAC074C090915E04992309F4E2
:105A10007BC020917D0430917E048A3019F08D3056
:105A200009F062C0121613060CF0B7C02C593B4F98
:105A3000F901108284E694E00E94F1356B017C014B
:105A400020E030E0A9010E94BD3C87FD4AC020E073
:105A500030E040E251E4C701B6010E94583A1816FE
:105A60000CF43FC0C0920002D0920102E092020208
:105A7000F092030260E072E08CE190E00E94411835
:105A800061E088E00E942F1068EC70E080E090E018
:105A90000E94BE1060E088E00E942F1065EB7DE060
:105AA0008DEB94E00E94410E609100027091010222
:105AB00080910202909103020E949D1583EB9DE06C
:105AC0000E943B1410925E045092830482EB9DE08E
:105AD0000E943B1485E79DE00E943B1483E79DE014
