:100000000C94F4100C9405480C94DA470C94AF4708
:100010000C9484470C9459470C942E470C94034736
:100020000C94D8460C9425110C9425110C94251190
:100030000C9425110C9425110C9425110C94251168
:100040000C9425110C9425110C9425110C94251158
:100050000C9425110C9425110C9425110C948E46AA
:100060000C9425110C9458460C942E460C94251192
:100070000C9425110C9425110C9425110C94251128
:100080000C9425110C9425110C9425110C94251118
:100090000C94F8450C94CE450C9425110C943048E2
:1000A0000C9425110C9425110C9425110C942511F8
:1000B0000C9425110C9425110C9425110C942511E8
:1000C0000C9425110C9425110C9425110C942511D8
:1000D0000C9425110C9425110C9425110C942511C8
:1000E0000C9425110C9492190C94EA120C945E193C
:1000F0000C944B190C94E2120C9419130C941813D1
:100100000C94841B0C94F7120C9465190C945111E7
:100110000C94FD120C943B190C94D0110C94011307
:100120000C9454110C94B01A0C9413130C9454178F
:100130000C940F130C941D130C9453110C94ED128A
:100140000C9420120C94425E0C9452110C947B136C
:100150000C945F4B0C943C190C946D120C94DE11B2
:100160000C94F6160C94E6120C94D8120C94BB1353
:100170000C94F3120C9405130C940B130C94581458
:100180000C94E4130C9480110C94BC110C94AD11DC
:100190000C944A130C94B31A0C94DE124E414E493F
:1001A0004E495459494E46CDCCCC3D0AD7233C1735
:1001B000B7D13877CC2B329595E6241FB14F0A0082
:1001C0000020410000C84200401C4620BCBE4CCA72
:1001D0001B0E5AAEC59D7400407A10F35A00A072EF
:1001E0004E18090010A5D4E80000E8764817000072
:1001F000E40B54020000CA9A3B000000E1F5050040
:100200000080969800000040420F000000A0860188
:10021000000000102700000000E803000000006458
:1002200000000000000A00000000000100000000C3
:10023000002C76D888DC674F0823DFC1DFAE59E198
:10024000B1B796E5E3E453C63AE651997696E8E607
:10025000C28426EB898C9B62ED407C6FFCEFBC9CDA
:100260009F40F2BAA56FA5F490055A2AF75C936BEC
:100270006CF9676DC11BFCE0E40D47FEF520E6B5A7
:1002800000D0ED902E0300943577050080841E0881
:100290000000204E0A000000C80C333333330F989F
:1002A0006E12831141EF8D2114893BE65516CFFE66
:1002B000E6DB18D1844B381BF77C1D901DA4BBE4F2
:1002C00024203284725E228100C9F124ECA1E53D34
:1002D000275072652D436C6F7365204F666673659A
:1002E000742073617665643A2000536176656420FA
:1002F0004F776E6572204E756D6265723A200045CB
:100300004550524F4D207772697465206661696C63
:10031000656420666F7220666C6F7743616C6962FA
:10032000726174696F6E466163746F7221205265E9
:10033000747279696E672E2E2E00454550524F4DCE
:10034000207772697465206661696C656420666FE8
:10035000722070726963655065724C6974657221B0
:10036000205265747279696E672E2E2E0053544F99
:100370005245445F43415244533A002000436F6D5D
:100380006D616E64733A20277072696365272C2053
:100390002763616C666163746F72272C202770720B
:1003A00065636C6F7365272C202773657470686FA5
:1003B0006E65272C202762616C616E6365272C2097
:1003C000277265736574272C20276E6577706173BB
:1003D00073272C20277573657270617373272C2027
:1003E00027414444434152443A3C6E616D653E3A74
:1003F0003C62616C616E63653E272C20274144445A
:1004000042414C414E43453A3C6E616D653E3A3C3B
:10041000616D6F756E743E272C202744454C455402
:1004200045434152443A3C6E616D653E272C20277E
:1004300044454C455445414C4C43415244533A3C4D
:1004400070617373776F72643E272C20274341528B
:10045000444C495354272C20276578697427002081
:10046000005072652D436C6F7365204F666673652F
:1004700074206C6F616465643A2000200050686FDE
:100480006E653A200043616C6962726174696F6ED7
:1004900020466163746F723A200050726963652F61
:1004A0004C203A20547368200043757272656E7454
:1004B00020446174613A0020002000436F6D6D613B
:1004C0006E64733A2027414444434152443A3C6E9F
:1004D000616D653E3A3C62616C616E63653E272CDE
:1004E000202741444442414C414E43453A3C6E61D1
:1004F0006D653E3A3C616D6F756E743E272C20270A
:1005000065786974270020002000436F6E74616372
:10051000743A202B3235353736373833303331396A
:10052000005448414E4B5320464F5220545255538D
:1005300054494E472044757261626C65205761745E
:1005400065722056656E64730052657475726E65CF
:100550006420746F20576F726B204D6F64652E009E
:10056000416C6C2064617461207361766564210064
:10057000200020002000456E746572202744454C01
:10058000455445414C4C43415244533A3C7061738D
:1005900073776F72643E27002000456E7465722089
:1005A0002744454C455445434152443A3C6E616DA5
:1005B000653E27002000456E746572202741444443
:1005C00042414C414E43453A3C6E616D653E3A3C7A
:1005D000616D6F756E743E27002000200020004F73
:1005E000722073656E64206F7468657220636F6D2E
:1005F0006D616E64732E00456E7465726564205380
:1006000065742050686F6E65204D6F64653A2053A5
:10061000656E642070686F6E65206E756D626572C0
:100620002028652E672E2C202B323535373637386B
:10063000333033313929002000200053656E6420A7
:100640006F7468657220636F6D6D616E64732E00E8
:100650002000546F74616C2053616C6573206E6F61
:10066000773A205473682000200053616C65732032
:10067000726573657421002000200053656E64204C
:100680006F7468657220636F6D6D616E64732E00A8
:100690002000546F74616C2053616C65733A205470
:1006A0007368200020002000456E74657265642028
:1006B000557365722050617373776F72642043685D
:1006C000616E6765204D6F64653A2053656E6420E6
:1006D0006E657720757365722070617373776F72C2
:1006E000642028342D31352063686172616374653C
:1006F0007273290020002000456E746572656420C5
:1007000050617373776F7264204368616E67652010
:100710004D6F64653A2053656E64206E6577207076
:10072000617373776F72642028342D3135206368CC
:1007300061726163746572732900200020004F723A
:100740002073656E64206F7468657220636F6D6DD1
:10075000616E64732E00456E74657265642043613A
:100760006C6663746F72204D6F64653A2053656EDA
:100770006420666163746F722028652E672E2C20BA
:10078000372E352900200020004F722073656E64DB
:10079000206F7468657220636F6D6D616E64732E77
:1007A00000456E7465726564205072696365206DE2
:1007B0006F64653A2053656E6420707269636520CA
:1007C00028652E672E2C2036302E30290020002957
:1007D000005D202841534349493A2000446973632E
:1007E000617264656420636861723A205B00200076
:1007F00053656E642064656661756C74206F722049
:100800006E65772070617373776F72642E0050612C
:100810007373776F726420726573657420746F20D0
:1008200064656661756C7421002000506173737794
:100830006F726420616E64206F776E6572206E75D2
:100840006D62657220726573657420746F206465D3
:100850006661756C742E005345545052453A0043FE
:10086000415244544F5055503A004552524F523A1B
:10087000496E76616C696420416D6F756E740045D8
:1008800052524F523A43617264204E6F7420466F49
:10089000756E6400436172642044656C65746564C0
:1008A00000535543434553533A43617264204465B2
:1008B0006C657465640043617264204E6F742046F9
:1008C0006F756E64004552524F523A436172642014
:1008D0004E6F7420466F756E6400454550524F4D03
:1008E00020436172647320436C65617265640053D8
:1008F000455450524943453A0053455443414C3ABC
:10090000002000496E76616C696420636F6D6D61D3
:100910006E64212053656E64202741444443415254
:10092000443A3C6E616D653E3A3C62616C616E6357
:10093000653E27206F72202765786974272E002076
:1009400000456E7465726564204164642043617281
:1009500064204D6F64653A205363616E20524649AE
:100960004420636172640020002000456E7465724B
:100970002027414444434152443A3C6E616D653EF8
:100980003A3C62616C616E63653E27206F7220277E
:100990006578697427004552524F523A496E766124
:1009A0006C696420416D6F756E74002000456E7433
:1009B00065722027414444434152443A3C6E616D84
:1009C000653E3A3C62616C616E63653E27206F72E2
:1009D00020276578697427004552524F523A4E617C
:1009E0006D6520416C7265616479205573656400A2
:1009F000456E7465722027414444434152443A3C59
:100A00006E616D653E3A3C62616C616E63653E2766
:100A1000206F7220276578697427004552524F5223
:100A20003A4E616D6520546F6F204C6F6E670045C4
:100A30006E7465722027414444434152443A3C6EEF
:100A4000616D653E3A3C62616C616E63653E272074
:100A50006F7220276578697427004552524F523AC9
:100A6000496E76616C696420466F726D61740049ED
:100A70006E76616C696420636F6D6D616E642120B8
:100A800053656E642027636F6E74696E75652720E9
:100A90006F72202765786974272E0020004F72201E
:100AA00073656E642027657869742720746F2073DE
:100AB000746F7020616464696E672063617264732F
:100AC00000456E7465722027414444434152443AC4
:100AD0003C6E616D653E3A3C62616C616E63653E81
:100AE0002720746F20636F6E74696E756520616472
:100AF00064696E67206120636172640020002000D9
:100B0000496E76616C696420636F6D6D616E6421FE
:100B10002053656E642020277072696365272C203E
:100B20002773657470686F6E65272C202763616C6E
:100B3000666163746F72272C20276E65777061730E
:100B400073272C20277573657270617373272C20AF
:100B50002741444443415244272C202741444442E6
:100B6000414C414E4345272C202744454C45544594
:100B700043415244272C202744454C455445414C81
:100B80004C4341524453272C2027434152444C4963
:100B90005354272C206F72202765786974272E0004
:100BA0002000496E76616C696420636F6D6D616EC3
:100BB00064212053656E6420277072696365272C59
:100BC000202773657470686F6E65272C202763611A
:100BD0006C666163746F72272C202772657365746D
:100BE000272C20276E657770617373272C2027755B
:100BF00073657270617373272C202741444443410D
:100C00005244272C202741444442414C414E434505
:100C1000272C202744454C45544543415244272C1A
:100C2000202744454C455445414C4C434152445384
:100C3000272C2027434152444C495354272C206FE2
:100C400072202765786974272E00200053656E6432
:100C5000206F7468657220636F6D6D616E64732EB2
:100C600000557365722070617373776F72642063CF
:100C700068616E67656420616E6420736176656487
:100C80002100200020005573657220706173737716
:100C90006F7264206D757374206265203420746FE8
:100CA000203135206368617261637465727321203D
:100CB00054727920616761696E2E00200053656E61
:100CC00064206F7468657220636F6D6D616E64730C
:100CD0002E0050617373776F7264206368616E6772
:100CE000656420616E642073617665642100200074
:100CF000200050617373776F7264206D7573742078
:100D00006265203420746F20313520636861726120
:100D10006374657273212054727920616761696E12
:100D20002E00200053656E64206F74686572206326
:100D30006F6D6D616E64732E0050686F6E65206E0E
:100D4000756D6265722073657420616E64207361D5
:100D50007665643A200020002000496E76616C6957
:100D6000642070686F6E65206E756D6265722120FB
:100D70004C656E6774682031302D313920636861AD
:100D800072732C20652E672E2C202B32353537368A
:100D9000373833303331392C206F72206F746865E7
:100DA0007220636F6D6D616E64732E0020002000F1
:100DB000496E76616C69642063616C666163746F0F
:100DC00072212053656E642061206E756D626572BC
:100DD000206265747765656E20302E3120616E6407
:100DE0002031302E302C206F72206F746865722095
:100DF000636F6D6D616E64732E0053656E64206F5A
:100E00007468657220636F6D6D616E64732E00206F
:100E10000043616C466163746F7220776174657220
:100E20002073657420616E642073617665643A2076
:100E30000020002000496E76616C69642070726940
:100E4000636520706572206C69746572212053653A
:100E50006E642061206E756D6265722062657477C4
:100E600065656E20302E303120616E642031303067
:100E700030302E302C206F72206F746865722063C2
:100E80006F6D6D616E64732E002000200053656EDF
:100E900064206F7468657220636F6D6D616E64733A
:100EA0002E00507269636520706572206C697465EC
:100EB000722073657420616E642073617665643A94
:100EC0002054736820002000496E76616C696420AC
:100ED000636F6D6D616E64212053656E64202741E0
:100EE0004444434152443A3C6E616D653E3A3C6233
:100EF000616C616E63653E272C202741444442416A
:100F00004C414E43453A3C6E616D653E3A3C616DE5
:100F10006F756E743E272C202765786974272E0024
:100F2000496E76616C696420636F6D6D616E6421DA
:100F30002053656E642020277072696365272C201A
:100F40002763616C666163746F72272C2027736559
:100F50007470686F6E65272C202762616C616E6308
:100F600065272C20277265736574272C20276E65F2
:100F70007770617373272C202775736572706173A6
:100F800073272C2027414444434152443A3C6E612C
:100F90006D653E3A3C62616C616E63653E272C2054
:100FA0002741444442414C414E43453A3C6E616DB9
:100FB000653E3A3C616D6F756E743E272C20274468
:100FC000454C455445434152443A3C6E616D653E43
:100FD000272C202744454C455445414C4C43415215
:100FE00044533A3C70617373776F72643E272C20D0
:100FF00027434152444C495354272C202765786994
:1010000074272E002000436F6E746163743A202BA6
:10101000323535373637383330333139005448417B
:101020004E4B5320464F52205452555354494E472D
:101030002044757261626C65205761746572205638
:10104000656E64730052657475726E656420746FAA
:1010500020576F726B204D6F64652E00416C6C20C1
:101060006461746120736176656421002000200052
:10107000556E617574686F72697A656420636F6D0F
:101080006D616E6421002000556E617574686F7229
:10109000697A656420636F6D6D616E642100200064
:1010A00020004552524F523A57726F6E672050617E
:1010B0007373776F726400200020005355434345DB
:1010C00053533A416C6C2043617264732044656CE5
:1010D000657465640020004552524F523A4F776E56
:1010E000657220417574686F72697A6174696F6E98
:1010F000205265717569726564004552524F523ACB
:10110000496E76616C696420466F726D617400206F
:1011100000456E74657265642041646420436172A9
:1011200064204D6F64653A205363616E20524649D6
:1011300044206361726400200020004552524F52E7
:101140003A496E76616C696420416D6F756E74000A
:1011500020004552524F523A4E616D6520416C72EB
:10116000656164792055736564004552524F523A67
:101170004E616D6520546F6F204C6F6E67002000CC
:101180004552524F523A496E76616C696420466FFF
:10119000726D6174002000556E617574686F7269BC
:1011A0007A656420636F6D6D616E6421002000209C
:1011B0000053656E64206F7468657220636F6D6D97
:1011C000616E64732E002000546F74616C20536153
:1011D0006C6573206E6F773A20547368200020008E
:1011E00053616C657320726573657421002000552E
:1011F0006E617574686F72697A656420636F6D6D76
:10120000616E6421002000200053656E64206F74BD
:1012100068657220636F6D6D616E64732E002000CF
:10122000546F74616C2053616C65733A2054736819
:1012300020002000556E617574686F72697A65646C
:1012400020636F6D6D616E64210020002000456E8B
:10125000746572656420557365722050617373778D
:101260006F7264204368616E6765204D6F64653AF4
:101270002053656E64206E657720757365722070EB
:10128000617373776F72642028342D313520636861
:10129000617261637465727329002000556E617517
:1012A00074686F72697A656420636F6D6D616E64D6
:1012B000210020002000456E746572656420506135
:1012C0007373776F7264204368616E6765204D6F3A
:1012D00064653A2053656E64206E65772070617393
:1012E00073776F72642028342D3135206368617202
:1012F00061637465727329002000556E61757468AE
:101300006F72697A656420636F6D6D616E64210030
:10131000200020004F722073656E64206F74686532
:101320007220636F6D6D616E64732E00456E74651F
:10133000726564205365742050686F6E65204D6F30
:1013400064653A2053656E642070686F6E65206E28
:10135000756D6265722028652E672E2C202B323524
:101360003537363738333033313929002000556E60
:10137000617574686F72697A656420636F6D6D6101
:101380006E642100200020004F722073656E64207F
:101390006F7468657220636F6D6D616E64732E008B
:1013A000456E74657265642043616C2020776174BA
:1013B0006572204D6F64653A2053656E64206361E9
:1013C0006C6962726174696F6E20666163746F72BA
:1013D0002028652E672E2C20372E35290020005519
:1013E0006E617574686F72697A656420636F6D6D84
:1013F000616E642100200020004F722073656E64CE
:10140000206F7468657220636F6D6D616E64732EFA
:1014100000456E746572656420507269636520775B
:1014200061746572204D6F64653A2053656E642067
:10143000707269636520706572206C6974657220D2
:1014400028652E672E2C2036302E3029002000559E
:101450006E617574686F72697A656420636F6D6D13
:10146000616E642100200020004F722073656E645D
:10147000206F7468657220636F6D6D616E64732E8A
:1014800000456E7465726564205072652D436C6F03
:101490007365204D6F64653A2053656E64206F66F6
:1014A0006673657420696E206C6974657273202898
:1014B000652E672E2C20302E332900200020004975
:1014C0006E76616C6964206F666673657421205363
:1014D000656E64206E756D62657220302E30202D31
:1014E0002031302E30206C69746572732C206F723D
:1014F000206F7468657220636F6D6D616E64732E0A
:10150000002000200053656E64206F7468657220AF
:10151000636F6D6D616E64732E00206C697465720B
:1015200073005072652D636C6F7365206F66667310
:1015300065742073657420616E64207361766564E0
:101540003A200020002000496E636F727265637458
:101550002070617373776F726421205472792061F7
:101560006761696E206F7220707265737320726597
:1015700073657420666F722035207365636F6E64C7
:101580007320746F2072657665727420746F2064A6
:10159000656661756C742070617373776F72642E09
:1015A000002000200055736572204D6F6465002097
:1015B0000044757261626C652057617465722056D3
:1015C000656E64733A20436F6E746163743A202BC6
:1015D0003235353736373833303331390020002053
:1015E000004F776E6572204D6F6465002000447572
:1015F0007261626C652057617465722056656E6415
:10160000733A20436F6E746163743A202B32353520
:101610003736373833303331390020002000436FFC
:101620006E746163743A202B323535373637383370
:1016300030333139005448414E4B5320464F5220ED
:101640005452555354494E472044757261626C653B
:101650002057617465722056656E6473005265741C
:1016600075726E656420746F20576F726B204D6FBA
:1016700064652E00426C7565746F6F7468206964D0
:101680006C652074696D656F75742072656163683F
:1016900065642E20416C6C206461746120736176F6
:1016A0006564210052657475726E696E6720746F8F
:1016B00020576F726B00426C7565746F6F74682091
:1016C00054696D656F7574004C4956453A00434145
:1016D0005244434845434B3A0043415244524547E4
:1016E0003A005363616E205246494420436172645C
:1016F000005363616E20616E6F7468657220636170
:101700007264206F722073656E6420276578697437
:10171000270042616C3A2000436172642053617675
:1017200065643A20005363616E2052464944204369
:10173000617264005363616E20616E6F74686572DC
:101740002063617264206F722073656E6420276568
:1017500078697427004361726420457869737473F3
:10176000004552524F523A4361726420416C726597
:1017700061647920457869737473005363616E20E6
:10178000524649442043617264005363616E206194
:101790006E6F746865722063617264206F7220736B
:1017A000656E642027657869742700456D707479CB
:1017B00020546167004552524F523A456D7074791A
:1017C00020546167005363616E6E696E672E2E2E22
:1017D000004B5553414A494C49204B41444900571D
:1017E0004153494C49414E41204E41204F574E45AF
:1017F00052004B41444920484149504154494B41D2
:101800004E4900413A57454B412053414C494F20E6
:10181000423A4F4E444F410053414C494F3A2054B5
:10182000736820004A494E413A2000206C616B6980
:101830006E69206C696D6570756E67757A77612069
:1018400068616469206B696B6F6D6F2063686120EC
:101850006F66666C696E652000E29AA0EFB88F2013
:101860004F46464C494E45204341503A2073616CE7
:10187000696F206C61206B61646920286361636813
:101880006529206E692000494E41414E47414C492F
:1018900041204B4144492E2E2E004341524453597E
:1018A0004E432064656C6574653A20002062616C6B
:1018B000616E63653D004341524453594E43207568
:1018C00070736572743A20004341524453594E4339
:1018D0003A20454550524F4D20696D656A6161203F
:1018E000284D41585F54414753292C20696D657339
:1018F00068696E647761206B756F6E67657A6100E9
:10190000F09F92B3204361726420726561646572D6
:101910002028524649442920494D455A494D5741AE
:1019200020E28094206D617368696E652079612082
:101930007361726166752070656B65652028696DDD
:101940006568696661646869776120454550524FF2
:101950004D2900F09F92B32043617264207265614B
:101960006465722028524649442920494D45574113
:10197000534857412028696D6568696661646869E4
:10198000776120454550524F4D2900F09F94922099
:10199000464F52434556414C56453A2076616C7647
:1019A0006520696D6566756E67776120286D6D6964
:1019B0006C696B692900F09F949320464F52434510
:1019C00056414C56453A2076616C766520696D65C6
:1019D00066756E67756C69776120286D6D696C69D5
:1019E0006B692C206D616A61726962696F2920E2FE
:1019F00080942069746166756E6777612079656E81
:101A00007965776520626161646120796120736521
:101A10006B756E646520333000F09F94A7204D41B4
:101A2000494E54454E414E4345204D4F44453A2082
:101A30004F464620286D6D696C696B692920E280EC
:101A4000942064697370656E73696E6720696D6553
:101A5000727564697368776100F09F94A7204D41A7
:101A6000494E54454E414E4345204D4F44453A2042
:101A70004F4E20286D6D696C696B692920E2809456
:101A80002064697370656E73696E6720696D657334
:101A9000696D616D697368776100F09F9493204D63
:101AA000617368696E6520696D6566756E67756CD2
:101AB000697761206E612053757065722041646D95
:101AC000696E20E280942064697370656E73696E3C
:101AD0006720696E617275687573697761207465D6
:101AE0006E612028696D65686966616468697761FF
:101AF00020454550524F4D2900F09F9492204D4172
:101B00005348494E4520494D4546554E475741207B
:101B10006E612053757065722041646D696E20E2BC
:101B200080942064697370656E73696E6720696D57
:101B30006573696D616D69736877612028696D658A
:101B400068696661646869776120454550524F4D08
:101B500029002000200053455454494E47533A2051
:101B60007072652D636C6F7365206D707961206B89
:101B700075746F6B61207365727665723A200053DD
:101B8000455454494E47533A2063616C696272610F
:101B900074696F6E206D707961206B75746F6B6105
:101BA000207365727665723A200053455454494E4D
:101BB00047533A20626569206D707961206B7574B6
:101BC0006F6B61207365727665723A20004F4646EE
:101BD0004341503A206B696B6F6D6F206B69707970
:101BE0006120636861206F66666C696E653A2000EB
:101BF00000002200250028002B002E0031003400B8
:101C000002010000050108010B0100002000230073
:101C1000260029002C002F003200000100000301E3
:101C20000601090100000A0B02090C0D0E0807034A
:101C3000040100000000000000000000000000009F
:101C40000000000000000000000000000000000094
:101C50001211100000000000000000000000000051
:101C6000000000000000000000000000210024002F
:101C700027002A002D00300033000101000004017C
:101C800007010A010102102020080810204010203E
:101C90004080020102010804020101020408102030
:101CA000408080402010080402018004020180402E
:101CB0002010080402010804020101020408102097
:101CC0004080010204081020408005050505070535
:101CD00008080808020202020A0A080804040404A8
:101CE00001010101010101010303030303030303D4
:101CF000040707070C0C0C0C0C0C0C0C0202020263
:101D000006060606060606060B0B0B0B0B0B0B0B4B
:101D10005072652D436C6F7365204F6666736574F2
:101D2000206C6F616465643A2000F09F92B3204399
:101D3000617264207265616465722028524649446C
:101D4000293A20494D455A494D574120284545508B
:101D5000524F4D2920E28094206D617368696E6551
:101D6000207961207361726166752070656B6565AD
:101D700000F09F92B32043617264207265616465D4
:101D800072202852464944293A20494D455741532B
:101D90004857412028454550524F4D2900F09F9407
:101DA00092204D617368696E6520696C696B757707
:101DB0006120494D4546554E4757412028454550DD
:101DC000524F4D2920E2809420696E6162616B69F7
:101DD00020696D6566756E677761206D70616B61F6
:101DE0002053757065722041646D696E206169666B
:101DF000756E677565003A20456D70747900536C97
:101E00006F7420002C2042616C616E63653D002C74
:101E1000204E616D653D003A205461673D00536C72
:101E20006F74200053746F72656420436172647331
:101E30003A00507269636520706572204C69746560
:101E40007220004C6F61646564204F776E6572206C
:101E50004E756D6265723A200043616C6962726111
:101E600074696F6E20466163746F723A200020447B
:101E70002E572E56200044555241424C4520574182
:101E80005445522056454E440048423A00434F497B
:101E90004E42414C3A0054584E3A434F494E3A0054
:101EA0004B41524942552054454E41004153414E09
:101EB00054452053414E41005473683A004C6974B4
:101EC000613A004A554D4C41205941204C495441FA
:101ED0003A004A554D4C413A5473682000494E41EE
:101EE000544F41204D414A492E2E2E2E2E2E2E008B
:101EF000576173696C69616E612041646D696E0040
:101F00004D415348494E4520494D4546554E47574A
:101F1000410054584E3A434152443A004B415249D1
:101F200042552054454E41004153414E54452053A3
:101F3000414E41005473683A004C6974613A004A5A
:101F4000554D4C41205941204C4954413A004A5585
:101F50004D4C413A5473682000494E41544F412042
:101F60004D414A492E2E2E2E00576173696C6961CE
:101F70006E612041646D696E004D415348494E4584
:101F800020494D4546554E475741005363616E20E9
:101F90004B6164692054656E61004D554441205584
:101FA0004D454953484100413A57454B4120534123
:101FB0004C494F20423A4F4E444F410053414C4907
:101FC0004F3A2054736820004A494E413A20004D50
:101FD00055444120554D454953484100202020207B
:101FE0002020202020202020202020200053414C91
:101FF000494F3A2054736820004A494E413A200024
:102000004D616A692E2E2E2E2E004C697465723A2F
:102010002000200053414C494F2048414C49544F27
:102020005348490020004B49415349204B49444FF4
:10203000474F2053414E4100413A57454B412053B1
:10204000414C494F20423A4F4E444F410053414C7E
:10205000494F3A2054736820004A494E413A2000C3
:1020600048414B554E41204B49415349004B616417
:102070006920496D656F6E646F6C65776100423AE7
:102080004F4E444F4120202A3A4655544100424F7A
:102090004E59455A412023204B55525548555355CA
:1020A0006000200057454B41204B49415349205483
:1020B00073683A004B61646920496D656F6E646FA7
:1020C0006C65776100545A533A20004F4E47455A89
:1020D000412053414C494F004C697465723A2000CD
:1020E00044697370656E73696E67205761746572B9
:1020F0002028436F696E7329002020200053414C33
:10210000494F20545A533A200020202020202020DC
:1021100020202020202020200057454B41205341E3
:10212000524146550057454B41204B4144490057C9
:10213000454B41205341524146552041550052756F
:1021400064692062616164617965004D4154454E66
:1021500047454E455A4F00576173696C69616E611E
:102160002041646D696E004D415348494E452049F8
:102170004D4546554E4757410048414B554E41202D
:1021800053485547485552490053797374656D203B
:10219000526573657400E28FB120464F5243455635
:1021A000414C56453A2076616C766520696D6566CE
:1021B000756E677761204B494F544F4D4154494BE1
:1021C00049202873656B756E6465203330207A6909
:1021D0006D657069746120E28094207573616C6133
:1021E0006D6129005F4B425E11241FBECFEFD1E22B
:1021F000DEBFCDBF00E00CBF2AE0A4E9B6E001C01D
:102200001D92A732B207E1F716E0A0E0B2E0E4EEDB
:10221000FFEC00E00BBF02C007900D92A439B1079C
:10222000D9F710E1C3EFD0E100E006C02197010922
:10223000802FFE010E946265C23FD10780E008073F
:10224000A9F70E947E4C0C94E0670C940000FC01FE
:10225000A089B18982E08C93A485B5851C92A6855E
:10226000B7858FEC8C93108EA489B58986E08C930A
:10227000A289B3898C9180618C93A289B3898C9156
:1022800088608C93A289B3898C9180688C93028832
:10229000F389E02D80818F7D808308958CBD9DBD65
:1022A00008950895089508950895DC01ED91FC9135
:1022B0000190F081E02D1994EF92FF920F931F93FC
:1022C000CF93DF938C017B01D0E0C0E0F701EC0FEE
:1022D000FD1F6491662361F0D801ED91FC9101909E
:1022E000F081E02DC8011995892B11F02196EECFD0
:1022F000CE01DF91CF911F910F91FF90EF90089544
:10230000AF92BF92CF92DF92EF92FF920F931F9303
:10231000CF93DF936C017B018B01040F151FEB0141
:102320005E01AE18BF08C017D10759F06991D601F8
:10233000ED91FC910190F081E02DC6011995892B5A
:1023400079F7C501DF91CF911F910F91FF90EF9029
:10235000DF90CF90BF90AF900895FC01538D448DD6
:10236000252F30E0842F90E0821B930B541710F040
:10237000CF96089501970895FC01918D828D98174D
:1023800061F0A28DAE0FBF2FB11D5D968C91928D25
:102390009F5F9F73928F90E008958FEF9FEF089556
:1023A000FC01918D828D981731F0828DE80FF11D1F
:1023B000858D90E008958FEF9FEF0895FC01918D3A
:1023C000228D892F90E0805C9F4F821B91098F7333
:1023D000992708958CE298E00E94DE1121E0892B74
:1023E00009F420E0822F089589EC98E00E94DE1124
:1023F00021E0892B09F420E0822F0895FC01A48DAF
:10240000A80FB92FB11DA35ABF4F2C91848D90E016
:1024100001968F739927848FA689B7892C93A089F9
:10242000B1898C91837080648C93938D848D981383
:1024300006C00288F389E02D80818F7D8083089516
:10244000EF92FF920F931F93CF93DF93EC0181E004
:10245000888F9B8D8C8D98131AC0E889F9898081AB
:1024600085FF15C09FB7F894EE89FF896083E889DE
:10247000F98980818370806480839FBF81E090E0D0
:10248000DF91CF911F910F91FF90EF900895F62E5D
:102490000B8D10E00F5F1F4F0F731127E02E8C8DF7
:1024A0008E110CC00FB607FCFACFE889F98980813C
:1024B00085FFF5CFCE010E94FE11F1CFEB8DEC0F21
:1024C000FD2FF11DE35AFF4FF0829FB7F8940B8F59
:1024D000EA89FB8980818062CFCFCF93DF93EC01C3
:1024E000888D8823B9F0AA89BB89E889F9898C91FC
:1024F00085FD03C0808186FD0DC00FB607FCF7CFB8
:102500008C9185FFF2CF808185FFEDCFCE010E94B7
:10251000FE11E9CFDF91CF91089580E090E0892B03
:1025200029F00E94F41181110E94000080E090E0E7
:10253000892B29F00E94EA1181110E94000080E09D
:1025400090E0892B49F080E090E0892B29F00E94EF
:10255000000081110E94000080E090E0892B49F08A
:1025600080E090E0892B29F00E94000081110C94FA
:10257000000008958150823108F05AC0E82FF0E041
:102580008827EA53FD4E8F4F0C946265E612EA12DB
:10259000D812DE12E2121813ED12F312F712FD1226
:1025A000011305130B130F131813131319131D1312
:1025B000809180008F7780938000089580918000C3
:1025C0008F7DF9CF80918000877FF5CF84B58F779D
:1025D00084BD089584B58F7DFBCF8091B0008F7747
:1025E0008093B00008958091B0008F7DF9CF8091E5
:1025F00090008F77809390000895809190008F7D58
:10260000F9CF80919000877FF5CF8091A0008F77E0
:102610008093A00008958091A0008F7DF9CF8091D4
:10262000A000877FF5CF809120018F7780932001D4
:102630000895809120018F7DF9CF80912001877FBF
:10264000F5CFCF93DF93282F30E0F901EC5DF34E07
:102650008491F901EC57F34ED491F901E653F34E0E
:10266000C491CC23A1F081110E94BA12EC2FF0E0AA
:10267000EE0FFF1FE65FF34EA591B491EC91ED23B1
:1026800081E090E009F480E0DF91CF91089580E04F
:1026900090E0FACF862F0C9421131F93CF93DF93F2
:1026A000282F30E0F901EC5DF34E8491F901EC57ED
:1026B000F34ED491F901E653F34EC491CC23A9F023
:1026C000162F81110E94BA12EC2FF0E0EE0FFF1FBF
:1026D000E051F44EA591B4918FB7F894EC9111119B
:1026E00008C0D095DE23DC938FBFDF91CF911F917F
:1026F0000895DE2BF8CF862F642F0C944D13CF93C3
:10270000DF9390E0FC01EC57F34E24918653934EF7
:10271000FC0184918823C9F090E0880F991FFC0187
:10272000E659F34EA591B491FC01E051F44EC591E8
:10273000D49161110DC09FB7F8948C91209582239C
:102740008C938881282328839FBFDF91CF910895A0
:10275000623051F49FB7F8943C91822F8095832387
:102760008C93E8812E2BEFCF8FB7F894EC912E2B22
:102770002C938FBFEACF862F642F0C947F133FB723
:10278000F8948091710790917207A0917307B091AE
:10279000740726B5A89B05C02F3F19F00196A11D0F
:1027A000B11D3FBFBA2FA92F982F8827BC01CD019B
:1027B000620F711D811D911D42E0660F771F881FFA
:1027C000991F4A95D1F70895CF92DF92EF92FF9229
:1027D0000F931F930E94BF130091980610919906C2
:1027E00020919A0630919B066B017C01C01AD10A98
:1027F000E20AF30A97018601013D174021053105E0
:1028000090F02091F9073091FA072F5F3F4F3093F6
:10281000FA072093F90760939806709399068093BE
:102820009A0690939B061F910F91FF90EF90DF9077
:10283000CF9008958F929F92AF92BF92CF92DF92E6
:10284000EF92FF924B015C010E94BF136B017C0170
:102850000E94BF136C197D098E099F09683E734061
:1028600081059105A8F321E0821A9108A108B10819
:1028700088EEC80E83E0D81EE11CF11C811491047F
:10288000A104B10429F7FF90EF90DF90CF90BF90A3
:10289000AF909F908F9008952FB7F89460916D0737
:1028A00070916E0780916F07909170072FBF089508
:1028B000BC016E5F7F4FDC01ED91FC910190F081D6
:1028C000E02D40E0199591E0811190E0892F089565
:1028D00008958EBD00000DB407FEFDCF8EB508959E
:1028E000DF92EF92FF920F931F93CF93DF937C01C0
:1028F000062FD42E152F80E590E00E944E1160E047
:10290000F70186850E944D1382E10E946914CD2D46
:10291000D12F0C0F1D2F111DC017D10721F0899148
:102920000E946914F9CF61E0F7018685DF91CF91AC
:102930001F910F91FF90EF90DF900C944D131F9318
:10294000CF93DF93EC01162F80E590E00E944E11AB
:1029500060E08E850E944D13812F80680E9469146B
:1029600080E00E946914182F61E08E850E944D134B
:10297000812FDF91CF911F9108950F931F93CF93D4
:10298000DF93EC01062F142F80E590E00E944E119A
:1029900060E08E850E944D13802F0E946914812F64
:1029A0000E94691461E08E85DF91CF911F910F9194
:1029B0000C944D13CF9361E08091A4090E947F1382
:1029C00061E08091A4090E944D138091A5098F3F79
:1029D00009F46AC060E00E947F138091A5090E94FB
:1029E0002113892B09F060C061E08091A5090E9444
:1029F0007F1360E08091A5090E944D1383E090E071
:102A00000197F1F761E08091A5090E944D1362E3FF
:102A100070E080E090E00E941A1440E064E286E9F1
:102A200099E00E94BD1440E066E286E999E00E94C8
:102A3000BD1446E268E486E999E00E94BD1440E8CE
:102A400064E586E999E00E94BD1449EA66E586E9F5
:102A500099E00E94BD1443E068E586E999E00E9490
:102A6000BD1448EE6AE586E999E00E94BD1440E491
:102A70006AE286E999E00E94BD144DE362E286E9CC
:102A800099E00E94BD1468E286E999E00E949F14D3
:102A9000982F93709330F9F0482F436068E286E9ED
:102AA00099E0CF910C94BD144FE062E086E999E083
:102AB0000E94BD14C3E062E370E080E090E00E94F9
:102AC0001A1462E086E999E00E949F1484FFA5CF62
:102AD000C15089F7A2CFCF910895CF92DF92EF92A4
:102AE000FF920F931F93CF93DF93EC016B01F42EB2
:102AF000890140E062E00E94BD1444E06AE0CE013A
:102B00000E94BD1440E864E1CE010E94BD14A601FC
:102B10006F2DCE010E94701443E062E0CE010E944E
:102B2000BD140E944C146B017C0129E5C20ED11C1E
:102B3000E11CF11C6AE0CE010E949F1482FF1BC0C1
:102B400040E062E0CE010E94BD1464E4CE010E9428
:102B50009F14F801808362E4CE010E949F14F80163
:102B6000818380E0DF91CF911F910F91FF90EF90D3
:102B7000DF90CF9008950E944C146C157D058E0552
:102B80009F05C0F283E0EECF2F923F924F925F926B
:102B90006F927F928F929F92AF92CF92DF92EF923D
:102BA000FF920F931F93CF93DF931F921F92CDB786
:102BB000DEB74C012B01D42E390180E0E114F10481
:102BC00011F0F70180813C2C329490EF3922380EBD
:102BD00040E062E0C4010E94BD144FE768E0C40118
:102BE0000E94BD1440E864E1C4010E94BD14A2012A
:102BF0006D2DC4010E947014432D6AE1C4010E942E
:102C0000BD144CE062E0C4010E94BD146AE1C4013D
:102C10000E949F14482F40686AE1C4010E94BD14BD
:102C20000E944C141B012C01F4E22F0E311C411C9C
:102C3000511C68E0C4010E949F14982F907309F002
:102C4000B7C080FF15C083E00F900F90DF91CF9148
:102C50001F910F91FF90EF90DF90CF90AF909F90DA
:102C60008F907F906F905F904F903F902F9008953E
:102C70000E944C146215730584059505D0F2E3CFCC
:102C80006114710409F469C00115110509F465C0E6
:102C900064E1C4010E949F14382EF80180818315DD
:102CA00008F480C030823320E1F180E590E00E949A
:102CB0004E1160E0F40186850E944D133A9482E93A
:102CC0000E946914CC20B1F08FEF90E09C0102C00B
:102CD000220F331FCA94E2F7690182E90E94691446
:102CE0009C2D9095F301208192238C21982B908329
:102CF000CC24C39423014C0C511CC31440F482E92E
:102D00000E946914F20181932F01C394F6CF80E0F1
:102D10000E946914F201808361E0F40186850E94BB
:102D20004D1368E1C4010E949F148770E114F104FF
:102D300011F0F701808323FC37C061147104B1F1F5
:102D40000115110599F1AA2089F1F801408141305E
:102D500031F4843029F58FEF77CF80E0ECCF42302B
:102D6000F8F081111DC042509E012F5F3F4FB3010B
:102D7000C4010E946D15811167CFF8019081690E21
:102D8000711CF301329720819981291309C0F1E068
:102D90006F1A7108F30120819A81291709F454CF21
:102DA00087E052CF84E050CF82E04ECF80E04CCF1E
:102DB0006CE0C4010E949F14282E837109F460CF37
:102DC00081E042CF0F931F93CF93DF938C01D62FD7
:102DD000C42F0E949F14C0954C2F48236D2FC8010B
:102DE000DF91CF911F910F910C94BD148F929F9200
:102DF000AF92CF92EF92FF920F931F93CF93DF93F7
:102E000000D01F921F92CDB7DEB74C0182E08D83B8
:102E100040E064E2C4010E94BD1440E066E2C401E7
:102E20000E94BD1446E268E4C4010E94BD1486E21B
:102E30008B838D818230B0F140E86CE1C4010E9447
:102E4000E21687E08C83A12CC12CCE0104967C0174
:102E50008E010B5F1F4F9E012F5F3F4F41E0BE0170
:102E60006D5F7F4FC4010E94C415982F811117C058
:102E70008D818230B9F48C81811114C081E00F9072
:102E80000F900F900F900F90DF91CF911F910F91A6
:102E9000FF90EF90CF90AF909F908F90089581E03A
:102EA000923069F380E0EBCF2F923F924F925F9286
:102EB0006F927F928F929F92AF92BF92CF92DF924A
:102EC000EF92FF920F931F93CF93DF93CDB7DEB7AF
:102ED0002D970FB6F894DEBF0FBECDBF16E041357B
:102EE00008F045C1342E4B013C0140E86CE10E94E2
:102EF000E21683E98983332029F081E0F40190818F
:102F0000953008F480E022242394B12C9B2D990F56
:102F1000990F990FD32CD91AD7FCD12C32E08823E2
:102F200019F098E89B8333E021E09D2D977009F418
:102F300020E09D2D959595959595290FC9F094E0E4
:102F4000811193E0291708F4922FEB2DF0E03196D0
:102F5000E80DF91D232F4191A1E0B0E0AC0FBD1F9A
:102F6000A20FB11D4C932F5F422F431B491798F3BB
:102F7000882311F0F8E0DF0E8FE18D150CF082C090
:102F800090E79A838B819C8189279D8189279E81E7
:102F900089278F839E01285F3F4F47E0BE016F5F07
:102FA0007F4FC3010E946D15182F8111E0C01A8652
:102FB000E3E0EB87DC86CE0107962C0199E09D8744
:102FC000CA844C2D4295407F4C0D6AE1C3010E949A
:102FD000BD14A12CCE010A967C018E01055F1F4F06
:102FE00092014D85BE016F5F7F4FC3010E94C415E2
:102FF000182F823009F065C06CE1C3010E949F1454
:1030000085FDB5C08F7109F480E2282F30E04D2D89
:10301000DD0C550B421753070CF09DC0D82EE82F3E
:10302000E595E595E595EF5F982F977081E009F4B8
:1030300080E0E80F81E090E08C0F9D1F8E0F911DC6
:10304000FC01215031092770332781E090E002C054
:10305000880F991F2A95E2F79C018081822B80833B
:103060008BCF85E98983332031F081E0F4019081B1
:10307000983008F04BCF80E049CF87E9898326E07C
:10308000B22EF9CF9D2D97709A878D2D85958595B8
:1030900085958E5F282F2295207F290F2A8321E096
:1030A000911101C020E0280F2D8744244394512C16
:1030B0004C0E5D1E480E511CE9E0E81BEB87DC86D8
:1030C0007FCF811154C080E2D82E9C8590320CF4C1
:1030D00057CF8B81883809F040C083E093E0EB2D17
:1030E000F0E03196E80DF91D980FA1E0B0E0AC0FCB
:1030F000BD1FA80FB11D2C9121938F5F8913F5CFB0
:10310000BB84E3E0BE124DC08A8581114AC09E0196
:103110002D5F3F4F41E0B201C3010E946D15182F92
:10312000811125C09B81F201818198133CC09C8153
:103130008281981338C0808182FF12C02394F2E00C
:103140002F1609F48ECF83E0281609F496CF91E06C
:10315000291609F4CECE15E00AC082E094E0BFCF74
:10316000F4018387822D880F820D8F5F8083812FEA
:103170002D960FB6F894DEBF0FBECDBFDF91CF9175
:103180001F910F91FF90EF90DF90CF90BF90AF9085
:103190009F908F907F906F905F904F903F902F9077
:1031A000089511E0E4CF17E0E2CF2091FB06260F4F
:1031B0003327331F21323105ECF420914407FC0101
:1031C00090E080E0243069F082E00895A091FB0651
:1031D0002191AC014552594FA40FB52FB11D2C932D
:1031E0000196861798F38091FB06680F6093FB06A3
:1031F00080E0089581E008951092440781E0809373
:10320000430710921E0761E084E10E944D1361E0C4
:1032100085E10E944D13E9EBF0E080818E7F808391
:1032200080818D7F808388E48093B80085E48093DB
:10323000BC000895CF93DF9391E09093DA06882342
:10324000B9F0C091B800D091BA008091BC008A7BDF
:103250008093BC0060E084E10E944D1360E085E152
:103260000E944D130E94FC18D093BA00C093B8007E
:10327000DF91CF9108950895E0917D0780917C07BB
:10328000E81730F4F0E0E654F94F808190E00895BB
:103290008FEF9FEF089590917D0780917C072FEF2E
:1032A0003FEF981748F4E92FF0E0E654F94F2081FA
:1032B00030E09F5F90937D07C901089580917C075E
:1032C00090917D07891B990B0895CF92DF92EF9221
:1032D000FF920F931F93CF93DF937C01CB018A0161
:1032E00020914A07222389F0EB016B01C40ED51E01
:1032F000CC15DD0569F06991D701ED91FC91019044
:10330000F081E02DC7011995F3CF642F0E94D518E5
:10331000C801DF91CF911F910F91FF90EF90DF9047
:10332000CF900895CF93DF931F92CDB7DEB7698317
:1033300020914A072223F9F020917A07203258F091
:1033400021E030E0FC013383228390E080E00F90A5
:10335000DF91CF91089580917B07E82FF0E0E55B46
:10336000F84F998190838F5F80937B0780937A07D2
:1033700081E090E0ECCF61E0CE0101960E94D5188B
:10338000F7CFCF92DF92EF92FF920F931F93CF93DD
:10339000DF93FC01C48121E020934A07C0936B07AF
:1033A00010927B0710927A078385682B86E699E056
:1033B0000E949219D0917A07D13208F092C00E94EF
:1033C000BF136B017C0180914407811165C082E0CD
:1033D0008093440781E0809343078FEF80934207F7
:1033E00010924107D0934007ABE4B7E0E0E2F7E08A
:1033F00080E0D81385C010921F0780911F07CC0F63
:10340000C82BC0931F0780911E07813009F07CC034
:1034100010921E070E94BF136B017C0180911F0751
:103420008093BB008091460790914707A091480781
:10343000B0914907892B8A2B8B2B99F00E94BF13DF
:10344000009146071091470720914807309149079E
:103450006C197D098E099F09061717072807390778
:10346000E0F18091BC0083FDD9CF85EC8093BC0056
:103470000E94BF136B017C0180914407823009F4E4
:1034800045C0809142078F3F61F1809142078032B1
:1034900041F18091420725C08091460790914707EE
:1034A000A0914807B0914907892B8A2B8B2B09F4EF
:1034B0008ACF0E94BF1300914607109147072091C1
:1034C0004807309149076C197D098E099F09061735
:1034D00017072807390708F076CF809145070E9423
:1034E0001A1910927B0710927A0710924A07DF91FF
:1034F000CF911F910F91FF90EF90DF90CF900895A3
:103500009D9191938F5F75CF85EEB0CF80914607E7
:1035100090914707A0914807B0914907892B8A2BC2
:103520008B2B09F4A9CF0E94BF130091460710917D
:10353000470720914807309149076C197D098E098A
:103540009F09061717072807390708F095CFC5CF39
:1035500088E08093200A60E085E19AE00C94C1192C
:1035600090E080E00895CF92DF92EF92FF928091F9
:103570002608811157C080912508811153C00E94EF
:10358000BF136B017C018091940690919506A091E8
:103590009606B0919706A7019601281B390B4A0B96
:1035A0005B0BDA01C9018135934CA105B105D0F15E
:1035B0006091120870911308809114089091150879
:1035C00020E030E048E452E40E9415646093120861
:1035D0007093130880931408909315086091120853
:1035E0007091130880911408909115080E94F3645B
:1035F0006093160870931708809318089093190821
:103600000E944C1460931C0870931D0880931E0840
:1036100090931F08C0929406D0929506E092960669
:10362000F0929706FF90EF90DF90CF9008950F9360
:103630001F93CF938C01C62F0E94C1196C2F646019
:10364000C8010E94C1196C2F6B7FC8010E94C1196B
:1036500083EC90E00197F1F7CF911F910F910895BE
:103660000F931F93CF93DF938C01D62FC42F607FCE
:10367000642B0E94171B80E1D89FB00111246C2B92
:10368000C801DF91CF911F910F910C94171BCF931D
:10369000DF9300D000D01F921F92CDB7DEB798E025
:1036A000E0E8F2E0DE01119601900D929A95E1F7C3
:1036B00090911D0A961710F46FEF690F262F30E0D6
:1036C000220F331F41E050E04C0F5D1F240F351FC8
:1036D000F9016081680F606840E085E19AE0289612
:1036E0000FB6F894DEBF0FBECDBFDF91CF910C9423
:1036F000301B40E061E085E19AE00E94301B8BE3E3
:103700009FE10197F1F7089541E00E94301B81E0AD
:1037100090E00895CF93DF93FC0124813581232B22
:1037200071F0C081D1816AE370E0CE010E949D6793
:10373000009729F08C1B9D0BDF91CF9108958FEF9F
:103740009FEFFACFFB0101900020E9F73197AF011D
:10375000461B570BDC01ED91FC910280F381E02DBB
:1037600019948F929F92AF92BF92EF92FF920F9314
:103770001F93CF93DF93CDB7DEB7A1970FB6F89421
:10378000DEBF0FBECDBF7C01FA01CB0119A22230F2
:1037900008F42AE08E010F5D1F4F822E912CB12C70
:1037A000A12CBF01A50194010E944065F901CA0145
:1037B0006A300CF5605DD8016E938D01232B242BAC
:1037C000252B79F790E080E0109721F0BD01C7012B
:1037D0000E94A21BA1960FB6F894DEBF0FBECDBF0C
:1037E000DF91CF911F910F91FF90EF90BF90AF901D
:1037F0009F908F900895695CDECFCF92DF92EF9219
:10380000FF92CF93DF93AB01BC0177FF1DC06A012C
:103810007C016DE289EC98E00E945511EC0144278F
:103820005527BA014C195D096E097F092AE089EC18
:1038300098E00E94B11B8C0F9D1FDF91CF91FF90EC
:10384000EF90DF90CF9008952AE089EC98E0DF9127
:10385000CF91FF90EF90DF90CF900C94B11B2F92FF
:103860003F924F925F926F927F928F929F92AF9210
:10387000BF92CF92DF92EF92FF921F93CF93DF938D
:10388000EC016A017B01722EAB019601CB01B601FE
:103890000E9427656CEC72E0811126C04601570139
:1038A000E894B7F82FEF3FEF4FE75FE7C501B401AA
:1038B0000E94276581110CC02FEF3FEF4FE75FE7B4
:1038C000C501B4010E94BD6260ED72E0181664F09B
:1038D0002FEF3FEF4FE75FE4C701B6010E9422657B
:1038E0001816B4F464ED72E0CE01DF91CF911F9110
:1038F000FF90EF90DF90CF90BF90AF909F908F9010
:103900007F906F905F904F903F902F900C94A21BF0
:103910002FEF3FEF4FE75FECC701B6010E94BD629A
:1039200087FDE0CF20E030E0A901C701B6010E9489
:10393000BD62312C212C87FF09C06DE2CE010E94AF
:1039400055111C01F7FAF094F7F8F09410E060E0DC
:1039500070E080E09FE3711641F020E030E040E24B
:1039600051E40E9481641F5FF6CFA70196010E9477
:1039700015642B013C010E94F3644B015C012AE0B9
:10398000BC01A401CE010E94B11B7C01E20CF31C1E
:103990001123C1F1C501B4010E94C2629B01AC01B7
:1039A000C301B2010E9414644B015C016EE2CE01BE
:1039B0000E945511E80EF91E115020F120E030E070
:1039C00040E251E4C501B4010E9423632B013C0194
:1039D0000E94F3644B01B12CA12C2AE0B501A40193
:1039E000CE010E94B11BE80EF91EC501B4010E9470
:1039F000C2629B01AC01C301B2010E9414644B017D
:103A00005C01DACFC701DF91CF911F91FF90EF905A
:103A1000DF90CF90BF90AF909F908F907F906F90EE
:103A20005F904F903F902F9008950F931F93CF93E7
:103A3000DF93EC010E942F1C8C0168ED72E0CE0137
:103A40000E94A21B800F911FDF91CF911F910F91B8
:103A500008950C942F1C0F931F93CF93DF93EC01C9
:103A60000E94A21B8C0168ED72E0CE010E94A21B95
:103A7000800F911FDF91CF911F910F9108950F93A8
:103A80001F93CF93DF93EC01FB014481558160814B
:103A900071810E9480118C0168ED72E0CE010E945C
:103AA000A21B800F911FDF91CF911F910F9108955D
:103AB0000F931F93CF93DF93EC010E945C118C0155
:103AC00068ED72E0CE010E94A21B800F911FDF9172
:103AD000CF911F910F91089566E075E08CE298E018
:103AE0000E945C116BEB74E08CE298E00E94581D20
:103AF00069EB74E08CE298E00C945C1167EB74E085
:103B00008CE298E00E945C1169EA74E08CE298E033
:103B10000E94581D6AE974E08CE298E00E945C11F2
:103B200040914C0250914D0260914E0270914F02B3
:103B300022E030E08CE298E00E94151D65E874E018
:103B40008CE298E00E945C1140914602509147023D
:103B5000609148027091490222E030E08CE298E0E6
:103B60000E94151D6DE774E08CE298E00E945C11E4
:103B700064E272E08CE298E00E942B1D6BE774E037
:103B80008CE298E00E945C1161E674E08CE298E0BF
:103B90000E945C1140913C0250913D0260913E02B6
:103BA00070913F0222E030E08CE298E00E94151D07
:103BB0006FE574E08CE298E00E945C116DE773E0C1
:103BC0008CE298E00E94581D6BE773E08CE298E06D
:103BD0000C945C110C94A21BFC01808191810097D4
:103BE00011F00C94785E60E070E0CB010895FC0168
:103BF00080819181009711F00C947C5E60E070E010
:103C0000CB010895AF92BF92CF92DF92EF92FF92D5
:103C10000F931F93CF93DF93DC01CD90DC9011972E
:103C2000C114D10439F01496CD91DC918C01760148
:103C3000209761F4DF91CF911F910F91FF90EF904A
:103C4000DF90CF90BF90AF90089575015701BFEFFF
:103C5000AB1ABB0AF7018081082E000C990B0E9459
:103C60008C62892B91F72197CC0DDD1D8881082E60
:103C7000000C990B0E948C62892B29F0CE15DF0570
:103C800010F02197F3CFAE014F5F5F4F4E195F09E0
:103C9000D80115965C934E931497CE14DF0420F44C
:103CA000B701C6010E949467D801ED91FC9111976C
:103CB00014968D919C91E80FF91F1082BBCFCF9382
:103CC000DF93FC01C081D181209761F08991882325
:103CD00049F0082E000C990B0E948C67FE01319769
:103CE0008083F4CFDF91CF910895FB01448155810A
:103CF000FC01248135812417350778F0808191817A
:103D0000009759F0FB01608171816115710529F0FF
:103D10000E94B86721E0892B09F020E0822F0895E6
:103D2000FC0124813581232B39F421E0FB018081C2
:103D3000882349F020E007C0808191810E94A86714
:103D400021E0892BB9F7822F0895FC012481358168
:103D5000FB014481558124173507E1F4FC01808182
:103D60009181FB01608171810097D1F0611571052E
:103D7000A1F4232BC1F0FC01808190E008C0232B2B
:103D800091F0FB01808190E091958195910921E06E
:103D9000892B09F020E0822F08950E94A867F7CFB1
:103DA0006115710561F721E0F6CF0F931F93CF9353
:103DB000DF938C01EB01FC01808191810097E1F0A0
:103DC0006881798161157105A9F0428153812C8147
:103DD0003D814217530770F00E94B1678C819D812D
:103DE000F801958384831D821C82DF91CF911F91FE
:103DF0000F9108950E941A6688819981F801918334
:103E000080838A819B81938382838C819D8195832A
:103E10008483198218821B821A82E5CFCF93DF93A5
:103E2000EC0188819981009711F00E941A6619822D
:103E300018821D821C821B821A82DF91CF91089505
:103E4000FC0180819181009711F00C941A6608950D
:103E50000F931F93CF93DF93EC0188819981009793
:103E600059F02A813B812617370730F081E0DF9136
:103E7000CF911F910F9108958B016F5F7F4F0E942B
:103E8000A366009759F0998388831B830A832C814A
:103E90003D81232B59F7FC011082E8CF80E0E7CF6A
:103EA000EF92FF920F931F93CF93DF9361157105EC
:103EB00041F480E0DF91CF911F910F91FF90EF903F
:103EC000089541155105B1F07B01EC010C811D8174
:103ED000040F151FB8010E94281F882351F3288161
:103EE00039818C819D81B701820F931F0E94B16738
:103EF0001D830C8381E0DECFCF93DF93EC0161154E
:103F0000710539F4CE010E940E1FCE01DF91CF91D1
:103F10000895FB0101900020E9F73197AF01461B9E
:103F2000570B0E94501F882369F3EFCFCF93DF9385
:103F3000EC01FB0144815581608171810E94501F19
:103F4000811103C0CE010E940E1FCE01DF91CF91DF
:103F50000895CF93DF931F921F92CDB7DEB7698389
:103F60001A8241E050E0BE016F5F7F4F0E94501FF8
:103F70000F900F90DF91CF910895EF92FF920F93E2
:103F80001F93CF93DF93EC017B018A01BA010E945A
:103F9000281F81110BC0CE010E940E1FCE01DF91A0
:103FA000CF911F910F91FF90EF9008951D830C8387
:103FB000B701888199810E94B167F0CFFB01019020
:103FC0000020E9F73197AF01461B570B0C94BD1F3A
:103FD000EF92FF920F931F93CF93DF93CDB7DEB78E
:103FE000A1970FB6F894DEBF0FBECDBF7C01CB0109
:103FF000BA01F70111821082138212821582148293
:104000008E010F5F1F4F22E044E00E945A5E00972E
:1040100089F0BC01C7010E94DE1FA1960FB6F8947B
:10402000DEBF0FBECDBFDF91CF911F910F91FF90EB
:10403000EF900895C7010E940E1FEFCF0F931F93BB
:10404000CF93DF93CDB7DEB762970FB6F894DEBF9C
:104050000FBECDBF8C01CB01F801118210821382FB
:104060001282158214824AE0BE016F5F7F4F0E9468
:10407000A35EBE016F5F7F4FC8010E94DE1F629684
:104080000FB6F894DEBF0FBECDBFDF91CF911F9169
:104090000F910895FB01DC0111961C921E9213965C
:1040A0001C921E92129715961C921E9214978617B8
:1040B000970749F0608171816115710521F0448194
:1040C00055810C94BD1F0895FC011182108213824A
:1040D000128215821482FB0101900020E9F73197CA
:1040E000AF01461B570B0C94BD1FAF92BF92CF92EE
:1040F000DF92EF92FF920F931F93CF93DF936C01A8
:104100005B017A0189012417350720F48F2D79018D
:10411000042F182F6AED72E0C6010E946420D501B9
:104120001496CD91DC91EC16FD06E0F40C171D07FA
:1041300008F4E801D501ED91FC911197EC0FFD1FFA
:10414000108110826D917C916E0D7F1DC6016115ED
:104150007105A1F00E94DE1FF50180819181C80FD9
:10416000D91F1883C601DF91CF911F910F91FF9046
:10417000EF90DF90CF90BF90AF9008950E940E1FF8
:10418000EBCFEF92FF920F931F93CF93DF93EC014E
:104190008A01FB018481958130E020E0B0E0A0E05D
:1041A00050E040E08217930758F18217930771F4AB
:1041B000A017B10701F5CE010E947520CE01DF9155
:1041C000CF911F910F91FF90EF9008952817390715
:1041D00040F4FB01E080F180F701E20FF31FEF28CC
:1041E00021F410922B08EBE2F8E0E081EA3301F3CE
:1041F0002F5F3F4FD7CFA9014F5F5F4F1196F8CF89
:104200006AED72E0CE010E946420D8CFCF93DF9395
:10421000EC01FB01248135810E947520CE01DF91E4
:10422000CF91089585ED8093BC00809146079091D1
:104230004707A0914807B09149070796A11DB11DF6
:1042400023E0B695A795979587952A95D1F7209164
:10425000BC0024FD03C01092440708954091460716
:10426000509147076091480770914907452B462BAD
:10427000472B69F30097A105B10541F02AE22A9581
:10428000F1F700C00197A109B109E1CF809145077D
:104290000C941A19EF92FF920F931F93CF93DF9311
:1042A000EC018B01D80114968D919C911597009784
:1042B00089F0ED91FC911197309761F00197E80F2B
:1042C000F91F2081203231F415969C938E93149718
:1042D0001082E8CF85E0E82EF12C60E2C8010E9450
:1042E000A91FB1E0EB1AF108C1F7198218821B82ED
:1042F0001A821D821C82B801CE010E94D51ECE01F9
:10430000DF91CF911F910F91FF90EF9008950F9340
:104310001F93CF93DF9304E212E0C8E0D0E0F801EE
:1043200061918F01CE010E94EC632196CC31D105C1
:10433000B1F76AEE72E089EC98E00E945C1164E2E9
:1043400072E089EC98E0DF91CF911F910F910C946E
:104350002B1DFC01808191810C94E463AF92BF928C
:10436000CF92DF92EF92FF920F931F93CF93DF9341
:104370001F921F92CDB7DEB78B016B0123E2C20EF5
:10438000D11C7B015C01A61AB70AC5018E0D9F1DC9
:104390009A838983CE0101960E94A921F701819316
:1043A0007F01EC15FD0589F7C8010F900F90DF9193
:1043B000CF911F910F91FF90EF90DF90CF90BF9022
:1043C000AF900895EF92FF920F931F93CF93DF93D7
:1043D000CDB7DEB7A3970FB6F894DEBF0FBECDBF43
:1043E00084E4E82EF12C10E000E0BE016F5F7F4F07
:1043F000C7010E94AE218981882351F00F5F1F4FB2
:1044000083E2E80EF11C0233110579F70FEF1FEF7D
:10441000C801A3960FB6F894DEBF0FBECDBFDF91E3
:10442000CF911F910F91FF90EF900895CF92DF925F
:10443000EF92FF920F931F93CF93DF93CDB7DEB729
:10444000A3970FB6F894DEBF0FBECDBF6C0184E416
:10445000E82EF12C10E000E0BE016F5F7F4FC70136
:104460000E94AE214EE050E0B601CE0101960E94BE
:10447000B867892B19F4898181110AC00F5F1F4F1A
:1044800083E2E80EF11C0233110531F70FEF1FEF45
:10449000C801A3960FB6F894DEBF0FBECDBFDF9163
:1044A000CF911F910F91FF90EF90DF90CF900895E3
:1044B000AF92BF92CF92DF92EF92FF920F931F9332
:1044C000CF93DF931F921F92CDB7DEB78B016B01A5
:1044D00020E1C20ED11C7B015C01A61AB70AC501FE
:1044E0008E0D9F1D9A838983CE0101960E94A9217A
:1044F000F70181937F01EC15FD0589F7C8010F9045
:104500000F90DF91CF911F910F91FF90EF90DF906F
:10451000CF90BF90AF900895AF92BF92CF92DF92AD
:10452000EF92FF920F931F93CF93DF931F921F92EF
:10453000CDB7DEB78B016B0124E0C20ED11C7B012D
:104540005C01A61AB70AC5018E0D9F1D9A83898347
:10455000CE0101960E94A921F70181937F01EC15FC
:10456000FD0589F7C8010F900F90DF91CF911F9142
:104570000F91FF90EF90DF90CF90BF90AF90089594
:104580002F923F924F925F926F927F928F929F9263
:10459000AF92BF92CF92DF92EF92FF920F931F9351
:1045A000CF93DF9300D000D000D01F921F92CDB7E1
:1045B000DEB76C011B018FEF9FEFF60191838083C3
:1045C000FB0110821182128213820BE517E0F12C9D
:1045D000E12C1B86412C512C3201CE0101965C014D
:1045E000480198E0890E911C1A870987CE01099627
:1045F0000E94A921F50181935F010F5F1F4F0815EC
:10460000190591F78D819E81AF81B8858F3FFFEFAE
:104610009F07AF07BF07D9F02B85222351F0F10187
:104620004081518162817381481759076A077B076E
:1046300060F4F10180839183A283B383F601F18258
:10464000E08249805A806B807C80F1E0FB872FEF0D
:10465000E21AF20A80E1E816F10409F0BECF9B8568
:10466000911106C0412C512C80E8682E8FEB782EDA
:10467000C301B2012B960FB6F894DEBF0FBECDBFBB
:10468000DF91CF911F910F91FF90EF90DF90CF902E
:10469000BF90AF909F908F907F906F905F904F9062
:1046A0003F902F9008951F93CF93DF93EC01162F27
:1046B0000E94A921811729F0612F888199810E9488
:1046C000EC63CE01DF91CF911F910895AF92BF921D
:1046D000CF92DF92EF92FF920F931F93CF93DF93CE
:1046E0001F921F92CDB7DEB78B016B0123E2C20E82
:1046F000D11C7B015C01A61AB70AC5018E0D9F1D56
:104700009A838983F70161917F01CE0101960E940E
:104710005323EC14FD0489F7C8010F900F90DF912B
:10472000CF911F910F91FF90EF90DF90CF90BF90AE
:10473000AF900895AF92BF92CF92DF92EF92FF9227
:104740000F931F93CF93DF931F921F92CDB7DEB7C6
:104750008B016B0120E1C20ED11C7B015C01A61A0A
:10476000B70AC5018E0D9F1D9A838983F701619158
:104770007F01CE0101960E945323EC14FD0489F7BA
:10478000C8010F900F90DF91CF911F910F91FF9073
:10479000EF90DF90CF90BF90AF900895CF93DF93CD
:1047A000CDB7DEB760970FB6F894DEBF0FBECDBFB2
:1047B00064E072E080E390E00E949A23BE016F5FA4
:1047C0007F4F80E390E00E94582264E072E0CE01C7
:1047D00001960E94A867892B61F06CEF72E089EC6A
:1047E00098E00E942B1D64E072E080E390E00E945C
:1047F0009A2360960FB6F894DEBF0FBECDBFDF914F
:10480000CF910895CF93DF93CDB7DEB760970FB602
:10481000F894DEBF0FBECDBF64E172E08CE190E0A2
:104820000E949A23BE016F5F7F4F8CE190E00E944F
:10483000582264E172E0CE0101960E94A867892B9C
:1048400061F06EE273E089EC98E00E942B1D64E158
:1048500072E08CE190E00E949A2360960FB6F89483
:10486000DEBF0FBECDBFDF91CF910895AF92BF9253
:10487000CF92DF92EF92FF920F931F93CF93DF932C
:104880001F921F92CDB7DEB78B016B0124E0C20EE1
:10489000D11C7B015C01A61AB70AC5018E0D9F1DB4
:1048A0009A838983F70161917F01CE0101960E946D
:1048B0005323EC14FD0489F7C8010F900F90DF918A
:1048C000CF911F910F91FF90EF90DF90CF90BF900D
:1048D000AF900895CF93DF9300D01F92CDB7DEB78E
:1048E0006CE472E08CE290E00E943624BE016F5FBF
:1048F0007F4F8CE290E00E948C2220914C023091FC
:104900004D0240914E0250914F0269817A818B8114
:104910009C810E9414649F772AE037ED43E25CE3B8
:104920000E942265181664F46AE373E089EC98E04B
:104930000E94581D6CE472E08CE290E00E943624E4
:104940000F900F900F900F90DF91CF910895CF931C
:10495000DF9300D01F92CDB7DEB766E472E084E04B
:1049600090E00E943624BE016F5F7F4F84E090E0AC
:104970000E948C22209146023091470240914802C9
:104980005091490269817A818B819C810E941464D3
:104990009F772AE037ED43E25CE30E942265181618
:1049A00064F46FEF72E089EC98E00E94581D66E4B1
:1049B00072E084E090E00E9436240F900F900F90F8
:1049C0000F90DF91CF9108956CE372E080E490E066
:1049D0000E94362461ED72E089EC98E00E945C113F
:1049E00040913C0250913D0260913E0270913F0225
:1049F00023E030E089EC98E00C94151D2F923F9253
:104A00004F925F926F927F928F929F92AF92BF92DE
:104A1000CF92DF92EF92FF920F931F93CF93DF938A
:104A2000CDB7DEB7C158D1090FB6F894DEBF0FBEBF
:104A3000CDBF80911A08811104C08091110888238C
:104A400049F08091B906811105C08091B80688238C
:104A500009F4D5C10E944C140091B4061091B5061A
:104A60002091B6063091B706601B710B820B930B39
:104A7000683C71058105910508F4C1C10E94DA14F2
:104A80006AE070E080E090E00E941A1486E999E004
:104A90000E94F616882309F4A8C186E999E00E94CD
:104AA0005814382E882309F4A0C16AED72E0CE01B3
:104AB00084589F4F0E94642010E080919809181735
:104AC00040F5E12FF0E0EA56F64F83811DA21CA2CB
:104AD0001FA21EA219A618A640E1BE016F5F7F4F5C
:104AE00090E00E94C35EBE016F5F7F4FCE0184964F
:104AF0000E94DE1F48A559A56CA17DA1CE01845856
:104B00009F4F0E94501FCE0184960E94201F1F5F5E
:104B1000D4CFCE0184589F4F0E945F1E0E944C1438
:104B200060931C0870931D0880931E0890931F08C3
:104B30008091B906882309F47AC28091B806882347
:104B400009F475C2BE0164587F4FCE018A589F4F49
:104B50000E944A20EC968EAD9FADEC971DA21CA240
:104B60001FA21EA219A618A64AE0BE016F5F7F4FC2
:104B70000E94C35EBE016F5F7F4FCE0184960E948C
:104B8000DE1F62E673E0CE0101960E946420BE0142
:104B90006A587F4FCE0101960E94961F68E773E026
:104BA0000E947C1FBE016C5D7F4F0E94961FBC015E
:104BB00089EC98E00E943F1DCE0101960E94201FC3
:104BC000CE0184960E94201F62E873E0CE01019618
:104BD0000E946420BE016A587F4FCE0101960E9458
:104BE000961FBC018CE298E00E943F1DCE01019609
:104BF0000E94201F0E94791B60E080E00E94471BFA
:104C000065EC77E185E19AE00E945C11EC968EAD4F
:104C10009FADEC97892B71F565EB77E18CE298E01D
:104C20000E94581D60E080E00E94471B6BEA77E11C
:104C300085E19AE00E945C1160ED77E080E090E011
:104C40000E941A141092B90681E08093B3066AE8B4
:104C500077E18CE298E00E94581D0E94791B60E089
:104C600080E00E94471B6BE777E185E19AE00E94B4
:104C70005C1184C0E8966EAD7FADE8974EE050E0E1
:104C8000CE0184960E94C6671AAACE0184960E941D
:104C90001622019651F161E677E18CE298E00E94DC
:104CA000581D60E080E00E94471B65E577E185E1E3
:104CB0009AE00E945C1160ED77E080E090E00E9455
:104CC0001A141092B90681E08093B30664E377E189
:104CD0008CE298E00E94581D0E94791B60E080E001
:104CE0000E94471B65E277E1C0CF0E94E2218C0160
:104CF0000F3F100709F0A0C062E370E0CE010196FB
:104D00000E941E206DE973E0CE01895B9F4F0E94D7
:104D10006420BE016F5F7F4FCE01895B9F4F0E9471
:104D2000961F66EB73E00E947C1FBC018CE298E04A
:104D30000E943F1DCE01895B9F4F0E94201FCE0124
:104D400001960E94201F1092B8061092B906109288
:104D5000B3066AED72E084E899E00E94DE1F1092CB
:104D6000AF061092B0061092B1061092B206809172
:104D70001A08882309F45DC00E947E1DCE018A585E
:104D80009F4F0E94201F80E5AB968FAFAB97AC96EC
:104D90001FAEAC972AE630E02C0F3D1F2E5F3F4F31
:104DA00042E0BE0166597F4F86E999E00E946D1589
:104DB000811110C0A12CC12CF12CE12C10E000E0DD
:104DC00030E020E044E0BE0166597F4F86E999E07B
:104DD0000E94C41548E060E186E999E00E94E2166D
:104DE000CE0184589F4F0E94201F0E944C14609354
:104DF000B4067093B5068093B6069093B706CF5766
:104E0000DF4F0FB6F894DEBF0FBECDBFDF91CF915D
:104E10001F910F91FF90EF90DF90CF90BF90AF90D8
:104E20009F908F907F906F905F904F903F902F90CA
:104E300008950E946C1DA2CF60918409709185092C
:104E40004FE050E0CE01C3960E94C66723961FAE86
:104E500023978091AF069091B006A091B106B091D2
:104E6000B20627968CAF9DAFAEAFBFAF279783E258
:104E7000FE01B496DE01119601900D928A95E1F73C
:104E800023E2209FC001219F900D1124BE016F5F7E
:104E90007F4F8C5B9F4F0E9466232796CCACDDAC86
:104EA000EEACFFAC279769ED76E189EC98E00E94C3
:104EB0005C11BE016C5D7F4F89EC98E00E94EA1D99
:104EC0006AE389EC98E00E945511BE016D5C7F4F4A
:104ED00089EC98E00E94EA1D6AE389EC98E00E9460
:104EE000551122E030E0B701A60189EC98E00E945C
:104EF000151D61E088E00E944D1368EC70E080E0D1
:104F000090E00E941A1460E088E00E944D132796FA
:104F10004CAD5DAD6EAD7FAD2797CE01895B9F4FE8
:104F20000E94E81FBE016D5C7F4FCE0186599F4FE6
:104F30000E9464206EEB73E0CE0180599F4F0E9467
:104F40006420BE0166597F4FCE0180599F4F0E9459
:104F5000961F68ED73E00E947C1FBE01695B7F4F66
:104F60000E94961FBC018CE298E00E943F1DCE017A
:104F700080599F4F0E94201FCE0186599F4F0E944B
:104F8000201FCE01895B9F4F0E94201F0E94791B2A
:104F900060E080E00E94471B68E177E185E19AE0EC
:104FA0000E945C11BE016D5C7F4F85E19AE00E941A
:104FB000EA1D61E080E00E94471B62E177E185E144
:104FC0009AE00E945C1127964CAD5DAD6EAD7FAD51
:104FD000279722E030E085E19AE00E94291D60EDEC
:104FE00077E080E090E00E941A141092B90681E008
:104FF0008093B3066AED72E084E899E00E94DE1FB8
:105000001092AF061092B0061092B1061092B2063E
:1050100061EF76E18CE298E00E94581D0E94791BB6
:1050200060E080E00E94471B62EE76E11ECEEE96C5
:105030006EAD7FADEE974EE050E08CEC97E00E94B5
:10504000C6671092DA070E94791B60E080E00E9438
:10505000471B67E878E185E19AE00E945C116AED00
:1050600072E0CE018A589F4F0E946420BE016458AE
:105070007F4FCE0180599F4F0E944A206EEC76E10F
:1050800089EC98E00E945C11BE0160597F4F89EC69
:1050900098E00E943F1D6AED72E0CE0186599F4F55
:1050A0000E9464200E944C142B013C010E944C146D
:1050B0006419750986099709683B7B40810591054C
:1050C00008F0A7C2A89589EC98E00E94DE11892B10
:1050D00069F389EC98E00E94BC118A3019F08D3098
:1050E00009F088C2E0968EAD9FADE097892BF1F272
:1050F00063EE73E0CE0101960E946420BE016F5FF3
:105100007F4FCE0186599F4F0E94751E182FCE01EA
:1051100001960E94201F112309F434C247E050E099
:10512000BE0166597F4FCE01895B9F4F0E940621C9
:10513000CE01895B9F4F0E948A1B6C017C018FEF1F
:10514000E81AF80A2D968EAC9FAC2D97E814F90456
:1051500080F42996AEACBFAC29976AE370E0C50134
:105160008E0D9F1D0E949D678C010A191B09892BBA
:1051700011F40FEF1FEF8114910409F094C1AA24D8
:10518000AA94BA2C1C141D040CF0EFC110161106C1
:105190000CF0EBC1960150E040E0BE01695B7F4F2F
:1051A000CE0184960A151B050CF09DC10E94752046
:1051B000CE0184960E945F1EBE0160597F4FCE01D2
:1051C00084960E94A51E882309F4CBC19801A701EB
:1051D000BE01695B7F4FCE0101960E947520CE0112
:1051E00001960E94EC1D6B017C01CE0101960E948C
:1051F000201FA8014F5F5F4F9501BE01695B7F4F84
:10520000CE0101960E947520BE016F5F7F4FCE01D7
:105210008A589F4F0E94D51ECE0101960E94201FE2
:10522000A5014F5F5F4FBE01695B7F4FCE010196C5
:105230000E9406216BEE73E0CE0101960E94901E43
:1052400033243394811101C0312CCE0101960E9488
:10525000201FCE0184960E94201FCE01895B9F4FA4
:105260000E94201F10E000E0CE0186599F4F0E944F
:10527000201FCE0180599F4F0E94201F011511054C
:1052800009F0CDC18CEC97E00E9416228C010196AA
:10529000C9F50E94E2218C010F3F100799F58AE1C0
:1052A00097E09A838983CE0101960E94A9218CA35D
:1052B0008BE197E09A838983CE0101960E94A92110
:1052C0008DA38CA19DA1C29710F01DA21CA20CA1C0
:1052D0001DA1C801019662E370E00E942C65B92E01
:1052E0002AE137E03A832983682FCE0101960E9494
:1052F00053238BE197E09A8389836B2DCE0101962E
:105300000E945323E8966EAD7FADE8974FE050E0E2
:105310008BED97E00E94C6671092EA07311038C003
:10532000A701960160910002709101028091020232
:10533000909103020E94BD6287FF2AC069E578E16F
:1053400089EC98E00E945C1122E030E0B701A601F0
:1053500089EC98E00E94291D6BE278E189EC98E0E5
:105360000E945C1140910002509101026091020282
:105370007091030222E030E089EC98E00E94151D54
:10538000C0900002D0900102E0900202F09003026F
:10539000C092EB07D092EC07E092ED07F092EE0797
:1053A00083E2ECECF7E0DE01A95BBF4F01900D92C8
:1053B0008A95E1F723E2209FC001219F900D1124DF
:1053C000BE01695B7F4F8C5B9F4F0E9466231093E9
:1053D0004B0200934A0261E088E00E944D136AEF9D
:1053E00070E080E090E00E941A1460E088E00E9483
:1053F0004D130E94791B60E080E00E94471B64E22D
:1054000078E185E19AE00E945C116BED77E085E13F
:105410009AE00E94EA1D61E080E00E94471B68E17B
:1054200078E185E19AE00E945C114091EB07509190
:10543000EC076091ED077091EE0722E030E085E126
:105440009AE00E94291D63E080E00E94471B63E010
:1054500078E185E19AE00E945C1181E080930F0879
:105460008093F4071092F3076AED72E08EE799E0FB
:105470000E94DE1F0E944C146093F5077093F6079C
:105480008093F7079093F80761E088E00E944D133E
:105490006AEF70E080E090E00E941A1460E088E01B
:1054A0000E944D136BCC2996EEADFFAD2997E80D08
:1054B000F91D208010822996AEACBFAC29976AE313
:1054C00070E0C5010E94D567F501E80DF91D208245
:1054D000009709F454CE29962EAD3FAD29975C0173
:1054E000A21AB30A4FCE0E947520CE0184960E9464
:1054F0005F1EBE0160597F4FCE0184960E94A51E9B
:10550000882379F19801A701BE01695B7F4FCE0125
:1055100001960E947520CE0101960E94EC1D6B0140
:105520007C01CE0101960E94201FA8014F5F5F4FB2
:10553000BE01695B7F4FCE0101960E940621BE012C
:105540006F5F7F4FCE018A589F4F0E94D51ECE01BC
:1055500001960E94201FCE0184960E94201F312CAC
:105560007CCECE0184960E94201FCE01895B9F4F86
:105570000E94201F6AED72E0CE0186599F4F0E9463
:10558000DE1F94CD6DEE73E0CE0101960E94642083
:10559000BE016F5F7F4FCE0186599F4F0E94751EDF
:1055A000182FCE0101960E94201F112319F347E006
:1055B00050E0BE0166597F4FCE0101960E94062140
:1055C000CE0101960E945F1EBE0160597F4FCE0141
:1055D00001960E94A51E882351F0CE0101960E94DB
:1055E000201FC12CD12C760101E010E03DCECE0170
:1055F0000196BECFE0962EAD3FADE097263931053E
:1056000008F054CD682FCE0186599F4F0E94A91FE4
:105610004DCDC12CD12C760102E010E025CE023018
:10562000110511F58CEC97E00E94162290934B0225
:1056300080934A028F3F9807B9F013E2189F9001B8
:10564000199F300D1124BE016C5D7F4FC9018C5B29
:105650009F4F0E94AE21FE01B496ACECB7E00190E2
:105660000D921A95E1F7B7CE0E94791B60E080E0B9
:105670000E94471B62EF77E185E19AE00E945C118E
:1056800061E080E00E94471B6FED77E185E19AE0E1
:105690000E945C1162E080E00E94471B61ED77E1AF
:1056A00085E19AE00E945C1163E080E00E94471B64
:1056B00064E272E085E19AE00E94EA1D61E088E020
:1056C0000E944D1364EF71E080E090E00E941A1494
:1056D00060E088E00E944D1360ED77E080E090E0AC
:1056E0000E941A140E94791B49CB4F925F926F92CD
:1056F0007F928F929F92AF92BF92CF92DF92EF9262
:10570000FF920F931F93CF93DF93CDB7DEB7CC59A2
:10571000D1090FB6F894DEBF0FBECDBF8C0164E097
:1057200074E0CE0101960E946420BE016F5F7F4F3E
:10573000C8010E94751EF82ECE0101960E94201FFE
:10574000FF2009F440C149E050E0B801CE018B5779
:105750009F4F0E940621BE016B577F4FCE010196DD
:105760000E944A2050E040E0BE016F5F7F4FCE01B3
:1057700085579F4F0E94C120CE0101960E94201F95
:10578000BE016B577F4FCE0184960E944A2041E0B4
:1057900050E0BE016C5D7F4FCE0101960E94C1209A
:1057A000CE0101960E94EC1D6B017C01CE01019699
:1057B0000E94201FCE0184960E94201FBE016B57BD
:1057C0007F4FCE0101960E944A2042E050E0BE0188
:1057D0006F5F7F4FCE018F569F4F0E94C120CE0139
:1057E00001960E94201FBE016B577F4FCE0101968C
:1057F0000E944A2043E050E0BE016F5F7F4FCE0120
:1058000089569F4F0E94C120CE0101960E94201F01
:10581000CB56DF4F88819981C559D040892B09F437
:1058200066C0CF56DF4FE881F981C159D04030972B
:1058300021F410922B08EBE2F8E0A080BE0169563B
:105840007F4FCE0187589F4F0E944A20BE01655767
:105850007F4FCE0181589F4F0E944A20CE01815830
:105860009F4F0E945F1EC158DF4F68817981CF57DB
:10587000D0404EE050E0CE0186599F4F0E94C6674F
:10588000E9961FAEE997CE0186599F4F0E941622D6
:105890008C01019609F080C00E94E2218C010F3F2B
:1058A000100741F568EC78E189EC98E00E94581DFA
:1058B000CE0181589F4F0E94201FCE0187589F4FD5
:1058C0000E94201FCE0189569F4F0E94201FCE01AB
:1058D0008F569F4F0E94201FCE0185579F4F0E94D9
:1058E000201FCE018B579F4F0E94201F3AC191E489
:1058F000A92EA4CF4EE050E0BE0166597F4FCE01E5
:1059000001960E94C6671F86EB966EAD7FADEB9742
:105910004FE050E0CE0140960E94C6671F8E22E401
:10592000A21203C0C12CD12C7601C8A2D9A2EAA22E
:10593000FBA283E2FE013196DE01A95BBF4F01901D
:105940000D928A95E1F723E2209FC001219F900DDF
:105950001124BE01695B7F4F8C5B9F4F0E946623C1
:1059600066EB78E189EC98E00E945C11BE01665913
:105970007F4F89EC98E00E94EA1D6CEA78E189EC9F
:1059800098E00E945C1122E030E0B701A60189ECAA
:1059900098E00E94151D8CCF83E2B82EB09EC00106
:1059A000B19E900D1124BE016C5D7F4F8C5B9F4FAB
:1059B0000E94AE21FE01B496DE01119601900D9277
:1059C000BA94E1F7A1CF6EE074E0CE0101960E9497
:1059D0006420BE016F5F7F4FC8010E94751EF82EC4
:1059E000CE0101960E94201FFF2009F451C048E01B
:1059F00050E0B801CE0186599F4F0E940621BE019A
:105A000066597F4FCE01895B9F4F0E944A20CE018D
:105A1000895B9F4F0E945F1E29966EAD7FAD2997CF
:105A20004EE050E0CE0184960E94C6671AAACE01CD
:105A300084960E9416228F3F980709F11982188ACE
:105A400018A219A21AA21BA243E2489F9001499FE3
:105A5000300D1124BE016F5F7F4FC9018C5B9F4FDA
:105A60000E9466236AE978E189EC98E00E945C1163
:105A7000BE016C5D7F4F89EC98E00E942B1DCE012A
:105A8000895B9F4F0E94201FCE0186599F4F2CCFCC
:105A900067E174E0CE0101960E946420BE016F5F51
:105AA0007F4FC8010E94751EF82ECE0101960E94FC
:105AB000201FFF2009F46DC047E050E0B801CE017F
:105AC00001960E940621CE0101960E94EC1D6B01F9
:105AD0007C01CE0101960E94201F20E030E0A90148
