:100000000C943A040C9462040C9462040C94620400
:100010000C9462040C9462040C9462040C946204C8
:100020000C9462040C9462040C9462040C946204B8
:100030000C9462040C9462040C9462040C946204A8
:100040000C94F3100C9462040C94C1100C949B104B
:100050000C9462040C9462040C9462040C94620488
:100060000C943D110C9462044E414E494E49545932
:10007000494E46CDCCCC3D0AD7233C17B7D1387773
:10008000CC2B329595E6241FB14F0A000020410089
:1000900000C84200401C4620BCBE4CCA1B0E5AAED3
:1000A000C59D7420496E697469616C697A696E676F
:1000B0002E2E2E2000204175746F20436172652022
:1000C0002020003D3D3D3D3D3D3D3D3D3D3D3D3DD7
:1000D0003D3D3D3D3D3D3D002A2A204E454F4E4190
:1000E00054414C20444556494345202A2A00205B70
:1000F000335D4155544F205B395D52737420536515
:10010000742000205B335D204155544F204D4F44F7
:10011000452000205B325D204859504F54484552DD
:100120004D49412000205B315D204A41554E4449F4
:100130004345204D4F444520003D3D3D3D204D4130
:10014000494E204D454E55203D3D3D3D00496E7088
:1001500075743A20005265633A36303020283E628A
:10016000696C69204849474829005B352F355D2077
:1001700042696C6920434C454152204F5054003D28
:100180003D3D3D3D204155544F204D4F4445203D80
:100190003D3D3D00496E7075743A20005265633AEA
:1001A0003430302028302D313032332920005B3478
:1001B0002F355D2042696C692048494748204F50DF
:1001C0005420003D3D3D3D3D204155544F204D4F75
:1001D0004445203D3D3D3D00496E7075743A200018
:1001E00020005265633A20005B332F355D2048497B
:1001F000474820616C61726D20003D3D3D3D3D20D2
:100200004155544F204D4F4445203D3D3D3D004913
:100210006E7075743A200020005265633A20005BCE
:10022000322F355D204C4F5720616C61726D207408
:10023000656D70003D3D3D3D3D204155544F204D85
:100240004F4445203D3D3D3D00496E7075743A2058
:10025000004E6F726D616C3A33362E35202833357F
:100260002D33382920005B312F355D2054617267B2
:1002700065742074656D7020003D3D3D3D3D20411D
:1002800055544F204D4F4445203D3D3D3D00437961
:10029000633A20204F50543A202020233D4D656E74
:1002A0007520005374617475733A2020202020203B
:1002B000202020202020200042696C693A20202044
:1002C0002054656D703A202020202020003D3D3DC7
:1002D0003D3D204155544F204D4F4445203D3D3D2F
:1002E0003D00496E7075743A2000202020202020A7
:1002F000202020202020202020202020202000201E
:1003000020202020202020202020202020202020ED
:1003100020202000212120494E56414C49442049AB
:100320004E505554202121200000000000240027B9
:10033000002A0000000000250028002B000000001B
:100340000023002600290004040404040404040219
:100350000202020202030303030303010204081062
:10036000204080010204081020010204081020002F
:100370000000080002010000030407000000000064
:10038000000000526561647920746F207573652EDA
:100390002E2E0068617665206265656E2072657339
:1003A000746F7265642E0050726576696F75732084
:1003B00073657474696E677320003D3D2053455426
:1003C00054494E4753204C4F41444544203D3D0045
:1003D000496E7075743A2000456E74657220686FBE
:1003E0007572732028312D3234293A200054686503
:1003F00072617079206475726174696F6E3A200061
:100400003D3D3D204A41554E44494345204D4F44D2
:1004100045203D3D00496E7075743A200052616E72
:1004200067652033352E30202D2033382E352000BF
:10043000536574207461726765742074656D703AD9
:1004400020003D3D204859504F544845524D4941A8
:10045000204D4F44453D0020726573746F72656492
:100460002E20233D4D656E75200020446566617524
:100470006C742076616C756573200020534554546C
:10048000494E475320434C454152454420003D3D91
:100490003D3D3D3D3D3D3D3D3D3D3D3D3D3D3D3D8C
:1004A0003D3D00373D2D20393D2B20303D506175BD
:1004B0007320233D4D6E0054696D653A2030303A0B
:1004C00030303A303020004C45443A202520543A10
:1004D00020003D3D2050484F544F54484552415014
:1004E00059204F4E203D00496E74656E73697479D2
:1004F0003A2031302D313030252000486F7572732D
:10050000206D75737420626520312D3234200049CE
:100510006E7075743A200052616E67652031302D1F
:10052000313030207265633A313030004C45442020
:10053000696E74656E73697479202825293A2000E4
:100540003D3D3D204A41554E44494345204D4F4491
:1005500045203D3D00205B235D203D204D656E75AF
:100560002000436865636B2062696C69727562691B
:100570006E206C766C2E0020544845524150592014
:10058000434F4D504C4554452120003D3D3D3D3DA0
:100590003D3D3D3D3D3D3D3D3D3D3D3D3D3D3D00C8
:1005A000373D446E20393D5570205B235D3D4D65E0
:1005B0006E7520005374617475733A20004E6F7726
:1005C0003A205467743A20003D3D204859504F541A
:1005D0004845524D4941204D4754203D0048494728
:1005E00048206D757374206265203E746172676582
:1005F00074004C4F57206D757374206265203C2049
:1006000074617267657400496E7075743A200020D9
:10061000005265636F6D6D656E6465643A200053CA
:100620006574204849474820616C61726D2074658B
:100630006D703A003D3D204859504F544845524D49
:100640004941204D4F44453D0052616E67653A2057
:1006500033352E302D33382E352000496E707574A9
:100660003A200020005265636F6D6D656E646564AD
:100670003A2000536574204C4F5720616C61726DB5
:100680002074656D703A20003D3D204859504F540C
:100690004845524D4941204D4F44453D00205B2384
:1006A0005D203D205374617274204155544F2000E9
:1006B00020002048693A004F5054204C6F3A0020E7
:1006C00048693A00204C6F3A005467743A003D3D47
:1006D000204155544F2053455454494E4753203DD3
:1006E0003D3D004D757374206265203E62696C6902
:1006F0002048494748200052616E67653A203530EE
:100700002D38303020004D757374206265203E20F6
:1007100074617267657420004D7573742062652082
:100720003C20746172676574200052616E67653A9F
:100730002033352E302D33382E3520002020202038
:1007400020200020204F50543A004379633A002182
:1007500021204C4544204641554C54202121202045
:1007600020202000434845434B494E472053454EE7
:10077000534F5253005354414E444259202D20416F
:100780004C4C204F4B00434F4F4C494E4720543E5A
:100790000048454154494E4720543C0030303A30DF
:1007A00030002530326C753A2530326C7500504877
:1007B0004F544F200050484F544F2B434F4F4C2025
:1007C0000050484F544F2B4845415420004F4B0098
:1007D000484900205467743A0020543A0042696C3A
:1007E000693A0020202020202020202020202020C6
:1007F0002020202020202000202020202020202019
:100800002020202020202020202020200020202008
:1008100020202020202020202020202020202020D8
:100820002000535441424C45202000434F4F4C4937
:100830004E47200048454154494E47200020202083
:1008400020202020202020002020202020002020E8
:10085000202020002530326C753A2530326C753AF4
:100860002530326C75002020202020002020200020
:100870005C12872011241FBECFEFD8E0DEBFCDBFB2
:1008800011E0A0E0B1E0E6EDF3E502C005900D92C5
:10089000A23AB107D9F723E0A2EAB1E001C01D9264
:1008A000A03DB207E1F714E0C9E3D4E004C021970A
:1008B000FE010E94E627C833D107C9F70E94421300
:1008C0000C94DE290C94000096E0899FD00111243D
:1008D000A15BBC4F90967C936E935F9791E091964D
:1008E0009C939197E091BC03F091BD039091BB0361
:1008F000992339F0309751F0811108C080916B0332
:100900000994309719F05C968C91FACF0895089568
:100910000895AF92BF92CF92DF92EF92FF920F9322
:100920001F93CF93DF936C017B018B01040F151F85
:10093000EB015E01AE18BF08C017D10759F06991ED
:10094000D601ED91FC910190F081E02DC601099551
:10095000892B79F7C501DF91CF911F910F91FF90FE
:10096000EF90DF90CF90BF90AF900895FC01538D32
:10097000448D252F30E0842F90E0821B930B541779
:1009800010F0CF96089501970895FC01918D828D06
:10099000981761F0A28DAE0FBF2FB11D5D968C919F
:1009A000928D9F5F9F73928F90E008958FEF9FEFDE
:1009B0000895FC01918D828D981731F0828DE80F9A
:1009C000F11D858D90E008958FEF9FEF0895FC0154
:1009D000918D228D892F90E0805C9F4F821B910921
:1009E0008F739927089580EA92E00E94E70421E03E
:1009F000892B09F420E0822F089580E090E0892B74
:100A000029F00E94F30481110C9400000895FC0168
:100A1000A48DA80FB92FB11DA35ABF4F2C91848D5F
:100A200090E001968F739927848FA689B7892C93BC
:100A3000A089B1898C91837080648C93938D848D0F
:100A4000981306C00288F389E02D80818F7D808312
:100A50000895EF92FF920F931F93CF93DF93EC01D2
:100A600081E0888F9B8D8C8D98131AC0E889F98955
:100A7000808185FF15C09FB7F894EE89FF89608358
:100A8000E889F98980818370806480839FBF81E0D9
:100A900090E0DF91CF911F910F91FF90EF9008951B
:100AA000F62E0B8D10E00F5F1F4F0F731127E02EF6
:100AB0008C8D8E110CC00FB607FCFACFE889F9892E
:100AC000808185FFF5CFCE010E940705F1CFEB8D28
:100AD000EC0FFD2FF11DE35AFF4FF0829FB7F89402
:100AE0000B8FEA89FB8980818062CFCFCF93DF9320
:100AF000EC01888D8823B9F0AA89BB89E889F98936
:100B00008C9185FD03C0808186FD0DC00FB607FC6A
:100B1000F7CF8C9185FFF2CF808185FFEDCFCE019D
:100B20000E940705E9CFDF91CF910895833081F0CE
:100B300028F4813099F08230A9F008958730A9F027
:100B40008830C9F08430B1F4809180008F7D03C07B
:100B5000809180008F7780938000089584B58F778F
:100B600084BD089584B58F7DFBCF8091B0008F77D1
:100B70008093B00008958091B0008F7DF9CFCF931E
:100B8000DF93282F30E0F901E159FC4F8491F901FE
:100B9000E55AFC4FD491F901E95BFC4FC491CC2399
:100BA000A1F081110E949605EC2FF0E0EE0FFF1FDF
:100BB000E35CFC4FA591B491EC91ED2381E090E0D2
:100BC00009F480E0DF91CF91089580E090E0FACFC2
:100BD000862F0C94BF051F93CF93DF93282F30E00F
:100BE000F901E159FC4F8491F901E55AFC4FD49188
:100BF000F901E95BFC4FC491CC23A9F0162F8111B8
:100C00000E949605EC2FF0E0EE0FFF1FED5CFC4F0D
:100C1000A591B4918FB7F894EC91111108C0D095BB
:100C2000DE23DC938FBFDF91CF911F910895DE2BE0
:100C3000F8CF862F642F0C94EB05CF93DF9390E0D1
:100C4000FC01E55AFC4F2491895B9C4FFC01849187
:100C50008823C9F090E0880F991FFC01E75DFC4FE5
:100C6000A591B491FC01ED5CFC4FC591D49161114B
:100C70000DC09FB7F8948C91209582238C93888126
:100C8000282328839FBFDF91CF910895623051F4CC
:100C90009FB7F8943C91822F809583238C93E881B1
:100CA0002E2BEFCF8FB7F894EC912E2B2C938FBF78
:100CB000EACF862F642F0C941D061F93CF93DF93EA
:100CC000182FEB0161E00E941D06209739F460E0C7
:100CD000812FDF91CF911F910C94EB05CF3FD10570
:100CE00011F461E0F5CFE12FF0E0E159FC4FE49120
:100CF000E33031F140F4E130B1F0E230E1F0C038FE
:100D0000D1057CF7E4CFE73029F1E83059F1E43040
:100D1000B1F780918000806280938000D0938B0037
:100D2000C0938A0004C084B5806884BDC7BDDF91CC
:100D3000CF911F91089584B5806284BDC8BDF7CF5F
:100D400080918000806880938000D0938900C09358
:100D50008800EDCF8091B00080688093B000C09390
:100D6000B300E5CF8091B00080628093B000C09363
:100D7000B400DDCF8E50806480937C0080917A0037
:100D8000806480937A0080917A0086FDFCCF809108
:100D900078009091790008953FB7F89480915902B6
:100DA00090915A02A0915B02B0915C0226B5A89B7B
:100DB00005C02F3F19F00196A11DB11D3FBFBA2FED
:100DC000A92F982F8827BC01CD01620F711D811DAD
:100DD000911D42E0660F771F881F991F4A95D1F732
:100DE00008958F929F92AF92BF92CF92DF92EF922F
:100DF000FF926B017C010E94CC064B015C01C11487
:100E0000D104E104F104B9F00E94CC066819790913
:100E10008A099B09683E73408105910580F321E0B2
:100E2000C21AD108E108F10888EE880E83E0981E06
:100E3000A11CB11CE4CFFF90EF90DF90CF90BF904A
:100E4000AF909F908F9008952FB7F89460915502BE
:100E50007091560280915702909158022FBF0895C9
:100E60000F931F93CF93DF93C82FD62F86E0C89F91
:100E7000F0011124E15BFC4F11A2878D90A181301C
:100E80009105F1F058F082309105F1F1039709F4E2
:100E900040C0DF91CF911F910F9108956623C9F350
:100EA00061E070E08C2F0E9464040E94240760932C
:100EB000A7037093A8038093A9039093AA03E9CF93
:100EC0000E9424070091A7031091A8032091A90371
:100ED0003091AA03AB01BC01401B510B620B730B99
:100EE0008091B9039091BA03B0E0A0E08417950710
:100EF000A607B70748F462E070E08C2FDF91CF912E
:100F00001F910F910C94640463E070E0D111C1CF84
:100F1000F4CF70E060E0F1CF08952091E301260F57
:100F20003327331F21323105ECF420912C02FC01D0
:100F300090E080E0243069F082E00895A091E30120
:100F40002191AC014D535E4FA40FB52FB11D2C93D1
:100F50000196861798F38091E301680F6093E3018F
:100F600080E0089581E0089510922C0281E0809342
:100F70002B021092060261E082E10E94EB0561E023
:100F800083E10E94EB05E9EBF0E080818E7F8083B6
:100F900080818D7F808388E48093B80085E480938E
:100FA000BC000895CF93DF9391E09093C201882312
:100FB000B9F0C091B800D091BA008091BC008A7B92
:100FC0008093BC0060E082E10E94EB0560E083E179
:100FD0000E94EB050E94B407D093BA00C093B800FA
:100FE000DF91CF9108950895E091640280916302AA
:100FF000E81730F4F0E0EE55FE4F808190E0089560
:101000008FEF9FEF089590916402809163022FEF1C
:101010003FEF981748F4E92FF0E0EE55FE4F20819E
:1010200030E09F5F90936402C9010895809163024C
:1010300090916402891B990B0895CF92DF92EF92F1
:10104000FF920F931F93CF93DF937C01CB018A0113
:1010500020913202222389F0EB016B01C40ED51ED0
:10106000CC15DD0569F06991D701ED91FC910190F6
:10107000F081E02DC7010995F3CF642F0E948D0701
:10108000C801DF91CF911F910F91FF90EF90DF90FA
:10109000CF900895CF93DF931F92CDB7DEB76983CA
:1010A000209132022223F9F020916102203258F07F
:1010B00021E030E0FC013383228390E080E00F9058
:1010C000DF91CF91089580916202E82FF0E0ED5C0E
:1010D000FD4F998190838F5F8093620280936102BC
:1010E00081E090E0ECCF61E0CE0101960E948D0797
:1010F000F7CFCF92DF92EF92FF920F931F93CF9390
:10110000DF93FC01C48121E020933202C09353029B
:1011100010926202109261028385682B8DE393E046
:101120000E944A08D0916102D13208F092C00E9418
:10113000CC066B017C0180912C02811165C082E09C
:1011400080932C0281E080932B028FEF80932A0200
:1011500010922902D0932802A3E3B2E0E8E0F2E083
:1011600080E0D81385C01092070280910702CC0F4F
:10117000C82BC093070280910602813009F07CC021
:10118000109206020E94CC066B017C01809107023E
:101190008093BB0080912E0290912F02A09130028B
:1011A000B0913102892B8A2B8B2B99F00E94CC06AF
:1011B00000912E0210912F022091300230913102C5
:1011C0006C197D098E099F0906171707280739072B
:1011D000E0F18091BC0083FDD9CF85EC8093BC0009
:1011E0000E94CC066B017C0180912C02823009F4B4
:1011F00045C080912A028F3F61F180912A0280329E
:1012000041F180912A0225C080912E0290912F02F7
:10121000A0913002B0913102892B8A2B8B2B09F4DB
:101220008ACF0E94CC0600912E0210912F022091AD
:101230003002309131026C197D098E099F09061721
:1012400017072807390708F076CF80912D020E94F2
:10125000D207109262021092610210923202DF9164
:10126000CF911F910F91FF90EF90DF90CF90089555
:101270009D9191938F5F75CF85EEB0CF80912E02B7
:1012800090912F02A0913002B0913102892B8A2BCC
:101290008B2B09F4A9CF0E94CC0600912E0210914D
:1012A0002F0220913002309131026C197D098E0994
:1012B0009F09061717072807390708F095CFC5CFEC
:1012C00090E080E00895CF93DF93EC0161E086E049
:1012D0000E94EB05BE01DD0F880B990B0E94F10601
:1012E00060E086E0DF91CF910C94EB0570E060E068
:1012F00089E00E945D0670E060E088E00E945D0683
:1013000070E060E080E10E945D0670E060E081E1F5
:101310000E945D0660E086E00E94EB051092980254
:1013200010927C0210928B0210928A0210926B0231
:1013300008950F931F93CF93DF9320918E02909186
:10134000660280916502911180E030917C02321337
:1013500085C030918B0239139FC030918A023813B7
:101360009BC080917C02882309F466C080916C0246
:1013700090916D02A0916E02B0916F02892B8A2B21
:101380008B2B51F40E94240760936C0270936D02C2
:1013900080936E0290936F020E94240700916C026A
:1013A00010916D0220916E0230916F02601B710BE3
:1013B000820B930B28EE33E040E050E00E948F2632
:1013C000203C88EA38074105510508F07AC080ECD6
:1013D00098EAA0E0B0E0821B930BA40BB50B8093BE
:1013E000860290938702A0938802B0938902892B8A
:1013F0008A2B8B2B09F510927C02809183029091AD
:1014000084020196909384028093830210926C026E
:1014100010926D0210926E0210926F02C3E0D0E043
:1014200080E991E00E94630968EC70E080E090E060
:101430000E94F1062197A1F780918B0290917C0286
:10144000992309F442C081E090E090938D0280934B
:101450008C02DF91CF911F910F9108953323E1F01A
:1014600021111AC040918302509184024F5F5F4F57
:10147000509384024093830210926C0210926D028A
:1014800010926E0210926F021092860210928702E2
:10149000109288021092890220937C0290938B0212
:1014A00080938A0280E590E00E94630968E270E020
:1014B00080E090E00E94F10680E590E00E946309E0
:1014C00050CF80E090E0DC018ACF882319F082E0E1
:1014D00090E0BBCF80918A02882319F083E090E0EE
:1014E000B4CF84E090E0B1CFCF93DF9380919802A6
:1014F000D0E0C0E0882379F0A0912401B0912501CB
:101500002FEF30E00E94DF2724E630E040E050E09B
:101510000E942E26E901BE0180E10E945D06BE0107
:1015200081E1DF91CF910C945D060F931F93CF93D0
:101530008C01C62F0E9479086C2F6460C8010E943C
:1015400079086C2F6B7FC8010E94790883EC90E0CA
:101550000197F1F7CF911F910F9108950F931F936A
:10156000CF93DF938C01D62FC42F607F642B0E9412
:10157000950A80E1D89FB00111246C2BC801DF913E
:10158000CF911F910F910C94950ACF93DF93CDB714
:10159000DEB728970FB6F894DEBF0FBECDBF98E038
:1015A000EFE3F1E0DE01119601900D929A95E1F7DB
:1015B0009091C603961710F46FEF690F262F30E055
:1015C000220F331F41E050E04C0F5D1F240F351FE9
:1015D000F9016081680F606840E08EEB93E0289627
:1015E0000FB6F894DEBF0FBECDBFDF91CF910C9444
:1015F000AE0A41E00E94AE0A81E090E0089541E029
:10160000682F8EEB93E00E94AE0A81E090E008958F
:1016100040E061E08EEB93E00E94AE0A8BE39FE135
:101620000197F1F708950F931F93CF93DF938C01E8
:10163000D0E0C0E0F801EC0FFD1F6491662339F0A3
:1016400041E08EEB93E00E94AE0A2196F3CFCE01EB
:10165000DF91CF911F910F910895FC01019000201F
:10166000E9F73197AF01481B590BBC018EEB93E0B2
:101670000C9489048F929F92AF92BF920F931F9305
:10168000CF93DF93CDB7DEB7A1970FB6F894DEBF47
:101690000FBECDBF19A2423008F44AE08E010F5DA3
:1016A0001F4F842E912CB12CA12CA50194010E94D6
:1016B0008F26E62FB901CA01EA30F4F4E05DD801C3
:1016C000EE938D01232B242B252B79F790E080E0DE
:1016D000109719F0CD010E942D0BA1960FB6F8942A
:1016E000DEBF0FBECDBFDF91CF911F910F91BF9095
:1016F000AF909F908F900895E95CE1CFCF92DF92F9
:10170000EF92FF92CF93DF936C01990FEE08FF08E1
:10171000F7FE17C08DE20E94FF0AEC0166277727CB
:10172000CB016C197D098E099F094AE00E943A0B92
:101730008C0F9D1FDF91CF91FF90EF90DF90CF90A6
:1017400008954AE0C701B601DF91CF91FF90EF9075
:10175000DF90CF900C943A0B8F929F92AF92BF92F2
:10176000CF92DF92EF92FF92CF93DF936B017C01D8
:10177000AC019B010E94DA27882371F081E891E097
:10178000DF91CF91FF90EF90DF90CF90BF90AF901F
:101790009F908F900C942D0B46015701E894B7F859
:1017A0002FEF3FEF4FE75FE7C501B4010E94DA2753
:1017B00081110DC02FEF3FEF4FE75FE7C501B40187
:1017C0000E94F12418161CF485E891E0D9CF2FEF80
:1017D0003FEF4FE75FE4C701B6010E94D527181617
:1017E0001CF489E891E0CCCF2FEF3FEF4FE75FEC9F
:1017F000C701B6010E94F12487FDF3CF20E030E05D
:10180000A901C701B6010E94F124D0E0C0E087FF22
:1018100008C08DE20E94FF0AEC01F7FAF094F7F895
:10182000F0942DEC3CEC4CE45DE3C701B6010E9462
:10183000C1264B015C010E94A6276B017C010E941E
:10184000F6249B01AC01C501B4010E94C0264B01E6
:101850005C014AE0C701B6010E943A0BC80FD91FCC
:101860008EE20E94FF0AC80FD91F20E030E040E25C
:1018700051E4C501B4010E9457250E94A62790E0BB
:1018800080E04AE00E943A0B8C0F9D1FDF91CF91C0
:10189000FF90EF90DF90CF90BF90AF909F908F9090
:1018A0000895CF93DF93EC018091490390914A030F
:1018B000009759F020914B0330914C032C173D07B2
:1018C00020F081E0DF91CF910895BE016F5F7F4FDF
:1018D0000E941129009789F090934A03809349034D
:1018E000D0934C03C0934B0320914D0330914E0392
:1018F000232B39F7FC011082E4CF80E0E3CF90E0A6
:1019000080E00E94510C2091490330914A038111DB
:1019100013C02115310519F0C9010E9488281092C1
:101920004A031092490310924E0310924D031092F5
:101930004C0310924B03089510924E0310924D03E6
:1019400061EA71E0C9010C94D72980914903909113
:101950004A03009711F00C94902060E070E0CB01F6
:1019600008958091490390914A03009711F00C94D7
:10197000942060E070E0CB01089585ED8093BC0079
:1019800080912E0290912F02A0913002B0913102ED
:101990000796A11DB11D23E0B695A795979587954C
:1019A0002A95D1F72091BC0024FD03C010922C028F
:1019B000089540912E0250912F0260913002709153
:1019C0003102452B462B472B69F30097A105B10542
:1019D00041F02AE22A95F1F700C00197A109B10967
:1019E000E1CF80912D020C94D2070F931F93CF93D8
:1019F000DF938C01EB010E9418268883C8010196B1
:101A00000E9418268983CE01DF91CF911F910F91FB
:101A10000895DF92EF92FF920F931F93CF93DF937E
:101A200000D0CDB7DEB78C017B01BE016F5F7F4F69
:101A30000E94F50C89819A818E159F05A1F0C8013D
:101A40000E941826E81621F06E2DC8010E9420265B
:101A50000F5F1F4FC8010E941826F81621F06F2D46
:101A6000C8010E9420260F900F90DF91CF911F9107
:101A70000F91FF90EF90DF900895CF92DF92EF9259
:101A8000FF920F931F93CF93DF93EB017B0124E031
:101A9000E20EF11C8B016C01C61AD70AC601800F39
:101AA000911F0E941826F80181938F01EE15FF0502
:101AB000A9F7CE01DF91CF911F910F91FF90EF9089
:101AC000DF90CF900895CF93DF9300D000D0CDB7B3
:101AD000DEB7BE016F5F7F4F82E090E00E943D0D58
:101AE00089819A81AB81BC8180931C0190931D01F7
:101AF000A0931E01B0931F01BE016F5F7F4F86E070
:101B000090E00E943D0D89819A81AB81BC818093D8
:101B1000180190931901A0931A01B0931B01BE0103
:101B20006F5F7F4F8AE090E00E943D0D89819A812E
:101B3000AB81BC818093140190931501A093160191
:101B4000B0931701BE016F5F7F4F8EE090E00E945F
:101B5000F50C89819A819093130180931201BE0143
:101B60006F5F7F4F80E190E00E94F50C89819A8140
:101B70009093110180931001BE016F5F7F4F82E14E
:101B800090E00E943D0D89819A81AB81BC81809358
:101B9000200190932101A0932201B0932301BE0163
:101BA0006F5F7F4F86E190E00E943D0D89819A81B1
:101BB000AB81BC8180930C0190930D01A0930E0129
:101BC000B0930F01BE016F5F7F4F8AE190E00E94EA
:101BD0003D0D89819A81AB81BC81809308019093EE
:101BE0000901A0930A01B0930B010F900F900F9081
:101BF0000F90DF91CF9108959F92AF92BF92CF92B5
:101C0000DF92EF92FF920F931F93CF93DF93CDB7A5
:101C1000DEB728970FB6F894DEBF0FBECDBF6C01BC
:101C20004D835E836F837887BE016F5F7F4F0E9415
:101C30003D0D2D813E814F81588569817A818B814F
:101C40009C810E94F1248823D1F07E0185E0E80E7A
:101C5000F11C10E000E0F70191907F015601A00E09
:101C6000B11EC5010E941826981621F0692DC501E4
:101C70000E9420260F5F1F4F0430110561F7289640
:101C80000FB6F894DEBF0FBECDBFDF91CF911F918D
:101C90000F91FF90EF90DF90CF90BF90AF909F900B
:101CA000089565EA90E080E00E94202640911C01A2
:101CB00050911D0160911E0170911F0182E090E022
:101CC0000E94FC0D409118015091190160911A0178
:101CD00070911B0186E090E00E94FC0D4091140180
:101CE0005091150160911601709117018AE090E002
:101CF0000E94FC0D60911201709113018EE090E042
:101D00000E94090D609110017091110180E190E035
:101D10000E94090D40912001509121016091220102
:101D20007091230182E190E00E94FC0D40910C0132
:101D300050910D0160910E0170910F0186E190E0CC
:101D40000E94FC0D409108015091090160910A0127
:101D500070910B018AE190E00C94FC0D90E080E022
:101D60000E94182691E0853A09F090E0892F0895A5
:101D70000F931F93CF93DF93CDB7DEB765970FB661
:101D8000F894DEBF0FBECDBF8B01682F80E00E94AC
:101D9000C50A85E1EDE8F1E0DE01119601900D92B2
:101DA0008A95E1F744E150E0B801CE0101960E9426
:101DB000BB20CE0101960E942D0B65960FB6F894BC
:101DC000DEBF0FBECDBFDF91CF911F910F91089560
:101DD0000F931F93CF93DF93CDB7DEB765970FB601
:101DE000F894DEBF0FBECDBF8C0164E173E081E0EB
:101DF0000E94B80E62E080E00E94C50A44E150E013
:101E0000B8018E010F5F1F4FC8010E94BB201D8AC1
:101E1000F80101900020E9F7319780E29F01201B33
:101E2000310B2431310514F48193F8CF1D8AC80198
:101E30000E942D0B6CED75E080E090E00E94F106B1
:101E40006FEF72E081E00E94B80E6AEE72E082E00D
:101E50000E94B80E62EE72E083E00E94B80E63E06A
:101E600087E00E94C50A0E947F0C65960FB6F89421
:101E7000DEBF0FBECDBFDF91CF911F910F910895AF
:101E80000E94080B6DEC72E080E00E94B80E68EBD7
:101E900072E081E00E94B80E63EA72E082E00E9484
:101EA000B80E6EE872E083E00C94B80E0E94080B46
:101EB00080917A0290917B028330910509F44CC0A5
:101EC00034F48130910559F00297E9F00895843097
:101ED000910509F46AC0059709F479C0089569E786
:101EE00072E080E00E94B80E66E672E081E00E9437
:101EF000B80E61E572E082E00E94B80E69E472E01B
:101F000083E00C94B80E64E372E080E00E94B80EA7
:101F10006FE172E081E00E94B80E62E080E00E9412
:101F2000C50A89E192E00E94130B20E030E040E80E
:101F30005FE360911C0170911D0180911E019091E1
:101F40001F010E94C0260E94AC0B87E192E00E9414
:101F5000130B6FE072E0D4CF6AEF71E080E00E9473
:101F6000B80E68EE71E081E00E94B80E62E080E099
:101F70000E94C50A82EE91E00E94130B20E030E03F
:101F800040E85FE360911C0170911D0180911E018A
:101F900090911F010E94C1260E94AC0B80EE91E03F
:101FA0000E94130B68ED71E0ABCF63EC71E080E051
:101FB0000E94B80E6EEA71E081E00E94B80E6CE9F2
:101FC00071E082E00E94B80E64E971E099CF6FE79A
:101FD00071E080E00E94B80E6AE671E081E00E9444
:101FE000B80E65E571E082E00E94B80E6DE471E024
:101FF00087CF10929F0210929E020E9476090E9443
:10200000080B69E371E080E00E94B80E65E271E0C0
:1020100081E00E94B80E63E171E082E00E94B80E98
:102020000E94AE0E6EEE70E0811102C063E071E0BE
:1020300083E00C94B80E0E94080B68ED70E080E01D
:102040000E94B80E63EC70E081E00E94B80E65EB70
:1020500070E082E00E94B80E63EA70E083E00E94C4
:10206000B80E88E790E00C946309FF920F931F93DA
:10207000CF93DF9300D0CDB7DEB7F82E80ED8F0D74
:102080008A30A0F500914D0310914E0305301105E3
:1020900008F049C0F9821A820F5F1F4FC8010E94E1
:1020A000510C882399F02091490330914A03809183
:1020B0004D0390914E03BE016F5F7F4F820F931FC0
:1020C0000E94D72910934E0300934D0380914D0336
:1020D00063E08A5F0E94C50A8F2D0F900F90DF91F9
:1020E000CF911F910F91FF900C94FF0A8AE2F81292
:1020F0001AC080914D0390914E030097A1F0019773
:10210000E0914903F0914A03E80FF91F90934E03C1
:1021100080934D03108280914D0363E0895F0E949C
:10212000C50A80E2DACF0F900F90DF91CF911F9117
:102130000F91FF9008951F920F920FB60F921124E6
:102140002F933F934F935F936F937F938F939F93BF
:10215000AF93BF93EF93FF9380EA92E00E9407054D
:10216000FF91EF91BF91AF919F918F917F916F916F
:102170005F914F913F912F910F900FBE0F901F9045
:1021800018951F920F920FB60F9211242F938F93D1
:102190009F93EF93FF93E091B002F091B1028081A1
:1021A000E091B602F091B70282FD1BC09081809150
:1021B000B9028F5F8F732091BA02821741F0E091CC
:1021C000B902F0E0E056FD4F958F8093B902FF9180
:1021D000EF919F918F912F910F900FBE0F901F90B5
:1021E00018958081F4CF1F920F920FB60F92112491
:1021F0002F933F938F939F93AF93BF9380915502FB
:1022000090915602A0915702B09158023091540219
:1022100023E0230F2D3758F50196A11DB11D209302
:1022200054028093550290935602A0935702B093A4
:1022300058028091590290915A02A0915B02B0918C
:102240005C020196A11DB11D8093590290935A0220
:10225000A0935B02B0935C02BF91AF919F918F916D
:102260003F912F910F900FBE0F901F90189526E869
:10227000230F0296A11DB11DD2CF1F920F920FB650
:102280000F9211242F933F934F935F936F937F93FC
:102290008F939F93AF93BF93EF93FF938091B90078
:1022A000887F803609F44AC0F0F5883209F4A7C067
:1022B00018F5803109F49BC0B8F4882309F4F9C0FB
:1022C000883009F494C0FF91EF91BF91AF919F9135
:1022D0008F917F916F915F914F913F912F910F90CF
:1022E0000FBE0F901F901895883109F488C0803276
:1022F00051F780932A0214C0803409F49DC040F441
:102300008033B9F38833F9F680932A0285ECB0C0A4
:10231000803509F485C0883509F496C0883499F66B
:102320000E94BD0CD0CF883909F48CC038F58837AD
:1023300029F050F4883611F0803729F683E0809335
:102340002C021092050257C0883809F47BC08039EE
:1023500019F0803809F0B7CF80910502803208F07B
:1023600071C0E091050281E08E0F8093050280919B
:10237000BB00F0E0EB51FE4F80833DC0803B39F065
:10238000E0F4803A09F479C0883A09F09CCF84E0FF
:1023900080932C021092E4011092E301E0915F021D
:1023A000F091600209958091E30181110FC081E0F5
:1023B0008093E3011092C30109C0803C09F4A6CFC9
:1023C000883C09F4A3CF883B09F07DCFE091E4017C
:1023D00081E08E0F8093E401F0E0ED53FE4F8081A9
:1023E0008093BB009091E4018091E30129C080912A
:1023F00007028093BB0085EC8093BC0064CF909172
:10240000290280912802981758F5E091290281E06D
:102410008E0F80932902F0E0E85FFD4F8081E9CFC5
:10242000E091290281E08E0F809329028091BB0008
:10243000F0E0E85FFD4F80839091290280912802AF
:102440009817C8F285E8D8CFE091290281E08E0F75
:10245000809329028091BB00F0E0E85FFD4F80830C
:1024600080912B0281115CCF81E08093060284EA87
:102470008093BC0010922C0226CF85EC8093BC0088
:1024800010922C0280910502803230F4E091050216
:10249000F0E0EB51FE4F10826091050270E0E09198
:1024A0005D02F0915E0285EE91E0099510920502C1
:1024B0000ACF10922A0234CF1092A3021092A202E5
:1024C00088EE93E0A0E0B0E08093A4029093A50290
:1024D000A093A602B093A7022BE431E03093A102AF
:1024E0002093A00225EC30E03093AD022093AC02A3
:1024F00024EC30E03093AF022093AE0220EC30E0C9
:102500003093B1022093B00221EC30E03093B3025B
:102510002093B20222EC30E03093B5022093B40253
:1025200026EC30E03093B7022093B6021092B90245
:102530001092BA021092BB021092BC021092400399
:1025400010923F038093410390934203A09343036F
:10255000B09344038DE591E090933E0380933D0357
:102560001092C1031092C00389E791E09093BF03DA
:102570008093BE0387E28093C20384E18093C70304
:1025800084E08093C8031092C90310925103109203
:10259000550310925403109256038FE691E09093E6
:1025A000500380934F03EBE6F3E010821482138212
:1025B0001582369683E0E73AF807B9F789E291E0A9
:1025C0009093B2038093B10386E291E09093B403B9
:1025D0008093B30384E08093B50383E08093B603D4
:1025E0008DE291E09093B0038093AF038AE090E096
:1025F0009093B8038093B70384EF91E09093BA036C
:102600008093B9031092BD031092BC031092AB03E8
:102610001092AC031092AD031092AE031092BB0364
:1026200010924A031092490310924C0310924B03EC
:1026300010924E0310924D0390E080E00E94510CE6
:102640002091490330914A03811113C021153105AE
:1026500019F0C9010E94882810924A031092490378
:1026600010924E0310924D0310924C0310924B03A4
:10267000089510924E0310924D0361EA71E0C90172
:102680000C94D729CF93DF93CDB7DEB729970FB638
:10269000F894DEBF0FBECDBF789484B5826084BD50
:1026A00084B5816084BD85B5826085BD85B5816056
:1026B00085BD80916E00816080936E0010928100D4
:1026C000809181008260809381008091810081608F
:1026D0008093810080918000816080938000809150
:1026E000B10084608093B1008091B00081608093DC
:1026F000B00080917A00846080937A0080917A00A3
:10270000826080937A0080917A00816080937A0061
:1027100080917A00806880937A001092C100E091E5
:10272000B002F091B10282E08083E091AC02F091BE
:10273000AD021082E091AE02F091AF028FEC808387
:102740001092B802E091B402F091B50286E0808365
:10275000E091B202F091B302808180618083E091C8
:10276000B202F091B302808188608083E091B2026E
:10277000F091B302808180688083E091B202F09191
:10278000B30280818F7D808361E089E00E941D0615
:1027900061E088E00E941D0661E086E00E941D065F
:1027A00061E080E10E941D0661E081E10E941D065A
:1027B0000E947609109264021092630210926202E3
:1027C000109261020E94B40787E894E0909360023F
:1027D00080935F0288E894E090935E0280935D02AC
:1027E0001092C3038091C803823018F098E0909350
:1027F000C3038093C60362E370E080E090E00E9430
:10280000F1066091C9038EEB93E00E94790868EEAF
:1028100073E080E090E00E94F10660E38EEB93E0CD
:102820000E94950A0BE416E4C8010197F1F760E3F2
:102830008EEB93E00E94950AC8010197F1F760E3DF
:102840008EEB93E00E94950A83E592E00197F1F701
:1028500060E28EEB93E00E94950A6091C303606290
:1028600040E08EEB93E00E94AE0A84E08093C403C4
:1028700040E06CE08EEB93E00E94AE0A0E94080BF1
:1028800082E08093C50340E066E08EEB93E00E9417
:10289000AE0A40E062E08EEB93E00E94AE0A8BE36A
:1028A0009FE10197F1F788E08093C90360E08EEB28
:1028B00093E00E94790840E060E48EEB93E00E9490
:1028C000AE0A00E011E0D8016D918D018EEB93E02E
:1028D0000E94F90AB1E008301B07A9F70E94AE0E6A
:1028E000882309F45BC00E94630D0E941B1068EEF0
:1028F00073E080E090E00E94F1060E94080B6AEB12
:1029000073E080E00E94B80E67EA73E081E00E9405
:10291000B80E63E973E082E00E94B80E63E873E0EA
:1029200083E00E94B80E60ED77E080E090E00E94C6
:10293000F1060E94F90FFE0131961F0181E080939C
:10294000BB030E9424070091AB031091AC032091BC
:10295000AD033091AE03AB01BC01401B510B620BC8
:10296000730B8091B7039091B803B0E0A0E0841797
:102970009507A607B70708F016C110E08091B503C8
:10298000181798F4E091B103F091B203E10FF11D33
:1029900062E080810E941D061F5FF0CF0E941B1025
:1029A00068EB7BE080E090E0C2CF912C8091B60391
:1029B000981608F063C0E92CF12CE091B303F09174
:1029C000B403EE0DFF1D61E080810E941D06E091C1
:1029D000B303F091B403EE0DFF1D60E080810E940F
:1029E000EB0581E090E0A0E0B0E0092C04C0880F86
:1029F000991FAA1FBB1F0A94D2F75C016C01C094F7
:102A0000D094812C8091B503881608F5082D10E02C
:102A1000E091B103F091B203E00FF11F80810E94B9
:102A2000BF050C5F1F4F000F111FF801E15BFC4F4A
:102A3000892B41F4808191818A299B29918380830C
:102A40008394E0CF808191818C219D21F7CFE0910B
:102A5000B303F091B403EE0DFF1D61E080810E948D
:102A6000EB058091B3039091B403E80EF91E60E08A
:102A7000D7018C910E941D06939498CF4FE4E42EC9
:102A800043E0F42E6701F601878D90A1892B31F484
:102A9000148E8FEF9FEF968F858F11A296E0C90E4F
:102AA000D11CABE8CA16A3E0DA0669F7B12C36E010
:102AB000932E8091B503B81608F051C0A12C0B2DB0
:102AC00010E0000F111F095A1C4F2091B603A216E7
:102AD00008F043C0F801608171810A2C02C076952C
:102AE00067950A94E2F7B29E900111242A0D311DD8
:102AF000EFE4F3E080E0458D568D2417350711F49F
:102B00000C9458208F5F36968A30A9F760FF23C057
:102B1000EFE4F3E090E080E0448D411117C0E091D4
:102B2000AF03F091B003E20FF31F4081989EF001D4
:102B3000999EF00D1124E15BFC4F448F368F258F59
:102B400010A2178E61E00E94300705C001963696EC
:102B50008A30910509F7A394B8CFB394AACF10E0B7
:102B6000D70191968C918111182FB6E0EB0EF11CD4
:102B7000CE14DF04A9F70E9424076093AB0370937F
:102B8000AC038093AD039093AE03112361F0809169
:102B90007003882341F080916E0390916F03109130
:102BA0006B03019719F01092BB0310E08FE00E94B5
:102BB000BA06BC01990F880B990B0E94F82420E0FB
:102BC00030E04AEF53E40E94572520E030EC4FE715
:102BD00054E40E942D274B015C0180929402909254
:102BE0009502A0929602B09297028EE00E94BA06D9
:102BF0006C019093820280938102E0909E02F0909B
:102C00009F02E3E0EE16F10409F03CC280918F02CE
:102C1000882309F437C2809112019091130121E0B9
:102C2000C816D9060CF020E020938E0220911801DE
:102C30003091190140911A0150911B01C501B40155
:102C40000E94F124881F8827881F8093660201E074
:102C500020911401309115014091160150911701F6
:102C6000C501B4010E94D52718160CF000E00093AE
:102C7000650280917C02882309F407C281E0F4E6B2
:102C8000CF16D1040CF080E08093850210926B0285
:102C900022E0E216F10409F0FBC180919902811152
:102CA00012C2A501940160910C0170910D018091F7
:102CB0000E0190910F010E94D527181674F0A501FE
:102CC0009401609108017091090180910A0190912D
:102CD0000B010E94F12487FFF6C181E080936B0213
:102CE0000E9424078090670290906802A090690279
:102CF000B0906A02681979098A099B0961327340A8
:102D00008105910570F086E990E00E9463090E94B8
:102D1000240760936702709368028093690290931E
:102D20006A02B1E0EB16F10409F439C308F4D0C12A
:102D3000F2E0EF16F10409F491C423E0E216F10485
:102D400009F4C4C60E94240700919A0210919B02C4
:102D500020919C0230919D02601B710B820B930BA2
:102D6000653F71408105910508F47FC1809199020A
:102D7000811171C180919E0290919F02019709F08B
:102D800077C080919802882309F472C061E084E0E2
:102D90000E94C50A8CE698E00E94130B61E084E073
:102DA0000E94C50A80912401909125010E947E0B0A
:102DB00085E20E94FF0A61E08DE00E94C50A86E676
:102DC00098E00E94130B61E08DE00E94C50A6091BB
:102DD00094027091950280919602909197020E94C0
:102DE000AC0B60E08EEB93E00E94F90AC090900279
:102DF000D0909102E0909202F0909302C701B60148
:102E00002CE330E040E050E00E948F269F938F93A8
:102E10007F936F93C701B60120E13EE040E050E0B0
:102E20000E948F26122F032FF42EE52E2CE330E084
:102E300040E050E00E948F265F934F933F932F9383
:102E4000EF92FF920F931F9384E598E09F938F93E7
:102E50003F922F920E94DF2062E086E00E94C50A26
:102E6000C1010E942D0B0FB6F894DEBF0FBECDBF7F
:102E700080919E0290919F02029709F06AC0809112
:102E80009902811166C061E084E00E94C50A8EE467
:102E900098E00E94130B61E084E00E94C50A6091F3
:102EA00094027091950280919602909197020E94EF
:102EB000AC0B60E08EEB93E00E94F90A61E08EE0DB
:102EC0000E94C50A88E498E00E94130B61E08EE03E
:102ED0000E94C50A60912001709121018091220118
:102EE000909123010E94AC0B60E08EEB93E00E9476
:102EF000F90A62E089E00E94C50A8DE398E00E9429
:102F0000130B62E089E00E94C50A80902001909036
:102F10002101A0902201B0902301C0909402D09092
:102F20009502E0909602F09097022AE939E949E982
:102F30005EE3C501B4010E94C026A70196010E946C
:102F4000D527181614F00C94AC1F84E398E00E9467
:102F5000130B80919E0290919F02039709F07BC012
:102F600080918F02882309F476C0809199028111A3
:102F700072C061E00E94C50A8DE098E00E94130BC8
:102F800062E080E00E94C50A88EF97E00E94130B80
:102F900063E080E00E94C50A83EE97E00E94130B75
:102FA00061E080E00E94C50A8DED97E00E94130B5E
:102FB00080918E02882309F4E7C780ED97E00E9494
:102FC000130B89ED97E00E94130B609194027091AE
:102FD000950280919602909197020E94AC0B60E05E
:102FE0008EEB93E00E94F90A83ED97E00E94130BA9
:102FF00060911C0170911D0180911E0190911F0133
:103000000E94AC0B60E08EEB93E00E94F90A62E054
:1030100080E00E94C50A80918C0290918D028230DE
:10302000910511F40C94202008F0B1C7009711F419
:103030000C943D20019709F4B4C763E080E00E943E
:10304000C50A80918502882311F40C9440208FE4F6
:1030500097E00E94130B0E94240760939A027093DA
:103060009B0280939C0290939D0280E090E0892BCC
:1030700009F464CC0E94F304882309F45CCC0E9418
:10308000000059CC80E991E0CACD10928502FECDB6
:1030900041E0E416F10411F00C945B208091980259
:1030A000882389F020E030E048E152E4C501B40112
:1030B0000E94D52718163CF481E080936B02809122
:1030C0006B0281110DCE60E086E00E94EB0529CEF7
:1030D000112309F437CE113371F501E010E010939C
:1030E0009F0200939E021092980284E690E09093D3
:1030F0002501809324010E947F0C81E08093990236
:1031000010937902009378020E94080B60E074E04B
:1031100080E00E94B80E6DEE73E081E00E94B80E70
:1031200068ED73E082E00E94B80E60ED73E083E02A
:103130000E94B80E07CE123339F50E94760982E05C
:1031400090E090939F0280939E0281E08093990289
:1031500081E090E090937902809378020E947F0C46
:103160000E94080B62E474E080E00E94B80E60E305
:1031700074E081E00E94B80E6DE174E082E00E948C
:10318000B80E65E174E0D3CF133309F07FC083E05C
:1031900090E090939F0280939E021092840210927E
:1031A00083021092850210927C0210928B02109280
:1031B0008A020E94240760937D0270937E028093AE
:1031C0007F029093800210928602109287021092E2
:1031D00088021092890210926C0210926D02109275
:1031E0006E0210926F020E94AE0E8823A1F00E9420
:1031F000630D81E080938F0210928D0210928C02F9
:103200000E94400F68EE73E080E090E00E94F106BB
:103210000E94990997CD81E090E090937B02809382
:103220007A0210928F0280E090E0A2E1B2E48093F3
:103230001C0190931D01A0931E01B0931F0180E01B
:1032400090E0AEE0B2E48093180190931901A0934E
:103250001A01B0931B0180E090E0A6E1B2E48093F4
:10326000140190931501A0931601B093170180E902
:1032700091E0909313018093120188E592E090937E
:103280001101809310010E94560F5CCD193309F093
:1032900059CD60E090E080E00E94202680E090E040
:1032A000A2E1B2E480931C0190931D01A0931E0142
:1032B000B0931F0180E090E0AEE0B2E4809318018B
:1032C00090931901A0931A01B0931B0180E090E044
:1032D000A6E1B2E48093140190931501A093160126
:1032E000B093170180E991E090931301809312014C
:1032F00088E592E0909311018093100180E090E0C6
:10330000A2E1B2E48093200190932101A0932201D5
:10331000B093230180E090E0AEE0B2E480930C0132
:1033200090930D01A0930E01B0930F0180E090E007
:10333000A6E1B2E48093080190930901A0930A01E9
:10334000B0930B010E94080B6EE874E080E00E94CD
:10335000B80E6BE774E081E00E94B80E6AE674E094
:1033600082E00E94B80E67E574E083E00E94B80E28
:1033700088EC90E00E94630968EC70E080E090E0E7
:103380000E94F10688EC90E00E94630960ED77E00E
:1033900080E090E00E94F1060E94F90FD3CC112347
:1033A00049F0809199028111B7C0133209F055C0DC
:1033B0000E94F90F80919802882309F4C3CC0E94DF
:1033C00024070091740210917502209176023091C9
:1033D0007702601B710B820B930B28EE33E040E009
:1033E00050E00E948F268091700290917102A0910E
:1033F0007202B0917302281739074A075B0708F475
:1034000020C1109298020E94740A0E94080B6BE877
:1034100075E080E00E94B80E67E775E081E00E94E9
:10342000B80E62E675E082E00E94B80E65E575E0D0
:1034300083E00E94B80E05E010E088EC90E00E9466
:10344000630968EC70E080E090E00E94F1060150B2
:10345000110999F71092990275CC193389F480916A
:103460002401909125018B35910514F08AE590E0B7
:103470000A9690932501809324010E94740A9ACFA2
:10348000173359F4809124019091250184319105DD
:1034900014F484E190E00A97ECCF103309F08ACF5E
:1034A0008091980291E0892780939802882349F1BE
:1034B0000E9424076B017C012091700230917102FF
:1034C000409172025091730280919002909191020A
:1034D000A0919202B0919302281B390B4A0B5B0B0F
:1034E000A8EEB3E00E944D26C61AD70AE80AF90AE8
:1034F000C0927402D0927502E0927602F092770246
:10350000BCCF70E060E080E10E945D0670E060E0AA
:1035100081E10E945D064ECF812F0E94351013324B
:1035200009F048CF8091780290917902813091051D
:10353000A9F480914D0390914E03892B09F43ACF61
:103540000E94B10C9B01215031092831310508F44A
:1035500044C08BEF94E00E94E80E2CCF029709F054
:1035600029CF80914D0390914E03892B09F422CFEE
:103570000E94B10C9B012A50310987EE94E02B3553
:10358000310548F770932501609324010E947F0C58
:103590001092990281E0809398020E942407609320
:1035A00074027093750280937602909377020E9462
:1035B000740A0E94080B62ED74E080E00E94B80E6D
:1035C00067EC74E081E00E94B80E67EB74E082E083
:1035D0000E94B80E63EA74E030C0DB0120E13EE0F7
:1035E0000E94DF2760939002709391028093920271
:1035F00090939302609370027093710280937202B1
:10360000909373020E947F0C82E090E09093790285
:10361000809378020E94080B60E475E080E00E94CD
:10362000B80E6CE275E081E00E94B80E67E175E0CB
:1036300082E00E94B80E6FE075E083E00E94B80E51
:10364000B9CE821B930BA40BB50B80939002909381
:103650009102A0939202B093930274CB112341F094
:1036600080919902811157C0133251F40E94F90FD1
:1036700080919902882309F47FC170E060E0D3C192
:10368000193339F520E030E040E05FE3609120013C
:103690007091210180912201909123010E94C12605
:1036A0006B017C0120E030E04AE152E40E94D52722
:1036B000181634F4C12CD12C9AE1E92E92E4F92E9B
:1036C000C0922001D0922101E0922201F0922301C8
:1036D000CFCF173309F050C120E030E040E05FE386
:1036E000609120017091210180912201909123012C
:1036F0000E94C0266B017C0120E030E04CE052E4E7
:103700000E94F12487FFDCCFC12CD12C8CE0E82E65
:1037100082E4F82ED5CF812F0E943510133209F0A4
:10372000ACCF809178029091790281309105C1F4FB
:1037300080914D0390914E03892B09F49ECF0E94F6
:10374000A50C6B017C0120E030E04CE052E40E94CB
:10375000D52787FF60C089E496E00E94E80E88CFF5
:103760008230910509F0BAC080914D0390914E03CB
:10377000892B09F482CF0E94A50C6B017C0120E00B
:1037800030E040EF51E40E94D52787FDEFC0A7014C
:103790009601609120017091210180912201909108
:1037A00023010E94D52718160CF0E0C0C0920C012E
:1037B000D0920D01E0920E01F0920F010E947F0C59
:1037C00083E090E090937902809378020E94080B46
:1037D00064E376E080E00E94B80E6FE176E081E07D
:1037E0000E94B80E62E080E00E94C50A81E196E086
:1037F0000E94130B609108017091090180910A01E8
:1038000090910B010E94AC0B8FE096E00E94130B8D
:1038100067E076E05FC020E030E04AE152E4C701B3
:10382000B6010E94F12418160CF495CFC092200125
:10383000D0922101E0922201F092230120E030E0B9
:1038400040E85FE3C701B6010E94C02660930C0107
:1038500070930D0180930E0190930F0120E030E0F2
:1038600040E85FE3C701B6010E94C12660930801EA
:103870007093090180930A0190930B010E947F0CC1
:1038800082E090E090937902809378020E94080B86
:1038900068E876E080E00E94B80E63E776E081E0B9
:1038A0000E94B80E62E080E00E94C50A85E696E0BC
:1038B0000E94130B60910C0170910D0180910E011B
:1038C00090910F010E94AC0B83E696E00E94130BCF
:1038D0006BE576E083E00E94B80ECACE039709F04C
:1038E000CCCE80914D0390914E03892B09F4C5CE27
:1038F0000E94A50C6B017C01AC019B016091200131
:103900007091210180912201909123010E94F12464
:1039100087FF2FC020E030E048E252E4C701B60143
:103920000E94F12418162CF1C0920801D0920901CE
:10393000E0920A01F0920B010E947F0C1092990212
:103940000E94510E0E94080B68EC75E080E00E9416
:10395000B80E6DEB75E081E00E94B80E64EB75E087
:1039600082E00E94B80E60EA75E0B4CF82EF95E085
:10397000F4CE8DED95E0F1CE4090200150902101E4
:1039800060902201709023018090940290909502A3
:10399000A0909602B0909702A5019401C301B201D4
:1039A0000E94C0266B017C012AE939E949E95EE3FE
:1039B000C301B2010E94C0269B01AC01C501B40144
:1039C0000E94F12487FF35C020E030E040E251E45E
:1039D000C701B6010E9457250E949F279B01770FC0
:1039E000440B550B2350310941095109AFEAB0E0AE
:1039F0000E944D262BE130E040E050E00E942E2650
:103A0000203B9FEF3907490759070CF436CE6FEF7B
:103A100070E0203B3105410551052CF4205B3F4F00
:103A20004F4F5F4FB90189E00E945D0670E060E092
:103A300049C02AE939E949E95EE3C301B2010E94BC
:103A4000C1269B01AC01C501B4010E94D5271816FF
:103A50000CF013CEC701B601905820E030E040E2F0
:103A600051E40E9457250E949F279B01770F440B2A
:103A7000550B2350310941095109A8E7B0E00E94D4
:103A80004D2621E130E040E050E00E942E2610E07B
:103A900000E0203BAFEF3A074A075A076CF00FEF00
:103AA00010E0203B31054105510534F489019A01AC
:103AB000005B1F4F2F4F3F4F70E060E089E00E9496
:103AC0005D06B80188E00E945D063CC9112381F0C3
:103AD00080918F02811148C1133281F480914D038E
:103AE00090914E03892B51F40E9476090E94F90FA0
:103AF00080918F02882309F425C94CC1812F0E942F
:103B00003510133209F01EC980914D0390914E0378
:103B1000892B09F417C980917A0290917B02833036
:103B2000910509F4DEC074F58130910509F4A8C04F
:103B30000297F1F60E94A50C6B017C0120E030E0B9
:103B400040EF51E40E94D52787FDC8C0A701960128
:103B500060911C0170911D0180911E0190911F01C7
:103B60000E94D52718160CF0B9C0C0921801D09247
:103B70001901E0921A01F0921B010E947F0C83E070
:103B800090E0A0C08430910509F4D7C0059709F0F2
:103B9000AFCF0E94B10C2091120130911301261772
:103BA00037070CF0DEC06115E4E07E070CF0D9C0E9
:103BB00070931101609310010E947F0C11E010932B
:103BC0008F0210927B0210927A020E94510E109383
:103BD00099020E94080B6EEC76E080E00E94B80E1D
:103BE00061E080E00E94C50A89EC96E00E94130B18
:103BF00060911C0170911D0180911E0190911F0127
:103C00000E94AC0B84EC96E00E94130B60911801AB
:103C10007091190180911A0190911B010E94AC0BC7
:103C20008FEB96E00E94130B6091140170911501C7
:103C300080911601909117010E94AC0B62E080E028
:103C40000E94C50A87EB96E00E94130B8091120137
:103C5000909113010E947E0B82EB96E00E94130B61
:103C600080911001909111010E947E0B80EB96E0F3
:103C70000E94130B6DE976E083E00E94B80E38CF06
:103C80000E94A50C6B017C0120E030E04CE052E486
:103C90000E94D52787FD1DC020E030E04AE152E4B4
:103CA000C701B6010E94F12418169CF0C0921C01B5
:103CB000D0921D01E0921E01F0921F010E947F0C24
:103CC00082E090E090937B0280937A020E94560FEC
:103CD0000FCF8AE297E00E94E80E0ACF88E197E0D2
:103CE000FACF0E94A50C6B017C01AC019B01609195
:103CF0001C0170911D0180911E0190911F010E9475
:103D0000F12487FF17C020E030E048E252E4C70109
:103D1000B6010E94F12418166CF0C0921401D092E2
:103D20001501E0921601F09217010E947F0C84E0C9
:103D300090E0C8CF86E097E0CECF0E94B10C9B0107
:103D4000225331092F3E324048F47093130160939F
:103D500012010E947F0C85E090E0B4CF87EF96E0DF
:103D6000BACF83EE96E0B7CF80919902882379F09D
:103D7000133281F4109299020E94400F60E273E0C6
:103D800080E090E00E94F1060E949909B1CE1332C2
:103D900009F4AACE8091990281110C94A2160E9476
:103DA000240700917D0210917E0220917F023091C4
:103DB0008002601B710B820B930B68387341810585
:103DC000910560F00E9499090E94240760937D028A
:103DD00070937E0280937F029093800280917C0298
:103DE00010E000E0882311F00FEF10E0B80180E14F
:103DF0000E945D06B80181E10E945D0680918B0200
:103E0000882309F448C0C0901C01D0901D01E090A7
:103E10001E01F0901F018090940290909502A09056
:103E20009602B09097022AE939E949E95EE3C701B1
:103E3000B6010E94C0269B01AC01C501B4010E94DD
:103E4000F12487FF1ACCA5019401C701B6010E9495
:103E5000C02620E030E040E251E40E9457250E9455
:103E60009F279B01770F440B550B235031094109C4
:103E70005109AFEAB0E00E944D262BE130E040E06E
:103E800050E00E942E26203B8FEF38074807580746
:103E90000CF4F3CBBCCD80918A02882309F4EDCBDE
:103EA000C0909402D0909502E0909602F090970214
:103EB00080901C0190901D01A0901E01B0901F01E8
:103EC0002AE939E949E95EE3C501B4010E94C12646
:103ED0009B01AC01C701B6010E94D5271816CCF58D
:103EE000A5019401C701B6010E94C02620E030E080
:103EF00040E251E40E9457250E949F279B01770FC3
:103F0000440B550B2350310941095109A8E7B0E092
:103F10000E944D2621E130E040E050E00E942E2634
:103F2000203B9FEF3907490759079CF06FEF70E07E
:103F3000203B3105410551052CF4205B3F4F4F4F8D
:103F40005F4FB90188E00E945D0670E060E089E0A3
:103F5000BACD70E060E0F6CF2AE939E949E95EE3DD
:103F6000C501B4010E94C1269B01AC01C701B60185
:103F70000E94D527181624F48BE298E00C94A7171A
:103F800082E298E00C94A7178DEC97E018C8833074
:103F9000910509F465C0049709F04FC885E797E0DB
:103FA0004BC080918B028823D9F181EC97E00E946D
:103FB000130B609186027091870280918802909124
:103FC00089026115710581059105A1F120E13EE0AD
:103FD00040E050E00E948F26122F032FF42EE52E92
:103FE0002CE330E040E050E00E948F265F934F9337
:103FF0003F932F93EF92FF920F931F9382EA97E0E4
:104000009F938F933F922F920E94DF20C1010E94C5
:104010002D0B0FB6F894DEBF0FBECDBF0C941D184C
:1040200080918A02882319F085EB97E0C0CF8EEA51
:1040300097E0BDCF8CE997E00E94130B0C941D18FC
:1040400081E997E00E94130B6091180170911901AA
:1040500080911A0190911B010E94AC0B0C941D18C9
:1040600086E897E00E94130B60911401709115018E
:104070008091160190911701EFCF84E697E0DCCF95
:104080008AE497E00E94130B80918302909184024E
:104090000E947E0B83E497E00E94130B80918102C3
:1040A000909182020E947E0B8CE397E00C94291879
:1040B00061700C94A31593E0E916F10411F00C94CF
:1040C000631880918F028823D9F080919902811121
:1040D00017C020E030E048E052E4C501B4010E947E
:1040E000F12487FD0AC020E030E04EE152E4C50132
:1040F000B4010E94D52718161CF481E080936B024E
:104100008091850281110C945C180C945F18809149
:10411000490390914A03009711F00C948828089560
:10412000662777270C94DC221F93FC0199278827A8
:10413000BC01E89411911032E9F3193010F01E30EF
:10414000C8F31B3251F01D3249F4689406C00E9436
:10415000CA20610F711D811D911D119110531A30DC
:10416000B0F33EF490958095709561957F4F8F4F99
:104170009F4F1F910895FB01DC014150504048F0D2
:1041800005900D920020C9F701C01D92415050408A
:10419000E0F70895592F482F372F262F660F771FE6
:1041A000881F991F660F771F881F991F620F731F43
:1041B000841F951F660F771F881F991F0895AEE013
:1041C000B0E0E5EEF0E20C9466260D891E898EE0E3
:1041D0008C831A8309838FEF9FE79E838D83AE01C3
:1041E000475E5F4F6F89788DCE0101960E94022154
:1041F0002F813885020F131FF80110822E96E4E0FC
:104200000C948226ABE0B0E0E8E0F1E20C94582692
:104210007C013B018A01FC0117821682838181FFA8
:10422000C8C1CE0101965C01F7019381F30193FDB2
:10423000859193FF81913F01882309F453C1853211
:1042400039F493FD859193FF81913F01853229F4E3
:10425000B70190E00E946324E7CF912C212C312CF0
:10426000FFE1F31538F08B3211F190F4803209F14F
:10427000833229F137FC3CC020ED280F2A3050F55D
:1042800036FE20C08AE0989E200D1124922E06C092
:104290008D3291F0803371F7689430F8F30193FD1B
:1042A000859193FF81913F018111DACF21C06894FC
:1042B00031F8689432F8F2CF689433F8EFCF68940D
:1042C00034F8ECCFEAE02E9E200D1124222E6894C3
:1042D00035F8E4CF8E3229F436FC04C1689436F800
:1042E000DDCF8C3619F4689437F8D8CF8836B1F220
:1042F000982F9F7D95549330E0F08336A1F183375A
:10430000C1F1833509F063C02801F2E04F0E511C62
:10431000F801C080D180692D70E036FC02C06FEFDB
:104320007FEFC6010E944D244C01689437F882014A
:104330000AC00C5F1F4FFFE3F98388248394912CFC
:104340006501E89437F833FE2DC0522C8114910496
:1043500071F5552009F468CFB70180E290E00E9422
:1043600063245A94F6CFF801808189830E5F1F4F32
:10437000E4CF2801F2E04F0E511CF801C080D1803B
:10438000692D70E036FC02C06FEF7FEFC6010E941E
:1043900058244C018201D5CFB70180E290E00E9401
:1043A00063242A942814190409F0B0F7CECFF6013B
:1043B00037FC859137FE81916F01B70190E00E9433
:1043C000632451105A94F1E08F1A9108BFCF8436BC
:1043D00019F0893609F077C0F80137FE6BC06081AB
:1043E0007181828193810C5F1F4FF32DFF763F2EE9
:1043F00097FF09C090958095709561957F4F8F4F7D
:104400009F4F689437F82AE030E0A5010E9493247A
:10441000C82ECA188C2C432C36FE0CC0E89440F8E9
:10442000C91440F434FE05C032FC03C0F32DFE7EF7
:104430004F2E892C44FE95C0FE01EC0DF11D8081AC
:10444000803309F087C0242D297E422E842D887068
:10445000582E43FC95C040FE8FC09C2C821418F44B
:104460002C0C922C981844FE91C0B70180E390E088
:104470000E94632442FE09C088E790E041FE02C02A
:1044800088E590E0B7010E946324C91408F48AC04B
:10449000CA94D12C9FEFC91AD90ACA0CDB1CF601A9
:1044A00082916F01B70190E00E946324AC14BD04B7
:1044B000B1F74FCF60817181072E000C880B990BEB
:1044C0000E5F1F4F92CFD32CE894D4F82AE030E04F
:1044D000853739F1232D297FD22E8F3601F148F40B
:1044E0008835A9F0F701868197812B96E2E10C943B
:1044F0007426803749F08837A9F7D4FE02C0689443
:10450000D2F820E130E00DC06894D4F8F6CF34FE44
:1045100003C0822F8660D82E20E132E002C028E05E
:1045200030E0F801D7FE0FC06081718182819381F4
:104530000C5F1F4FA5010E949324C82ECA183D2C62
:10454000E89437F867CF6081718190E080E00E5F7A
:104550001F4FF0CF42FC02C0839478CF83948394A2
:1045600075CF842D867809F471CFF6CFB70180E23C
:1045700090E00E94632483948214C0F3512C73CF83
:10458000522C5818821408F46ECFF8CF842D8678F8
:1045900009F47BCF8BE241FE80E247FC8DE2B7015C
:1045A00090E071CFB70180E390E00E9463249A9479
:1045B0006CCF8FEF9FEF99CFB0E0A0E0E2EEF2E298
:1045C0000C945E265C017B016115710519F0DB011D
:1045D0008D939C9385010F5F1F4FF501D0818D2F27
:1045E00090E00E942C246C01892BB9F5DD32B9F5DD
:1045F0000F5F1F4FD5011196DC91C1E05801F1E02A
:10460000AF1AB10843E050E060E770E0C5010E94D6
:104610003524892B69F5680182E0C80ED11C45E07C
:1046200050E06BE670E0C6010E943524892B21F42E
:10463000680197E0C90ED11CE114F10419F0D7010B
:10464000CD92DC9260E070E080E89FEFC111FFC086
:1046500060E070E080E89FE7FAC05801BBCFDB3232
:1046600029F485010E5F1F4FF501D181C0E0C6CF4F
:1046700043E050E068E670E0C5010E943524892BD4
:10468000E9F0F80110E000E020E030E0A9015F016E
:10469000B0ED8B2E8D0E89E08815C8F19C2E6894A4
:1046A00091F88C2F8870C2FF16C0811102C00F5F75
:1046B0001F4F3196D501DC91C92DE9CFE114F104EA
:1046C00029F00E5F1F4FF7011183008360E070E057
:1046D00080EC9FE7BCC0882311F001501109A5E0D0
:1046E000B0E00E944D269B01AC01220F331F441FF6
:1046F000551F280D311D411D511D283999E93907D4
:10470000490799E15907A8F2C6609C2ED2CFAEEFB7
:104710008A1206C0C3FD3CC09C2E689493F8C9CF92
:10472000DF7DD534A9F580818D3239F4C061DF0198
:104730001296818162E070E006C0DF018B32C1F326
:10474000119661E070E080535D01A61AB70A8A30C5
:10475000F8F4E0E8CE16ECE0DE065CF4B601660F95
:10476000771F660F771FC60ED71ECC0CDD1CC80E38
:10477000D11C5D01FFEFAF1ABF0A8C9180538A30C4
:10478000A8F1C4FF03C0D194C194D1080C0D1D1D24
:10479000C1FF09C0E114F10431F081E0A81AB108A9
:1047A000D701AD92BC92CA01B9010E94F624C37030
:1047B000C33009F490584B015C0120E030E0A901BE
:1047C0000E94F124882309F440C0CFE9D0E017FF0C
:1047D00005C0119501951109C7E8D0E06E01B8E157
:1047E000CB1AD10880E2E82EF12C0FC0D501B1CF51
:1047F000FE0125913591459154910E191F09C5016E
:10480000B4010E9457254B015C01D501C4010E156E
:104810001F0574F72497F594E794CC16DD06A9F7E5
:104820008A2F880F8B2F881F8F3F49F020E030E0C0
:10483000A901C501B4010E94F124811106C082E2E0
:1048400090E09093CB038093CA03C501B401CDB728
:10485000DEB7ECE00C947A2691110C94C4258032DA
:1048600019F089508550C8F70895FB01DC014150CB
:10487000504088F08D9181341CF08B350CF4805EB3
:10488000659161341CF06B350CF4605E861B611120
:1048900071F3990B0895881BFCCFFC0105906150C2
:1048A00070400110D8F7809590958E0F9F1F089546
:1048B000FC016150704001900110D8F780959095EF
:1048C0008E0F9F1F08950F931F93CF93DF93182F81
:1048D000092FEB018B8181FD09C01FEF0FEF812FA5
:1048E000902FDF91CF911F910F91089582FF14C0F7
:1048F0002E813F818C819D81281739073CF4E88106
:10490000F981CF0101969983888310838E819F81DD
:1049100001969F838E83E3CFE885F985812F0995E2
:10492000892BA1F3DACFFA01AA27283051F12031DF
:1049300081F1E8946F936E7F6E5F7F4F8F4F9F4F33
:10494000AF4FB1E03ED0B4E03CD0670F781F891F75
:104950009A1FA11D680F791F8A1F911DA11D6A0F43
:10496000711D811D911DA11D20D009F468943F91F6
:104970002AE0269F11243019305D3193DEF6CF01F5
:104980000895462F4770405D4193B3E00FD0C9F7BB
:10499000F6CF462F4F70405D4A3318F0495D31FD28
:1049A0004052419302D0A9F7EACFB4E0A69597957B
:1049B000879577956795BA95C9F700976105710551
:1049C00008959B01AC010A2E06945795479537959B
:1049D0002795BA95C9F7620F731F841F951FA01DF5
:1049E00008950E94332508F481E00895E89409C0F1
:1049F00097FB3EF490958095709561957F4F8F4F12
:104A00009F4F9923A9F0F92F96E9BB279395F69527
:104A1000879577956795B795F111F8CFFAF4BB0FA5
:104A200011F460FF1BC06F5F7F4F8F4F9F4F16C009
:104A3000882311F096E911C0772321F09EE8872F93
:104A4000762F05C0662371F096E8862F70E060E04F
:104A50002AF09A95660F771F881FDAF7880F9695C8
:104A6000879597F90895990F0008550FAA0BE0E86C
:104A7000FEEF16161706E807F907C0F01216130620
:104A8000E407F50798F0621B730B840B950B39F460
:104A90000A2661F0232B242B252B21F408950A26C6
:104AA00009F4A140A6958FEF811D811D08950E94F4
:104AB0006A250C94DE250E94D02538F00E94D72567
:104AC00020F0952311F00C94C7250C94CD251124CA
:104AD0000C9412260E94EF2570F3959FC1F3950F59
:104AE00050E0551F629FF001729FBB27F00DB11D72
:104AF000639FAA27F00DB11DAA1F649F6627B00D02
:104B0000A11D661F829F2227B00DA11D621F739FEA
:104B1000B00DA11D621F839FA00D611D221F749FF8
:104B20003327A00D611D231F849F600D211D822F3F
:104B3000762F6A2F11249F5750409AF0F1F0882366
:104B40004AF0EE0FFF1FBB1F661F771F881F915093
:104B50005040A9F79E3F510580F00C94C7250C9456
:104B600012265F3FE4F3983ED4F3869577956795D8
:104B7000B795F795E7959F5FC1F7FE2B880F911DBD
:104B80009695879597F9089599278827089597F915
:104B90009F6780E870E060E008959FEF80EC0895E3
:104BA00000240A941616170618060906089500240C
:104BB0000A9412161306140605060895092E039486
:104BC000000C11F4882352F0BB0F40F4BF2B11F4FA
:104BD00060FF04C06F5F7F4F8F4F9F4F089557FD59
:104BE0009058440F551F59F05F3F71F04795880F5B
:104BF00097FB991F61F09F3F79F0879508951216F2
:104C000013061406551FF2CF4695F1DF08C016169D
:104C100017061806991FF1CF86957105610508944E
:104C20000895E894BB2766277727CB0197F9089565
:104C3000F999FECF92BD81BDF89A992780B5089564
:104C4000262FF999FECF1FBA92BD81BD20BD0FB6A8
:104C5000F894FA9AF99A0FBE01960895052E97FBDB
:104C60001EF400940E94452657FD07D00E948F260F
:104C700007FC03D04EF40C94452650954095309592
:104C800021953F4F4F4F5F4F0895909580957095B8
:104C900061957F4F8F4F9F4F08950E94B126A59F2A
:104CA000900DB49F900DA49F800D911D1124089527
:104CB0002F923F924F925F926F927F928F929F922C
:104CC000AF92BF92CF92DF92EF92FF920F931F931A
:104CD000CF93DF93CDB7DEB7CA1BDB0B0FB6F894CB
:104CE000DEBF0FBECDBF09942A88398848885F840B
:104CF0006E847D848C849B84AA84B984C884DF807C
:104D0000EE80FD800C811B81AA81B981CE0FD11D5F
:104D10000FB6F894DEBF0FBECDBFED010895A1E23E
:104D20001A2EAA1BBB1BFD010DC0AA1FBB1FEE1F25
:104D3000FF1FA217B307E407F50720F0A21BB30B70
:104D4000E40BF50B661F771F881F991F1A9469F7EC
:104D500060957095809590959B01AC01BD01CF0148
:104D60000895A29FB001B39FC001A39F700D811D44
:104D70001124911DB29F700D811D1124911D089564
:104D80005058BB27AA270E94D8260C94DE250E94E3
:104D9000D02538F00E94D72520F039F49F3F19F430
:104DA00026F40C94CD250EF4E095E7FB0C94C72572
:104DB000E92F0E94EF2558F3BA176207730784079B
:104DC000950720F079F4A6F50C9411260EF4E095E1
:104DD0000B2EBA2FA02D0B01B90190010C01CA01B5
:104DE000A0011124FF27591B99F0593F50F4503E60
:104DF00068F11A16F040A22F232F342F4427585F52
:104E0000F3CF469537952795A795F0405395C9F769
:104E10007EF41F16BA0B620B730B840BBAF0915021
:104E2000A1F0FF0FBB1F661F771F881FC2F70EC0C0
:104E3000BA0F621F731F841F48F487957795679593
:104E4000B795F7959E3F08F0B0CF9395880F08F07F
:104E50009927EE0F9795879508950E9441270C9406
:104E6000DE250E94D72558F00E94D02540F029F475
:104E70005F3F29F00C94C72551110C9412260C9415
:104E8000CD250E94EF2568F39923B1F3552391F3C3
:104E9000951B550BBB27AA2762177307840738F0A9
:104EA0009F5F5F4F220F331F441FAA1FA9F335D006
:104EB0000E2E3AF0E0E832D091505040E695001CBA
:104EC000CAF72BD0FE2F29D0660F771F881FBB1F74
:104ED000261737074807AB07B0E809F0BB0B802D52
:104EE000BF01FF2793585F4F3AF09E3F510578F07E
:104EF0000C94C7250C9412265F3FE4F3983ED4F33C
:104F0000869577956795B795F7959F5FC9F7880F51
:104F1000911D9695879597F90895E1E0660F771FA3
:104F2000881FBB1F621773078407BA0720F0621B34
:104F3000730B840BBA0BEE1F88F7E09508950E945F
:104F4000A6276894B1110C94122608950E94F725A3
:104F500088F09F5798F0B92F9927B751B0F0E1F03A
:104F6000660F771F881F991F1AF0BA95C9F714C0EA
:104F7000B13091F00E941126B1E008950C941126F1
:104F8000672F782F8827B85F39F0B93FCCF3869523
:104F900077956795B395D9F73EF490958095709580
:104FA00061957F4F8F4F9F4F08950E94332508F4DE
:104FB0008FEF08950E943325880B990B08950E9466
:104FC000B126B7FF0895821B930B0895EE0FFF1FC4
:104FD0000590F491E02D09940F931F93CF93DF93E5
:104FE0008230910510F482E090E0E091CE03F091E0
:104FF000CF0330E020E0B0E0A0E0309799F4211535
:10500000310509F44AC0281B390B24303105D8F585
:105010008A819B816115710589F1FB0193838283EC
:10502000FE0111C040815181028113814817590747
:10503000E0F04817590799F4109761F012960C9315
:10504000129713961C933296CF01DF91CF911F9147
:105050000F9108950093CE031093CF03F4CF211541
:10506000310551F04217530738F0A901DB019A01CD
:10507000BD01DF01F801C1CFEF01F9CF9093CF035C
:105080008093CE03CDCFFE01E20FF31F8193919366
:105090002250310939832883D7CF2091CC03309116
:1050A000CD03232B41F420913B0130913C013093FF
:1050B000CD032093CC032091390130913A01211581
:1050C000310541F42DB73EB740913D0150913E016D
:1050D000241B350BE091CC03F091CD03E217F307CD
:1050E000A0F42E1B3F0B2817390778F0AC014E5F58
:1050F0005F4F2417350748F04E0F5F1F5093CD03C5
:105100004093CC03819391939FCFF0E0E0E09CCF5C
:10511000CF93DF930097E9F0FC013297138212825C
:10512000A091CE03B091CF03ED0130E020E01097C5
:10513000A1F420813181820F931F2091CC03309103
:10514000CD032817390709F061C0F093CD03E09330
:10515000CC03DF91CF910895EA01CE17DF07E8F580
:105160004A815B819E0141155105B1F7E901FB833D
:10517000EA8349915991C40FD51FEC17FD0761F4DB
:10518000808191810296840F951FE901998388831C
:10519000828193819B838A83F0E0E0E012968D9177
:1051A0009C9113970097B9F52D913C911197CD01E2
:1051B0000296820F931F2091CC033091CD032817C4
:1051C000390739F6309751F51092CF031092CE037C
:1051D000B093CD03A093CC03BCCFD383C2834081D3
:1051E0005181840F951FC817D90761F44E5F5F4F37
:1051F00088819981480F591F518340838A819B81FF
:10520000938382832115310509F0B0CFF093CF034A
:10521000E093CE039ECFFD01DC01C0CF138212824A
:10522000D7CFB0E0A0E0E7E1F9E20C945A268C0178
:10523000009751F4CB010E94EC278C01C801CDB737
:10524000DEB7E0E10C947626FC01E60FF71F9C0127
:1052500022503109E217F30708F49DC0D901CD911E
:10526000DC911197C617D70798F0C530D10530F3F8
:10527000CE0104978617970708F3C61BD70B229712
:10528000C193D1936D937C93CF010E948828D6CF90
:105290005B01AC1ABD0A4C018C0E9D1EA091CE0381
:1052A000B091CF03512C412CF12CE12C109731F50A
:1052B0008091CC039091CD038815990509F05CC0CD
:1052C0004616570608F058C08091390190913A016E
:1052D000009741F48DB79EB740913D0150913E013A
:1052E000841B950BE817F90708F055C0F093CD0320
:1052F000E093CC03F90171836083A0CF8D919C91E1
:10530000119712966C90129713967C901397A8158C
:10531000B90559F56C0142E0C40ED11CCA14DB0476
:1053200020F1AC014A195B09DA011296159780F059
:105330006282738251834083D9016D937C93E1141F
:10534000F10471F0D7011396FC93EE93129776CF88
:1053500022968C0F9D1FF90191838083F301EFCF7B
:10536000F093CF03E093CE0369CF4816590608F4B3
:105370002C017D01D3019ACFCB010E94EC277C0147
:10538000009749F0AE01B8010E94CE29C8010E94E1
:105390008828870153CF10E000E050CFFB01DC01EB
:1053A00002C001900D9241505040D8F70895FB0182
:1053B000DC0101900D920020E1F7089514E0C9E3AB
:1053C000D4E004C0FE010E94E6272196CA33D1072B
:0653D000C9F7F894FFCFBD
:1053D60006090906000000000000164200000E4201
:1053E600580290010000164200000E4200001242D0
:1053F6000000124264000D0C0B0203040531323327
:105406003435363738392A30230000D0038000007F
:10541600004000140054000000000029058904B66D
:10542600047605E704C504D904000000004A081DF7
:10543600086009F30716080308F40700000000597E
:10544600061906E80500000000F90A890460098CBF
:10545600076E616E00696E66006F7666002020201A
:105466002020202020202020202020202020202036
:02547600200014
:00000001FF
