:100000000C94860E0C94981A0C946D1A0C94421A47
:100010000C94171A0C94EC190C94C1190C949619A1
:100020000C946B190C94C31A0C94C31A0C94C31A35
:100030000C94B70E0C94B70E0C94B70E0C94B70E2C
:100040000C94B70E0C94B70E0C94B70E0C94B70E1C
:100050000C94B70E0C94B70E0C94B70E0C94211997
:100060000C94B70E0C94EB180C94C1180C94B70EAA
:100070000C94B70E0C94B70E0C94B70E0C94B70EEC
:100080000C94B70E0C94B70E0C94B70E0C94B70EDC
:100090000C948B180C9461180C94B70E0C94CD1A18
:1000A0000C94B70E0C94B70E0C94B70E0C94B70EBC
:1000B0000C94B70E0C94B70E0C94B70E0C94B70EAC
:1000C0000C94B70E0C94B70E0C94B70E0C94B70E9C
:1000D0000C94B70E0C94B70E0C94B70E0C94B70E8C
:1000E0000C94B70E0C9416120C9476100C948B1082
:1000F0000C9440120C9499100C943F300C94EA0E1E
:100100000C9485100C9470140C9426120C9470109E
:100110000C947A100C9405100C94AB100C94FA13F8
:100120000C94B0100C94F11B0C9495100C941712B5
:100130000C94540F0C94B80F0C946D120C94EC0E9C
:100140000C9482100C94180F0C947E100C94A31035
:100150000C949D100C94760F0C94AF110C948F108E
:100160000C94B5100C94A7100C94EB0E0C94E00EAC
:100170000C94450F0C94680F0C948B130C9439124B
:100180000C94B1104E414E494E495459494E46CDFA
:10019000CCCC3D0AD7233C17B7D13877CC2B32953E
:1001A00095E6241FB14F0A000020410000C842001C
:1001B000401C4620BCBE4CCA1B0E5AAEC59D7429BD
:1001C000005D202841534349493A20004469736344
:1001D000617264656420636861723A205B00416CFF
:1001E0006C2064617461202B206D61676963206EEF
:1001F000756D62657220736176656420746F204549
:100200004550524F4D00454550524F4D2077726931
:100210007465206661696C656420666F7220666C27
:100220006F7743616C6962726174696F6E46616376
:10023000746F7221205265747279696E672E2E2E4A
:1002400000454550524F4D207772697465206661B4
:10025000696C656420666F7220637573746F6D508E
:10026000617373776F726421205265747279696E5D
:10027000672E2E2E00454550524F4D2077726974DF
:1002800065206661696C656420666F7220707269B2
:1002900063655065724C697465722061667465723D
:1002A000206D61782072657472696573210045451F
:1002B00050524F4D207772697465206661696C6594
:1002C0006420666F722070726963655065724C6954
:1002D00074657221205265747279696E672E2E2EB4
:1002E00000454550524F4D207772697465207375F3
:1002F000636365737366756C20666F7220707269D4
:1003000063655065724C697465722E00293A20004D
:1003100052656164206261636B207072696365502D
:1003200065724C697465722028417474656D7074CF
:100330002000536176696E6720707269636550654D
:10034000724C697465723A2000436F696E20496E81
:10035000736572746564212043757272656E7420D2
:1003600042616C616E63653A20547368200000003E
:100370002100240027002A002D0030003300010155
:100380000000040107010A010000220025002800E6
:100390002B002E003100340002010000050108018D
:1003A0000B01000020002300260029002C002F0054
:1003B00032000001000003010601090105050505E1
:1003C000070508080808020202020A0A08080404CD
:1003D00004040101010101010101030303030303FB
:1003E0000303040707070C0C0C0C0C0C0C0C02028A
:1003F000020206060606060606060B0B0B0B0B0B87
:100400000B0B010210202008081020401020408013
:1004100002010201080402010102040810204080C8
:100420008040201008040201800402018040201056
:10043000080402010804020101020408102040809F
:10044000010204081020408000000A0B02090C0D74
:100450000E08070304010000000000000000000077
:10046000000000000000000000000000000000008C
:100470000000000012111000000000000000000049
:1004800000000000000000000000000000005072AA
:10049000652D436C6F7365204F66667365743A20F3
:1004A00000496E76616C696420707269636550659D
:1004B000724C697465722064657465637465642C3C
:1004C00020726573657474696E6720746F203530AF
:1004D0002E30004C6F6164656420707269636550F2
:1004E00065724C697465722066726F6D2045455067
:1004F000524F4D3A200050617373776F72643A2007
:100500000043616C6962726174696F6E2046616359
:10051000746F723A2000496E76616C6964206F7264
:1005200020636F7272757074656420454550524F38
:100530004D20646174612120496E697469616C6940
:100540007A696E672064656661756C74732E0054F9
:100550006F74616C20436F696E73206C6F616465AA
:10056000643A200020532E572E56202000534D442D
:1005700027732057415445522056454E44002000D1
:1005800053656E642064656661756C74206F7220BB
:100590006E65772070617373776F72642E0050619F
:1005A0007373776F726420726573657420746F2043
:1005B00064656661756C7421004C6F6E67207072A3
:1005C000657373206465746563746564210020003D
:1005D0002000496E76616C696420636F6D6D616E99
:1005E00064212053656E6420277072696365272C2F
:1005F000202763616C666163746F72272C20276EFD
:10060000657770617373272C206F72202765786976
:1006100074272E0000456E74657265642050617306
:1006200073776F7264204368616E6765204D6F64F5
:10063000653B2053656E64206E657720706173732F
:10064000776F72642028757020746F2031352063B5
:100650006861726163746572732900200020004331
:100660006F6E746163743A202B3235353736373804
:1006700033303331392E005448414E4B5320464FCE
:1006800052205452555354494E4720534D442773DA
:100690002057617465722056656E647300526574EC
:1006A00075726E656420746F20576F726B204D6F8A
:1006B00064652E002000416C6C20646174612073BD
:1006C0006176656421004F722073656E6420277027
:1006D00072696365272C202762616C616E636527F0
:1006E0002C2027707265636C6F7365272C2027722E
:1006F00065736574272C20276E6577706173732787
:100700002C206F72202765786974272E0000456EB3
:1007100074657265642043616C6962726174696FAB
:100720006E20466163746F72204D6F64653A20538A
:10073000656E642063616C6962726174696F6E20BA
:10074000666163746F722028652E672E2C20736596
:100750006E6420312E30290020004F722073656EA8
:1007600064202763616C666163746F72272C202795
:1007700062616C616E6365272C2027707265636C03
:100780006F7365272C20277265736574272C2027CB
:100790006E657770617373272C206F7220276578E0
:1007A0006974272E0000456E74657265642050726E
:1007B00069636520506572204C69746572204D6FC5
:1007C00064653A2053656E642070726963652070B9
:1007D0006572206C697465722028652E672E2C2046
:1007E00073656E642035302E30290020005D005284
:1007F000657365742F6578697420627566666572C5
:100800003A205B002000496E76616C696420636F5A
:100810006D6D616E64212053656E6420277072696E
:100820006365272C2027707265636C6F7365272CB6
:10083000202763616C666163746F72272C202772B6
:1008400065736574272C20276E6577706173732735
:100850002C206F72202765786974272E0000456E62
:1008600074657265642050617373776F726420439E
:1008700068616E6765204D6F64653B2053656E64EB
:10088000206E65772070617373776F7264202875AE
:100890007020746F20313520636861726163746504
:1008A0007273290020002000436F6E74616374200E
:1008B00055733A202B3235353736373833303331AC
:1008C000392E005448414E4B5320464F522054522B
:1008D000555354494E4720534D4427732057617454
:1008E00065722056656E64730052657475726E652C
:1008F0006420746F20576F726B204D6F64652E00FB
:10090000416C6C20646174612073617665642100C0
:100910002000200053656E6420277072696365278C
:100920002C202763616C666163746F72272C20270B
:10093000707265636C6F7365272C20276E65777006
:10094000617373272C206F72202765786974272EB6
:100950000000546F74616C2053616C6573206E6F7E
:10096000773A2054736820000053616C65732072DD
:1009700065736574210020004F722073656E6420DA
:10098000277072696365272C202762616C616E6332
:1009900065272C2027707265636C6F7365272C2088
:1009A000277265736574272C20276E6577706173D5
:1009B00073272C206F72202765786974272E00001A
:1009C000456E74657265642043616C69627261741E
:1009D000696F6E20466163746F72204D6F64653A73
:1009E0002053656E642063616C6962726174696F23
:1009F0006E20666163746F722028652E672E2C202E
:100A000073656E6420312E30290020004F722073F0
:100A1000656E64202763616C666163746F72272C56
:100A2000202762616C616E6365272C2027707265D8
:100A3000636C6F7365272C20277265736574272C90
:100A400020276E657770617373272C206F722027C3
:100A500065786974272E0000456E746572656420A0
:100A6000507269636520506572204C69746572200C
:100A70004D6F64653A2053656E64207072696365DA
:100A800020706572206C697465722028652E672E4F
:100A90002C2073656E642035302E30290020005DD7
:100AA0000042616C616E6365206275666665723ACC
:100AB000205B002000496E76616C696420636F6D75
:100AC0006D616E64212053656E64202773617665C5
:100AD000272C20277072696365272C202770726588
:100AE000636C6F7365272C202763616C6661637488
:100AF0006F72272C202762616C616E6365272C2042
:100B0000277265736574272C20276E657770617373
:100B100073272C206F72202765786974272E002098
:100B200000436F6E746163743A202B32353537366B
:100B3000373833303331392E005448414E4B53202F
:100B4000464F52205452555354494E4720534D441A
:100B500027732057617465722056656E6473005266
:100B6000657475726E656420746F20576F726B20A8
:100B70004D6F64652E00416C6C206461746120735C
:100B8000617665642100200000456E7465726564BD
:100B90002050617373776F7264204368616E67657C
:100BA000204D6F64653A2053656E64206E65772032
:100BB00070617373776F72642028757020746F2072
:100BC0003135206368617261637465727329002036
:100BD0000000546F74616C2053616C6573206E6FFC
:100BE000773A2054736820000053616C657320725B
:100BF00065736574212053656E6420277072696384
:100C000065272C202763616C666163746F72272CE3
:100C100020276E657770617373272C206F722027F1
:100C200065786974272E00200053656E6420277054
:100C300072696365272C202763616C666163746F3A
:100C400072272C20277265736574272C20276E6508
:100C50007770617373272C206F7220276578697411
:100C6000272E0000546F74616C2053616C65733AD9
:100C7000205473682000004F722073656E64202733
:100C80007072696365272C202762616C616E6365F1
:100C9000272C2027707265636C6F7365272C2027C3
:100CA0007265736574272C20276E65777061737386
:100CB000272C206F72202765786974272E00004545
:100CC0006E74657265642043616C696272617469F7
:100CD0006F6E20466163746F72204D6F64653A20B9
:100CE00053656E642063616C6962726174696F6ED2
:100CF00020666163746F722028652E672E2C207326
:100D0000656E6420312E30290020004F72207365FB
:100D10006E64202763616C666163746F72272C2098
:100D20002762616C616E6365272C20277072656392
:100D30006C6F7365272C20277265736574272C20D0
:100D4000276E657770617373272C206F722027657B
:100D5000786974272E0000456E74657265642050B2
:100D60007269636520506572204C69746572204D0C
:100D70006F64653A2053656E642070726963652004
:100D8000706572206C697465722028652E672E2C40
:100D90002073656E642035302E302900200020003D
:100DA000416C6C20646174612073617665642120FC
:100DB00053656E6420277072696365272C20276352
:100DC000616C666163746F72272C20276E65777083
:100DD000617373272C2027707265636C6F736527AE
:100DE0002C202762616C616E6365272C2027726559
:100DF000736574272C206F72202765786974272EFD
:100E00000020005D0053617665206275666665723C
:100E10003A205B00200050617373776F7264206D1D
:100E2000757374206265203420746F20313520631F
:100E300068617261637465727321205472792061F4
:100E40006761696E2E0053656E6420277072696356
:100E500065272C2027707265636C6F7365272C20C3
:100E60002763616C666163746F72272C202762614F
:100E70006C616E6365272C20277265736574272C5F
:100E8000206F72202765786974272E00200050613A
:100E90007373776F7264206368616E676564206145
:100EA0006E6420736176656421005D004E65772075
:100EB00070617373776F7264206275666665723AEB
:100EC000205B00496E76616C69642076616C7565A3
:100ED0002120302E30202D2031302E30206F6E6CAE
:100EE0007900200053656E6420277072696365275E
:100EF0002C2027707265636C6F7365272C20276325
:100F0000616C666163746F72272C20276E65777041
:100F1000617373272C206F72202765786974272EE0
:100F2000000020005072652D436C6F7365204F6682
:100F3000667365742073657420262073617665641A
:100F40003A20002000496E76616C69642063616C10
:100F50006962726174696F6E20666163746F722179
:100F60002053656E642061206E756D62657220622B
:100F700065747765656E20302E3120616E64203196
:100F8000302E302C20277072696365272C20276251
:100F9000616C616E6365272C202772657365742709
:100FA0002C20276E657770617373272C206F722059
:100FB0002765786974272E0053656E642027707248
:100FC000696365272C27707265636C6F7365272CC6
:100FD000202762616C616E6365272C202772657320
:100FE0006574272C20276E657770617373272C201A
:100FF0006F72202765786974272E00200043616C8A
:101000006962726174696F6E20466163746F7220E9
:1010100073657420616E642073617665643A2000A4
:101020002000456E74657265642050617373776F3C
:101030007264204368616E6765204D6F64653A2075
:1010400053656E64206E65772070617373776F727D
:10105000642028757020746F2031352063686172B8
:10106000616374657273290020002000436F6E7401
:101070006163743A202B32353537363738333033A5
:1010800031392E005448414E4B5320464F52205484
:1010900052555354494E4720534D442773205761AE
:1010A0007465722056656E64730052657475726E55
:1010B000656420746F20576F726B204D6F64652ECE
:1010C00000416C6C206461746120736176656421F9
:1010D000002000200053656E6420277072696365EC
:1010E000272C2027707265636C6F7365272C20276F
:1010F00063616C666163746F72272C20276E65775D
:1011000070617373272C206F7220276578697427AC
:101110002E0000546F74616C2053616C6573206EF7
:101120006F773A2054736820000053616C65732018
:1011300072657365742100200053656E642027700A
:1011400072696365272C2027707265636C6F736505
:10115000272C202763616C666163746F72272C20D3
:10116000277265736574272C20276E65777061730D
:1011700073272C206F72202765786974272E000052
:10118000546F74616C2053616C65733A20547368BA
:101190002000004F722073656E64202763616C66C7
:1011A0006163746F72272C2027707265636C6F7394
:1011B00065272C202762616C616E6365272C2027D0
:1011C0007265736574272C20276E65777061737361
:1011D000272C206F72202765786974272E00004520
:1011E0006E74657265642050726963652050657223
:1011F000204C69746572204D6F64653A2053656EAA
:101200006420707269636520706572206C69746512
:10121000722028652E672E2C2073656E6420353071
:101220002E30290020005D0043616C696272617498
:10123000696F6E20666163746F72206275666665A1
:10124000723A205B002000496E76616C6964207000
:101250007269636520706572206C69746572212003
:1012600053656E642061206E756D626572206265E3
:10127000747765656E203120616E642031303030C6
:10128000302E302C202763616C666163746F722787
:101290002C202762616C616E6365272C20277265A4
:1012A000736574272C20276E657770617373272C04
:1012B000206F72202765786974272E0053656E644D
:1012C00020277072696365272C2027707265636C14
:1012D0006F7365272C202763616C666163746F727E
:1012E000272C202762616C616E6365272C20277292
:1012F00065736574272C20276E657770617373277B
:101300002C206F72202765786974272E00200050EA
:101310007269636520706572204C69746572207310
:10132000657420616E642073617665643A2054733D
:101330006820002000436F6E746163743A202B3282
:1013400035353736373833303331392E005448414C
:101350004E4B5320464F52205452555354494E47FA
:1013600020534D4427732057617465722056656E73
:1013700064730052657475726E656420746F2057D3
:101380006F726B204D6F64652E00416C6C20646140
:10139000746120736176656421002000200053652C
:1013A0006E6420277072696365272C202770726530
:1013B000636C6F7365272C202763616C66616374AF
:1013C0006F72272C20276E657770617373272C202E
:1013D0006F72202765786974272E0000546F74613E
:1013E0006C2053616C6573206E6F773A205473687C
:1013F00020000053616C6573207265736574210071
:10140000200053656E6420277072696365272C2065
:1014100027707265636C6F7365272C202763616C7E
:10142000666163746F72272C202772657365742759
:101430002C20276E657770617373272C206F7220C4
:101440002765786974272E0000546F74616C2053EF
:10145000616C65733A2054736820000000456E7417
:10146000657265642050617373776F72642043689E
:10147000616E6765204D6F64653A2053656E642028
:101480006E65772070617373776F72642028757052
:1014900020746F20313520636861726163746572F6
:1014A00073290020004F722073656E6420277072CC
:1014B000696365272C2027707265636C6F736527DD
:1014C0002C202762616C616E6365272C2027726572
:1014D000736574272C20276E657770617373272CD2
:1014E000206F72202765786974272E0000456E747E
:1014F000657265642043616C6962726174696F6EC4
:1015000020466163746F72204D6F64653A205365A5
:101510006E642063616C6962726174696F6E2066CB
:101520006163746F722028652E672E2C2073656EA0
:101530006420312E30290020004F722073656E64C4
:10154000202763616C666163746F72272C2027709B
:101550007265636C6F7365272C202762616C616E06
:101560006365272C20277265736574272C20276EEE
:10157000657770617373272C206F722027657869F7
:1015800074272E0000456E74657265642050726980
:10159000636520506572204C69746572204D6F64DC
:1015A000653A2053656E64207072696365207065CA
:1015B00072206C697465722028652E672E2C20734A
:1015C000656E642035302E30290020005D005265A4
:1015D000636569766564206275666665723A205B4C
:1015E000002000496E76616C696420636F6D6D61E7
:1015F0006E64212053656E642027707269636527CD
:101600002C2027707265636C6F73652C272027630D
:10161000616C666163746F72272C202762616C6154
:101620006E6365272C20277265736574272C20272D
:101630006E657770617373272C206F722027657831
:101640006974272E00200053656E6420277072692C
:101650006365272C2027707265636C6F7365272C78
:10166000202763616C666163746F72272C20276E7C
:10167000657770617373272C206F722027657869F6
:1016800074272E000053656E64206E6577207661A6
:101690006C75652028652E672E20302E3329206F2B
:1016A00072202765786974270043757272656E74BD
:1016B000206F66667365743A2000456E74657265C6
:1016C00064205072652D436C6F7365204F6666739E
:1016D0006574204D6F64650020002000436F6E74B8
:1016E0006163742075733A202B32353537363738BD
:1016F00033303331392E005448414E4B5320464F3E
:1017000052205452555354494E4720534D44277349
:101710002057617465722056656E6473005265745B
:1017200075726E656420746F20576F726B204D6FF9
:1017300064652E00416C6C20646174612073617675
:10174000656421002000200053656E6420277072BC
:10175000696365272C202763616C666163746F720F
:10176000272C2027707265636C6F7365272C2027E8
:101770006E657770617373272C206F7220276578F0
:101780006974272E002000546F74616C2053616CC3
:101790006573206E6F773A205473682000200053E1
:1017A000616C6573207265736574210020002000F0
:1017B00053656E6420277072696365272C20276348
:1017C000616C666163746F72272C20277072656389
:1017D0006C6F7365272C20277265736574272C2026
:1017E000276E657770617373272C206F72202765D1
:1017F000786974272E002000546F74616C20536147
:101800006C65733A20547368200020002000456EF8
:1018100074657265642050617373776F72642043DE
:1018200068616E6765204D6F64653A2053656E642C
:10183000206E65772070617373776F7264202875EE
:101840007020746F20313520636861726163746544
:10185000727329002000004F722073656E64202788
:101860007072696365272C2027707265636C6F73D3
:1018700065272C202762616C616E6365272C202709
:101880007265736574272C20276E6577706173739A
:10189000272C206F72202765786974272E00004559
:1018A0006E74657265642043616C6962726174690B
:1018B0006F6E20466163746F72204D6F64653A20CD
:1018C00053656E642063616C6962726174696F6EE6
:1018D00020666163746F722028652E672E2C20733A
:1018E000656E6420312E3029000020004F72207375
:1018F000656E64202763616C666163746F72272C68
:101900002027707265636C6F7365272C20276261D6
:101910006C616E6365272C20277265736574272CB4
:1019200020276E657770617373272C206F722027D4
:1019300065786974272E002000456E7465726564B1
:1019400020507269636520506572204C697465721D
:10195000204D6F64653A2053656E64207072696330
:101960006520706572206C697465722028652E6729
:101970002E2C2073656E642035302E302900200017
:101980005D005265636569766564206275666665AB
:10199000723A205B00200050726573732072657389
:1019A000657420627574746F6E20666F72203520C6
:1019B0007365636F6E647320746F207265766572F1
:1019C0007420746F2064656661756C742070617337
:1019D00073776F72642E00436F6E7461637420744A
:1019E0006865206F776E657220666F72206675720B
:1019F0007468657220617373697374616E63652EB8
:101A000000496E636F7272656374207061737377DF
:101A10006F7264212054727920616761696E206F52
:101A200072200020004F722073656E64202762616F
:101A30006C616E63652720746F20636865636B203B
:101A400062616C616E63652C2027707265636C6FD8
:101A500073652720746F207365742056616C7665FA
:101A600020636C6F73652C20277265736574272063
:101A7000746F2072657365742073616C65732C20BC
:101A80006F722027657869742720746F20726574DF
:101A900075726E20746F20576F726B204D6F646586
:101AA0002E00200053656E642027707269636527DD
:101AB00020746F206368616E67652070726963656A
:101AC00020706572206C697465722C202763616CCC
:101AD000666163746F722720746F206368616E673C
:101AE000652063616C6962726174696F6E20666102
:101AF00063746F722C20276E657770617373272073
:101B0000746F206368616E67652070617373776FAF
:101B100072642E0020005072652D436C6F73652037
:101B20004F6666736574206C6F616465643A20006B
:101B300043616C6962726174696F6E20466163749F
:101B40006F723A2000507269636520706572204C94
:101B5000697465723A2054736820002000437572DE
:101B600072656E7420446174613A002000534D44E4
:101B700027732057617465722056656E64733A202E
:101B8000576173696C69616E61206E6173693A2097
:101B90002B3235353736373833303331392E005D17
:101BA0000052656365697665642062756666657274
:101BB0003A205B0029005D202841534349493A20DF
:101BC00000526563656976656420646174613A20DA
:101BD0005B002000436F6E746163743A202B3235D2
:101BE000353736373833303331392E005448414E8B
:101BF0004B5320464F52205452555354494E472080
:101C0000534D4427732057617465722056656E6486
:101C1000730052657475726E656420746F20576F1F
:101C2000726B204D6F64652E00426C7565746F6F2A
:101C300074682069646C652074696D656F757420C3
:101C4000726561636865642E20416C6C2064617408
:101C500061207361766564210052657475726E69E6
:101C60006E6720746F20576F726B00426C756574DD
:101C70006F6F74682054696D656F7574004B4152C5
:101C80004942552054454E41004153414E54452050
:101C900053414E41005052452D434C4F53453A203D
:101CA00056616C766520696D6566756E6777612033
:101CB0006D6170656D6100547A3A004C3A004A5586
:101CC0004D4C413A5473682000494E41544F4120D5
:101CD0004D414A492E2E2E00202020202020202059
:101CE0002020202020202020005473683A20004F1C
:101CF0004E47455A412053414C494F0053414C49AE
:101D00004F205473683A0000F11B3F3011241FBE6E
:101D1000CFEFD1E2DEBFCDBF00E00CBF25E0ACE3EA
:101D2000B3E001C01D92AD3AB207E1F713E0A0E0C5
:101D3000B2E0EAE7FDE600E00BBF02C007900D92BB
:101D4000AC33B107D9F71EE0C5E8DEE000E006C01D
:101D500021970109802FFE010E947034C438D107F9
:101D600080E00807A9F70E94DF1C0C94AB360C94A6
:101D70000000FC01A089B18982E08C93A485B5851F
:101D80001C92A685B7858FEC8C93108EA489B5899B
:101D900086E08C93A289B3898C9180618C93A2890F
:101DA000B3898C9188608C93A289B3898C91806867
:101DB0008C930288F389E02D80818F7D8083089544
:101DC0008091390490913A04019690933A0480935B
:101DD00039040895089508950895DC01ED91FC916A
:101DE0000190F081E02D1994EF92FF920F931F93D1
:101DF000CF93DF938C017B01D0E0C0E0F701EC0FC3
:101E0000FD1F6491662361F0D801ED91FC91019072
:101E1000F081E02DC8011995892B11F02196EECFA4
:101E2000CE01DF91CF911F910F91FF90EF90089518
:101E3000AF92BF92CF92DF92EF92FF920F931F93D8
:101E4000CF93DF936C017B018B01040F151FEB0116
:101E50005E01AE18BF08C017D10759F06991D601CD
:101E6000ED91FC910190F081E02DC6011995892B2F
:101E700079F7C501DF91CF911F910F91FF90EF90FE
:101E8000DF90CF90BF90AF900895FC01538D448DAB
:101E9000252F30E0842F90E0821B930B541710F015
:101EA000CF96089501970895FC01918D828D981722
:101EB00061F0A28DAE0FBF2FB11D5D968C91928DFA
:101EC0009F5F9F73928F90E008958FEF9FEF08952B
:101ED000FC01918D828D981731F0828DE80FF11DF4
:101EE000858D90E008958FEF9FEF0895FC01918D0F
:101EF000228D892F90E0805C9F4F821B91098F7308
:101F0000992708958FE494E00E94760F21E0892BB1
:101F100009F420E0822F08958CEE94E00E94760F61
:101F200021E0892B09F420E0822F0895FC01A48D83
:101F3000A80FB92FB11DA35ABF4F2C91848D90E0EB
:101F400001968F739927848FA689B7892C93A089CE
:101F5000B1898C91837080648C93938D848D981358
:101F600006C00288F389E02D80818F7D80830895EB
:101F7000EF92FF920F931F93CF93DF93EC0181E0D9
:101F8000888F9B8D8C8D98131AC0E889F989808180
:101F900085FF15C09FB7F894EE89FF896083E889B3
:101FA000F98980818370806480839FBF81E090E0A5
:101FB000DF91CF911F910F91FF90EF900895F62E32
:101FC0000B8D10E00F5F1F4F0F731127E02E8C8DCC
:101FD0008E110CC00FB607FCFACFE889F989808111
:101FE00085FFF5CFCE010E94960FF1CFEB8DEC0F60
:101FF000FD2FF11DE35AFF4FF0829FB7F8940B8F2E
:10200000EA89FB8980818062CFCFCF93DF93EC0197
:10201000888D8823B9F0AA89BB89E889F9898C91D0
:1020200085FD03C0808186FD0DC00FB607FCF7CF8C
:102030008C9185FFF2CF808185FFEDCFCE010E948C
:10204000960FE9CFDF91CF91089580E090E0892B42
:1020500029F00E948C0F81110E94000080E090E026
:10206000892B29F00E94820F81110E94000080E0DC
:1020700090E0892B49F080E090E0892B29F00E94C4
:10208000000081110E94000080E090E0892B49F05F
:1020900080E090E0892B29F00E94000081110C94CF
:1020A000000008958150823108F05AC0E82FF0E016
:1020B0008827E25AFF4E8F4F0C9470347E108210A6
:1020C000701076107A10B01085108B108F1095104C
:1020D00099109D10A310A710B010AB10B110B5103F
:1020E000809180008F778093800008958091800098
:1020F0008F7DF9CF80918000877FF5CF84B58F7772
:1021000084BD089584B58F7DFBCF8091B0008F771B
:102110008093B00008958091B0008F7DF9CF8091B9
:1021200090008F77809390000895809190008F7D2C
:10213000F9CF80919000877FF5CF8091A0008F77B5
:102140008093A00008958091A0008F7DF9CF8091A9
:10215000A000877FF5CF809120018F7780932001A9
:102160000895809120018F7DF9CF80912001877F94
:10217000F5CFCF93DF93282F30E0F901E85BFB4FD9
:102180008491F901EE5FFB4FD491F901E454FC4FC7
:10219000C491CC23A1F081110E945210EC2FF0E0E9
:1021A000EE0FFF1FEE55FC4FA591B491EC91ED237E
:1021B00081E090E009F480E0DF91CF91089580E024
:1021C00090E0FACF1F93CF93DF93282F30E0F901EF
:1021D000E85BFB4F8491F901EE5FFB4FD491F9016D
:1021E000E454FC4FC491CC23A9F0162F81110E9416
:1021F0005210EC2FF0E0EE0FFF1FE857FC4FA591B7
:10220000B4918FB7F894EC91111108C0D095DE23EA
:10221000DC938FBFDF91CF911F910895DE2BF8CF14
:10222000CF93DF9390E0FC01EE5FFB4F2491845449
:102230009C4FFC0184918823C9F090E0880F991F7E
:10224000FC01E259FC4FA591B491FC01E857FC4F09
:10225000C591D49161110DC09FB7F8948C912095D0
:1022600082238C938881282328839FBFDF91CF917D
:102270000895623051F49FB7F8943C91822F809575
:1022800083238C93E8812E2BEFCF8FB7F894EC91BA
:102290002E2B2C938FBFEACF3FB7F8948091F50394
:1022A0009091F603A091F703B091F80326B5A89B8F
:1022B00005C02F3F19F00196A11DB11D3FBFBA2FD8
:1022C000A92F982F8827BC01CD01620F711D811D98
:1022D000911D42E0660F771F881F991F4A95D1F71D
:1022E00008958F929F92AF92BF92CF92DF92EF921A
:1022F000FF924B015C010E944C116B017C010E941A
:102300004C116C197D098E099F09683E7340810547
:102310009105A8F321E0821A9108A108B10888EE7E
:10232000C80E83E0D81EE11CF11C81149104A104A5
:10233000B10429F7FF90EF90DF90CF90BF90AF905E
:102340009F908F9008952FB7F8946091F10370914A
:10235000F2038091F3039091F4032FBF0895089541
:1023600020917D03260F3327331F21323105ECF4F2
:102370002091C603FC0190E080E0243069F082E007
:102380000895A0917D032191AC01435A5C4FA40FA5
:10239000B52FB11D2C930196861798F380917D037C
:1023A000680F60937D0380E0089581E008951092A6
:1023B000C60381E08093C5031092A00361E084E12D
:1023C0000E94E21061E085E10E94E210E9EBF0E09A
:1023D00080818E7F808380818D7F808388E480935D
:1023E000B80085E48093BC000895CF93DF9391E01B
:1023F00090935C038823B9F0C091B800D091BA00E3
:102400008091BC008A7B8093BC0060E084E10E94E4
:10241000E21060E085E10E94E2100E94D711D093A3
:10242000BA00C093B800DF91CF9108950895E0916C
:1024300000048091FF03E81730F4F0E0E45CFC4F07
:10244000808190E008958FEF9FEF089590910004B0
:102450008091FF032FEF3FEF981748F4E92FF0E04A
:10246000E45CFC4F208130E09F5F90930004C90141
:1024700008958091FF0390910004891B990B0895A2
:10248000CF92DF92EF92FF920F931F93CF93DF9340
:102490007C01CB018A012091CC03222389F0EB013E
:1024A0006B01C40ED51ECC15DD0569F06991D7010D
:1024B000ED91FC910190F081E02DC7011995F3CFCA
:1024C000642F0E94B011C801DF91CF911F910F912D
:1024D000FF90EF90DF90CF900895CF93DF931F92FE
:1024E000CDB7DEB769832091CC032223F9F0209188
:1024F000FD03203258F021E030E0FC0133832283D9
:1025000090E080E00F90DF91CF9108958091FE03DD
:10251000E82FF0E0E353FC4F998190838F5F809325
:10252000FE038093FD0381E090E0ECCF61E0CE01FB
:1025300001960E94B011F7CFCF92DF92EF92FF92F7
:102540000F931F93CF93DF93FC01C48121E020936D
:10255000CC03C093ED031092FE031092FD0383851C
:10256000682B89E895E00E946D12D091FD03D1326D
:1025700008F092C00E944C116B017C018091C6034F
:10258000811165C082E08093C60381E08093C5031A
:102590008FEF8093C4031092C303D093C203ADECBA
:1025A000B3E0E2EAF3E080E0D81385C01092A10323
:1025B0008091A103CC0FC82BC093A1038091A003ED
:1025C000813009F07CC01092A0030E944C116B0175
:1025D0007C018091A1038093BB008091C8039091FE
:1025E000C903A091CA03B091CB03892B8A2B8B2BF3
:1025F00099F00E944C110091C8031091C9032091D9
:10260000CA033091CB036C197D098E099F09061707
:10261000170728073907E0F18091BC0083FDD9CF67
:1026200085EC8093BC000E944C116B017C01809171
:10263000C603823009F445C08091C4038F3F61F125
:102640008091C403803241F18091C40325C0809100
:10265000C8039091C903A091CA03B091CB03892B01
:102660008A2B8B2B09F48ACF0E944C110091C8034E
:102670001091C9032091CA033091CB036C197D09D5
:102680008E099F09061717072807390708F076CF24
:102690008091C7030E94F5111092FE031092FD0372
:1026A0001092CC03DF91CF911F910F91FF90EF908B
:1026B000DF90CF9008959D9191938F5F75CF85EEB8
:1026C000B0CF8091C8039091C903A091CA03B09183
:1026D000CB03892B8A2B8B2B09F4A9CF0E944C1199
:1026E0000091C8031091C9032091CA033091CB0314
:1026F0006C197D098E099F090617170728073907E6
:1027000008F095CFC5CF88E08093A60560E08BE9FF
:1027100095E00C949C1290E080E008950F931F9335
:10272000CF938C01C62F0E949C126C2F6460C8014D
:102730000E949C126C2F6B7FC8010E949C1283EC3C
:1027400090E00197F1F7CF911F910F9108950F93AA
:102750001F93CF93DF938C01D62FC42F607F642B00
:102760000E948E1380E1D89FB00111246C2BC80108
:10277000DF91CF911F910F910C948E13CF93DF9324
:1027800000D000D01F921F92CDB7DEB798E0E6E3ED
:10279000F2E0DE01119601900D929A95E1F7909189
:1027A000A305961708F46FEF262F30E0220F331F92
:1027B00041E050E04C0F5D1F240F351FF90160818F
:1027C000680F606840E08BE995E028960FB6F894B2
:1027D000DEBF0FBECDBFDF91CF910C94A71340E0B9
:1027E00061E08BE995E00E94A7138BE39FE10197DD
:1027F000F1F7089541E00E94A71381E090E0089569
:10280000FB0101900020E9F73197AF01461B570B00
:10281000DC01ED91FC910280F381E02D19948F92FF
:102820009F92AF92BF92EF92FF920F931F93CF931D
:10283000DF93CDB7DEB7A1970FB6F894DEBF0FBE1A
:10284000CDBF7C01FA01CB0119A2223008F42AE0A5
:102850008E010F5D1F4F822E912CB12CA12CBF0138
:10286000A50194010E944E34F901CA016A300CF5A9
:10287000605DD8016E938D01232B242B252B79F7D6
:1028800090E080E0109721F0BD01C7010E94001484
:10289000A1960FB6F894DEBF0FBECDBFDF91CF91EA
:1028A0001F910F91FF90EF90BF90AF909F908F90EE
:1028B0000895695CDECF0F931F93CF93DF93EC01F4
:1028C0002AE00E940F148C016EE672E0CE010E9495
:1028D0000014800F911FDF91CF911F910F910895E8
:1028E000609124047091250480912604909127041E
:1028F00020E030E048E452E40E9423336093240453
:1029000070932504809326049093270460912404F7
:102910007091250480912604909127040E9401342F
:1029200060934A0470934B0480934C0490934D043D
:102930000E94A31160934004709341048093420469
:102940009093430469E473E08CEE94E00E94F40EEB
:1029500040914A0450914B0460914C0470914D0495
:102960008CEE94E00C945B14CF92DF92EF92FF9286
:10297000CF93DF93AB01BC0177FF1DC06A017C01DF
:102980006DE28CEE94E00E94ED0EEC014427552799
:10299000BA014C195D096E097F092AE08CEE94E0BA
:1029A0000E940F148C0F9D1FDF91CF91FF90EF902D
:1029B000DF90CF9008952AE08CEE94E0DF91CF91E4
:1029C000FF90EF90DF90CF900C940F14BC018CEE31
:1029D00094E00C9400142F923F924F925F926F926A
:1029E0007F928F929F92AF92BF92CF92DF92EF929F
:1029F000FF921F93CF93DF93EC016A017B01722E4C
:102A0000AB019601CB01B6010E94353461E772E05B
:102A1000811126C046015701E894B7F82FEF3FEF28
:102A20004FE75FE7C501B4010E94353481110CC046
:102A30002FEF3FEF4FE75FE7C501B4010E94CB31B5
:102A400065E772E0181664F02FEF3FEF4FE75FE4A1
:102A5000C701B6010E9430341816B4F469E772E079
:102A6000CE01DF91CF911F91FF90EF90DF90CF903B
:102A7000BF90AF909F908F907F906F905F904F909E
:102A80003F902F900C9400142FEF3FEF4FE75FEC37
:102A9000C701B6010E94CB3187FDE0CF20E030E0D6
:102AA000A901C701B6010E94CB31312C212C87FF2F
:102AB00009C06DE2CE010E94ED0E1C01F7FAF09400
:102AC000F7F8F09410E060E070E080E09FE37116AA
:102AD00041F020E030E040E251E40E948F331F5F7C
:102AE000F6CFA70196010E9423332B013C010E94DF
:102AF00001344B015C012AE0BC01A401CE010E941B
:102B00000F147C01E20CF31C1123C1F1C501B401C7
:102B10000E94D0319B01AC01C301B2010E9422335B
:102B20004B015C016EE2CE010E94ED0EE80EF91E33
:102B3000115020F120E030E040E251E4C501B40141
:102B40000E9431322B013C010E9401344B01B12C17
:102B5000A12C2AE0B501A401CE010E940F14E80EB9
:102B6000F91EC501B4010E94D0319B01AC01C30123
:102B7000B2010E9422334B015C01DACFC701DF9121
:102B8000CF911F91FF90EF90DF90CF90BF90AF90CB
:102B90009F908F907F906F905F904F903F902F907D
:102BA00008950F931F93CF93DF93EC0122E00E94CF
:102BB000EB148C016EE672E0CE010E940014800FCF
:102BC000911FDF91CF911F910F9108950F931F9344
:102BD000CF93DF93EC010E94F40E8C016EE672E05D
:102BE000CE010E940014800F911FDF91CF911F91A1
:102BF0000F910895CF938FE494E00E94760F892B74
:102C000021F18FE494E00E94540FC82F6CEC71E026
:102C10008CEE94E00E94F40E6C2F8CEE94E00E94F7
:102C2000ED0E61EC71E08CEE94E00E94F40E6C2FDE
:102C3000CC0F770B880B990B0E94B4146FEB71E0EB
:102C40008CEE94E00E94E615D6CFCF910895EF92D6
:102C5000FF920F931F93CF93DF937C018C01C8E009
:102C6000D0E0CE010E94F232F80181938F012196CB
:102C7000C831D105B1F7C701DF91CF911F910F91F5
:102C8000FF90EF900895CF92DF92EF92FF920F9313
:102C90001F93CF93DF93EB017B0124E0E20EF11C45
:102CA0008B016C01C61AD70AC601800F911F0E94C2
:102CB000F232F80181938F01EE15FF05A9F7CE01DD
:102CC000DF91CF911F910F91FF90EF90DF90CF9008
:102CD000089585ED8093BC008091C8039091C9034D
:102CE000A091CA03B091CB030796A11DB11D23E0AB
:102CF000B695A795979587952A95D1F72091BC0011
:102D000024FD03C01092C60308954091C80350915A
:102D1000C9036091CA037091CB03452B462B472B07
:102D200069F30097A105B10541F02AE22A95F1F770
:102D300000C00197A109B109E1CF8091C7030C94AC
:102D4000F511FF920F931F93CF93DF93EC01F62EB3
:102D500008811981C8010E94F232F81621F06F2D06
:102D6000C8010E94FA32CE01DF91CF911F910F91DD
:102D7000FF900895EF92FF920F931F93CF93DF93ED
:102D80001F921F92CDB7DEB780E2E82E82E0F82EC8
:102D900008E010E01A830983F70161917F01CE01F9
:102DA00001960E94A1160F5F1F4F0831110591F780
:102DB00080E292E00F900F90DF91CF911F910F91E1
:102DC000FF90EF900895CF93DF93CDB7DEB7609774
:102DD0000FB6F894DEBF0FBECDBF0E94BA16CE016B
:102DE00001960E94271660E272E0CE0101960E94D1
:102DF0009B36892B41F061E472E08CEE94E00E94F6
:102E0000E6150E94BA1660960FB6F894DEBF0FBEA4
:102E1000CDBFDF91CF910895AF92BF92CF92DF9255
:102E2000EF92FF920F931F93CF93DF931F921F9206
:102E3000CDB7DEB78B016B0124E0C20ED11C7B0144
:102E40005C01A61AB70AC5018E0D9F1D9A8389835E
:102E5000F70161917F01CE0101960E94A116EC1449
:102E6000FD0489F7C8010F900F90DF91CF911F915A
:102E70000F91FF90EF90DF90CF90BF90AF900895AB
:102E8000CF92DF92EF92FF920F931F93CF93DF9336
:102E900000D01F92CDB7DEB762E373E08CEE94E012
:102EA0000E94F40E40911C0250911D0260911E027E
:102EB00070911F028CEE94E00E94D11510E000E0AA
:102EC0006CE172E088E190E00E940C17BE016F5F38
:102ED0007F4F88E190E00E94431660E173E08CEE42
:102EE00094E00E94F40E0F5F1F4FB801012E000CFA
:102EF000880B990B0E94B4146CE073E08CEE94E0A4
:102F00000E94F40E49815A816B817C818CEE94E0A1
:102F10000E94D11520911C0230911D0240911E0289
:102F200050911F0269817A818B819C810E9422339A
:102F30006B017C0120E030E0A9010E9430341816BA
:102F4000ECF420E030E040E85FE3C701B6010E9406
:102F5000CB3187FF1DC061EE72E08CEE94E00E94E1
:102F6000E6150F900F900F900F90DF91CF911F916A
:102F70000F91FF90EF90DF90CF90089520E030E028
:102F800040E85FEBC701B6010E94303418161CF30D
:102F90006EEA72E08CEE94E00E94E61503301105B3
:102FA00009F08ECF65E772E0D8CFCF93DF9300D0E2
:102FB0001F92CDB7DEB768E172E084E090E00E9436
:102FC0000C17BE016F5F7F4F84E090E00E944316B4
:102FD000209118023091190240911A0250911B025F
:102FE00069817A818B819C810E94CB31882361F039
:102FF00066E072E08CEE94E00E94E61568E172E013
:1030000084E090E00E940C170F900F900F900F90AB
:10301000DF91CF910895EF92FF920F931F93CF937B
:10302000DF931F921F92CDB7DEB788E2E82E84E0CF
:10303000F82E02E010E01A830983F70161917F0105
:10304000CE0101960E94A1160F5F1F4F0630110599
:1030500091F70F900F90DF91CF911F910F91FF90FB
:10306000EF900895CF93DF931F921F92CDB7DEB7F5
:103070001A8219826DECCE0101960E94A11681E0A0
:1030800090E09A8389836BEACE0101960E94A11693
:103090000E940B180E94D5170E94E3160E94401749
:1030A00060E172E08CE190E00E940C176EED71E03F
:1030B0008CEE94E00E94E6150F900F90DF91CF9177
:1030C00008951F920F920FB60F9211240BB60F9214
:1030D0002F933F934F935F936F937F938F939F9320
:1030E000AF93BF93EF93FF938FE494E00E94960F0A
:1030F000FF91EF91BF91AF919F918F917F916F91D0
:103100005F914F913F912F910F900BBE0F900FBE8B
:103110000F901F9018951F920F920FB60F921124C7
:103120000BB60F922F938F939F93EF93FF93E091A2
:103130005F04F09160048081E0916504F091660481
:1031400082FD1DC09081809168048F5F8F732091F4
:103150006904821741F0E0916804F0E0E15BFB4F05
:10316000958F80936804FF91EF919F918F912F919C
:103170000F900BBE0F900FBE0F901F90189580817F
:10318000F2CF1F920F920FB60F9211240BB60F922F
:103190002F933F934F935F936F937F938F939F935F
:1031A000AF93BF93EF93FF938CEE94E00E94960F42
:1031B000FF91EF91BF91AF919F918F917F916F910F
:1031C0005F914F913F912F910F900BBE0F900FBECB
:1031D0000F901F9018951F920F920FB60F92112407
:1031E0000BB60F922F938F939F93EF93FF93E091E2
:1031F000FC04F091FD048081E0910205F09103054B
:1032000082FD1DC09081809105058F5F8F73209195
:103210000605821741F0E0910505F0E0E451FB4F0F
:10322000958F80930505FF91EF919F918F912F913D
:103230000F900BBE0F900FBE0F901F9018958081BE
:10324000F2CF1F920F920FB60F9211242F933F933C
:103250008F939F93AF93BF938091F1039091F2036B
:10326000A091F303B091F4033091F00323E0230F16
:103270002D3758F50196A11DB11D2093F0038093C1
:10328000F1039093F203A093F303B093F4038091BE
:10329000F5039091F603A091F703B091F80301961E
:1032A000A11DB11D8093F5039093F603A093F7033E
:1032B000B093F803BF91AF919F918F913F912F9160
:1032C0000F900FBE0F901F90189526E8230F0296BF
:1032D000A11DB11DD2CF1F920F920FB60F921124D4
:1032E0000BB60F922F933F934F935F936F937F9300
:1032F0008F939F93AF93BF93EF93FF93E0910E0251
:10330000F0910F021995FF91EF91BF91AF919F91AD
:103310008F917F916F915F914F913F912F910F907E
:103320000BBE0F900FBE0F901F9018951F920F921B
:103330000FB60F9211240BB60F922F933F934F931A
:103340005F936F937F938F939F93AF93BF93EF930D
:10335000FF93E0910C02F0910D021995FF91EF910E
:10336000BF91AF919F918F917F916F915F914F919D
:103370003F912F910F900BBE0F900FBE0F901F909B
:1033800018951F920F920FB60F9211240BB60F9241
:103390002F933F934F935F936F937F938F939F935D
:1033A000AF93BF93EF93FF93E0910202F09103027A
:1033B0001995FF91EF91BF91AF919F918F917F915F
:1033C0006F915F914F913F912F910F900BBE0F9096
:1033D0000FBE0F901F9018951F920F920FB60F926D
:1033E00011240BB60F922F933F934F935F936F93DC
:1033F0007F938F939F93AF93BF93EF93FF93E0914E
:103400000002F09101021995FF91EF91BF91AF91E8
:103410009F918F917F916F915F914F913F912F91EC
:103420000F900BBE0F900FBE0F901F9018951F921C
:103430000F920FB60F9211240BB60F922F933F935A
:103440004F935F936F937F938F939F93AF93BF93AC
:10345000EF93FF93E0910A02F0910B021995FF910F
:10346000EF91BF91AF919F918F917F916F915F91FC
:103470004F913F912F910F900BBE0F900FBE0F9069
:103480001F9018951F920F920FB60F9211240BB632
:103490000F922F933F934F935F936F937F938F93ED
:1034A0009F93AF93BF93EF93FF93E0910802F09146
:1034B00009021995FF91EF91BF91AF919F918F9163
:1034C0007F916F915F914F913F912F910F900BBE24
:1034D0000F900FBE0F901F9018951F920F920FB66E
:1034E0000F9211240BB60F922F933F934F935F933C
:1034F0006F937F938F939F93AF93BF93EF93FF93BC
:10350000E0910602F09107021995FF91EF91BF91AA
:10351000AF919F918F917F916F915F914F913F916B
:103520002F910F900BBE0F900FBE0F901F9018950C
:103530001F920F920FB60F9211240BB60F922F937A
:103540003F934F935F936F937F938F939F93AF932B
:10355000BF93EF93FF93E0910402F0910502199558
:10356000FF91EF91BF91AF919F918F917F916F915B
:103570005F914F913F912F910F900BBE0F900FBE17
:103580000F901F9018951F920F920FB60F92112453
:103590000F900FBE0F901F9018951F920F920FB6AD
:1035A0000F9211240BB60F922F933F934F935F937B
:1035B0006F937F938F939F93AF93BF93EF93FF93FB
:1035C0008091B900887F803609F44DC008F040C072
:1035D000883209F4A9C028F5803109F49DC0C8F4E7
:1035E000882309F4FBC0883009F496C0FF91EF915D
:1035F000BF91AF919F918F917F916F915F914F910B
:103600003F912F910F900BBE0F900FBE0F901F9008
:103610001895883109F488C0803241F78093C4033B
:1036200014C0803409F49DC040F48033B9F388336A
:10363000E9F68093C40385ECB0C0803509F485C0F9
:10364000883509F496C0883489F60E946916CECF71
:10365000883909F48CC038F5883729F050F4883659
:1036600011F0803719F683E08093C60310929F0310
:1036700057C0883809F47BC0803919F0803809F0C8
:10368000B5CF80919F03803208F071C0E0919F0315
:1036900081E08E0F80939F038091BB00F0E0E158A2
:1036A000FC4F80833DC0803B39F0E0F4803A09F460
:1036B00079C0883A09F09ACF84E08093C6031092CB
:1036C0007E0310927D03E091F903F091FA031995BE
:1036D00080917D0381110FC081E080937D03109262
:1036E0005D0309C0803C09F4A6CF883C09F4A3CF50
:1036F000883B09F07BCFE0917E0381E08E0F8093C1
:103700007E03F0E0E35AFC4F80818093BB009091F0
:103710007E0380917D0329C08091A1038093BB002B
:1037200085EC8093BC0062CF9091C3038091C2036B
:10373000981758F5E091C30381E08E0F8093C3037F
:10374000F0E0EE55FC4F8081E9CFE091C30381E0CA
:103750008E0F8093C3038091BB00F0E0EE55FC4FC9
:1037600080839091C3038091C2039817C8F285E8C3
:10377000D8CFE091C30381E08E0F8093C303809183
:10378000BB00F0E0EE55FC4F80838091C5038111B2
:103790005CCF81E08093A00384EA8093BC00109208
:1037A000C60324CF85EC8093BC001092C6038091A1
:1037B0009F03803230F4E0919F03F0E0E158FC4F2A
:1037C000108260919F0370E0E091FB03F091FC0395
:1037D0008FE793E0199510929F0308CF1092C403CE
:1037E00034CF109252041092510488EE93E0A0E07E
:1037F000B0E08093530490935404A0935504B09385
:10380000560422E432E03093500420934F044DECF0
:1038100050E050935C0440935B044CEC50E05093B8
:103820005E0440935D0448EC50E050936004409384
:103830005F0449EC50E050936204409361044AEC09
:1038400050E050936404409363044EEC50E0509376
:103850006604409365041092680410926904109203
:103860006A0410926B041092EF041092EE0480939D
:10387000F0049093F104A093F204B093F304309316
:10388000ED042093EC0425EC30E03093F904209310
:10389000F80424EC30E03093FB042093FA0420EC8D
:1038A00030E03093FD042093FC0421EC30E03093B1
:1038B000FF042093FE0422EC30E0309301052093B6
:1038C000000526EC30E030930305209302051092AA
:1038D0000505109206051092070510920805109232
:1038E0008C0510928B0580938D0590938E05A09387
:1038F0008F05B093900584E592E090938A058093BC
:10390000890510929E0510929D0586E692E090939F
:103910009C0580939B0587E280939F0580E18093BF
:10392000A40582E08093A5051092A6051092960545
:1039300010929505109298051092970510929A058D
:103940001092990568E570E090E080E00E94B13542
:10395000009701F1909396058093950527E530E057
:1039600030939805209397052091990530919A05F9
:10397000232B11F4FC01108287E590E090939A05C7
:10398000809399056DE772E0809195059091960579
:103990000C94A4368091950590919605009711F0AE
:1039A0000E942835109296051092950510929A055E
:1039B0001092990510929805109297050895CF934B
:1039C000DF9300D000D0CDB7DEB7789484B58260A5
:1039D00084BD84B5816084BD85B5826085BD85B5B3
:1039E000816085BD80916E00816080936E00109231
:1039F00081008091810082608093810080918100AC
:103A0000816080938100809180008160809380003C
:103A10008091B10084608093B1008091B00081609A
:103A20008093B0008091910082608093910080919A
:103A300091008160809391008091900081608093DB
:103A400090008091A10082608093A1008091A100EC
:103A500081608093A1008091A00081608093A0008C
:103A600080912101826080932101809121018160F8
:103A700080932101809120018160809320018091B9
:103A80007A00846080937A0080917A0082608093CB
:103A90007A0080917A00816080937A0080917A0028
:103AA000806880937A001092C10088E199E20FB695
:103AB000F894A895809360000FBE909360008CEE00
:103AC00094E00E94B90E109200041092FF0310922D
:103AD000FE031092FD030E94D7118BEE9EE090939F
:103AE000FA038093F9038CEE9EE09093FC0380939D
:103AF000FB030E94D7111092A0058091A50582308A
:103B000018F098E09093A0058093A30562E370E01D
:103B100080E090E00E9471116091A6058BE995E02C
:103B20000E949C1268EE73E080E090E00E947111A8
:103B300060E38BE995E00E948E130BE416E4C80164
:103B40000197F1F760E38BE995E00E948E13C801BD
:103B50000197F1F760E38BE995E00E948E1383E50E
:103B600092E00197F1F760E28BE995E00E948E13F5
:103B70006091A005606240E08BE995E00E94A71388
:103B800084E08093A10540E06CE08BE995E00E9421
:103B9000A7130E94EF1382E08093A20540E066E045
:103BA0008BE995E00E94A71340E062E08BE995E085
:103BB0000E94A7138BE39FE10197F1F70E94831303
:103BC00062E082E00E94101161E089E00E94101121
:103BD00061E08AE00E94101161E08BE00E94101108
:103BE00061E088E00E94101160E083E00E94101103
:103BF00060E08CE00E94101160E084E00E941011EF
:103C000060E089E00E94E21060E08AE00E94E21039
:103C100060E08BE00E94E21060E088E00E94E21029
:103C200090E080E00E94F232898381E090E00E947F
:103C3000F2328A8309811A810D3C2BEA120709F0BE
:103C4000D9C482E090E00E94F2328093280483E09D
:103C500090E00E94F2328093290484E090E00E9478
:103C6000F23280932A0485E090E00E94F232809341
:103C70002B046FE475E08CEE94E00E94F40E40910A
:103C800028045091290460912A0470912B048CEE31
:103C900094E00E945B1468E172E084E090E00E948E
:103CA000431661E075E08CEE94E00E94F40E4091C2
:103CB00018025091190260911A0270911B028CEE49
:103CC00094E00E94D115C0901802D0901902E090A3
:103CD0001A02F0901B02A7019601C701B6010E94CB
:103CE0003534811114C02DEC3CEC4CEC5DE3C70184
:103CF000B6010E94CB3187FD0AC020E030E040E2EF
:103D000051E4C701B6010E943034181694F480E0E3
:103D100090E0A0E8BFE38093180290931902A0936B
:103D20001A02B0931B0268E172E084E090E00E9406
:103D30000C1780E292E00E94271666EF74E08CEE8A
:103D400094E00E94F40E60E272E08CEE94E00E9437
:103D500000146EE672E08CEE94E00E9400148091F4
:103D60002002811108C065ED72E080E292E00E94BD
:103D7000A4360E94BA166CE172E088E190E00E94DD
:103D8000431663ED74E08CEE94E00E94F40E4091D3
:103D90001C0250911D0260911E0270911F028CEE58
:103DA00094E00E94D115C0901C02D0901D02E090BA
:103DB0001E02F0901F02A7019601C701B6010E94E2
:103DC0003534811114C020E030E040E85FE3C701E2
:103DD000B6010E94CB3187FD0AC020E030E44CE1FF
:103DE00056E4C701B6010E9430341816C4F461EAE3
:103DF00074E08CEE94E00E94E61580E090E0A8E488
:103E0000B2E480931C0290931D02A0931E02B09313
:103E10001F026CE172E088E190E00E940C1760E103
:103E200072E08CE190E00E944316C0901002D090A6
:103E30001102E0901202F0901302A7019601C7014F
:103E4000B6010E943534811113C020E030E0A90191
:103E5000C701B6010E94CB3187FD0AC020E030E0E7
:103E600040E251E4C701B6010E943034181694F4C0
:103E700080E090E0A0ECBFE38093100290931102E9
:103E8000A0931202B093130260E172E08CE190E023
:103E90000E940C176EE874E08CEE94E00E94F40E21
:103EA0004091100250911102609112027091130220
:103EB0008CEE94E00E94D1150D3C1B4A51F01092FB
:103EC00028041092290410922A0410922B040E94B4
:103ED000321860E080E00E94BE136DE675E08BE969
:103EE00095E00E94F40E61E085E00E94BE1364E656
:103EF00075E08BE995E00E94F40E60ED77E080E0DC
:103F000090E00E94711161E089E00E94E2100E943D
:103F1000EF1380E794E19093010280930002809177
:103F20006A008C7F826080936A00EC9A80EE9EE04B
:103F3000909303028093020280916A00837F8860DD
:103F400080936A00ED9A0E94A311609335047093E8
:103F5000360480933704909338048FE494E00E94F1
:103F6000B90E64E670E080E090E00E9471118AEE84
:103F7000282E8EE0382EA8958FE494E00E94760FCC
:103F8000892B51F00E94A311609340047093410467
:103F9000809342049093430480914E04882309F453
:103FA00038C30E94A311C0904004D0904104E09017
:103FB0004204F09043046C197D098E099F09603C0E
:103FC000744D8140910508F424C30E94321861E0C9
:103FD00088E00E94E21068EC70E080E090E00E94CF
:103FE000711160E088E00E94E21010924E0410927D
:103FF00023041092220410922104109220041092A3
:104000001F040E9483130E94EF1360E080E00E946F
:10401000BE136BE67CE18BE995E00E94F40E61E053
:1040200080E00E94BE1369E57CE18BE995E00E9487
:10403000F40E0E94EF1369E27CE18FE494E00E94A9
:10404000E61562E17CE18FE494E00E94E6156CEEF7
:104050007BE18FE494E00E94E61564ED7BE18FE460
:1040600094E00E94E61562ED7BE18FE494E00E940B
:10407000F40E10921E0410921D040E94FA158091F5
:104080004E0481110C94E62A61E089E00E94E2105E
:104090000E94A311C0904604D0904704E0904804C9
:1040A000F09049046C197D098E099F0968357240AA
:1040B0008105910508F45DC060E080E00E94BE13B8
:1040C00068ED7CE18BE995E00E94F40EC0909905C3
:1040D000D0909A05F12CE12C8091440490914504F4
:1040E0008E0D9F1DB6010E943A345C0160E08E2D5A
:1040F0000E94BE138091990590919A05A816B90661
:1041000040F4E0919505F0919605309711F00C94EC
:10411000A72F10923F04EFE3F4E060818BE995E074
:104120000E94ED0EEFEFEE1AFE0AF0E1EF16F10439
:1041300099F680914404909145040196B6010E943D
:104140003A3490934504809344040E94A3116093F1
:1041500046047093470480934804909349040E9456
:10416000A3116093400470934104809342049093A0
:10417000430461E080E00E94BE136CEF7CE18BE9B8
:1041800095E00E94F40E40914A0450914B046091D6
:104190004C0470914D042AE08BE995E00E940F14C5
:1041A0008CE00E94B9107C0180904A0490904B04EE
:1041B000A0904C04B0904D0420EA821626E89206A6
:1041C00021E0A206B10490F060E089E00E94E210D4
:1041D00061E088E00E94E21068EC70E080E090E02E
:1041E0000E94711160E088E00E94E210EF2811F057
:1041F0000C94E62AB501A4018CEE94E00E945B14B5
:1042000061E088E00E94E21068EC70E080E090E0FD
:104210000E94711160E088E00E94E21080914A04DF
:1042200090914B04A0914C04B0914D0482339105C0
:10423000A105B10510F40C94003060E089E00E9403
:10424000E21061E088E00E94E21068EC70E080E03B
:1042500090E00E94711160E088E00E94E2100E94EC
:10426000EF1360E080E00E94BE1369EC7CE18BE913
:1042700095E00E94F40E61E08AE00E94E210109244
:104280003B0410923C0410923D0410923E041092A4
:104290003A04109239040E94A3116093350470937C
:1042A0003604809337049093380460914A047091E7
:1042B0004B0480914C0490914D040E94D031609346
:1042C000310470933204809333049093340420912A
:1042D0001C0230911D0240911E0250911F020E944B
:1042E0008F334B015C0110923004A8950E94A311FA
:1042F000C0903504D0903604E0903704F090380434
:104300006C197D098E099F09683E734081059105EE
:1043100060F3ED983092030220920202609139041A
:1043200070913A04072E000C880B990B0E94D23131
:10433000209118023091190240911A0250911B02EB
:104340000E948F3360932C0470932D0480932E046D
:1043500090932F0420E030E040E752E40E948F3336
:1043600020913B0430913C0440913D0450913E0427
:104370000E9423336B017C01C0923B04D0923C0429
:10438000E0923D04F0923E0480911C0290911D0247
:10439000A0911E02B0911F028B839C83AD83BE83CC
:1043A00083E193E00E94E6146091390470913A042D
:1043B000072E000C880B990B0E94B4146EE672E075
:1043C0008CEE94E00E94001480E293E00E94E614D8
:1043D00040912C0450912D0460912E0470912F0473
:1043E0008CEE94E00E94D1158BE293E00E94E614DB
:1043F000B701A6018CEE94E00E94D11510923A0408
:10440000109239040E94A31160933504709336040E
:104410008093370490933804A0EEBEE0B09303027B
:10442000A093020280916A00837F886080936A0073
:10443000ED9A20911402309115024091160250918C
:104440001702C701B6010E9422332B013C0120E074
:1044500030E0A9010E943034181614F00C94AB2FF0
:104460002AE037ED43E25CE3C301B2010E9430343D
:1044700087FD02C00C94B72FA7019601C501B401B6
:104480000E94CB31181614F00C94B72F8091300491
:10449000811121C02091100230911102409112022D
:1044A00050911302C501B4010E9422339B01AC015B
:1044B000C701B6010E94303487FD0DC081E08093B2
:1044C000300460E08AE00E94E21065E97CE18CEE55
:1044D00094E00E94E615A7019601C501B4010E946F
:1044E000CB3118160CF401CF60E08AE00E94E21094
:1044F00010923A04109239040E94A311609335047B
:10450000709336048093370490933804E0EEFEE015
:10451000F0930302E093020280916A00837F886037
:1045200080936A00ED9A1092300460912804709193
:10453000290480912A0490912B040E94D03120916B
:1045400031043091320440913304509134040E947C
:1045500023330E94013460932804709329048093CC
:104560002A0490932B040E940B18109230040E948E
:10457000EF1360E083E00E94BE1369E87CE18BE901
:1045800095E00E94F40E61E082E00E94BE136DE7A8
:104590007CE18BE995E00E94F40E68E873E180E02D
:1045A00090E00E9471110E94EF1310924A04109241
:1045B0004B0410924C0410924D041092240410925B
:1045C00025041092260410922704109231041092B0
:1045D0003204109233041092340410923B0410926F
:1045E0003C0410923D0410923E0410923A04109242
:1045F0003904ECC766E175E08CEE94E00E94E615A4
:10460000109228041092290410922A0410922B046C
:1046100042CB84E00E94B910892B09F067C18091D8
:104620001C04811107C10E94A311609318047093A8
:10463000190480931A0490931B0481E080931C0456
:104640000E94A311C0901404D0901504E0901604A9
:10465000F09017046C197D098E099F096A30710565
:104660008105910508F40BCD8FE494E00E94760F4C
:10467000892B09F404CD0E94A31160931404709354
:10468000150480931604909317048FE494E00E941D
:10469000540F182F61EC7BE18CEE94E00E94F40E35
:1046A000612F8CEE94E00E94ED0E66EB7BE18CEEC8
:1046B00094E00E94F40E612F012E000C770B880B02
:1046C000990B0E94B41464EB7BE18CEE94E00E94A1
:1046D000E61580914E04811137C180911D0490919F
:1046E0001E041A3019F01D3009F01EC118161906E3
:1046F0000CF0CACC8C5F9B4FFC01108261EA7BE11D
:104700008CEE94E00E94F40E84E094E00E94E614A3
:104710006FE97BE18CEE94E00E94E61560E272E0C6
:1047200084E094E00E949B36892B09F0E2C061E0AE
:1047300088E00E94E21068EC70E080E090E00E9467
:10474000711160E088E00E94E21081E080934E04E5
:10475000809323040E94EF131092A60560E08BE97A
:1047600095E00E949C126DE67BE18FE494E00E944C
:10477000E6156BE67BE18FE494E00E94E6156DE5BB
:104780007BE18FE494E00E94E6156BE57BE18FE42A
:1047900094E00E94E61565E47BE18FE494E00E94DA
:1047A000F40E40911C0250911D0260911E02709106
:1047B0001F028FE494E00E94D11560E37BE18FE457
:1047C00094E00E94F40E40911802509119026091F9
:1047D0001A0270911B028FE494E00E94D11566E1E9
:1047E0007BE18FE494E00E94F40E4091100250911E
:1047F000110260911202709113028FE494E00E9402
:10480000D11564E17BE18FE494E00E94E61564EA4F
:104810007AE18FE494E00E94E61562EA7AE18FE49F
:1048200094E00E94E61565E27AE18FE494E00E944C
:10483000E6151FCC0E94A311C0901804D090190453
:10484000E0901A04F0901B046C197D098E099F09F1
:10485000683873418105910508F4F2CE65ED72E088
:1048600080E292E00E94A4360E94E31661E088E0B4
:104870000E94E21068EC70E080E090E00E9471110C
:1048800060E088E00E94E21068EC70E080E090E078
:104890000E94711161E088E00E94E21068EC70E013
:1048A00080E090E00E94711160E088E00E94E210D8
:1048B0006EEC75E08FE494E00E94E61569EB75E01C
:1048C0008FE494E00E94E6156EE975E08FE494E0D1
:1048D0000E94E61560E875E08FE494E00E94E6151A
:1048E0006EE775E08FE494E00E94E61510921C04D8
:1048F000A7CE63E27AE18FE494E00E94E61561E0DE
:104900007AE18FE494E00E94E61567ED79E18FE4A7
:1049100094E00E94E61567E979E18FE494E00E9453
:10492000E61565E979E181CF8F3091050CF0ACCBCC
:104930009C012F5F3F4F30931E0420931D048C5F1A
:104940009B4FDC011C939BCB80912304882309F4AB
:10495000FDC180911D0490911E041A3019F01D3084
:1049600009F086C5181619060CF030C68C5F9B4FEF
:10497000FC01108262E879E18CEE94E00E94F40E72
:1049800084E094E00E94E61460E879E18CEE94E023
:104990000E94E6156AED72E084E094E00E949B3686
:1049A000892B71F51092230481E08093030461E068
:1049B00088E00E94E21068EC70E080E090E00E94E5
:1049C000711160E088E00E94E2106EE779E18FE407
:1049D00094E00E94E61569E379E18FE494E00E9497
:1049E000E61567E379E18FE494E00E94E6156CEE4A
:1049F00078E18FE494E00E94E6156AEE78E115CF45
:104A000060EE72E084E094E00E949B36892B71F5A1
:104A10001092230481E08093220461E088E00E94E8
:104A2000E21068EC70E080E090E00E94711160E0BC
:104A300088E00E94E21069EE78E18FE494E00E9441
:104A4000E6156FE978E18FE494E00E94E6156EE9DF
:104A500078E18FE494E00E94E61567E578E18FE461
:104A600094E00E94E61566E578E1DFCE6AEE72E03A
:104A700084E094E00E949B36892B11F51092230468
:104A800081E08093210461E088E00E94E21068ECFC
:104A900070E080E090E00E94711160E088E00E9488
:104AA000E21064E578E18FE494E00E94E6156EE0A0
:104AB00078E18FE494E00E94E6156CE078E1B5CEF1
:104AC00062EF72E084E094E00E949B36892BD1F57E
:104AD0001092230481E08093200461E088E00E942A
:104AE000E21068EC70E080E090E00E94711160E0FC
:104AF00088E00E94E2106AE078E18FE494E00E948E
:104B0000E61568EF77E18FE494E00E94F40E40919F
:104B100028045091290460912A0470912B048FE499
:104B200094E00E945B1466EF77E18FE494E00E94CA
:104B3000E61560EB77E18FE494E00E94E6156EEAFB
:104B400077E173CE6AEF72E084E094E00E949B36D6
:104B5000892B09F054C01092280410922904109255
:104B60002A0410922B040E94321861E088E00E940F
:104B7000E21068EC70E080E090E00E94711160E06B
:104B800088E00E94E2106CEA77E18FE494E00E94F2
:104B9000E6156FE977E18FE494E00E94E6156DE990
:104BA00077E18FE494E00E94E61567E877E18FE40F
:104BB00094E00E94F40E40912804509129046091E1
:104BC0002A0470912B048FE494E00E945B1465E842
:104BD00077E18FE494E00E94E61568E477E18FE4E2
:104BE00094E00E94E61566E477E18FE494E00E9489
:104BF000E6151092230481E080931F043ACA60E016
:104C000073E084E094E00E949B36892BB9F50E9402
:104C1000321861E088E00E94E21068EC70E080E009
:104C200090E00E94711160E088E00E94E210109212
:104C30004E04109223040E94831364E477E18FE40E
:104C400094E00E94E61564E377E18FE494E00E942B
:104C5000E6156DE177E18FE494E00E94E61567EFD9
:104C600076E18FE494E00E94E6156CED76E18FE446
:104C700094E00E94E6156AED76E1D7CD65E073E039
:104C800084E094E00E949B36892B09F04EC010927C
:104C900023041092220410922104109220041092F6
:104CA0001F0481E08093020461E088E00E94E2102A
:104CB00068EC70E080E090E00E94711160E088E0B4
:104CC0000E94E21068ED76E18FE494E00E94E61520
:104CD0006AEB76E18FE494E00E94E61569EA76E1FA
:104CE0008FE494E00E94F40E409110025091110262
:104CF00060911202709113028FE494E00E94D1152A
:104D000065E876E18FE494E00E94E61564E876E1D8
:104D10008FE494E00E94E61567E476E18FE494E086
:104D20000E94E61565E476E180CD63EE75E18FE4DF
:104D300094E00E94E61561EE75E18FE494E00E9434
:104D4000E61510921E0410921D0499C98091030467
:104D5000882309F4DEC180911D0490911E041A304D
:104D600019F01D3009F084C3181619060CF02EC472
:104D70008C5F9B4FFC0110826EEC75E18CEE94E031
:104D80000E94F40E84E094E00E94E6146CEC75E15D
:104D90008CEE94E00E94E6156AED72E084E094E007
:104DA0000E949B36892B41F51092030481E0809389
:104DB000230461E088E00E94E21068EC70E080E08B
:104DC00090E00E94711160E088E00E94E2106AECBD
:104DD00075E18FE494E00E94E61565E875E18FE4E3
:104DE00094E00E94E61564E875E18FE494E00E9487
:104DF000E61569E375E119CD60EE72E084E094E0B8
:104E00000E949B36892B41F51092030481E0809328
:104E1000220461E088E00E94E21068EC70E080E02B
:104E200090E00E94711160E088E00E94E21067E368
:104E300075E18FE494E00E94E6156DEE74E18FE475
:104E400094E00E94E6156CEE74E18FE494E00E9419
:104E5000E61565EA74E1E9CC6AEE72E084E094E07C
:104E60000E949B36892B11F51092030481E08093F8
:104E7000210461E088E00E94E21068EC70E080E0CC
:104E800090E00E94711160E088E00E94E21063EA05
:104E900074E18FE494E00E94E6156DE574E18FE41F
:104EA00094E00E94E6156CE574E1BFCC62EF72E01D
:104EB00084E094E00E949B36892BD1F51092030484
:104EC00081E08093200461E088E00E94E21068ECB9
:104ED00070E080E090E00E94711160E088E00E9444
:104EE000E2106BE574E18FE494E00E94E61569E45A
:104EF00074E18FE494E00E94F40E409128045091F4
:104F0000290460912A0470912B048FE494E00E949C
:104F10005B1468E474E18FE494E00E94E61562E0BB
:104F200074E18FE494E00E94E61560E074E17DCCCA
:104F30006AEF72E084E094E00E949B36892B09F0CE
:104F40004BC0109228041092290410922A04109247
:104F50002B040E94321861E088E00E94E21068ECA5
:104F600070E080E090E00E94711160E088E00E94B3
:104F7000E21063EF73E18FE494E00E94E61562EFC4
:104F800073E18FE494E00E94E6156CED73E18FE429
:104F900094E00E94F40E40912804509129046091FD
:104FA0002A0470912B048FE494E00E945B146BED53
:104FB00073E18FE494E00E94E6156EE973E18FE4FB
:104FC00094E00E94E6156CE973E18FE494E00E949E
:104FD000E615109203040FCE60E073E084E094E0E5
:104FE0000E949B36892BB9F50E94321861E088E057
:104FF0000E94E21068EC70E080E090E00E94711185
:1050000060E088E00E94E21010924E0410920304C7
:105010000E9483136AE973E18FE494E00E94E6152D
:105020006AE873E18FE494E00E94E61563E773E1B8
:105030008FE494E00E94E6156DE473E18FE494E060
:105040000E94E61565E373E18FE494E00E94E615A3
:1050500063E373E1EACB84E094E00E9448306B01A3
:105060007C012AE037ED43E25CE30E94303487FDA7
:1050700047C020E030E44CE156E4C701B6010E948D
:10508000CB311816ECF1C0921C02D0921D02E092B6
:105090001E02F0921F020E94401761E088E00E9409
:1050A000E21068EC70E080E090E00E94711160E036
:1050B00088E00E94E2106FE073E18FE494E00E94C8
:1050C000F40E40911C0250911D0260911E027091DD
:1050D0001F028FE494E00E94D1156DE073E18FE42C
:1050E00094E00E94E6156CEB72E18FE494E00E947C
:1050F000E6151092030481E0809323040C94392078
:1051000067E472E18FE494E00E94E61565E472E1E1
:1051100014CE80912204882309F4DBC180911D0400
:1051200090911E041A3019F01D3009F0A1C1181613
:1051300019060CF04BC28C5F9B4FFC01108268E299
:1051400072E18CEE94E00E94F40E84E094E00E9400
:10515000E61466E272E18CEE94E00E94E6156AEDD8
:1051600072E084E094E00E949B36892B41F5109216
:10517000220481E08093230461E088E00E94E21031
:1051800068EC70E080E090E00E94711160E088E0DF
:105190000E94E21064E272E18FE494E00E94E6155E
:1051A0006FED71E18FE494E00E94E6156EED71E120
:1051B0008FE494E00E94E61563E971E136CB62EF7B
:1051C00072E084E094E00E949B36892BD1F5109226
:1051D000220481E08093200461E088E00E94E210D4
:1051E00068EC70E080E090E00E94711160E088E07F
:1051F0000E94E21062E971E18FE494E00E94E615FA
:1052000060E871E18FE494E00E94F40E409128047C
:105210005091290460912A0470912B048FE494E04A
:105220000E945B146FE771E18FE494E00E94E61541
:1052300069E371E18FE494E00E94E61567E371E1B0
:10524000F4CA6AEF72E084E094E00E949B36892BF6
:1052500009F04BC0109228041092290410922A04DD
:1052600010922B040E94321861E088E00E94E21044
:1052700068EC70E080E090E00E94711160E088E0EE
:105280000E94E2106AE271E18FE494E00E94E61568
:1052900069E271E18FE494E00E94E61563E171E157
:1052A0008FE494E00E94F40E409128045091290468
:1052B00060912A0470912B048FE494E00E945B14A7
:1052C00062E171E18FE494E00E94E61565ED70E122
:1052D0008FE494E00E94E61563ED70E18FE494E0C2
:1052E0000E94E6151092220486CC60E073E084E010
:1052F00094E00E949B36892BB9F50E94321861E038
:1053000088E00E94E21068EC70E080E090E00E948B
:10531000711160E088E00E94E21010924E04109239
:1053200022040E94831361ED70E18FE494E00E94F7
:10533000E61561EC70E18FE494E00E94E6156AEAFC
:1053400070E18FE494E00E94E61564E870E18FE478
:1053500094E00E94E6156CE670E18FE494E00E9410
:10536000E6156AE670E161CA6AEE72E084E094E0F4
:105370000E949B36892B11F51092220481E08093C4
:10538000210461E088E00E94E21068EC70E080E0B7
:1053900090E00E94711160E088E00E94E21068E6EF
:1053A00070E18FE494E00E94E61562E270E18FE420
:1053B00094E00E94E61560E270E137CA84E094E070
:1053C0000E9448306B017C012DEC3CEC4CEC5DE321
:1053D0000E94303487FD43C020E030E040E251E4D9
:1053E000C701B6010E94CB311816CCF1C092180249
:1053F000D0921902E0921A02F0921B020E94D51775
:1054000061E088E00E94E21068EC70E080E090E0EB
:105410000E94711160E088E00E94E2106DEF7FE071
:105420008FE494E00E94F40E40911802509119020A
:1054300060911A0270911B028FE494E00E94D115D2
:105440006BEF7FE08FE494E00E94E61568EB7FE06D
:105450008FE494E00E94E615109222044CCE65E49D
:105460007FE08FE494E00E94E61563E47FE065CC82
:10547000803191050CF0AAC0212F012E000C330BB6
:10548000205331092A30310508F452CA1E3209F47A
:105490004FCA2EE8210F243008F44ACA193609F4FD
:1054A00047CA2BE9210F223008F442CA2FE9210F05
:1054B000233008F43DCA1C3609F43ACA22E9210F08
:1054C000233008F435CA29E8210F223008F07EC0C5
:1054D0002FCA80910204882309F47CC080911D04A6
:1054E00090911E041A3019F01D3009F06BC0181687
:1054F00019060CF06BC08C5F9B4FFC01108284E09E
:1055000094E00E9448306B017C0120E030E0A9016A
:105510000E94303487FD53C020E030E040E251E487
:10552000C701B6010E94CB3118160CF448C0C092D6
:105530001002D0921102E0921202F092130260E186
:1055400072E08CE190E00E940C1761E088E00E941C
:10555000E21068EC70E080E090E00E94711160E081
:1055600088E00E94E21064E27FE08FE494E00E9411
:10557000F40E40911002509111026091120270914C
:1055800013028FE494E00E94D11562E27FE08FE481
:1055900094E00E94E6151092020481E080932304B7
:1055A00061E27FE08FE494E00E94E61564EE7EE025
:1055B0008FE494E00E94E61562EE7EE036C963EC6B
:1055C0007EE033C98A3091050CF4B2C90E942510DF
:1055D0000C94BB1F80912104882309F460C0809142
:1055E0001D0490911E041A3019F01D3009F052C0AC
:1055F000181619065CF78C5F9B4FFC0110826CEA51
:105600007EE08CEE94E00E94F40E84E094E00E9430
:10561000E6146AEA7EE08CEE94E00E94E615809142
:105620001D0490911E0404970C9758F564E074E0F3
:1056300080E292E00E94A4360E94E31661E088E0D6
:105640000E94E21068EC70E080E090E00E9471112E
:1056500060E088E00E94E2106EE87EE08FE494E073
:105660000E94E6156CE87EE08FE494E00E94E61567
:1056700066E47EE08FE494E00E94E6151092210437
:105680003ACD66E17EE08FE494E00E94E61564E1A5
:105690007EE0CBC88F3091050CF098CF49C980913E
:1056A0000104882309F4E8C180911D0490911E042F
:1056B0001A3019F01D3009F0AFC1181619060CF098
:1056C00085CF8C5F9B4FFC01108265E07EE08CEE05
:1056D00094E00E94F40E84E094E00E94E61463E0FB
:1056E0007EE08CEE94E00E94E6156EE073E084E0CC
:1056F00094E00E949B36892B39F50E9432180E9453
:10570000EF1361E088E00E94E21068EC70E080E056
:1057100090E00E94711160E088E00E94E21061E078
:105720007EE08FE494E00E94E61560EA7DE08FE47D
:1057300094E00E94E6156EE97DE08FE494E00E941B
:10574000E61510920104D7CC6AED72E084E094E093
:105750000E949B36892B41F51092010481E08093D1
:10576000230461E088E00E94E21068EC70E080E0D1
:1057700090E00E94711160E088E00E94E2106CE904
:105780007DE08FE494E00E94E61567E57DE08FE41C
:1057900094E00E94E61566E57DE08FE494E00E94C7
:1057A000E6156BE07DE041C860EE72E084E094E0D5
:1057B0000E949B36892B41F51092010481E0809371
:1057C000220461E088E00E94E21068EC70E080E072
:1057D00090E00E94711160E088E00E94E21069E0B0
:1057E0007DE08FE494E00E94E6156FEB7CE08FE4AF
:1057F00094E00E94E6156EEB7CE08FE494E00E945A
:10580000E61567E77CE011C862EF72E084E094E09F
:105810000E949B36892BA9F51092010481E08093A8
:10582000200461E088E00E94E21068EC70E080E013
:1058300090E00E94711160E088E00E94E21066E74B
:105840007CE08FE494E00E94E61564E67CE08FE45F
:1058500094E00E94F40E4091280450912904609134
:105860002A0470912B048FE494E00E945B1463E699
:105870007CE08FE494E00E94E61569E27CE00C9401
:1058800015246AEF72E084E094E00E949B36892B35
:1058900009F045C0109228041092290410922A049D
:1058A00010922B040E94EF1361E088E00E94E21046
:1058B00068EC70E080E090E00E94711160E088E0A8
:1058C0000E94E21067E27CE08FE494E00E94E6151B
:1058D00069EE7BE08FE494E00E94E61568EE7BE0E1
:1058E0008FE494E00E94E61562ED7BE08FE494E0A3
:1058F0000E94F40E409128045091290460912A04DA
:1059000070912B048FE494E00E945B1461ED7BE0C6
:105910008FE494E00E94E615109201046CC96AEECF
:1059200072E084E094E00E949B36892B19F5109276
:10593000010481E08093210461E088E00E94E2108C
:1059400068EC70E080E090E00E94711160E088E017
:105950000E94E2106FEC7BE08FE494E00E94E61579
:1059600069E87BE08FE494E00E94E61568E87BE05C
:105970000C94152460E073E084E094E00E949B3670
:10598000892B09F040C00E94321861E088E00E9433
:10599000E21068EC70E080E090E00E94711160E03D
:1059A00088E00E94E21010924E04109201041092BE
:1059B00023041092030410922004109222040E94E7
:1059C000831366E87BE08FE494E00E94E61566E7C7
:1059D0007BE08FE494E00E94E6156FE57BE08FE4C6
:1059E00094E00E94E61569E37BE08FE494E00E9476
:1059F000E61561E27BE08FE494E00E94E6156FE13A
:105A00007BE00C94152465EB7AE08FE494E00E942F
:105A1000E61563EB7AE091C9803191050CF0D6CDA3
:105A2000212F012E000C330B205331092A30310570
:105A300010F40C9498242FE9210F233010F40C94C7
:105A400098242BE9210F223010F40C9498242EE88E
:105A5000210F273010F40C949824193611F40C946B
:105A600098241C3611F40C94982422E9210F233039
:105A700008F0ACCD0C94982480912004882309F47C
:105A800050C180911D0490911E041A3019F01D30F0
:105A900009F04DC2181619060CF098CD8C5F9B4F7B
:105AA000FC01108261EA7AE08CEE94E00E94F40E30
:105AB00084E094E00E94E6146FE97AE08CEE94E0D2
:105AC0000E94E6156AED72E084E094E00E949B3645
:105AD000892B49F51092200481E08093230461E032
