:100000000C9495000C94B4080C948D080C94BD00CD
:100010000C94BD000C94BD000C94BD000C94BD006C
:100020000C94BD000C94BD000C94BD000C94BD005C
:100030000C94BD000C94BD000C94BD000C94BD004C
:100040000C9443080C94BD000C9411080C94EB071D
:100050000C94BD000C94BD000C94BD000C94BD002C
:100060000C94DB080C94BD00000000002400270065
:100070002A0000000000250028002B0004040404CE
:100080000404040402020202020203030303030342
:10009000010204081020408001020408102001021F
:1000A00004081020000000080002010000030407FB
:1000B00000000000000000003D3D3D205359535416
:1000C000454D205245414459203D3D3D003D3D3D7B
:1000D000204152544946494349414C2048454152E8
:1000E0005420424F4F54494E47203D3D3D00207C17
:1000F0002000207C20414C4552543A002053323A93
:1001000000206D4C2F73207C2053313A0020523A4E
:1001100000206D6D4867207C204C3A0020503A004A
:1001200042504D3A0000FA09681211241FBECFEF69
:10013000D8E0DEBFCDBF13E0A0E0B1E0E4E8FEE22E
:1001400002C005900D92AA38B107D9F725E0AAE8B8
:10015000B3E001C01D92A034B207E1F710E0C4E99A
:10016000D0E004C02197FE010E943D15C339D1079C
:10017000C9F70E94470A0C9435170C94000080912F
:100180006E0490916F04019690936F0480936E04B7
:10019000089580916C0490916D04019690936D0484
:1001A00080936C04089508950895DC01ED91FC910D
:1001B0000190F081E02D0994AF92BF92CF92DF922F
:1001C000EF92FF920F931F93CF93DF936C017B010C
:1001D0008B01040F151FEB015E01AE18BF08C0179D
:1001E000D10759F06991D601ED91FC910190F08110
:1001F000E02DC6010995892B79F7C501DF91CF91D3
:100200001F910F91FF90EF90DF90CF90BF90AF9034
:100210000895FC01538D448D252F30E0842F90E00C
:10022000821B930B541710F0CF96089501970895F1
:10023000FC01918D828D981761F0A28DAE0FBF2FBA
:10024000B11D5D968C91928D9F5F9F73928F90E010
:1002500008958FEF9FEF0895FC01918D828D98177F
:1002600031F0828DE80FF11D858D90E008958FEFBC
:100270009FEF0895FC01918D228D892F90E0805C85
:100280009F4F821B91098F739927089581E894E00D
:100290000E943A0121E0892B09F420E0822F089581
:1002A00080E090E0892B29F00E94460181110C9496
:1002B00000000895FC01A48DA80FB92FB11DA35A09
:1002C000BF4F2C91848D90E001968F739927848F76
:1002D000A689B7892C93A089B1898C918370806499
:1002E0008C93938D848D981306C00288F389E02D3A
:1002F00080818F7D80830895EF92FF920F931F93EB
:10030000CF93DF93EC0181E0888F9B8D8C8D9813C8
:100310001AC0E889F989808185FF15C09FB7F894D4
:10032000EE89FF896083E889F98980818370806420
:1003300080839FBF81E090E0DF91CF911F910F916B
:10034000FF90EF900895F62E0B8D10E00F5F1F4F7A
:100350000F731127E02E8C8D8E110CC00FB607FC89
:10036000FACFE889F989808185FFF5CFCE010E9417
:100370005A01F1CFEB8DEC0FFD2FF11DE35AFF4F2A
:10038000F0829FB7F8940B8FEA89FB8980818062A5
:10039000CFCF0F931F93CF93DF938C01D0E0C0E0BA
:1003A000F801EC0FFD1F6491662341F081E894E0B1
:1003B0000E947C01892B11F02196F2CFCE01DF91B2
:1003C000CF911F910F910895CF93DF93EC01888D0A
:1003D0008823B9F0AA89BB89E889F9898C9185FDC0
:1003E00003C0808186FD0DC00FB607FCF7CF8C914E
:1003F00085FFF2CF808185FFEDCFCE010E945A01AB
:10040000E9CFDF91CF91089590E0FC01EC55FF4FCB
:100410002491FC01E057FF4F3491FC01E458FF4F59
:10042000E491EE23C9F0222339F0233001F1A8F43E
:10043000213019F1223029F1F0E0EE0FFF1FEE58C4
:10044000FF4FA591B4918FB7F894EC91611126C03C
:1004500030953E233C938FBF08952730A9F0283074
:10046000C9F0243049F7809180008F7D03C08091CE
:1004700080008F7780938000DFCF84B58F7784BD35
:10048000DBCF84B58F7DFBCF8091B0008F778093D9
:10049000B000D2CF8091B0008F7DF9CF3E2BDACF64
:1004A000CF93DF9390E0FC01E057FF4F24918458F5
:1004B0009F4FFC0184918823D1F090E0880F991F11
:1004C000FC01E859FF4FA591B491FC01EE58FF4F94
:1004D000C591D491623071F49FB7F8943C91822F0A
:1004E000809583238C93E8812E2B28839FBFDF91F7
:1004F000CF9108958FB7F894EC912E2B2C938FBF4A
:10050000F6CF1F93CF93DF93182FEB0161E00E948A
:100510005002209739F460E0812FDF91CF911F9135
:100520000C940402CF3FD10511F461E0F5CFE12F27
:10053000F0E0EC55FF4FE491E33031F140F4E1306D
:10054000B1F0E230E1F0C038D1057CF7E4CFE7301C
:1005500029F1E83059F1E430B1F7809180008062F0
:1005600080938000D0938B00C0938A0004C084B530
:10057000806884BDC7BDDF91CF911F91089584B578
:10058000806284BDC8BDF7CF809180008068809371
:100590008000D0938900C0938800EDCF8091B00097
:1005A00080688093B000C093B300E5CF8091B00025
:1005B00080628093B000C093B400DDCF3FB7F89461
:1005C0008091410490914204A0914304B09144046D
:1005D00026B5A89B05C02F3F19F00196A11DB11D9E
:1005E0003FBFBA2FA92F982F8827BC01CD01620FDA
:1005F000711D811D911D42E0660F771F881F991F95
:100600004A95D1F708958F929F92AF92BF92CF9261
:10061000DF92EF92FF924B015C010E94DE026B01C0
:100620007C010E94DE026C197D098E099F09683EDB
:10063000734081059105A8F321E0821A9108A10871
:10064000B10888EEC80E83E0D81EE11CF11C8114AD
:100650009104A104B10429F7FF90EF90DF90CF90AF
:10066000BF90AF909F908F9008952FB7F8946091AE
:100670003D0470913E0480913F04909140042FBF4F
:100680000895089508952091CB03260F3327331F33
:1006900021323105ECF420911404FC0190E080E05B
:1006A000243069F082E00895A091CB032191AC0140
:1006B00045555C4FA40FB52FB11D2C93019686179D
:1006C00098F38091CB03680F6093CB0380E008958B
:1006D00081E008951092140481E080931304109235
:1006E000EE0361E082E10E94040261E083E10E9486
:1006F0000402E9EBF0E080818E7F808380818D7F32
:10070000808388E48093B80085E48093BC000895DA
:10071000CF93DF9391E09093AA038823B9F0C0911F
:10072000B800D091BA008091BC008A7B8093BC0055
:1007300060E082E10E94040260E083E10E94040222
:100740000E946A03D093BA00C093B800DF91CF91A2
:1007500008950895E0914C0480914B04E81730F41B
:10076000F0E0E657FC4F808190E008958FEF9FEF17
:10077000089590914C0480914B042FEF3FEF981710
:1007800048F4E92FF0E0E657FC4F208130E09F5F0E
:1007900090934C04C901089580914B0490914C04AE
:1007A000891B990B0895CF92DF92EF92FF920F93DE
:1007B0001F93CF93DF937C01CB018A0120911A0410
:1007C000222389F0EB016B01C40ED51ECC15DD058B
:1007D00069F06991D701ED91FC910190F081E02DD4
:1007E000C7010995F3CF642F0E944303C801DF912D
:1007F000CF911F910F91FF90EF90DF90CF900895D0
:10080000CF93DF931F92CDB7DEB7698320911A048F
:100810002223F9F020914904203258F021E030E001
:10082000FC013383228390E080E00F90DF91CF9131
:10083000089580914A04E82FF0E0E55EFB4F99812E
:1008400090838F5F80934A048093490481E090E015
:10085000ECCF61E0CE0101960E944303F7CFCF9227
:10086000DF92EF92FF920F931F93CF93DF93FC01E0
:10087000C48121E020931A04C0933B0410924A04DF
:10088000109249048385682B8EE195E00E94000454
:10089000D0914904D13208F092C00E94DE026B016F
:1008A0007C0180911404811165C082E0809314045E
:1008B00081E0809313048FEF80931204109211044F
:1008C000D0931004ABE1B4E0E0EFF3E080E0D813A4
:1008D00085C01092EF038091EF03CC0FC82BC0931B
:1008E000EF038091EE03813009F07CC01092EE039B
:1008F0000E94DE026B017C018091EF038093BB00BC
:100900008091160490911704A0911804B0911904D5
:10091000892B8A2B8B2B99F00E94DE020091160402
:100920001091170420911804309119046C197D0955
:100930008E099F090617170728073907E0F18091EC
:10094000BC0083FDD9CF85EC8093BC000E94DE0201
:100950006B017C0180911404823009F445C08091C0
:1009600012048F3F61F180911204803241F1809135
:10097000120425C08091160490911704A0911804C8
:10098000B0911904892B8A2B8B2B09F48ACF0E94F2
:10099000DE02009116041091170420911804309182
:1009A00019046C197D098E099F0906171707280776
:1009B000390708F076CF809115040E9488031092C1
:1009C0004A041092490410921A04DF91CF911F91AA
:1009D0000F91FF90EF90DF90CF9008959D919193AC
:1009E0008F5F75CF85EEB0CF80911604909117047C
:1009F000A0911804B0911904892B8A2B8B2B09F430
:100A0000A9CF0E94DE0200911604109117042091D4
:100A10001804309119046C197D098E099F09061775
:100A200017072807390708F095CFC5CF90E080E079
:100A3000089560E08BE00E94040260E08AE00E947A
:100A4000040260E089E00C9404020F931F93CF939B
:100A50008C01C62F0E942F046C2F6460C8010E9475
:100A60002F046C2F6B7FC8010E942F0483EC90E051
:100A70000197F1F7CF911F910F9108950F931F9355
:100A8000CF93DF938C01D62FC42F607F642B0E94FD
:100A9000250580E1D89FB00111246C2BC801DF919E
:100AA000CF911F910F910C942505CF93DF93CDB774
:100AB000DEB728970FB6F894DEBF0FBECDBF98E023
:100AC000E0E1F1E0DE01119601900D929A95E1F7D7
:100AD00090913805961710F46FEF690F262F30E0CC
:100AE000220F331F41E050E04C0F5D1F240F351FD4
:100AF000F9016081680F606840E080E395E0289626
:100B00000FB6F894DEBF0FBECDBFDF91CF910C942E
:100B10003E0540E061E080E395E00E943E058BE306
:100B20009FE10197F1F7089541E00E943E0581E0C1
:100B300090E00895FB0101900020E9F73197AF01A3
:100B4000461B570BDC01ED91FC910280F381E02DF7
:100B500009948F929F92AF92BF92EF92FF920F9360
:100B60001F93CF93DF93CDB7DEB7A1970FB6F8945D
:100B7000DEBF0FBECDBF7C01FA01CB0119A222302E
:100B800008F42AE08E010F5D1F4F822E912CB12CAC
:100B9000A12CBF01A50194010E94E613F901CA012D
:100BA0006A300CF5605DD8016E938D01232B242BE8
:100BB000252B79F790E080E0109721F0BD01C70167
:100BC0000E949A05A1960FB6F894DEBF0FBECDBF66
:100BD000DF91CF911F910F91FF90EF90BF90AF9059
:100BE0009F908F900895695CDECFCF92DF92EF9255
:100BF000FF920F931F93CF93DF936B01770FEE0854
:100C0000FF08F7FE1BC0EC016DE20E94D5008C01CD
:100C100044275527BA014C195D096E097F092AE05E
:100C2000CE010E94A905800F911FDF91CF911F91E6
:100C30000F91FF90EF90DF90CF9008952AE0B701D9
:100C4000A601DF91CF911F910F91FF90EF90DF9060
:100C5000CF900C94A905CF93DF93BC0181E894E079
:100C60000E949A05EC0168E471E081E894E00E943A
:100C70009A058C0F9D1FDF91CF9108952F923F927F
:100C80004F925F926F927F928F929F92AF92BF929C
:100C9000CF92DF92EF92FF921F93CF93DF93EC01FD
:100CA0006A017B01722EAB019601CB01B6010E9455
:100CB00031156BE471E0811126C046015701E894BB
:100CC000B7F82FEF3FEF4FE75FE7C501B4010E9490
:100CD000311581110CC02FEF3FEF4FE75FE7C501E2
:100CE000B4010E946C126FE471E0181664F02FEFEB
:100CF0003FEF4FE75FE4C701B6010E942C151816BD
:100D0000B4F463E571E0CE01DF91CF911F91FF90C4
:100D1000EF90DF90CF90BF90AF909F908F907F909B
:100D20006F905F904F903F902F900C949A052FEF0B
:100D30003FEF4FE75FECC701B6010E946C1287FDE1
:100D4000E0CF20E030E0A901C701B6010E946C129B
:100D5000312C212C87FF09C06DE2CE010E94D50005
:100D60001C01F7FAF094F7F8F09410E060E070E0FE
:100D700080E09FE3711641F020E030E040E251E472
:100D80000E9484141F5FF6CFA70196010E941814D9
:100D90002B013C010E94FD144B015C012AE0BC01C7
:100DA000A401CE010E94A9057C01E20CF31C1123D1
:100DB000C1F1C501B4010E9471129B01AC01C301D4
:100DC000B2010E9417144B015C016EE2CE010E9439
:100DD000D500E80EF91E115020F120E030E040E28D
:100DE00051E4C501B4010E94D2122B013C010E94C2
:100DF000FD144B01B12CA12C2AE0B501A401CE01B8
:100E00000E94A905E80EF91EC501B4010E947112E5
:100E10009B01AC01C301B2010E9417144B015C019C
:100E2000DACFC701DF91CF911F91FF90EF90DF9054
:100E3000CF90BF90AF909F908F907F906F905F907A
:100E40004F903F902F9008950C949A05CF93DF9385
:100E5000EC0188819981009711F00E94DF151982B9
:100E600018821D821C821B821A82DF91CF91089505
:100E7000FC0180819181009711F00C94DF15089599
:100E80000F931F93CF93DF93EC0188819981009793
:100E900059F02A813B812617370730F081E0DF9136
:100EA000CF911F910F9108958B016F5F7F4F0E942B
:100EB0006816009759F0998388831B830A832C81D5
:100EC0003D81232B59F7FC011082E8CF80E0E7CF6A
:100ED000EF92FF920F931F93CF93DF93EC017B016F
:100EE0008A01BA010E94400781110BC0CE010E9405
:100EF0002607CE01DF91CF911F910F91FF90EF90C8
:100F000008951D830C83B701888199810E942E1753
:100F1000F0CFFB0101900020E9F73197AF01461BAC
:100F2000570B0C946807CF93DF93EC0161157105A3
:100F300031F00E948907CE01DF91CF9108950E9480
:100F40002607F9CFFC0111821082138212821582CA
:100F50001482FB0101900020E9F73197AF01461B95
:100F6000570B0C94680785ED8093BC0080911604A4
:100F700090911704A0911804B09119040796A11D2F
:100F8000B11D23E0B695A795979587952A95D1F73A
:100F90002091BC0024FD03C01092140408954091D8
:100FA0001604509117046091180470911904452B90
:100FB000462B472B69F30097A105B10541F02AE2C2
:100FC0002A95F1F700C00197A109B109E1CF8091FD
:100FD00015040C9488031F920F920FB60F921124E0
:100FE0002F933F934F935F936F937F938F939F9331
:100FF000AF93BF93EF93FF9381E894E00E945A016F
:10100000FF91EF91BF91AF919F918F917F916F91E0
:101010005F914F913F912F910F900FBE0F901F90B6
:1010200018951F920F920FB60F9211242F938F9342
:101030009F93EF93FF93E0919104F091920480814C
:10104000E0919704F091980482FD1BC090818091FB
:101050009A048F5F8F7320919B04821741F0E09177
:101060009A04F0E0EF57FB4F958F80939A04FF911D
:10107000EF919F918F912F910F900FBE0F901F9026
:1010800018958081F4CF1F920F920FB60F92112402
:101090002F933F938F939F93AF93BF9380913D0482
:1010A00090913E04A0913F04B091400430913C04E3
:1010B00023E0230F2D3758F50196A11DB11D209374
:1010C0003C0480933D0490933E04A0933F04B0936E
:1010D00040048091410490914204A0914304B09156
:1010E00044040196A11DB11D8093410490934204D4
:1010F000A0934304B0934404BF91AF919F918F910B
:101100003F912F910F900FBE0F901F90189526E8DA
:10111000230F0296A11DB11DD2CF1F920F920FB6C1
:101120000F9211242F933F934F935F936F937F936D
:101130008F939F93AF93BF93EF93FF93E09102013F
:10114000F09103010995FF91EF91BF91AF919F91AC
:101150008F917F916F915F914F913F912F910F9060
:101160000FBE0F901F9018951F920F920FB60F92FF
:1011700011242F933F934F935F936F937F938F939C
:101180009F93AF93BF93EF93FF93E0910001F09192
:1011900001010995FF91EF91BF91AF919F918F91BF
:1011A0007F916F915F914F913F912F910F900FBE63
:1011B0000F901F9018951F920F920FB60F92112447
:1011C0002F933F934F935F936F937F938F939F934F
:1011D000AF93BF93EF93FF938091B900887F8036E0
:1011E00009F44AC0F0F5883209F4A7C018F5803137
:1011F00009F49BC0B8F4882309F4F9C0883009F4D5
:1012000094C0FF91EF91BF91AF919F918F917F918A
:101210006F915F914F913F912F910F900FBE0F9063
:101220001F901895883109F488C0803251F7809357
:10123000120414C0803409F49DC040F48033B9F323
:101240008833F9F68093120485ECB0C0803509F438
:1012500085C0883509F496C0883499F60E94B30792
:10126000D0CF883909F48CC038F5883729F050F48C
:10127000883611F0803729F683E0809314041092A9
:10128000ED0357C0883809F47BC0803919F08038E5
:1012900009F0B7CF8091ED03803208F071C0E09182
:1012A000ED0381E08E0F8093ED038091BB00F0E0B1
:1012B000E353FC4F80833DC0803B39F0E0F4803A3B
:1012C00009F479C0883A09F09CCF84E08093140433
:1012D0001092CC031092CB03E0914704F0914804A4
:1012E00009958091CB0381110FC081E08093CB03DE
:1012F0001092AB0309C0803C09F4A6CF883C09F4E6
:10130000A3CF883B09F07DCFE091CC0381E08E0F25
:101310008093CC03F0E0E555FC4F80818093BB00C7
:101320009091CC038091CB0329C08091EF038093EF
:10133000BB0085EC8093BC0064CF90911104809138
:101340001004981758F5E091110481E08E0F8093F6
:101350001104F0E0E051FC4F8081E9CFE0911104ED
:1013600081E08E0F809311048091BB00F0E0E0518A
:10137000FC4F808390911104809110049817C8F25B
:1013800085E8D8CFE091110481E08E0F809311049D
:101390008091BB00F0E0E051FC4F8083809113040A
:1013A00081115CCF81E08093EE0384EA8093BC00DE
:1013B0001092140426CF85EC8093BC001092140484
:1013C0008091ED03803230F4E091ED03F0E0E353DF
:1013D000FC4F10826091ED0370E0E0914504F091C4
:1013E00046048DEC93E009951092ED030ACF10921C
:1013F000120434CFE1E8F4E01382128288EE93E025
:10140000A0E0B0E084839583A683B7832CE131E02C
:101410003183208325EC30E03587248724EC30E0CD
:101420003787268720EC30E0318B208B21EC30E0B1
:10143000338B228B22EC30E0358B248B26EC30E092
:10144000378B268B118E128E138E148EEEE1F5E003
:101450001382128284839583A683B7838EE291E000
:1014600091838083E0E3F5E01382128280E491E0CF
:101470009183808387E2848384E1818784E082870B
:10148000138667E571E08AE295E00C94A207CF939A
:10149000DF93CDB7DEB7AC970FB6F894DEBF0FBEC3
:1014A000CDBF789484B5826084BD84B5816084BDED
:1014B00085B5826085BD85B5816085BD80916E00F2
:1014C000816080936E001092810080918100826023
:1014D0008093810080918100816080938100809160
:1014E00080008160809380008091B100846080934F
:1014F000B1008091B00081608093B00080917A004B
:10150000846080937A0080917A00826080937A0070
:1015100080917A00816080937A0080917A0080685F
:1015200080937A001092C100E0919104F0919204AE
:1015300082E08083E0918D04F0918E041082E0912E
:101540008F04F091900480E1808310929904E091DF
:101550009504F091960486E08083E0919304F091E5
:101560009404808180618083E0919304F0919404DD
:10157000808188608083E0919304F091940480815D
:1015800080688083E0919304F091940480818F7D42
:1015900080838DEC90E00E94C90168E471E081E8ED
:1015A00094E00E949A0561E085E00E94500261E0AB
:1015B00084E00E94500270E060E085E00E948102B9
:1015C00070E060E084E00E94810262E082E00E94BC
:1015D000500262E083E00E9450028FEB90E0909313
:1015E000010180930001809169008360809369000C
:1015F000E89A89EC90E09093030180930201809136
:1016000069008C6080936900E99A61E08BE00E9438
:10161000500261E08AE00E94500261E089E00E948D
:10162000500261E088E00E9450020E94190560E0CB
:1016300088E00E94040210924C0410924B04109215
:101640004A04109249040E946A0383ED90E090934B
:1016500048048093470484ED90E09093460480937F
:1016600045041092350580913A05823018F098E0D3
:10167000909335058093380562E370E080E090E058
:101680000E94030360913B0580E395E00E942F04D4
:1016900068EE73E080E090E00E94030360E380E383
:1016A00095E00E9425050BE416E4C8010197F1F7C7
:1016B00060E380E395E00E942505C8010197F1F7FA
:1016C00060E380E395E00E94250583E592E00197C1
:1016D000F1F760E280E395E00E9425056091350511
:1016E000606240E080E395E00E943E0584E08093E4
:1016F000360540E06CE080E395E00E943E050E94E4
:10170000890582E08093370540E066E080E395E05C
:101710000E943E0540E062E080E395E00E943E05C5
:101720008BE39FE10197F1F788E080933B0560E050
:1017300080E395E00E942F0461E08BE00E940402A8
:1017400060E971E080E090E00E94030360E08BE0DC
:101750000E94040261E08AE00E94040260E971E0F4
:1017600080E090E00E94030360E08AE00E940402AF
:1017700061E089E00E94040260E971E080E090E0AD
:101780000E94030360E089E00E94040261E088E0B7
:101790000E94040264E670E080E090E00E9403038F
:1017A00060E088E00E9404020E94890560E082E017
:1017B0000E94550561EA71E080E395E00E942407EC
:1017C00061E081E00E94550561EB71E080E395E006
:1017D0000E94240762E081E00E94550562EC71E0FE
:1017E00080E395E00E94240763E083E00E945505B2
:1017F00062ED71E080E395E00E94240764EF71E000
:1018000080E090E00E9403030E94890580E293E05B
:1018100090930901809308010E94350360937C0432
:1018200070937D0480937E0490937F040E9435031F
:1018300060937004709371048093720490937304A6
:101840000E94350360934D0470934E0480934F04BF
:10185000909350046FED71E08AE295E00E94890751
:1018600088EB90E00E94C90168E471E081E894E0AF
:101870000E949A050E9435032B013C0140917C0493
:1018800050917D0460917E0470917F04809180046A
:1018900093018201041B150B260B370BB901A8011C
:1018A000811141C38091080190910901092E000C1A
:1018B000AA0BBB0B481759076A077B07C8F0609152
:1018C00006017091070185E00E9481026091040188
:1018D0007091050184E00E94810281E08093800480
:1018E00040927C0450927D0460927E0470927F044A
:1018F0008091780490917904A0917A04B0917B044E
:10190000A3019201281B390B4A0B5B0BDA01C901B9
:10191000883C9105A105B10570F180E480937C00BD
:1019200080917A00806480937A0080917A0086FDAD
:10193000FCCFA0917800B091790028EC30E00E94B3
:1019400036152FEF33E040E050E00E949013CA01BB
:10195000B9010E94731260937404709375048093AC
:1019600076049093770440927804509279046092C0
:101970007A0470927B048091700490917104A0911C
:101980007204B091730493018201081B190B2A0B96
:101990003B0BD901C801883E9340A105B10508F46D
:1019A00042C0F89460916E0470916F0400916C04D1
:1019B00010916D0410926F0410926E0410926D04D9
:1019C00010926C047894072E000C880B990B0E94DF
:1019D000731226E636E646EE5EE30E94D21260936C
:1019E00068047093690480936A0490936B04B8014F
:1019F000110F880B990B0E94731226E636E646EE0D
:101A00005EE30E94D2126093640470936504809335
:101A1000660490936704409270045092710460923F
:101A20007204709273048091600490916104A0919B
:101A30006204B0916304A3019201281B390B4A0B85
:101A40005B0BDA01C901883E9340A105B10508F49A
:101A500019C1C0907404D0907504E0907604F090A1
:101A6000770420E030E040E752E4C701B6010E946D
:101A70006C1287FF6BC220E030E048E452E4C701FB
:101A8000B6010E946C1244E150E087FD02C04AE0BA
:101A900050E02091060130910701240F351F2F3FA0
:101AA000310519F014F02FEF30E02035310514F432
:101AB00020E530E030930701209306018091040176
:101AC00090910501840F951F8F3F910519F014F037
:101AD0008FEF90E08035910514F480E590E09093CD
:101AE00005018093040120E030E040E252E4C701A8
:101AF000B6010E946C1263E671E087FD02C064E7E4
:101B000071E08AE295E00E9493076CEE71E081E853
:101B100094E00E94240740917404509175046091F0
:101B200076047091770420E081E894E00E943E06FC
:101B30008BEF91E00E942B068090680490906904DE
:101B4000A0906A04B0906B04809164049091650445
:101B5000A0916604B09167048DA39EA3AFA3B8A71C
:101B60009C01AD01C501B4010E94181469A77AA7B0
:101B70008BA79CA72DEC3CEC4CEC5DE30E946C1217
:101B800087FD53C02DA13EA14FA158A5C501B401A9
:101B90000E9417146B017C0120E030E0A9010E9433
:101BA0002C15181624F0F7FAF094F7F8F09429A5FC
:101BB0003AA54BA55CA5C701B6010E94841420E09C
:101BC00030E048EC52E40E94D21220E030E040EFD6
:101BD00051E40E942C15181644F52DA13EA14FA1E9
:101BE00058A5C501B4010E946C1287FF39C28091CB
:101BF00006019091070108968F3F910519F014F0A6
:101C00008FEF90E08035910514F480E590E090939B
:101C10000701809306016AE772E08AE295E00E947C
:101C200089078BE892E00E942B0620916404309192
:101C30006504409166045091670460916804709156
:101C4000690480916A0490916B040E9418142DEC31
:101C50003CEC4CEC5DE30E942C1518160CF01DC2F8
:101C60000E94350360934D0470934E0480934F049B
:101C70009093500440926004509261046092620418
:101C8000709263040E9435036B017C0180907404A0
:101C900090907504A0907604B090770420E030E036
:101CA00040E252E4C501B4010E946C1287FD0BC0F2
:101CB00020E030E044E353E4C501B4010E942C1558
:101CC00018160CF018C283E090E0909357048093AC
:101CD000560480915604909157048130910509F47F
:101CE00048C208F43BC28230910509F447C2039709
:101CF00009F48DC280915C0490915D04A0915E0412
:101D0000B0915F04A3019201281B390B4A0B5B0BB6
:101D1000DA01C9018C329140A105B10508F4FEC277
:101D200060E080E00E9455056FE173E080E395E09C
:101D30000E9424076BE470E080E395E00E94F505C3
:101D400064E273E080E395E00E94240760917404EC
:101D50007091750480917604909177040E94F61436
:101D600080E395E00E94F50568E273E080E395E08A
:101D70000E94240761E080E00E94550561E373E062
:101D800080E395E00E942407409168045091690423
:101D900060916A0470916B0421E080E395E00E94F9
:101DA0003E0664E373E080E395E00E9424074091DF
:101DB000640450916504609166047091670421E0A9
:101DC00080E395E00E943E0668E373E080E395E0DF
:101DD0000E94240762E080E00E94550560E473E001
:101DE00080E395E00E94240760910601709107014D
:101DF00080E395E00E94F50564E473E080E395E0FC
:101E00000E942407609104017091050180E395E030
:101E10000E94F5056CE273E080E395E00E942407E0
:101E200063E080E00E9455056AE471E0CE014F96C0
:101E30000E94A20780915604909157048130910529
:101E400009F420C208F417C28230910509F41DC2BA
:101E5000039709F41DC21A8219821C821B821E82FA
:101E60001D826F8D78A16115710531F04BA15CA1C8
:101E7000CE0101960E946807E0902A05F0902B059C
:101E8000E114F10409F407C200912E0510912F0509
:101E900001151105B9F08D819E81080F191FB80138
:101EA000CE0101960E944007882309F4F4C12981DC
:101EB0003A818D819E81B701820F931F0E942E1758
:101EC0001E830D831A8E198E1C8E1B8E1E8E1D8EE8
:101ED00069817A816115710531F04D815E81CE0194
:101EE00049960E946807CE0101960E9438070D8D21
:101EF0001E8D0431110508F0D3C10F5F1F4FB801CB
:101F0000CE0149960E944007882389F3298D3A8D96
:101F10008D8D9E8D6FE273E0820F931F0E942E17AE
:101F20001E8F0D8FE4CF4C3751406105710508F4C9
:101F3000DFCC70E060E085E00E94810270E060E04C
:101F400084E00E94810210928004D2CC20E030E034
:101F50004CE053E4C701B6010E942C1518160CF092
:101F600060C020E030E040E253E4C701B6010E94C7
:101F70002C1524E130E0181614F02AE030E08091AE
:101F8000060190910701821B930B8F3F910519F079
:101F900014F08FEF90E08035910514F480E590E027
:101FA00090930701809306018091040190910501AF
:101FB000821B930B8F3F910519F014F08FEF90E087
:101FC0008035910514F480E590E0909305018093AD
:101FD000040120E030E044E353E4C701B6010E946D
:101FE0002C1561E871E0181614F063E971E08AE2DB
:101FF00095E00E9493076BE172E081E894E00E9413
:102000002407409174045091750460917604709196
:10201000770420E081E894E00E943E068BE292E0A3
:1020200089CD20E030E040EA52E4C701B6010E94C9
:102030006C126BE472E087FD0EC020E030E040EFF0
:1020400052E4C701B6010E942C156AE572E0181629
:1020500014F069E672E08AE295E00E9489076CCD8F
:10206000809104019091050108968F3F910519F028
:1020700014F08FEF90E08035910514F480E590E046
:10208000909305018093040160EB72E08AE295E091
:102090000E94890782EC92E0C6CD0E943503009130
:1020A0004D0410914E0420914F0430915004601B58
:1020B000710B820B930B693873418105910508F40C
:1020C000D9CD80910601909107018135910544F4A5
:1020D0008091040190910501813591050CF4CACDE0
:1020E00068EE72E08AE295E00E9489078AEF92E04A
:1020F0000E942B06BFCD20E030E040E752E4C5014E
:10210000B4010E946C1287FD0AC020E030E04CE070
:1021100053E4C501B4010E942C1518161CF482E08A
:1021200090E0D3CD20E030E040EA52E4C501B401B4
:102130000E946C1287FD0AC020E030E040EF52E4BC
:10214000C501B4010E942C1518161CF481E090E022
:10215000BCCD1092570410925604BBCD0E941905B5
:1021600061E08BE00E94040260E088E00E940402CB
:10217000C1CD0E94190561E08AE0F4CF0E941905E3
:1021800061E089E00E94040280915204909153041E
:10219000A0915404B091550497018601081B190BB6
:1021A0002A0B3B0BD901C801803D9740A105B10521
:1021B00078F061E088E00E940402C0925204D0925C
:1021C0005304E0925404F092550481E0809351044A
:1021D00080915104882309F48DCD8091520490910F
:1021E0005304A0915404B0915504C81AD90AEA0ABC
:1021F000FB0A26E9C216D104E104F10408F47ACD01
:1022000060E088E00E9404021092510473CD61E006
:1022100088E00E94040260E08BE00E94040260E01B
:102220008AE00E9404028091520490915304A0918C
:102230005404B091550497018601081B190B2A0B11
:102240003B0BD901C8018A3F9105A105B10508F4EE
:1022500051CD6091510481E068276093510489E079
:102260000E940402C0925204D0925304E09254049B
:10227000F09255043FCD6AE473E0CE014F960E9480
:102280008907E9CD60E573E0F8CF68E573E0F5CF45
:1022900062E673E0F2CFCE0101960E94260712CECD
:1022A0006AE471E0CE0101960E94A2070D8D1E8D99
:1022B00001151105B9F00431110510F004E110E029
:1022C000E98DFA8DE00FF11FF0801082698D7A8D13
:1022D000CE0101960E949307898D9A8D080F191FD0
:1022E000D801FC924D815E8169817A8180E395E01D
:1022F0000E94DC00CE0101960E943807CE0149966B
:102300000E943807CE014F960E94380740925C0425
:1023100050925D0460925E0470925F048091580454
:1023200090915904A0915A04B0915B0493018201E9
:10233000081B190B2A0B3B0BD901C801883E93409F
:10234000A105B10508F4B7C06BE673E0CE010196B4
:102350000E94A20762E773E0CE0107960E94A207DF
:102360006AE773E0CE010D960E94A20761E873E070
:10237000CE0143960E94A20780E291E00E94C9012B
:102380006BE470E081E894E00E94F5058CE191E057
:102390000E94C901409174045091750460917604C3
:1023A0007091770420E081E894E00E943E0681E18C
:1023B00091E00E94C90140916804509169046091C4
:1023C0006A0470916B0421E081E894E00E943E066B
:1023D0008DE091E00E94C901409164045091650430
:1023E000609166047091670421E081E894E00E94A6
:1023F0003E0681E091E00E94C90160910601709162
:10240000070181E894E00E94F5058CEF90E00E94BE
:10241000C901609104017091050181E894E00E9476
:10242000F50582EF90E00E94C901809156049091D9
:10243000570426E0289FF001299FF00D112421E088
:1024400030E02C0F3D1FE20FF31F44815581608166
:10245000718181E894E00E94DC008EEE90E00E94A1
:10246000C90140912E0550912F0560912A05709168
:102470002B0581E894E00E94DC0068E471E081E8CB
:1024800094E00E949A054092580450925904609238
:102490005A0470925B04CE0143960E943807CE0125
:1024A0000D960E943807CE0107960E943807CE018C
:1024B00001960E94380780E090E0892B09F4DAC980
:1024C0000E944601882309F4D5C90E940000D2C9A0
:1024D0008AE295E00C9438070E94AE1208F481E07D
:1024E0000895E89409C097FB3EF490958095709507
:1024F00061957F4F8F4F9F4F9923A9F0F92F96E950
:10250000BB279395F695879577956795B795F111C4
:10251000F8CFFAF4BB0F11F460FF1BC06F5F7F4F61
:102520008F4F9F4F16C0882311F096E911C0772373
:1025300021F09EE8872F762F05C0662371F096E87C
:10254000862F70E060E02AF09A95660F771F881F4B
:10255000DAF7880F9695879597F90895990F0008EF
:10256000550FAA0BE0E8FEEF16161706E807F90765
:10257000C0F012161306E407F50798F0621B730B00
:10258000840B950B39F40A2661F0232B242B252B81
:1025900021F408950A2609F4A140A6958FEF811D24
:1025A000811D08950E94E5120C9456130E94481351
:1025B00038F00E944F1320F0952311F00C943F1334
:1025C0000C94451311240C948A130E94671370F322
:1025D000959FC1F3950F50E0551F629FF001729FC8
:1025E000BB27F00DB11D639FAA27F00DB11DAA1FD7
:1025F000649F6627B00DA11D661F829F2227B00D24
:10260000A11D621F739FB00DA11D621F839FA00DAE
:10261000611D221F749F3327A00D611D231F849FFE
:10262000600D211D822F762F6A2F11249F57504055
:102630009AF0F1F088234AF0EE0FFF1FBB1F661FD0
:10264000771F881F91505040A9F79E3F510580F099
:102650000C943F130C948A135F3FE4F3983ED4F339
:10266000869577956795B795F795E7959F5FC1F73D
:10267000FE2B880F911D9695879597F9089597F9E8
:102680009F6780E870E060E008959FEF80EC089518
:1026900000240A9416161706180609060895002441
:1026A0000A9412161306140605060895092E0394BB
:1026B000000C11F4882352F0BB0F40F4BF2B11F42F
:1026C00060FF04C06F5F7F4F8F4F9F4F089557FD8E
:1026D0009058440F551F59F05F3F71F04795880F90
:1026E00097FB991F61F09F3F79F087950895121627
:1026F00013061406551FF2CF4695F1DF08C01616D3
:1027000017061806991FF1CF869571056105089483
:102710000895E894BB2766277727CB0197F908959A
:10272000052E97FB1EF400940E94A71357FD07D0B7
:102730000E94E61307FC03D04EF40C94A7135095A7
:102740004095309521953F4F4F4F5F4F089590959D
:102750008095709561957F4F8F4F9F4F08952F9271
:102760003F924F925F926F927F928F929F92AF9221
:10277000BF92CF92DF92EF92FF920F931F93CF936E
:10278000DF93CDB7DEB7CA1BDB0B0FB6F894DEBF05
:102790000FBECDBF09942A88398848885F846E842B
:1027A0007D848C849B84AA84B984C884DF80EE8075
:1027B000FD800C811B81AA81B981CE0FD11D0FB67E
:1027C000F894DEBF0FBECDBFED010895A1E21A2E31
:1027D000AA1BBB1BFD010DC0AA1FBB1FEE1FFF1FC5
:1027E000A217B307E407F50720F0A21BB30BE40B15
:1027F000F50B661F771F881F991F1A9469F760955C
:102800007095809590959B01AC01BD01CF01089515
:10281000A29FB001B39FC001A39F700D811D112421
:10282000911DB29F700D811D1124911D0895505866
:10283000BB27AA270E942F140C9456130E944813FA
:1028400038F00E944F1320F039F49F3F19F426F41A
:102850000C9445130EF4E095E7FB0C943F13E92F1D
:102860000E94671358F3BA17620773078407950726
:1028700020F079F4A6F50C9489130EF4E0950B2E54
:10288000BA2FA02D0B01B90190010C01CA01A001C2
:102890001124FF27591B99F0593F50F4503E68F11D
:1028A0001A16F040A22F232F342F4427585FF3CF5E
:1028B000469537952795A795F0405395C9F77EF42F
:1028C0001F16BA0B620B730B840BBAF09150A1F078
:1028D000FF0FBB1F661F771F881FC2F70EC0BA0FFE
:1028E000621F731F841F48F4879577956795B79586
:1028F000F7959E3F08F0B0CF9395880F08F0992781
:10290000EE0F9795879508950E9498140C9456138E
:102910000E944F1358F00E94481340F029F45F3F83
:1029200029F00C943F1351110C948A130C94451305
:102930000E94671368F39923B1F3552391F3951B14
:10294000550BBB27AA2762177307840738F09F5FD0
:102950005F4F220F331F441FAA1FA9F335D00E2E3D
:102960003AF0E0E832D091505040E695001CCAF7AA
:102970002BD0FE2F29D0660F771F881FBB1F26176D
:1029800037074807AB07B0E809F0BB0B802DBF0144
:10299000FF2793585F4F3AF09E3F510578F00C9413
:1029A0003F130C948A135F3FE4F3983ED4F386956B
:1029B00077956795B795F7959F5FC9F7880F911D34
:1029C0009695879597F90895E1E0660F771F881F20
:1029D000BB1F621773078407BA0720F0621B730BD3
:1029E000840BBA0BEE1F88F7E09508950E94FD1442
:1029F0006894B1110C948A1308950E946F1388F0A3
:102A00009F5798F0B92F9927B751B0F0E1F0660FB2
:102A1000771F881F991F1AF0BA95C9F714C0B130F3
:102A200091F00E948913B1E008950C948913672FE7
:102A3000782F8827B85F39F0B93FCCF38695779522
:102A40006795B395D9F73EF490958095709561950B
:102A50007F4F8F4F9F4F08950E94AE1208F48FEF63
:102A600008950E94AE12880B990B08950E940814D5
:102A7000B7FF0895821B930B0895EE0FFF1F05907B
:102A8000F491E02D09940F931F93CF93DF9382303D
:102A9000910510F482E090E0E0913E05F0913F0551
:102AA00030E020E0B0E0A0E0309799F42115310546
:102AB00009F44AC0281B390B24303105D8F58A8126
:102AC0009B816115710589F1FB0193838283FE016E
:102AD00011C0408151810281138148175907E0F0EC
:102AE0004817590799F4109761F012960C931297B2
:102AF00013961C933296CF01DF91CF911F910F91C6
:102B0000089500933E0510933F05F4CF211531053C
:102B100051F04217530738F0A901DB019A01BD01BA
:102B2000DF01F801C1CFEF01F9CF90933F0580930A
:102B30003E05CDCFFE01E20FF31F8193919322500A
:102B4000310939832883D7CF20913C0530913D0549
:102B5000232B41F420910C0130910D0130933D0560
:102B600020933C0520910A0130910B01211531057C
:102B700041F42DB73EB740910E0150910F01241B37
:102B8000350BE0913C05F0913D05E217F307A0F409
:102B90002E1B3F0B2817390778F0AC014E5F5F4FB3
:102BA0002417350748F04E0F5F1F50933D054093A3
:102BB0003C05819391939FCFF0E0E0E09CCFCF93D1
:102BC000DF930097E9F0FC01329713821282A09103
:102BD0003E05B0913F05ED0130E020E01097A1F4F3
:102BE00020813181820F931F20913C0530913D055A
:102BF0002817390709F061C0F0933D05E0933C05C3
:102C0000DF91CF910895EA01CE17DF07E8F54A81F9
:102C10005B819E0141155105B1F7E901FB83EA8310
:102C200049915991C40FD51FEC17FD0761F48081BC
:102C300091810296840F951FE9019983888382818F
:102C400093819B838A83F0E0E0E012968D919C91C2
:102C500013970097B9F52D913C911197CD010296EC
:102C6000820F931F20913C0530913D0528173907AD
:102C700039F6309751F510923F0510923E05B0930A
:102C80003D05A0933C05BCCFD383C28340815181D5
:102C9000840F951FC817D90761F44E5F5F4F888175
:102CA0009981480F591F518340838A819B81938367
:102CB00082832115310509F0B0CFF0933F05E093F1
:102CC0003E059ECFFD01DC01C0CF13821282D7CF1B
:102CD000B0E0A0E0EEE6F6E10C94B1138C010097B1
:102CE00051F4CB010E9443158C01C801CDB7DEB76A
:102CF000E0E10C94CD13FC01E60FF71F9C0122507C
:102D00003109E217F30708F49DC0D901CD91DC9198
:102D10001197C617D70798F0C530D10530F3CE010B
:102D200004978617970708F3C61BD70B2297C19302
:102D3000D1936D937C93CF010E94DF15D6CF5B01B9
:102D4000AC1ABD0A4C018C0E9D1EA0913E05B0919F
:102D50003F05512C412CF12CE12C109731F580913D
:102D60003C0590913D058815990509F05CC0461613
:102D7000570608F058C080910A0190910B01009706
:102D800041F48DB79EB740910E0150910F01841B05
:102D9000950BE817F90708F055C0F0933D05E0934F
:102DA0003C05F90171836083A0CF8D919C911197AF
:102DB00012966C90129713967C901397A815B905EC
:102DC00059F56C0142E0C40ED11CCA14DB0420F199
:102DD000AC014A195B09DA011296159780F06282FC
:102DE000738251834083D9016D937C93E114F10484
:102DF00071F0D7011396FC93EE93129776CF22963B
:102E00008C0F9D1FF90191838083F301EFCFF09325
:102E10003F05E0933E0569CF4816590608F42C019A
:102E20007D01D3019ACFCB010E9443157C0100970D
:102E300049F0AE01B8010E942517C8010E94DF15B4
:102E4000870153CF10E000E050CFFB01DC0102C04E
:102E500001900D9241505040D8F70895FB01DC01DC
:102E600001900D920020E1F7089510E0C4E9D0E050
:102E700004C0FE010E943D152196C539D107C9F74E
:042E8000F894FFCFF4
:102E840041034103C800C80020030000400580003E
:102E94000000400014005400000000007C01DC002D
:102EA4000901E4013A0118012C01000000000004AA
:102EB400D3031605A903CC03B903AA030000000039
:102EC4009405DC00160542030D0A006E616E00696C
:102ED4006E66006F7666005374617274696E672E55
:102EE4002E2E00435249544943414C3A2050206C01
:102EF4006F7721004C6F7720503A2070756D702BDE
:102F040000435249544943414C3A20502068696770
:102F14006821004869676820503A2070756D702DEB
:102F24000044455349474E494E47204F4620414EA1
:102F3400004152544946494349414C204845415275
:102F44005400464F522043414C4942524154494F48
:102F54004E00414E44204C4541524E494E47005389
:102F6400797374656D207265616479004C6F7720A4
:102F74007072657373757265202800206D6D4867E3
:102F84002920E280942070756D70207370656564EB
:102F940020696E63726561736564004869676820BF
:102FA4007072657373757265202800206D6D4867B3
:102FB4002920E280942070756D70207370656564BB
:102FC4002064656372656173656400502062656C9A
:102FD4006F77206E6F726D616C00502061626F7646
:102FE40065206E6F726D616C0050726573737572DB
:102FF400653A204E6F726D616C00466C6F773A20B3
:103004004C6566742070756D702B00466C6F77206C
:10301400696D62616C616E636520E28094204C4549
:1030240046542070756D7020626F6F737465640010
:10303400466C6F773A2052696768742070756D70BA
:103044002B00466C6F7720696D62616C616E6365FD
:1030540020E280942052494748542070756D7020B6
:10306400626F6F73746564005741524E494E473A1C
:10307400204E6F20666C6F7721005741524E494EA7
:10308400473A20466C6F772073746F7070656420C4
:10309400666F722035207365636F6E64732100421E
:1030A400504D3A0020503A006D6D48672020202092
:1030B400004C3A0020523A00206D4C2F732020001F
:1030C40053313A00202053323A005B4F4B5D2000CD
:1030D4005B5741524E5D20005B44414E4745525D73
:1030E40020005B43524954215D20004E4F524D4114
:1030F4004C005741524E494E470044414E474552B9
:0A31040000435249544943414C0076
:00000001FF
