:100000000C94900E0C94A21A0C94771A0C944C1A1F
:100010000C94211A0C94F6190C94CB190C94A01979
:100020000C9475190C94CD1A0C94CD1A0C94CD1A0D
:100030000C94C10E0C94C10E0C94C10E0C94C10E04
:100040000C94C10E0C94C10E0C94C10E0C94C10EF4
:100050000C94C10E0C94C10E0C94C10E0C942B196F
:100060000C94C10E0C94F5180C94CB180C94C10E82
:100070000C94C10E0C94C10E0C94C10E0C94C10EC4
:100080000C94C10E0C94C10E0C94C10E0C94C10EB4
:100090000C9495180C946B180C94C10E0C94D71AF0
:1000A0000C94C10E0C94C10E0C94C10E0C94C10E94
:1000B0000C94C10E0C94C10E0C94C10E0C94C10E84
:1000C0000C94C10E0C94C10E0C94C10E0C94C10E74
:1000D0000C94C10E0C94C10E0C94C10E0C94C10E64
:1000E0000C94C10E0C9420120C9480100C9495105A
:1000F0000C944A120C94A3100C947F300C94F40EC0
:100100000C948F100C947A140C9430120C947A1076
:100110000C9484100C940F100C94B5100C940414CF
:100120000C94BA100C94FB1B0C949F100C9421128D
:100130000C945E0F0C94C20F0C9477120C94F60E74
:100140000C948C100C94220F0C9488100C94AD100D
:100150000C94A7100C94800F0C94B9110C94991066
:100160000C94BF100C94B1100C94F50E0C94EA0E84
:100170000C944F0F0C94720F0C9495130C94431223
:100180000C94BB104E414E494E495459494E46CDF0
:10019000CCCC3D0AD7233C17B7D13877CC2B32953E
:1001A00095E6241FB14F0A000020410000C842001C
:1001B000401C4620BCBE4CCA1B0E5AAEC59D7429BD
:1001C000005D202841534349493A20004469736344
:1001D000617264656420636861723A205B00416CFF
:1001E0006C2064617461202B206D61676963206EEF
:1001F000756D62657220736176656420746F204549
:100200004550524F4D00454550524F4D2077726931
:100210007465206661696C656420666F7220666C27
:100220006F7743616C6962726174696F6E46616376
:10023000746F7221205265747279696E672E2E2E4A
:1002400000454550524F4D207772697465206661B4
:10025000696C656420666F7220637573746F6D508E
:10026000617373776F726421205265747279696E5D
:10027000672E2E2E00454550524F4D2077726974DF
:1002800065206661696C656420666F7220707269B2
:1002900063655065724C697465722061667465723D
:1002A000206D61782072657472696573210045451F
:1002B00050524F4D207772697465206661696C6594
:1002C0006420666F722070726963655065724C6954
:1002D00074657221205265747279696E672E2E2EB4
:1002E00000454550524F4D207772697465207375F3
:1002F000636365737366756C20666F7220707269D4
:1003000063655065724C697465722E00293A20004D
:1003100052656164206261636B207072696365502D
:1003200065724C697465722028417474656D7074CF
:100330002000536176696E6720707269636550654D
:10034000724C697465723A2000436F696E20496E81
:10035000736572746564212043757272656E7420D2
:1003600042616C616E63653A20547368200000003E
:100370002100240027002A002D0030003300010155
:100380000000040107010A010000220025002800E6
:100390002B002E003100340002010000050108018D
:1003A0000B01000020002300260029002C002F0054
:1003B00032000001000003010601090105050505E1
:1003C000070508080808020202020A0A08080404CD
:1003D00004040101010101010101030303030303FB
:1003E0000303040707070C0C0C0C0C0C0C0C02028A
:1003F000020206060606060606060B0B0B0B0B0B87
:100400000B0B010210202008081020401020408013
:1004100002010201080402010102040810204080C8
:100420008040201008040201800402018040201056
:10043000080402010804020101020408102040809F
:10044000010204081020408000000A0B02090C0D74
:100450000E08070304010000000000000000000077
:10046000000000000000000000000000000000008C
:100470000000000012111000000000000000000049
:1004800000000000000000000000000000005072AA
:10049000652D436C6F7365204F66667365743A20F3
:1004A00000496E76616C696420707269636550659D
:1004B000724C697465722064657465637465642C3C
:1004C00020726573657474696E6720746F203530AF
:1004D0002E30004C6F6164656420707269636550F2
:1004E00065724C697465722066726F6D2045455067
:1004F000524F4D3A200050617373776F72643A2007
:100500000043616C6962726174696F6E2046616359
:10051000746F723A2000496E76616C6964206F7264
:1005200020636F7272757074656420454550524F38
:100530004D20646174612120496E697469616C6940
:100540007A696E672064656661756C74732E0054F9
:100550006F74616C20436F696E73206C6F616465AA
:10056000643A200020532E572E56202000534D442D
:1005700027732057415445522056454E44002000D1
:1005800053656E642064656661756C74206F7220BB
:100590006E65772070617373776F72642E0050619F
:1005A0007373776F726420726573657420746F2043
:1005B00064656661756C7421004C6F6E67207072A3
:1005C000657373206465746563746564210020003D
:1005D0002000496E76616C696420636F6D6D616E99
:1005E00064212053656E6420277072696365272C2F
:1005F000202763616C666163746F72272C20276EFD
:10060000657770617373272C206F72202765786976
:1006100074272E0000456E74657265642050617306
:1006200073776F7264204368616E6765204D6F64F5
:10063000653B2053656E64206E657720706173732F
:10064000776F72642028757020746F2031352063B5
:100650006861726163746572732900200020004331
:100660006F6E746163743A202B3235353736373804
:1006700033303331392E005448414E4B5320464FCE
:1006800052205452555354494E4720534D442773DA
:100690002057617465722056656E647300526574EC
:1006A00075726E656420746F20576F726B204D6F8A
:1006B00064652E002000416C6C20646174612073BD
:1006C0006176656421004F722073656E6420277027
:1006D00072696365272C202762616C616E636527F0
:1006E0002C2027707265636C6F7365272C2027722E
:1006F00065736574272C20276E6577706173732787
:100700002C206F72202765786974272E0000456EB3
:1007100074657265642043616C6962726174696FAB
:100720006E20466163746F72204D6F64653A20538A
:10073000656E642063616C6962726174696F6E20BA
:10074000666163746F722028652E672E2C20736596
:100750006E6420312E30290020004F722073656EA8
:1007600064202763616C666163746F72272C202795
:1007700062616C616E6365272C2027707265636C03
:100780006F7365272C20277265736574272C2027CB
:100790006E657770617373272C206F7220276578E0
:1007A0006974272E0000456E74657265642050726E
:1007B00069636520506572204C69746572204D6FC5
:1007C00064653A2053656E642070726963652070B9
:1007D0006572206C697465722028652E672E2C2046
:1007E00073656E642035302E30290020005D005284
:1007F000657365742F6578697420627566666572C5
:100800003A205B002000496E76616C696420636F5A
:100810006D6D616E64212053656E6420277072696E
:100820006365272C2027707265636C6F7365272CB6
:10083000202763616C666163746F72272C202772B6
:1008400065736574272C20276E6577706173732735
:100850002C206F72202765786974272E0000456E62
:1008600074657265642050617373776F726420439E
:1008700068616E6765204D6F64653B2053656E64EB
:10088000206E65772070617373776F7264202875AE
:100890007020746F20313520636861726163746504
:1008A0007273290020002000436F6E74616374200E
:1008B00055733A202B3235353736373833303331AC
:1008C000392E005448414E4B5320464F522054522B
:1008D000555354494E4720534D4427732057617454
:1008E00065722056656E64730052657475726E652C
:1008F0006420746F20576F726B204D6F64652E00FB
:10090000416C6C20646174612073617665642100C0
:100910002000200053656E6420277072696365278C
:100920002C202763616C666163746F72272C20270B
:10093000707265636C6F7365272C20276E65777006
:10094000617373272C206F72202765786974272EB6
:100950000000546F74616C2053616C6573206E6F7E
:10096000773A2054736820000053616C65732072DD
:1009700065736574210020004F722073656E6420DA
:10098000277072696365272C202762616C616E6332
:1009900065272C2027707265636C6F7365272C2088
:1009A000277265736574272C20276E6577706173D5
:1009B00073272C206F72202765786974272E00001A
:1009C000456E74657265642043616C69627261741E
:1009D000696F6E20466163746F72204D6F64653A73
:1009E0002053656E642063616C6962726174696F23
:1009F0006E20666163746F722028652E672E2C202E
:100A000073656E6420312E30290020004F722073F0
:100A1000656E64202763616C666163746F72272C56
:100A2000202762616C616E6365272C2027707265D8
:100A3000636C6F7365272C20277265736574272C90
:100A400020276E657770617373272C206F722027C3
:100A500065786974272E0000456E746572656420A0
:100A6000507269636520506572204C69746572200C
:100A70004D6F64653A2053656E64207072696365DA
:100A800020706572206C697465722028652E672E4F
:100A90002C2073656E642035302E30290020005DD7
:100AA0000042616C616E6365206275666665723ACC
:100AB000205B002000496E76616C696420636F6D75
:100AC0006D616E64212053656E64202773617665C5
:100AD000272C20277072696365272C202770726588
:100AE000636C6F7365272C202763616C6661637488
:100AF0006F72272C202762616C616E6365272C2042
:100B0000277265736574272C20276E657770617373
:100B100073272C206F72202765786974272E002098
:100B200000436F6E746163743A202B32353537366B
:100B3000373833303331392E005448414E4B53202F
:100B4000464F52205452555354494E4720534D441A
:100B500027732057617465722056656E6473005266
:100B6000657475726E656420746F20576F726B20A8
:100B70004D6F64652E00416C6C206461746120735C
:100B8000617665642100200000456E7465726564BD
:100B90002050617373776F7264204368616E67657C
:100BA000204D6F64653A2053656E64206E65772032
:100BB00070617373776F72642028757020746F2072
:100BC0003135206368617261637465727329002036
:100BD0000000546F74616C2053616C6573206E6FFC
:100BE000773A2054736820000053616C657320725B
:100BF00065736574212053656E6420277072696384
:100C000065272C202763616C666163746F72272CE3
:100C100020276E657770617373272C206F722027F1
:100C200065786974272E00200053656E6420277054
:100C300072696365272C202763616C666163746F3A
:100C400072272C20277265736574272C20276E6508
:100C50007770617373272C206F7220276578697411
:100C6000272E0000546F74616C2053616C65733AD9
:100C7000205473682000004F722073656E64202733
:100C80007072696365272C202762616C616E6365F1
:100C9000272C2027707265636C6F7365272C2027C3
:100CA0007265736574272C20276E65777061737386
:100CB000272C206F72202765786974272E00004545
:100CC0006E74657265642043616C696272617469F7
:100CD0006F6E20466163746F72204D6F64653A20B9
:100CE00053656E642063616C6962726174696F6ED2
:100CF00020666163746F722028652E672E2C207326
:100D0000656E6420312E30290020004F72207365FB
:100D10006E64202763616C666163746F72272C2098
:100D20002762616C616E6365272C20277072656392
:100D30006C6F7365272C20277265736574272C20D0
:100D4000276E657770617373272C206F722027657B
:100D5000786974272E0000456E74657265642050B2
:100D60007269636520506572204C69746572204D0C
:100D70006F64653A2053656E642070726963652004
:100D8000706572206C697465722028652E672E2C40
:100D90002073656E642035302E302900200020003D
:100DA000416C6C20646174612073617665642120FC
:100DB00053656E6420277072696365272C20276352
:100DC000616C666163746F72272C20276E65777083
:100DD000617373272C2027707265636C6F736527AE
:100DE0002C202762616C616E6365272C2027726559
:100DF000736574272C206F72202765786974272EFD
:100E00000020005D0053617665206275666665723C
:100E10003A205B00200050617373776F7264206D1D
:100E2000757374206265203420746F20313520631F
:100E300068617261637465727321205472792061F4
:100E40006761696E2E0053656E6420277072696356
:100E500065272C2027707265636C6F7365272C20C3
:100E60002763616C666163746F72272C202762614F
:100E70006C616E6365272C20277265736574272C5F
:100E8000206F72202765786974272E00200050613A
:100E90007373776F7264206368616E676564206145
:100EA0006E6420736176656421005D004E65772075
:100EB00070617373776F7264206275666665723AEB
:100EC000205B00496E76616C69642076616C7565A3
:100ED0002120302E30202D2031302E30206F6E6CAE
:100EE0007900200053656E6420277072696365275E
:100EF0002C2027707265636C6F7365272C20276325
:100F0000616C666163746F72272C20276E65777041
:100F1000617373272C206F72202765786974272EE0
:100F2000000020005072652D436C6F7365204F6682
:100F3000667365742073657420262073617665641A
:100F40003A20002000496E76616C69642063616C10
:100F50006962726174696F6E20666163746F722179
:100F60002053656E642061206E756D62657220622B
:100F700065747765656E20302E3120616E64203196
:100F8000302E302C20277072696365272C20276251
:100F9000616C616E6365272C202772657365742709
:100FA0002C20276E657770617373272C206F722059
:100FB0002765786974272E0053656E642027707248
:100FC000696365272C27707265636C6F7365272CC6
:100FD000202762616C616E6365272C202772657320
:100FE0006574272C20276E657770617373272C201A
:100FF0006F72202765786974272E00200043616C8A
:101000006962726174696F6E20466163746F7220E9
:1010100073657420616E642073617665643A2000A4
:101020002000456E74657265642050617373776F3C
:101030007264204368616E6765204D6F64653A2075
:1010400053656E64206E65772070617373776F727D
:10105000642028757020746F2031352063686172B8
:10106000616374657273290020002000436F6E7401
:101070006163743A202B32353537363738333033A5
:1010800031392E005448414E4B5320464F52205484
:1010900052555354494E4720534D442773205761AE
:1010A0007465722056656E64730052657475726E55
:1010B000656420746F20576F726B204D6F64652ECE
:1010C00000416C6C206461746120736176656421F9
:1010D000002000200053656E6420277072696365EC
:1010E000272C2027707265636C6F7365272C20276F
:1010F00063616C666163746F72272C20276E65775D
:1011000070617373272C206F7220276578697427AC
:101110002E0000546F74616C2053616C6573206EF7
:101120006F773A2054736820000053616C65732018
:1011300072657365742100200053656E642027700A
:1011400072696365272C2027707265636C6F736505
:10115000272C202763616C666163746F72272C20D3
:10116000277265736574272C20276E65777061730D
:1011700073272C206F72202765786974272E000052
:10118000546F74616C2053616C65733A20547368BA
:101190002000004F722073656E64202763616C66C7
:1011A0006163746F72272C2027707265636C6F7394
:1011B00065272C202762616C616E6365272C2027D0
:1011C0007265736574272C20276E65777061737361
:1011D000272C206F72202765786974272E00004520
:1011E0006E74657265642050726963652050657223
:1011F000204C69746572204D6F64653A2053656EAA
:101200006420707269636520706572206C69746512
:10121000722028652E672E2C2073656E6420353071
:101220002E30290020005D0043616C696272617498
:10123000696F6E20666163746F72206275666665A1
:10124000723A205B002000496E76616C6964207000
:101250007269636520706572206C69746572212003
:1012600053656E642061206E756D626572206265E3
:10127000747765656E203120616E642031303030C6
:10128000302E302C202763616C666163746F722787
:101290002C202762616C616E6365272C20277265A4
:1012A000736574272C20276E657770617373272C04
:1012B000206F72202765786974272E0053656E644D
:1012C00020277072696365272C2027707265636C14
:1012D0006F7365272C202763616C666163746F727E
:1012E000272C202762616C616E6365272C20277292
:1012F00065736574272C20276E657770617373277B
:101300002C206F72202765786974272E00200050EA
:101310007269636520706572204C69746572207310
:10132000657420616E642073617665643A2054733D
:101330006820002000436F6E746163743A202B3282
:1013400035353736373833303331392E005448414C
:101350004E4B5320464F52205452555354494E47FA
:1013600020534D4427732057617465722056656E73
:1013700064730052657475726E656420746F2057D3
:101380006F726B204D6F64652E00416C6C20646140
:10139000746120736176656421002000200053652C
:1013A0006E6420277072696365272C202770726530
:1013B000636C6F7365272C202763616C66616374AF
:1013C0006F72272C20276E657770617373272C202E
:1013D0006F72202765786974272E0000546F74613E
:1013E0006C2053616C6573206E6F773A205473687C
:1013F00020000053616C6573207265736574210071
:10140000200053656E6420277072696365272C2065
:1014100027707265636C6F7365272C202763616C7E
:10142000666163746F72272C202772657365742759
:101430002C20276E657770617373272C206F7220C4
:101440002765786974272E0000546F74616C2053EF
:10145000616C65733A2054736820000000456E7417
:10146000657265642050617373776F72642043689E
:10147000616E6765204D6F64653A2053656E642028
:101480006E65772070617373776F72642028757052
:1014900020746F20313520636861726163746572F6
:1014A00073290020004F722073656E6420277072CC
:1014B000696365272C2027707265636C6F736527DD
:1014C0002C202762616C616E6365272C2027726572
:1014D000736574272C20276E657770617373272CD2
:1014E000206F72202765786974272E0000456E747E
:1014F000657265642043616C6962726174696F6EC4
:1015000020466163746F72204D6F64653A205365A5
:101510006E642063616C6962726174696F6E2066CB
:101520006163746F722028652E672E2C2073656EA0
:101530006420312E30290020004F722073656E64C4
:10154000202763616C666163746F72272C2027709B
:101550007265636C6F7365272C202762616C616E06
:101560006365272C20277265736574272C20276EEE
:10157000657770617373272C206F722027657869F7
:1015800074272E0000456E74657265642050726980
:10159000636520506572204C69746572204D6F64DC
:1015A000653A2053656E64207072696365207065CA
:1015B00072206C697465722028652E672E2C20734A
:1015C000656E642035302E30290020005D005265A4
:1015D000636569766564206275666665723A205B4C
:1015E000002000496E76616C696420636F6D6D61E7
:1015F0006E64212053656E642027707269636527CD
:101600002C2027707265636C6F73652C272027630D
:10161000616C666163746F72272C202762616C6154
:101620006E6365272C20277265736574272C20272D
:101630006E657770617373272C206F722027657831
:101640006974272E00200053656E6420277072692C
:101650006365272C2027707265636C6F7365272C78
:10166000202763616C666163746F72272C20276E7C
:10167000657770617373272C206F722027657869F6
:1016800074272E000053656E64206E6577207661A6
:101690006C75652028652E672E20302E3329206F2B
:1016A00072202765786974270043757272656E74BD
:1016B000206F66667365743A2000456E74657265C6
:1016C00064205072652D436C6F7365204F6666739E
:1016D0006574204D6F64650020002000436F6E74B8
:1016E0006163742075733A202B32353537363738BD
:1016F00033303331392E005448414E4B5320464F3E
:1017000052205452555354494E4720534D44277349
:101710002057617465722056656E6473005265745B
:1017200075726E656420746F20576F726B204D6FF9
:1017300064652E00416C6C20646174612073617675
:10174000656421002000200053656E6420277072BC
:10175000696365272C202763616C666163746F720F
:10176000272C2027707265636C6F7365272C2027E8
:101770006E657770617373272C206F7220276578F0
:101780006974272E002000546F74616C2053616CC3
:101790006573206E6F773A205473682000200053E1
:1017A000616C6573207265736574210020002000F0
:1017B00053656E6420277072696365272C20276348
:1017C000616C666163746F72272C20277072656389
:1017D0006C6F7365272C20277265736574272C2026
:1017E000276E657770617373272C206F72202765D1
:1017F000786974272E002000546F74616C20536147
:101800006C65733A20547368200020002000456EF8
:1018100074657265642050617373776F72642043DE
:1018200068616E6765204D6F64653A2053656E642C
:10183000206E65772070617373776F7264202875EE
:101840007020746F20313520636861726163746544
:10185000727329002000004F722073656E64202788
:101860007072696365272C2027707265636C6F73D3
:1018700065272C202762616C616E6365272C202709
:101880007265736574272C20276E6577706173739A
:10189000272C206F72202765786974272E00004559
:1018A0006E74657265642043616C6962726174690B
:1018B0006F6E20466163746F72204D6F64653A20CD
:1018C00053656E642063616C6962726174696F6EE6
:1018D00020666163746F722028652E672E2C20733A
:1018E000656E6420312E3029000020004F72207375
:1018F000656E64202763616C666163746F72272C68
:101900002027707265636C6F7365272C20276261D6
:101910006C616E6365272C20277265736574272CB4
:1019200020276E657770617373272C206F722027D4
:1019300065786974272E002000456E7465726564B1
:1019400020507269636520506572204C697465721D
:10195000204D6F64653A2053656E64207072696330
:101960006520706572206C697465722028652E6729
:101970002E2C2073656E642035302E302900200017
:101980005D005265636569766564206275666665AB
:10199000723A205B00200050726573732072657389
:1019A000657420627574746F6E20666F72203520C6
:1019B0007365636F6E647320746F207265766572F1
:1019C0007420746F2064656661756C742070617337
:1019D00073776F72642E00436F6E7461637420744A
:1019E0006865206F776E657220666F72206675720B
:1019F0007468657220617373697374616E63652EB8
:101A000000496E636F7272656374207061737377DF
:101A10006F7264212054727920616761696E206F52
:101A200072200020004F722073656E64202762616F
:101A30006C616E63652720746F20636865636B203B
:101A400062616C616E63652C2027707265636C6FD8
:101A500073652720746F207365742056616C7665FA
:101A600020636C6F73652C20277265736574272063
:101A7000746F2072657365742073616C65732C20BC
:101A80006F722027657869742720746F20726574DF
:101A900075726E20746F20576F726B204D6F646586
:101AA0002E00200053656E642027707269636527DD
:101AB00020746F206368616E67652070726963656A
:101AC00020706572206C697465722C202763616CCC
:101AD000666163746F722720746F206368616E673C
:101AE000652063616C6962726174696F6E20666102
:101AF00063746F722C20276E657770617373272073
:101B0000746F206368616E67652070617373776FAF
:101B100072642E0020005072652D436C6F73652037
:101B20004F6666736574206C6F616465643A20006B
:101B3000200043616C6962726174696F6E20466156
:101B400063746F723A2000200050726963652070E0
:101B50006572204C697465723A20547368200020C5
:101B60000043757272656E7420446174613A00209E
:101B700000534D4427732057617465722056656E7B
:101B800064733A20576173696C69616E61206E619C
:101B900073693A202B32353537353935303336399C
:101BA000332E005D00526563656976656420627559
:101BB000666665723A205B0029005D202841534328
:101BC00049493A200052656365697665642064611D
:101BD00074613A205B002000436F6E746163743A55
:101BE000202B3235353736373833303331392E0004
:101BF0005448414E4B5320464F5220545255535453
:101C0000494E4720534D4427732057617465722015
:101C100056656E64730052657475726E65642074E7
:101C20006F20576F726B204D6F64652E00426C758C
:101C300065746F6F74682069646C652074696D6584
:101C40006F757420726561636865642E20416C6CE9
:101C5000206461746120736176656421005265744B
:101C600075726E696E6720746F20576F726B0042D9
:101C70006C7565746F6F74682054696D656F7574E9
:101C8000004B41524942552054454E410041534179
:101C90004E54452053414E41005052452D434C4F28
:101CA000534520414354495645005052452D434C1D
:101CB0004F53453A2056616C766520696D656675AF
:101CC0006E677761206D6170656D6100547A3A00CE
:101CD0004C3A004A554D4C413A5473682000494EE5
:101CE00041544F41204D414A492E2E2E00202020A4
:101CF000202020202020202020202020200054737D
:101D0000683A20004F4E47455A412053414C494FB5
:101D10000053414C494F205473683A00FB1B7F30FD
:101D200011241FBECFEFD1E2DEBFCDBF00E00CBF5C
:101D300025E0A6E2B3E001C01D92A839B207E1F7A1
:101D400013E0A0E0B2E0EAEFFDE600E00BBF02C066
:101D500007900D92A632B107D9F71EE0CFE8DEE07A
:101D600000E006C021970109802FFE010E94B034D7
:101D7000CE38D10780E00807A9F70E94E91C0C942F
:101D8000EB360C940000FC01A089B18982E08C93B1
:101D9000A485B5851C92A685B7858FEC8C93108E93
:101DA000A489B58986E08C93A289B3898C918061DE
:101DB0008C93A289B3898C9188608C93A289B38912
:101DC0008C9180688C930288F389E02D80818F7DCF
:101DD0008083089580911F04909120040196909330
:101DE000200480931F040895089508950895DC0148
:101DF000ED91FC910190F081E02D1994EF92FF920A
:101E00000F931F93CF93DF938C017B01D0E0C0E051
:101E1000F701EC0FFD1F6491662361F0D801ED918D
:101E2000FC910190F081E02DC8011995892B11F0EA
:101E30002196EECFCE01DF91CF911F910F91FF90B0
:101E4000EF900895AF92BF92CF92DF92EF92FF9200
:101E50000F931F93CF93DF936C017B018B01040FD2
:101E6000151FEB015E01AE18BF08C017D10759F06E
:101E70006991D601ED91FC910190F081E02DC601B0
:101E80001995892B79F7C501DF91CF911F910F919A
:101E9000FF90EF90DF90CF90BF90AF900895FC013E
:101EA000538D448D252F30E0842F90E0821B930BBF
:101EB000541710F0CF96089501970895FC01918D65
:101EC000828D981761F0A28DAE0FBF2FB11D5D9668
:101ED0008C91928D9F5F9F73928F90E008958FEF0A
:101EE0009FEF0895FC01918D828D981731F0828DBE
:101EF000E80FF11D858D90E008958FEF9FEF089515
:101F0000FC01918D228D892F90E0805C9F4F821B78
:101F100091098F73992708958AE394E00E94800FB6
:101F200021E0892B09F420E0822F089587ED94E0C9
:101F30000E94800F21E0892B09F420E0822F089570
:101F4000FC01A48DA80FB92FB11DA35ABF4F2C912E
:101F5000848D90E001968F739927848FA689B78925
:101F60002C93A089B1898C91837080648C93938D1C
:101F7000848D981306C00288F389E02D80818F7DBF
:101F800080830895EF92FF920F931F93CF93DF9377
:101F9000EC0181E0888F9B8D8C8D98131AC0E889A5
:101FA000F989808185FF15C09FB7F894EE89FF8974
:101FB0006083E889F98980818370806480839FBF12
:101FC00081E090E0DF91CF911F910F91FF90EF9012
:101FD0000895F62E0B8D10E00F5F1F4F0F73112722
:101FE000E02E8C8D8E110CC00FB607FCFACFE8895D
:101FF000F989808185FFF5CFCE010E94A00FF1CF36
:10200000EB8DEC0FFD2FF11DE35AFF4FF0829FB7D0
:10201000F8940B8FEA89FB8980818062CFCFCF93C0
:10202000DF93EC01888D8823B9F0AA89BB89E88900
:10203000F9898C9185FD03C0808186FD0DC00FB6A6
:1020400007FCF7CF8C9185FFF2CF808185FFEDCF24
:10205000CE010E94A00FE9CFDF91CF91089580E0DB
:1020600090E0892B29F00E94960F81110E940000B8
:1020700080E090E0892B29F00E948C0F81110E9452
:10208000000080E090E0892B49F080E090E0892B0F
:1020900029F00E94000081110E94000080E090E081
:1020A000892B49F080E090E0892B29F00E94000004
:1020B00081110C94000008958150823108F05AC0BB
:1020C000E82FF0E08827E859FF4E8F4F0C94B0348A
:1020D00088108C107A1080108410BA108F10951010
:1020E00099109F10A310A710AD10B110BA10B51021
:1020F000BB10BF10809180008F778093800008957F
:10210000809180008F7DF9CF80918000877FF5CF0F
:1021100084B58F7784BD089584B58F7DFBCF809182
:10212000B0008F778093B00008958091B0008F7DCC
:10213000F9CF809190008F778093900008958091DF
:1021400090008F7DF9CF80919000877FF5CF8091AF
:10215000A0008F778093A00008958091A0008F7DCC
:10216000F9CF8091A000877FF5CF809120018F77F4
:10217000809320010895809120018F7DF9CF809177
:102180002001877FF5CFCF93DF93282F30E0F9012F
:10219000E85BFB4F8491F901EE5FFB4FD491F901AD
:1021A000E454FC4FC491CC23A1F081110E945C1037
:1021B000EC2FF0E0EE0FFF1FEE55FC4FA591B49110
:1021C000EC91ED2381E090E009F480E0DF91CF9184
:1021D000089580E090E0FACF1F93CF93DF93282FEC
:1021E00030E0F901E85BFB4F8491F901EE5FFB4FB2
:1021F000D491F901E454FC4FC491CC23A9F0162FDB
:1022000081110E945C10EC2FF0E0EE0FFF1FE857E9
:10221000FC4FA591B4918FB7F894EC91111108C0BF
:10222000D095DE23DC938FBFDF91CF911F9108956E
:10223000DE2BF8CFCF93DF9390E0FC01EE5FFB4FF6
:10224000249184549C4FFC0184918823C9F090E030
:10225000880F991FFC01E259FC4FA591B491FC0134
:10226000E857FC4FC591D49161110DC09FB7F89408
:102270008C91209582238C938881282328839FBF6B
:10228000DF91CF910895623051F49FB7F8943C915B
:10229000822F809583238C93E8812E2BEFCF8FB7ED
:1022A000F894EC912E2B2C938FBFEACF3FB7F89484
:1022B0008091DF039091E003A091E103B091E203EC
:1022C00026B5A89B05C02F3F19F00196A11DB11D91
:1022D0003FBFBA2FA92F982F8827BC01CD01620FCD
:1022E000711D811D911D42E0660F771F881F991F88
:1022F0004A95D1F708958F929F92AF92BF92CF9255
:10230000DF92EF92FF924B015C010E9456116B012C
:102310007C010E9456116C197D098E099F09683E47
:10232000734081059105A8F321E0821A9108A10864
:10233000B10888EEC80E83E0D81EE11CF11C8114A0
:102340009104A104B10429F7FF90EF90DF90CF90A2
:10235000BF90AF909F908F9008952FB7F8946091A1
:10236000DB037091DC038091DD039091DE032FBFCE
:102370000895089520916703260F3327331F2132D4
:102380003105ECF42091B003FC0190E080E02430B2
:1023900069F082E00895A09167032191AC01495B47
:1023A0005C4FA40FB52FB11D2C930196861798F39F
:1023B00080916703680F6093670380E0089581E070
:1023C00008951092B00381E08093AF0310928A03C6
:1023D00061E084E10E94EC1061E085E10E94EC1074
:1023E000E9EBF0E080818E7F808380818D7F808328
:1023F00088E48093B80085E48093BC000895CF936F
:10240000DF9391E0909346038823B9F0C091B80020
:10241000D091BA008091BC008A7B8093BC0060E0C0
:1024200084E10E94EC1060E085E10E94EC100E94C3
:10243000E111D093BA00C093B800DF91CF91089515
:102440000895E091EA038091E903E81730F4F0E0A1
:10245000EA5DFC4F808190E008958FEF9FEF089533
:102460009091EA038091E9032FEF3FEF981748F42A
:10247000E92FF0E0EA5DFC4F208130E09F5F909310
:10248000EA03C90108958091E9039091EA03891B49
:10249000990B0895CF92DF92EF92FF920F931F93C3
:1024A000CF93DF937C01CB018A012091B6032223D5
:1024B00089F0EB016B01C40ED51ECC15DD0569F06A
:1024C0006991D701ED91FC910190F081E02DC70158
:1024D0001995F3CF642F0E94BA11C801DF91CF91F3
:1024E0001F910F91FF90EF90DF90CF900895CF93C1
:1024F000DF931F92CDB7DEB769832091B603222305
:10250000F9F02091E703203258F021E030E0FC019F
:102510003383228390E080E00F90DF91CF91089584
:102520008091E803E82FF0E0E954FC4F9981908313
:102530008F5F8093E8038093E70381E090E0ECCF26
:1025400061E0CE0101960E94BA11F7CFCF92DF92DF
:10255000EF92FF920F931F93CF93DF93FC01C481FF
:1025600021E02093B603C093D7031092E8031092A2
:10257000E7038385682B84E795E00E947712D0916A
:10258000E703D13208F092C00E9456116B017C0122
:102590008091B003811165C082E08093B00381E037
:1025A0008093AF038FEF8093AE031092AD03D0936F
:1025B000AC03A7EBB3E0ECE8F3E080E0D81385C010
:1025C00010928B0380918B03CC0FC82BC0938B038D
:1025D00080918A03813009F07CC010928A030E94A6
:1025E00056116B017C0180918B038093BB0080911D
:1025F000B2039091B303A091B403B091B503892BBA
:102600008A2B8B2B99F00E9456110091B2031091E6
:10261000B3032091B4033091B5036C197D098E0981
:102620009F090617170728073907E0F18091BC00BA
:1026300083FDD9CF85EC8093BC000E9456116B01BD
:102640007C018091B003823009F445C08091AE03D3
:102650008F3F61F18091AE03803241F18091AE03F2
:1026600025C08091B2039091B303A091B403B091BF
:10267000B503892B8A2B8B2B09F48ACF0E94561124
:102680000091B2031091B3032091B4033091B503CC
:102690006C197D098E099F09061717072807390746
:1026A00008F076CF8091B1030E94FF111092E803E9
:1026B0001092E7031092B603DF91CF911F910F9113
:1026C000FF90EF90DF90CF9008959D9191938F5F51
:1026D00075CF85EEB0CF8091B2039091B303A091F6
:1026E000B403B091B503892B8A2B8B2B09F4A9CFA6
:1026F0000E9456110091B2031091B3032091B403CC
:102700003091B5036C197D098E099F0906171707CB
:102710002807390708F095CFC5CF88E08093910549
:1027200060E086E895E00C94A61290E080E00895C1
:102730000F931F93CF938C01C62F0E94A6126C2F6C
:102740006460C8010E94A6126C2F6B7FC8010E94B2
:10275000A61283EC90E00197F1F7CF911F910F91B2
:1027600008950F931F93CF93DF938C01D62FC42F1F
:10277000607F642B0E94981380E1D89FB0011124E0
:102780006C2BC801DF91CF911F910F910C9498137E
:10279000CF93DF9300D000D01F921F92CDB7DEB74A
:1027A00098E0E6E3F2E0DE01119601900D929A9531
:1027B000E1F790918E05961708F46FEF262F30E021
:1027C000220F331F41E050E04C0F5D1F240F351FD7
:1027D000F9016081680F606840E086E895E028961E
:1027E0000FB6F894DEBF0FBECDBFDF91CF910C9432
:1027F000B11340E061E086E895E00E94B1138BE3FD
:102800009FE10197F1F7089541E00E94B11381E043
:1028100090E00895FB0101900020E9F73197AF01A6
:10282000461B570BDC01ED91FC910280F381E02DFA
:1028300019948F929F92AF92BF92EF92FF920F9353
:102840001F93CF93DF93CDB7DEB7A1970FB6F89460
:10285000DEBF0FBECDBF7C01FA01CB0119A2223031
:1028600008F42AE08E010F5D1F4F822E912CB12CAF
:10287000A12CBF01A50194010E948E34F901CA0167
:102880006A300CF5605DD8016E938D01232B242BEB
:10289000252B79F790E080E0109721F0BD01C7016A
:1028A0000E940A14A1960FB6F894DEBF0FBECDBFEA
:1028B000DF91CF911F910F91FF90EF90BF90AF905C
:1028C0009F908F900895695CDECF0F931F93CF93F5
:1028D000DF93EC012AE00E9419148C016EE672E08D
:1028E000CE010E940A14800F911FDF91CF911F919A
:1028F0000F910895609130047091310480913204F9
:102900009091330420E030E048E452E40E946333C5
:1029100060933004709331048093320490933304B5
:1029200060913004709131048091320490913304AD
:102930000E944134609335047093360480933704C9
:10294000909338040E94AD1160932C0470932D0471
:1029500080932E0490932F0469E473E087ED94E054
:102960000E94FE0E40913504509136046091370468
:102970007091380487ED94E00C946514CF92DF9247
:10298000EF92FF92CF93DF93AB01BC0177FF1DC0A5
:102990006A017C016DE287ED94E00E94F70EEC0184
:1029A00044275527BA014C195D096E097F092AE0B1
:1029B00087ED94E00E9419148C0F9D1FDF91CF9139
:1029C000FF90EF90DF90CF9008952AE087ED94E09C
:1029D000DF91CF91FF90EF90DF90CF900C9419147E
:1029E000BC0187ED94E00C940A142F923F924F9211
:1029F0005F926F927F928F929F92AF92BF92CF928F
:102A0000DF92EF92FF921F93CF93DF93EC016A0165
:102A10007B01722EAB019601CB01B6010E94753489
:102A200061E772E0811126C046015701E894B7F8CA
:102A30002FEF3FEF4FE75FE7C501B4010E94753408
:102A400081110CC02FEF3FEF4FE75FE7C501B401E5
:102A50000E940B3265E772E0181664F02FEF3FEF2B
:102A60004FE75FE4C701B6010E9470341816B4F452
:102A700069E772E0CE01DF91CF911F91FF90EF9057
:102A8000DF90CF90BF90AF909F908F907F906F908E
:102A90005F904F903F902F900C940A142FEF3FEFD0
:102AA0004FE75FECC701B6010E940B3287FDE0CF14
:102AB00020E030E0A901C701B6010E940B32312CA1
:102AC000212C87FF09C06DE2CE010E94F70E1C0188
:102AD000F7FAF094F7F8F09410E060E070E080E02E
:102AE0009FE3711641F020E030E040E251E40E94A3
:102AF000CF331F5FF6CFA70196010E9463332B01EE
:102B00003C010E9441344B015C012AE0BC01A4015C
:102B1000CE010E9419147C01E20CF31C1123C1F1B7
:102B2000C501B4010E9410329B01AC01C301B20186
:102B30000E9462334B015C016EE2CE010E94F70EEF
:102B4000E80EF91E115020F120E030E040E251E49F
:102B5000C501B4010E9471322B013C010E94413435
:102B60004B01B12CA12C2AE0B501A401CE010E9499
:102B70001914E80EF91EC501B4010E9410329B0120
:102B8000AC01C301B2010E9462334B015C01DACF98
:102B9000C701DF91CF911F91FF90EF90DF90CF9011
:102BA000BF90AF909F908F907F906F905F904F906D
:102BB0003F902F9008950F931F93CF93DF93EC01D5
:102BC00022E00E94F5148C016EE672E0CE010E94B4
:102BD0000A14800F911FDF91CF911F910F910895DB
:102BE0000F931F93CF93DF93EC010E94FE0E8C0195
:102BF0006EE672E0CE010E940A14800F911FDF91F1
:102C0000CF911F910F910895CF938AE394E00E9492
:102C1000800F892B21F18AE394E00E945E0FC82F78
:102C20006CEC71E087ED94E00E94FE0E6C2F87ED56
:102C300094E00E94F70E61EC71E087ED94E00E9451
:102C4000FE0E6C2FCC0F770B880B990B0E94BE14D5
:102C50006FEB71E087ED94E00E94F015D6CFCF9135
:102C60000895EF92FF920F931F93CF93DF937C0110
:102C70008C01C8E0D0E0CE010E943233F80181938C
:102C80008F012196C831D105B1F7C701DF91CF91EE
:102C90001F910F91FF90EF900895CF92DF92EF92E6
:102CA000FF920F931F93CF93DF93EB017B0124E0FF
:102CB000E20EF11C8B016C01C61AD70AC601800F07
:102CC000911F0E943233F80181938F01EE15FF05A9
:102CD000A9F7CE01DF91CF911F910F91FF90EF9057
:102CE000DF90CF90089585ED8093BC008091B20372
:102CF0009091B303A091B403B091B5030796A11DC1
:102D0000B11D23E0B695A795979587952A95D1F79C
:102D10002091BC0024FD03C01092B003089540919F
:102D2000B2035091B3036091B4037091B503452B86
:102D3000462B472B69F30097A105B10541F02AE224
:102D40002A95F1F700C00197A109B109E1CF80915F
:102D5000B1030C94FF11FF920F931F93CF93DF9356
:102D6000EC01F62E08811981C8010E943233F81651
:102D700021F06F2DC8010E943A33CE01DF91CF912F
:102D80001F910F91FF900895EF92FF920F931F9361
:102D9000CF93DF931F921F92CDB7DEB780E2E82E6C
:102DA00082E0F82E08E010E01A830983F7016191B0
:102DB0007F01CE0101960E94AB160F5F1F4F0831B5
:102DC000110591F780E292E00F900F90DF91CF9183
:102DD0001F910F91FF90EF900895CF93DF93CDB7A0
:102DE000DEB760970FB6F894DEBF0FBECDBF0E946E
:102DF000C416CE0101960E94311660E272E0CE0147
:102E000001960E94DB36892B41F061E472E087ED88
:102E100094E00E94F0150E94C41660960FB6F894D4
:102E2000DEBF0FBECDBFDF91CF910895AF92BF92AD
:102E3000CF92DF92EF92FF920F931F93CF93DF9386
:102E40001F921F92CDB7DEB78B016B0124E0C20E3B
:102E5000D11C7B015C01A61AB70AC5018E0D9F1D0E
:102E60009A838983F70161917F01CE0101960E94C7
:102E7000AB16EC14FD0489F7C8010F900F90DF9199
:102E8000CF911F910F91FF90EF90DF90CF90BF9067
:102E9000AF900895CF92DF92EF92FF920F931F931E
:102EA000CF93DF9300D01F92CDB7DEB762E373E01C
:102EB00087ED94E00E94FE0E40911C0250911D028D
:102EC00060911E0270911F0287ED94E00E94DB1555
:102ED00010E000E06CE172E088E190E00E941617DB
:102EE000BE016F5F7F4F88E190E00E944D1660E168
:102EF00073E087ED94E00E94FE0E0F5F1F4FB80154
:102F0000012E000C880B990B0E94BE146CE073E03C
:102F100087ED94E00E94FE0E49815A816B817C818D
:102F200087ED94E00E94DB1520911C0230911D0278
:102F300040911E0250911F0269817A818B819C8190
:102F40000E9462336B017C0120E030E0A9010E9405
:102F500070341816ECF420E030E040E85FE3C7017D
:102F6000B6010E940B3287FF1DC061EE72E087ED53
:102F700094E00E94F0150F900F900F900F90DF914A
:102F8000CF911F910F91FF90EF90DF90CF90089518
:102F900020E030E040E85FEBC701B6010E947034EA
:102FA00018161CF36EEA72E087ED94E00E94F015AB
:102FB0000330110509F08ECF65E772E0D8CFCF93CB
:102FC000DF9300D01F92CDB7DEB768E172E084E0F6
:102FD00090E00E941617BE016F5F7F4F84E090E083
:102FE0000E944D16209118023091190240911A0248
:102FF00050911B0269817A818B819C810E940B32E6
:10300000882361F066E072E087ED94E00E94F0159D
:1030100068E172E084E090E00E9416170F900F9034
:103020000F900F90DF91CF910895EF92FF920F9341
:103030001F93CF93DF931F921F92CDB7DEB78EE021
:10304000E82E84E0F82E02E010E01A830983F701ED
:1030500061917F01CE0101960E94AB160F5F1F4F59
:103060000630110591F70F900F90DF91CF911F91CE
:103070000F91FF90EF900895CF93DF931F921F92CF
:10308000CDB7DEB71A8219826DECCE0101960E948F
:10309000AB1681E090E09A8389836BEACE010196BA
:1030A0000E94AB160E9415180E94DF170E94ED16B1
:1030B0000E944A1760E172E08CE190E00E941617CE
:1030C0006EED71E087ED94E00E94F0150F900F9087
:1030D000DF91CF9108951F920F920FB60F92112496
:1030E0000BB60F922F933F934F935F936F937F9302
:1030F0008F939F93AF93BF93EF93FF938AE394E0F3
:103100000E94A00FFF91EF91BF91AF919F918F917E
:103110007F916F915F914F913F912F910F900BBED7
:103120000F900FBE0F901F9018951F920F920FB621
:103130000F9211240BB60F922F938F939F93EF93BF
:10314000FF93E0914A04F0914B048081E091500498
:10315000F091510482FD1DC09081809153048F5FD6
:103160008F7320915404821741F0E0915304F0E0F2
:10317000E65CFB4F958F80935304FF91EF919F91F5
:103180008F912F910F900BBE0F900FBE0F901F903D
:1031900018958081F2CF1F920F920FB60F921124D3
:1031A0000BB60F922F933F934F935F936F937F9341
:1031B0008F939F93AF93BF93EF93FF9387ED94E02B
:1031C0000E94A00FFF91EF91BF91AF919F918F91BE
:1031D0007F916F915F914F913F912F910F900BBE17
:1031E0000F900FBE0F901F9018951F920F920FB661
:1031F0000F9211240BB60F922F938F939F93EF93FF
:10320000FF93E091E704F091E8048081E091ED0400
:10321000F091EE0482FD1DC090818091F0048F5FDB
:103220008F732091F104821741F0E091F004F0E0F7
:10323000E952FB4F958F8093F004FF91EF919F919E
:103240008F912F910F900BBE0F900FBE0F901F907C
:1032500018958081F2CF1F920F920FB60F92112412
:103260002F933F938F939F93AF93BF938091DB03F3
:103270009091DC03A091DD03B091DE033091DA037D
:1032800023E0230F2D3758F50196A11DB11D209382
:10329000DA038093DB039093DC03A093DD03B09308
:1032A000DE038091DF039091E003A091E103B091F0
:1032B000E2030196A11DB11D8093DF039093E0030B
:1032C000A093E103B093E203BF91AF919F918F91DF
:1032D0003F912F910F900FBE0F901F90189526E8E9
:1032E000230F0296A11DB11DD2CF1F920F920FB6D0
:1032F0000F9211240BB60F922F933F934F935F932E
:103300006F937F938F939F93AF93BF93EF93FF93AD
:10331000E0910E02F0910F021995FF91EF91BF918C
:10332000AF919F918F917F916F915F914F913F915D
:103330002F910F900BBE0F900FBE0F901F901895FE
:103340001F920F920FB60F9211240BB60F922F936C
:103350003F934F935F936F937F938F939F93AF931D
:10336000BF93EF93FF93E0910C02F0910D0219953A
:10337000FF91EF91BF91AF919F918F917F916F914D
:103380005F914F913F912F910F900BBE0F900FBE09
:103390000F901F9018951F920F920FB60F92112445
:1033A0000BB60F922F933F934F935F936F937F933F
:1033B0008F939F93AF93BF93EF93FF93E09102029C
:1033C000F09103021995FF91EF91BF91AF919F91F9
:1033D0008F917F916F915F914F913F912F910F90BE
:1033E0000BBE0F900FBE0F901F9018951F920F925B
:1033F0000FB60F9211240BB60F922F933F934F935A
:103400005F936F937F938F939F93AF93BF93EF934C
:10341000FF93E0910002F09101021995FF91EF9165
:10342000BF91AF919F918F917F916F915F914F91DC
:103430003F912F910F900BBE0F900FBE0F901F90DA
:1034400018951F920F920FB60F9211240BB60F9280
:103450002F933F934F935F936F937F938F939F939C
:10346000AF93BF93EF93FF93E0910A02F0910B02A9
:103470001995FF91EF91BF91AF919F918F917F919E
:103480006F915F914F913F912F910F900BBE0F90D5
:103490000FBE0F901F9018951F920F920FB60F92AC
:1034A00011240BB60F922F933F934F935F936F931B
:1034B0007F938F939F93AF93BF93EF93FF93E0918D
:1034C0000802F09109021995FF91EF91BF91AF9118
:1034D0009F918F917F916F915F914F913F912F912C
:1034E0000F900BBE0F900FBE0F901F9018951F925C
:1034F0000F920FB60F9211240BB60F922F933F939A
:103500004F935F936F937F938F939F93AF93BF93EB
:10351000EF93FF93E0910602F09107021995FF9156
:10352000EF91BF91AF919F918F917F916F915F913B
:103530004F913F912F910F900BBE0F900FBE0F90A8
:103540001F9018951F920F920FB60F9211240BB671
:103550000F922F933F934F935F936F937F938F932C
:103560009F93AF93BF93EF93FF93E0910402F09189
:1035700005021995FF91EF91BF91AF919F918F91A6
:103580007F916F915F914F913F912F910F900BBE63
:103590000F900FBE0F901F9018951F920F920FB6AD
:1035A0000F9211240F900FBE0F901F9018951F922D
:1035B0000F920FB60F9211240BB60F922F933F93D9
:1035C0004F935F936F937F938F939F93AF93BF932B
:1035D000EF93FF938091B900887F803609F44DC046
:1035E00008F040C0883209F4A9C028F5803109F4F8
:1035F0009DC0C8F4882309F4FBC0883009F496C044
:10360000FF91EF91BF91AF919F918F917F916F91BA
:103610005F914F913F912F910F900BBE0F900FBE76
:103620000F901F901895883109F488C0803241F7B7
:103630008093AE0314C0803409F49DC040F48033FD
:10364000B9F38833E9F68093AE0385ECB0C08035DA
:1036500009F485C0883509F496C0883489F60E943B
:103660007316CECF883909F48CC038F5883729F025
:1036700050F4883611F0803719F683E08093B00358
:103680001092890357C0883809F47BC0803919F03B
:10369000803809F0B5CF80918903803208F071C07D
:1036A000E091890381E08E0F809389038091BB00B4
:1036B000F0E0E759FC4F80833DC0803B39F0E0F4F7
:1036C000803A09F479C0883A09F09ACF84E080936F
:1036D000B0031092680310926703E091E503F09144
:1036E000E60319958091670381110FC081E08093F3
:1036F00067031092470309C0803C09F4A6CF883CB9
:1037000009F4A3CF883B09F07BCFE091680381E007
:103710008E0F80936803F0E0E95BFC4F808180931B
:10372000BB00909168038091670329C080918B034F
:103730008093BB0085EC8093BC0062CF9091AD0379
:103740008091AC03981758F5E091AD0381E08E0F9E
:103750008093AD03F0E0E457FC4F8081E9CFE09126
:10376000AD0381E08E0F8093AD038091BB00F0E04C
:10377000E457FC4F80839091AD038091AC03981780
:10378000C8F285E8D8CFE091AD0381E08E0F809339
:10379000AD038091BB00F0E0E457FC4F8083809143
:1037A000AF0381115CCF81E080938A0384EA809328
:1037B000BC001092B00324CF85EC8093BC00109223
:1037C000B00380918903803230F4E0918903F0E006
:1037D000E759FC4F10826091890370E0E091E303A8
:1037E000F091E40389E693E019951092890308CFDC
:1037F0001092AE0334CF10923D0410923C0488EE38
:1038000093E0A0E0B0E080933E0490933F04A09347
:103810004004B093410422E432E030933B0420930F
:103820003A044DEC50E050934704409346044CEC6E
:1038300050E0509349044093480448EC50E05093C2
:103840004B0440934A0449EC50E050934D0440939C
:103850004C044AEC50E050934F0440934E044EEC1D
:1038600050E050935104409350041092530410922E
:10387000540410925504109256041092DA041092D7
:10388000D9048093DB049093DC04A093DD04B0930F
:10389000DE043093D8042093D70425EC30E0309335
:1038A000E4042093E30424EC30E03093E604209316
:1038B000E50420EC30E03093E8042093E70421ECA9
:1038C00030E03093EA042093E90422EC30E03093B6
:1038D000EC042093EB0426EC30E03093EE042093CC
:1038E000ED041092F0041092F1041092F204109280
:1038F000F3041092770510927605809378059093E3
:103900007905A0937A05B0937B0584E592E09093C6
:10391000750580937405109289051092880586E6D6
:1039200092E0909387058093860587E280938A05CD
:1039300080E180938F0582E080939005109291053D
:1039400010928105109280051092830510928205D5
:10395000109285051092840563E470E090E080E0A9
:103960000E94F135009701F19093810580938005C5
:1039700022E430E030938305209382052091840572
:1039800030918505232B11F4FC01108282E490E034
:1039900090938505809384056DE772E080918005A2
:1039A000909181050C94E436809180059091810579
:1039B000009711F00E9468351092810510928005E1
:1039C000109285051092840510928305109282054D
:1039D0000895CF93DF9300D000D0CDB7DEB77894B1
:1039E00084B5826084BD84B5816084BD85B5826004
:1039F00085BD85B5816085BD80916E0081608093B5
:103A00006E0010928100809181008260809381001D
:103A1000809181008160809381008091800081602D
:103A2000809380008091B10084608093B100809188
:103A3000B00081608093B00080919100826080939B
:103A4000910080919100816080939100809190001D
:103A50008160809390008091A10082608093A1009A
:103A60008091A10081608093A1008091A00081607D
:103A70008093A00080912101826080932101809138
:103A800021018160809321018091200181608093D8
:103A9000200180917A00846080937A0080917A007E
:103AA000826080937A0080917A00816080937A00AE
:103AB00080917A00806880937A001092C10088E13A
:103AC00099E20FB6F894A895809360000FBE90938A
:103AD000600087ED94E00E94C30E1092EA031092FA
:103AE000E9031092E8031092E7030E94E11185EFC9
:103AF0009EE09093E6038093E50386EF9EE090932B
:103B0000E4038093E3030E94E11110928B058091FE
:103B10009005823018F098E090938B0580938E0585
:103B200062E370E080E090E00E947B11609191057B
:103B300086E895E00E94A61268EE73E080E090E0CF
:103B40000E947B1160E386E895E00E9498130BE4E5
:103B500016E4C8010197F1F760E386E895E00E945A
:103B60009813C8010197F1F760E386E895E00E9499
:103B7000981383E592E00197F1F760E286E895E01B
:103B80000E94981360918B05606240E086E895E0A2
:103B90000E94B11384E080938C0540E06CE086E8DD
:103BA00095E00E94B1130E94F91382E080938D0585
:103BB00040E066E086E895E00E94B11340E062E0F4
:103BC00086E895E00E94B1138BE39FE10197F1F73E
:103BD0000E948D1362E082E00E941A1161E089E088
:103BE0000E941A1161E08AE00E941A1161E08BE0E4
:103BF0000E941A1161E088E00E941A1160E083E0DF
:103C00000E941A1160E08CE00E941A1160E084E0CA
:103C10000E941A1160E089E00E94EC1060E08AE0E6
:103C20000E94EC1060E08BE00E94EC1060E088E005
:103C30000E94EC1090E080E00E943233898381E0A2
:103C400090E00E9432338A8309811A810D3C2BEA6D
:103C5000120709F001C582E090E00E9432338093A0
:103C60000E0483E090E00E94323380930F0484E0DE
:103C700090E00E9432338093100485E090E00E942F
:103C80003233809311046FE475E087ED94E00E9475
:103C9000FE0E40910E0450910F046091100470913B
:103CA000110487ED94E00E94651468E172E084E0FD
:103CB00090E00E944D1661E075E087ED94E00E946F
:103CC000FE0E409118025091190260911A027091F3
:103CD0001B0287ED94E00E94DB15C0901802D09083
:103CE0001902E0901A02F0901B02A7019601C70189
:103CF000B6010E947534811114C02DEC3CEC4CECE3
:103D00005DE3C701B6010E940B3287FD0AC020E0C7
:103D100030E040E251E4C701B6010E947034181649
:103D200094F480E090E0A0E8BFE3809318029093C1
:103D30001902A0931A02B0931B0268E172E084E0BA
:103D400090E00E94161780E292E00E94311666EF22
:103D500074E087ED94E00E94FE0E60E272E087ED71
:103D600094E00E940A146EE672E087ED94E00E94EF
:103D70000A1480912002811108C060EC72E080E298
:103D800092E00E94E4360E94C4166CE172E088E181
:103D900090E00E944D1663ED74E087ED94E00E9480
:103DA000FE0E40911C0250911D0260911E02709106
:103DB0001F0287ED94E00E94DB15C0901C02D0909A
:103DC0001D02E0901E02F0901F02A7019601C7019C
:103DD000B6010E947534811114C020E030E040E843
:103DE0005FE3C701B6010E940B3287FD0AC020E0E5
:103DF00030E44CE156E4C701B6010E947034181655
:103E0000C4F461EA74E087ED94E00E94F01580E06C
:103E100090E0A8E4B2E480931C0290931D02A0936A
:103E20001E02B0931F026CE172E088E190E00E94F4
:103E3000161760E172E08CE190E00E944D16C09090
:103E40001002D0901102E0901202F0901302A7012C
:103E50009601C701B6010E947534811113C020E09C
:103E600030E0A901C701B6010E940B3287FD0AC0EC
:103E700020E030E040E251E4C701B6010E94703416
:103E8000181694F48AE999E9A9E9BEE3809310022F
:103E900090931102A0931202B093130260E172E0BA
:103EA0008CE190E00E9416176EE874E087ED94E0D4
:103EB0000E94FE0E40911002509111026091120278
:103EC0007091130287ED94E00E94DB150D3C1B4AB4
:103ED00051F010920E0410920F04109210041092E0
:103EE00011040E943C1860E080E00E94C8136DE657
:103EF00075E086E895E00E94FE0E61E085E00E9494
:103F0000C81364E675E086E895E00E94FE0E60ED59
:103F100077E080E090E00E947B1161E089E00E9400
:103F2000EC100E94F9138AE794E1909301028093C8
:103F3000000280916A008C7F826080936A00EC9A14
:103F40008AEE9EE0909303028093020280916A00C1
:103F5000837F886080936A00ED9A0E94AD11609320
:103F60001B0470931C0480931D0490931E048AE329
:103F700094E00E94C30E64E670E080E090E00E944E
:103F80007B1184EF282E8EE0382EA8958AE394E0EA
:103F90000E94800F892B51F00E94AD1160932C0478
:103FA00070932D0480932E0490932F0480913904F4
:103FB000882309F460C30E94AD11C0902C04D090F6
:103FC0002D04E0902E04F0902F046C197D098E09C9
:103FD0009F09603C744D8140910508F44CC30E94D8
:103FE0003C1861E088E00E94EC1068EC70E080E032
:103FF00090E00E947B1160E088E00E94EC1010923B
:10400000390410920D0410920C0410920B041092BB
:104010000A04109209040E948D130E94F91360E0B3
:1040200080E00E94C8136FE67CE186E895E00E947C
:10403000FE0E61E080E00E94C8136DE57CE186E839
:1040400095E00E94FE0E0E94F9136DE27CE18AE386
:1040500094E00E94F01566E17CE18AE394E00E941E
:10406000F01560EF7BE18AE394E00E94F01568EDC3
:104070007BE18AE394E00E94F01566ED7BE18AE340
:1040800094E00E94FE0E10920804109207040E9411
:1040900004168091390481110C94242B0E94AD11D7
:1040A000C0902804D0902904E0902A04F0902B04BA
:1040B0006C197D098E099F0968357240810591054B
:1040C00008F45DC060E080E00E94C8136DEE7CE102
:1040D00086E895E00E94FE0EC0908405D09085058C
:1040E000F12CE12C80912604909127048E0D9F1DC8
:1040F000B6010E947A345C0160E08E2D0E94C813E4
:104100008091840590918505A816B90640F4E09148
:104110008005F0918105309711F00C94E52F1092F5
:104120002504E5E2F4E0608186E895E00E94F70E60
:104130002FEFE21AF20A80E1E816F10499F6809175
:104140002604909127040196B6010E947A34909338
:104150002704809326040E94AD1160932804709375
:10416000290480932A0490932B040E94AD1160933C
:104170002C0470932D0480932E0490932F0461E0FF
:1041800080E00E94C81361E17DE186E895E00E942D
:10419000FE0E4091350450913604609137047091C1
:1041A00038042AE086E895E00E9419148CE00E9409
:1041B000C3107C018090350490903604A0903704A1
:1041C000B090380490EA891696E8990691E0A9061D
:1041D000B10490F060E089E00E94EC1061E088E0BA
:1041E0000E94EC1068EC70E080E090E00E947B118F
:1041F00060E088E00E94EC10EF2811F00C94242B72
:10420000B501A40187ED94E00E94651461E088E0A7
:104210000E94EC1068EC70E080E090E00E947B115E
:1042200060E088E00E94EC108091340481110C94CD
:104230003830609130047091310480913204909153
:10424000330420E030E048E452E40E94703487FFF9
:1042500002C00C9438300E94AD1160932C0470930E
:104260002D0480932E0490932F0460E089E00E9437
:10427000EC1061E088E00E94EC1068EC70E080E0F7
:1042800090E00E947B1160E088E00E94EC100E94A8
:10429000F91360E080E00E94C8136EED7CE186E8CF
:1042A00095E00E94FE0E61E08AE00E94EC10109200
:1042B00021041092220410922304109224041092DC
:1042C000200410921F040E94AD1160931B04709390
:1042D0001C0480931D0490931E046091350470911A
:1042E000360480913704909138040E941032609314
:1042F0001704709318048093190490931A04209162
:104300001C0230911D0240911E0250911F020E941A
:10431000CF334B015C0110921604A8950E94AD1199
:10432000C0901B04D0901C04E0901D04F0901E046B
:104330006C197D098E099F09683E734081059105BE
:1043400060F3ED98309203022092020260911F0404
:1043500070912004072E000C880B990B0E941232DA
:10436000209118023091190240911A0250911B02BB
:104370000E94CF336093120470931304809314044B
:104380009093150420E030E040E752E40E94CF33E0
:10439000209121043091220440912304509124045F
:1043A0000E9463336B017C01C0922104D0922204ED
:1043B000E0922304F092240420911C0230911D020B
:1043C00040911E0250911F020E9471326B837C83C8
:1043D0008D839E838EEF92E00E94F01460911F0403
:1043E00070912004072E000C880B990B0E94BE14BC
:1043F0006EE672E087ED94E00E940A148BE093E091
:104400000E94F0144091120450911304609114041E
:104410007091150487ED94E00E94DB1586E193E02E
:104420000E94F014B701A60187ED94E00E94DB150D
:104430001092200410921F040E94AD1160931B047F
:1044400070931C0480931D0490931E048AEE9EE0DA
:10445000909303028093020280916A00837F8860B8
:1044600080936A00ED9A20911402309115024091D8
:10447000160250911702C701B6010E9462332B0148
:104480003C0120E030E0A9010E947034181614F0BD
:104490000C94E92F2AE037ED43E25CE3C301B2015B
:1044A0000E94703487FD02C00C94F52FA70196017D
:1044B000C501B4010E940B32181614F00C94F52FAC
:1044C00080911604811129C02091100230911102AF
:1044D0004091120250911302C501B4010E9462334F
:1044E0009B01AC01C701B6010E94703487FD15C065
:1044F00081E08093160460E08AE00E94EC106AEA92
:104500007CE187ED94E00E94F0150E94F91369E9BF
:104510007CE186E895E00E94FE0EA7019601C501A8
:10452000B4010E940B3218160CF4F7CE60E08AE05A
:104530000E94EC101092200410921F040E94AD11F2
:1045400060931B0470931C0480931D0490931E04BD
:10455000EAEEFEE0F0930302E093020280916A002B
:10456000837F886080936A00ED9A1092160460E061
:104570008AE00E94EC1060910E0470910F0480910B
:104580001004909111040E94103220911704309170
:1045900018044091190450911A040E9463330E9438
:1045A000413460930E0470930F0480931004909331
:1045B00011040E941518109216040E94F91360E06D
:1045C00083E00E94C8136DE87CE186E895E00E94D4
:1045D000FE0E61E082E00E94C81361E87CE186E89B
:1045E00095E00E94FE0E68EE73E080E090E00E948D
:1045F0007B111092340460E08AE00E94EC100E946B
:10460000F9130E943C18109235041092360410924F
:104610003704109238041092300410923104109232
:10462000320410923304109217041092180410925E
:10463000190410921A04109221041092220410926C
:104640002304109224041092200410921F0461E0AD
:1046500089E00E94EC10F8C766E175E087ED94E010
:104660000E94F01510920E0410920F041092100484
:10467000109211041ACB84E00E94C310892B09F018
:1046800073C180910604811113C10E94AD11609322
:10469000020470930304809304049093050481E062
:1046A000809306040E94AD11C090FE03D090FF03DA
:1046B000E0900004F09001046C197D098E099F09B7
:1046C0006A3071058105910508F4E3CC8AE394E032
:1046D0000E94800F892B09F4DCCC0E94AD116093FD
:1046E000FE037093FF0380930004909301048AE318
:1046F00094E00E945E0F182F65EC7BE187ED94E05B
:104700000E94FE0E612F87ED94E00E94F70E6AEB87
:104710007BE187ED94E00E94FE0E612F012E000CDC
:10472000770B880B990B0E94BE1468EB7BE187ED39
:1047300094E00E94F01580913904811143C1809169
:104740000704909108041A3019F01D3009F02AC1AD
:10475000181619060CF0A2CC82519C4FFC01108255
:1047600065EA7BE187ED94E00E94FE0E8EEE93E019
:104770000E94F01463EA7BE187ED94E00E94F0155B
:1047800060E272E08EEE93E00E94DB36892B09F046
:10479000EEC061E088E00E94EC1068EC70E080E020
:1047A00090E00E947B1160E088E00E94EC1081E0C4
:1047B0008093390480930D040E94F913109291059F
:1047C00060E086E895E00E94A61261E77BE18AE35B
:1047D00094E00E94F0156FE67BE18AE394E00E948A
:1047E000F01561E67BE18AE394E00E94F0156FE545
:1047F0007BE18AE394E00E94F01569E47BE18AE3BF
:1048000094E00E94FE0E40911C0250911D026091A6
:104810001E0270911F028AE394E00E94DB1567E498
:104820007BE18AE394E00E94F01562E37BE18AE396
:1048300094E00E94FE0E409118025091190260917E
:104840001A0270911B028AE394E00E94DB1560E378
:104850007BE18AE394E00E94F01566E17BE18AE364
:1048600094E00E94FE0E409110025091110260915E
:104870001202709113028AE394E00E94DB1564E156
:104880007BE18AE394E00E94F01564EA7AE18AE32E
:1048900094E00E94F01562EA7AE18AE394E00E94D3
:1048A000F01565E27AE18AE394E00E94F015EBCB23
:1048B0000E94AD11C0900204D0900304E090040463
:1048C000F09005046C197D098E099F0968387341C1
:1048D0008105910508F4E6CE60EC72E080E292E09A
:1048E0000E94E4360E94ED1661E088E00E94EC1020
:1048F00068EC70E080E090E00E947B1160E088E06E
:104900000E94EC1068EC70E080E090E00E947B1167
:1049100061E088E00E94EC1068EC70E080E090E0DC
:104920000E947B1160E088E00E94EC106EEC75E064
:104930008AE394E00E94F01569EB75E08AE394E065
:104940000E94F0156EE975E08AE394E00E94F0158C
:1049500060E875E08AE394E00E94F0156EE775E088
:104960008AE394E00E94F015109206049BCE63E265
:104970007AE18AE394E00E94F01561E07AE18AE34B
:1049800094E00E94F01567ED79E18AE394E00E94DB
:10499000F01567E979E18AE394E00E94F01565E992
:1049A00079E181CF8F3091050CF078CB9C012F5F9E
:1049B0003F4F309308042093070482519C4FFC0121
:1049C000108367CB80910D04882309F4FDC1809189
:1049D0000704909108041A3019F01D3009F086C5BB
:1049E000181619060CF030C682519C4FFC0110823B
:1049F00062E879E187ED94E00E94FE0E8EEE93E08E
:104A00000E94F01460E879E187ED94E00E94F015CF
:104A100065EC72E08EEE93E00E94DB36892B71F537
:104A200010920D0481E08093ED0361E088E00E9424
:104A3000EC1068EC70E080E090E00E947B1160E098
:104A400088E00E94EC106EE779E18AE394E00E942E
:104A5000F01569E379E18AE394E00E94F01567E3D9
:104A600079E18AE394E00E94F0156CEE78E18AE344
:104A700094E00E94F0156AEE78E115CF6BEC72E0DD
:104A80008EEE93E00E94DB36892B71F510920D04B7
:104A900081E080930C0461E088E00E94EC1068ECF7
:104AA00070E080E090E00E947B1160E088E00E946E
:104AB000EC1069EE78E18AE394E00E94F0156FE96A
:104AC00078E18AE394E00E94F0156EE978E18AE3E8
:104AD00094E00E94F01567E578E18AE394E00E9493
:104AE000F01566E578E1DFCE65ED72E08EEE93E0DD
:104AF0000E94DB36892B11F510920D0481E0809322
:104B00000B0461E088E00E94EC1068EC70E080E04B
:104B100090E00E947B1160E088E00E94EC1064E568
:104B200078E18AE394E00E94F0156EE078E18AE390
:104B300094E00E94F0156CE078E1B5CE6DED72E086
:104B40008EEE93E00E94DB36892BD1F510920D0496
:104B500081E080930A0461E088E00E94EC1068EC38
:104B600070E080E090E00E947B1160E088E00E94AD
:104B7000EC106AE078E18AE394E00E94F01568EFB7
:104B800077E18AE394E00E94FE0E40910E0450917A
:104B90000F0460911004709111048AE394E00E9464
:104BA000651466EF77E18AE394E00E94F01560EB0C
:104BB00077E18AE394E00E94F0156EEA77E173CE24
:104BC00065EE72E08EEE93E00E94DB36892B09F0F1
:104BD00054C010920E0410920F0410921004109200
:104BE00011040E943C1861E088E00E94EC1068EC1F
:104BF00070E080E090E00E947B1160E088E00E941D
:104C0000EC106CEA77E18AE394E00E94F0156FE91A
:104C100077E18AE394E00E94F0156DE977E18AE399
:104C200094E00E94F01567E877E18AE394E00E943F
:104C3000FE0E40910E0450910F046091100470918B
:104C400011048AE394E00E94651465E877E18AE341
:104C500094E00E94F01568E477E18AE394E00E9412
:104C6000F01566E477E18AE394E00E94F015109273
:104C70000D0481E08093090406CA6BEE72E08EEEAB
:104C800093E00E94DB36892BB9F50E943C1861E065
:104C900088E00E94EC1068EC70E080E090E00E94F8
:104CA0007B1160E088E00E94EC10109239041092B1
:104CB0000D040E948D1364E477E18AE394E00E947E
:104CC000F01564E377E18AE394E00E94F0156DE16A
:104CD00077E18AE394E00E94F01567EF76E18AE3DA
:104CE00094E00E94F0156CED76E18AE394E00E9476
:104CF000F0156AED76E1D7CD60EF72E08EEE93E0CD
:104D00000E94DB36892B09F04EC010920D041092E0
:104D10000C0410920B0410920A041092090481E012
:104D20008093EC0361E088E00E94EC1068EC70E096
:104D300080E090E00E947B1160E088E00E94EC102F
:104D400068ED76E18AE394E00E94F0156AEB76E183
:104D50008AE394E00E94F01569EA76E18AE394E040
:104D60000E94FE0E409110025091110260911202B9
:104D7000709113028AE394E00E94DB1565E876E106
:104D80008AE394E00E94F01564E876E18AE394E017
:104D90000E94F01567E476E18AE394E00E94F01542
:104DA00065E476E180CD63EE75E18AE394E00E94EC
:104DB000F01561EE75E18AE394E00E94F01510921F
:104DC00008041092070465C98091ED03882309F453
:104DD000DEC180910704909108041A3019F01D304B
:104DE00009F084C3181619060CF02EC482519C4F8A
:104DF000FC0110826EEC75E187ED94E00E94FE0EDE
:104E00008EEE93E00E94F0146CEC75E187ED94E077
:104E10000E94F01565EC72E08EEE93E00E94DB36A6
:104E2000892B41F51092ED0381E080930D0461E040
:104E300088E00E94EC1068EC70E080E090E00E9456
:104E40007B1160E088E00E94EC106AEC75E18AE377
:104E500094E00E94F01565E875E18AE394E00E9411
:104E6000F01564E875E18AE394E00E94F01569E3C7
:104E700075E119CD6BEC72E08EEE93E00E94DB36AB
:104E8000892B41F51092ED0381E080930C0461E0E1
:104E900088E00E94EC1068EC70E080E090E00E94F6
:104EA0007B1160E088E00E94EC1067E375E18AE323
:104EB00094E00E94F0156DEE74E18AE394E00E94A4
:104EC000F0156CEE74E18AE394E00E94F01565EA57
:104ED00074E1E9CC65ED72E08EEE93E00E94DB3682
:104EE000892B11F51092ED0381E080930B0461E0B2
:104EF00088E00E94EC1068EC70E080E090E00E9496
:104F00007B1160E088E00E94EC1063EA74E18AE3C0
:104F100094E00E94F0156DE574E18AE394E00E944C
:104F2000F0156CE574E1BFCC6DED72E08EEE93E0B0
:104F30000E94DB36892BD1F51092ED0381E080933E
:104F40000A0461E088E00E94EC1068EC70E080E008
:104F500090E00E947B1160E088E00E94EC106BE51D
:104F600074E18AE394E00E94F01569E474E18AE355
:104F700094E00E94FE0E40910E0450910F04609147
:104F80001004709111048AE394E00E94651468E4AF
:104F900074E18AE394E00E94F01562E074E18AE330
:104FA00094E00E94F01560E074E17DCC65EE72E063
:104FB0008EEE93E00E94DB36892B09F04BC01092F5
:104FC0000E0410920F0410921004109211040E940B
:104FD0003C1861E088E00E94EC1068EC70E080E032
:104FE00090E00E947B1160E088E00E94EC1063EF8B
:104FF00073E18AE394E00E94F01562EF73E18AE3C3
:1050000094E00E94F0156CED73E18AE394E00E9455
:10501000FE0E40910E0450910F04609110047091A7
:1050200011048AE394E00E9465146BED73E18AE356
:1050300094E00E94F0156EE973E18AE394E00E9427
:10504000F0156CE973E18AE394E00E94F015109288
:10505000ED030FCE6BEE72E08EEE93E00E94DB3636
:10506000892BB9F50E943C1861E088E00E94EC10A1
:1050700068EC70E080E090E00E947B1160E088E0E6
:105080000E94EC10109239041092ED030E948D13CF
:105090006AE973E18AE394E00E94F0156AE873E13B
:1050A0008AE394E00E94F01563E773E18AE394E0F9
:1050B0000E94F0156DE473E18AE394E00E94F0151C
:1050C00065E373E18AE394E00E94F01563E373E122
:1050D000EACB8EEE93E00E9488306B017C012AE0DF
:1050E00037ED43E25CE30E94703487FD47C020E067
:1050F00030E44CE156E4C701B6010E940B321816A9
:10510000ECF1C0921C02D0921D02E0921E02F092BD
:105110001F020E944A1761E088E00E94EC1068ECD0
:1051200070E080E090E00E947B1160E088E00E94E7
:10513000EC106FE073E18AE394E00E94FE0E409170
:105140001C0250911D0260911E0270911F028AE3A1
:1051500094E00E94DB156DE073E18AE394E00E9425
:10516000F0156CEB72E18AE394E00E94F015109266
:10517000ED0381E080930D040C94432067E472E119
:105180008AE394E00E94F01565E472E114CE809108
:105190000C04882309F4DBC1809107049091080472
:1051A0001A3019F01D3009F0A1C1181619060CF0BB
:1051B0004BC282519C4FFC01108268E272E187ED84
:1051C00094E00E94FE0E8EEE93E00E94F01466E2E0
:1051D00072E187ED94E00E94F01565EC72E08EEECE
:1051E00093E00E94DB36892B41F510920C0481E09C
:1051F00080930D0461E088E00E94EC1068EC70E0A0
:1052000080E090E00E947B1160E088E00E94EC105A
:1052100064E272E18AE394E00E94F0156FED71E1BF
:105220008AE394E00E94F0156EED71E18AE394E068
:105230000E94F01563E971E136CB6DED72E08EEE00
:1052400093E00E94DB36892BD1F510920C0481E0AB
:1052500080930A0461E088E00E94EC1068EC70E042
:1052600080E090E00E947B1160E088E00E94EC10FA
:1052700062E971E18AE394E00E94F01560E871E16F
:105280008AE394E00E94FE0E40910E0450910F04B8
:1052900060911004709111048AE394E00E946514F7
:1052A0006FE771E18AE394E00E94F01569E371E130
:1052B0008AE394E00E94F01567E371E1F4CA65EEB9
:1052C00072E08EEE93E00E94DB36892B09F04BC032
:1052D00010920E0410920F041092100410921104F8
:1052E0000E943C1861E088E00E94EC1068EC70E0DD
:1052F00080E090E00E947B1160E088E00E94EC106A
:105300006AE271E18AE394E00E94F01569E271E1DA
:105310008AE394E00E94F01563E171E18AE394E08E
:105320000E94FE0E40910E0450910F0460911004F3
:10533000709111048AE394E00E94651462E171E1C6
:105340008AE394E00E94F01565ED70E18AE394E051
:105350000E94F01563ED70E18AE394E00E94F0157D
:1053600010920C0486CC6BEE72E08EEE93E00E94FD
:10537000DB36892BB9F50E943C1861E088E00E9479
:10538000EC1068EC70E080E090E00E947B1160E03F
:1053900088E00E94EC101092390410920C040E94D4
:1053A0008D1361ED70E18AE394E00E94F01561ECE9
:1053B00070E18AE394E00E94F0156AEA70E18AE302
:1053C00094E00E94F01564E870E18AE394E00E94A2
:1053D000F0156CE670E18AE394E00E94F0156AE64D
:1053E00070E161CA65ED72E08EEE93E00E94DB36FB
:1053F000892B11F510920C0481E080930B0461E07D
:1054000088E00E94EC1068EC70E080E090E00E9480
:105410007B1160E088E00E94EC1068E670E18AE3AE
:1054200094E00E94F01562E270E18AE394E00E9449
:10543000F01560E270E137CA8EEE93E00E9488308A
:105440006B017C012DEC3CEC4CEC5DE30E94703474
:1054500087FD43C020E030E040E251E4C701B601DF
:105460000E940B321816CCF1C0921802D092190289
:10547000E0921A02F0921B020E94DF1761E088E0BE
:105480000E94EC1068EC70E080E090E00E947B11DC
:1054900060E088E00E94EC106DEF7FE08AE394E02A
:1054A0000E94FE0E409118025091190260911A025A
:1054B00070911B028AE394E00E94DB156BEF7FE0A2
:1054C0008AE394E00E94F01568EB7FE08AE394E0C1
:1054D0000E94F01510920C044CCE65E47FE08AE344
:1054E00094E00E94F01563E47FE065CC8031910583
:1054F0000CF0AAC0212F012E000C330B20533109D0
:105500002A30310508F452CA1E3209F44FCA2EE877
:10551000210F243008F44ACA193609F447CA2BE986
:10552000210F223008F442CA2FE9210F233008F45A
:105530003DCA1C3609F43ACA22E9210F233008F487
:1055400035CA29E8210F223008F07EC02FCA809189
:10555000EC03882309F47CC080910704909108042F
:105560001A3019F01D3009F06BC0181619060CF02E
:105570006BC082519C4FFC0110828EEE93E00E9422
:1055800088306B017C0120E030E0A9010E9470347A
:1055900087FD53C020E030E040E251E4C701B6018E
:1055A0000E940B3218160CF448C0C0921002D09220
:1055B0001102E0921202F092130260E172E08CE1BB
:1055C00090E00E94161761E088E00E94EC1068EC01
:1055D00070E080E090E00E947B1160E088E00E9433
:1055E000EC1064E27FE08AE394E00E94FE0E4091BA
:1055F00010025091110260911202709113028AE31D
:1056000094E00E94DB1562E27FE08AE394E00E946E
:10561000F0151092EC0381E080930D0461E27FE0CD
:105620008AE394E00E94F01564EE7EE08AE394E061
:105630000E94F01562EE7EE036C963EC7EE033C96D
:105640008A3091050CF4B2C90E942F100C94C51F2A
:1056500080910B04882309F460C080910704909125
:1056600008041A3019F01D3009F052C01816190636
:105670005CF782519C4FFC0110826CEA7EE087ED62
:1056800094E00E94FE0E8EEE93E00E94F0146AEA0F
:105690007EE087ED94E00E94F015809107049091E0
:1056A000080404970C9758F56EEE73E080E292E0E0
:1056B0000E94E4360E94ED1661E088E00E94EC1042
:1056C00068EC70E080E090E00E947B1160E088E090
:1056D0000E94EC106EE87EE08AE394E00E94F015F0
:1056E0006CE87EE08AE394E00E94F01566E47EE0D8
:1056F0008AE394E00E94F01510920B043ACD66E123
:105700007EE08AE394E00E94F01564E17EE0CBC87D
:105710008F3091050CF098CF49C98091EB03882315
:1057200009F4E8C180910704909108041A3019F037
:105730001D3009F0AFC1181619060CF085CF825143
:105740009C4FFC01108265E07EE087ED94E00E94B2
:10575000FE0E8EEE93E00E94F01463E07EE087ED93
:1057600094E00E94F01569EF72E08EEE93E00E94E3
:10577000DB36892B39F50E943C180E94F91361E051
:1057800088E00E94EC1068EC70E080E090E00E94FD
:105790007B1160E088E00E94EC1061E07EE08AE32B
:1057A00094E00E94F01560EA7DE08AE394E00E94B4
:1057B000F0156EE97DE08AE394E00E94F015109206
:1057C000EB03D7CC65EC72E08EEE93E00E94DB3603
:1057D000892B41F51092EB0381E080930D0461E089
:1057E00088E00E94EC1068EC70E080E090E00E949D
:1057F0007B1160E088E00E94EC106CE97DE08AE3B8
:1058000094E00E94F01567E57DE08AE394E00E9451
:10581000F01566E57DE08AE394E00E94F0156BE008
:105820007DE041C86BEC72E08EEE93E00E94DB36C7
:10583000892B41F51092EB0381E080930C0461E029
:1058400088E00E94EC1068EC70E080E090E00E943C
:105850007B1160E088E00E94EC1069E07DE08AE363
:1058600094E00E94F0156FEB7CE08AE394E00E94E4
:10587000F0156EEB7CE08AE394E00E94F01567E798
:105880007CE011C86DED72E08EEE93E00E94DB3695
:10589000892BA9F51092EB0381E080930A0461E063
:1058A00088E00E94EC1068EC70E080E090E00E94DC
:1058B0007B1160E088E00E94EC1066E77CE08AE300
:1058C00094E00E94F01564E67CE08AE394E00E9494
:1058D000FE0E40910E0450910F04609110047091DF
:1058E00011048AE394E00E94651463E67CE08AE395
:1058F00094E00E94F01569E27CE00C94532465EE7C
:1059000072E08EEE93E00E94DB36892B09F045C0F1
:1059100010920E0410920F041092100410921104B1
:105920000E94F91361E088E00E94EC1068EC70E0DE
:1059300080E090E00E947B1160E088E00E94EC1023
:1059400067E27CE08AE394E00E94F01569EE7BE078
:105950008AE394E00E94F01568EE7BE08AE394E02D
:105960000E94F01562ED7BE08AE394E00E94FE0E57
:1059700040910E0450910F04609110047091110435
:105980008AE394E00E94651461ED7BE08AE394E091
:105990000E94F0151092EB036CC965ED72E08EEE7B
:1059A00093E00E94DB36892B19F51092EB0381E01E
:1059B00080930B0461E088E00E94EC1068EC70E0DA
:1059C00080E090E00E947B1160E088E00E94EC1093
:1059D0006FEC7BE08AE394E00E94F01569E87BE0DD
:1059E0008AE394E00E94F01568E87BE00C9453246D
:1059F0006BEE72E08EEE93E00E94DB36892B09F0AD
:105A000040C00E943C1861E088E00E94EC1068EC05
:105A100070E080E090E00E947B1160E088E00E94EE
:105A2000EC10109239041092EB0310920D041092B6
:105A3000ED0310920A0410920C040E948D1366E884
:105A40007BE08AE394E00E94F01566E77BE08AE35E
:105A500094E00E94F0156FE57BE08AE394E00E94F9
:105A6000F01569E37BE08AE394E00E94F01561E2BF
:105A70007BE08AE394E00E94F0156FE17BE00C94F8
:105A8000532465EB7AE08AE394E00E94F01563EB1F
:105A90007AE091C9803191050CF0D6CD212F012EED
:105AA000000C330B205331092A30310510F40C94CB
:105AB000D6242FE9210F233010F40C94D6242BE99F
:105AC000210F223010F40C94D6242EE8210F273019
:105AD00010F40C94D624193611F40C94D6241C36E8
